{
	"contracts/ERC721A.sol": {
		"ERC721A": {
			"abi": [
				{
					"inputs": [
						{
							"internalType": "string",
							"name": "name_",
							"type": "string"
						},
						{
							"internalType": "string",
							"name": "symbol_",
							"type": "string"
						}
					],
					"stateMutability": "nonpayable",
					"type": "constructor"
				},
				{
					"inputs": [],
					"name": "ApprovalCallerNotOwnerNorApproved",
					"type": "error"
				},
				{
					"inputs": [],
					"name": "ApprovalQueryForNonexistentToken",
					"type": "error"
				},
				{
					"inputs": [],
					"name": "BalanceQueryForZeroAddress",
					"type": "error"
				},
				{
					"inputs": [],
					"name": "MintERC2309QuantityExceedsLimit",
					"type": "error"
				},
				{
					"inputs": [],
					"name": "MintToZeroAddress",
					"type": "error"
				},
				{
					"inputs": [],
					"name": "MintZeroQuantity",
					"type": "error"
				},
				{
					"inputs": [],
					"name": "NotCompatibleWithSpotMints",
					"type": "error"
				},
				{
					"inputs": [],
					"name": "OwnerQueryForNonexistentToken",
					"type": "error"
				},
				{
					"inputs": [],
					"name": "OwnershipNotInitializedForExtraData",
					"type": "error"
				},
				{
					"inputs": [],
					"name": "SequentialMintExceedsLimit",
					"type": "error"
				},
				{
					"inputs": [],
					"name": "SequentialUpToTooSmall",
					"type": "error"
				},
				{
					"inputs": [],
					"name": "SpotMintTokenIdTooSmall",
					"type": "error"
				},
				{
					"inputs": [],
					"name": "TokenAlreadyExists",
					"type": "error"
				},
				{
					"inputs": [],
					"name": "TokenIdsNotStrictlyAscending",
					"type": "error"
				},
				{
					"inputs": [],
					"name": "TransferCallerNotOwnerNorApproved",
					"type": "error"
				},
				{
					"inputs": [],
					"name": "TransferFromIncorrectOwner",
					"type": "error"
				},
				{
					"inputs": [],
					"name": "TransferToNonERC721ReceiverImplementer",
					"type": "error"
				},
				{
					"inputs": [],
					"name": "TransferToZeroAddress",
					"type": "error"
				},
				{
					"inputs": [],
					"name": "URIQueryForNonexistentToken",
					"type": "error"
				},
				{
					"anonymous": false,
					"inputs": [
						{
							"indexed": true,
							"internalType": "address",
							"name": "owner",
							"type": "address"
						},
						{
							"indexed": true,
							"internalType": "address",
							"name": "approved",
							"type": "address"
						},
						{
							"indexed": true,
							"internalType": "uint256",
							"name": "tokenId",
							"type": "uint256"
						}
					],
					"name": "Approval",
					"type": "event"
				},
				{
					"anonymous": false,
					"inputs": [
						{
							"indexed": true,
							"internalType": "address",
							"name": "owner",
							"type": "address"
						},
						{
							"indexed": true,
							"internalType": "address",
							"name": "operator",
							"type": "address"
						},
						{
							"indexed": false,
							"internalType": "bool",
							"name": "approved",
							"type": "bool"
						}
					],
					"name": "ApprovalForAll",
					"type": "event"
				},
				{
					"anonymous": false,
					"inputs": [
						{
							"indexed": true,
							"internalType": "uint256",
							"name": "fromTokenId",
							"type": "uint256"
						},
						{
							"indexed": false,
							"internalType": "uint256",
							"name": "toTokenId",
							"type": "uint256"
						},
						{
							"indexed": true,
							"internalType": "address",
							"name": "from",
							"type": "address"
						},
						{
							"indexed": true,
							"internalType": "address",
							"name": "to",
							"type": "address"
						}
					],
					"name": "ConsecutiveTransfer",
					"type": "event"
				},
				{
					"anonymous": false,
					"inputs": [
						{
							"indexed": true,
							"internalType": "address",
							"name": "from",
							"type": "address"
						},
						{
							"indexed": true,
							"internalType": "address",
							"name": "to",
							"type": "address"
						},
						{
							"indexed": true,
							"internalType": "uint256",
							"name": "tokenId",
							"type": "uint256"
						}
					],
					"name": "Transfer",
					"type": "event"
				},
				{
					"inputs": [
						{
							"internalType": "address",
							"name": "to",
							"type": "address"
						},
						{
							"internalType": "uint256",
							"name": "tokenId",
							"type": "uint256"
						}
					],
					"name": "approve",
					"outputs": [],
					"stateMutability": "payable",
					"type": "function"
				},
				{
					"inputs": [
						{
							"internalType": "address",
							"name": "owner",
							"type": "address"
						}
					],
					"name": "balanceOf",
					"outputs": [
						{
							"internalType": "uint256",
							"name": "",
							"type": "uint256"
						}
					],
					"stateMutability": "view",
					"type": "function"
				},
				{
					"inputs": [
						{
							"internalType": "uint256",
							"name": "tokenId",
							"type": "uint256"
						}
					],
					"name": "getApproved",
					"outputs": [
						{
							"internalType": "address",
							"name": "",
							"type": "address"
						}
					],
					"stateMutability": "view",
					"type": "function"
				},
				{
					"inputs": [
						{
							"internalType": "address",
							"name": "owner",
							"type": "address"
						},
						{
							"internalType": "address",
							"name": "operator",
							"type": "address"
						}
					],
					"name": "isApprovedForAll",
					"outputs": [
						{
							"internalType": "bool",
							"name": "",
							"type": "bool"
						}
					],
					"stateMutability": "view",
					"type": "function"
				},
				{
					"inputs": [],
					"name": "maxMintPerWallet",
					"outputs": [
						{
							"internalType": "uint256",
							"name": "",
							"type": "uint256"
						}
					],
					"stateMutability": "view",
					"type": "function"
				},
				{
					"inputs": [
						{
							"internalType": "uint256",
							"name": "quantity",
							"type": "uint256"
						}
					],
					"name": "mintPrice",
					"outputs": [
						{
							"internalType": "uint256",
							"name": "",
							"type": "uint256"
						}
					],
					"stateMutability": "view",
					"type": "function"
				},
				{
					"inputs": [],
					"name": "name",
					"outputs": [
						{
							"internalType": "string",
							"name": "",
							"type": "string"
						}
					],
					"stateMutability": "view",
					"type": "function"
				},
				{
					"inputs": [
						{
							"internalType": "uint256",
							"name": "tokenId",
							"type": "uint256"
						}
					],
					"name": "ownerOf",
					"outputs": [
						{
							"internalType": "address",
							"name": "",
							"type": "address"
						}
					],
					"stateMutability": "view",
					"type": "function"
				},
				{
					"inputs": [
						{
							"internalType": "address",
							"name": "from",
							"type": "address"
						},
						{
							"internalType": "address",
							"name": "to",
							"type": "address"
						},
						{
							"internalType": "uint256",
							"name": "tokenId",
							"type": "uint256"
						}
					],
					"name": "safeTransferFrom",
					"outputs": [],
					"stateMutability": "payable",
					"type": "function"
				},
				{
					"inputs": [
						{
							"internalType": "address",
							"name": "from",
							"type": "address"
						},
						{
							"internalType": "address",
							"name": "to",
							"type": "address"
						},
						{
							"internalType": "uint256",
							"name": "tokenId",
							"type": "uint256"
						},
						{
							"internalType": "bytes",
							"name": "_data",
							"type": "bytes"
						}
					],
					"name": "safeTransferFrom",
					"outputs": [],
					"stateMutability": "payable",
					"type": "function"
				},
				{
					"inputs": [
						{
							"internalType": "address",
							"name": "operator",
							"type": "address"
						},
						{
							"internalType": "bool",
							"name": "approved",
							"type": "bool"
						}
					],
					"name": "setApprovalForAll",
					"outputs": [],
					"stateMutability": "nonpayable",
					"type": "function"
				},
				{
					"inputs": [
						{
							"internalType": "bytes4",
							"name": "interfaceId",
							"type": "bytes4"
						}
					],
					"name": "supportsInterface",
					"outputs": [
						{
							"internalType": "bool",
							"name": "",
							"type": "bool"
						}
					],
					"stateMutability": "view",
					"type": "function"
				},
				{
					"inputs": [],
					"name": "symbol",
					"outputs": [
						{
							"internalType": "string",
							"name": "",
							"type": "string"
						}
					],
					"stateMutability": "view",
					"type": "function"
				},
				{
					"inputs": [
						{
							"internalType": "uint256",
							"name": "tokenId",
							"type": "uint256"
						}
					],
					"name": "tokenURI",
					"outputs": [
						{
							"internalType": "string",
							"name": "",
							"type": "string"
						}
					],
					"stateMutability": "view",
					"type": "function"
				},
				{
					"inputs": [],
					"name": "totalSupply",
					"outputs": [
						{
							"internalType": "uint256",
							"name": "result",
							"type": "uint256"
						}
					],
					"stateMutability": "view",
					"type": "function"
				},
				{
					"inputs": [
						{
							"internalType": "address",
							"name": "from",
							"type": "address"
						},
						{
							"internalType": "address",
							"name": "to",
							"type": "address"
						},
						{
							"internalType": "uint256",
							"name": "tokenId",
							"type": "uint256"
						}
					],
					"name": "transferFrom",
					"outputs": [],
					"stateMutability": "payable",
					"type": "function"
				}
			],
			"devdoc": {
				"details": "Implementation of the [ERC721](https://eips.ethereum.org/EIPS/eip-721) Non-Fungible Token Standard, including the Metadata extension. Optimized for lower gas during batch mints. Token IDs are minted in sequential order (e.g. 0, 1, 2, 3, ...) starting from `_startTokenId()`. The `_sequentialUpTo()` function can be overriden to enable spot mints (i.e. non-consecutive mints) for `tokenId`s greater than `_sequentialUpTo()`. Assumptions: - An owner cannot have more than 2**64 - 1 (max value of uint64) of supply. - The maximum token ID cannot exceed 2**256 - 1 (max value of uint256).",
				"events": {
					"Approval(address,address,uint256)": {
						"details": "Emitted when `owner` enables `approved` to manage the `tokenId` token."
					},
					"ApprovalForAll(address,address,bool)": {
						"details": "Emitted when `owner` enables or disables (`approved`) `operator` to manage all of its assets."
					},
					"ConsecutiveTransfer(uint256,uint256,address,address)": {
						"details": "Emitted when tokens in `fromTokenId` to `toTokenId` (inclusive) is transferred from `from` to `to`, as defined in the [ERC2309](https://eips.ethereum.org/EIPS/eip-2309) standard. See {_mintERC2309} for more details."
					},
					"Transfer(address,address,uint256)": {
						"details": "Emitted when `tokenId` token is transferred from `from` to `to`."
					}
				},
				"kind": "dev",
				"methods": {
					"approve(address,uint256)": {
						"details": "Gives permission to `to` to transfer `tokenId` token to another account. See {ERC721A-_approve}. Requirements: - The caller must own the token or be an approved operator."
					},
					"balanceOf(address)": {
						"details": "Returns the number of tokens in `owner`'s account."
					},
					"getApproved(uint256)": {
						"details": "Returns the account approved for `tokenId` token. Requirements: - `tokenId` must exist."
					},
					"isApprovedForAll(address,address)": {
						"details": "Returns if the `operator` is allowed to manage all of the assets of `owner`. See {setApprovalForAll}."
					},
					"name()": {
						"details": "Returns the token collection name."
					},
					"ownerOf(uint256)": {
						"details": "Returns the owner of the `tokenId` token. Requirements: - `tokenId` must exist."
					},
					"safeTransferFrom(address,address,uint256)": {
						"details": "Equivalent to `safeTransferFrom(from, to, tokenId, '')`."
					},
					"safeTransferFrom(address,address,uint256,bytes)": {
						"details": "Safely transfers `tokenId` token from `from` to `to`. Requirements: - `from` cannot be the zero address. - `to` cannot be the zero address. - `tokenId` token must exist and be owned by `from`. - If the caller is not `from`, it must be approved to move this token by either {approve} or {setApprovalForAll}. - If `to` refers to a smart contract, it must implement {IERC721Receiver-onERC721Received}, which is called upon a safe transfer. Emits a {Transfer} event."
					},
					"setApprovalForAll(address,bool)": {
						"details": "Approve or remove `operator` as an operator for the caller. Operators can call {transferFrom} or {safeTransferFrom} for any token owned by the caller. Requirements: - The `operator` cannot be the caller. Emits an {ApprovalForAll} event."
					},
					"supportsInterface(bytes4)": {
						"details": "Returns true if this contract implements the interface defined by `interfaceId`. See the corresponding [EIP section](https://eips.ethereum.org/EIPS/eip-165#how-interfaces-are-identified) to learn more about how these ids are created. This function call must use less than 30000 gas."
					},
					"symbol()": {
						"details": "Returns the token collection symbol."
					},
					"tokenURI(uint256)": {
						"details": "Returns the Uniform Resource Identifier (URI) for `tokenId` token."
					},
					"totalSupply()": {
						"details": "Returns the total number of tokens in existence. Burned tokens will reduce the count. To get the total number of tokens minted, please see {_totalMinted}."
					},
					"transferFrom(address,address,uint256)": {
						"details": "Transfers `tokenId` from `from` to `to`. Requirements: - `from` cannot be the zero address. - `to` cannot be the zero address. - `tokenId` token must be owned by `from`. - If the caller is not `from`, it must be approved to move this token by either {approve} or {setApprovalForAll}. Emits a {Transfer} event."
					}
				},
				"title": "ERC721A",
				"version": 1
			},
			"evm": {
				"assembly": "    /* \"contracts/ERC721A.sol\":1053:62746  contract ERC721A is IERC721A {... */\n  mstore(0x40, 0x80)\n    /* \"contracts/ERC721A.sol\":5261:5507  constructor(string memory name_, string memory symbol_) {... */\n  callvalue\n  dup1\n  iszero\n  tag_1\n  jumpi\n  0x00\n  dup1\n  revert\ntag_1:\n  pop\n  mload(0x40)\n  sub(codesize, bytecodeSize)\n  dup1\n  bytecodeSize\n  dup4\n  codecopy\n  dup2\n  dup2\n  add\n  0x40\n  mstore\n  dup2\n  add\n  swap1\n  tag_2\n  swap2\n  swap1\n  tag_3\n  jump\t// in\ntag_2:\n    /* \"contracts/ERC721A.sol\":5335:5340  name_ */\n  dup2\n    /* \"contracts/ERC721A.sol\":5327:5332  _name */\n  0x02\n    /* \"contracts/ERC721A.sol\":5327:5340  _name = name_ */\n  swap1\n  dup2\n  tag_6\n  swap2\n  swap1\n  tag_7\n  jump\t// in\ntag_6:\n  pop\n    /* \"contracts/ERC721A.sol\":5360:5367  symbol_ */\n  dup1\n    /* \"contracts/ERC721A.sol\":5350:5357  _symbol */\n  0x03\n    /* \"contracts/ERC721A.sol\":5350:5367  _symbol = symbol_ */\n  swap1\n  dup2\n  tag_8\n  swap2\n  swap1\n  tag_7\n  jump\t// in\ntag_8:\n  pop\n    /* \"contracts/ERC721A.sol\":5393:5408  _startTokenId() */\n  tag_9\n    /* \"contracts/ERC721A.sol\":5393:5406  _startTokenId */\n  shl(0x20, tag_10)\n    /* \"contracts/ERC721A.sol\":5393:5408  _startTokenId() */\n  0x20\n  shr\n  jump\t// in\ntag_9:\n    /* \"contracts/ERC721A.sol\":5377:5390  _currentIndex */\n  0x00\n    /* \"contracts/ERC721A.sol\":5377:5408  _currentIndex = _startTokenId() */\n  dup2\n  swap1\n  sstore\n  pop\n    /* \"contracts/ERC721A.sol\":5443:5458  _startTokenId() */\n  tag_11\n    /* \"contracts/ERC721A.sol\":5443:5456  _startTokenId */\n  shl(0x20, tag_10)\n    /* \"contracts/ERC721A.sol\":5443:5458  _startTokenId() */\n  0x20\n  shr\n  jump\t// in\ntag_11:\n    /* \"contracts/ERC721A.sol\":5423:5440  _sequentialUpTo() */\n  tag_12\n    /* \"contracts/ERC721A.sol\":5423:5438  _sequentialUpTo */\n  shl(0x20, tag_13)\n    /* \"contracts/ERC721A.sol\":5423:5440  _sequentialUpTo() */\n  0x20\n  shr\n  jump\t// in\ntag_12:\n    /* \"contracts/ERC721A.sol\":5423:5458  _sequentialUpTo() < _startTokenId() */\n  lt\n    /* \"contracts/ERC721A.sol\":5419:5500  if (_sequentialUpTo() < _startTokenId()) _revert(SequentialUpToTooSmall.selector) */\n  iszero\n  tag_14\n  jumpi\n    /* \"contracts/ERC721A.sol\":5460:5500  _revert(SequentialUpToTooSmall.selector) */\n  tag_15\n    /* \"contracts/ERC721A.sol\":5468:5499  SequentialUpToTooSmall.selector */\n  shl(0xe0, 0xfed8210f)\n    /* \"contracts/ERC721A.sol\":5460:5467  _revert */\n  shl(0x20, tag_16)\n    /* \"contracts/ERC721A.sol\":5460:5500  _revert(SequentialUpToTooSmall.selector) */\n  0x20\n  shr\n  jump\t// in\ntag_15:\n    /* \"contracts/ERC721A.sol\":5419:5500  if (_sequentialUpTo() < _startTokenId()) _revert(SequentialUpToTooSmall.selector) */\ntag_14:\n    /* \"contracts/ERC721A.sol\":5261:5507  constructor(string memory name_, string memory symbol_) {... */\n  pop\n  pop\n    /* \"contracts/ERC721A.sol\":1053:62746  contract ERC721A is IERC721A {... */\n  jump(tag_17)\n    /* \"contracts/ERC721A.sol\":5966:6056  function _startTokenId() internal view virtual returns (uint256) {... */\ntag_10:\n    /* \"contracts/ERC721A.sol\":6022:6029  uint256 */\n  0x00\n    /* \"contracts/ERC721A.sol\":6048:6049  1 */\n  0x01\n    /* \"contracts/ERC721A.sol\":6041:6049  return 1 */\n  swap1\n  pop\n    /* \"contracts/ERC721A.sol\":5966:6056  function _startTokenId() internal view virtual returns (uint256) {... */\n  swap1\n  jump\t// out\n    /* \"contracts/ERC721A.sol\":6404:6512  function _sequentialUpTo() internal view virtual returns (uint256) {... */\ntag_13:\n    /* \"contracts/ERC721A.sol\":6462:6469  uint256 */\n  0x00\n    /* \"contracts/ERC721A.sol\":6488:6505  type(uint256).max */\n  0xffffffffffffffffffffffffffffffffffffffffffffffffffffffffffffffff\n    /* \"contracts/ERC721A.sol\":6481:6505  return type(uint256).max */\n  swap1\n  pop\n    /* \"contracts/ERC721A.sol\":6404:6512  function _sequentialUpTo() internal view virtual returns (uint256) {... */\n  swap1\n  jump\t// out\n    /* \"contracts/ERC721A.sol\":62584:62744  function _revert(bytes4 errorSelector) internal pure {... */\ntag_16:\n    /* \"contracts/ERC721A.sol\":62683:62696  errorSelector */\n  dup1\n    /* \"contracts/ERC721A.sol\":62677:62681  0x00 */\n  0x00\n    /* \"contracts/ERC721A.sol\":62670:62697  mstore(0x00, errorSelector) */\n  mstore\n    /* \"contracts/ERC721A.sol\":62723:62727  0x04 */\n  0x04\n    /* \"contracts/ERC721A.sol\":62717:62721  0x00 */\n  0x00\n    /* \"contracts/ERC721A.sol\":62710:62728  revert(0x00, 0x04) */\n  revert\n    /* \"#utility.yul\":7:82   */\ntag_21:\n    /* \"#utility.yul\":40:46   */\n  0x00\n    /* \"#utility.yul\":73:75   */\n  0x40\n    /* \"#utility.yul\":67:76   */\n  mload\n    /* \"#utility.yul\":57:76   */\n  swap1\n  pop\n    /* \"#utility.yul\":7:82   */\n  swap1\n  jump\t// out\n    /* \"#utility.yul\":88:205   */\ntag_22:\n    /* \"#utility.yul\":197:198   */\n  0x00\n    /* \"#utility.yul\":194:195   */\n  dup1\n    /* \"#utility.yul\":187:199   */\n  revert\n    /* \"#utility.yul\":211:328   */\ntag_23:\n    /* \"#utility.yul\":320:321   */\n  0x00\n    /* \"#utility.yul\":317:318   */\n  dup1\n    /* \"#utility.yul\":310:322   */\n  revert\n    /* \"#utility.yul\":334:451   */\ntag_24:\n    /* \"#utility.yul\":443:444   */\n  0x00\n    /* \"#utility.yul\":440:441   */\n  dup1\n    /* \"#utility.yul\":433:445   */\n  revert\n    /* \"#utility.yul\":457:574   */\ntag_25:\n    /* \"#utility.yul\":566:567   */\n  0x00\n    /* \"#utility.yul\":563:564   */\n  dup1\n    /* \"#utility.yul\":556:568   */\n  revert\n    /* \"#utility.yul\":580:682   */\ntag_26:\n    /* \"#utility.yul\":621:627   */\n  0x00\n    /* \"#utility.yul\":672:674   */\n  0x1f\n    /* \"#utility.yul\":668:675   */\n  not\n    /* \"#utility.yul\":663:665   */\n  0x1f\n    /* \"#utility.yul\":656:661   */\n  dup4\n    /* \"#utility.yul\":652:666   */\n  add\n    /* \"#utility.yul\":648:676   */\n  and\n    /* \"#utility.yul\":638:676   */\n  swap1\n  pop\n    /* \"#utility.yul\":580:682   */\n  swap2\n  swap1\n  pop\n  jump\t// out\n    /* \"#utility.yul\":688:868   */\ntag_27:\n    /* \"#utility.yul\":736:813   */\n  0x4e487b7100000000000000000000000000000000000000000000000000000000\n    /* \"#utility.yul\":733:734   */\n  0x00\n    /* \"#utility.yul\":726:814   */\n  mstore\n    /* \"#utility.yul\":833:837   */\n  0x41\n    /* \"#utility.yul\":830:831   */\n  0x04\n    /* \"#utility.yul\":823:838   */\n  mstore\n    /* \"#utility.yul\":857:861   */\n  0x24\n    /* \"#utility.yul\":854:855   */\n  0x00\n    /* \"#utility.yul\":847:862   */\n  revert\n    /* \"#utility.yul\":874:1155   */\ntag_28:\n    /* \"#utility.yul\":957:984   */\n  tag_62\n    /* \"#utility.yul\":979:983   */\n  dup3\n    /* \"#utility.yul\":957:984   */\n  tag_26\n  jump\t// in\ntag_62:\n    /* \"#utility.yul\":949:955   */\n  dup2\n    /* \"#utility.yul\":945:985   */\n  add\n    /* \"#utility.yul\":1087:1093   */\n  dup2\n    /* \"#utility.yul\":1075:1085   */\n  dup2\n    /* \"#utility.yul\":1072:1094   */\n  lt\n    /* \"#utility.yul\":1051:1069   */\n  0xffffffffffffffff\n    /* \"#utility.yul\":1039:1049   */\n  dup3\n    /* \"#utility.yul\":1036:1070   */\n  gt\n    /* \"#utility.yul\":1033:1095   */\n  or\n    /* \"#utility.yul\":1030:1118   */\n  iszero\n  tag_63\n  jumpi\n    /* \"#utility.yul\":1098:1116   */\n  tag_64\n  tag_27\n  jump\t// in\ntag_64:\n    /* \"#utility.yul\":1030:1118   */\ntag_63:\n    /* \"#utility.yul\":1138:1148   */\n  dup1\n    /* \"#utility.yul\":1134:1136   */\n  0x40\n    /* \"#utility.yul\":1127:1149   */\n  mstore\n    /* \"#utility.yul\":917:1155   */\n  pop\n    /* \"#utility.yul\":874:1155   */\n  pop\n  pop\n  jump\t// out\n    /* \"#utility.yul\":1161:1290   */\ntag_29:\n    /* \"#utility.yul\":1195:1201   */\n  0x00\n    /* \"#utility.yul\":1222:1242   */\n  tag_66\n  tag_21\n  jump\t// in\ntag_66:\n    /* \"#utility.yul\":1212:1242   */\n  swap1\n  pop\n    /* \"#utility.yul\":1251:1284   */\n  tag_67\n    /* \"#utility.yul\":1279:1283   */\n  dup3\n    /* \"#utility.yul\":1271:1277   */\n  dup3\n    /* \"#utility.yul\":1251:1284   */\n  tag_28\n  jump\t// in\ntag_67:\n    /* \"#utility.yul\":1161:1290   */\n  swap2\n  swap1\n  pop\n  jump\t// out\n    /* \"#utility.yul\":1296:1604   */\ntag_30:\n    /* \"#utility.yul\":1358:1362   */\n  0x00\n    /* \"#utility.yul\":1448:1466   */\n  0xffffffffffffffff\n    /* \"#utility.yul\":1440:1446   */\n  dup3\n    /* \"#utility.yul\":1437:1467   */\n  gt\n    /* \"#utility.yul\":1434:1490   */\n  iszero\n  tag_69\n  jumpi\n    /* \"#utility.yul\":1470:1488   */\n  tag_70\n  tag_27\n  jump\t// in\ntag_70:\n    /* \"#utility.yul\":1434:1490   */\ntag_69:\n    /* \"#utility.yul\":1508:1537   */\n  tag_71\n    /* \"#utility.yul\":1530:1536   */\n  dup3\n    /* \"#utility.yul\":1508:1537   */\n  tag_26\n  jump\t// in\ntag_71:\n    /* \"#utility.yul\":1500:1537   */\n  swap1\n  pop\n    /* \"#utility.yul\":1592:1596   */\n  0x20\n    /* \"#utility.yul\":1586:1590   */\n  dup2\n    /* \"#utility.yul\":1582:1597   */\n  add\n    /* \"#utility.yul\":1574:1597   */\n  swap1\n  pop\n    /* \"#utility.yul\":1296:1604   */\n  swap2\n  swap1\n  pop\n  jump\t// out\n    /* \"#utility.yul\":1610:1749   */\ntag_31:\n    /* \"#utility.yul\":1699:1705   */\n  dup3\n    /* \"#utility.yul\":1694:1697   */\n  dup2\n    /* \"#utility.yul\":1689:1692   */\n  dup4\n    /* \"#utility.yul\":1683:1706   */\n  mcopy\n    /* \"#utility.yul\":1740:1741   */\n  0x00\n    /* \"#utility.yul\":1731:1737   */\n  dup4\n    /* \"#utility.yul\":1726:1729   */\n  dup4\n    /* \"#utility.yul\":1722:1738   */\n  add\n    /* \"#utility.yul\":1715:1742   */\n  mstore\n    /* \"#utility.yul\":1610:1749   */\n  pop\n  pop\n  pop\n  jump\t// out\n    /* \"#utility.yul\":1755:2189   */\ntag_32:\n    /* \"#utility.yul\":1844:1849   */\n  0x00\n    /* \"#utility.yul\":1869:1935   */\n  tag_74\n    /* \"#utility.yul\":1885:1934   */\n  tag_75\n    /* \"#utility.yul\":1927:1933   */\n  dup5\n    /* \"#utility.yul\":1885:1934   */\n  tag_30\n  jump\t// in\ntag_75:\n    /* \"#utility.yul\":1869:1935   */\n  tag_29\n  jump\t// in\ntag_74:\n    /* \"#utility.yul\":1860:1935   */\n  swap1\n  pop\n    /* \"#utility.yul\":1958:1964   */\n  dup3\n    /* \"#utility.yul\":1951:1956   */\n  dup2\n    /* \"#utility.yul\":1944:1965   */\n  mstore\n    /* \"#utility.yul\":1996:2000   */\n  0x20\n    /* \"#utility.yul\":1989:1994   */\n  dup2\n    /* \"#utility.yul\":1985:2001   */\n  add\n    /* \"#utility.yul\":2034:2037   */\n  dup5\n    /* \"#utility.yul\":2025:2031   */\n  dup5\n    /* \"#utility.yul\":2020:2023   */\n  dup5\n    /* \"#utility.yul\":2016:2032   */\n  add\n    /* \"#utility.yul\":2013:2038   */\n  gt\n    /* \"#utility.yul\":2010:2122   */\n  iszero\n  tag_76\n  jumpi\n    /* \"#utility.yul\":2041:2120   */\n  tag_77\n  tag_25\n  jump\t// in\ntag_77:\n    /* \"#utility.yul\":2010:2122   */\ntag_76:\n    /* \"#utility.yul\":2131:2183   */\n  tag_78\n    /* \"#utility.yul\":2176:2182   */\n  dup5\n    /* \"#utility.yul\":2171:2174   */\n  dup3\n    /* \"#utility.yul\":2166:2169   */\n  dup6\n    /* \"#utility.yul\":2131:2183   */\n  tag_31\n  jump\t// in\ntag_78:\n    /* \"#utility.yul\":1850:2189   */\n  pop\n    /* \"#utility.yul\":1755:2189   */\n  swap4\n  swap3\n  pop\n  pop\n  pop\n  jump\t// out\n    /* \"#utility.yul\":2209:2564   */\ntag_33:\n    /* \"#utility.yul\":2276:2281   */\n  0x00\n    /* \"#utility.yul\":2325:2328   */\n  dup3\n    /* \"#utility.yul\":2318:2322   */\n  0x1f\n    /* \"#utility.yul\":2310:2316   */\n  dup4\n    /* \"#utility.yul\":2306:2323   */\n  add\n    /* \"#utility.yul\":2302:2329   */\n  slt\n    /* \"#utility.yul\":2292:2414   */\n  tag_80\n  jumpi\n    /* \"#utility.yul\":2333:2412   */\n  tag_81\n  tag_24\n  jump\t// in\ntag_81:\n    /* \"#utility.yul\":2292:2414   */\ntag_80:\n    /* \"#utility.yul\":2443:2449   */\n  dup2\n    /* \"#utility.yul\":2437:2450   */\n  mload\n    /* \"#utility.yul\":2468:2558   */\n  tag_82\n    /* \"#utility.yul\":2554:2557   */\n  dup5\n    /* \"#utility.yul\":2546:2552   */\n  dup3\n    /* \"#utility.yul\":2539:2543   */\n  0x20\n    /* \"#utility.yul\":2531:2537   */\n  dup7\n    /* \"#utility.yul\":2527:2544   */\n  add\n    /* \"#utility.yul\":2468:2558   */\n  tag_32\n  jump\t// in\ntag_82:\n    /* \"#utility.yul\":2459:2558   */\n  swap2\n  pop\n    /* \"#utility.yul\":2282:2564   */\n  pop\n    /* \"#utility.yul\":2209:2564   */\n  swap3\n  swap2\n  pop\n  pop\n  jump\t// out\n    /* \"#utility.yul\":2570:3423   */\ntag_3:\n    /* \"#utility.yul\":2669:2675   */\n  0x00\n    /* \"#utility.yul\":2677:2683   */\n  dup1\n    /* \"#utility.yul\":2726:2728   */\n  0x40\n    /* \"#utility.yul\":2714:2723   */\n  dup4\n    /* \"#utility.yul\":2705:2712   */\n  dup6\n    /* \"#utility.yul\":2701:2724   */\n  sub\n    /* \"#utility.yul\":2697:2729   */\n  slt\n    /* \"#utility.yul\":2694:2813   */\n  iszero\n  tag_84\n  jumpi\n    /* \"#utility.yul\":2732:2811   */\n  tag_85\n  tag_22\n  jump\t// in\ntag_85:\n    /* \"#utility.yul\":2694:2813   */\ntag_84:\n    /* \"#utility.yul\":2873:2874   */\n  0x00\n    /* \"#utility.yul\":2862:2871   */\n  dup4\n    /* \"#utility.yul\":2858:2875   */\n  add\n    /* \"#utility.yul\":2852:2876   */\n  mload\n    /* \"#utility.yul\":2903:2921   */\n  0xffffffffffffffff\n    /* \"#utility.yul\":2895:2901   */\n  dup2\n    /* \"#utility.yul\":2892:2922   */\n  gt\n    /* \"#utility.yul\":2889:3006   */\n  iszero\n  tag_86\n  jumpi\n    /* \"#utility.yul\":2925:3004   */\n  tag_87\n  tag_23\n  jump\t// in\ntag_87:\n    /* \"#utility.yul\":2889:3006   */\ntag_86:\n    /* \"#utility.yul\":3030:3104   */\n  tag_88\n    /* \"#utility.yul\":3096:3103   */\n  dup6\n    /* \"#utility.yul\":3087:3093   */\n  dup3\n    /* \"#utility.yul\":3076:3085   */\n  dup7\n    /* \"#utility.yul\":3072:3094   */\n  add\n    /* \"#utility.yul\":3030:3104   */\n  tag_33\n  jump\t// in\ntag_88:\n    /* \"#utility.yul\":3020:3104   */\n  swap3\n  pop\n    /* \"#utility.yul\":2823:3114   */\n  pop\n    /* \"#utility.yul\":3174:3176   */\n  0x20\n    /* \"#utility.yul\":3163:3172   */\n  dup4\n    /* \"#utility.yul\":3159:3177   */\n  add\n    /* \"#utility.yul\":3153:3178   */\n  mload\n    /* \"#utility.yul\":3205:3223   */\n  0xffffffffffffffff\n    /* \"#utility.yul\":3197:3203   */\n  dup2\n    /* \"#utility.yul\":3194:3224   */\n  gt\n    /* \"#utility.yul\":3191:3308   */\n  iszero\n  tag_89\n  jumpi\n    /* \"#utility.yul\":3227:3306   */\n  tag_90\n  tag_23\n  jump\t// in\ntag_90:\n    /* \"#utility.yul\":3191:3308   */\ntag_89:\n    /* \"#utility.yul\":3332:3406   */\n  tag_91\n    /* \"#utility.yul\":3398:3405   */\n  dup6\n    /* \"#utility.yul\":3389:3395   */\n  dup3\n    /* \"#utility.yul\":3378:3387   */\n  dup7\n    /* \"#utility.yul\":3374:3396   */\n  add\n    /* \"#utility.yul\":3332:3406   */\n  tag_33\n  jump\t// in\ntag_91:\n    /* \"#utility.yul\":3322:3406   */\n  swap2\n  pop\n    /* \"#utility.yul\":3124:3416   */\n  pop\n    /* \"#utility.yul\":2570:3423   */\n  swap3\n  pop\n  swap3\n  swap1\n  pop\n  jump\t// out\n    /* \"#utility.yul\":3429:3528   */\ntag_34:\n    /* \"#utility.yul\":3481:3487   */\n  0x00\n    /* \"#utility.yul\":3515:3520   */\n  dup2\n    /* \"#utility.yul\":3509:3521   */\n  mload\n    /* \"#utility.yul\":3499:3521   */\n  swap1\n  pop\n    /* \"#utility.yul\":3429:3528   */\n  swap2\n  swap1\n  pop\n  jump\t// out\n    /* \"#utility.yul\":3534:3714   */\ntag_35:\n    /* \"#utility.yul\":3582:3659   */\n  0x4e487b7100000000000000000000000000000000000000000000000000000000\n    /* \"#utility.yul\":3579:3580   */\n  0x00\n    /* \"#utility.yul\":3572:3660   */\n  mstore\n    /* \"#utility.yul\":3679:3683   */\n  0x22\n    /* \"#utility.yul\":3676:3677   */\n  0x04\n    /* \"#utility.yul\":3669:3684   */\n  mstore\n    /* \"#utility.yul\":3703:3707   */\n  0x24\n    /* \"#utility.yul\":3700:3701   */\n  0x00\n    /* \"#utility.yul\":3693:3708   */\n  revert\n    /* \"#utility.yul\":3720:4040   */\ntag_36:\n    /* \"#utility.yul\":3764:3770   */\n  0x00\n    /* \"#utility.yul\":3801:3802   */\n  0x02\n    /* \"#utility.yul\":3795:3799   */\n  dup3\n    /* \"#utility.yul\":3791:3803   */\n  div\n    /* \"#utility.yul\":3781:3803   */\n  swap1\n  pop\n    /* \"#utility.yul\":3848:3849   */\n  0x01\n    /* \"#utility.yul\":3842:3846   */\n  dup3\n    /* \"#utility.yul\":3838:3850   */\n  and\n    /* \"#utility.yul\":3869:3887   */\n  dup1\n    /* \"#utility.yul\":3859:3940   */\n  tag_95\n  jumpi\n    /* \"#utility.yul\":3925:3929   */\n  0x7f\n    /* \"#utility.yul\":3917:3923   */\n  dup3\n    /* \"#utility.yul\":3913:3930   */\n  and\n    /* \"#utility.yul\":3903:3930   */\n  swap2\n  pop\n    /* \"#utility.yul\":3859:3940   */\ntag_95:\n    /* \"#utility.yul\":3987:3989   */\n  0x20\n    /* \"#utility.yul\":3979:3985   */\n  dup3\n    /* \"#utility.yul\":3976:3990   */\n  lt\n    /* \"#utility.yul\":3956:3974   */\n  dup2\n    /* \"#utility.yul\":3953:3991   */\n  sub\n    /* \"#utility.yul\":3950:4034   */\n  tag_96\n  jumpi\n    /* \"#utility.yul\":4006:4024   */\n  tag_97\n  tag_35\n  jump\t// in\ntag_97:\n    /* \"#utility.yul\":3950:4034   */\ntag_96:\n    /* \"#utility.yul\":3771:4040   */\n  pop\n    /* \"#utility.yul\":3720:4040   */\n  swap2\n  swap1\n  pop\n  jump\t// out\n    /* \"#utility.yul\":4046:4187   */\ntag_37:\n    /* \"#utility.yul\":4095:4099   */\n  0x00\n    /* \"#utility.yul\":4118:4121   */\n  dup2\n    /* \"#utility.yul\":4110:4121   */\n  swap1\n  pop\n    /* \"#utility.yul\":4141:4144   */\n  dup2\n    /* \"#utility.yul\":4138:4139   */\n  0x00\n    /* \"#utility.yul\":4131:4145   */\n  mstore\n    /* \"#utility.yul\":4175:4179   */\n  0x20\n    /* \"#utility.yul\":4172:4173   */\n  0x00\n    /* \"#utility.yul\":4162:4180   */\n  keccak256\n    /* \"#utility.yul\":4154:4180   */\n  swap1\n  pop\n    /* \"#utility.yul\":4046:4187   */\n  swap2\n  swap1\n  pop\n  jump\t// out\n    /* \"#utility.yul\":4193:4286   */\ntag_38:\n    /* \"#utility.yul\":4230:4236   */\n  0x00\n    /* \"#utility.yul\":4277:4279   */\n  0x20\n    /* \"#utility.yul\":4272:4274   */\n  0x1f\n    /* \"#utility.yul\":4265:4270   */\n  dup4\n    /* \"#utility.yul\":4261:4275   */\n  add\n    /* \"#utility.yul\":4257:4280   */\n  div\n    /* \"#utility.yul\":4247:4280   */\n  swap1\n  pop\n    /* \"#utility.yul\":4193:4286   */\n  swap2\n  swap1\n  pop\n  jump\t// out\n    /* \"#utility.yul\":4292:4399   */\ntag_39:\n    /* \"#utility.yul\":4336:4344   */\n  0x00\n    /* \"#utility.yul\":4386:4391   */\n  dup3\n    /* \"#utility.yul\":4380:4384   */\n  dup3\n    /* \"#utility.yul\":4376:4392   */\n  shl\n    /* \"#utility.yul\":4355:4392   */\n  swap1\n  pop\n    /* \"#utility.yul\":4292:4399   */\n  swap3\n  swap2\n  pop\n  pop\n  jump\t// out\n    /* \"#utility.yul\":4405:4798   */\ntag_40:\n    /* \"#utility.yul\":4474:4480   */\n  0x00\n    /* \"#utility.yul\":4524:4525   */\n  0x08\n    /* \"#utility.yul\":4512:4522   */\n  dup4\n    /* \"#utility.yul\":4508:4526   */\n  mul\n    /* \"#utility.yul\":4547:4644   */\n  tag_102\n    /* \"#utility.yul\":4577:4643   */\n  0xffffffffffffffffffffffffffffffffffffffffffffffffffffffffffffffff\n    /* \"#utility.yul\":4566:4575   */\n  dup3\n    /* \"#utility.yul\":4547:4644   */\n  tag_39\n  jump\t// in\ntag_102:\n    /* \"#utility.yul\":4665:4704   */\n  tag_103\n    /* \"#utility.yul\":4695:4703   */\n  dup7\n    /* \"#utility.yul\":4684:4693   */\n  dup4\n    /* \"#utility.yul\":4665:4704   */\n  tag_39\n  jump\t// in\ntag_103:\n    /* \"#utility.yul\":4653:4704   */\n  swap6\n  pop\n    /* \"#utility.yul\":4737:4741   */\n  dup1\n    /* \"#utility.yul\":4733:4742   */\n  not\n    /* \"#utility.yul\":4726:4731   */\n  dup5\n    /* \"#utility.yul\":4722:4743   */\n  and\n    /* \"#utility.yul\":4713:4743   */\n  swap4\n  pop\n    /* \"#utility.yul\":4786:4790   */\n  dup1\n    /* \"#utility.yul\":4776:4784   */\n  dup7\n    /* \"#utility.yul\":4772:4791   */\n  and\n    /* \"#utility.yul\":4765:4770   */\n  dup5\n    /* \"#utility.yul\":4762:4792   */\n  or\n    /* \"#utility.yul\":4752:4792   */\n  swap3\n  pop\n    /* \"#utility.yul\":4481:4798   */\n  pop\n  pop\n    /* \"#utility.yul\":4405:4798   */\n  swap4\n  swap3\n  pop\n  pop\n  pop\n  jump\t// out\n    /* \"#utility.yul\":4804:4881   */\ntag_41:\n    /* \"#utility.yul\":4841:4848   */\n  0x00\n    /* \"#utility.yul\":4870:4875   */\n  dup2\n    /* \"#utility.yul\":4859:4875   */\n  swap1\n  pop\n    /* \"#utility.yul\":4804:4881   */\n  swap2\n  swap1\n  pop\n  jump\t// out\n    /* \"#utility.yul\":4887:4947   */\ntag_42:\n    /* \"#utility.yul\":4915:4918   */\n  0x00\n    /* \"#utility.yul\":4936:4941   */\n  dup2\n    /* \"#utility.yul\":4929:4941   */\n  swap1\n  pop\n    /* \"#utility.yul\":4887:4947   */\n  swap2\n  swap1\n  pop\n  jump\t// out\n    /* \"#utility.yul\":4953:5095   */\ntag_43:\n    /* \"#utility.yul\":5003:5012   */\n  0x00\n    /* \"#utility.yul\":5036:5089   */\n  tag_107\n    /* \"#utility.yul\":5054:5088   */\n  tag_108\n    /* \"#utility.yul\":5063:5087   */\n  tag_109\n    /* \"#utility.yul\":5081:5086   */\n  dup5\n    /* \"#utility.yul\":5063:5087   */\n  tag_41\n  jump\t// in\ntag_109:\n    /* \"#utility.yul\":5054:5088   */\n  tag_42\n  jump\t// in\ntag_108:\n    /* \"#utility.yul\":5036:5089   */\n  tag_41\n  jump\t// in\ntag_107:\n    /* \"#utility.yul\":5023:5089   */\n  swap1\n  pop\n    /* \"#utility.yul\":4953:5095   */\n  swap2\n  swap1\n  pop\n  jump\t// out\n    /* \"#utility.yul\":5101:5176   */\ntag_44:\n    /* \"#utility.yul\":5144:5147   */\n  0x00\n    /* \"#utility.yul\":5165:5170   */\n  dup2\n    /* \"#utility.yul\":5158:5170   */\n  swap1\n  pop\n    /* \"#utility.yul\":5101:5176   */\n  swap2\n  swap1\n  pop\n  jump\t// out\n    /* \"#utility.yul\":5182:5451   */\ntag_45:\n    /* \"#utility.yul\":5292:5331   */\n  tag_112\n    /* \"#utility.yul\":5323:5330   */\n  dup4\n    /* \"#utility.yul\":5292:5331   */\n  tag_43\n  jump\t// in\ntag_112:\n    /* \"#utility.yul\":5353:5444   */\n  tag_113\n    /* \"#utility.yul\":5402:5443   */\n  tag_114\n    /* \"#utility.yul\":5426:5442   */\n  dup3\n    /* \"#utility.yul\":5402:5443   */\n  tag_44\n  jump\t// in\ntag_114:\n    /* \"#utility.yul\":5394:5400   */\n  dup5\n    /* \"#utility.yul\":5387:5391   */\n  dup5\n    /* \"#utility.yul\":5381:5392   */\n  sload\n    /* \"#utility.yul\":5353:5444   */\n  tag_40\n  jump\t// in\ntag_113:\n    /* \"#utility.yul\":5347:5351   */\n  dup3\n    /* \"#utility.yul\":5340:5445   */\n  sstore\n    /* \"#utility.yul\":5258:5451   */\n  pop\n    /* \"#utility.yul\":5182:5451   */\n  pop\n  pop\n  pop\n  jump\t// out\n    /* \"#utility.yul\":5457:5530   */\ntag_46:\n    /* \"#utility.yul\":5502:5505   */\n  0x00\n    /* \"#utility.yul\":5457:5530   */\n  swap1\n  jump\t// out\n    /* \"#utility.yul\":5536:5725   */\ntag_47:\n    /* \"#utility.yul\":5613:5645   */\n  tag_117\n  tag_46\n  jump\t// in\ntag_117:\n    /* \"#utility.yul\":5654:5719   */\n  tag_118\n    /* \"#utility.yul\":5712:5718   */\n  dup2\n    /* \"#utility.yul\":5704:5710   */\n  dup5\n    /* \"#utility.yul\":5698:5702   */\n  dup5\n    /* \"#utility.yul\":5654:5719   */\n  tag_45\n  jump\t// in\ntag_118:\n    /* \"#utility.yul\":5589:5725   */\n  pop\n    /* \"#utility.yul\":5536:5725   */\n  pop\n  pop\n  jump\t// out\n    /* \"#utility.yul\":5731:5917   */\ntag_48:\n    /* \"#utility.yul\":5791:5911   */\ntag_120:\n    /* \"#utility.yul\":5808:5811   */\n  dup2\n    /* \"#utility.yul\":5801:5806   */\n  dup2\n    /* \"#utility.yul\":5798:5812   */\n  lt\n    /* \"#utility.yul\":5791:5911   */\n  iszero\n  tag_122\n  jumpi\n    /* \"#utility.yul\":5862:5901   */\n  tag_123\n    /* \"#utility.yul\":5899:5900   */\n  0x00\n    /* \"#utility.yul\":5892:5897   */\n  dup3\n    /* \"#utility.yul\":5862:5901   */\n  tag_47\n  jump\t// in\ntag_123:\n    /* \"#utility.yul\":5835:5836   */\n  0x01\n    /* \"#utility.yul\":5828:5833   */\n  dup2\n    /* \"#utility.yul\":5824:5837   */\n  add\n    /* \"#utility.yul\":5815:5837   */\n  swap1\n  pop\n    /* \"#utility.yul\":5791:5911   */\n  jump(tag_120)\ntag_122:\n    /* \"#utility.yul\":5731:5917   */\n  pop\n  pop\n  jump\t// out\n    /* \"#utility.yul\":5923:6466   */\ntag_49:\n    /* \"#utility.yul\":6024:6026   */\n  0x1f\n    /* \"#utility.yul\":6019:6022   */\n  dup3\n    /* \"#utility.yul\":6016:6027   */\n  gt\n    /* \"#utility.yul\":6013:6459   */\n  iszero\n  tag_125\n  jumpi\n    /* \"#utility.yul\":6058:6096   */\n  tag_126\n    /* \"#utility.yul\":6090:6095   */\n  dup2\n    /* \"#utility.yul\":6058:6096   */\n  tag_37\n  jump\t// in\ntag_126:\n    /* \"#utility.yul\":6142:6171   */\n  tag_127\n    /* \"#utility.yul\":6160:6170   */\n  dup5\n    /* \"#utility.yul\":6142:6171   */\n  tag_38\n  jump\t// in\ntag_127:\n    /* \"#utility.yul\":6132:6140   */\n  dup2\n    /* \"#utility.yul\":6128:6172   */\n  add\n    /* \"#utility.yul\":6325:6327   */\n  0x20\n    /* \"#utility.yul\":6313:6323   */\n  dup6\n    /* \"#utility.yul\":6310:6328   */\n  lt\n    /* \"#utility.yul\":6307:6356   */\n  iszero\n  tag_128\n  jumpi\n    /* \"#utility.yul\":6346:6354   */\n  dup2\n    /* \"#utility.yul\":6331:6354   */\n  swap1\n  pop\n    /* \"#utility.yul\":6307:6356   */\ntag_128:\n    /* \"#utility.yul\":6369:6449   */\n  tag_129\n    /* \"#utility.yul\":6425:6447   */\n  tag_130\n    /* \"#utility.yul\":6443:6446   */\n  dup6\n    /* \"#utility.yul\":6425:6447   */\n  tag_38\n  jump\t// in\ntag_130:\n    /* \"#utility.yul\":6415:6423   */\n  dup4\n    /* \"#utility.yul\":6411:6448   */\n  add\n    /* \"#utility.yul\":6398:6409   */\n  dup3\n    /* \"#utility.yul\":6369:6449   */\n  tag_48\n  jump\t// in\ntag_129:\n    /* \"#utility.yul\":6028:6459   */\n  pop\n  pop\n    /* \"#utility.yul\":6013:6459   */\ntag_125:\n    /* \"#utility.yul\":5923:6466   */\n  pop\n  pop\n  pop\n  jump\t// out\n    /* \"#utility.yul\":6472:6589   */\ntag_50:\n    /* \"#utility.yul\":6526:6534   */\n  0x00\n    /* \"#utility.yul\":6576:6581   */\n  dup3\n    /* \"#utility.yul\":6570:6574   */\n  dup3\n    /* \"#utility.yul\":6566:6582   */\n  shr\n    /* \"#utility.yul\":6545:6582   */\n  swap1\n  pop\n    /* \"#utility.yul\":6472:6589   */\n  swap3\n  swap2\n  pop\n  pop\n  jump\t// out\n    /* \"#utility.yul\":6595:6764   */\ntag_51:\n    /* \"#utility.yul\":6639:6645   */\n  0x00\n    /* \"#utility.yul\":6672:6723   */\n  tag_133\n    /* \"#utility.yul\":6720:6721   */\n  0x00\n    /* \"#utility.yul\":6716:6722   */\n  not\n    /* \"#utility.yul\":6708:6713   */\n  dup5\n    /* \"#utility.yul\":6705:6706   */\n  0x08\n    /* \"#utility.yul\":6701:6714   */\n  mul\n    /* \"#utility.yul\":6672:6723   */\n  tag_50\n  jump\t// in\ntag_133:\n    /* \"#utility.yul\":6668:6724   */\n  not\n    /* \"#utility.yul\":6753:6757   */\n  dup1\n    /* \"#utility.yul\":6747:6751   */\n  dup4\n    /* \"#utility.yul\":6743:6758   */\n  and\n    /* \"#utility.yul\":6733:6758   */\n  swap2\n  pop\n    /* \"#utility.yul\":6646:6764   */\n  pop\n    /* \"#utility.yul\":6595:6764   */\n  swap3\n  swap2\n  pop\n  pop\n  jump\t// out\n    /* \"#utility.yul\":6769:7064   */\ntag_52:\n    /* \"#utility.yul\":6845:6849   */\n  0x00\n    /* \"#utility.yul\":6991:7020   */\n  tag_135\n    /* \"#utility.yul\":7016:7019   */\n  dup4\n    /* \"#utility.yul\":7010:7014   */\n  dup4\n    /* \"#utility.yul\":6991:7020   */\n  tag_51\n  jump\t// in\ntag_135:\n    /* \"#utility.yul\":6983:7020   */\n  swap2\n  pop\n    /* \"#utility.yul\":7053:7056   */\n  dup3\n    /* \"#utility.yul\":7050:7051   */\n  0x02\n    /* \"#utility.yul\":7046:7057   */\n  mul\n    /* \"#utility.yul\":7040:7044   */\n  dup3\n    /* \"#utility.yul\":7037:7058   */\n  or\n    /* \"#utility.yul\":7029:7058   */\n  swap1\n  pop\n    /* \"#utility.yul\":6769:7064   */\n  swap3\n  swap2\n  pop\n  pop\n  jump\t// out\n    /* \"#utility.yul\":7069:8464   */\ntag_7:\n    /* \"#utility.yul\":7186:7223   */\n  tag_137\n    /* \"#utility.yul\":7219:7222   */\n  dup3\n    /* \"#utility.yul\":7186:7223   */\n  tag_34\n  jump\t// in\ntag_137:\n    /* \"#utility.yul\":7288:7306   */\n  0xffffffffffffffff\n    /* \"#utility.yul\":7280:7286   */\n  dup2\n    /* \"#utility.yul\":7277:7307   */\n  gt\n    /* \"#utility.yul\":7274:7330   */\n  iszero\n  tag_138\n  jumpi\n    /* \"#utility.yul\":7310:7328   */\n  tag_139\n  tag_27\n  jump\t// in\ntag_139:\n    /* \"#utility.yul\":7274:7330   */\ntag_138:\n    /* \"#utility.yul\":7354:7392   */\n  tag_140\n    /* \"#utility.yul\":7386:7390   */\n  dup3\n    /* \"#utility.yul\":7380:7391   */\n  sload\n    /* \"#utility.yul\":7354:7392   */\n  tag_36\n  jump\t// in\ntag_140:\n    /* \"#utility.yul\":7439:7506   */\n  tag_141\n    /* \"#utility.yul\":7499:7505   */\n  dup3\n    /* \"#utility.yul\":7491:7497   */\n  dup3\n    /* \"#utility.yul\":7485:7489   */\n  dup6\n    /* \"#utility.yul\":7439:7506   */\n  tag_49\n  jump\t// in\ntag_141:\n    /* \"#utility.yul\":7533:7534   */\n  0x00\n    /* \"#utility.yul\":7557:7561   */\n  0x20\n    /* \"#utility.yul\":7544:7561   */\n  swap1\n  pop\n    /* \"#utility.yul\":7589:7591   */\n  0x1f\n    /* \"#utility.yul\":7581:7587   */\n  dup4\n    /* \"#utility.yul\":7578:7592   */\n  gt\n    /* \"#utility.yul\":7606:7607   */\n  0x01\n    /* \"#utility.yul\":7601:8219   */\n  dup2\n  eq\n  tag_143\n  jumpi\n    /* \"#utility.yul\":8263:8264   */\n  0x00\n    /* \"#utility.yul\":8280:8286   */\n  dup5\n    /* \"#utility.yul\":8277:8354   */\n  iszero\n  tag_144\n  jumpi\n    /* \"#utility.yul\":8329:8338   */\n  dup3\n    /* \"#utility.yul\":8324:8327   */\n  dup8\n    /* \"#utility.yul\":8320:8339   */\n  add\n    /* \"#utility.yul\":8314:8340   */\n  mload\n    /* \"#utility.yul\":8305:8340   */\n  swap1\n  pop\n    /* \"#utility.yul\":8277:8354   */\ntag_144:\n    /* \"#utility.yul\":8380:8447   */\n  tag_145\n    /* \"#utility.yul\":8440:8446   */\n  dup6\n    /* \"#utility.yul\":8433:8438   */\n  dup3\n    /* \"#utility.yul\":8380:8447   */\n  tag_52\n  jump\t// in\ntag_145:\n    /* \"#utility.yul\":8374:8378   */\n  dup7\n    /* \"#utility.yul\":8367:8448   */\n  sstore\n    /* \"#utility.yul\":8236:8458   */\n  pop\n    /* \"#utility.yul\":7571:8458   */\n  jump(tag_142)\n    /* \"#utility.yul\":7601:8219   */\ntag_143:\n    /* \"#utility.yul\":7653:7657   */\n  0x1f\n    /* \"#utility.yul\":7649:7658   */\n  not\n    /* \"#utility.yul\":7641:7647   */\n  dup5\n    /* \"#utility.yul\":7637:7659   */\n  and\n    /* \"#utility.yul\":7687:7724   */\n  tag_146\n    /* \"#utility.yul\":7719:7723   */\n  dup7\n    /* \"#utility.yul\":7687:7724   */\n  tag_37\n  jump\t// in\ntag_146:\n    /* \"#utility.yul\":7746:7747   */\n  0x00\n    /* \"#utility.yul\":7760:7968   */\ntag_147:\n    /* \"#utility.yul\":7774:7781   */\n  dup3\n    /* \"#utility.yul\":7771:7772   */\n  dup2\n    /* \"#utility.yul\":7768:7782   */\n  lt\n    /* \"#utility.yul\":7760:7968   */\n  iszero\n  tag_149\n  jumpi\n    /* \"#utility.yul\":7853:7862   */\n  dup5\n    /* \"#utility.yul\":7848:7851   */\n  dup10\n    /* \"#utility.yul\":7844:7863   */\n  add\n    /* \"#utility.yul\":7838:7864   */\n  mload\n    /* \"#utility.yul\":7830:7836   */\n  dup3\n    /* \"#utility.yul\":7823:7865   */\n  sstore\n    /* \"#utility.yul\":7904:7905   */\n  0x01\n    /* \"#utility.yul\":7896:7902   */\n  dup3\n    /* \"#utility.yul\":7892:7906   */\n  add\n    /* \"#utility.yul\":7882:7906   */\n  swap2\n  pop\n    /* \"#utility.yul\":7951:7953   */\n  0x20\n    /* \"#utility.yul\":7940:7949   */\n  dup6\n    /* \"#utility.yul\":7936:7954   */\n  add\n    /* \"#utility.yul\":7923:7954   */\n  swap5\n  pop\n    /* \"#utility.yul\":7797:7801   */\n  0x20\n    /* \"#utility.yul\":7794:7795   */\n  dup2\n    /* \"#utility.yul\":7790:7802   */\n  add\n    /* \"#utility.yul\":7785:7802   */\n  swap1\n  pop\n    /* \"#utility.yul\":7760:7968   */\n  jump(tag_147)\ntag_149:\n    /* \"#utility.yul\":7996:8002   */\n  dup7\n    /* \"#utility.yul\":7987:7994   */\n  dup4\n    /* \"#utility.yul\":7984:8003   */\n  lt\n    /* \"#utility.yul\":7981:8160   */\n  iszero\n  tag_150\n  jumpi\n    /* \"#utility.yul\":8054:8063   */\n  dup5\n    /* \"#utility.yul\":8049:8052   */\n  dup10\n    /* \"#utility.yul\":8045:8064   */\n  add\n    /* \"#utility.yul\":8039:8065   */\n  mload\n    /* \"#utility.yul\":8097:8145   */\n  tag_151\n    /* \"#utility.yul\":8139:8143   */\n  0x1f\n    /* \"#utility.yul\":8131:8137   */\n  dup10\n    /* \"#utility.yul\":8127:8144   */\n  and\n    /* \"#utility.yul\":8116:8125   */\n  dup3\n    /* \"#utility.yul\":8097:8145   */\n  tag_51\n  jump\t// in\ntag_151:\n    /* \"#utility.yul\":8089:8095   */\n  dup4\n    /* \"#utility.yul\":8082:8146   */\n  sstore\n    /* \"#utility.yul\":8004:8160   */\n  pop\n    /* \"#utility.yul\":7981:8160   */\ntag_150:\n    /* \"#utility.yul\":8206:8207   */\n  0x01\n    /* \"#utility.yul\":8202:8203   */\n  0x02\n    /* \"#utility.yul\":8194:8200   */\n  dup9\n    /* \"#utility.yul\":8190:8204   */\n  mul\n    /* \"#utility.yul\":8186:8208   */\n  add\n    /* \"#utility.yul\":8180:8184   */\n  dup9\n    /* \"#utility.yul\":8173:8209   */\n  sstore\n    /* \"#utility.yul\":7608:8219   */\n  pop\n  pop\n  pop\n    /* \"#utility.yul\":7571:8458   */\ntag_142:\n  pop\n    /* \"#utility.yul\":7161:8464   */\n  pop\n  pop\n  pop\n    /* \"#utility.yul\":7069:8464   */\n  pop\n  pop\n  jump\t// out\n    /* \"contracts/ERC721A.sol\":1053:62746  contract ERC721A is IERC721A {... */\ntag_17:\n  dataSize(sub_0)\n  dup1\n  dataOffset(sub_0)\n  0x00\n  codecopy\n  0x00\n  return\nstop\n\nsub_0: assembly {\n        /* \"contracts/ERC721A.sol\":1053:62746  contract ERC721A is IERC721A {... */\n      mstore(0x40, 0x80)\n      jumpi(tag_1, lt(calldatasize, 0x04))\n      shr(0xe0, calldataload(0x00))\n      dup1\n      0x70a08231\n      gt\n      tag_18\n      jumpi\n      dup1\n      0xb88d4fde\n      gt\n      tag_19\n      jumpi\n      dup1\n      0xb88d4fde\n      eq\n      tag_14\n      jumpi\n      dup1\n      0xc87b56dd\n      eq\n      tag_15\n      jumpi\n      dup1\n      0xe6a72acf\n      eq\n      tag_16\n      jumpi\n      dup1\n      0xe985e9c5\n      eq\n      tag_17\n      jumpi\n      jump(tag_1)\n    tag_19:\n      dup1\n      0x70a08231\n      eq\n      tag_10\n      jumpi\n      dup1\n      0x95d89b41\n      eq\n      tag_11\n      jumpi\n      dup1\n      0xa22cb465\n      eq\n      tag_12\n      jumpi\n      dup1\n      0xb228d925\n      eq\n      tag_13\n      jumpi\n      jump(tag_1)\n    tag_18:\n      dup1\n      0x18160ddd\n      gt\n      tag_20\n      jumpi\n      dup1\n      0x18160ddd\n      eq\n      tag_6\n      jumpi\n      dup1\n      0x23b872dd\n      eq\n      tag_7\n      jumpi\n      dup1\n      0x42842e0e\n      eq\n      tag_8\n      jumpi\n      dup1\n      0x6352211e\n      eq\n      tag_9\n      jumpi\n      jump(tag_1)\n    tag_20:\n      dup1\n      0x01ffc9a7\n      eq\n      tag_2\n      jumpi\n      dup1\n      0x06fdde03\n      eq\n      tag_3\n      jumpi\n      dup1\n      0x081812fc\n      eq\n      tag_4\n      jumpi\n      dup1\n      0x095ea7b3\n      eq\n      tag_5\n      jumpi\n    tag_1:\n      0x00\n      dup1\n      revert\n        /* \"contracts/ERC721A.sol\":10689:11319  function supportsInterface(bytes4 interfaceId) public view virtual override returns (bool) {... */\n    tag_2:\n      callvalue\n      dup1\n      iszero\n      tag_21\n      jumpi\n      0x00\n      dup1\n      revert\n    tag_21:\n      pop\n      tag_22\n      0x04\n      dup1\n      calldatasize\n      sub\n      dup2\n      add\n      swap1\n      tag_23\n      swap2\n      swap1\n      tag_24\n      jump\t// in\n    tag_23:\n      tag_25\n      jump\t// in\n    tag_22:\n      mload(0x40)\n      tag_26\n      swap2\n      swap1\n      tag_27\n      jump\t// in\n    tag_26:\n      mload(0x40)\n      dup1\n      swap2\n      sub\n      swap1\n      return\n        /* \"contracts/ERC721A.sol\":11573:11671  function name() public view virtual override returns (string memory) {... */\n    tag_3:\n      callvalue\n      dup1\n      iszero\n      tag_28\n      jumpi\n      0x00\n      dup1\n      revert\n    tag_28:\n      pop\n      tag_29\n      tag_30\n      jump\t// in\n    tag_29:\n      mload(0x40)\n      tag_31\n      swap2\n      swap1\n      tag_32\n      jump\t// in\n    tag_31:\n      mload(0x40)\n      dup1\n      swap2\n      sub\n      swap1\n      return\n        /* \"contracts/ERC721A.sol\":18899:19122  function getApproved(uint256 tokenId) public view virtual override returns (address) {... */\n    tag_4:\n      callvalue\n      dup1\n      iszero\n      tag_33\n      jumpi\n      0x00\n      dup1\n      revert\n    tag_33:\n      pop\n      tag_34\n      0x04\n      dup1\n      calldatasize\n      sub\n      dup2\n      add\n      swap1\n      tag_35\n      swap2\n      swap1\n      tag_36\n      jump\t// in\n    tag_35:\n      tag_37\n      jump\t// in\n    tag_34:\n      mload(0x40)\n      tag_38\n      swap2\n      swap1\n      tag_39\n      jump\t// in\n    tag_38:\n      mload(0x40)\n      dup1\n      swap2\n      sub\n      swap1\n      return\n        /* \"contracts/ERC721A.sol\":18627:18749  function approve(address to, uint256 tokenId) public payable virtual override {... */\n    tag_5:\n      tag_40\n      0x04\n      dup1\n      calldatasize\n      sub\n      dup2\n      add\n      swap1\n      tag_41\n      swap2\n      swap1\n      tag_42\n      jump\t// in\n    tag_41:\n      tag_43\n      jump\t// in\n    tag_40:\n      stop\n        /* \"contracts/ERC721A.sol\":6890:7454  function totalSupply() public view virtual override returns (uint256 result) {... */\n    tag_6:\n      callvalue\n      dup1\n      iszero\n      tag_44\n      jumpi\n      0x00\n      dup1\n      revert\n    tag_44:\n      pop\n      tag_45\n      tag_46\n      jump\t// in\n    tag_45:\n      mload(0x40)\n      tag_47\n      swap2\n      swap1\n      tag_48\n      jump\t// in\n    tag_47:\n      mload(0x40)\n      dup1\n      swap2\n      sub\n      swap1\n      return\n        /* \"contracts/ERC721A.sol\":22786:26058  function transferFrom(... */\n    tag_7:\n      tag_49\n      0x04\n      dup1\n      calldatasize\n      sub\n      dup2\n      add\n      swap1\n      tag_50\n      swap2\n      swap1\n      tag_51\n      jump\t// in\n    tag_50:\n      tag_52\n      jump\t// in\n    tag_49:\n      stop\n        /* \"contracts/ERC721A.sol\":26149:26336  function safeTransferFrom(... */\n    tag_8:\n      tag_53\n      0x04\n      dup1\n      calldatasize\n      sub\n      dup2\n      add\n      swap1\n      tag_54\n      swap2\n      swap1\n      tag_51\n      jump\t// in\n    tag_54:\n      tag_55\n      jump\t// in\n    tag_53:\n      stop\n        /* \"contracts/ERC721A.sol\":13152:13302  function ownerOf(uint256 tokenId) public view virtual override returns (address) {... */\n    tag_9:\n      callvalue\n      dup1\n      iszero\n      tag_56\n      jumpi\n      0x00\n      dup1\n      revert\n    tag_56:\n      pop\n      tag_57\n      0x04\n      dup1\n      calldatasize\n      sub\n      dup2\n      add\n      swap1\n      tag_58\n      swap2\n      swap1\n      tag_36\n      jump\t// in\n    tag_58:\n      tag_59\n      jump\t// in\n    tag_57:\n      mload(0x40)\n      tag_60\n      swap2\n      swap1\n      tag_39\n      jump\t// in\n    tag_60:\n      mload(0x40)\n      dup1\n      swap2\n      sub\n      swap1\n      return\n        /* \"contracts/ERC721A.sol\":8570:8809  function balanceOf(address owner) public view virtual override returns (uint256) {... */\n    tag_10:\n      callvalue\n      dup1\n      iszero\n      tag_61\n      jumpi\n      0x00\n      dup1\n      revert\n    tag_61:\n      pop\n      tag_62\n      0x04\n      dup1\n      calldatasize\n      sub\n      dup2\n      add\n      swap1\n      tag_63\n      swap2\n      swap1\n      tag_64\n      jump\t// in\n    tag_63:\n      tag_65\n      jump\t// in\n    tag_62:\n      mload(0x40)\n      tag_66\n      swap2\n      swap1\n      tag_48\n      jump\t// in\n    tag_66:\n      mload(0x40)\n      dup1\n      swap2\n      sub\n      swap1\n      return\n        /* \"contracts/ERC721A.sol\":11742:11844  function symbol() public view virtual override returns (string memory) {... */\n    tag_11:\n      callvalue\n      dup1\n      iszero\n      tag_67\n      jumpi\n      0x00\n      dup1\n      revert\n    tag_67:\n      pop\n      tag_68\n      tag_69\n      jump\t// in\n    tag_68:\n      mload(0x40)\n      tag_70\n      swap2\n      swap1\n      tag_32\n      jump\t// in\n    tag_70:\n      mload(0x40)\n      dup1\n      swap2\n      sub\n      swap1\n      return\n        /* \"contracts/ERC721A.sol\":19449:19680  function setApprovalForAll(address operator, bool approved) public virtual override {... */\n    tag_12:\n      callvalue\n      dup1\n      iszero\n      tag_71\n      jumpi\n      0x00\n      dup1\n      revert\n    tag_71:\n      pop\n      tag_72\n      0x04\n      dup1\n      calldatasize\n      sub\n      dup2\n      add\n      swap1\n      tag_73\n      swap2\n      swap1\n      tag_74\n      jump\t// in\n    tag_73:\n      tag_75\n      jump\t// in\n    tag_72:\n      stop\n        /* \"contracts/ERC721A.sol\":12727:12818  function maxMintPerWallet() public view virtual returns (uint256) {... */\n    tag_13:\n      callvalue\n      dup1\n      iszero\n      tag_76\n      jumpi\n      0x00\n      dup1\n      revert\n    tag_76:\n      pop\n      tag_77\n      tag_78\n      jump\t// in\n    tag_77:\n      mload(0x40)\n      tag_79\n      swap2\n      swap1\n      tag_48\n      jump\t// in\n    tag_79:\n      mload(0x40)\n      dup1\n      swap2\n      sub\n      swap1\n      return\n        /* \"contracts/ERC721A.sol\":26917:27322  function safeTransferFrom(... */\n    tag_14:\n      tag_80\n      0x04\n      dup1\n      calldatasize\n      sub\n      dup2\n      add\n      swap1\n      tag_81\n      swap2\n      swap1\n      tag_82\n      jump\t// in\n    tag_81:\n      tag_83\n      jump\t// in\n    tag_80:\n      stop\n        /* \"contracts/ERC721A.sol\":11945:12267  function tokenURI(uint256 tokenId) public view virtual override returns (string memory) {... */\n    tag_15:\n      callvalue\n      dup1\n      iszero\n      tag_84\n      jumpi\n      0x00\n      dup1\n      revert\n    tag_84:\n      pop\n      tag_85\n      0x04\n      dup1\n      calldatasize\n      sub\n      dup2\n      add\n      swap1\n      tag_86\n      swap2\n      swap1\n      tag_36\n      jump\t// in\n    tag_86:\n      tag_87\n      jump\t// in\n    tag_85:\n      mload(0x40)\n      tag_88\n      swap2\n      swap1\n      tag_32\n      jump\t// in\n    tag_88:\n      mload(0x40)\n      dup1\n      swap2\n      sub\n      swap1\n      return\n        /* \"contracts/ERC721A.sol\":12610:12721  function mintPrice(uint256 quantity) public view virtual returns (uint256) {... */\n    tag_16:\n      callvalue\n      dup1\n      iszero\n      tag_89\n      jumpi\n      0x00\n      dup1\n      revert\n    tag_89:\n      pop\n      tag_90\n      0x04\n      dup1\n      calldatasize\n      sub\n      dup2\n      add\n      swap1\n      tag_91\n      swap2\n      swap1\n      tag_36\n      jump\t// in\n    tag_91:\n      tag_92\n      jump\t// in\n    tag_90:\n      mload(0x40)\n      tag_93\n      swap2\n      swap1\n      tag_48\n      jump\t// in\n    tag_93:\n      mload(0x40)\n      dup1\n      swap2\n      sub\n      swap1\n      return\n        /* \"contracts/ERC721A.sol\":19830:19992  function isApprovedForAll(address owner, address operator) public view virtual override returns (bool) {... */\n    tag_17:\n      callvalue\n      dup1\n      iszero\n      tag_94\n      jumpi\n      0x00\n      dup1\n      revert\n    tag_94:\n      pop\n      tag_95\n      0x04\n      dup1\n      calldatasize\n      sub\n      dup2\n      add\n      swap1\n      tag_96\n      swap2\n      swap1\n      tag_97\n      jump\t// in\n    tag_96:\n      tag_98\n      jump\t// in\n    tag_95:\n      mload(0x40)\n      tag_99\n      swap2\n      swap1\n      tag_27\n      jump\t// in\n    tag_99:\n      mload(0x40)\n      dup1\n      swap2\n      sub\n      swap1\n      return\n        /* \"contracts/ERC721A.sol\":10689:11319  function supportsInterface(bytes4 interfaceId) public view virtual override returns (bool) {... */\n    tag_25:\n        /* \"contracts/ERC721A.sol\":10774:10778  bool */\n      0x00\n        /* \"contracts/ERC721A.sol\":11107:11117  0x01ffc9a7 */\n      0x01ffc9a7\n        /* \"contracts/ERC721A.sol\":11092:11117  interfaceId == 0x01ffc9a7 */\n      0xe0\n      shl\n        /* \"contracts/ERC721A.sol\":11092:11103  interfaceId */\n      dup3\n        /* \"contracts/ERC721A.sol\":11092:11117  interfaceId == 0x01ffc9a7 */\n      not(0xffffffffffffffffffffffffffffffffffffffffffffffffffffffff)\n      and\n      eq\n        /* \"contracts/ERC721A.sol\":11092:11193  interfaceId == 0x01ffc9a7 || // ERC165 interface ID for ERC165.... */\n      dup1\n      tag_101\n      jumpi\n      pop\n        /* \"contracts/ERC721A.sol\":11183:11193  0x80ac58cd */\n      0x80ac58cd\n        /* \"contracts/ERC721A.sol\":11168:11193  interfaceId == 0x80ac58cd */\n      0xe0\n      shl\n        /* \"contracts/ERC721A.sol\":11168:11179  interfaceId */\n      dup3\n        /* \"contracts/ERC721A.sol\":11168:11193  interfaceId == 0x80ac58cd */\n      not(0xffffffffffffffffffffffffffffffffffffffffffffffffffffffff)\n      and\n      eq\n        /* \"contracts/ERC721A.sol\":11092:11193  interfaceId == 0x01ffc9a7 || // ERC165 interface ID for ERC165.... */\n    tag_101:\n        /* \"contracts/ERC721A.sol\":11092:11269  interfaceId == 0x01ffc9a7 || // ERC165 interface ID for ERC165.... */\n      dup1\n      tag_102\n      jumpi\n      pop\n        /* \"contracts/ERC721A.sol\":11259:11269  0x5b5e139f */\n      0x5b5e139f\n        /* \"contracts/ERC721A.sol\":11244:11269  interfaceId == 0x5b5e139f */\n      0xe0\n      shl\n        /* \"contracts/ERC721A.sol\":11244:11255  interfaceId */\n      dup3\n        /* \"contracts/ERC721A.sol\":11244:11269  interfaceId == 0x5b5e139f */\n      not(0xffffffffffffffffffffffffffffffffffffffffffffffffffffffff)\n      and\n      eq\n        /* \"contracts/ERC721A.sol\":11092:11269  interfaceId == 0x01ffc9a7 || // ERC165 interface ID for ERC165.... */\n    tag_102:\n        /* \"contracts/ERC721A.sol\":11073:11269  return... */\n      swap1\n      pop\n        /* \"contracts/ERC721A.sol\":10689:11319  function supportsInterface(bytes4 interfaceId) public view virtual override returns (bool) {... */\n      swap2\n      swap1\n      pop\n      jump\t// out\n        /* \"contracts/ERC721A.sol\":11573:11671  function name() public view virtual override returns (string memory) {... */\n    tag_30:\n        /* \"contracts/ERC721A.sol\":11627:11640  string memory */\n      0x60\n        /* \"contracts/ERC721A.sol\":11659:11664  _name */\n      0x02\n        /* \"contracts/ERC721A.sol\":11652:11664  return _name */\n      dup1\n      sload\n      tag_104\n      swap1\n      tag_105\n      jump\t// in\n    tag_104:\n      dup1\n      0x1f\n      add\n      0x20\n      dup1\n      swap2\n      div\n      mul\n      0x20\n      add\n      mload(0x40)\n      swap1\n      dup2\n      add\n      0x40\n      mstore\n      dup1\n      swap3\n      swap2\n      swap1\n      dup2\n      dup2\n      mstore\n      0x20\n      add\n      dup3\n      dup1\n      sload\n      tag_106\n      swap1\n      tag_105\n      jump\t// in\n    tag_106:\n      dup1\n      iszero\n      tag_107\n      jumpi\n      dup1\n      0x1f\n      lt\n      tag_108\n      jumpi\n      0x0100\n      dup1\n      dup4\n      sload\n      div\n      mul\n      dup4\n      mstore\n      swap2\n      0x20\n      add\n      swap2\n      jump(tag_107)\n    tag_108:\n      dup3\n      add\n      swap2\n      swap1\n      0x00\n      mstore\n      keccak256(0x00, 0x20)\n      swap1\n    tag_109:\n      dup2\n      sload\n      dup2\n      mstore\n      swap1\n      0x01\n      add\n      swap1\n      0x20\n      add\n      dup1\n      dup4\n      gt\n      tag_109\n      jumpi\n      dup3\n      swap1\n      sub\n      0x1f\n      and\n      dup3\n      add\n      swap2\n    tag_107:\n      pop\n      pop\n      pop\n      pop\n      pop\n      swap1\n      pop\n        /* \"contracts/ERC721A.sol\":11573:11671  function name() public view virtual override returns (string memory) {... */\n      swap1\n      jump\t// out\n        /* \"contracts/ERC721A.sol\":18899:19122  function getApproved(uint256 tokenId) public view virtual override returns (address) {... */\n    tag_37:\n        /* \"contracts/ERC721A.sol\":18975:18982  address */\n      0x00\n        /* \"contracts/ERC721A.sol\":18999:19015  _exists(tokenId) */\n      tag_111\n        /* \"contracts/ERC721A.sol\":19007:19014  tokenId */\n      dup3\n        /* \"contracts/ERC721A.sol\":18999:19006  _exists */\n      tag_112\n        /* \"contracts/ERC721A.sol\":18999:19015  _exists(tokenId) */\n      jump\t// in\n    tag_111:\n        /* \"contracts/ERC721A.sol\":18994:19067  if (!_exists(tokenId)) _revert(ApprovalQueryForNonexistentToken.selector) */\n      tag_113\n      jumpi\n        /* \"contracts/ERC721A.sol\":19017:19067  _revert(ApprovalQueryForNonexistentToken.selector) */\n      tag_114\n        /* \"contracts/ERC721A.sol\":19025:19066  ApprovalQueryForNonexistentToken.selector */\n      shl(0xe0, 0xcf4700e4)\n        /* \"contracts/ERC721A.sol\":19017:19024  _revert */\n      tag_115\n        /* \"contracts/ERC721A.sol\":19017:19067  _revert(ApprovalQueryForNonexistentToken.selector) */\n      jump\t// in\n    tag_114:\n        /* \"contracts/ERC721A.sol\":18994:19067  if (!_exists(tokenId)) _revert(ApprovalQueryForNonexistentToken.selector) */\n    tag_113:\n        /* \"contracts/ERC721A.sol\":19085:19100  _tokenApprovals */\n      0x06\n        /* \"contracts/ERC721A.sol\":19085:19109  _tokenApprovals[tokenId] */\n      0x00\n        /* \"contracts/ERC721A.sol\":19101:19108  tokenId */\n      dup4\n        /* \"contracts/ERC721A.sol\":19085:19109  _tokenApprovals[tokenId] */\n      dup2\n      mstore\n      0x20\n      add\n      swap1\n      dup2\n      mstore\n      0x20\n      add\n      0x00\n      keccak256\n        /* \"contracts/ERC721A.sol\":19085:19115  _tokenApprovals[tokenId].value */\n      0x00\n      add\n      0x00\n      swap1\n      sload\n      swap1\n      0x0100\n      exp\n      swap1\n      div\n      0xffffffffffffffffffffffffffffffffffffffff\n      and\n        /* \"contracts/ERC721A.sol\":19078:19115  return _tokenApprovals[tokenId].value */\n      swap1\n      pop\n        /* \"contracts/ERC721A.sol\":18899:19122  function getApproved(uint256 tokenId) public view virtual override returns (address) {... */\n      swap2\n      swap1\n      pop\n      jump\t// out\n        /* \"contracts/ERC721A.sol\":18627:18749  function approve(address to, uint256 tokenId) public payable virtual override {... */\n    tag_43:\n        /* \"contracts/ERC721A.sol\":18715:18742  _approve(to, tokenId, true) */\n      tag_117\n        /* \"contracts/ERC721A.sol\":18724:18726  to */\n      dup3\n        /* \"contracts/ERC721A.sol\":18728:18735  tokenId */\n      dup3\n        /* \"contracts/ERC721A.sol\":18737:18741  true */\n      0x01\n        /* \"contracts/ERC721A.sol\":18715:18723  _approve */\n      tag_118\n        /* \"contracts/ERC721A.sol\":18715:18742  _approve(to, tokenId, true) */\n      jump\t// in\n    tag_117:\n        /* \"contracts/ERC721A.sol\":18627:18749  function approve(address to, uint256 tokenId) public payable virtual override {... */\n      pop\n      pop\n      jump\t// out\n        /* \"contracts/ERC721A.sol\":6890:7454  function totalSupply() public view virtual override returns (uint256 result) {... */\n    tag_46:\n        /* \"contracts/ERC721A.sol\":6951:6965  uint256 result */\n      0x00\n        /* \"contracts/ERC721A.sol\":7343:7358  _startTokenId() */\n      tag_120\n        /* \"contracts/ERC721A.sol\":7343:7356  _startTokenId */\n      tag_121\n        /* \"contracts/ERC721A.sol\":7343:7358  _startTokenId() */\n      jump\t// in\n    tag_120:\n        /* \"contracts/ERC721A.sol\":7328:7340  _burnCounter */\n      sload(0x01)\n        /* \"contracts/ERC721A.sol\":7312:7325  _currentIndex */\n      sload(0x00)\n        /* \"contracts/ERC721A.sol\":7312:7340  _currentIndex - _burnCounter */\n      sub\n        /* \"contracts/ERC721A.sol\":7312:7358  _currentIndex - _burnCounter - _startTokenId() */\n      sub\n        /* \"contracts/ERC721A.sol\":7303:7358  result = _currentIndex - _burnCounter - _startTokenId() */\n      swap1\n      pop\n        /* \"contracts/ERC721A.sol\":7397:7414  type(uint256).max */\n      0xffffffffffffffffffffffffffffffffffffffffffffffffffffffffffffffff\n        /* \"contracts/ERC721A.sol\":7376:7393  _sequentialUpTo() */\n      tag_122\n        /* \"contracts/ERC721A.sol\":7376:7391  _sequentialUpTo */\n      tag_123\n        /* \"contracts/ERC721A.sol\":7376:7393  _sequentialUpTo() */\n      jump\t// in\n    tag_122:\n        /* \"contracts/ERC721A.sol\":7376:7414  _sequentialUpTo() != type(uint256).max */\n      eq\n        /* \"contracts/ERC721A.sol\":7372:7437  if (_sequentialUpTo() != type(uint256).max) result += _spotMinted */\n      tag_124\n      jumpi\n        /* \"contracts/ERC721A.sol\":7426:7437  _spotMinted */\n      sload(0x08)\n        /* \"contracts/ERC721A.sol\":7416:7437  result += _spotMinted */\n      dup2\n      add\n      swap1\n      pop\n        /* \"contracts/ERC721A.sol\":7372:7437  if (_sequentialUpTo() != type(uint256).max) result += _spotMinted */\n    tag_124:\n        /* \"contracts/ERC721A.sol\":6890:7454  function totalSupply() public view virtual override returns (uint256 result) {... */\n      swap1\n      jump\t// out\n        /* \"contracts/ERC721A.sol\":22786:26058  function transferFrom(... */\n    tag_52:\n        /* \"contracts/ERC721A.sol\":22923:22950  uint256 prevOwnershipPacked */\n      0x00\n        /* \"contracts/ERC721A.sol\":22953:22980  _packedOwnershipOf(tokenId) */\n      tag_126\n        /* \"contracts/ERC721A.sol\":22972:22979  tokenId */\n      dup3\n        /* \"contracts/ERC721A.sol\":22953:22971  _packedOwnershipOf */\n      tag_127\n        /* \"contracts/ERC721A.sol\":22953:22980  _packedOwnershipOf(tokenId) */\n      jump\t// in\n    tag_126:\n        /* \"contracts/ERC721A.sol\":22923:22980  uint256 prevOwnershipPacked = _packedOwnershipOf(tokenId) */\n      swap1\n      pop\n        /* \"contracts/ERC721A.sol\":22990:23008  uint256 fromMasked */\n      0x00\n        /* \"contracts/ERC721A.sol\":23019:23023  from */\n      dup5\n        /* \"contracts/ERC721A.sol\":22990:23024  uint256 fromMasked = uint160(from) */\n      0xffffffffffffffffffffffffffffffffffffffff\n      and\n      swap1\n      pop\n        /* \"contracts/ERC721A.sol\":23071:23081  fromMasked */\n      dup1\n        /* \"contracts/ERC721A.sol\":23047:23066  prevOwnershipPacked */\n      dup3\n        /* \"contracts/ERC721A.sol\":23039:23081  uint160(prevOwnershipPacked) != fromMasked */\n      0xffffffffffffffffffffffffffffffffffffffff\n      and\n      eq\n        /* \"contracts/ERC721A.sol\":23035:23127  if (uint160(prevOwnershipPacked) != fromMasked) _revert(TransferFromIncorrectOwner.selector) */\n      tag_128\n      jumpi\n        /* \"contracts/ERC721A.sol\":23083:23127  _revert(TransferFromIncorrectOwner.selector) */\n      tag_129\n        /* \"contracts/ERC721A.sol\":23091:23126  TransferFromIncorrectOwner.selector */\n      shl(0xe0, 0xa1148100)\n        /* \"contracts/ERC721A.sol\":23083:23090  _revert */\n      tag_115\n        /* \"contracts/ERC721A.sol\":23083:23127  _revert(TransferFromIncorrectOwner.selector) */\n      jump\t// in\n    tag_129:\n        /* \"contracts/ERC721A.sol\":23035:23127  if (uint160(prevOwnershipPacked) != fromMasked) _revert(TransferFromIncorrectOwner.selector) */\n    tag_128:\n        /* \"contracts/ERC721A.sol\":23139:23166  uint256 approvedAddressSlot */\n      0x00\n        /* \"contracts/ERC721A.sol\":23168:23196  uint256 approvedAddressValue */\n      dup1\n        /* \"contracts/ERC721A.sol\":23200:23233  _getApprovedSlotAndValue(tokenId) */\n      tag_130\n        /* \"contracts/ERC721A.sol\":23225:23232  tokenId */\n      dup6\n        /* \"contracts/ERC721A.sol\":23200:23224  _getApprovedSlotAndValue */\n      tag_131\n        /* \"contracts/ERC721A.sol\":23200:23233  _getApprovedSlotAndValue(tokenId) */\n      jump\t// in\n    tag_130:\n        /* \"contracts/ERC721A.sol\":23138:23233  (uint256 approvedAddressSlot, uint256 approvedAddressValue) = _getApprovedSlotAndValue(tokenId) */\n      swap2\n      pop\n      swap2\n      pop\n        /* \"contracts/ERC721A.sol\":23330:23418  _isSenderApprovedOrOwner(approvedAddressValue, fromMasked, uint160(_msgSenderERC721A())) */\n      tag_132\n        /* \"contracts/ERC721A.sol\":23355:23375  approvedAddressValue */\n      dup2\n        /* \"contracts/ERC721A.sol\":23377:23387  fromMasked */\n      dup5\n        /* \"contracts/ERC721A.sol\":23397:23416  _msgSenderERC721A() */\n      tag_133\n        /* \"contracts/ERC721A.sol\":23397:23414  _msgSenderERC721A */\n      tag_134\n        /* \"contracts/ERC721A.sol\":23397:23416  _msgSenderERC721A() */\n      jump\t// in\n    tag_133:\n        /* \"contracts/ERC721A.sol\":23330:23418  _isSenderApprovedOrOwner(approvedAddressValue, fromMasked, uint160(_msgSenderERC721A())) */\n      0xffffffffffffffffffffffffffffffffffffffff\n      and\n        /* \"contracts/ERC721A.sol\":23330:23354  _isSenderApprovedOrOwner */\n      tag_135\n        /* \"contracts/ERC721A.sol\":23330:23418  _isSenderApprovedOrOwner(approvedAddressValue, fromMasked, uint160(_msgSenderERC721A())) */\n      jump\t// in\n    tag_132:\n        /* \"contracts/ERC721A.sol\":23325:23533  if (!_isSenderApprovedOrOwner(approvedAddressValue, fromMasked, uint160(_msgSenderERC721A())))... */\n      tag_136\n      jumpi\n        /* \"contracts/ERC721A.sol\":23437:23480  isApprovedForAll(from, _msgSenderERC721A()) */\n      tag_137\n        /* \"contracts/ERC721A.sol\":23454:23458  from */\n      dup8\n        /* \"contracts/ERC721A.sol\":23460:23479  _msgSenderERC721A() */\n      tag_138\n        /* \"contracts/ERC721A.sol\":23460:23477  _msgSenderERC721A */\n      tag_134\n        /* \"contracts/ERC721A.sol\":23460:23479  _msgSenderERC721A() */\n      jump\t// in\n    tag_138:\n        /* \"contracts/ERC721A.sol\":23437:23453  isApprovedForAll */\n      tag_98\n        /* \"contracts/ERC721A.sol\":23437:23480  isApprovedForAll(from, _msgSenderERC721A()) */\n      jump\t// in\n    tag_137:\n        /* \"contracts/ERC721A.sol\":23432:23533  if (!isApprovedForAll(from, _msgSenderERC721A())) _revert(TransferCallerNotOwnerNorApproved.selector) */\n      tag_139\n      jumpi\n        /* \"contracts/ERC721A.sol\":23482:23533  _revert(TransferCallerNotOwnerNorApproved.selector) */\n      tag_140\n        /* \"contracts/ERC721A.sol\":23490:23532  TransferCallerNotOwnerNorApproved.selector */\n      shl(0xe0, 0x59c896be)\n        /* \"contracts/ERC721A.sol\":23482:23489  _revert */\n      tag_115\n        /* \"contracts/ERC721A.sol\":23482:23533  _revert(TransferCallerNotOwnerNorApproved.selector) */\n      jump\t// in\n    tag_140:\n        /* \"contracts/ERC721A.sol\":23432:23533  if (!isApprovedForAll(from, _msgSenderERC721A())) _revert(TransferCallerNotOwnerNorApproved.selector) */\n    tag_139:\n        /* \"contracts/ERC721A.sol\":23325:23533  if (!_isSenderApprovedOrOwner(approvedAddressValue, fromMasked, uint160(_msgSenderERC721A())))... */\n    tag_136:\n        /* \"contracts/ERC721A.sol\":23544:23587  _beforeTokenTransfers(from, to, tokenId, 1) */\n      tag_141\n        /* \"contracts/ERC721A.sol\":23566:23570  from */\n      dup8\n        /* \"contracts/ERC721A.sol\":23572:23574  to */\n      dup8\n        /* \"contracts/ERC721A.sol\":23576:23583  tokenId */\n      dup8\n        /* \"contracts/ERC721A.sol\":23585:23586  1 */\n      0x01\n        /* \"contracts/ERC721A.sol\":23544:23565  _beforeTokenTransfers */\n      tag_142\n        /* \"contracts/ERC721A.sol\":23544:23587  _beforeTokenTransfers(from, to, tokenId, 1) */\n      jump\t// in\n    tag_141:\n        /* \"contracts/ERC721A.sol\":23624:23644  approvedAddressValue */\n      dup1\n        /* \"contracts/ERC721A.sol\":23621:23759  if approvedAddressValue {... */\n      iszero\n      tag_143\n      jumpi\n        /* \"contracts/ERC721A.sol\":23691:23692  0 */\n      0x00\n        /* \"contracts/ERC721A.sol\":23670:23689  approvedAddressSlot */\n      dup3\n        /* \"contracts/ERC721A.sol\":23663:23693  sstore(approvedAddressSlot, 0) */\n      sstore\n        /* \"contracts/ERC721A.sol\":23621:23759  if approvedAddressValue {... */\n    tag_143:\n        /* \"contracts/ERC721A.sol\":24131:24149  _packedAddressData */\n      0x05\n        /* \"contracts/ERC721A.sol\":24131:24155  _packedAddressData[from] */\n      0x00\n        /* \"contracts/ERC721A.sol\":24150:24154  from */\n      dup9\n        /* \"contracts/ERC721A.sol\":24131:24155  _packedAddressData[from] */\n      0xffffffffffffffffffffffffffffffffffffffff\n      and\n      0xffffffffffffffffffffffffffffffffffffffff\n      and\n      dup2\n      mstore\n      0x20\n      add\n      swap1\n      dup2\n      mstore\n      0x20\n      add\n      0x00\n      keccak256\n      0x00\n        /* \"contracts/ERC721A.sol\":24129:24155  --_packedAddressData[from] */\n      dup2\n      sload\n      0x01\n      swap1\n      sub\n      swap2\n      swap1\n      pop\n      dup2\n      swap1\n      sstore\n      pop\n        /* \"contracts/ERC721A.sol\":24199:24217  _packedAddressData */\n      0x05\n        /* \"contracts/ERC721A.sol\":24199:24221  _packedAddressData[to] */\n      0x00\n        /* \"contracts/ERC721A.sol\":24218:24220  to */\n      dup8\n        /* \"contracts/ERC721A.sol\":24199:24221  _packedAddressData[to] */\n      0xffffffffffffffffffffffffffffffffffffffff\n      and\n      0xffffffffffffffffffffffffffffffffffffffff\n      and\n      dup2\n      mstore\n      0x20\n      add\n      swap1\n      dup2\n      mstore\n      0x20\n      add\n      0x00\n      keccak256\n      0x00\n        /* \"contracts/ERC721A.sol\":24197:24221  ++_packedAddressData[to] */\n      dup2\n      sload\n      0x01\n      add\n      swap2\n      swap1\n      pop\n      dup2\n      swap1\n      sstore\n      pop\n        /* \"contracts/ERC721A.sol\":24514:24657  _packOwnershipData(... */\n      tag_144\n        /* \"contracts/ERC721A.sol\":24550:24552  to */\n      dup7\n        /* \"contracts/ERC721A.sol\":24598:24643  _nextExtraData(from, to, prevOwnershipPacked) */\n      tag_145\n        /* \"contracts/ERC721A.sol\":24613:24617  from */\n      dup10\n        /* \"contracts/ERC721A.sol\":24619:24621  to */\n      dup10\n        /* \"contracts/ERC721A.sol\":24623:24642  prevOwnershipPacked */\n      dup9\n        /* \"contracts/ERC721A.sol\":24598:24612  _nextExtraData */\n      tag_146\n        /* \"contracts/ERC721A.sol\":24598:24643  _nextExtraData(from, to, prevOwnershipPacked) */\n      jump\t// in\n    tag_145:\n        /* \"contracts/ERC721A.sol\":2550:2558  1 << 225 */\n      0x0200000000000000000000000000000000000000000000000000000000\n        /* \"contracts/ERC721A.sol\":24570:24643  _BITMASK_NEXT_INITIALIZED | _nextExtraData(from, to, prevOwnershipPacked) */\n      or\n        /* \"contracts/ERC721A.sol\":24514:24532  _packOwnershipData */\n      tag_147\n        /* \"contracts/ERC721A.sol\":24514:24657  _packOwnershipData(... */\n      jump\t// in\n    tag_144:\n        /* \"contracts/ERC721A.sol\":24485:24502  _packedOwnerships */\n      0x04\n        /* \"contracts/ERC721A.sol\":24485:24511  _packedOwnerships[tokenId] */\n      0x00\n        /* \"contracts/ERC721A.sol\":24503:24510  tokenId */\n      dup8\n        /* \"contracts/ERC721A.sol\":24485:24511  _packedOwnerships[tokenId] */\n      dup2\n      mstore\n      0x20\n      add\n      swap1\n      dup2\n      mstore\n      0x20\n      add\n      0x00\n      keccak256\n        /* \"contracts/ERC721A.sol\":24485:24657  _packedOwnerships[tokenId] = _packOwnershipData(... */\n      dup2\n      swap1\n      sstore\n      pop\n        /* \"contracts/ERC721A.sol\":24833:24834  0 */\n      0x00\n        /* \"contracts/ERC721A.sol\":2550:2558  1 << 225 */\n      0x0200000000000000000000000000000000000000000000000000000000\n        /* \"contracts/ERC721A.sol\":24774:24793  prevOwnershipPacked */\n      dup6\n        /* \"contracts/ERC721A.sol\":24774:24821  prevOwnershipPacked & _BITMASK_NEXT_INITIALIZED */\n      and\n        /* \"contracts/ERC721A.sol\":24774:24835  prevOwnershipPacked & _BITMASK_NEXT_INITIALIZED == uint256(0) */\n      sub\n        /* \"contracts/ERC721A.sol\":24770:25405  if (prevOwnershipPacked & _BITMASK_NEXT_INITIALIZED == uint256(0)) {... */\n      tag_148\n      jumpi\n        /* \"contracts/ERC721A.sol\":24855:24874  uint256 nextTokenId */\n      0x00\n        /* \"contracts/ERC721A.sol\":24887:24888  1 */\n      0x01\n        /* \"contracts/ERC721A.sol\":24877:24884  tokenId */\n      dup7\n        /* \"contracts/ERC721A.sol\":24877:24888  tokenId + 1 */\n      add\n        /* \"contracts/ERC721A.sol\":24855:24888  uint256 nextTokenId = tokenId + 1 */\n      swap1\n      pop\n        /* \"contracts/ERC721A.sol\":25050:25051  0 */\n      0x00\n        /* \"contracts/ERC721A.sol\":25008:25025  _packedOwnerships */\n      0x04\n        /* \"contracts/ERC721A.sol\":25008:25038  _packedOwnerships[nextTokenId] */\n      0x00\n        /* \"contracts/ERC721A.sol\":25026:25037  nextTokenId */\n      dup4\n        /* \"contracts/ERC721A.sol\":25008:25038  _packedOwnerships[nextTokenId] */\n      dup2\n      mstore\n      0x20\n      add\n      swap1\n      dup2\n      mstore\n      0x20\n      add\n      0x00\n      keccak256\n      sload\n        /* \"contracts/ERC721A.sol\":25008:25052  _packedOwnerships[nextTokenId] == uint256(0) */\n      sub\n        /* \"contracts/ERC721A.sol\":25004:25391  if (_packedOwnerships[nextTokenId] == uint256(0)) {... */\n      tag_149\n      jumpi\n        /* \"contracts/ERC721A.sol\":25153:25166  _currentIndex */\n      sload(0x00)\n        /* \"contracts/ERC721A.sol\":25138:25149  nextTokenId */\n      dup2\n        /* \"contracts/ERC721A.sol\":25138:25166  nextTokenId != _currentIndex */\n      eq\n        /* \"contracts/ERC721A.sol\":25134:25373  if (nextTokenId != _currentIndex) {... */\n      tag_150\n      jumpi\n        /* \"contracts/ERC721A.sol\":25331:25350  prevOwnershipPacked */\n      dup5\n        /* \"contracts/ERC721A.sol\":25298:25315  _packedOwnerships */\n      0x04\n        /* \"contracts/ERC721A.sol\":25298:25328  _packedOwnerships[nextTokenId] */\n      0x00\n        /* \"contracts/ERC721A.sol\":25316:25327  nextTokenId */\n      dup4\n        /* \"contracts/ERC721A.sol\":25298:25328  _packedOwnerships[nextTokenId] */\n      dup2\n      mstore\n      0x20\n      add\n      swap1\n      dup2\n      mstore\n      0x20\n      add\n      0x00\n      keccak256\n        /* \"contracts/ERC721A.sol\":25298:25350  _packedOwnerships[nextTokenId] = prevOwnershipPacked */\n      dup2\n      swap1\n      sstore\n      pop\n        /* \"contracts/ERC721A.sol\":25134:25373  if (nextTokenId != _currentIndex) {... */\n    tag_150:\n        /* \"contracts/ERC721A.sol\":25004:25391  if (_packedOwnerships[nextTokenId] == uint256(0)) {... */\n    tag_149:\n        /* \"contracts/ERC721A.sol\":24837:25405  {... */\n      pop\n        /* \"contracts/ERC721A.sol\":24770:25405  if (prevOwnershipPacked & _BITMASK_NEXT_INITIALIZED == uint256(0)) {... */\n    tag_148:\n        /* \"contracts/ERC721A.sol\":25509:25525  uint256 toMasked */\n      0x00\n        /* \"contracts/ERC721A.sol\":25536:25538  to */\n      dup7\n        /* \"contracts/ERC721A.sol\":25509:25539  uint256 toMasked = uint160(to) */\n      0xffffffffffffffffffffffffffffffffffffffff\n      and\n      swap1\n      pop\n        /* \"contracts/ERC721A.sol\":25877:25884  tokenId */\n      dup6\n        /* \"contracts/ERC721A.sol\":25842:25850  toMasked */\n      dup2\n        /* \"contracts/ERC721A.sol\":25803:25813  fromMasked */\n      dup6\n        /* \"contracts/ERC721A.sol\":25746:25771  _TRANSFER_EVENT_SIGNATURE */\n      0xddf252ad1be2c89b69c2b068fc378daa952ba7f163c4a11628f55a4df523b3ef\n        /* \"contracts/ERC721A.sol\":25692:25693  0 */\n      0x00\n        /* \"contracts/ERC721A.sol\":25636:25637  0 */\n      dup1\n        /* \"contracts/ERC721A.sol\":25614:25912  log4(... */\n      log4\n        /* \"contracts/ERC721A.sol\":25955:25956  0 */\n      0x00\n        /* \"contracts/ERC721A.sol\":25935:25943  toMasked */\n      dup2\n        /* \"contracts/ERC721A.sol\":25935:25957  toMasked == uint256(0) */\n      sub\n        /* \"contracts/ERC721A.sol\":25931:25998  if (toMasked == uint256(0)) _revert(TransferToZeroAddress.selector) */\n      tag_151\n      jumpi\n        /* \"contracts/ERC721A.sol\":25959:25998  _revert(TransferToZeroAddress.selector) */\n      tag_152\n        /* \"contracts/ERC721A.sol\":25967:25997  TransferToZeroAddress.selector */\n      shl(0xe0, 0xea553b34)\n        /* \"contracts/ERC721A.sol\":25959:25966  _revert */\n      tag_115\n        /* \"contracts/ERC721A.sol\":25959:25998  _revert(TransferToZeroAddress.selector) */\n      jump\t// in\n    tag_152:\n        /* \"contracts/ERC721A.sol\":25931:25998  if (toMasked == uint256(0)) _revert(TransferToZeroAddress.selector) */\n    tag_151:\n        /* \"contracts/ERC721A.sol\":26009:26051  _afterTokenTransfers(from, to, tokenId, 1) */\n      tag_153\n        /* \"contracts/ERC721A.sol\":26030:26034  from */\n      dup9\n        /* \"contracts/ERC721A.sol\":26036:26038  to */\n      dup9\n        /* \"contracts/ERC721A.sol\":26040:26047  tokenId */\n      dup9\n        /* \"contracts/ERC721A.sol\":26049:26050  1 */\n      0x01\n        /* \"contracts/ERC721A.sol\":26009:26029  _afterTokenTransfers */\n      tag_154\n        /* \"contracts/ERC721A.sol\":26009:26051  _afterTokenTransfers(from, to, tokenId, 1) */\n      jump\t// in\n    tag_153:\n        /* \"contracts/ERC721A.sol\":22913:26058  {... */\n      pop\n      pop\n      pop\n      pop\n      pop\n        /* \"contracts/ERC721A.sol\":22786:26058  function transferFrom(... */\n      pop\n      pop\n      pop\n      jump\t// out\n        /* \"contracts/ERC721A.sol\":26149:26336  function safeTransferFrom(... */\n    tag_55:\n        /* \"contracts/ERC721A.sol\":26290:26329  safeTransferFrom(from, to, tokenId, '') */\n      tag_156\n        /* \"contracts/ERC721A.sol\":26307:26311  from */\n      dup4\n        /* \"contracts/ERC721A.sol\":26313:26315  to */\n      dup4\n        /* \"contracts/ERC721A.sol\":26317:26324  tokenId */\n      dup4\n        /* \"contracts/ERC721A.sol\":26290:26329  safeTransferFrom(from, to, tokenId, '') */\n      mload(0x40)\n      dup1\n      0x20\n      add\n      0x40\n      mstore\n      dup1\n      0x00\n      dup2\n      mstore\n      pop\n        /* \"contracts/ERC721A.sol\":26290:26306  safeTransferFrom */\n      tag_83\n        /* \"contracts/ERC721A.sol\":26290:26329  safeTransferFrom(from, to, tokenId, '') */\n      jump\t// in\n    tag_156:\n        /* \"contracts/ERC721A.sol\":26149:26336  function safeTransferFrom(... */\n      pop\n      pop\n      pop\n      jump\t// out\n        /* \"contracts/ERC721A.sol\":13152:13302  function ownerOf(uint256 tokenId) public view virtual override returns (address) {... */\n    tag_59:\n        /* \"contracts/ERC721A.sol\":13224:13231  address */\n      0x00\n        /* \"contracts/ERC721A.sol\":13266:13293  _packedOwnershipOf(tokenId) */\n      tag_158\n        /* \"contracts/ERC721A.sol\":13285:13292  tokenId */\n      dup3\n        /* \"contracts/ERC721A.sol\":13266:13284  _packedOwnershipOf */\n      tag_127\n        /* \"contracts/ERC721A.sol\":13266:13293  _packedOwnershipOf(tokenId) */\n      jump\t// in\n    tag_158:\n        /* \"contracts/ERC721A.sol\":13243:13295  return address(uint160(_packedOwnershipOf(tokenId))) */\n      swap1\n      pop\n        /* \"contracts/ERC721A.sol\":13152:13302  function ownerOf(uint256 tokenId) public view virtual override returns (address) {... */\n      swap2\n      swap1\n      pop\n      jump\t// out\n        /* \"contracts/ERC721A.sol\":8570:8809  function balanceOf(address owner) public view virtual override returns (uint256) {... */\n    tag_65:\n        /* \"contracts/ERC721A.sol\":8642:8649  uint256 */\n      0x00\n        /* \"contracts/ERC721A.sol\":8682:8683  0 */\n      dup1\n        /* \"contracts/ERC721A.sol\":8665:8684  owner == address(0) */\n      0xffffffffffffffffffffffffffffffffffffffff\n      and\n        /* \"contracts/ERC721A.sol\":8665:8670  owner */\n      dup3\n        /* \"contracts/ERC721A.sol\":8665:8684  owner == address(0) */\n      0xffffffffffffffffffffffffffffffffffffffff\n      and\n      sub\n        /* \"contracts/ERC721A.sol\":8661:8730  if (owner == address(0)) _revert(BalanceQueryForZeroAddress.selector) */\n      tag_160\n      jumpi\n        /* \"contracts/ERC721A.sol\":8686:8730  _revert(BalanceQueryForZeroAddress.selector) */\n      tag_161\n        /* \"contracts/ERC721A.sol\":8694:8729  BalanceQueryForZeroAddress.selector */\n      shl(0xe0, 0x8f4eb604)\n        /* \"contracts/ERC721A.sol\":8686:8693  _revert */\n      tag_115\n        /* \"contracts/ERC721A.sol\":8686:8730  _revert(BalanceQueryForZeroAddress.selector) */\n      jump\t// in\n    tag_161:\n        /* \"contracts/ERC721A.sol\":8661:8730  if (owner == address(0)) _revert(BalanceQueryForZeroAddress.selector) */\n    tag_160:\n        /* \"contracts/ERC721A.sol\":1518:1531  (1 << 64) - 1 */\n      0xffffffffffffffff\n        /* \"contracts/ERC721A.sol\":8747:8765  _packedAddressData */\n      0x05\n        /* \"contracts/ERC721A.sol\":8747:8772  _packedAddressData[owner] */\n      0x00\n        /* \"contracts/ERC721A.sol\":8766:8771  owner */\n      dup5\n        /* \"contracts/ERC721A.sol\":8747:8772  _packedAddressData[owner] */\n      0xffffffffffffffffffffffffffffffffffffffff\n      and\n      0xffffffffffffffffffffffffffffffffffffffff\n      and\n      dup2\n      mstore\n      0x20\n      add\n      swap1\n      dup2\n      mstore\n      0x20\n      add\n      0x00\n      keccak256\n      sload\n        /* \"contracts/ERC721A.sol\":8747:8802  _packedAddressData[owner] & _BITMASK_ADDRESS_DATA_ENTRY */\n      and\n        /* \"contracts/ERC721A.sol\":8740:8802  return _packedAddressData[owner] & _BITMASK_ADDRESS_DATA_ENTRY */\n      swap1\n      pop\n        /* \"contracts/ERC721A.sol\":8570:8809  function balanceOf(address owner) public view virtual override returns (uint256) {... */\n      swap2\n      swap1\n      pop\n      jump\t// out\n        /* \"contracts/ERC721A.sol\":11742:11844  function symbol() public view virtual override returns (string memory) {... */\n    tag_69:\n        /* \"contracts/ERC721A.sol\":11798:11811  string memory */\n      0x60\n        /* \"contracts/ERC721A.sol\":11830:11837  _symbol */\n      0x03\n        /* \"contracts/ERC721A.sol\":11823:11837  return _symbol */\n      dup1\n      sload\n      tag_163\n      swap1\n      tag_105\n      jump\t// in\n    tag_163:\n      dup1\n      0x1f\n      add\n      0x20\n      dup1\n      swap2\n      div\n      mul\n      0x20\n      add\n      mload(0x40)\n      swap1\n      dup2\n      add\n      0x40\n      mstore\n      dup1\n      swap3\n      swap2\n      swap1\n      dup2\n      dup2\n      mstore\n      0x20\n      add\n      dup3\n      dup1\n      sload\n      tag_164\n      swap1\n      tag_105\n      jump\t// in\n    tag_164:\n      dup1\n      iszero\n      tag_165\n      jumpi\n      dup1\n      0x1f\n      lt\n      tag_166\n      jumpi\n      0x0100\n      dup1\n      dup4\n      sload\n      div\n      mul\n      dup4\n      mstore\n      swap2\n      0x20\n      add\n      swap2\n      jump(tag_165)\n    tag_166:\n      dup3\n      add\n      swap2\n      swap1\n      0x00\n      mstore\n      keccak256(0x00, 0x20)\n      swap1\n    tag_167:\n      dup2\n      sload\n      dup2\n      mstore\n      swap1\n      0x01\n      add\n      swap1\n      0x20\n      add\n      dup1\n      dup4\n      gt\n      tag_167\n      jumpi\n      dup3\n      swap1\n      sub\n      0x1f\n      and\n      dup3\n      add\n      swap2\n    tag_165:\n      pop\n      pop\n      pop\n      pop\n      pop\n      swap1\n      pop\n        /* \"contracts/ERC721A.sol\":11742:11844  function symbol() public view virtual override returns (string memory) {... */\n      swap1\n      jump\t// out\n        /* \"contracts/ERC721A.sol\":19449:19680  function setApprovalForAll(address operator, bool approved) public virtual override {... */\n    tag_75:\n        /* \"contracts/ERC721A.sol\":19595:19603  approved */\n      dup1\n        /* \"contracts/ERC721A.sol\":19543:19561  _operatorApprovals */\n      0x07\n        /* \"contracts/ERC721A.sol\":19543:19582  _operatorApprovals[_msgSenderERC721A()] */\n      0x00\n        /* \"contracts/ERC721A.sol\":19562:19581  _msgSenderERC721A() */\n      tag_169\n        /* \"contracts/ERC721A.sol\":19562:19579  _msgSenderERC721A */\n      tag_134\n        /* \"contracts/ERC721A.sol\":19562:19581  _msgSenderERC721A() */\n      jump\t// in\n    tag_169:\n        /* \"contracts/ERC721A.sol\":19543:19582  _operatorApprovals[_msgSenderERC721A()] */\n      0xffffffffffffffffffffffffffffffffffffffff\n      and\n      0xffffffffffffffffffffffffffffffffffffffff\n      and\n      dup2\n      mstore\n      0x20\n      add\n      swap1\n      dup2\n      mstore\n      0x20\n      add\n      0x00\n      keccak256\n        /* \"contracts/ERC721A.sol\":19543:19592  _operatorApprovals[_msgSenderERC721A()][operator] */\n      0x00\n        /* \"contracts/ERC721A.sol\":19583:19591  operator */\n      dup5\n        /* \"contracts/ERC721A.sol\":19543:19592  _operatorApprovals[_msgSenderERC721A()][operator] */\n      0xffffffffffffffffffffffffffffffffffffffff\n      and\n      0xffffffffffffffffffffffffffffffffffffffff\n      and\n      dup2\n      mstore\n      0x20\n      add\n      swap1\n      dup2\n      mstore\n      0x20\n      add\n      0x00\n      keccak256\n      0x00\n        /* \"contracts/ERC721A.sol\":19543:19603  _operatorApprovals[_msgSenderERC721A()][operator] = approved */\n      0x0100\n      exp\n      dup2\n      sload\n      dup2\n      0xff\n      mul\n      not\n      and\n      swap1\n      dup4\n      iszero\n      iszero\n      mul\n      or\n      swap1\n      sstore\n      pop\n        /* \"contracts/ERC721A.sol\":19654:19662  operator */\n      dup2\n        /* \"contracts/ERC721A.sol\":19618:19673  ApprovalForAll(_msgSenderERC721A(), operator, approved) */\n      0xffffffffffffffffffffffffffffffffffffffff\n      and\n        /* \"contracts/ERC721A.sol\":19633:19652  _msgSenderERC721A() */\n      tag_170\n        /* \"contracts/ERC721A.sol\":19633:19650  _msgSenderERC721A */\n      tag_134\n        /* \"contracts/ERC721A.sol\":19633:19652  _msgSenderERC721A() */\n      jump\t// in\n    tag_170:\n        /* \"contracts/ERC721A.sol\":19618:19673  ApprovalForAll(_msgSenderERC721A(), operator, approved) */\n      0xffffffffffffffffffffffffffffffffffffffff\n      and\n      0x17307eab39ab6107e8899845ad3d59bd9653f200f220920489ca2b5937696c31\n        /* \"contracts/ERC721A.sol\":19664:19672  approved */\n      dup4\n        /* \"contracts/ERC721A.sol\":19618:19673  ApprovalForAll(_msgSenderERC721A(), operator, approved) */\n      mload(0x40)\n      tag_171\n      swap2\n      swap1\n      tag_27\n      jump\t// in\n    tag_171:\n      mload(0x40)\n      dup1\n      swap2\n      sub\n      swap1\n      log3\n        /* \"contracts/ERC721A.sol\":19449:19680  function setApprovalForAll(address operator, bool approved) public virtual override {... */\n      pop\n      pop\n      jump\t// out\n        /* \"contracts/ERC721A.sol\":12727:12818  function maxMintPerWallet() public view virtual returns (uint256) {... */\n    tag_78:\n        /* \"contracts/ERC721A.sol\":12784:12791  uint256 */\n      0x00\n        /* \"contracts/ERC721A.sol\":12810:12811  1 */\n      0x01\n        /* \"contracts/ERC721A.sol\":12803:12811  return 1 */\n      swap1\n      pop\n        /* \"contracts/ERC721A.sol\":12727:12818  function maxMintPerWallet() public view virtual returns (uint256) {... */\n      swap1\n      jump\t// out\n        /* \"contracts/ERC721A.sol\":26917:27322  function safeTransferFrom(... */\n    tag_83:\n        /* \"contracts/ERC721A.sol\":27086:27117  transferFrom(from, to, tokenId) */\n      tag_174\n        /* \"contracts/ERC721A.sol\":27099:27103  from */\n      dup5\n        /* \"contracts/ERC721A.sol\":27105:27107  to */\n      dup5\n        /* \"contracts/ERC721A.sol\":27109:27116  tokenId */\n      dup5\n        /* \"contracts/ERC721A.sol\":27086:27098  transferFrom */\n      tag_52\n        /* \"contracts/ERC721A.sol\":27086:27117  transferFrom(from, to, tokenId) */\n      jump\t// in\n    tag_174:\n        /* \"contracts/ERC721A.sol\":27149:27150  0 */\n      0x00\n        /* \"contracts/ERC721A.sol\":27131:27133  to */\n      dup4\n        /* \"contracts/ERC721A.sol\":27131:27145  to.code.length */\n      0xffffffffffffffffffffffffffffffffffffffff\n      and\n      extcodesize\n        /* \"contracts/ERC721A.sol\":27131:27150  to.code.length != 0 */\n      eq\n        /* \"contracts/ERC721A.sol\":27127:27316  if (to.code.length != 0)... */\n      tag_175\n      jumpi\n        /* \"contracts/ERC721A.sol\":27169:27225  _checkContractOnERC721Received(from, to, tokenId, _data) */\n      tag_176\n        /* \"contracts/ERC721A.sol\":27200:27204  from */\n      dup5\n        /* \"contracts/ERC721A.sol\":27206:27208  to */\n      dup5\n        /* \"contracts/ERC721A.sol\":27210:27217  tokenId */\n      dup5\n        /* \"contracts/ERC721A.sol\":27219:27224  _data */\n      dup5\n        /* \"contracts/ERC721A.sol\":27169:27199  _checkContractOnERC721Received */\n      tag_177\n        /* \"contracts/ERC721A.sol\":27169:27225  _checkContractOnERC721Received(from, to, tokenId, _data) */\n      jump\t// in\n    tag_176:\n        /* \"contracts/ERC721A.sol\":27164:27316  if (!_checkContractOnERC721Received(from, to, tokenId, _data)) {... */\n      tag_178\n      jumpi\n        /* \"contracts/ERC721A.sol\":27245:27301  _revert(TransferToNonERC721ReceiverImplementer.selector) */\n      tag_179\n        /* \"contracts/ERC721A.sol\":27253:27300  TransferToNonERC721ReceiverImplementer.selector */\n      shl(0xe0, 0xd1a57ed6)\n        /* \"contracts/ERC721A.sol\":27245:27252  _revert */\n      tag_115\n        /* \"contracts/ERC721A.sol\":27245:27301  _revert(TransferToNonERC721ReceiverImplementer.selector) */\n      jump\t// in\n    tag_179:\n        /* \"contracts/ERC721A.sol\":27164:27316  if (!_checkContractOnERC721Received(from, to, tokenId, _data)) {... */\n    tag_178:\n        /* \"contracts/ERC721A.sol\":27127:27316  if (to.code.length != 0)... */\n    tag_175:\n        /* \"contracts/ERC721A.sol\":26917:27322  function safeTransferFrom(... */\n      pop\n      pop\n      pop\n      pop\n      jump\t// out\n        /* \"contracts/ERC721A.sol\":11945:12267  function tokenURI(uint256 tokenId) public view virtual override returns (string memory) {... */\n    tag_87:\n        /* \"contracts/ERC721A.sol\":12018:12031  string memory */\n      0x60\n        /* \"contracts/ERC721A.sol\":12048:12064  _exists(tokenId) */\n      tag_181\n        /* \"contracts/ERC721A.sol\":12056:12063  tokenId */\n      dup3\n        /* \"contracts/ERC721A.sol\":12048:12055  _exists */\n      tag_112\n        /* \"contracts/ERC721A.sol\":12048:12064  _exists(tokenId) */\n      jump\t// in\n    tag_181:\n        /* \"contracts/ERC721A.sol\":12043:12111  if (!_exists(tokenId)) _revert(URIQueryForNonexistentToken.selector) */\n      tag_182\n      jumpi\n        /* \"contracts/ERC721A.sol\":12066:12111  _revert(URIQueryForNonexistentToken.selector) */\n      tag_183\n        /* \"contracts/ERC721A.sol\":12074:12110  URIQueryForNonexistentToken.selector */\n      shl(0xe0, 0xa14c4b50)\n        /* \"contracts/ERC721A.sol\":12066:12073  _revert */\n      tag_115\n        /* \"contracts/ERC721A.sol\":12066:12111  _revert(URIQueryForNonexistentToken.selector) */\n      jump\t// in\n    tag_183:\n        /* \"contracts/ERC721A.sol\":12043:12111  if (!_exists(tokenId)) _revert(URIQueryForNonexistentToken.selector) */\n    tag_182:\n        /* \"contracts/ERC721A.sol\":12122:12143  string memory baseURI */\n      0x00\n        /* \"contracts/ERC721A.sol\":12146:12156  _baseURI() */\n      tag_184\n        /* \"contracts/ERC721A.sol\":12146:12154  _baseURI */\n      tag_185\n        /* \"contracts/ERC721A.sol\":12146:12156  _baseURI() */\n      jump\t// in\n    tag_184:\n        /* \"contracts/ERC721A.sol\":12122:12156  string memory baseURI = _baseURI() */\n      swap1\n      pop\n        /* \"contracts/ERC721A.sol\":12198:12199  0 */\n      0x00\n        /* \"contracts/ERC721A.sol\":12179:12186  baseURI */\n      dup2\n        /* \"contracts/ERC721A.sol\":12173:12194  bytes(baseURI).length */\n      mload\n        /* \"contracts/ERC721A.sol\":12173:12199  bytes(baseURI).length != 0 */\n      sub\n        /* \"contracts/ERC721A.sol\":12173:12260  bytes(baseURI).length != 0 ? string(abi.encodePacked(baseURI, _toString(tokenId))) : '' */\n      tag_186\n      jumpi\n      mload(0x40)\n      dup1\n      0x20\n      add\n      0x40\n      mstore\n      dup1\n      0x00\n      dup2\n      mstore\n      pop\n      jump(tag_187)\n    tag_186:\n        /* \"contracts/ERC721A.sol\":12226:12233  baseURI */\n      dup1\n        /* \"contracts/ERC721A.sol\":12235:12253  _toString(tokenId) */\n      tag_188\n        /* \"contracts/ERC721A.sol\":12245:12252  tokenId */\n      dup5\n        /* \"contracts/ERC721A.sol\":12235:12244  _toString */\n      tag_189\n        /* \"contracts/ERC721A.sol\":12235:12253  _toString(tokenId) */\n      jump\t// in\n    tag_188:\n        /* \"contracts/ERC721A.sol\":12209:12254  abi.encodePacked(baseURI, _toString(tokenId)) */\n      add(0x20, mload(0x40))\n      tag_190\n      swap3\n      swap2\n      swap1\n      tag_191\n      jump\t// in\n    tag_190:\n      mload(0x40)\n      0x20\n      dup2\n      dup4\n      sub\n      sub\n      dup2\n      mstore\n      swap1\n      0x40\n      mstore\n        /* \"contracts/ERC721A.sol\":12173:12260  bytes(baseURI).length != 0 ? string(abi.encodePacked(baseURI, _toString(tokenId))) : '' */\n    tag_187:\n        /* \"contracts/ERC721A.sol\":12166:12260  return bytes(baseURI).length != 0 ? string(abi.encodePacked(baseURI, _toString(tokenId))) : '' */\n      swap2\n      pop\n      pop\n        /* \"contracts/ERC721A.sol\":11945:12267  function tokenURI(uint256 tokenId) public view virtual override returns (string memory) {... */\n      swap2\n      swap1\n      pop\n      jump\t// out\n        /* \"contracts/ERC721A.sol\":12610:12721  function mintPrice(uint256 quantity) public view virtual returns (uint256) {... */\n    tag_92:\n        /* \"contracts/ERC721A.sol\":12676:12683  uint256 */\n      0x00\n        /* \"contracts/ERC721A.sol\":12713:12714  0 */\n      dup1\n        /* \"contracts/ERC721A.sol\":12702:12710  quantity */\n      dup3\n        /* \"contracts/ERC721A.sol\":12702:12714  quantity * 0 */\n      tag_193\n      swap2\n      swap1\n      tag_194\n      jump\t// in\n    tag_193:\n        /* \"contracts/ERC721A.sol\":12695:12714  return quantity * 0 */\n      swap1\n      pop\n        /* \"contracts/ERC721A.sol\":12610:12721  function mintPrice(uint256 quantity) public view virtual returns (uint256) {... */\n      swap2\n      swap1\n      pop\n      jump\t// out\n        /* \"contracts/ERC721A.sol\":19830:19992  function isApprovedForAll(address owner, address operator) public view virtual override returns (bool) {... */\n    tag_98:\n        /* \"contracts/ERC721A.sol\":19927:19931  bool */\n      0x00\n        /* \"contracts/ERC721A.sol\":19950:19968  _operatorApprovals */\n      0x07\n        /* \"contracts/ERC721A.sol\":19950:19975  _operatorApprovals[owner] */\n      0x00\n        /* \"contracts/ERC721A.sol\":19969:19974  owner */\n      dup5\n        /* \"contracts/ERC721A.sol\":19950:19975  _operatorApprovals[owner] */\n      0xffffffffffffffffffffffffffffffffffffffff\n      and\n      0xffffffffffffffffffffffffffffffffffffffff\n      and\n      dup2\n      mstore\n      0x20\n      add\n      swap1\n      dup2\n      mstore\n      0x20\n      add\n      0x00\n      keccak256\n        /* \"contracts/ERC721A.sol\":19950:19985  _operatorApprovals[owner][operator] */\n      0x00\n        /* \"contracts/ERC721A.sol\":19976:19984  operator */\n      dup4\n        /* \"contracts/ERC721A.sol\":19950:19985  _operatorApprovals[owner][operator] */\n      0xffffffffffffffffffffffffffffffffffffffff\n      and\n      0xffffffffffffffffffffffffffffffffffffffff\n      and\n      dup2\n      mstore\n      0x20\n      add\n      swap1\n      dup2\n      mstore\n      0x20\n      add\n      0x00\n      keccak256\n      0x00\n      swap1\n      sload\n      swap1\n      0x0100\n      exp\n      swap1\n      div\n      0xff\n      and\n        /* \"contracts/ERC721A.sol\":19943:19985  return _operatorApprovals[owner][operator] */\n      swap1\n      pop\n        /* \"contracts/ERC721A.sol\":19830:19992  function isApprovedForAll(address owner, address operator) public view virtual override returns (bool) {... */\n      swap3\n      swap2\n      pop\n      pop\n      jump\t// out\n        /* \"contracts/ERC721A.sol\":20241:20724  function _exists(uint256 tokenId) internal view virtual returns (bool result) {... */\n    tag_112:\n        /* \"contracts/ERC721A.sol\":20306:20317  bool result */\n      0x00\n        /* \"contracts/ERC721A.sol\":20352:20359  tokenId */\n      dup2\n        /* \"contracts/ERC721A.sol\":20333:20348  _startTokenId() */\n      tag_197\n        /* \"contracts/ERC721A.sol\":20333:20346  _startTokenId */\n      tag_121\n        /* \"contracts/ERC721A.sol\":20333:20348  _startTokenId() */\n      jump\t// in\n    tag_197:\n        /* \"contracts/ERC721A.sol\":20333:20359  _startTokenId() <= tokenId */\n      gt\n        /* \"contracts/ERC721A.sol\":20329:20718  if (_startTokenId() <= tokenId) {... */\n      tag_198\n      jumpi\n        /* \"contracts/ERC721A.sol\":20389:20406  _sequentialUpTo() */\n      tag_199\n        /* \"contracts/ERC721A.sol\":20389:20404  _sequentialUpTo */\n      tag_123\n        /* \"contracts/ERC721A.sol\":20389:20406  _sequentialUpTo() */\n      jump\t// in\n    tag_199:\n        /* \"contracts/ERC721A.sol\":20379:20386  tokenId */\n      dup3\n        /* \"contracts/ERC721A.sol\":20379:20406  tokenId > _sequentialUpTo() */\n      gt\n        /* \"contracts/ERC721A.sol\":20375:20465  if (tokenId > _sequentialUpTo()) return _packedOwnershipExists(_packedOwnerships[tokenId]) */\n      iszero\n      tag_200\n      jumpi\n        /* \"contracts/ERC721A.sol\":20415:20465  _packedOwnershipExists(_packedOwnerships[tokenId]) */\n      tag_201\n        /* \"contracts/ERC721A.sol\":20438:20455  _packedOwnerships */\n      0x04\n        /* \"contracts/ERC721A.sol\":20438:20464  _packedOwnerships[tokenId] */\n      0x00\n        /* \"contracts/ERC721A.sol\":20456:20463  tokenId */\n      dup5\n        /* \"contracts/ERC721A.sol\":20438:20464  _packedOwnerships[tokenId] */\n      dup2\n      mstore\n      0x20\n      add\n      swap1\n      dup2\n      mstore\n      0x20\n      add\n      0x00\n      keccak256\n      sload\n        /* \"contracts/ERC721A.sol\":20415:20437  _packedOwnershipExists */\n      tag_202\n        /* \"contracts/ERC721A.sol\":20415:20465  _packedOwnershipExists(_packedOwnerships[tokenId]) */\n      jump\t// in\n    tag_201:\n        /* \"contracts/ERC721A.sol\":20408:20465  return _packedOwnershipExists(_packedOwnerships[tokenId]) */\n      swap1\n      pop\n      jump(tag_196)\n        /* \"contracts/ERC721A.sol\":20375:20465  if (tokenId > _sequentialUpTo()) return _packedOwnershipExists(_packedOwnerships[tokenId]) */\n    tag_200:\n        /* \"contracts/ERC721A.sol\":20494:20507  _currentIndex */\n      sload(0x00)\n        /* \"contracts/ERC721A.sol\":20484:20491  tokenId */\n      dup3\n        /* \"contracts/ERC721A.sol\":20484:20507  tokenId < _currentIndex */\n      lt\n        /* \"contracts/ERC721A.sol\":20480:20708  if (tokenId < _currentIndex) {... */\n      iszero\n      tag_203\n      jumpi\n        /* \"contracts/ERC721A.sol\":20527:20541  uint256 packed */\n      0x00\n        /* \"contracts/ERC721A.sol\":20559:20628  while ((packed = _packedOwnerships[tokenId]) == uint256(0)) --tokenId */\n    tag_204:\n        /* \"contracts/ERC721A.sol\":20615:20616  0 */\n      0x00\n        /* \"contracts/ERC721A.sol\":20576:20593  _packedOwnerships */\n      0x04\n        /* \"contracts/ERC721A.sol\":20576:20602  _packedOwnerships[tokenId] */\n      0x00\n        /* \"contracts/ERC721A.sol\":20594:20601  tokenId */\n      dup6\n        /* \"contracts/ERC721A.sol\":20576:20602  _packedOwnerships[tokenId] */\n      dup2\n      mstore\n      0x20\n      add\n      swap1\n      dup2\n      mstore\n      0x20\n      add\n      0x00\n      keccak256\n      sload\n        /* \"contracts/ERC721A.sol\":20567:20602  packed = _packedOwnerships[tokenId] */\n      swap2\n      pop\n      dup2\n        /* \"contracts/ERC721A.sol\":20566:20617  (packed = _packedOwnerships[tokenId]) == uint256(0) */\n      sub\n        /* \"contracts/ERC721A.sol\":20559:20628  while ((packed = _packedOwnerships[tokenId]) == uint256(0)) --tokenId */\n      tag_205\n      jumpi\n        /* \"contracts/ERC721A.sol\":20619:20628  --tokenId */\n      dup3\n      tag_206\n      swap1\n      tag_207\n      jump\t// in\n    tag_206:\n      swap3\n      pop\n        /* \"contracts/ERC721A.sol\":20559:20628  while ((packed = _packedOwnerships[tokenId]) == uint256(0)) --tokenId */\n      jump(tag_204)\n    tag_205:\n        /* \"contracts/ERC721A.sol\":20691:20692  0 */\n      0x00\n        /* \"contracts/ERC721A.sol\":2276:2284  1 << 224 */\n      0x0100000000000000000000000000000000000000000000000000000000\n        /* \"contracts/ERC721A.sol\":20655:20661  packed */\n      dup3\n        /* \"contracts/ERC721A.sol\":20655:20679  packed & _BITMASK_BURNED */\n      and\n        /* \"contracts/ERC721A.sol\":20655:20693  packed & _BITMASK_BURNED == uint256(0) */\n      eq\n        /* \"contracts/ERC721A.sol\":20646:20693  result = packed & _BITMASK_BURNED == uint256(0) */\n      swap2\n      pop\n        /* \"contracts/ERC721A.sol\":20509:20708  {... */\n      pop\n        /* \"contracts/ERC721A.sol\":20480:20708  if (tokenId < _currentIndex) {... */\n    tag_203:\n        /* \"contracts/ERC721A.sol\":20329:20718  if (_startTokenId() <= tokenId) {... */\n    tag_198:\n        /* \"contracts/ERC721A.sol\":20241:20724  function _exists(uint256 tokenId) internal view virtual returns (bool result) {... */\n    tag_196:\n      swap2\n      swap1\n      pop\n      jump\t// out\n        /* \"contracts/ERC721A.sol\":62584:62744  function _revert(bytes4 errorSelector) internal pure {... */\n    tag_115:\n        /* \"contracts/ERC721A.sol\":62683:62696  errorSelector */\n      dup1\n        /* \"contracts/ERC721A.sol\":62677:62681  0x00 */\n      0x00\n        /* \"contracts/ERC721A.sol\":62670:62697  mstore(0x00, errorSelector) */\n      mstore\n        /* \"contracts/ERC721A.sol\":62723:62727  0x04 */\n      0x04\n        /* \"contracts/ERC721A.sol\":62717:62721  0x00 */\n      0x00\n        /* \"contracts/ERC721A.sol\":62710:62728  revert(0x00, 0x04) */\n      revert\n        /* \"contracts/ERC721A.sol\":48360:48820  function _approve(... */\n    tag_118:\n        /* \"contracts/ERC721A.sol\":48484:48497  address owner */\n      0x00\n        /* \"contracts/ERC721A.sol\":48500:48516  ownerOf(tokenId) */\n      tag_210\n        /* \"contracts/ERC721A.sol\":48508:48515  tokenId */\n      dup4\n        /* \"contracts/ERC721A.sol\":48500:48507  ownerOf */\n      tag_59\n        /* \"contracts/ERC721A.sol\":48500:48516  ownerOf(tokenId) */\n      jump\t// in\n    tag_210:\n        /* \"contracts/ERC721A.sol\":48484:48516  address owner = ownerOf(tokenId) */\n      swap1\n      pop\n        /* \"contracts/ERC721A.sol\":48531:48544  approvalCheck */\n      dup2\n        /* \"contracts/ERC721A.sol\":48531:48576  approvalCheck && _msgSenderERC721A() != owner */\n      dup1\n      iszero\n      tag_211\n      jumpi\n      pop\n        /* \"contracts/ERC721A.sol\":48571:48576  owner */\n      dup1\n        /* \"contracts/ERC721A.sol\":48548:48576  _msgSenderERC721A() != owner */\n      0xffffffffffffffffffffffffffffffffffffffff\n      and\n        /* \"contracts/ERC721A.sol\":48548:48567  _msgSenderERC721A() */\n      tag_212\n        /* \"contracts/ERC721A.sol\":48548:48565  _msgSenderERC721A */\n      tag_134\n        /* \"contracts/ERC721A.sol\":48548:48567  _msgSenderERC721A() */\n      jump\t// in\n    tag_212:\n        /* \"contracts/ERC721A.sol\":48548:48576  _msgSenderERC721A() != owner */\n      0xffffffffffffffffffffffffffffffffffffffff\n      and\n      eq\n      iszero\n        /* \"contracts/ERC721A.sol\":48531:48576  approvalCheck && _msgSenderERC721A() != owner */\n    tag_211:\n        /* \"contracts/ERC721A.sol\":48527:48725  if (approvalCheck && _msgSenderERC721A() != owner)... */\n      iszero\n      tag_213\n      jumpi\n        /* \"contracts/ERC721A.sol\":48595:48639  isApprovedForAll(owner, _msgSenderERC721A()) */\n      tag_214\n        /* \"contracts/ERC721A.sol\":48612:48617  owner */\n      dup2\n        /* \"contracts/ERC721A.sol\":48619:48638  _msgSenderERC721A() */\n      tag_215\n        /* \"contracts/ERC721A.sol\":48619:48636  _msgSenderERC721A */\n      tag_134\n        /* \"contracts/ERC721A.sol\":48619:48638  _msgSenderERC721A() */\n      jump\t// in\n    tag_215:\n        /* \"contracts/ERC721A.sol\":48595:48611  isApprovedForAll */\n      tag_98\n        /* \"contracts/ERC721A.sol\":48595:48639  isApprovedForAll(owner, _msgSenderERC721A()) */\n      jump\t// in\n    tag_214:\n        /* \"contracts/ERC721A.sol\":48590:48725  if (!isApprovedForAll(owner, _msgSenderERC721A())) {... */\n      tag_216\n      jumpi\n        /* \"contracts/ERC721A.sol\":48659:48710  _revert(ApprovalCallerNotOwnerNorApproved.selector) */\n      tag_217\n        /* \"contracts/ERC721A.sol\":48667:48709  ApprovalCallerNotOwnerNorApproved.selector */\n      shl(0xe0, 0xcfb3b942)\n        /* \"contracts/ERC721A.sol\":48659:48666  _revert */\n      tag_115\n        /* \"contracts/ERC721A.sol\":48659:48710  _revert(ApprovalCallerNotOwnerNorApproved.selector) */\n      jump\t// in\n    tag_217:\n        /* \"contracts/ERC721A.sol\":48590:48725  if (!isApprovedForAll(owner, _msgSenderERC721A())) {... */\n    tag_216:\n        /* \"contracts/ERC721A.sol\":48527:48725  if (approvalCheck && _msgSenderERC721A() != owner)... */\n    tag_213:\n        /* \"contracts/ERC721A.sol\":48768:48770  to */\n      dup4\n        /* \"contracts/ERC721A.sol\":48735:48750  _tokenApprovals */\n      0x06\n        /* \"contracts/ERC721A.sol\":48735:48759  _tokenApprovals[tokenId] */\n      0x00\n        /* \"contracts/ERC721A.sol\":48751:48758  tokenId */\n      dup6\n        /* \"contracts/ERC721A.sol\":48735:48759  _tokenApprovals[tokenId] */\n      dup2\n      mstore\n      0x20\n      add\n      swap1\n      dup2\n      mstore\n      0x20\n      add\n      0x00\n      keccak256\n        /* \"contracts/ERC721A.sol\":48735:48765  _tokenApprovals[tokenId].value */\n      0x00\n      add\n      0x00\n        /* \"contracts/ERC721A.sol\":48735:48770  _tokenApprovals[tokenId].value = to */\n      0x0100\n      exp\n      dup2\n      sload\n      dup2\n      0xffffffffffffffffffffffffffffffffffffffff\n      mul\n      not\n      and\n      swap1\n      dup4\n      0xffffffffffffffffffffffffffffffffffffffff\n      and\n      mul\n      or\n      swap1\n      sstore\n      pop\n        /* \"contracts/ERC721A.sol\":48805:48812  tokenId */\n      dup3\n        /* \"contracts/ERC721A.sol\":48801:48803  to */\n      dup5\n        /* \"contracts/ERC721A.sol\":48785:48813  Approval(owner, to, tokenId) */\n      0xffffffffffffffffffffffffffffffffffffffff\n      and\n        /* \"contracts/ERC721A.sol\":48794:48799  owner */\n      dup3\n        /* \"contracts/ERC721A.sol\":48785:48813  Approval(owner, to, tokenId) */\n      0xffffffffffffffffffffffffffffffffffffffff\n      and\n      0x8c5be1e5ebec7d5bd14f71427d1e84f3dd0314c0f7b2291e5b200ac8c7c3b925\n      mload(0x40)\n      mload(0x40)\n      dup1\n      swap2\n      sub\n      swap1\n      log4\n        /* \"contracts/ERC721A.sol\":48474:48820  {... */\n      pop\n        /* \"contracts/ERC721A.sol\":48360:48820  function _approve(... */\n      pop\n      pop\n      pop\n      jump\t// out\n        /* \"contracts/ERC721A.sol\":5966:6056  function _startTokenId() internal view virtual returns (uint256) {... */\n    tag_121:\n        /* \"contracts/ERC721A.sol\":6022:6029  uint256 */\n      0x00\n        /* \"contracts/ERC721A.sol\":6048:6049  1 */\n      0x01\n        /* \"contracts/ERC721A.sol\":6041:6049  return 1 */\n      swap1\n      pop\n        /* \"contracts/ERC721A.sol\":5966:6056  function _startTokenId() internal view virtual returns (uint256) {... */\n      swap1\n      jump\t// out\n        /* \"contracts/ERC721A.sol\":6404:6512  function _sequentialUpTo() internal view virtual returns (uint256) {... */\n    tag_123:\n        /* \"contracts/ERC721A.sol\":6462:6469  uint256 */\n      0x00\n        /* \"contracts/ERC721A.sol\":6488:6505  type(uint256).max */\n      0xffffffffffffffffffffffffffffffffffffffffffffffffffffffffffffffff\n        /* \"contracts/ERC721A.sol\":6481:6505  return type(uint256).max */\n      swap1\n      pop\n        /* \"contracts/ERC721A.sol\":6404:6512  function _sequentialUpTo() internal view virtual returns (uint256) {... */\n      swap1\n      jump\t// out\n        /* \"contracts/ERC721A.sol\":14607:16816  function _packedOwnershipOf(uint256 tokenId) private view returns (uint256 packed) {... */\n    tag_127:\n        /* \"contracts/ERC721A.sol\":14674:14688  uint256 packed */\n      0x00\n        /* \"contracts/ERC721A.sol\":14723:14730  tokenId */\n      dup2\n        /* \"contracts/ERC721A.sol\":14704:14719  _startTokenId() */\n      tag_221\n        /* \"contracts/ERC721A.sol\":14704:14717  _startTokenId */\n      tag_121\n        /* \"contracts/ERC721A.sol\":14704:14719  _startTokenId() */\n      jump\t// in\n    tag_221:\n        /* \"contracts/ERC721A.sol\":14704:14730  _startTokenId() <= tokenId */\n      gt\n        /* \"contracts/ERC721A.sol\":14700:16753  if (_startTokenId() <= tokenId) {... */\n      tag_222\n      jumpi\n        /* \"contracts/ERC721A.sol\":14755:14772  _packedOwnerships */\n      0x04\n        /* \"contracts/ERC721A.sol\":14755:14781  _packedOwnerships[tokenId] */\n      0x00\n        /* \"contracts/ERC721A.sol\":14773:14780  tokenId */\n      dup4\n        /* \"contracts/ERC721A.sol\":14755:14781  _packedOwnerships[tokenId] */\n      dup2\n      mstore\n      0x20\n      add\n      swap1\n      dup2\n      mstore\n      0x20\n      add\n      0x00\n      keccak256\n      sload\n        /* \"contracts/ERC721A.sol\":14746:14781  packed = _packedOwnerships[tokenId] */\n      swap1\n      pop\n        /* \"contracts/ERC721A.sol\":14810:14827  _sequentialUpTo() */\n      tag_223\n        /* \"contracts/ERC721A.sol\":14810:14825  _sequentialUpTo */\n      tag_123\n        /* \"contracts/ERC721A.sol\":14810:14827  _sequentialUpTo() */\n      jump\t// in\n    tag_223:\n        /* \"contracts/ERC721A.sol\":14800:14807  tokenId */\n      dup3\n        /* \"contracts/ERC721A.sol\":14800:14827  tokenId > _sequentialUpTo() */\n      gt\n        /* \"contracts/ERC721A.sol\":14796:14976  if (tokenId > _sequentialUpTo()) {... */\n      iszero\n      tag_224\n      jumpi\n        /* \"contracts/ERC721A.sol\":14851:14881  _packedOwnershipExists(packed) */\n      tag_225\n        /* \"contracts/ERC721A.sol\":14874:14880  packed */\n      dup2\n        /* \"contracts/ERC721A.sol\":14851:14873  _packedOwnershipExists */\n      tag_202\n        /* \"contracts/ERC721A.sol\":14851:14881  _packedOwnershipExists(packed) */\n      jump\t// in\n    tag_225:\n        /* \"contracts/ERC721A.sol\":14883:14896  return packed */\n      tag_220\n        /* \"contracts/ERC721A.sol\":14847:14896  if (_packedOwnershipExists(packed)) return packed */\n      jumpi\n        /* \"contracts/ERC721A.sol\":14914:14961  _revert(OwnerQueryForNonexistentToken.selector) */\n      tag_227\n        /* \"contracts/ERC721A.sol\":14922:14960  OwnerQueryForNonexistentToken.selector */\n      shl(0xe0, 0xdf2d9b42)\n        /* \"contracts/ERC721A.sol\":14914:14921  _revert */\n      tag_115\n        /* \"contracts/ERC721A.sol\":14914:14961  _revert(OwnerQueryForNonexistentToken.selector) */\n      jump\t// in\n    tag_227:\n        /* \"contracts/ERC721A.sol\":14796:14976  if (tokenId > _sequentialUpTo()) {... */\n    tag_224:\n        /* \"contracts/ERC721A.sol\":15092:15093  0 */\n      0x00\n        /* \"contracts/ERC721A.sol\":15074:15080  packed */\n      dup2\n        /* \"contracts/ERC721A.sol\":15074:15094  packed == uint256(0) */\n      sub\n        /* \"contracts/ERC721A.sol\":15070:16367  if (packed == uint256(0)) {... */\n      tag_228\n      jumpi\n        /* \"contracts/ERC721A.sol\":15129:15142  _currentIndex */\n      sload(0x00)\n        /* \"contracts/ERC721A.sol\":15118:15125  tokenId */\n      dup3\n        /* \"contracts/ERC721A.sol\":15118:15142  tokenId >= _currentIndex */\n      lt\n        /* \"contracts/ERC721A.sol\":15114:15191  if (tokenId >= _currentIndex) _revert(OwnerQueryForNonexistentToken.selector) */\n      tag_229\n      jumpi\n        /* \"contracts/ERC721A.sol\":15144:15191  _revert(OwnerQueryForNonexistentToken.selector) */\n      tag_230\n        /* \"contracts/ERC721A.sol\":15152:15190  OwnerQueryForNonexistentToken.selector */\n      shl(0xe0, 0xdf2d9b42)\n        /* \"contracts/ERC721A.sol\":15144:15151  _revert */\n      tag_115\n        /* \"contracts/ERC721A.sol\":15144:15191  _revert(OwnerQueryForNonexistentToken.selector) */\n      jump\t// in\n    tag_230:\n        /* \"contracts/ERC721A.sol\":15114:15191  if (tokenId >= _currentIndex) _revert(OwnerQueryForNonexistentToken.selector) */\n    tag_229:\n        /* \"contracts/ERC721A.sol\":15738:16353  for (;;) {... */\n    tag_231:\n        /* \"contracts/ERC721A.sol\":15814:15831  _packedOwnerships */\n      0x04\n        /* \"contracts/ERC721A.sol\":15814:15842  _packedOwnerships[--tokenId] */\n      0x00\n        /* \"contracts/ERC721A.sol\":15832:15841  --tokenId */\n      dup4\n      0x01\n      swap1\n      sub\n      swap4\n      pop\n      dup4\n        /* \"contracts/ERC721A.sol\":15814:15842  _packedOwnerships[--tokenId] */\n      dup2\n      mstore\n      0x20\n      add\n      swap1\n      dup2\n      mstore\n      0x20\n      add\n      0x00\n      keccak256\n      sload\n        /* \"contracts/ERC721A.sol\":15805:15842  packed = _packedOwnerships[--tokenId] */\n      swap1\n      pop\n        /* \"contracts/ERC721A.sol\":15908:15909  0 */\n      0x00\n        /* \"contracts/ERC721A.sol\":15890:15896  packed */\n      dup2\n        /* \"contracts/ERC721A.sol\":15890:15910  packed == uint256(0) */\n      sub\n        /* \"contracts/ERC721A.sol\":15886:15920  if (packed == uint256(0)) continue */\n      iszero\n        /* \"contracts/ERC721A.sol\":15912:15920  continue */\n      tag_233\n        /* \"contracts/ERC721A.sol\":15886:15920  if (packed == uint256(0)) continue */\n      jumpi\n        /* \"contracts/ERC721A.sol\":15982:15983  0 */\n      0x00\n        /* \"contracts/ERC721A.sol\":2276:2284  1 << 224 */\n      0x0100000000000000000000000000000000000000000000000000000000\n        /* \"contracts/ERC721A.sol\":15946:15952  packed */\n      dup3\n        /* \"contracts/ERC721A.sol\":15946:15970  packed & _BITMASK_BURNED */\n      and\n        /* \"contracts/ERC721A.sol\":15946:15984  packed & _BITMASK_BURNED == uint256(0) */\n      sub\n        /* \"contracts/ERC721A.sol\":15942:15999  if (packed & _BITMASK_BURNED == uint256(0)) return packed */\n      iszero\n        /* \"contracts/ERC721A.sol\":15986:15999  return packed */\n      tag_220\n        /* \"contracts/ERC721A.sol\":15942:15999  if (packed & _BITMASK_BURNED == uint256(0)) return packed */\n      jumpi\n        /* \"contracts/ERC721A.sol\":16287:16334  _revert(OwnerQueryForNonexistentToken.selector) */\n      tag_236\n        /* \"contracts/ERC721A.sol\":16295:16333  OwnerQueryForNonexistentToken.selector */\n      shl(0xe0, 0xdf2d9b42)\n        /* \"contracts/ERC721A.sol\":16287:16294  _revert */\n      tag_115\n        /* \"contracts/ERC721A.sol\":16287:16334  _revert(OwnerQueryForNonexistentToken.selector) */\n      jump\t// in\n    tag_236:\n        /* \"contracts/ERC721A.sol\":15738:16353  for (;;) {... */\n    tag_233:\n      jump(tag_231)\n        /* \"contracts/ERC721A.sol\":15070:16367  if (packed == uint256(0)) {... */\n    tag_228:\n        /* \"contracts/ERC721A.sol\":16725:16726  0 */\n      0x00\n        /* \"contracts/ERC721A.sol\":2276:2284  1 << 224 */\n      0x0100000000000000000000000000000000000000000000000000000000\n        /* \"contracts/ERC721A.sol\":16689:16695  packed */\n      dup3\n        /* \"contracts/ERC721A.sol\":16689:16713  packed & _BITMASK_BURNED */\n      and\n        /* \"contracts/ERC721A.sol\":16689:16727  packed & _BITMASK_BURNED == uint256(0) */\n      sub\n        /* \"contracts/ERC721A.sol\":16685:16742  if (packed & _BITMASK_BURNED == uint256(0)) return packed */\n      iszero\n        /* \"contracts/ERC721A.sol\":16729:16742  return packed */\n      tag_220\n        /* \"contracts/ERC721A.sol\":16685:16742  if (packed & _BITMASK_BURNED == uint256(0)) return packed */\n      jumpi\n        /* \"contracts/ERC721A.sol\":14700:16753  if (_startTokenId() <= tokenId) {... */\n    tag_222:\n        /* \"contracts/ERC721A.sol\":16762:16809  _revert(OwnerQueryForNonexistentToken.selector) */\n      tag_238\n        /* \"contracts/ERC721A.sol\":16770:16808  OwnerQueryForNonexistentToken.selector */\n      shl(0xe0, 0xdf2d9b42)\n        /* \"contracts/ERC721A.sol\":16762:16769  _revert */\n      tag_115\n        /* \"contracts/ERC721A.sol\":16762:16809  _revert(OwnerQueryForNonexistentToken.selector) */\n      jump\t// in\n    tag_238:\n        /* \"contracts/ERC721A.sol\":14607:16816  function _packedOwnershipOf(uint256 tokenId) private view returns (uint256 packed) {... */\n    tag_220:\n      swap2\n      swap1\n      pop\n      jump\t// out\n        /* \"contracts/ERC721A.sol\":21689:22185  function _getApprovedSlotAndValue(uint256 tokenId)... */\n    tag_131:\n        /* \"contracts/ERC721A.sol\":21786:21813  uint256 approvedAddressSlot */\n      0x00\n        /* \"contracts/ERC721A.sol\":21815:21843  uint256 approvedAddressValue */\n      dup1\n        /* \"contracts/ERC721A.sol\":21859:21897  TokenApprovalRef storage tokenApproval */\n      0x00\n        /* \"contracts/ERC721A.sol\":21900:21915  _tokenApprovals */\n      0x06\n        /* \"contracts/ERC721A.sol\":21900:21924  _tokenApprovals[tokenId] */\n      0x00\n        /* \"contracts/ERC721A.sol\":21916:21923  tokenId */\n      dup6\n        /* \"contracts/ERC721A.sol\":21900:21924  _tokenApprovals[tokenId] */\n      dup2\n      mstore\n      0x20\n      add\n      swap1\n      dup2\n      mstore\n      0x20\n      add\n      0x00\n      keccak256\n        /* \"contracts/ERC721A.sol\":21859:21924  TokenApprovalRef storage tokenApproval = _tokenApprovals[tokenId] */\n      swap1\n      pop\n        /* \"contracts/ERC721A.sol\":22088:22106  tokenApproval.slot */\n      dup1\n        /* \"contracts/ERC721A.sol\":22065:22106  approvedAddressSlot := tokenApproval.slot */\n      swap3\n      pop\n        /* \"contracts/ERC721A.sol\":22149:22168  approvedAddressSlot */\n      dup3\n        /* \"contracts/ERC721A.sol\":22143:22169  sload(approvedAddressSlot) */\n      sload\n        /* \"contracts/ERC721A.sol\":22119:22169  approvedAddressValue := sload(approvedAddressSlot) */\n      swap2\n      pop\n        /* \"contracts/ERC721A.sol\":22051:22179  {... */\n      pop\n        /* \"contracts/ERC721A.sol\":21689:22185  function _getApprovedSlotAndValue(uint256 tokenId)... */\n      swap2\n      pop\n      swap2\n      jump\t// out\n        /* \"contracts/ERC721A.sol\":60614:60717  function _msgSenderERC721A() internal view virtual returns (address) {... */\n    tag_134:\n        /* \"contracts/ERC721A.sol\":60674:60681  address */\n      0x00\n        /* \"contracts/ERC721A.sol\":60700:60710  msg.sender */\n      caller\n        /* \"contracts/ERC721A.sol\":60693:60710  return msg.sender */\n      swap1\n      pop\n        /* \"contracts/ERC721A.sol\":60614:60717  function _msgSenderERC721A() internal view virtual returns (address) {... */\n      swap1\n      jump\t// out\n        /* \"contracts/ERC721A.sol\":21248:21561  function _isSenderApprovedOrOwner(... */\n    tag_135:\n        /* \"contracts/ERC721A.sol\":21410:21421  bool result */\n      0x00\n        /* \"contracts/ERC721A.sol\":21523:21543  approvedAddressValue */\n      dup4\n        /* \"contracts/ERC721A.sol\":21506:21521  msgSenderMasked */\n      dup3\n        /* \"contracts/ERC721A.sol\":21503:21544  eq(msgSenderMasked, approvedAddressValue) */\n      eq\n        /* \"contracts/ERC721A.sol\":21489:21500  ownerMasked */\n      dup4\n        /* \"contracts/ERC721A.sol\":21472:21487  msgSenderMasked */\n      dup4\n        /* \"contracts/ERC721A.sol\":21469:21501  eq(msgSenderMasked, ownerMasked) */\n      eq\n        /* \"contracts/ERC721A.sol\":21466:21545  or(eq(msgSenderMasked, ownerMasked), eq(msgSenderMasked, approvedAddressValue)) */\n      or\n        /* \"contracts/ERC721A.sol\":21456:21545  result := or(eq(msgSenderMasked, ownerMasked), eq(msgSenderMasked, approvedAddressValue)) */\n      swap1\n      pop\n        /* \"contracts/ERC721A.sol\":21248:21561  function _isSenderApprovedOrOwner(... */\n      swap4\n      swap3\n      pop\n      pop\n      pop\n      jump\t// out\n        /* \"contracts/ERC721A.sol\":35077:35231  function _beforeTokenTransfers(... */\n    tag_142:\n      pop\n      pop\n      pop\n      pop\n      jump\t// out\n        /* \"contracts/ERC721A.sol\":59020:59324  function _nextExtraData(... */\n    tag_146:\n        /* \"contracts/ERC721A.sol\":59151:59158  uint256 */\n      0x00\n        /* \"contracts/ERC721A.sol\":59170:59186  uint24 extraData */\n      dup1\n        /* \"contracts/ERC721A.sol\":2671:2674  232 */\n      0xe8\n        /* \"contracts/ERC721A.sol\":59196:59215  prevOwnershipPacked */\n      dup4\n        /* \"contracts/ERC721A.sol\":59196:59237  prevOwnershipPacked >> _BITPOS_EXTRA_DATA */\n      swap1\n      shr\n        /* \"contracts/ERC721A.sol\":59170:59238  uint24 extraData = uint24(prevOwnershipPacked >> _BITPOS_EXTRA_DATA) */\n      swap1\n      pop\n        /* \"contracts/ERC721A.sol\":2671:2674  232 */\n      0xe8\n        /* \"contracts/ERC721A.sol\":59263:59294  _extraData(from, to, extraData) */\n      tag_244\n        /* \"contracts/ERC721A.sol\":59274:59278  from */\n      dup7\n        /* \"contracts/ERC721A.sol\":59280:59282  to */\n      dup7\n        /* \"contracts/ERC721A.sol\":59284:59293  extraData */\n      dup5\n        /* \"contracts/ERC721A.sol\":59263:59273  _extraData */\n      tag_245\n        /* \"contracts/ERC721A.sol\":59263:59294  _extraData(from, to, extraData) */\n      jump\t// in\n    tag_244:\n        /* \"contracts/ERC721A.sol\":59255:59295  uint256(_extraData(from, to, extraData)) */\n      0xffffff\n      and\n        /* \"contracts/ERC721A.sol\":59255:59317  uint256(_extraData(from, to, extraData)) << _BITPOS_EXTRA_DATA */\n      swap1\n      shl\n        /* \"contracts/ERC721A.sol\":59248:59317  return uint256(_extraData(from, to, extraData)) << _BITPOS_EXTRA_DATA */\n      swap2\n      pop\n      pop\n        /* \"contracts/ERC721A.sol\":59020:59324  function _nextExtraData(... */\n      swap4\n      swap3\n      pop\n      pop\n      pop\n      jump\t// out\n        /* \"contracts/ERC721A.sol\":17349:17792  function _packOwnershipData(address owner, uint256 flags) private view returns (uint256 result) {... */\n    tag_147:\n        /* \"contracts/ERC721A.sol\":17429:17443  uint256 result */\n      0x00\n        /* \"contracts/ERC721A.sol\":17594:17610  _BITMASK_ADDRESS */\n      0xffffffffffffffffffffffffffffffffffffffff\n        /* \"contracts/ERC721A.sol\":17587:17592  owner */\n      dup4\n        /* \"contracts/ERC721A.sol\":17583:17611  and(owner, _BITMASK_ADDRESS) */\n      and\n        /* \"contracts/ERC721A.sol\":17574:17611  owner := and(owner, _BITMASK_ADDRESS) */\n      swap3\n      pop\n        /* \"contracts/ERC721A.sol\":17769:17774  flags */\n      dup2\n        /* \"contracts/ERC721A.sol\":17755:17766  timestamp() */\n      timestamp\n        /* \"contracts/ERC721A.sol\":17730:17753  _BITPOS_START_TIMESTAMP */\n      0xa0\n        /* \"contracts/ERC721A.sol\":17726:17767  shl(_BITPOS_START_TIMESTAMP, timestamp()) */\n      shl\n        /* \"contracts/ERC721A.sol\":17723:17775  or(shl(_BITPOS_START_TIMESTAMP, timestamp()), flags) */\n      or\n        /* \"contracts/ERC721A.sol\":17716:17721  owner */\n      dup4\n        /* \"contracts/ERC721A.sol\":17713:17776  or(owner, or(shl(_BITPOS_START_TIMESTAMP, timestamp()), flags)) */\n      or\n        /* \"contracts/ERC721A.sol\":17703:17776  result := or(owner, or(shl(_BITPOS_START_TIMESTAMP, timestamp()), flags)) */\n      swap1\n      pop\n        /* \"contracts/ERC721A.sol\":17349:17792  function _packOwnershipData(address owner, uint256 flags) private view returns (uint256 result) {... */\n      swap3\n      swap2\n      pop\n      pop\n      jump\t// out\n        /* \"contracts/ERC721A.sol\":35878:36031  function _afterTokenTransfers(... */\n    tag_154:\n      pop\n      pop\n      pop\n      pop\n      jump\t// out\n        /* \"contracts/ERC721A.sol\":36459:37141  function _checkContractOnERC721Received(... */\n    tag_177:\n        /* \"contracts/ERC721A.sol\":36617:36621  bool */\n      0x00\n        /* \"contracts/ERC721A.sol\":36662:36664  to */\n      dup4\n        /* \"contracts/ERC721A.sol\":36637:36682  ERC721A__IERC721Receiver(to).onERC721Received */\n      0xffffffffffffffffffffffffffffffffffffffff\n      and\n      0x150b7a02\n        /* \"contracts/ERC721A.sol\":36683:36702  _msgSenderERC721A() */\n      tag_249\n        /* \"contracts/ERC721A.sol\":36683:36700  _msgSenderERC721A */\n      tag_134\n        /* \"contracts/ERC721A.sol\":36683:36702  _msgSenderERC721A() */\n      jump\t// in\n    tag_249:\n        /* \"contracts/ERC721A.sol\":36704:36708  from */\n      dup8\n        /* \"contracts/ERC721A.sol\":36710:36717  tokenId */\n      dup7\n        /* \"contracts/ERC721A.sol\":36719:36724  _data */\n      dup7\n        /* \"contracts/ERC721A.sol\":36637:36725  ERC721A__IERC721Receiver(to).onERC721Received(_msgSenderERC721A(), from, tokenId, _data) */\n      mload(0x40)\n      dup6\n      0xffffffff\n      and\n      0xe0\n      shl\n      dup2\n      mstore\n      0x04\n      add\n      tag_250\n      swap5\n      swap4\n      swap3\n      swap2\n      swap1\n      tag_251\n      jump\t// in\n    tag_250:\n      0x20\n      mload(0x40)\n      dup1\n      dup4\n      sub\n      dup2\n      0x00\n      dup8\n      gas\n      call\n      swap3\n      pop\n      pop\n      pop\n      dup1\n      iszero\n      tag_252\n      jumpi\n      pop\n      mload(0x40)\n      returndatasize\n      not(0x1f)\n      0x1f\n      dup3\n      add\n      and\n      dup3\n      add\n      dup1\n      0x40\n      mstore\n      pop\n      dup2\n      add\n      swap1\n      tag_253\n      swap2\n      swap1\n      tag_254\n      jump\t// in\n    tag_253:\n      0x01\n    tag_252:\n        /* \"contracts/ERC721A.sol\":36633:37135  try ERC721A__IERC721Receiver(to).onERC721Received(_msgSenderERC721A(), from, tokenId, _data) returns (... */\n      tag_255\n      jumpi\n      returndatasize\n      dup1\n      0x00\n      dup2\n      eq\n      tag_260\n      jumpi\n      mload(0x40)\n      swap2\n      pop\n      and(add(returndatasize, 0x3f), not(0x1f))\n      dup3\n      add\n      0x40\n      mstore\n      returndatasize\n      dup3\n      mstore\n      returndatasize\n      0x00\n      0x20\n      dup5\n      add\n      returndatacopy\n      jump(tag_259)\n    tag_260:\n      0x60\n      swap2\n      pop\n    tag_259:\n      pop\n        /* \"contracts/ERC721A.sol\":36940:36941  0 */\n      0x00\n        /* \"contracts/ERC721A.sol\":36915:36921  reason */\n      dup2\n        /* \"contracts/ERC721A.sol\":36915:36928  reason.length */\n      mload\n        /* \"contracts/ERC721A.sol\":36915:36942  reason.length == uint256(0) */\n      sub\n        /* \"contracts/ERC721A.sol\":36911:37033  if (reason.length == uint256(0)) {... */\n      tag_261\n      jumpi\n        /* \"contracts/ERC721A.sol\":36962:37018  _revert(TransferToNonERC721ReceiverImplementer.selector) */\n      tag_262\n        /* \"contracts/ERC721A.sol\":36970:37017  TransferToNonERC721ReceiverImplementer.selector */\n      shl(0xe0, 0xd1a57ed6)\n        /* \"contracts/ERC721A.sol\":36962:36969  _revert */\n      tag_115\n        /* \"contracts/ERC721A.sol\":36962:37018  _revert(TransferToNonERC721ReceiverImplementer.selector) */\n      jump\t// in\n    tag_262:\n        /* \"contracts/ERC721A.sol\":36911:37033  if (reason.length == uint256(0)) {... */\n    tag_261:\n        /* \"contracts/ERC721A.sol\":37103:37109  reason */\n      dup1\n        /* \"contracts/ERC721A.sol\":37097:37110  mload(reason) */\n      mload\n        /* \"contracts/ERC721A.sol\":37088:37094  reason */\n      dup2\n        /* \"contracts/ERC721A.sol\":37084:37086  32 */\n      0x20\n        /* \"contracts/ERC721A.sol\":37080:37095  add(32, reason) */\n      add\n        /* \"contracts/ERC721A.sol\":37073:37111  revert(add(32, reason), mload(reason)) */\n      revert\n        /* \"contracts/ERC721A.sol\":36633:37135  try ERC721A__IERC721Receiver(to).onERC721Received(_msgSenderERC721A(), from, tokenId, _data) returns (... */\n    tag_255:\n        /* \"contracts/ERC721A.sol\":36803:36857  ERC721A__IERC721Receiver(to).onERC721Received.selector */\n      shl(0xe0, 0x150b7a02)\n        /* \"contracts/ERC721A.sol\":36793:36857  retval == ERC721A__IERC721Receiver(to).onERC721Received.selector */\n      not(0xffffffffffffffffffffffffffffffffffffffffffffffffffffffff)\n      and\n        /* \"contracts/ERC721A.sol\":36793:36799  retval */\n      dup2\n        /* \"contracts/ERC721A.sol\":36793:36857  retval == ERC721A__IERC721Receiver(to).onERC721Received.selector */\n      not(0xffffffffffffffffffffffffffffffffffffffffffffffffffffffff)\n      and\n      eq\n        /* \"contracts/ERC721A.sol\":36786:36857  return retval == ERC721A__IERC721Receiver(to).onERC721Received.selector */\n      swap2\n      pop\n      pop\n        /* \"contracts/ERC721A.sol\":36459:37141  function _checkContractOnERC721Received(... */\n      swap5\n      swap4\n      pop\n      pop\n      pop\n      pop\n      jump\t// out\n        /* \"contracts/ERC721A.sol\":12512:12604  function _baseURI() internal view virtual returns (string memory) {... */\n    tag_185:\n        /* \"contracts/ERC721A.sol\":12563:12576  string memory */\n      0x60\n        /* \"contracts/ERC721A.sol\":12588:12597  return '' */\n      mload(0x40)\n      dup1\n      0x20\n      add\n      0x40\n      mstore\n      dup1\n      0x00\n      dup2\n      mstore\n      pop\n      swap1\n      pop\n        /* \"contracts/ERC721A.sol\":12512:12604  function _baseURI() internal view virtual returns (string memory) {... */\n      swap1\n      jump\t// out\n        /* \"contracts/ERC721A.sol\":60814:62522  function _toString(uint256 value) internal pure virtual returns (string memory str) {... */\n    tag_189:\n        /* \"contracts/ERC721A.sol\":60879:60896  string memory str */\n      0x60\n        /* \"contracts/ERC721A.sol\":61307:61311  0xa0 */\n      0xa0\n        /* \"contracts/ERC721A.sol\":61300:61304  0x40 */\n      0x40\n        /* \"contracts/ERC721A.sol\":61294:61305  mload(0x40) */\n      mload\n        /* \"contracts/ERC721A.sol\":61290:61312  add(mload(0x40), 0xa0) */\n      add\n        /* \"contracts/ERC721A.sol\":61397:61398  m */\n      dup1\n        /* \"contracts/ERC721A.sol\":61391:61395  0x40 */\n      0x40\n        /* \"contracts/ERC721A.sol\":61384:61399  mstore(0x40, m) */\n      mstore\n        /* \"contracts/ERC721A.sol\":61470:61474  0x20 */\n      0x20\n        /* \"contracts/ERC721A.sol\":61467:61468  m */\n      dup2\n        /* \"contracts/ERC721A.sol\":61463:61475  sub(m, 0x20) */\n      sub\n        /* \"contracts/ERC721A.sol\":61456:61475  str := sub(m, 0x20) */\n      swap2\n      pop\n        /* \"contracts/ERC721A.sol\":61550:61551  0 */\n      0x00\n        /* \"contracts/ERC721A.sol\":61545:61548  str */\n      dup3\n        /* \"contracts/ERC721A.sol\":61538:61552  mstore(str, 0) */\n      mstore\n        /* \"contracts/ERC721A.sol\":61651:61654  str */\n      dup2\n        /* \"contracts/ERC721A.sol\":61885:61890  value */\n      dup4\n        /* \"contracts/ERC721A.sol\":61867:62286  for { let temp := value } 1 {} {... */\n    tag_266:\n        /* \"contracts/ERC721A.sol\":61893:61894  1 */\n      0x01\n        /* \"contracts/ERC721A.sol\":61867:62286  for { let temp := value } 1 {} {... */\n      iszero\n      tag_268\n      jumpi\n        /* \"contracts/ERC721A.sol\":61932:61933  1 */\n      0x01\n        /* \"contracts/ERC721A.sol\":61927:61930  str */\n      dup5\n        /* \"contracts/ERC721A.sol\":61923:61934  sub(str, 1) */\n      sub\n        /* \"contracts/ERC721A.sol\":61916:61934  str := sub(str, 1) */\n      swap4\n      pop\n        /* \"contracts/ERC721A.sol\":62100:62102  10 */\n      0x0a\n        /* \"contracts/ERC721A.sol\":62094:62098  temp */\n      dup2\n        /* \"contracts/ERC721A.sol\":62090:62103  mod(temp, 10) */\n      mod\n        /* \"contracts/ERC721A.sol\":62086:62088  48 */\n      0x30\n        /* \"contracts/ERC721A.sol\":62082:62104  add(48, mod(temp, 10)) */\n      add\n        /* \"contracts/ERC721A.sol\":62077:62080  str */\n      dup5\n        /* \"contracts/ERC721A.sol\":62069:62105  mstore8(str, add(48, mod(temp, 10))) */\n      mstore8\n        /* \"contracts/ERC721A.sol\":62192:62194  10 */\n      0x0a\n        /* \"contracts/ERC721A.sol\":62186:62190  temp */\n      dup2\n        /* \"contracts/ERC721A.sol\":62182:62195  div(temp, 10) */\n      div\n        /* \"contracts/ERC721A.sol\":62174:62195  temp := div(temp, 10) */\n      swap1\n      pop\n        /* \"contracts/ERC721A.sol\":62257:62261  temp */\n      dup1\n        /* \"contracts/ERC721A.sol\":61867:62286  for { let temp := value } 1 {} {... */\n      tag_266\n        /* \"contracts/ERC721A.sol\":62247:62272  if iszero(temp) { break } */\n      jumpi\n        /* \"contracts/ERC721A.sol\":61867:62286  for { let temp := value } 1 {} {... */\n    tag_268:\n        /* \"contracts/ERC721A.sol\":61871:61892  { let temp := value } */\n      pop\n        /* \"contracts/ERC721A.sol\":62323:62326  str */\n      dup3\n        /* \"contracts/ERC721A.sol\":62318:62321  end */\n      dup2\n        /* \"contracts/ERC721A.sol\":62314:62327  sub(end, str) */\n      sub\n        /* \"contracts/ERC721A.sol\":62436:62440  0x20 */\n      0x20\n        /* \"contracts/ERC721A.sol\":62431:62434  str */\n      dup5\n        /* \"contracts/ERC721A.sol\":62427:62441  sub(str, 0x20) */\n      sub\n        /* \"contracts/ERC721A.sol\":62420:62441  str := sub(str, 0x20) */\n      swap4\n      pop\n        /* \"contracts/ERC721A.sol\":62499:62505  length */\n      dup1\n        /* \"contracts/ERC721A.sol\":62494:62497  str */\n      dup5\n        /* \"contracts/ERC721A.sol\":62487:62506  mstore(str, length) */\n      mstore\n        /* \"contracts/ERC721A.sol\":60917:62516  {... */\n      pop\n      pop\n      pop\n        /* \"contracts/ERC721A.sol\":60814:62522  function _toString(uint256 value) internal pure virtual returns (string memory str) {... */\n      swap2\n      swap1\n      pop\n      jump\t// out\n        /* \"contracts/ERC721A.sol\":20815:21144  function _packedOwnershipExists(uint256 packed) private pure returns (bool result) {... */\n    tag_202:\n        /* \"contracts/ERC721A.sol\":20885:20896  bool result */\n      0x00\n        /* \"contracts/ERC721A.sol\":21111:21126  _BITMASK_BURNED */\n      0x0100000000000000000000000000000000000000000000000000000000\n        /* \"contracts/ERC721A.sol\":21103:21109  packed */\n      dup3\n        /* \"contracts/ERC721A.sol\":21099:21127  and(packed, _BITMASK_BURNED) */\n      and\n        /* \"contracts/ERC721A.sol\":21080:21096  _BITMASK_ADDRESS */\n      0xffffffffffffffffffffffffffffffffffffffff\n        /* \"contracts/ERC721A.sol\":21072:21078  packed */\n      dup4\n        /* \"contracts/ERC721A.sol\":21068:21097  and(packed, _BITMASK_ADDRESS) */\n      and\n        /* \"contracts/ERC721A.sol\":21065:21128  gt(and(packed, _BITMASK_ADDRESS), and(packed, _BITMASK_BURNED)) */\n      gt\n        /* \"contracts/ERC721A.sol\":21055:21128  result := gt(and(packed, _BITMASK_ADDRESS), and(packed, _BITMASK_BURNED)) */\n      swap1\n      pop\n        /* \"contracts/ERC721A.sol\":20815:21144  function _packedOwnershipExists(uint256 packed) private pure returns (bool result) {... */\n      swap2\n      swap1\n      pop\n      jump\t// out\n        /* \"contracts/ERC721A.sol\":58731:58874  function _extraData(... */\n    tag_245:\n        /* \"contracts/ERC721A.sol\":58864:58870  uint24 */\n      0x00\n        /* \"contracts/ERC721A.sol\":58731:58874  function _extraData(... */\n      swap4\n      swap3\n      pop\n      pop\n      pop\n      jump\t// out\n        /* \"#utility.yul\":7:82   */\n    tag_272:\n        /* \"#utility.yul\":40:46   */\n      0x00\n        /* \"#utility.yul\":73:75   */\n      0x40\n        /* \"#utility.yul\":67:76   */\n      mload\n        /* \"#utility.yul\":57:76   */\n      swap1\n      pop\n        /* \"#utility.yul\":7:82   */\n      swap1\n      jump\t// out\n        /* \"#utility.yul\":88:205   */\n    tag_273:\n        /* \"#utility.yul\":197:198   */\n      0x00\n        /* \"#utility.yul\":194:195   */\n      dup1\n        /* \"#utility.yul\":187:199   */\n      revert\n        /* \"#utility.yul\":211:328   */\n    tag_274:\n        /* \"#utility.yul\":320:321   */\n      0x00\n        /* \"#utility.yul\":317:318   */\n      dup1\n        /* \"#utility.yul\":310:322   */\n      revert\n        /* \"#utility.yul\":334:483   */\n    tag_275:\n        /* \"#utility.yul\":370:377   */\n      0x00\n        /* \"#utility.yul\":410:476   */\n      0xffffffff00000000000000000000000000000000000000000000000000000000\n        /* \"#utility.yul\":403:408   */\n      dup3\n        /* \"#utility.yul\":399:477   */\n      and\n        /* \"#utility.yul\":388:477   */\n      swap1\n      pop\n        /* \"#utility.yul\":334:483   */\n      swap2\n      swap1\n      pop\n      jump\t// out\n        /* \"#utility.yul\":489:609   */\n    tag_276:\n        /* \"#utility.yul\":561:584   */\n      tag_319\n        /* \"#utility.yul\":578:583   */\n      dup2\n        /* \"#utility.yul\":561:584   */\n      tag_275\n      jump\t// in\n    tag_319:\n        /* \"#utility.yul\":554:559   */\n      dup2\n        /* \"#utility.yul\":551:585   */\n      eq\n        /* \"#utility.yul\":541:603   */\n      tag_320\n      jumpi\n        /* \"#utility.yul\":599:600   */\n      0x00\n        /* \"#utility.yul\":596:597   */\n      dup1\n        /* \"#utility.yul\":589:601   */\n      revert\n        /* \"#utility.yul\":541:603   */\n    tag_320:\n        /* \"#utility.yul\":489:609   */\n      pop\n      jump\t// out\n        /* \"#utility.yul\":615:752   */\n    tag_277:\n        /* \"#utility.yul\":660:665   */\n      0x00\n        /* \"#utility.yul\":698:704   */\n      dup2\n        /* \"#utility.yul\":685:705   */\n      calldataload\n        /* \"#utility.yul\":676:705   */\n      swap1\n      pop\n        /* \"#utility.yul\":714:746   */\n      tag_322\n        /* \"#utility.yul\":740:745   */\n      dup2\n        /* \"#utility.yul\":714:746   */\n      tag_276\n      jump\t// in\n    tag_322:\n        /* \"#utility.yul\":615:752   */\n      swap3\n      swap2\n      pop\n      pop\n      jump\t// out\n        /* \"#utility.yul\":758:1085   */\n    tag_24:\n        /* \"#utility.yul\":816:822   */\n      0x00\n        /* \"#utility.yul\":865:867   */\n      0x20\n        /* \"#utility.yul\":853:862   */\n      dup3\n        /* \"#utility.yul\":844:851   */\n      dup5\n        /* \"#utility.yul\":840:863   */\n      sub\n        /* \"#utility.yul\":836:868   */\n      slt\n        /* \"#utility.yul\":833:952   */\n      iszero\n      tag_324\n      jumpi\n        /* \"#utility.yul\":871:950   */\n      tag_325\n      tag_273\n      jump\t// in\n    tag_325:\n        /* \"#utility.yul\":833:952   */\n    tag_324:\n        /* \"#utility.yul\":991:992   */\n      0x00\n        /* \"#utility.yul\":1016:1068   */\n      tag_326\n        /* \"#utility.yul\":1060:1067   */\n      dup5\n        /* \"#utility.yul\":1051:1057   */\n      dup3\n        /* \"#utility.yul\":1040:1049   */\n      dup6\n        /* \"#utility.yul\":1036:1058   */\n      add\n        /* \"#utility.yul\":1016:1068   */\n      tag_277\n      jump\t// in\n    tag_326:\n        /* \"#utility.yul\":1006:1068   */\n      swap2\n      pop\n        /* \"#utility.yul\":962:1078   */\n      pop\n        /* \"#utility.yul\":758:1085   */\n      swap3\n      swap2\n      pop\n      pop\n      jump\t// out\n        /* \"#utility.yul\":1091:1181   */\n    tag_278:\n        /* \"#utility.yul\":1125:1132   */\n      0x00\n        /* \"#utility.yul\":1168:1173   */\n      dup2\n        /* \"#utility.yul\":1161:1174   */\n      iszero\n        /* \"#utility.yul\":1154:1175   */\n      iszero\n        /* \"#utility.yul\":1143:1175   */\n      swap1\n      pop\n        /* \"#utility.yul\":1091:1181   */\n      swap2\n      swap1\n      pop\n      jump\t// out\n        /* \"#utility.yul\":1187:1296   */\n    tag_279:\n        /* \"#utility.yul\":1268:1289   */\n      tag_329\n        /* \"#utility.yul\":1283:1288   */\n      dup2\n        /* \"#utility.yul\":1268:1289   */\n      tag_278\n      jump\t// in\n    tag_329:\n        /* \"#utility.yul\":1263:1266   */\n      dup3\n        /* \"#utility.yul\":1256:1290   */\n      mstore\n        /* \"#utility.yul\":1187:1296   */\n      pop\n      pop\n      jump\t// out\n        /* \"#utility.yul\":1302:1512   */\n    tag_27:\n        /* \"#utility.yul\":1389:1393   */\n      0x00\n        /* \"#utility.yul\":1427:1429   */\n      0x20\n        /* \"#utility.yul\":1416:1425   */\n      dup3\n        /* \"#utility.yul\":1412:1430   */\n      add\n        /* \"#utility.yul\":1404:1430   */\n      swap1\n      pop\n        /* \"#utility.yul\":1440:1505   */\n      tag_331\n        /* \"#utility.yul\":1502:1503   */\n      0x00\n        /* \"#utility.yul\":1491:1500   */\n      dup4\n        /* \"#utility.yul\":1487:1504   */\n      add\n        /* \"#utility.yul\":1478:1484   */\n      dup5\n        /* \"#utility.yul\":1440:1505   */\n      tag_279\n      jump\t// in\n    tag_331:\n        /* \"#utility.yul\":1302:1512   */\n      swap3\n      swap2\n      pop\n      pop\n      jump\t// out\n        /* \"#utility.yul\":1518:1617   */\n    tag_280:\n        /* \"#utility.yul\":1570:1576   */\n      0x00\n        /* \"#utility.yul\":1604:1609   */\n      dup2\n        /* \"#utility.yul\":1598:1610   */\n      mload\n        /* \"#utility.yul\":1588:1610   */\n      swap1\n      pop\n        /* \"#utility.yul\":1518:1617   */\n      swap2\n      swap1\n      pop\n      jump\t// out\n        /* \"#utility.yul\":1623:1792   */\n    tag_281:\n        /* \"#utility.yul\":1707:1718   */\n      0x00\n        /* \"#utility.yul\":1741:1747   */\n      dup3\n        /* \"#utility.yul\":1736:1739   */\n      dup3\n        /* \"#utility.yul\":1729:1748   */\n      mstore\n        /* \"#utility.yul\":1781:1785   */\n      0x20\n        /* \"#utility.yul\":1776:1779   */\n      dup3\n        /* \"#utility.yul\":1772:1786   */\n      add\n        /* \"#utility.yul\":1757:1786   */\n      swap1\n      pop\n        /* \"#utility.yul\":1623:1792   */\n      swap3\n      swap2\n      pop\n      pop\n      jump\t// out\n        /* \"#utility.yul\":1798:1937   */\n    tag_282:\n        /* \"#utility.yul\":1887:1893   */\n      dup3\n        /* \"#utility.yul\":1882:1885   */\n      dup2\n        /* \"#utility.yul\":1877:1880   */\n      dup4\n        /* \"#utility.yul\":1871:1894   */\n      mcopy\n        /* \"#utility.yul\":1928:1929   */\n      0x00\n        /* \"#utility.yul\":1919:1925   */\n      dup4\n        /* \"#utility.yul\":1914:1917   */\n      dup4\n        /* \"#utility.yul\":1910:1926   */\n      add\n        /* \"#utility.yul\":1903:1930   */\n      mstore\n        /* \"#utility.yul\":1798:1937   */\n      pop\n      pop\n      pop\n      jump\t// out\n        /* \"#utility.yul\":1943:2045   */\n    tag_283:\n        /* \"#utility.yul\":1984:1990   */\n      0x00\n        /* \"#utility.yul\":2035:2037   */\n      0x1f\n        /* \"#utility.yul\":2031:2038   */\n      not\n        /* \"#utility.yul\":2026:2028   */\n      0x1f\n        /* \"#utility.yul\":2019:2024   */\n      dup4\n        /* \"#utility.yul\":2015:2029   */\n      add\n        /* \"#utility.yul\":2011:2039   */\n      and\n        /* \"#utility.yul\":2001:2039   */\n      swap1\n      pop\n        /* \"#utility.yul\":1943:2045   */\n      swap2\n      swap1\n      pop\n      jump\t// out\n        /* \"#utility.yul\":2051:2428   */\n    tag_284:\n        /* \"#utility.yul\":2139:2142   */\n      0x00\n        /* \"#utility.yul\":2167:2206   */\n      tag_337\n        /* \"#utility.yul\":2200:2205   */\n      dup3\n        /* \"#utility.yul\":2167:2206   */\n      tag_280\n      jump\t// in\n    tag_337:\n        /* \"#utility.yul\":2222:2293   */\n      tag_338\n        /* \"#utility.yul\":2286:2292   */\n      dup2\n        /* \"#utility.yul\":2281:2284   */\n      dup6\n        /* \"#utility.yul\":2222:2293   */\n      tag_281\n      jump\t// in\n    tag_338:\n        /* \"#utility.yul\":2215:2293   */\n      swap4\n      pop\n        /* \"#utility.yul\":2302:2367   */\n      tag_339\n        /* \"#utility.yul\":2360:2366   */\n      dup2\n        /* \"#utility.yul\":2355:2358   */\n      dup6\n        /* \"#utility.yul\":2348:2352   */\n      0x20\n        /* \"#utility.yul\":2341:2346   */\n      dup7\n        /* \"#utility.yul\":2337:2353   */\n      add\n        /* \"#utility.yul\":2302:2367   */\n      tag_282\n      jump\t// in\n    tag_339:\n        /* \"#utility.yul\":2392:2421   */\n      tag_340\n        /* \"#utility.yul\":2414:2420   */\n      dup2\n        /* \"#utility.yul\":2392:2421   */\n      tag_283\n      jump\t// in\n    tag_340:\n        /* \"#utility.yul\":2387:2390   */\n      dup5\n        /* \"#utility.yul\":2383:2422   */\n      add\n        /* \"#utility.yul\":2376:2422   */\n      swap2\n      pop\n        /* \"#utility.yul\":2143:2428   */\n      pop\n        /* \"#utility.yul\":2051:2428   */\n      swap3\n      swap2\n      pop\n      pop\n      jump\t// out\n        /* \"#utility.yul\":2434:2747   */\n    tag_32:\n        /* \"#utility.yul\":2547:2551   */\n      0x00\n        /* \"#utility.yul\":2585:2587   */\n      0x20\n        /* \"#utility.yul\":2574:2583   */\n      dup3\n        /* \"#utility.yul\":2570:2588   */\n      add\n        /* \"#utility.yul\":2562:2588   */\n      swap1\n      pop\n        /* \"#utility.yul\":2634:2643   */\n      dup2\n        /* \"#utility.yul\":2628:2632   */\n      dup2\n        /* \"#utility.yul\":2624:2644   */\n      sub\n        /* \"#utility.yul\":2620:2621   */\n      0x00\n        /* \"#utility.yul\":2609:2618   */\n      dup4\n        /* \"#utility.yul\":2605:2622   */\n      add\n        /* \"#utility.yul\":2598:2645   */\n      mstore\n        /* \"#utility.yul\":2662:2740   */\n      tag_342\n        /* \"#utility.yul\":2735:2739   */\n      dup2\n        /* \"#utility.yul\":2726:2732   */\n      dup5\n        /* \"#utility.yul\":2662:2740   */\n      tag_284\n      jump\t// in\n    tag_342:\n        /* \"#utility.yul\":2654:2740   */\n      swap1\n      pop\n        /* \"#utility.yul\":2434:2747   */\n      swap3\n      swap2\n      pop\n      pop\n      jump\t// out\n        /* \"#utility.yul\":2753:2830   */\n    tag_285:\n        /* \"#utility.yul\":2790:2797   */\n      0x00\n        /* \"#utility.yul\":2819:2824   */\n      dup2\n        /* \"#utility.yul\":2808:2824   */\n      swap1\n      pop\n        /* \"#utility.yul\":2753:2830   */\n      swap2\n      swap1\n      pop\n      jump\t// out\n        /* \"#utility.yul\":2836:2958   */\n    tag_286:\n        /* \"#utility.yul\":2909:2933   */\n      tag_345\n        /* \"#utility.yul\":2927:2932   */\n      dup2\n        /* \"#utility.yul\":2909:2933   */\n      tag_285\n      jump\t// in\n    tag_345:\n        /* \"#utility.yul\":2902:2907   */\n      dup2\n        /* \"#utility.yul\":2899:2934   */\n      eq\n        /* \"#utility.yul\":2889:2952   */\n      tag_346\n      jumpi\n        /* \"#utility.yul\":2948:2949   */\n      0x00\n        /* \"#utility.yul\":2945:2946   */\n      dup1\n        /* \"#utility.yul\":2938:2950   */\n      revert\n        /* \"#utility.yul\":2889:2952   */\n    tag_346:\n        /* \"#utility.yul\":2836:2958   */\n      pop\n      jump\t// out\n        /* \"#utility.yul\":2964:3103   */\n    tag_287:\n        /* \"#utility.yul\":3010:3015   */\n      0x00\n        /* \"#utility.yul\":3048:3054   */\n      dup2\n        /* \"#utility.yul\":3035:3055   */\n      calldataload\n        /* \"#utility.yul\":3026:3055   */\n      swap1\n      pop\n        /* \"#utility.yul\":3064:3097   */\n      tag_348\n        /* \"#utility.yul\":3091:3096   */\n      dup2\n        /* \"#utility.yul\":3064:3097   */\n      tag_286\n      jump\t// in\n    tag_348:\n        /* \"#utility.yul\":2964:3103   */\n      swap3\n      swap2\n      pop\n      pop\n      jump\t// out\n        /* \"#utility.yul\":3109:3438   */\n    tag_36:\n        /* \"#utility.yul\":3168:3174   */\n      0x00\n        /* \"#utility.yul\":3217:3219   */\n      0x20\n        /* \"#utility.yul\":3205:3214   */\n      dup3\n        /* \"#utility.yul\":3196:3203   */\n      dup5\n        /* \"#utility.yul\":3192:3215   */\n      sub\n        /* \"#utility.yul\":3188:3220   */\n      slt\n        /* \"#utility.yul\":3185:3304   */\n      iszero\n      tag_350\n      jumpi\n        /* \"#utility.yul\":3223:3302   */\n      tag_351\n      tag_273\n      jump\t// in\n    tag_351:\n        /* \"#utility.yul\":3185:3304   */\n    tag_350:\n        /* \"#utility.yul\":3343:3344   */\n      0x00\n        /* \"#utility.yul\":3368:3421   */\n      tag_352\n        /* \"#utility.yul\":3413:3420   */\n      dup5\n        /* \"#utility.yul\":3404:3410   */\n      dup3\n        /* \"#utility.yul\":3393:3402   */\n      dup6\n        /* \"#utility.yul\":3389:3411   */\n      add\n        /* \"#utility.yul\":3368:3421   */\n      tag_287\n      jump\t// in\n    tag_352:\n        /* \"#utility.yul\":3358:3421   */\n      swap2\n      pop\n        /* \"#utility.yul\":3314:3431   */\n      pop\n        /* \"#utility.yul\":3109:3438   */\n      swap3\n      swap2\n      pop\n      pop\n      jump\t// out\n        /* \"#utility.yul\":3444:3570   */\n    tag_288:\n        /* \"#utility.yul\":3481:3488   */\n      0x00\n        /* \"#utility.yul\":3521:3563   */\n      0xffffffffffffffffffffffffffffffffffffffff\n        /* \"#utility.yul\":3514:3519   */\n      dup3\n        /* \"#utility.yul\":3510:3564   */\n      and\n        /* \"#utility.yul\":3499:3564   */\n      swap1\n      pop\n        /* \"#utility.yul\":3444:3570   */\n      swap2\n      swap1\n      pop\n      jump\t// out\n        /* \"#utility.yul\":3576:3672   */\n    tag_289:\n        /* \"#utility.yul\":3613:3620   */\n      0x00\n        /* \"#utility.yul\":3642:3666   */\n      tag_355\n        /* \"#utility.yul\":3660:3665   */\n      dup3\n        /* \"#utility.yul\":3642:3666   */\n      tag_288\n      jump\t// in\n    tag_355:\n        /* \"#utility.yul\":3631:3666   */\n      swap1\n      pop\n        /* \"#utility.yul\":3576:3672   */\n      swap2\n      swap1\n      pop\n      jump\t// out\n        /* \"#utility.yul\":3678:3796   */\n    tag_290:\n        /* \"#utility.yul\":3765:3789   */\n      tag_357\n        /* \"#utility.yul\":3783:3788   */\n      dup2\n        /* \"#utility.yul\":3765:3789   */\n      tag_289\n      jump\t// in\n    tag_357:\n        /* \"#utility.yul\":3760:3763   */\n      dup3\n        /* \"#utility.yul\":3753:3790   */\n      mstore\n        /* \"#utility.yul\":3678:3796   */\n      pop\n      pop\n      jump\t// out\n        /* \"#utility.yul\":3802:4024   */\n    tag_39:\n        /* \"#utility.yul\":3895:3899   */\n      0x00\n        /* \"#utility.yul\":3933:3935   */\n      0x20\n        /* \"#utility.yul\":3922:3931   */\n      dup3\n        /* \"#utility.yul\":3918:3936   */\n      add\n        /* \"#utility.yul\":3910:3936   */\n      swap1\n      pop\n        /* \"#utility.yul\":3946:4017   */\n      tag_359\n        /* \"#utility.yul\":4014:4015   */\n      0x00\n        /* \"#utility.yul\":4003:4012   */\n      dup4\n        /* \"#utility.yul\":3999:4016   */\n      add\n        /* \"#utility.yul\":3990:3996   */\n      dup5\n        /* \"#utility.yul\":3946:4017   */\n      tag_290\n      jump\t// in\n    tag_359:\n        /* \"#utility.yul\":3802:4024   */\n      swap3\n      swap2\n      pop\n      pop\n      jump\t// out\n        /* \"#utility.yul\":4030:4152   */\n    tag_291:\n        /* \"#utility.yul\":4103:4127   */\n      tag_361\n        /* \"#utility.yul\":4121:4126   */\n      dup2\n        /* \"#utility.yul\":4103:4127   */\n      tag_289\n      jump\t// in\n    tag_361:\n        /* \"#utility.yul\":4096:4101   */\n      dup2\n        /* \"#utility.yul\":4093:4128   */\n      eq\n        /* \"#utility.yul\":4083:4146   */\n      tag_362\n      jumpi\n        /* \"#utility.yul\":4142:4143   */\n      0x00\n        /* \"#utility.yul\":4139:4140   */\n      dup1\n        /* \"#utility.yul\":4132:4144   */\n      revert\n        /* \"#utility.yul\":4083:4146   */\n    tag_362:\n        /* \"#utility.yul\":4030:4152   */\n      pop\n      jump\t// out\n        /* \"#utility.yul\":4158:4297   */\n    tag_292:\n        /* \"#utility.yul\":4204:4209   */\n      0x00\n        /* \"#utility.yul\":4242:4248   */\n      dup2\n        /* \"#utility.yul\":4229:4249   */\n      calldataload\n        /* \"#utility.yul\":4220:4249   */\n      swap1\n      pop\n        /* \"#utility.yul\":4258:4291   */\n      tag_364\n        /* \"#utility.yul\":4285:4290   */\n      dup2\n        /* \"#utility.yul\":4258:4291   */\n      tag_291\n      jump\t// in\n    tag_364:\n        /* \"#utility.yul\":4158:4297   */\n      swap3\n      swap2\n      pop\n      pop\n      jump\t// out\n        /* \"#utility.yul\":4303:4777   */\n    tag_42:\n        /* \"#utility.yul\":4371:4377   */\n      0x00\n        /* \"#utility.yul\":4379:4385   */\n      dup1\n        /* \"#utility.yul\":4428:4430   */\n      0x40\n        /* \"#utility.yul\":4416:4425   */\n      dup4\n        /* \"#utility.yul\":4407:4414   */\n      dup6\n        /* \"#utility.yul\":4403:4426   */\n      sub\n        /* \"#utility.yul\":4399:4431   */\n      slt\n        /* \"#utility.yul\":4396:4515   */\n      iszero\n      tag_366\n      jumpi\n        /* \"#utility.yul\":4434:4513   */\n      tag_367\n      tag_273\n      jump\t// in\n    tag_367:\n        /* \"#utility.yul\":4396:4515   */\n    tag_366:\n        /* \"#utility.yul\":4554:4555   */\n      0x00\n        /* \"#utility.yul\":4579:4632   */\n      tag_368\n        /* \"#utility.yul\":4624:4631   */\n      dup6\n        /* \"#utility.yul\":4615:4621   */\n      dup3\n        /* \"#utility.yul\":4604:4613   */\n      dup7\n        /* \"#utility.yul\":4600:4622   */\n      add\n        /* \"#utility.yul\":4579:4632   */\n      tag_292\n      jump\t// in\n    tag_368:\n        /* \"#utility.yul\":4569:4632   */\n      swap3\n      pop\n        /* \"#utility.yul\":4525:4642   */\n      pop\n        /* \"#utility.yul\":4681:4683   */\n      0x20\n        /* \"#utility.yul\":4707:4760   */\n      tag_369\n        /* \"#utility.yul\":4752:4759   */\n      dup6\n        /* \"#utility.yul\":4743:4749   */\n      dup3\n        /* \"#utility.yul\":4732:4741   */\n      dup7\n        /* \"#utility.yul\":4728:4750   */\n      add\n        /* \"#utility.yul\":4707:4760   */\n      tag_287\n      jump\t// in\n    tag_369:\n        /* \"#utility.yul\":4697:4760   */\n      swap2\n      pop\n        /* \"#utility.yul\":4652:4770   */\n      pop\n        /* \"#utility.yul\":4303:4777   */\n      swap3\n      pop\n      swap3\n      swap1\n      pop\n      jump\t// out\n        /* \"#utility.yul\":4783:4901   */\n    tag_293:\n        /* \"#utility.yul\":4870:4894   */\n      tag_371\n        /* \"#utility.yul\":4888:4893   */\n      dup2\n        /* \"#utility.yul\":4870:4894   */\n      tag_285\n      jump\t// in\n    tag_371:\n        /* \"#utility.yul\":4865:4868   */\n      dup3\n        /* \"#utility.yul\":4858:4895   */\n      mstore\n        /* \"#utility.yul\":4783:4901   */\n      pop\n      pop\n      jump\t// out\n        /* \"#utility.yul\":4907:5129   */\n    tag_48:\n        /* \"#utility.yul\":5000:5004   */\n      0x00\n        /* \"#utility.yul\":5038:5040   */\n      0x20\n        /* \"#utility.yul\":5027:5036   */\n      dup3\n        /* \"#utility.yul\":5023:5041   */\n      add\n        /* \"#utility.yul\":5015:5041   */\n      swap1\n      pop\n        /* \"#utility.yul\":5051:5122   */\n      tag_373\n        /* \"#utility.yul\":5119:5120   */\n      0x00\n        /* \"#utility.yul\":5108:5117   */\n      dup4\n        /* \"#utility.yul\":5104:5121   */\n      add\n        /* \"#utility.yul\":5095:5101   */\n      dup5\n        /* \"#utility.yul\":5051:5122   */\n      tag_293\n      jump\t// in\n    tag_373:\n        /* \"#utility.yul\":4907:5129   */\n      swap3\n      swap2\n      pop\n      pop\n      jump\t// out\n        /* \"#utility.yul\":5135:5754   */\n    tag_51:\n        /* \"#utility.yul\":5212:5218   */\n      0x00\n        /* \"#utility.yul\":5220:5226   */\n      dup1\n        /* \"#utility.yul\":5228:5234   */\n      0x00\n        /* \"#utility.yul\":5277:5279   */\n      0x60\n        /* \"#utility.yul\":5265:5274   */\n      dup5\n        /* \"#utility.yul\":5256:5263   */\n      dup7\n        /* \"#utility.yul\":5252:5275   */\n      sub\n        /* \"#utility.yul\":5248:5280   */\n      slt\n        /* \"#utility.yul\":5245:5364   */\n      iszero\n      tag_375\n      jumpi\n        /* \"#utility.yul\":5283:5362   */\n      tag_376\n      tag_273\n      jump\t// in\n    tag_376:\n        /* \"#utility.yul\":5245:5364   */\n    tag_375:\n        /* \"#utility.yul\":5403:5404   */\n      0x00\n        /* \"#utility.yul\":5428:5481   */\n      tag_377\n        /* \"#utility.yul\":5473:5480   */\n      dup7\n        /* \"#utility.yul\":5464:5470   */\n      dup3\n        /* \"#utility.yul\":5453:5462   */\n      dup8\n        /* \"#utility.yul\":5449:5471   */\n      add\n        /* \"#utility.yul\":5428:5481   */\n      tag_292\n      jump\t// in\n    tag_377:\n        /* \"#utility.yul\":5418:5481   */\n      swap4\n      pop\n        /* \"#utility.yul\":5374:5491   */\n      pop\n        /* \"#utility.yul\":5530:5532   */\n      0x20\n        /* \"#utility.yul\":5556:5609   */\n      tag_378\n        /* \"#utility.yul\":5601:5608   */\n      dup7\n        /* \"#utility.yul\":5592:5598   */\n      dup3\n        /* \"#utility.yul\":5581:5590   */\n      dup8\n        /* \"#utility.yul\":5577:5599   */\n      add\n        /* \"#utility.yul\":5556:5609   */\n      tag_292\n      jump\t// in\n    tag_378:\n        /* \"#utility.yul\":5546:5609   */\n      swap3\n      pop\n        /* \"#utility.yul\":5501:5619   */\n      pop\n        /* \"#utility.yul\":5658:5660   */\n      0x40\n        /* \"#utility.yul\":5684:5737   */\n      tag_379\n        /* \"#utility.yul\":5729:5736   */\n      dup7\n        /* \"#utility.yul\":5720:5726   */\n      dup3\n        /* \"#utility.yul\":5709:5718   */\n      dup8\n        /* \"#utility.yul\":5705:5727   */\n      add\n        /* \"#utility.yul\":5684:5737   */\n      tag_287\n      jump\t// in\n    tag_379:\n        /* \"#utility.yul\":5674:5737   */\n      swap2\n      pop\n        /* \"#utility.yul\":5629:5747   */\n      pop\n        /* \"#utility.yul\":5135:5754   */\n      swap3\n      pop\n      swap3\n      pop\n      swap3\n      jump\t// out\n        /* \"#utility.yul\":5760:6089   */\n    tag_64:\n        /* \"#utility.yul\":5819:5825   */\n      0x00\n        /* \"#utility.yul\":5868:5870   */\n      0x20\n        /* \"#utility.yul\":5856:5865   */\n      dup3\n        /* \"#utility.yul\":5847:5854   */\n      dup5\n        /* \"#utility.yul\":5843:5866   */\n      sub\n        /* \"#utility.yul\":5839:5871   */\n      slt\n        /* \"#utility.yul\":5836:5955   */\n      iszero\n      tag_381\n      jumpi\n        /* \"#utility.yul\":5874:5953   */\n      tag_382\n      tag_273\n      jump\t// in\n    tag_382:\n        /* \"#utility.yul\":5836:5955   */\n    tag_381:\n        /* \"#utility.yul\":5994:5995   */\n      0x00\n        /* \"#utility.yul\":6019:6072   */\n      tag_383\n        /* \"#utility.yul\":6064:6071   */\n      dup5\n        /* \"#utility.yul\":6055:6061   */\n      dup3\n        /* \"#utility.yul\":6044:6053   */\n      dup6\n        /* \"#utility.yul\":6040:6062   */\n      add\n        /* \"#utility.yul\":6019:6072   */\n      tag_292\n      jump\t// in\n    tag_383:\n        /* \"#utility.yul\":6009:6072   */\n      swap2\n      pop\n        /* \"#utility.yul\":5965:6082   */\n      pop\n        /* \"#utility.yul\":5760:6089   */\n      swap3\n      swap2\n      pop\n      pop\n      jump\t// out\n        /* \"#utility.yul\":6095:6211   */\n    tag_294:\n        /* \"#utility.yul\":6165:6186   */\n      tag_385\n        /* \"#utility.yul\":6180:6185   */\n      dup2\n        /* \"#utility.yul\":6165:6186   */\n      tag_278\n      jump\t// in\n    tag_385:\n        /* \"#utility.yul\":6158:6163   */\n      dup2\n        /* \"#utility.yul\":6155:6187   */\n      eq\n        /* \"#utility.yul\":6145:6205   */\n      tag_386\n      jumpi\n        /* \"#utility.yul\":6201:6202   */\n      0x00\n        /* \"#utility.yul\":6198:6199   */\n      dup1\n        /* \"#utility.yul\":6191:6203   */\n      revert\n        /* \"#utility.yul\":6145:6205   */\n    tag_386:\n        /* \"#utility.yul\":6095:6211   */\n      pop\n      jump\t// out\n        /* \"#utility.yul\":6217:6350   */\n    tag_295:\n        /* \"#utility.yul\":6260:6265   */\n      0x00\n        /* \"#utility.yul\":6298:6304   */\n      dup2\n        /* \"#utility.yul\":6285:6305   */\n      calldataload\n        /* \"#utility.yul\":6276:6305   */\n      swap1\n      pop\n        /* \"#utility.yul\":6314:6344   */\n      tag_388\n        /* \"#utility.yul\":6338:6343   */\n      dup2\n        /* \"#utility.yul\":6314:6344   */\n      tag_294\n      jump\t// in\n    tag_388:\n        /* \"#utility.yul\":6217:6350   */\n      swap3\n      swap2\n      pop\n      pop\n      jump\t// out\n        /* \"#utility.yul\":6356:6824   */\n    tag_74:\n        /* \"#utility.yul\":6421:6427   */\n      0x00\n        /* \"#utility.yul\":6429:6435   */\n      dup1\n        /* \"#utility.yul\":6478:6480   */\n      0x40\n        /* \"#utility.yul\":6466:6475   */\n      dup4\n        /* \"#utility.yul\":6457:6464   */\n      dup6\n        /* \"#utility.yul\":6453:6476   */\n      sub\n        /* \"#utility.yul\":6449:6481   */\n      slt\n        /* \"#utility.yul\":6446:6565   */\n      iszero\n      tag_390\n      jumpi\n        /* \"#utility.yul\":6484:6563   */\n      tag_391\n      tag_273\n      jump\t// in\n    tag_391:\n        /* \"#utility.yul\":6446:6565   */\n    tag_390:\n        /* \"#utility.yul\":6604:6605   */\n      0x00\n        /* \"#utility.yul\":6629:6682   */\n      tag_392\n        /* \"#utility.yul\":6674:6681   */\n      dup6\n        /* \"#utility.yul\":6665:6671   */\n      dup3\n        /* \"#utility.yul\":6654:6663   */\n      dup7\n        /* \"#utility.yul\":6650:6672   */\n      add\n        /* \"#utility.yul\":6629:6682   */\n      tag_292\n      jump\t// in\n    tag_392:\n        /* \"#utility.yul\":6619:6682   */\n      swap3\n      pop\n        /* \"#utility.yul\":6575:6692   */\n      pop\n        /* \"#utility.yul\":6731:6733   */\n      0x20\n        /* \"#utility.yul\":6757:6807   */\n      tag_393\n        /* \"#utility.yul\":6799:6806   */\n      dup6\n        /* \"#utility.yul\":6790:6796   */\n      dup3\n        /* \"#utility.yul\":6779:6788   */\n      dup7\n        /* \"#utility.yul\":6775:6797   */\n      add\n        /* \"#utility.yul\":6757:6807   */\n      tag_295\n      jump\t// in\n    tag_393:\n        /* \"#utility.yul\":6747:6807   */\n      swap2\n      pop\n        /* \"#utility.yul\":6702:6817   */\n      pop\n        /* \"#utility.yul\":6356:6824   */\n      swap3\n      pop\n      swap3\n      swap1\n      pop\n      jump\t// out\n        /* \"#utility.yul\":6830:6947   */\n    tag_296:\n        /* \"#utility.yul\":6939:6940   */\n      0x00\n        /* \"#utility.yul\":6936:6937   */\n      dup1\n        /* \"#utility.yul\":6929:6941   */\n      revert\n        /* \"#utility.yul\":6953:7070   */\n    tag_297:\n        /* \"#utility.yul\":7062:7063   */\n      0x00\n        /* \"#utility.yul\":7059:7060   */\n      dup1\n        /* \"#utility.yul\":7052:7064   */\n      revert\n        /* \"#utility.yul\":7076:7256   */\n    tag_298:\n        /* \"#utility.yul\":7124:7201   */\n      0x4e487b7100000000000000000000000000000000000000000000000000000000\n        /* \"#utility.yul\":7121:7122   */\n      0x00\n        /* \"#utility.yul\":7114:7202   */\n      mstore\n        /* \"#utility.yul\":7221:7225   */\n      0x41\n        /* \"#utility.yul\":7218:7219   */\n      0x04\n        /* \"#utility.yul\":7211:7226   */\n      mstore\n        /* \"#utility.yul\":7245:7249   */\n      0x24\n        /* \"#utility.yul\":7242:7243   */\n      0x00\n        /* \"#utility.yul\":7235:7250   */\n      revert\n        /* \"#utility.yul\":7262:7543   */\n    tag_299:\n        /* \"#utility.yul\":7345:7372   */\n      tag_398\n        /* \"#utility.yul\":7367:7371   */\n      dup3\n        /* \"#utility.yul\":7345:7372   */\n      tag_283\n      jump\t// in\n    tag_398:\n        /* \"#utility.yul\":7337:7343   */\n      dup2\n        /* \"#utility.yul\":7333:7373   */\n      add\n        /* \"#utility.yul\":7475:7481   */\n      dup2\n        /* \"#utility.yul\":7463:7473   */\n      dup2\n        /* \"#utility.yul\":7460:7482   */\n      lt\n        /* \"#utility.yul\":7439:7457   */\n      0xffffffffffffffff\n        /* \"#utility.yul\":7427:7437   */\n      dup3\n        /* \"#utility.yul\":7424:7458   */\n      gt\n        /* \"#utility.yul\":7421:7483   */\n      or\n        /* \"#utility.yul\":7418:7506   */\n      iszero\n      tag_399\n      jumpi\n        /* \"#utility.yul\":7486:7504   */\n      tag_400\n      tag_298\n      jump\t// in\n    tag_400:\n        /* \"#utility.yul\":7418:7506   */\n    tag_399:\n        /* \"#utility.yul\":7526:7536   */\n      dup1\n        /* \"#utility.yul\":7522:7524   */\n      0x40\n        /* \"#utility.yul\":7515:7537   */\n      mstore\n        /* \"#utility.yul\":7305:7543   */\n      pop\n        /* \"#utility.yul\":7262:7543   */\n      pop\n      pop\n      jump\t// out\n        /* \"#utility.yul\":7549:7678   */\n    tag_300:\n        /* \"#utility.yul\":7583:7589   */\n      0x00\n        /* \"#utility.yul\":7610:7630   */\n      tag_402\n      tag_272\n      jump\t// in\n    tag_402:\n        /* \"#utility.yul\":7600:7630   */\n      swap1\n      pop\n        /* \"#utility.yul\":7639:7672   */\n      tag_403\n        /* \"#utility.yul\":7667:7671   */\n      dup3\n        /* \"#utility.yul\":7659:7665   */\n      dup3\n        /* \"#utility.yul\":7639:7672   */\n      tag_299\n      jump\t// in\n    tag_403:\n        /* \"#utility.yul\":7549:7678   */\n      swap2\n      swap1\n      pop\n      jump\t// out\n        /* \"#utility.yul\":7684:7991   */\n    tag_301:\n        /* \"#utility.yul\":7745:7749   */\n      0x00\n        /* \"#utility.yul\":7835:7853   */\n      0xffffffffffffffff\n        /* \"#utility.yul\":7827:7833   */\n      dup3\n        /* \"#utility.yul\":7824:7854   */\n      gt\n        /* \"#utility.yul\":7821:7877   */\n      iszero\n      tag_405\n      jumpi\n        /* \"#utility.yul\":7857:7875   */\n      tag_406\n      tag_298\n      jump\t// in\n    tag_406:\n        /* \"#utility.yul\":7821:7877   */\n    tag_405:\n        /* \"#utility.yul\":7895:7924   */\n      tag_407\n        /* \"#utility.yul\":7917:7923   */\n      dup3\n        /* \"#utility.yul\":7895:7924   */\n      tag_283\n      jump\t// in\n    tag_407:\n        /* \"#utility.yul\":7887:7924   */\n      swap1\n      pop\n        /* \"#utility.yul\":7979:7983   */\n      0x20\n        /* \"#utility.yul\":7973:7977   */\n      dup2\n        /* \"#utility.yul\":7969:7984   */\n      add\n        /* \"#utility.yul\":7961:7984   */\n      swap1\n      pop\n        /* \"#utility.yul\":7684:7991   */\n      swap2\n      swap1\n      pop\n      jump\t// out\n        /* \"#utility.yul\":7997:8145   */\n    tag_302:\n        /* \"#utility.yul\":8095:8101   */\n      dup3\n        /* \"#utility.yul\":8090:8093   */\n      dup2\n        /* \"#utility.yul\":8085:8088   */\n      dup4\n        /* \"#utility.yul\":8072:8102   */\n      calldatacopy\n        /* \"#utility.yul\":8136:8137   */\n      0x00\n        /* \"#utility.yul\":8127:8133   */\n      dup4\n        /* \"#utility.yul\":8122:8125   */\n      dup4\n        /* \"#utility.yul\":8118:8134   */\n      add\n        /* \"#utility.yul\":8111:8138   */\n      mstore\n        /* \"#utility.yul\":7997:8145   */\n      pop\n      pop\n      pop\n      jump\t// out\n        /* \"#utility.yul\":8151:8574   */\n    tag_303:\n        /* \"#utility.yul\":8228:8233   */\n      0x00\n        /* \"#utility.yul\":8253:8318   */\n      tag_410\n        /* \"#utility.yul\":8269:8317   */\n      tag_411\n        /* \"#utility.yul\":8310:8316   */\n      dup5\n        /* \"#utility.yul\":8269:8317   */\n      tag_301\n      jump\t// in\n    tag_411:\n        /* \"#utility.yul\":8253:8318   */\n      tag_300\n      jump\t// in\n    tag_410:\n        /* \"#utility.yul\":8244:8318   */\n      swap1\n      pop\n        /* \"#utility.yul\":8341:8347   */\n      dup3\n        /* \"#utility.yul\":8334:8339   */\n      dup2\n        /* \"#utility.yul\":8327:8348   */\n      mstore\n        /* \"#utility.yul\":8379:8383   */\n      0x20\n        /* \"#utility.yul\":8372:8377   */\n      dup2\n        /* \"#utility.yul\":8368:8384   */\n      add\n        /* \"#utility.yul\":8417:8420   */\n      dup5\n        /* \"#utility.yul\":8408:8414   */\n      dup5\n        /* \"#utility.yul\":8403:8406   */\n      dup5\n        /* \"#utility.yul\":8399:8415   */\n      add\n        /* \"#utility.yul\":8396:8421   */\n      gt\n        /* \"#utility.yul\":8393:8505   */\n      iszero\n      tag_412\n      jumpi\n        /* \"#utility.yul\":8424:8503   */\n      tag_413\n      tag_297\n      jump\t// in\n    tag_413:\n        /* \"#utility.yul\":8393:8505   */\n    tag_412:\n        /* \"#utility.yul\":8514:8568   */\n      tag_414\n        /* \"#utility.yul\":8561:8567   */\n      dup5\n        /* \"#utility.yul\":8556:8559   */\n      dup3\n        /* \"#utility.yul\":8551:8554   */\n      dup6\n        /* \"#utility.yul\":8514:8568   */\n      tag_302\n      jump\t// in\n    tag_414:\n        /* \"#utility.yul\":8234:8574   */\n      pop\n        /* \"#utility.yul\":8151:8574   */\n      swap4\n      swap3\n      pop\n      pop\n      pop\n      jump\t// out\n        /* \"#utility.yul\":8593:8931   */\n    tag_304:\n        /* \"#utility.yul\":8648:8653   */\n      0x00\n        /* \"#utility.yul\":8697:8700   */\n      dup3\n        /* \"#utility.yul\":8690:8694   */\n      0x1f\n        /* \"#utility.yul\":8682:8688   */\n      dup4\n        /* \"#utility.yul\":8678:8695   */\n      add\n        /* \"#utility.yul\":8674:8701   */\n      slt\n        /* \"#utility.yul\":8664:8786   */\n      tag_416\n      jumpi\n        /* \"#utility.yul\":8705:8784   */\n      tag_417\n      tag_296\n      jump\t// in\n    tag_417:\n        /* \"#utility.yul\":8664:8786   */\n    tag_416:\n        /* \"#utility.yul\":8822:8828   */\n      dup2\n        /* \"#utility.yul\":8809:8829   */\n      calldataload\n        /* \"#utility.yul\":8847:8925   */\n      tag_418\n        /* \"#utility.yul\":8921:8924   */\n      dup5\n        /* \"#utility.yul\":8913:8919   */\n      dup3\n        /* \"#utility.yul\":8906:8910   */\n      0x20\n        /* \"#utility.yul\":8898:8904   */\n      dup7\n        /* \"#utility.yul\":8894:8911   */\n      add\n        /* \"#utility.yul\":8847:8925   */\n      tag_303\n      jump\t// in\n    tag_418:\n        /* \"#utility.yul\":8838:8925   */\n      swap2\n      pop\n        /* \"#utility.yul\":8654:8931   */\n      pop\n        /* \"#utility.yul\":8593:8931   */\n      swap3\n      swap2\n      pop\n      pop\n      jump\t// out\n        /* \"#utility.yul\":8937:9880   */\n    tag_82:\n        /* \"#utility.yul\":9032:9038   */\n      0x00\n        /* \"#utility.yul\":9040:9046   */\n      dup1\n        /* \"#utility.yul\":9048:9054   */\n      0x00\n        /* \"#utility.yul\":9056:9062   */\n      dup1\n        /* \"#utility.yul\":9105:9108   */\n      0x80\n        /* \"#utility.yul\":9093:9102   */\n      dup6\n        /* \"#utility.yul\":9084:9091   */\n      dup8\n        /* \"#utility.yul\":9080:9103   */\n      sub\n        /* \"#utility.yul\":9076:9109   */\n      slt\n        /* \"#utility.yul\":9073:9193   */\n      iszero\n      tag_420\n      jumpi\n        /* \"#utility.yul\":9112:9191   */\n      tag_421\n      tag_273\n      jump\t// in\n    tag_421:\n        /* \"#utility.yul\":9073:9193   */\n    tag_420:\n        /* \"#utility.yul\":9232:9233   */\n      0x00\n        /* \"#utility.yul\":9257:9310   */\n      tag_422\n        /* \"#utility.yul\":9302:9309   */\n      dup8\n        /* \"#utility.yul\":9293:9299   */\n      dup3\n        /* \"#utility.yul\":9282:9291   */\n      dup9\n        /* \"#utility.yul\":9278:9300   */\n      add\n        /* \"#utility.yul\":9257:9310   */\n      tag_292\n      jump\t// in\n    tag_422:\n        /* \"#utility.yul\":9247:9310   */\n      swap5\n      pop\n        /* \"#utility.yul\":9203:9320   */\n      pop\n        /* \"#utility.yul\":9359:9361   */\n      0x20\n        /* \"#utility.yul\":9385:9438   */\n      tag_423\n        /* \"#utility.yul\":9430:9437   */\n      dup8\n        /* \"#utility.yul\":9421:9427   */\n      dup3\n        /* \"#utility.yul\":9410:9419   */\n      dup9\n        /* \"#utility.yul\":9406:9428   */\n      add\n        /* \"#utility.yul\":9385:9438   */\n      tag_292\n      jump\t// in\n    tag_423:\n        /* \"#utility.yul\":9375:9438   */\n      swap4\n      pop\n        /* \"#utility.yul\":9330:9448   */\n      pop\n        /* \"#utility.yul\":9487:9489   */\n      0x40\n        /* \"#utility.yul\":9513:9566   */\n      tag_424\n        /* \"#utility.yul\":9558:9565   */\n      dup8\n        /* \"#utility.yul\":9549:9555   */\n      dup3\n        /* \"#utility.yul\":9538:9547   */\n      dup9\n        /* \"#utility.yul\":9534:9556   */\n      add\n        /* \"#utility.yul\":9513:9566   */\n      tag_287\n      jump\t// in\n    tag_424:\n        /* \"#utility.yul\":9503:9566   */\n      swap3\n      pop\n        /* \"#utility.yul\":9458:9576   */\n      pop\n        /* \"#utility.yul\":9643:9645   */\n      0x60\n        /* \"#utility.yul\":9632:9641   */\n      dup6\n        /* \"#utility.yul\":9628:9646   */\n      add\n        /* \"#utility.yul\":9615:9647   */\n      calldataload\n        /* \"#utility.yul\":9674:9692   */\n      0xffffffffffffffff\n        /* \"#utility.yul\":9666:9672   */\n      dup2\n        /* \"#utility.yul\":9663:9693   */\n      gt\n        /* \"#utility.yul\":9660:9777   */\n      iszero\n      tag_425\n      jumpi\n        /* \"#utility.yul\":9696:9775   */\n      tag_426\n      tag_274\n      jump\t// in\n    tag_426:\n        /* \"#utility.yul\":9660:9777   */\n    tag_425:\n        /* \"#utility.yul\":9801:9863   */\n      tag_427\n        /* \"#utility.yul\":9855:9862   */\n      dup8\n        /* \"#utility.yul\":9846:9852   */\n      dup3\n        /* \"#utility.yul\":9835:9844   */\n      dup9\n        /* \"#utility.yul\":9831:9853   */\n      add\n        /* \"#utility.yul\":9801:9863   */\n      tag_304\n      jump\t// in\n    tag_427:\n        /* \"#utility.yul\":9791:9863   */\n      swap2\n      pop\n        /* \"#utility.yul\":9586:9873   */\n      pop\n        /* \"#utility.yul\":8937:9880   */\n      swap3\n      swap6\n      swap2\n      swap5\n      pop\n      swap3\n      pop\n      jump\t// out\n        /* \"#utility.yul\":9886:10360   */\n    tag_97:\n        /* \"#utility.yul\":9954:9960   */\n      0x00\n        /* \"#utility.yul\":9962:9968   */\n      dup1\n        /* \"#utility.yul\":10011:10013   */\n      0x40\n        /* \"#utility.yul\":9999:10008   */\n      dup4\n        /* \"#utility.yul\":9990:9997   */\n      dup6\n        /* \"#utility.yul\":9986:10009   */\n      sub\n        /* \"#utility.yul\":9982:10014   */\n      slt\n        /* \"#utility.yul\":9979:10098   */\n      iszero\n      tag_429\n      jumpi\n        /* \"#utility.yul\":10017:10096   */\n      tag_430\n      tag_273\n      jump\t// in\n    tag_430:\n        /* \"#utility.yul\":9979:10098   */\n    tag_429:\n        /* \"#utility.yul\":10137:10138   */\n      0x00\n        /* \"#utility.yul\":10162:10215   */\n      tag_431\n        /* \"#utility.yul\":10207:10214   */\n      dup6\n        /* \"#utility.yul\":10198:10204   */\n      dup3\n        /* \"#utility.yul\":10187:10196   */\n      dup7\n        /* \"#utility.yul\":10183:10205   */\n      add\n        /* \"#utility.yul\":10162:10215   */\n      tag_292\n      jump\t// in\n    tag_431:\n        /* \"#utility.yul\":10152:10215   */\n      swap3\n      pop\n        /* \"#utility.yul\":10108:10225   */\n      pop\n        /* \"#utility.yul\":10264:10266   */\n      0x20\n        /* \"#utility.yul\":10290:10343   */\n      tag_432\n        /* \"#utility.yul\":10335:10342   */\n      dup6\n        /* \"#utility.yul\":10326:10332   */\n      dup3\n        /* \"#utility.yul\":10315:10324   */\n      dup7\n        /* \"#utility.yul\":10311:10333   */\n      add\n        /* \"#utility.yul\":10290:10343   */\n      tag_292\n      jump\t// in\n    tag_432:\n        /* \"#utility.yul\":10280:10343   */\n      swap2\n      pop\n        /* \"#utility.yul\":10235:10353   */\n      pop\n        /* \"#utility.yul\":9886:10360   */\n      swap3\n      pop\n      swap3\n      swap1\n      pop\n      jump\t// out\n        /* \"#utility.yul\":10366:10546   */\n    tag_305:\n        /* \"#utility.yul\":10414:10491   */\n      0x4e487b7100000000000000000000000000000000000000000000000000000000\n        /* \"#utility.yul\":10411:10412   */\n      0x00\n        /* \"#utility.yul\":10404:10492   */\n      mstore\n        /* \"#utility.yul\":10511:10515   */\n      0x22\n        /* \"#utility.yul\":10508:10509   */\n      0x04\n        /* \"#utility.yul\":10501:10516   */\n      mstore\n        /* \"#utility.yul\":10535:10539   */\n      0x24\n        /* \"#utility.yul\":10532:10533   */\n      0x00\n        /* \"#utility.yul\":10525:10540   */\n      revert\n        /* \"#utility.yul\":10552:10872   */\n    tag_105:\n        /* \"#utility.yul\":10596:10602   */\n      0x00\n        /* \"#utility.yul\":10633:10634   */\n      0x02\n        /* \"#utility.yul\":10627:10631   */\n      dup3\n        /* \"#utility.yul\":10623:10635   */\n      div\n        /* \"#utility.yul\":10613:10635   */\n      swap1\n      pop\n        /* \"#utility.yul\":10680:10681   */\n      0x01\n        /* \"#utility.yul\":10674:10678   */\n      dup3\n        /* \"#utility.yul\":10670:10682   */\n      and\n        /* \"#utility.yul\":10701:10719   */\n      dup1\n        /* \"#utility.yul\":10691:10772   */\n      tag_435\n      jumpi\n        /* \"#utility.yul\":10757:10761   */\n      0x7f\n        /* \"#utility.yul\":10749:10755   */\n      dup3\n        /* \"#utility.yul\":10745:10762   */\n      and\n        /* \"#utility.yul\":10735:10762   */\n      swap2\n      pop\n        /* \"#utility.yul\":10691:10772   */\n    tag_435:\n        /* \"#utility.yul\":10819:10821   */\n      0x20\n        /* \"#utility.yul\":10811:10817   */\n      dup3\n        /* \"#utility.yul\":10808:10822   */\n      lt\n        /* \"#utility.yul\":10788:10806   */\n      dup2\n        /* \"#utility.yul\":10785:10823   */\n      sub\n        /* \"#utility.yul\":10782:10866   */\n      tag_436\n      jumpi\n        /* \"#utility.yul\":10838:10856   */\n      tag_437\n      tag_305\n      jump\t// in\n    tag_437:\n        /* \"#utility.yul\":10782:10866   */\n    tag_436:\n        /* \"#utility.yul\":10603:10872   */\n      pop\n        /* \"#utility.yul\":10552:10872   */\n      swap2\n      swap1\n      pop\n      jump\t// out\n        /* \"#utility.yul\":10878:11026   */\n    tag_306:\n        /* \"#utility.yul\":10980:10991   */\n      0x00\n        /* \"#utility.yul\":11017:11020   */\n      dup2\n        /* \"#utility.yul\":11002:11020   */\n      swap1\n      pop\n        /* \"#utility.yul\":10878:11026   */\n      swap3\n      swap2\n      pop\n      pop\n      jump\t// out\n        /* \"#utility.yul\":11032:11422   */\n    tag_307:\n        /* \"#utility.yul\":11138:11141   */\n      0x00\n        /* \"#utility.yul\":11166:11205   */\n      tag_440\n        /* \"#utility.yul\":11199:11204   */\n      dup3\n        /* \"#utility.yul\":11166:11205   */\n      tag_280\n      jump\t// in\n    tag_440:\n        /* \"#utility.yul\":11221:11310   */\n      tag_441\n        /* \"#utility.yul\":11303:11309   */\n      dup2\n        /* \"#utility.yul\":11298:11301   */\n      dup6\n        /* \"#utility.yul\":11221:11310   */\n      tag_306\n      jump\t// in\n    tag_441:\n        /* \"#utility.yul\":11214:11310   */\n      swap4\n      pop\n        /* \"#utility.yul\":11319:11384   */\n      tag_442\n        /* \"#utility.yul\":11377:11383   */\n      dup2\n        /* \"#utility.yul\":11372:11375   */\n      dup6\n        /* \"#utility.yul\":11365:11369   */\n      0x20\n        /* \"#utility.yul\":11358:11363   */\n      dup7\n        /* \"#utility.yul\":11354:11370   */\n      add\n        /* \"#utility.yul\":11319:11384   */\n      tag_282\n      jump\t// in\n    tag_442:\n        /* \"#utility.yul\":11409:11415   */\n      dup1\n        /* \"#utility.yul\":11404:11407   */\n      dup5\n        /* \"#utility.yul\":11400:11416   */\n      add\n        /* \"#utility.yul\":11393:11416   */\n      swap2\n      pop\n        /* \"#utility.yul\":11142:11422   */\n      pop\n        /* \"#utility.yul\":11032:11422   */\n      swap3\n      swap2\n      pop\n      pop\n      jump\t// out\n        /* \"#utility.yul\":11428:11863   */\n    tag_191:\n        /* \"#utility.yul\":11608:11611   */\n      0x00\n        /* \"#utility.yul\":11630:11725   */\n      tag_444\n        /* \"#utility.yul\":11721:11724   */\n      dup3\n        /* \"#utility.yul\":11712:11718   */\n      dup6\n        /* \"#utility.yul\":11630:11725   */\n      tag_307\n      jump\t// in\n    tag_444:\n        /* \"#utility.yul\":11623:11725   */\n      swap2\n      pop\n        /* \"#utility.yul\":11742:11837   */\n      tag_445\n        /* \"#utility.yul\":11833:11836   */\n      dup3\n        /* \"#utility.yul\":11824:11830   */\n      dup5\n        /* \"#utility.yul\":11742:11837   */\n      tag_307\n      jump\t// in\n    tag_445:\n        /* \"#utility.yul\":11735:11837   */\n      swap2\n      pop\n        /* \"#utility.yul\":11854:11857   */\n      dup2\n        /* \"#utility.yul\":11847:11857   */\n      swap1\n      pop\n        /* \"#utility.yul\":11428:11863   */\n      swap4\n      swap3\n      pop\n      pop\n      pop\n      jump\t// out\n        /* \"#utility.yul\":11869:12049   */\n    tag_308:\n        /* \"#utility.yul\":11917:11994   */\n      0x4e487b7100000000000000000000000000000000000000000000000000000000\n        /* \"#utility.yul\":11914:11915   */\n      0x00\n        /* \"#utility.yul\":11907:11995   */\n      mstore\n        /* \"#utility.yul\":12014:12018   */\n      0x11\n        /* \"#utility.yul\":12011:12012   */\n      0x04\n        /* \"#utility.yul\":12004:12019   */\n      mstore\n        /* \"#utility.yul\":12038:12042   */\n      0x24\n        /* \"#utility.yul\":12035:12036   */\n      0x00\n        /* \"#utility.yul\":12028:12043   */\n      revert\n        /* \"#utility.yul\":12055:12465   */\n    tag_194:\n        /* \"#utility.yul\":12095:12102   */\n      0x00\n        /* \"#utility.yul\":12118:12138   */\n      tag_448\n        /* \"#utility.yul\":12136:12137   */\n      dup3\n        /* \"#utility.yul\":12118:12138   */\n      tag_285\n      jump\t// in\n    tag_448:\n        /* \"#utility.yul\":12113:12138   */\n      swap2\n      pop\n        /* \"#utility.yul\":12152:12172   */\n      tag_449\n        /* \"#utility.yul\":12170:12171   */\n      dup4\n        /* \"#utility.yul\":12152:12172   */\n      tag_285\n      jump\t// in\n    tag_449:\n        /* \"#utility.yul\":12147:12172   */\n      swap3\n      pop\n        /* \"#utility.yul\":12207:12208   */\n      dup3\n        /* \"#utility.yul\":12204:12205   */\n      dup3\n        /* \"#utility.yul\":12200:12209   */\n      mul\n        /* \"#utility.yul\":12229:12259   */\n      tag_450\n        /* \"#utility.yul\":12247:12258   */\n      dup2\n        /* \"#utility.yul\":12229:12259   */\n      tag_285\n      jump\t// in\n    tag_450:\n        /* \"#utility.yul\":12218:12259   */\n      swap2\n      pop\n        /* \"#utility.yul\":12408:12409   */\n      dup3\n        /* \"#utility.yul\":12399:12406   */\n      dup3\n        /* \"#utility.yul\":12395:12410   */\n      div\n        /* \"#utility.yul\":12392:12393   */\n      dup5\n        /* \"#utility.yul\":12389:12411   */\n      eq\n        /* \"#utility.yul\":12369:12370   */\n      dup4\n        /* \"#utility.yul\":12362:12371   */\n      iszero\n        /* \"#utility.yul\":12342:12425   */\n      or\n        /* \"#utility.yul\":12319:12458   */\n      tag_451\n      jumpi\n        /* \"#utility.yul\":12438:12456   */\n      tag_452\n      tag_308\n      jump\t// in\n    tag_452:\n        /* \"#utility.yul\":12319:12458   */\n    tag_451:\n        /* \"#utility.yul\":12103:12465   */\n      pop\n        /* \"#utility.yul\":12055:12465   */\n      swap3\n      swap2\n      pop\n      pop\n      jump\t// out\n        /* \"#utility.yul\":12471:12642   */\n    tag_207:\n        /* \"#utility.yul\":12510:12513   */\n      0x00\n        /* \"#utility.yul\":12533:12557   */\n      tag_454\n        /* \"#utility.yul\":12551:12556   */\n      dup3\n        /* \"#utility.yul\":12533:12557   */\n      tag_285\n      jump\t// in\n    tag_454:\n        /* \"#utility.yul\":12524:12557   */\n      swap2\n      pop\n        /* \"#utility.yul\":12579:12583   */\n      0x00\n        /* \"#utility.yul\":12572:12577   */\n      dup3\n        /* \"#utility.yul\":12569:12584   */\n      sub\n        /* \"#utility.yul\":12566:12607   */\n      tag_455\n      jumpi\n        /* \"#utility.yul\":12587:12605   */\n      tag_456\n      tag_308\n      jump\t// in\n    tag_456:\n        /* \"#utility.yul\":12566:12607   */\n    tag_455:\n        /* \"#utility.yul\":12634:12635   */\n      0x01\n        /* \"#utility.yul\":12627:12632   */\n      dup3\n        /* \"#utility.yul\":12623:12636   */\n      sub\n        /* \"#utility.yul\":12616:12636   */\n      swap1\n      pop\n        /* \"#utility.yul\":12471:12642   */\n      swap2\n      swap1\n      pop\n      jump\t// out\n        /* \"#utility.yul\":12648:12746   */\n    tag_309:\n        /* \"#utility.yul\":12699:12705   */\n      0x00\n        /* \"#utility.yul\":12733:12738   */\n      dup2\n        /* \"#utility.yul\":12727:12739   */\n      mload\n        /* \"#utility.yul\":12717:12739   */\n      swap1\n      pop\n        /* \"#utility.yul\":12648:12746   */\n      swap2\n      swap1\n      pop\n      jump\t// out\n        /* \"#utility.yul\":12752:12920   */\n    tag_310:\n        /* \"#utility.yul\":12835:12846   */\n      0x00\n        /* \"#utility.yul\":12869:12875   */\n      dup3\n        /* \"#utility.yul\":12864:12867   */\n      dup3\n        /* \"#utility.yul\":12857:12876   */\n      mstore\n        /* \"#utility.yul\":12909:12913   */\n      0x20\n        /* \"#utility.yul\":12904:12907   */\n      dup3\n        /* \"#utility.yul\":12900:12914   */\n      add\n        /* \"#utility.yul\":12885:12914   */\n      swap1\n      pop\n        /* \"#utility.yul\":12752:12920   */\n      swap3\n      swap2\n      pop\n      pop\n      jump\t// out\n        /* \"#utility.yul\":12926:13299   */\n    tag_311:\n        /* \"#utility.yul\":13012:13015   */\n      0x00\n        /* \"#utility.yul\":13040:13078   */\n      tag_460\n        /* \"#utility.yul\":13072:13077   */\n      dup3\n        /* \"#utility.yul\":13040:13078   */\n      tag_309\n      jump\t// in\n    tag_460:\n        /* \"#utility.yul\":13094:13164   */\n      tag_461\n        /* \"#utility.yul\":13157:13163   */\n      dup2\n        /* \"#utility.yul\":13152:13155   */\n      dup6\n        /* \"#utility.yul\":13094:13164   */\n      tag_310\n      jump\t// in\n    tag_461:\n        /* \"#utility.yul\":13087:13164   */\n      swap4\n      pop\n        /* \"#utility.yul\":13173:13238   */\n      tag_462\n        /* \"#utility.yul\":13231:13237   */\n      dup2\n        /* \"#utility.yul\":13226:13229   */\n      dup6\n        /* \"#utility.yul\":13219:13223   */\n      0x20\n        /* \"#utility.yul\":13212:13217   */\n      dup7\n        /* \"#utility.yul\":13208:13224   */\n      add\n        /* \"#utility.yul\":13173:13238   */\n      tag_282\n      jump\t// in\n    tag_462:\n        /* \"#utility.yul\":13263:13292   */\n      tag_463\n        /* \"#utility.yul\":13285:13291   */\n      dup2\n        /* \"#utility.yul\":13263:13292   */\n      tag_283\n      jump\t// in\n    tag_463:\n        /* \"#utility.yul\":13258:13261   */\n      dup5\n        /* \"#utility.yul\":13254:13293   */\n      add\n        /* \"#utility.yul\":13247:13293   */\n      swap2\n      pop\n        /* \"#utility.yul\":13016:13299   */\n      pop\n        /* \"#utility.yul\":12926:13299   */\n      swap3\n      swap2\n      pop\n      pop\n      jump\t// out\n        /* \"#utility.yul\":13305:13945   */\n    tag_251:\n        /* \"#utility.yul\":13500:13504   */\n      0x00\n        /* \"#utility.yul\":13538:13541   */\n      0x80\n        /* \"#utility.yul\":13527:13536   */\n      dup3\n        /* \"#utility.yul\":13523:13542   */\n      add\n        /* \"#utility.yul\":13515:13542   */\n      swap1\n      pop\n        /* \"#utility.yul\":13552:13623   */\n      tag_465\n        /* \"#utility.yul\":13620:13621   */\n      0x00\n        /* \"#utility.yul\":13609:13618   */\n      dup4\n        /* \"#utility.yul\":13605:13622   */\n      add\n        /* \"#utility.yul\":13596:13602   */\n      dup8\n        /* \"#utility.yul\":13552:13623   */\n      tag_290\n      jump\t// in\n    tag_465:\n        /* \"#utility.yul\":13633:13705   */\n      tag_466\n        /* \"#utility.yul\":13701:13703   */\n      0x20\n        /* \"#utility.yul\":13690:13699   */\n      dup4\n        /* \"#utility.yul\":13686:13704   */\n      add\n        /* \"#utility.yul\":13677:13683   */\n      dup7\n        /* \"#utility.yul\":13633:13705   */\n      tag_290\n      jump\t// in\n    tag_466:\n        /* \"#utility.yul\":13715:13787   */\n      tag_467\n        /* \"#utility.yul\":13783:13785   */\n      0x40\n        /* \"#utility.yul\":13772:13781   */\n      dup4\n        /* \"#utility.yul\":13768:13786   */\n      add\n        /* \"#utility.yul\":13759:13765   */\n      dup6\n        /* \"#utility.yul\":13715:13787   */\n      tag_293\n      jump\t// in\n    tag_467:\n        /* \"#utility.yul\":13834:13843   */\n      dup2\n        /* \"#utility.yul\":13828:13832   */\n      dup2\n        /* \"#utility.yul\":13824:13844   */\n      sub\n        /* \"#utility.yul\":13819:13821   */\n      0x60\n        /* \"#utility.yul\":13808:13817   */\n      dup4\n        /* \"#utility.yul\":13804:13822   */\n      add\n        /* \"#utility.yul\":13797:13845   */\n      mstore\n        /* \"#utility.yul\":13862:13938   */\n      tag_468\n        /* \"#utility.yul\":13933:13937   */\n      dup2\n        /* \"#utility.yul\":13924:13930   */\n      dup5\n        /* \"#utility.yul\":13862:13938   */\n      tag_311\n      jump\t// in\n    tag_468:\n        /* \"#utility.yul\":13854:13938   */\n      swap1\n      pop\n        /* \"#utility.yul\":13305:13945   */\n      swap6\n      swap5\n      pop\n      pop\n      pop\n      pop\n      pop\n      jump\t// out\n        /* \"#utility.yul\":13951:14092   */\n    tag_312:\n        /* \"#utility.yul\":14007:14012   */\n      0x00\n        /* \"#utility.yul\":14038:14044   */\n      dup2\n        /* \"#utility.yul\":14032:14045   */\n      mload\n        /* \"#utility.yul\":14023:14045   */\n      swap1\n      pop\n        /* \"#utility.yul\":14054:14086   */\n      tag_470\n        /* \"#utility.yul\":14080:14085   */\n      dup2\n        /* \"#utility.yul\":14054:14086   */\n      tag_276\n      jump\t// in\n    tag_470:\n        /* \"#utility.yul\":13951:14092   */\n      swap3\n      swap2\n      pop\n      pop\n      jump\t// out\n        /* \"#utility.yul\":14098:14447   */\n    tag_254:\n        /* \"#utility.yul\":14167:14173   */\n      0x00\n        /* \"#utility.yul\":14216:14218   */\n      0x20\n        /* \"#utility.yul\":14204:14213   */\n      dup3\n        /* \"#utility.yul\":14195:14202   */\n      dup5\n        /* \"#utility.yul\":14191:14214   */\n      sub\n        /* \"#utility.yul\":14187:14219   */\n      slt\n        /* \"#utility.yul\":14184:14303   */\n      iszero\n      tag_472\n      jumpi\n        /* \"#utility.yul\":14222:14301   */\n      tag_473\n      tag_273\n      jump\t// in\n    tag_473:\n        /* \"#utility.yul\":14184:14303   */\n    tag_472:\n        /* \"#utility.yul\":14342:14343   */\n      0x00\n        /* \"#utility.yul\":14367:14430   */\n      tag_474\n        /* \"#utility.yul\":14422:14429   */\n      dup5\n        /* \"#utility.yul\":14413:14419   */\n      dup3\n        /* \"#utility.yul\":14402:14411   */\n      dup6\n        /* \"#utility.yul\":14398:14420   */\n      add\n        /* \"#utility.yul\":14367:14430   */\n      tag_312\n      jump\t// in\n    tag_474:\n        /* \"#utility.yul\":14357:14430   */\n      swap2\n      pop\n        /* \"#utility.yul\":14313:14440   */\n      pop\n        /* \"#utility.yul\":14098:14447   */\n      swap3\n      swap2\n      pop\n      pop\n      jump\t// out\n\n    auxdata: 0xa26469706673582212201cf1c4590064671e2be5ef310623cf15fd8e90d31671c0279e1fa4a89f38d1a564736f6c634300081a0033\n}\n",
				"bytecode": {
					"linkReferences": {},
					"object": "608060405234801561000f575f80fd5b50604051611ecf380380611ecf83398181016040528101906100319190610228565b816002908161004091906104ab565b50806003908161005091906104ab565b5061005f6100a460201b60201c565b5f819055506100726100a460201b60201c565b6100806100ac60201b60201c565b101561009d5761009c63fed8210f60e01b6100d360201b60201c565b5b505061057a565b5f6001905090565b5f7fffffffffffffffffffffffffffffffffffffffffffffffffffffffffffffffff905090565b805f5260045ffd5b5f604051905090565b5f80fd5b5f80fd5b5f80fd5b5f80fd5b5f601f19601f8301169050919050565b7f4e487b71000000000000000000000000000000000000000000000000000000005f52604160045260245ffd5b61013a826100f4565b810181811067ffffffffffffffff8211171561015957610158610104565b5b80604052505050565b5f61016b6100db565b90506101778282610131565b919050565b5f67ffffffffffffffff82111561019657610195610104565b5b61019f826100f4565b9050602081019050919050565b8281835e5f83830152505050565b5f6101cc6101c78461017c565b610162565b9050828152602081018484840111156101e8576101e76100f0565b5b6101f38482856101ac565b509392505050565b5f82601f83011261020f5761020e6100ec565b5b815161021f8482602086016101ba565b91505092915050565b5f806040838503121561023e5761023d6100e4565b5b5f83015167ffffffffffffffff81111561025b5761025a6100e8565b5b610267858286016101fb565b925050602083015167ffffffffffffffff811115610288576102876100e8565b5b610294858286016101fb565b9150509250929050565b5f81519050919050565b7f4e487b71000000000000000000000000000000000000000000000000000000005f52602260045260245ffd5b5f60028204905060018216806102ec57607f821691505b6020821081036102ff576102fe6102a8565b5b50919050565b5f819050815f5260205f209050919050565b5f6020601f8301049050919050565b5f82821b905092915050565b5f600883026103617fffffffffffffffffffffffffffffffffffffffffffffffffffffffffffffffff82610326565b61036b8683610326565b95508019841693508086168417925050509392505050565b5f819050919050565b5f819050919050565b5f6103af6103aa6103a584610383565b61038c565b610383565b9050919050565b5f819050919050565b6103c883610395565b6103dc6103d4826103b6565b848454610332565b825550505050565b5f90565b6103f06103e4565b6103fb8184846103bf565b505050565b5b8181101561041e576104135f826103e8565b600181019050610401565b5050565b601f8211156104635761043481610305565b61043d84610317565b8101602085101561044c578190505b61046061045885610317565b830182610400565b50505b505050565b5f82821c905092915050565b5f6104835f1984600802610468565b1980831691505092915050565b5f61049b8383610474565b9150826002028217905092915050565b6104b48261029e565b67ffffffffffffffff8111156104cd576104cc610104565b5b6104d782546102d5565b6104e2828285610422565b5f60209050601f831160018114610513575f8415610501578287015190505b61050b8582610490565b865550610572565b601f19841661052186610305565b5f5b8281101561054857848901518255600182019150602085019450602081019050610523565b868310156105655784890151610561601f891682610474565b8355505b6001600288020188555050505b505050505050565b611948806105875f395ff3fe6080604052600436106100f2575f3560e01c806370a0823111610089578063b88d4fde11610058578063b88d4fde1461030a578063c87b56dd14610326578063e6a72acf14610362578063e985e9c51461039e576100f2565b806370a082311461025257806395d89b411461028e578063a22cb465146102b8578063b228d925146102e0576100f2565b806318160ddd116100c557806318160ddd146101b457806323b872dd146101de57806342842e0e146101fa5780636352211e14610216576100f2565b806301ffc9a7146100f657806306fdde0314610132578063081812fc1461015c578063095ea7b314610198575b5f80fd5b348015610101575f80fd5b5061011c600480360381019061011791906111e7565b6103da565b604051610129919061122c565b60405180910390f35b34801561013d575f80fd5b5061014661046b565b60405161015391906112b5565b60405180910390f35b348015610167575f80fd5b50610182600480360381019061017d9190611308565b6104fb565b60405161018f9190611372565b60405180910390f35b6101b260048036038101906101ad91906113b5565b610554565b005b3480156101bf575f80fd5b506101c8610564565b6040516101d59190611402565b60405180910390f35b6101f860048036038101906101f3919061141b565b6105af565b005b610214600480360381019061020f919061141b565b610830565b005b348015610221575f80fd5b5061023c60048036038101906102379190611308565b61084f565b6040516102499190611372565b60405180910390f35b34801561025d575f80fd5b506102786004803603810190610273919061146b565b610860565b6040516102859190611402565b60405180910390f35b348015610299575f80fd5b506102a26108f4565b6040516102af91906112b5565b60405180910390f35b3480156102c3575f80fd5b506102de60048036038101906102d991906114c0565b610984565b005b3480156102eb575f80fd5b506102f4610a8a565b6040516103019190611402565b60405180910390f35b610324600480360381019061031f919061162a565b610a92565b005b348015610331575f80fd5b5061034c60048036038101906103479190611308565b610ae3565b60405161035991906112b5565b60405180910390f35b34801561036d575f80fd5b5061038860048036038101906103839190611308565b610b5d565b6040516103959190611402565b60405180910390f35b3480156103a9575f80fd5b506103c460048036038101906103bf91906116aa565b610b71565b6040516103d1919061122c565b60405180910390f35b5f6301ffc9a760e01b827bffffffffffffffffffffffffffffffffffffffffffffffffffffffff1916148061043457506380ac58cd60e01b827bffffffffffffffffffffffffffffffffffffffffffffffffffffffff1916145b806104645750635b5e139f60e01b827bffffffffffffffffffffffffffffffffffffffffffffffffffffffff1916145b9050919050565b60606002805461047a90611715565b80601f01602080910402602001604051908101604052809291908181526020018280546104a690611715565b80156104f15780601f106104c8576101008083540402835291602001916104f1565b820191905f5260205f20905b8154815290600101906020018083116104d457829003601f168201915b5050505050905090565b5f61050582610bff565b61051a5761051963cf4700e460e01b610ca2565b5b60065f8381526020019081526020015f205f015f9054906101000a900473ffffffffffffffffffffffffffffffffffffffff169050919050565b61056082826001610caa565b5050565b5f61056d610dd4565b6001545f54030390507fffffffffffffffffffffffffffffffffffffffffffffffffffffffffffffffff61059f610ddc565b146105ac57600854810190505b90565b5f6105b982610e03565b90505f8473ffffffffffffffffffffffffffffffffffffffff169050808273ffffffffffffffffffffffffffffffffffffffff16146106035761060263a114810060e01b610ca2565b5b5f8061060e85610f12565b9150915061063a818461061f610f35565b73ffffffffffffffffffffffffffffffffffffffff16610f3c565b6106655761064f8761064a610f35565b610b71565b610664576106636359c896be60e01b610ca2565b5b5b6106728787876001610f4d565b801561067c575f82555b60055f8873ffffffffffffffffffffffffffffffffffffffff1673ffffffffffffffffffffffffffffffffffffffff1681526020019081526020015f205f8154600190039190508190555060055f8773ffffffffffffffffffffffffffffffffffffffff1673ffffffffffffffffffffffffffffffffffffffff1681526020019081526020015f205f81546001019190508190555061074486610720898988610f53565b7c020000000000000000000000000000000000000000000000000000000017610f7a565b60045f8781526020019081526020015f20819055505f7c02000000000000000000000000000000000000000000000000000000008516036107c0575f6001860190505f60045f8381526020019081526020015f2054036107be575f5481146107bd578460045f8381526020019081526020015f20819055505b5b505b5f8673ffffffffffffffffffffffffffffffffffffffff1690508581857fddf252ad1be2c89b69c2b068fc378daa952ba7f163c4a11628f55a4df523b3ef5f80a45f81036108195761081863ea553b3460e01b610ca2565b5b6108268888886001610fa4565b5050505050505050565b61084a83838360405180602001604052805f815250610a92565b505050565b5f61085982610e03565b9050919050565b5f8073ffffffffffffffffffffffffffffffffffffffff168273ffffffffffffffffffffffffffffffffffffffff16036108a5576108a4638f4eb60460e01b610ca2565b5b67ffffffffffffffff60055f8473ffffffffffffffffffffffffffffffffffffffff1673ffffffffffffffffffffffffffffffffffffffff1681526020019081526020015f2054169050919050565b60606003805461090390611715565b80601f016020809104026020016040519081016040528092919081815260200182805461092f90611715565b801561097a5780601f106109515761010080835404028352916020019161097a565b820191905f5260205f20905b81548152906001019060200180831161095d57829003601f168201915b5050505050905090565b8060075f610990610f35565b73ffffffffffffffffffffffffffffffffffffffff1673ffffffffffffffffffffffffffffffffffffffff1681526020019081526020015f205f8473ffffffffffffffffffffffffffffffffffffffff1673ffffffffffffffffffffffffffffffffffffffff1681526020019081526020015f205f6101000a81548160ff0219169083151502179055508173ffffffffffffffffffffffffffffffffffffffff16610a39610f35565b73ffffffffffffffffffffffffffffffffffffffff167f17307eab39ab6107e8899845ad3d59bd9653f200f220920489ca2b5937696c3183604051610a7e919061122c565b60405180910390a35050565b5f6001905090565b610a9d8484846105af565b5f8373ffffffffffffffffffffffffffffffffffffffff163b14610add57610ac784848484610faa565b610adc57610adb63d1a57ed660e01b610ca2565b5b5b50505050565b6060610aee82610bff565b610b0357610b0263a14c4b5060e01b610ca2565b5b5f610b0c6110d4565b90505f815103610b2a5760405180602001604052805f815250610b55565b80610b34846110ea565b604051602001610b4592919061177f565b6040516020818303038152906040525b915050919050565b5f8082610b6a91906117cf565b9050919050565b5f60075f8473ffffffffffffffffffffffffffffffffffffffff1673ffffffffffffffffffffffffffffffffffffffff1681526020019081526020015f205f8373ffffffffffffffffffffffffffffffffffffffff1673ffffffffffffffffffffffffffffffffffffffff1681526020019081526020015f205f9054906101000a900460ff16905092915050565b5f81610c09610dd4565b11610c9c57610c16610ddc565b821115610c3e57610c3760045f8481526020019081526020015f2054611139565b9050610c9d565b5f54821015610c9b575f5b5f60045f8581526020019081526020015f205491508103610c755782610c6e90611810565b9250610c49565b5f7c01000000000000000000000000000000000000000000000000000000008216149150505b5b5b919050565b805f5260045ffd5b5f610cb48361084f565b9050818015610cf657508073ffffffffffffffffffffffffffffffffffffffff16610cdd610f35565b73ffffffffffffffffffffffffffffffffffffffff1614155b15610d2257610d0c81610d07610f35565b610b71565b610d2157610d2063cfb3b94260e01b610ca2565b5b5b8360065f8581526020019081526020015f205f015f6101000a81548173ffffffffffffffffffffffffffffffffffffffff021916908373ffffffffffffffffffffffffffffffffffffffff160217905550828473ffffffffffffffffffffffffffffffffffffffff168273ffffffffffffffffffffffffffffffffffffffff167f8c5be1e5ebec7d5bd14f71427d1e84f3dd0314c0f7b2291e5b200ac8c7c3b92560405160405180910390a450505050565b5f6001905090565b5f7fffffffffffffffffffffffffffffffffffffffffffffffffffffffffffffffff905090565b5f81610e0d610dd4565b11610efc5760045f8381526020019081526020015f20549050610e2e610ddc565b821115610e5357610e3e81611139565b610f0d57610e5263df2d9b4260e01b610ca2565b5b5f8103610ed4575f548210610e7357610e7263df2d9b4260e01b610ca2565b5b5b60045f836001900393508381526020019081526020015f205490505f810315610ecf575f7c010000000000000000000000000000000000000000000000000000000082160315610f0d57610ece63df2d9b4260e01b610ca2565b5b610e74565b5f7c010000000000000000000000000000000000000000000000000000000082160315610f0d575b610f0c63df2d9b4260e01b610ca2565b5b919050565b5f805f60065f8581526020019081526020015f2090508092508254915050915091565b5f33905090565b5f8382148383141790509392505050565b50505050565b5f8060e883901c905060e8610f69868684611179565b62ffffff16901b9150509392505050565b5f73ffffffffffffffffffffffffffffffffffffffff83169250814260a01b178317905092915050565b50505050565b5f8373ffffffffffffffffffffffffffffffffffffffff1663150b7a02610fcf610f35565b8786866040518563ffffffff1660e01b8152600401610ff19493929190611889565b6020604051808303815f875af192505050801561102c57506040513d601f19601f8201168201806040525081019061102991906118e7565b60015b611081573d805f811461105a576040519150601f19603f3d011682016040523d82523d5f602084013e61105f565b606091505b505f8151036110795761107863d1a57ed660e01b610ca2565b5b805181602001fd5b63150b7a0260e01b7bffffffffffffffffffffffffffffffffffffffffffffffffffffffff1916817bffffffffffffffffffffffffffffffffffffffffffffffffffffffff191614915050949350505050565b606060405180602001604052805f815250905090565b606060a060405101806040526020810391505f825281835b60011561112457600184039350600a81066030018453600a8104905080611102575b50828103602084039350808452505050919050565b5f7c0100000000000000000000000000000000000000000000000000000000821673ffffffffffffffffffffffffffffffffffffffff8316119050919050565b5f9392505050565b5f604051905090565b5f80fd5b5f80fd5b5f7fffffffff0000000000000000000000000000000000000000000000000000000082169050919050565b6111c681611192565b81146111d0575f80fd5b50565b5f813590506111e1816111bd565b92915050565b5f602082840312156111fc576111fb61118a565b5b5f611209848285016111d3565b91505092915050565b5f8115159050919050565b61122681611212565b82525050565b5f60208201905061123f5f83018461121d565b92915050565b5f81519050919050565b5f82825260208201905092915050565b8281835e5f83830152505050565b5f601f19601f8301169050919050565b5f61128782611245565b611291818561124f565b93506112a181856020860161125f565b6112aa8161126d565b840191505092915050565b5f6020820190508181035f8301526112cd818461127d565b905092915050565b5f819050919050565b6112e7816112d5565b81146112f1575f80fd5b50565b5f81359050611302816112de565b92915050565b5f6020828403121561131d5761131c61118a565b5b5f61132a848285016112f4565b91505092915050565b5f73ffffffffffffffffffffffffffffffffffffffff82169050919050565b5f61135c82611333565b9050919050565b61136c81611352565b82525050565b5f6020820190506113855f830184611363565b92915050565b61139481611352565b811461139e575f80fd5b50565b5f813590506113af8161138b565b92915050565b5f80604083850312156113cb576113ca61118a565b5b5f6113d8858286016113a1565b92505060206113e9858286016112f4565b9150509250929050565b6113fc816112d5565b82525050565b5f6020820190506114155f8301846113f3565b92915050565b5f805f606084860312156114325761143161118a565b5b5f61143f868287016113a1565b9350506020611450868287016113a1565b9250506040611461868287016112f4565b9150509250925092565b5f602082840312156114805761147f61118a565b5b5f61148d848285016113a1565b91505092915050565b61149f81611212565b81146114a9575f80fd5b50565b5f813590506114ba81611496565b92915050565b5f80604083850312156114d6576114d561118a565b5b5f6114e3858286016113a1565b92505060206114f4858286016114ac565b9150509250929050565b5f80fd5b5f80fd5b7f4e487b71000000000000000000000000000000000000000000000000000000005f52604160045260245ffd5b61153c8261126d565b810181811067ffffffffffffffff8211171561155b5761155a611506565b5b80604052505050565b5f61156d611181565b90506115798282611533565b919050565b5f67ffffffffffffffff82111561159857611597611506565b5b6115a18261126d565b9050602081019050919050565b828183375f83830152505050565b5f6115ce6115c98461157e565b611564565b9050828152602081018484840111156115ea576115e9611502565b5b6115f58482856115ae565b509392505050565b5f82601f830112611611576116106114fe565b5b81356116218482602086016115bc565b91505092915050565b5f805f80608085870312156116425761164161118a565b5b5f61164f878288016113a1565b9450506020611660878288016113a1565b9350506040611671878288016112f4565b925050606085013567ffffffffffffffff8111156116925761169161118e565b5b61169e878288016115fd565b91505092959194509250565b5f80604083850312156116c0576116bf61118a565b5b5f6116cd858286016113a1565b92505060206116de858286016113a1565b9150509250929050565b7f4e487b71000000000000000000000000000000000000000000000000000000005f52602260045260245ffd5b5f600282049050600182168061172c57607f821691505b60208210810361173f5761173e6116e8565b5b50919050565b5f81905092915050565b5f61175982611245565b6117638185611745565b935061177381856020860161125f565b80840191505092915050565b5f61178a828561174f565b9150611796828461174f565b91508190509392505050565b7f4e487b71000000000000000000000000000000000000000000000000000000005f52601160045260245ffd5b5f6117d9826112d5565b91506117e4836112d5565b92508282026117f2816112d5565b91508282048414831517611809576118086117a2565b5b5092915050565b5f61181a826112d5565b91505f820361182c5761182b6117a2565b5b600182039050919050565b5f81519050919050565b5f82825260208201905092915050565b5f61185b82611837565b6118658185611841565b935061187581856020860161125f565b61187e8161126d565b840191505092915050565b5f60808201905061189c5f830187611363565b6118a96020830186611363565b6118b660408301856113f3565b81810360608301526118c88184611851565b905095945050505050565b5f815190506118e1816111bd565b92915050565b5f602082840312156118fc576118fb61118a565b5b5f611909848285016118d3565b9150509291505056fea26469706673582212201cf1c4590064671e2be5ef310623cf15fd8e90d31671c0279e1fa4a89f38d1a564736f6c634300081a0033",
					"opcodes": "PUSH1 0x80 PUSH1 0x40 MSTORE CALLVALUE DUP1 ISZERO PUSH2 0xF JUMPI PUSH0 DUP1 REVERT JUMPDEST POP PUSH1 0x40 MLOAD PUSH2 0x1ECF CODESIZE SUB DUP1 PUSH2 0x1ECF DUP4 CODECOPY DUP2 DUP2 ADD PUSH1 0x40 MSTORE DUP2 ADD SWAP1 PUSH2 0x31 SWAP2 SWAP1 PUSH2 0x228 JUMP JUMPDEST DUP2 PUSH1 0x2 SWAP1 DUP2 PUSH2 0x40 SWAP2 SWAP1 PUSH2 0x4AB JUMP JUMPDEST POP DUP1 PUSH1 0x3 SWAP1 DUP2 PUSH2 0x50 SWAP2 SWAP1 PUSH2 0x4AB JUMP JUMPDEST POP PUSH2 0x5F PUSH2 0xA4 PUSH1 0x20 SHL PUSH1 0x20 SHR JUMP JUMPDEST PUSH0 DUP2 SWAP1 SSTORE POP PUSH2 0x72 PUSH2 0xA4 PUSH1 0x20 SHL PUSH1 0x20 SHR JUMP JUMPDEST PUSH2 0x80 PUSH2 0xAC PUSH1 0x20 SHL PUSH1 0x20 SHR JUMP JUMPDEST LT ISZERO PUSH2 0x9D JUMPI PUSH2 0x9C PUSH4 0xFED8210F PUSH1 0xE0 SHL PUSH2 0xD3 PUSH1 0x20 SHL PUSH1 0x20 SHR JUMP JUMPDEST JUMPDEST POP POP PUSH2 0x57A JUMP JUMPDEST PUSH0 PUSH1 0x1 SWAP1 POP SWAP1 JUMP JUMPDEST PUSH0 PUSH32 0xFFFFFFFFFFFFFFFFFFFFFFFFFFFFFFFFFFFFFFFFFFFFFFFFFFFFFFFFFFFFFFFF SWAP1 POP SWAP1 JUMP JUMPDEST DUP1 PUSH0 MSTORE PUSH1 0x4 PUSH0 REVERT JUMPDEST PUSH0 PUSH1 0x40 MLOAD SWAP1 POP SWAP1 JUMP JUMPDEST PUSH0 DUP1 REVERT JUMPDEST PUSH0 DUP1 REVERT JUMPDEST PUSH0 DUP1 REVERT JUMPDEST PUSH0 DUP1 REVERT JUMPDEST PUSH0 PUSH1 0x1F NOT PUSH1 0x1F DUP4 ADD AND SWAP1 POP SWAP2 SWAP1 POP JUMP JUMPDEST PUSH32 0x4E487B7100000000000000000000000000000000000000000000000000000000 PUSH0 MSTORE PUSH1 0x41 PUSH1 0x4 MSTORE PUSH1 0x24 PUSH0 REVERT JUMPDEST PUSH2 0x13A DUP3 PUSH2 0xF4 JUMP JUMPDEST DUP2 ADD DUP2 DUP2 LT PUSH8 0xFFFFFFFFFFFFFFFF DUP3 GT OR ISZERO PUSH2 0x159 JUMPI PUSH2 0x158 PUSH2 0x104 JUMP JUMPDEST JUMPDEST DUP1 PUSH1 0x40 MSTORE POP POP POP JUMP JUMPDEST PUSH0 PUSH2 0x16B PUSH2 0xDB JUMP JUMPDEST SWAP1 POP PUSH2 0x177 DUP3 DUP3 PUSH2 0x131 JUMP JUMPDEST SWAP2 SWAP1 POP JUMP JUMPDEST PUSH0 PUSH8 0xFFFFFFFFFFFFFFFF DUP3 GT ISZERO PUSH2 0x196 JUMPI PUSH2 0x195 PUSH2 0x104 JUMP JUMPDEST JUMPDEST PUSH2 0x19F DUP3 PUSH2 0xF4 JUMP JUMPDEST SWAP1 POP PUSH1 0x20 DUP2 ADD SWAP1 POP SWAP2 SWAP1 POP JUMP JUMPDEST DUP3 DUP2 DUP4 MCOPY PUSH0 DUP4 DUP4 ADD MSTORE POP POP POP JUMP JUMPDEST PUSH0 PUSH2 0x1CC PUSH2 0x1C7 DUP5 PUSH2 0x17C JUMP JUMPDEST PUSH2 0x162 JUMP JUMPDEST SWAP1 POP DUP3 DUP2 MSTORE PUSH1 0x20 DUP2 ADD DUP5 DUP5 DUP5 ADD GT ISZERO PUSH2 0x1E8 JUMPI PUSH2 0x1E7 PUSH2 0xF0 JUMP JUMPDEST JUMPDEST PUSH2 0x1F3 DUP5 DUP3 DUP6 PUSH2 0x1AC JUMP JUMPDEST POP SWAP4 SWAP3 POP POP POP JUMP JUMPDEST PUSH0 DUP3 PUSH1 0x1F DUP4 ADD SLT PUSH2 0x20F JUMPI PUSH2 0x20E PUSH2 0xEC JUMP JUMPDEST JUMPDEST DUP2 MLOAD PUSH2 0x21F DUP5 DUP3 PUSH1 0x20 DUP7 ADD PUSH2 0x1BA JUMP JUMPDEST SWAP2 POP POP SWAP3 SWAP2 POP POP JUMP JUMPDEST PUSH0 DUP1 PUSH1 0x40 DUP4 DUP6 SUB SLT ISZERO PUSH2 0x23E JUMPI PUSH2 0x23D PUSH2 0xE4 JUMP JUMPDEST JUMPDEST PUSH0 DUP4 ADD MLOAD PUSH8 0xFFFFFFFFFFFFFFFF DUP2 GT ISZERO PUSH2 0x25B JUMPI PUSH2 0x25A PUSH2 0xE8 JUMP JUMPDEST JUMPDEST PUSH2 0x267 DUP6 DUP3 DUP7 ADD PUSH2 0x1FB JUMP JUMPDEST SWAP3 POP POP PUSH1 0x20 DUP4 ADD MLOAD PUSH8 0xFFFFFFFFFFFFFFFF DUP2 GT ISZERO PUSH2 0x288 JUMPI PUSH2 0x287 PUSH2 0xE8 JUMP JUMPDEST JUMPDEST PUSH2 0x294 DUP6 DUP3 DUP7 ADD PUSH2 0x1FB JUMP JUMPDEST SWAP2 POP POP SWAP3 POP SWAP3 SWAP1 POP JUMP JUMPDEST PUSH0 DUP2 MLOAD SWAP1 POP SWAP2 SWAP1 POP JUMP JUMPDEST PUSH32 0x4E487B7100000000000000000000000000000000000000000000000000000000 PUSH0 MSTORE PUSH1 0x22 PUSH1 0x4 MSTORE PUSH1 0x24 PUSH0 REVERT JUMPDEST PUSH0 PUSH1 0x2 DUP3 DIV SWAP1 POP PUSH1 0x1 DUP3 AND DUP1 PUSH2 0x2EC JUMPI PUSH1 0x7F DUP3 AND SWAP2 POP JUMPDEST PUSH1 0x20 DUP3 LT DUP2 SUB PUSH2 0x2FF JUMPI PUSH2 0x2FE PUSH2 0x2A8 JUMP JUMPDEST JUMPDEST POP SWAP2 SWAP1 POP JUMP JUMPDEST PUSH0 DUP2 SWAP1 POP DUP2 PUSH0 MSTORE PUSH1 0x20 PUSH0 KECCAK256 SWAP1 POP SWAP2 SWAP1 POP JUMP JUMPDEST PUSH0 PUSH1 0x20 PUSH1 0x1F DUP4 ADD DIV SWAP1 POP SWAP2 SWAP1 POP JUMP JUMPDEST PUSH0 DUP3 DUP3 SHL SWAP1 POP SWAP3 SWAP2 POP POP JUMP JUMPDEST PUSH0 PUSH1 0x8 DUP4 MUL PUSH2 0x361 PUSH32 0xFFFFFFFFFFFFFFFFFFFFFFFFFFFFFFFFFFFFFFFFFFFFFFFFFFFFFFFFFFFFFFFF DUP3 PUSH2 0x326 JUMP JUMPDEST PUSH2 0x36B DUP7 DUP4 PUSH2 0x326 JUMP JUMPDEST SWAP6 POP DUP1 NOT DUP5 AND SWAP4 POP DUP1 DUP7 AND DUP5 OR SWAP3 POP POP POP SWAP4 SWAP3 POP POP POP JUMP JUMPDEST PUSH0 DUP2 SWAP1 POP SWAP2 SWAP1 POP JUMP JUMPDEST PUSH0 DUP2 SWAP1 POP SWAP2 SWAP1 POP JUMP JUMPDEST PUSH0 PUSH2 0x3AF PUSH2 0x3AA PUSH2 0x3A5 DUP5 PUSH2 0x383 JUMP JUMPDEST PUSH2 0x38C JUMP JUMPDEST PUSH2 0x383 JUMP JUMPDEST SWAP1 POP SWAP2 SWAP1 POP JUMP JUMPDEST PUSH0 DUP2 SWAP1 POP SWAP2 SWAP1 POP JUMP JUMPDEST PUSH2 0x3C8 DUP4 PUSH2 0x395 JUMP JUMPDEST PUSH2 0x3DC PUSH2 0x3D4 DUP3 PUSH2 0x3B6 JUMP JUMPDEST DUP5 DUP5 SLOAD PUSH2 0x332 JUMP JUMPDEST DUP3 SSTORE POP POP POP POP JUMP JUMPDEST PUSH0 SWAP1 JUMP JUMPDEST PUSH2 0x3F0 PUSH2 0x3E4 JUMP JUMPDEST PUSH2 0x3FB DUP2 DUP5 DUP5 PUSH2 0x3BF JUMP JUMPDEST POP POP POP JUMP JUMPDEST JUMPDEST DUP2 DUP2 LT ISZERO PUSH2 0x41E JUMPI PUSH2 0x413 PUSH0 DUP3 PUSH2 0x3E8 JUMP JUMPDEST PUSH1 0x1 DUP2 ADD SWAP1 POP PUSH2 0x401 JUMP JUMPDEST POP POP JUMP JUMPDEST PUSH1 0x1F DUP3 GT ISZERO PUSH2 0x463 JUMPI PUSH2 0x434 DUP2 PUSH2 0x305 JUMP JUMPDEST PUSH2 0x43D DUP5 PUSH2 0x317 JUMP JUMPDEST DUP2 ADD PUSH1 0x20 DUP6 LT ISZERO PUSH2 0x44C JUMPI DUP2 SWAP1 POP JUMPDEST PUSH2 0x460 PUSH2 0x458 DUP6 PUSH2 0x317 JUMP JUMPDEST DUP4 ADD DUP3 PUSH2 0x400 JUMP JUMPDEST POP POP JUMPDEST POP POP POP JUMP JUMPDEST PUSH0 DUP3 DUP3 SHR SWAP1 POP SWAP3 SWAP2 POP POP JUMP JUMPDEST PUSH0 PUSH2 0x483 PUSH0 NOT DUP5 PUSH1 0x8 MUL PUSH2 0x468 JUMP JUMPDEST NOT DUP1 DUP4 AND SWAP2 POP POP SWAP3 SWAP2 POP POP JUMP JUMPDEST PUSH0 PUSH2 0x49B DUP4 DUP4 PUSH2 0x474 JUMP JUMPDEST SWAP2 POP DUP3 PUSH1 0x2 MUL DUP3 OR SWAP1 POP SWAP3 SWAP2 POP POP JUMP JUMPDEST PUSH2 0x4B4 DUP3 PUSH2 0x29E JUMP JUMPDEST PUSH8 0xFFFFFFFFFFFFFFFF DUP2 GT ISZERO PUSH2 0x4CD JUMPI PUSH2 0x4CC PUSH2 0x104 JUMP JUMPDEST JUMPDEST PUSH2 0x4D7 DUP3 SLOAD PUSH2 0x2D5 JUMP JUMPDEST PUSH2 0x4E2 DUP3 DUP3 DUP6 PUSH2 0x422 JUMP JUMPDEST PUSH0 PUSH1 0x20 SWAP1 POP PUSH1 0x1F DUP4 GT PUSH1 0x1 DUP2 EQ PUSH2 0x513 JUMPI PUSH0 DUP5 ISZERO PUSH2 0x501 JUMPI DUP3 DUP8 ADD MLOAD SWAP1 POP JUMPDEST PUSH2 0x50B DUP6 DUP3 PUSH2 0x490 JUMP JUMPDEST DUP7 SSTORE POP PUSH2 0x572 JUMP JUMPDEST PUSH1 0x1F NOT DUP5 AND PUSH2 0x521 DUP7 PUSH2 0x305 JUMP JUMPDEST PUSH0 JUMPDEST DUP3 DUP2 LT ISZERO PUSH2 0x548 JUMPI DUP5 DUP10 ADD MLOAD DUP3 SSTORE PUSH1 0x1 DUP3 ADD SWAP2 POP PUSH1 0x20 DUP6 ADD SWAP5 POP PUSH1 0x20 DUP2 ADD SWAP1 POP PUSH2 0x523 JUMP JUMPDEST DUP7 DUP4 LT ISZERO PUSH2 0x565 JUMPI DUP5 DUP10 ADD MLOAD PUSH2 0x561 PUSH1 0x1F DUP10 AND DUP3 PUSH2 0x474 JUMP JUMPDEST DUP4 SSTORE POP JUMPDEST PUSH1 0x1 PUSH1 0x2 DUP9 MUL ADD DUP9 SSTORE POP POP POP JUMPDEST POP POP POP POP POP POP JUMP JUMPDEST PUSH2 0x1948 DUP1 PUSH2 0x587 PUSH0 CODECOPY PUSH0 RETURN INVALID PUSH1 0x80 PUSH1 0x40 MSTORE PUSH1 0x4 CALLDATASIZE LT PUSH2 0xF2 JUMPI PUSH0 CALLDATALOAD PUSH1 0xE0 SHR DUP1 PUSH4 0x70A08231 GT PUSH2 0x89 JUMPI DUP1 PUSH4 0xB88D4FDE GT PUSH2 0x58 JUMPI DUP1 PUSH4 0xB88D4FDE EQ PUSH2 0x30A JUMPI DUP1 PUSH4 0xC87B56DD EQ PUSH2 0x326 JUMPI DUP1 PUSH4 0xE6A72ACF EQ PUSH2 0x362 JUMPI DUP1 PUSH4 0xE985E9C5 EQ PUSH2 0x39E JUMPI PUSH2 0xF2 JUMP JUMPDEST DUP1 PUSH4 0x70A08231 EQ PUSH2 0x252 JUMPI DUP1 PUSH4 0x95D89B41 EQ PUSH2 0x28E JUMPI DUP1 PUSH4 0xA22CB465 EQ PUSH2 0x2B8 JUMPI DUP1 PUSH4 0xB228D925 EQ PUSH2 0x2E0 JUMPI PUSH2 0xF2 JUMP JUMPDEST DUP1 PUSH4 0x18160DDD GT PUSH2 0xC5 JUMPI DUP1 PUSH4 0x18160DDD EQ PUSH2 0x1B4 JUMPI DUP1 PUSH4 0x23B872DD EQ PUSH2 0x1DE JUMPI DUP1 PUSH4 0x42842E0E EQ PUSH2 0x1FA JUMPI DUP1 PUSH4 0x6352211E EQ PUSH2 0x216 JUMPI PUSH2 0xF2 JUMP JUMPDEST DUP1 PUSH4 0x1FFC9A7 EQ PUSH2 0xF6 JUMPI DUP1 PUSH4 0x6FDDE03 EQ PUSH2 0x132 JUMPI DUP1 PUSH4 0x81812FC EQ PUSH2 0x15C JUMPI DUP1 PUSH4 0x95EA7B3 EQ PUSH2 0x198 JUMPI JUMPDEST PUSH0 DUP1 REVERT JUMPDEST CALLVALUE DUP1 ISZERO PUSH2 0x101 JUMPI PUSH0 DUP1 REVERT JUMPDEST POP PUSH2 0x11C PUSH1 0x4 DUP1 CALLDATASIZE SUB DUP2 ADD SWAP1 PUSH2 0x117 SWAP2 SWAP1 PUSH2 0x11E7 JUMP JUMPDEST PUSH2 0x3DA JUMP JUMPDEST PUSH1 0x40 MLOAD PUSH2 0x129 SWAP2 SWAP1 PUSH2 0x122C JUMP JUMPDEST PUSH1 0x40 MLOAD DUP1 SWAP2 SUB SWAP1 RETURN JUMPDEST CALLVALUE DUP1 ISZERO PUSH2 0x13D JUMPI PUSH0 DUP1 REVERT JUMPDEST POP PUSH2 0x146 PUSH2 0x46B JUMP JUMPDEST PUSH1 0x40 MLOAD PUSH2 0x153 SWAP2 SWAP1 PUSH2 0x12B5 JUMP JUMPDEST PUSH1 0x40 MLOAD DUP1 SWAP2 SUB SWAP1 RETURN JUMPDEST CALLVALUE DUP1 ISZERO PUSH2 0x167 JUMPI PUSH0 DUP1 REVERT JUMPDEST POP PUSH2 0x182 PUSH1 0x4 DUP1 CALLDATASIZE SUB DUP2 ADD SWAP1 PUSH2 0x17D SWAP2 SWAP1 PUSH2 0x1308 JUMP JUMPDEST PUSH2 0x4FB JUMP JUMPDEST PUSH1 0x40 MLOAD PUSH2 0x18F SWAP2 SWAP1 PUSH2 0x1372 JUMP JUMPDEST PUSH1 0x40 MLOAD DUP1 SWAP2 SUB SWAP1 RETURN JUMPDEST PUSH2 0x1B2 PUSH1 0x4 DUP1 CALLDATASIZE SUB DUP2 ADD SWAP1 PUSH2 0x1AD SWAP2 SWAP1 PUSH2 0x13B5 JUMP JUMPDEST PUSH2 0x554 JUMP JUMPDEST STOP JUMPDEST CALLVALUE DUP1 ISZERO PUSH2 0x1BF JUMPI PUSH0 DUP1 REVERT JUMPDEST POP PUSH2 0x1C8 PUSH2 0x564 JUMP JUMPDEST PUSH1 0x40 MLOAD PUSH2 0x1D5 SWAP2 SWAP1 PUSH2 0x1402 JUMP JUMPDEST PUSH1 0x40 MLOAD DUP1 SWAP2 SUB SWAP1 RETURN JUMPDEST PUSH2 0x1F8 PUSH1 0x4 DUP1 CALLDATASIZE SUB DUP2 ADD SWAP1 PUSH2 0x1F3 SWAP2 SWAP1 PUSH2 0x141B JUMP JUMPDEST PUSH2 0x5AF JUMP JUMPDEST STOP JUMPDEST PUSH2 0x214 PUSH1 0x4 DUP1 CALLDATASIZE SUB DUP2 ADD SWAP1 PUSH2 0x20F SWAP2 SWAP1 PUSH2 0x141B JUMP JUMPDEST PUSH2 0x830 JUMP JUMPDEST STOP JUMPDEST CALLVALUE DUP1 ISZERO PUSH2 0x221 JUMPI PUSH0 DUP1 REVERT JUMPDEST POP PUSH2 0x23C PUSH1 0x4 DUP1 CALLDATASIZE SUB DUP2 ADD SWAP1 PUSH2 0x237 SWAP2 SWAP1 PUSH2 0x1308 JUMP JUMPDEST PUSH2 0x84F JUMP JUMPDEST PUSH1 0x40 MLOAD PUSH2 0x249 SWAP2 SWAP1 PUSH2 0x1372 JUMP JUMPDEST PUSH1 0x40 MLOAD DUP1 SWAP2 SUB SWAP1 RETURN JUMPDEST CALLVALUE DUP1 ISZERO PUSH2 0x25D JUMPI PUSH0 DUP1 REVERT JUMPDEST POP PUSH2 0x278 PUSH1 0x4 DUP1 CALLDATASIZE SUB DUP2 ADD SWAP1 PUSH2 0x273 SWAP2 SWAP1 PUSH2 0x146B JUMP JUMPDEST PUSH2 0x860 JUMP JUMPDEST PUSH1 0x40 MLOAD PUSH2 0x285 SWAP2 SWAP1 PUSH2 0x1402 JUMP JUMPDEST PUSH1 0x40 MLOAD DUP1 SWAP2 SUB SWAP1 RETURN JUMPDEST CALLVALUE DUP1 ISZERO PUSH2 0x299 JUMPI PUSH0 DUP1 REVERT JUMPDEST POP PUSH2 0x2A2 PUSH2 0x8F4 JUMP JUMPDEST PUSH1 0x40 MLOAD PUSH2 0x2AF SWAP2 SWAP1 PUSH2 0x12B5 JUMP JUMPDEST PUSH1 0x40 MLOAD DUP1 SWAP2 SUB SWAP1 RETURN JUMPDEST CALLVALUE DUP1 ISZERO PUSH2 0x2C3 JUMPI PUSH0 DUP1 REVERT JUMPDEST POP PUSH2 0x2DE PUSH1 0x4 DUP1 CALLDATASIZE SUB DUP2 ADD SWAP1 PUSH2 0x2D9 SWAP2 SWAP1 PUSH2 0x14C0 JUMP JUMPDEST PUSH2 0x984 JUMP JUMPDEST STOP JUMPDEST CALLVALUE DUP1 ISZERO PUSH2 0x2EB JUMPI PUSH0 DUP1 REVERT JUMPDEST POP PUSH2 0x2F4 PUSH2 0xA8A JUMP JUMPDEST PUSH1 0x40 MLOAD PUSH2 0x301 SWAP2 SWAP1 PUSH2 0x1402 JUMP JUMPDEST PUSH1 0x40 MLOAD DUP1 SWAP2 SUB SWAP1 RETURN JUMPDEST PUSH2 0x324 PUSH1 0x4 DUP1 CALLDATASIZE SUB DUP2 ADD SWAP1 PUSH2 0x31F SWAP2 SWAP1 PUSH2 0x162A JUMP JUMPDEST PUSH2 0xA92 JUMP JUMPDEST STOP JUMPDEST CALLVALUE DUP1 ISZERO PUSH2 0x331 JUMPI PUSH0 DUP1 REVERT JUMPDEST POP PUSH2 0x34C PUSH1 0x4 DUP1 CALLDATASIZE SUB DUP2 ADD SWAP1 PUSH2 0x347 SWAP2 SWAP1 PUSH2 0x1308 JUMP JUMPDEST PUSH2 0xAE3 JUMP JUMPDEST PUSH1 0x40 MLOAD PUSH2 0x359 SWAP2 SWAP1 PUSH2 0x12B5 JUMP JUMPDEST PUSH1 0x40 MLOAD DUP1 SWAP2 SUB SWAP1 RETURN JUMPDEST CALLVALUE DUP1 ISZERO PUSH2 0x36D JUMPI PUSH0 DUP1 REVERT JUMPDEST POP PUSH2 0x388 PUSH1 0x4 DUP1 CALLDATASIZE SUB DUP2 ADD SWAP1 PUSH2 0x383 SWAP2 SWAP1 PUSH2 0x1308 JUMP JUMPDEST PUSH2 0xB5D JUMP JUMPDEST PUSH1 0x40 MLOAD PUSH2 0x395 SWAP2 SWAP1 PUSH2 0x1402 JUMP JUMPDEST PUSH1 0x40 MLOAD DUP1 SWAP2 SUB SWAP1 RETURN JUMPDEST CALLVALUE DUP1 ISZERO PUSH2 0x3A9 JUMPI PUSH0 DUP1 REVERT JUMPDEST POP PUSH2 0x3C4 PUSH1 0x4 DUP1 CALLDATASIZE SUB DUP2 ADD SWAP1 PUSH2 0x3BF SWAP2 SWAP1 PUSH2 0x16AA JUMP JUMPDEST PUSH2 0xB71 JUMP JUMPDEST PUSH1 0x40 MLOAD PUSH2 0x3D1 SWAP2 SWAP1 PUSH2 0x122C JUMP JUMPDEST PUSH1 0x40 MLOAD DUP1 SWAP2 SUB SWAP1 RETURN JUMPDEST PUSH0 PUSH4 0x1FFC9A7 PUSH1 0xE0 SHL DUP3 PUSH28 0xFFFFFFFFFFFFFFFFFFFFFFFFFFFFFFFFFFFFFFFFFFFFFFFFFFFFFFFF NOT AND EQ DUP1 PUSH2 0x434 JUMPI POP PUSH4 0x80AC58CD PUSH1 0xE0 SHL DUP3 PUSH28 0xFFFFFFFFFFFFFFFFFFFFFFFFFFFFFFFFFFFFFFFFFFFFFFFFFFFFFFFF NOT AND EQ JUMPDEST DUP1 PUSH2 0x464 JUMPI POP PUSH4 0x5B5E139F PUSH1 0xE0 SHL DUP3 PUSH28 0xFFFFFFFFFFFFFFFFFFFFFFFFFFFFFFFFFFFFFFFFFFFFFFFFFFFFFFFF NOT AND EQ JUMPDEST SWAP1 POP SWAP2 SWAP1 POP JUMP JUMPDEST PUSH1 0x60 PUSH1 0x2 DUP1 SLOAD PUSH2 0x47A SWAP1 PUSH2 0x1715 JUMP JUMPDEST DUP1 PUSH1 0x1F ADD PUSH1 0x20 DUP1 SWAP2 DIV MUL PUSH1 0x20 ADD PUSH1 0x40 MLOAD SWAP1 DUP2 ADD PUSH1 0x40 MSTORE DUP1 SWAP3 SWAP2 SWAP1 DUP2 DUP2 MSTORE PUSH1 0x20 ADD DUP3 DUP1 SLOAD PUSH2 0x4A6 SWAP1 PUSH2 0x1715 JUMP JUMPDEST DUP1 ISZERO PUSH2 0x4F1 JUMPI DUP1 PUSH1 0x1F LT PUSH2 0x4C8 JUMPI PUSH2 0x100 DUP1 DUP4 SLOAD DIV MUL DUP4 MSTORE SWAP2 PUSH1 0x20 ADD SWAP2 PUSH2 0x4F1 JUMP JUMPDEST DUP3 ADD SWAP2 SWAP1 PUSH0 MSTORE PUSH1 0x20 PUSH0 KECCAK256 SWAP1 JUMPDEST DUP2 SLOAD DUP2 MSTORE SWAP1 PUSH1 0x1 ADD SWAP1 PUSH1 0x20 ADD DUP1 DUP4 GT PUSH2 0x4D4 JUMPI DUP3 SWAP1 SUB PUSH1 0x1F AND DUP3 ADD SWAP2 JUMPDEST POP POP POP POP POP SWAP1 POP SWAP1 JUMP JUMPDEST PUSH0 PUSH2 0x505 DUP3 PUSH2 0xBFF JUMP JUMPDEST PUSH2 0x51A JUMPI PUSH2 0x519 PUSH4 0xCF4700E4 PUSH1 0xE0 SHL PUSH2 0xCA2 JUMP JUMPDEST JUMPDEST PUSH1 0x6 PUSH0 DUP4 DUP2 MSTORE PUSH1 0x20 ADD SWAP1 DUP2 MSTORE PUSH1 0x20 ADD PUSH0 KECCAK256 PUSH0 ADD PUSH0 SWAP1 SLOAD SWAP1 PUSH2 0x100 EXP SWAP1 DIV PUSH20 0xFFFFFFFFFFFFFFFFFFFFFFFFFFFFFFFFFFFFFFFF AND SWAP1 POP SWAP2 SWAP1 POP JUMP JUMPDEST PUSH2 0x560 DUP3 DUP3 PUSH1 0x1 PUSH2 0xCAA JUMP JUMPDEST POP POP JUMP JUMPDEST PUSH0 PUSH2 0x56D PUSH2 0xDD4 JUMP JUMPDEST PUSH1 0x1 SLOAD PUSH0 SLOAD SUB SUB SWAP1 POP PUSH32 0xFFFFFFFFFFFFFFFFFFFFFFFFFFFFFFFFFFFFFFFFFFFFFFFFFFFFFFFFFFFFFFFF PUSH2 0x59F PUSH2 0xDDC JUMP JUMPDEST EQ PUSH2 0x5AC JUMPI PUSH1 0x8 SLOAD DUP2 ADD SWAP1 POP JUMPDEST SWAP1 JUMP JUMPDEST PUSH0 PUSH2 0x5B9 DUP3 PUSH2 0xE03 JUMP JUMPDEST SWAP1 POP PUSH0 DUP5 PUSH20 0xFFFFFFFFFFFFFFFFFFFFFFFFFFFFFFFFFFFFFFFF AND SWAP1 POP DUP1 DUP3 PUSH20 0xFFFFFFFFFFFFFFFFFFFFFFFFFFFFFFFFFFFFFFFF AND EQ PUSH2 0x603 JUMPI PUSH2 0x602 PUSH4 0xA1148100 PUSH1 0xE0 SHL PUSH2 0xCA2 JUMP JUMPDEST JUMPDEST PUSH0 DUP1 PUSH2 0x60E DUP6 PUSH2 0xF12 JUMP JUMPDEST SWAP2 POP SWAP2 POP PUSH2 0x63A DUP2 DUP5 PUSH2 0x61F PUSH2 0xF35 JUMP JUMPDEST PUSH20 0xFFFFFFFFFFFFFFFFFFFFFFFFFFFFFFFFFFFFFFFF AND PUSH2 0xF3C JUMP JUMPDEST PUSH2 0x665 JUMPI PUSH2 0x64F DUP8 PUSH2 0x64A PUSH2 0xF35 JUMP JUMPDEST PUSH2 0xB71 JUMP JUMPDEST PUSH2 0x664 JUMPI PUSH2 0x663 PUSH4 0x59C896BE PUSH1 0xE0 SHL PUSH2 0xCA2 JUMP JUMPDEST JUMPDEST JUMPDEST PUSH2 0x672 DUP8 DUP8 DUP8 PUSH1 0x1 PUSH2 0xF4D JUMP JUMPDEST DUP1 ISZERO PUSH2 0x67C JUMPI PUSH0 DUP3 SSTORE JUMPDEST PUSH1 0x5 PUSH0 DUP9 PUSH20 0xFFFFFFFFFFFFFFFFFFFFFFFFFFFFFFFFFFFFFFFF AND PUSH20 0xFFFFFFFFFFFFFFFFFFFFFFFFFFFFFFFFFFFFFFFF AND DUP2 MSTORE PUSH1 0x20 ADD SWAP1 DUP2 MSTORE PUSH1 0x20 ADD PUSH0 KECCAK256 PUSH0 DUP2 SLOAD PUSH1 0x1 SWAP1 SUB SWAP2 SWAP1 POP DUP2 SWAP1 SSTORE POP PUSH1 0x5 PUSH0 DUP8 PUSH20 0xFFFFFFFFFFFFFFFFFFFFFFFFFFFFFFFFFFFFFFFF AND PUSH20 0xFFFFFFFFFFFFFFFFFFFFFFFFFFFFFFFFFFFFFFFF AND DUP2 MSTORE PUSH1 0x20 ADD SWAP1 DUP2 MSTORE PUSH1 0x20 ADD PUSH0 KECCAK256 PUSH0 DUP2 SLOAD PUSH1 0x1 ADD SWAP2 SWAP1 POP DUP2 SWAP1 SSTORE POP PUSH2 0x744 DUP7 PUSH2 0x720 DUP10 DUP10 DUP9 PUSH2 0xF53 JUMP JUMPDEST PUSH29 0x200000000000000000000000000000000000000000000000000000000 OR PUSH2 0xF7A JUMP JUMPDEST PUSH1 0x4 PUSH0 DUP8 DUP2 MSTORE PUSH1 0x20 ADD SWAP1 DUP2 MSTORE PUSH1 0x20 ADD PUSH0 KECCAK256 DUP2 SWAP1 SSTORE POP PUSH0 PUSH29 0x200000000000000000000000000000000000000000000000000000000 DUP6 AND SUB PUSH2 0x7C0 JUMPI PUSH0 PUSH1 0x1 DUP7 ADD SWAP1 POP PUSH0 PUSH1 0x4 PUSH0 DUP4 DUP2 MSTORE PUSH1 0x20 ADD SWAP1 DUP2 MSTORE PUSH1 0x20 ADD PUSH0 KECCAK256 SLOAD SUB PUSH2 0x7BE JUMPI PUSH0 SLOAD DUP2 EQ PUSH2 0x7BD JUMPI DUP5 PUSH1 0x4 PUSH0 DUP4 DUP2 MSTORE PUSH1 0x20 ADD SWAP1 DUP2 MSTORE PUSH1 0x20 ADD PUSH0 KECCAK256 DUP2 SWAP1 SSTORE POP JUMPDEST JUMPDEST POP JUMPDEST PUSH0 DUP7 PUSH20 0xFFFFFFFFFFFFFFFFFFFFFFFFFFFFFFFFFFFFFFFF AND SWAP1 POP DUP6 DUP2 DUP6 PUSH32 0xDDF252AD1BE2C89B69C2B068FC378DAA952BA7F163C4A11628F55A4DF523B3EF PUSH0 DUP1 LOG4 PUSH0 DUP2 SUB PUSH2 0x819 JUMPI PUSH2 0x818 PUSH4 0xEA553B34 PUSH1 0xE0 SHL PUSH2 0xCA2 JUMP JUMPDEST JUMPDEST PUSH2 0x826 DUP9 DUP9 DUP9 PUSH1 0x1 PUSH2 0xFA4 JUMP JUMPDEST POP POP POP POP POP POP POP POP JUMP JUMPDEST PUSH2 0x84A DUP4 DUP4 DUP4 PUSH1 0x40 MLOAD DUP1 PUSH1 0x20 ADD PUSH1 0x40 MSTORE DUP1 PUSH0 DUP2 MSTORE POP PUSH2 0xA92 JUMP JUMPDEST POP POP POP JUMP JUMPDEST PUSH0 PUSH2 0x859 DUP3 PUSH2 0xE03 JUMP JUMPDEST SWAP1 POP SWAP2 SWAP1 POP JUMP JUMPDEST PUSH0 DUP1 PUSH20 0xFFFFFFFFFFFFFFFFFFFFFFFFFFFFFFFFFFFFFFFF AND DUP3 PUSH20 0xFFFFFFFFFFFFFFFFFFFFFFFFFFFFFFFFFFFFFFFF AND SUB PUSH2 0x8A5 JUMPI PUSH2 0x8A4 PUSH4 0x8F4EB604 PUSH1 0xE0 SHL PUSH2 0xCA2 JUMP JUMPDEST JUMPDEST PUSH8 0xFFFFFFFFFFFFFFFF PUSH1 0x5 PUSH0 DUP5 PUSH20 0xFFFFFFFFFFFFFFFFFFFFFFFFFFFFFFFFFFFFFFFF AND PUSH20 0xFFFFFFFFFFFFFFFFFFFFFFFFFFFFFFFFFFFFFFFF AND DUP2 MSTORE PUSH1 0x20 ADD SWAP1 DUP2 MSTORE PUSH1 0x20 ADD PUSH0 KECCAK256 SLOAD AND SWAP1 POP SWAP2 SWAP1 POP JUMP JUMPDEST PUSH1 0x60 PUSH1 0x3 DUP1 SLOAD PUSH2 0x903 SWAP1 PUSH2 0x1715 JUMP JUMPDEST DUP1 PUSH1 0x1F ADD PUSH1 0x20 DUP1 SWAP2 DIV MUL PUSH1 0x20 ADD PUSH1 0x40 MLOAD SWAP1 DUP2 ADD PUSH1 0x40 MSTORE DUP1 SWAP3 SWAP2 SWAP1 DUP2 DUP2 MSTORE PUSH1 0x20 ADD DUP3 DUP1 SLOAD PUSH2 0x92F SWAP1 PUSH2 0x1715 JUMP JUMPDEST DUP1 ISZERO PUSH2 0x97A JUMPI DUP1 PUSH1 0x1F LT PUSH2 0x951 JUMPI PUSH2 0x100 DUP1 DUP4 SLOAD DIV MUL DUP4 MSTORE SWAP2 PUSH1 0x20 ADD SWAP2 PUSH2 0x97A JUMP JUMPDEST DUP3 ADD SWAP2 SWAP1 PUSH0 MSTORE PUSH1 0x20 PUSH0 KECCAK256 SWAP1 JUMPDEST DUP2 SLOAD DUP2 MSTORE SWAP1 PUSH1 0x1 ADD SWAP1 PUSH1 0x20 ADD DUP1 DUP4 GT PUSH2 0x95D JUMPI DUP3 SWAP1 SUB PUSH1 0x1F AND DUP3 ADD SWAP2 JUMPDEST POP POP POP POP POP SWAP1 POP SWAP1 JUMP JUMPDEST DUP1 PUSH1 0x7 PUSH0 PUSH2 0x990 PUSH2 0xF35 JUMP JUMPDEST PUSH20 0xFFFFFFFFFFFFFFFFFFFFFFFFFFFFFFFFFFFFFFFF AND PUSH20 0xFFFFFFFFFFFFFFFFFFFFFFFFFFFFFFFFFFFFFFFF AND DUP2 MSTORE PUSH1 0x20 ADD SWAP1 DUP2 MSTORE PUSH1 0x20 ADD PUSH0 KECCAK256 PUSH0 DUP5 PUSH20 0xFFFFFFFFFFFFFFFFFFFFFFFFFFFFFFFFFFFFFFFF AND PUSH20 0xFFFFFFFFFFFFFFFFFFFFFFFFFFFFFFFFFFFFFFFF AND DUP2 MSTORE PUSH1 0x20 ADD SWAP1 DUP2 MSTORE PUSH1 0x20 ADD PUSH0 KECCAK256 PUSH0 PUSH2 0x100 EXP DUP2 SLOAD DUP2 PUSH1 0xFF MUL NOT AND SWAP1 DUP4 ISZERO ISZERO MUL OR SWAP1 SSTORE POP DUP2 PUSH20 0xFFFFFFFFFFFFFFFFFFFFFFFFFFFFFFFFFFFFFFFF AND PUSH2 0xA39 PUSH2 0xF35 JUMP JUMPDEST PUSH20 0xFFFFFFFFFFFFFFFFFFFFFFFFFFFFFFFFFFFFFFFF AND PUSH32 0x17307EAB39AB6107E8899845AD3D59BD9653F200F220920489CA2B5937696C31 DUP4 PUSH1 0x40 MLOAD PUSH2 0xA7E SWAP2 SWAP1 PUSH2 0x122C JUMP JUMPDEST PUSH1 0x40 MLOAD DUP1 SWAP2 SUB SWAP1 LOG3 POP POP JUMP JUMPDEST PUSH0 PUSH1 0x1 SWAP1 POP SWAP1 JUMP JUMPDEST PUSH2 0xA9D DUP5 DUP5 DUP5 PUSH2 0x5AF JUMP JUMPDEST PUSH0 DUP4 PUSH20 0xFFFFFFFFFFFFFFFFFFFFFFFFFFFFFFFFFFFFFFFF AND EXTCODESIZE EQ PUSH2 0xADD JUMPI PUSH2 0xAC7 DUP5 DUP5 DUP5 DUP5 PUSH2 0xFAA JUMP JUMPDEST PUSH2 0xADC JUMPI PUSH2 0xADB PUSH4 0xD1A57ED6 PUSH1 0xE0 SHL PUSH2 0xCA2 JUMP JUMPDEST JUMPDEST JUMPDEST POP POP POP POP JUMP JUMPDEST PUSH1 0x60 PUSH2 0xAEE DUP3 PUSH2 0xBFF JUMP JUMPDEST PUSH2 0xB03 JUMPI PUSH2 0xB02 PUSH4 0xA14C4B50 PUSH1 0xE0 SHL PUSH2 0xCA2 JUMP JUMPDEST JUMPDEST PUSH0 PUSH2 0xB0C PUSH2 0x10D4 JUMP JUMPDEST SWAP1 POP PUSH0 DUP2 MLOAD SUB PUSH2 0xB2A JUMPI PUSH1 0x40 MLOAD DUP1 PUSH1 0x20 ADD PUSH1 0x40 MSTORE DUP1 PUSH0 DUP2 MSTORE POP PUSH2 0xB55 JUMP JUMPDEST DUP1 PUSH2 0xB34 DUP5 PUSH2 0x10EA JUMP JUMPDEST PUSH1 0x40 MLOAD PUSH1 0x20 ADD PUSH2 0xB45 SWAP3 SWAP2 SWAP1 PUSH2 0x177F JUMP JUMPDEST PUSH1 0x40 MLOAD PUSH1 0x20 DUP2 DUP4 SUB SUB DUP2 MSTORE SWAP1 PUSH1 0x40 MSTORE JUMPDEST SWAP2 POP POP SWAP2 SWAP1 POP JUMP JUMPDEST PUSH0 DUP1 DUP3 PUSH2 0xB6A SWAP2 SWAP1 PUSH2 0x17CF JUMP JUMPDEST SWAP1 POP SWAP2 SWAP1 POP JUMP JUMPDEST PUSH0 PUSH1 0x7 PUSH0 DUP5 PUSH20 0xFFFFFFFFFFFFFFFFFFFFFFFFFFFFFFFFFFFFFFFF AND PUSH20 0xFFFFFFFFFFFFFFFFFFFFFFFFFFFFFFFFFFFFFFFF AND DUP2 MSTORE PUSH1 0x20 ADD SWAP1 DUP2 MSTORE PUSH1 0x20 ADD PUSH0 KECCAK256 PUSH0 DUP4 PUSH20 0xFFFFFFFFFFFFFFFFFFFFFFFFFFFFFFFFFFFFFFFF AND PUSH20 0xFFFFFFFFFFFFFFFFFFFFFFFFFFFFFFFFFFFFFFFF AND DUP2 MSTORE PUSH1 0x20 ADD SWAP1 DUP2 MSTORE PUSH1 0x20 ADD PUSH0 KECCAK256 PUSH0 SWAP1 SLOAD SWAP1 PUSH2 0x100 EXP SWAP1 DIV PUSH1 0xFF AND SWAP1 POP SWAP3 SWAP2 POP POP JUMP JUMPDEST PUSH0 DUP2 PUSH2 0xC09 PUSH2 0xDD4 JUMP JUMPDEST GT PUSH2 0xC9C JUMPI PUSH2 0xC16 PUSH2 0xDDC JUMP JUMPDEST DUP3 GT ISZERO PUSH2 0xC3E JUMPI PUSH2 0xC37 PUSH1 0x4 PUSH0 DUP5 DUP2 MSTORE PUSH1 0x20 ADD SWAP1 DUP2 MSTORE PUSH1 0x20 ADD PUSH0 KECCAK256 SLOAD PUSH2 0x1139 JUMP JUMPDEST SWAP1 POP PUSH2 0xC9D JUMP JUMPDEST PUSH0 SLOAD DUP3 LT ISZERO PUSH2 0xC9B JUMPI PUSH0 JUMPDEST PUSH0 PUSH1 0x4 PUSH0 DUP6 DUP2 MSTORE PUSH1 0x20 ADD SWAP1 DUP2 MSTORE PUSH1 0x20 ADD PUSH0 KECCAK256 SLOAD SWAP2 POP DUP2 SUB PUSH2 0xC75 JUMPI DUP3 PUSH2 0xC6E SWAP1 PUSH2 0x1810 JUMP JUMPDEST SWAP3 POP PUSH2 0xC49 JUMP JUMPDEST PUSH0 PUSH29 0x100000000000000000000000000000000000000000000000000000000 DUP3 AND EQ SWAP2 POP POP JUMPDEST JUMPDEST JUMPDEST SWAP2 SWAP1 POP JUMP JUMPDEST DUP1 PUSH0 MSTORE PUSH1 0x4 PUSH0 REVERT JUMPDEST PUSH0 PUSH2 0xCB4 DUP4 PUSH2 0x84F JUMP JUMPDEST SWAP1 POP DUP2 DUP1 ISZERO PUSH2 0xCF6 JUMPI POP DUP1 PUSH20 0xFFFFFFFFFFFFFFFFFFFFFFFFFFFFFFFFFFFFFFFF AND PUSH2 0xCDD PUSH2 0xF35 JUMP JUMPDEST PUSH20 0xFFFFFFFFFFFFFFFFFFFFFFFFFFFFFFFFFFFFFFFF AND EQ ISZERO JUMPDEST ISZERO PUSH2 0xD22 JUMPI PUSH2 0xD0C DUP2 PUSH2 0xD07 PUSH2 0xF35 JUMP JUMPDEST PUSH2 0xB71 JUMP JUMPDEST PUSH2 0xD21 JUMPI PUSH2 0xD20 PUSH4 0xCFB3B942 PUSH1 0xE0 SHL PUSH2 0xCA2 JUMP JUMPDEST JUMPDEST JUMPDEST DUP4 PUSH1 0x6 PUSH0 DUP6 DUP2 MSTORE PUSH1 0x20 ADD SWAP1 DUP2 MSTORE PUSH1 0x20 ADD PUSH0 KECCAK256 PUSH0 ADD PUSH0 PUSH2 0x100 EXP DUP2 SLOAD DUP2 PUSH20 0xFFFFFFFFFFFFFFFFFFFFFFFFFFFFFFFFFFFFFFFF MUL NOT AND SWAP1 DUP4 PUSH20 0xFFFFFFFFFFFFFFFFFFFFFFFFFFFFFFFFFFFFFFFF AND MUL OR SWAP1 SSTORE POP DUP3 DUP5 PUSH20 0xFFFFFFFFFFFFFFFFFFFFFFFFFFFFFFFFFFFFFFFF AND DUP3 PUSH20 0xFFFFFFFFFFFFFFFFFFFFFFFFFFFFFFFFFFFFFFFF AND PUSH32 0x8C5BE1E5EBEC7D5BD14F71427D1E84F3DD0314C0F7B2291E5B200AC8C7C3B925 PUSH1 0x40 MLOAD PUSH1 0x40 MLOAD DUP1 SWAP2 SUB SWAP1 LOG4 POP POP POP POP JUMP JUMPDEST PUSH0 PUSH1 0x1 SWAP1 POP SWAP1 JUMP JUMPDEST PUSH0 PUSH32 0xFFFFFFFFFFFFFFFFFFFFFFFFFFFFFFFFFFFFFFFFFFFFFFFFFFFFFFFFFFFFFFFF SWAP1 POP SWAP1 JUMP JUMPDEST PUSH0 DUP2 PUSH2 0xE0D PUSH2 0xDD4 JUMP JUMPDEST GT PUSH2 0xEFC JUMPI PUSH1 0x4 PUSH0 DUP4 DUP2 MSTORE PUSH1 0x20 ADD SWAP1 DUP2 MSTORE PUSH1 0x20 ADD PUSH0 KECCAK256 SLOAD SWAP1 POP PUSH2 0xE2E PUSH2 0xDDC JUMP JUMPDEST DUP3 GT ISZERO PUSH2 0xE53 JUMPI PUSH2 0xE3E DUP2 PUSH2 0x1139 JUMP JUMPDEST PUSH2 0xF0D JUMPI PUSH2 0xE52 PUSH4 0xDF2D9B42 PUSH1 0xE0 SHL PUSH2 0xCA2 JUMP JUMPDEST JUMPDEST PUSH0 DUP2 SUB PUSH2 0xED4 JUMPI PUSH0 SLOAD DUP3 LT PUSH2 0xE73 JUMPI PUSH2 0xE72 PUSH4 0xDF2D9B42 PUSH1 0xE0 SHL PUSH2 0xCA2 JUMP JUMPDEST JUMPDEST JUMPDEST PUSH1 0x4 PUSH0 DUP4 PUSH1 0x1 SWAP1 SUB SWAP4 POP DUP4 DUP2 MSTORE PUSH1 0x20 ADD SWAP1 DUP2 MSTORE PUSH1 0x20 ADD PUSH0 KECCAK256 SLOAD SWAP1 POP PUSH0 DUP2 SUB ISZERO PUSH2 0xECF JUMPI PUSH0 PUSH29 0x100000000000000000000000000000000000000000000000000000000 DUP3 AND SUB ISZERO PUSH2 0xF0D JUMPI PUSH2 0xECE PUSH4 0xDF2D9B42 PUSH1 0xE0 SHL PUSH2 0xCA2 JUMP JUMPDEST JUMPDEST PUSH2 0xE74 JUMP JUMPDEST PUSH0 PUSH29 0x100000000000000000000000000000000000000000000000000000000 DUP3 AND SUB ISZERO PUSH2 0xF0D JUMPI JUMPDEST PUSH2 0xF0C PUSH4 0xDF2D9B42 PUSH1 0xE0 SHL PUSH2 0xCA2 JUMP JUMPDEST JUMPDEST SWAP2 SWAP1 POP JUMP JUMPDEST PUSH0 DUP1 PUSH0 PUSH1 0x6 PUSH0 DUP6 DUP2 MSTORE PUSH1 0x20 ADD SWAP1 DUP2 MSTORE PUSH1 0x20 ADD PUSH0 KECCAK256 SWAP1 POP DUP1 SWAP3 POP DUP3 SLOAD SWAP2 POP POP SWAP2 POP SWAP2 JUMP JUMPDEST PUSH0 CALLER SWAP1 POP SWAP1 JUMP JUMPDEST PUSH0 DUP4 DUP3 EQ DUP4 DUP4 EQ OR SWAP1 POP SWAP4 SWAP3 POP POP POP JUMP JUMPDEST POP POP POP POP JUMP JUMPDEST PUSH0 DUP1 PUSH1 0xE8 DUP4 SWAP1 SHR SWAP1 POP PUSH1 0xE8 PUSH2 0xF69 DUP7 DUP7 DUP5 PUSH2 0x1179 JUMP JUMPDEST PUSH3 0xFFFFFF AND SWAP1 SHL SWAP2 POP POP SWAP4 SWAP3 POP POP POP JUMP JUMPDEST PUSH0 PUSH20 0xFFFFFFFFFFFFFFFFFFFFFFFFFFFFFFFFFFFFFFFF DUP4 AND SWAP3 POP DUP2 TIMESTAMP PUSH1 0xA0 SHL OR DUP4 OR SWAP1 POP SWAP3 SWAP2 POP POP JUMP JUMPDEST POP POP POP POP JUMP JUMPDEST PUSH0 DUP4 PUSH20 0xFFFFFFFFFFFFFFFFFFFFFFFFFFFFFFFFFFFFFFFF AND PUSH4 0x150B7A02 PUSH2 0xFCF PUSH2 0xF35 JUMP JUMPDEST DUP8 DUP7 DUP7 PUSH1 0x40 MLOAD DUP6 PUSH4 0xFFFFFFFF AND PUSH1 0xE0 SHL DUP2 MSTORE PUSH1 0x4 ADD PUSH2 0xFF1 SWAP5 SWAP4 SWAP3 SWAP2 SWAP1 PUSH2 0x1889 JUMP JUMPDEST PUSH1 0x20 PUSH1 0x40 MLOAD DUP1 DUP4 SUB DUP2 PUSH0 DUP8 GAS CALL SWAP3 POP POP POP DUP1 ISZERO PUSH2 0x102C JUMPI POP PUSH1 0x40 MLOAD RETURNDATASIZE PUSH1 0x1F NOT PUSH1 0x1F DUP3 ADD AND DUP3 ADD DUP1 PUSH1 0x40 MSTORE POP DUP2 ADD SWAP1 PUSH2 0x1029 SWAP2 SWAP1 PUSH2 0x18E7 JUMP JUMPDEST PUSH1 0x1 JUMPDEST PUSH2 0x1081 JUMPI RETURNDATASIZE DUP1 PUSH0 DUP2 EQ PUSH2 0x105A JUMPI PUSH1 0x40 MLOAD SWAP2 POP PUSH1 0x1F NOT PUSH1 0x3F RETURNDATASIZE ADD AND DUP3 ADD PUSH1 0x40 MSTORE RETURNDATASIZE DUP3 MSTORE RETURNDATASIZE PUSH0 PUSH1 0x20 DUP5 ADD RETURNDATACOPY PUSH2 0x105F JUMP JUMPDEST PUSH1 0x60 SWAP2 POP JUMPDEST POP PUSH0 DUP2 MLOAD SUB PUSH2 0x1079 JUMPI PUSH2 0x1078 PUSH4 0xD1A57ED6 PUSH1 0xE0 SHL PUSH2 0xCA2 JUMP JUMPDEST JUMPDEST DUP1 MLOAD DUP2 PUSH1 0x20 ADD REVERT JUMPDEST PUSH4 0x150B7A02 PUSH1 0xE0 SHL PUSH28 0xFFFFFFFFFFFFFFFFFFFFFFFFFFFFFFFFFFFFFFFFFFFFFFFFFFFFFFFF NOT AND DUP2 PUSH28 0xFFFFFFFFFFFFFFFFFFFFFFFFFFFFFFFFFFFFFFFFFFFFFFFFFFFFFFFF NOT AND EQ SWAP2 POP POP SWAP5 SWAP4 POP POP POP POP JUMP JUMPDEST PUSH1 0x60 PUSH1 0x40 MLOAD DUP1 PUSH1 0x20 ADD PUSH1 0x40 MSTORE DUP1 PUSH0 DUP2 MSTORE POP SWAP1 POP SWAP1 JUMP JUMPDEST PUSH1 0x60 PUSH1 0xA0 PUSH1 0x40 MLOAD ADD DUP1 PUSH1 0x40 MSTORE PUSH1 0x20 DUP2 SUB SWAP2 POP PUSH0 DUP3 MSTORE DUP2 DUP4 JUMPDEST PUSH1 0x1 ISZERO PUSH2 0x1124 JUMPI PUSH1 0x1 DUP5 SUB SWAP4 POP PUSH1 0xA DUP2 MOD PUSH1 0x30 ADD DUP5 MSTORE8 PUSH1 0xA DUP2 DIV SWAP1 POP DUP1 PUSH2 0x1102 JUMPI JUMPDEST POP DUP3 DUP2 SUB PUSH1 0x20 DUP5 SUB SWAP4 POP DUP1 DUP5 MSTORE POP POP POP SWAP2 SWAP1 POP JUMP JUMPDEST PUSH0 PUSH29 0x100000000000000000000000000000000000000000000000000000000 DUP3 AND PUSH20 0xFFFFFFFFFFFFFFFFFFFFFFFFFFFFFFFFFFFFFFFF DUP4 AND GT SWAP1 POP SWAP2 SWAP1 POP JUMP JUMPDEST PUSH0 SWAP4 SWAP3 POP POP POP JUMP JUMPDEST PUSH0 PUSH1 0x40 MLOAD SWAP1 POP SWAP1 JUMP JUMPDEST PUSH0 DUP1 REVERT JUMPDEST PUSH0 DUP1 REVERT JUMPDEST PUSH0 PUSH32 0xFFFFFFFF00000000000000000000000000000000000000000000000000000000 DUP3 AND SWAP1 POP SWAP2 SWAP1 POP JUMP JUMPDEST PUSH2 0x11C6 DUP2 PUSH2 0x1192 JUMP JUMPDEST DUP2 EQ PUSH2 0x11D0 JUMPI PUSH0 DUP1 REVERT JUMPDEST POP JUMP JUMPDEST PUSH0 DUP2 CALLDATALOAD SWAP1 POP PUSH2 0x11E1 DUP2 PUSH2 0x11BD JUMP JUMPDEST SWAP3 SWAP2 POP POP JUMP JUMPDEST PUSH0 PUSH1 0x20 DUP3 DUP5 SUB SLT ISZERO PUSH2 0x11FC JUMPI PUSH2 0x11FB PUSH2 0x118A JUMP JUMPDEST JUMPDEST PUSH0 PUSH2 0x1209 DUP5 DUP3 DUP6 ADD PUSH2 0x11D3 JUMP JUMPDEST SWAP2 POP POP SWAP3 SWAP2 POP POP JUMP JUMPDEST PUSH0 DUP2 ISZERO ISZERO SWAP1 POP SWAP2 SWAP1 POP JUMP JUMPDEST PUSH2 0x1226 DUP2 PUSH2 0x1212 JUMP JUMPDEST DUP3 MSTORE POP POP JUMP JUMPDEST PUSH0 PUSH1 0x20 DUP3 ADD SWAP1 POP PUSH2 0x123F PUSH0 DUP4 ADD DUP5 PUSH2 0x121D JUMP JUMPDEST SWAP3 SWAP2 POP POP JUMP JUMPDEST PUSH0 DUP2 MLOAD SWAP1 POP SWAP2 SWAP1 POP JUMP JUMPDEST PUSH0 DUP3 DUP3 MSTORE PUSH1 0x20 DUP3 ADD SWAP1 POP SWAP3 SWAP2 POP POP JUMP JUMPDEST DUP3 DUP2 DUP4 MCOPY PUSH0 DUP4 DUP4 ADD MSTORE POP POP POP JUMP JUMPDEST PUSH0 PUSH1 0x1F NOT PUSH1 0x1F DUP4 ADD AND SWAP1 POP SWAP2 SWAP1 POP JUMP JUMPDEST PUSH0 PUSH2 0x1287 DUP3 PUSH2 0x1245 JUMP JUMPDEST PUSH2 0x1291 DUP2 DUP6 PUSH2 0x124F JUMP JUMPDEST SWAP4 POP PUSH2 0x12A1 DUP2 DUP6 PUSH1 0x20 DUP7 ADD PUSH2 0x125F JUMP JUMPDEST PUSH2 0x12AA DUP2 PUSH2 0x126D JUMP JUMPDEST DUP5 ADD SWAP2 POP POP SWAP3 SWAP2 POP POP JUMP JUMPDEST PUSH0 PUSH1 0x20 DUP3 ADD SWAP1 POP DUP2 DUP2 SUB PUSH0 DUP4 ADD MSTORE PUSH2 0x12CD DUP2 DUP5 PUSH2 0x127D JUMP JUMPDEST SWAP1 POP SWAP3 SWAP2 POP POP JUMP JUMPDEST PUSH0 DUP2 SWAP1 POP SWAP2 SWAP1 POP JUMP JUMPDEST PUSH2 0x12E7 DUP2 PUSH2 0x12D5 JUMP JUMPDEST DUP2 EQ PUSH2 0x12F1 JUMPI PUSH0 DUP1 REVERT JUMPDEST POP JUMP JUMPDEST PUSH0 DUP2 CALLDATALOAD SWAP1 POP PUSH2 0x1302 DUP2 PUSH2 0x12DE JUMP JUMPDEST SWAP3 SWAP2 POP POP JUMP JUMPDEST PUSH0 PUSH1 0x20 DUP3 DUP5 SUB SLT ISZERO PUSH2 0x131D JUMPI PUSH2 0x131C PUSH2 0x118A JUMP JUMPDEST JUMPDEST PUSH0 PUSH2 0x132A DUP5 DUP3 DUP6 ADD PUSH2 0x12F4 JUMP JUMPDEST SWAP2 POP POP SWAP3 SWAP2 POP POP JUMP JUMPDEST PUSH0 PUSH20 0xFFFFFFFFFFFFFFFFFFFFFFFFFFFFFFFFFFFFFFFF DUP3 AND SWAP1 POP SWAP2 SWAP1 POP JUMP JUMPDEST PUSH0 PUSH2 0x135C DUP3 PUSH2 0x1333 JUMP JUMPDEST SWAP1 POP SWAP2 SWAP1 POP JUMP JUMPDEST PUSH2 0x136C DUP2 PUSH2 0x1352 JUMP JUMPDEST DUP3 MSTORE POP POP JUMP JUMPDEST PUSH0 PUSH1 0x20 DUP3 ADD SWAP1 POP PUSH2 0x1385 PUSH0 DUP4 ADD DUP5 PUSH2 0x1363 JUMP JUMPDEST SWAP3 SWAP2 POP POP JUMP JUMPDEST PUSH2 0x1394 DUP2 PUSH2 0x1352 JUMP JUMPDEST DUP2 EQ PUSH2 0x139E JUMPI PUSH0 DUP1 REVERT JUMPDEST POP JUMP JUMPDEST PUSH0 DUP2 CALLDATALOAD SWAP1 POP PUSH2 0x13AF DUP2 PUSH2 0x138B JUMP JUMPDEST SWAP3 SWAP2 POP POP JUMP JUMPDEST PUSH0 DUP1 PUSH1 0x40 DUP4 DUP6 SUB SLT ISZERO PUSH2 0x13CB JUMPI PUSH2 0x13CA PUSH2 0x118A JUMP JUMPDEST JUMPDEST PUSH0 PUSH2 0x13D8 DUP6 DUP3 DUP7 ADD PUSH2 0x13A1 JUMP JUMPDEST SWAP3 POP POP PUSH1 0x20 PUSH2 0x13E9 DUP6 DUP3 DUP7 ADD PUSH2 0x12F4 JUMP JUMPDEST SWAP2 POP POP SWAP3 POP SWAP3 SWAP1 POP JUMP JUMPDEST PUSH2 0x13FC DUP2 PUSH2 0x12D5 JUMP JUMPDEST DUP3 MSTORE POP POP JUMP JUMPDEST PUSH0 PUSH1 0x20 DUP3 ADD SWAP1 POP PUSH2 0x1415 PUSH0 DUP4 ADD DUP5 PUSH2 0x13F3 JUMP JUMPDEST SWAP3 SWAP2 POP POP JUMP JUMPDEST PUSH0 DUP1 PUSH0 PUSH1 0x60 DUP5 DUP7 SUB SLT ISZERO PUSH2 0x1432 JUMPI PUSH2 0x1431 PUSH2 0x118A JUMP JUMPDEST JUMPDEST PUSH0 PUSH2 0x143F DUP7 DUP3 DUP8 ADD PUSH2 0x13A1 JUMP JUMPDEST SWAP4 POP POP PUSH1 0x20 PUSH2 0x1450 DUP7 DUP3 DUP8 ADD PUSH2 0x13A1 JUMP JUMPDEST SWAP3 POP POP PUSH1 0x40 PUSH2 0x1461 DUP7 DUP3 DUP8 ADD PUSH2 0x12F4 JUMP JUMPDEST SWAP2 POP POP SWAP3 POP SWAP3 POP SWAP3 JUMP JUMPDEST PUSH0 PUSH1 0x20 DUP3 DUP5 SUB SLT ISZERO PUSH2 0x1480 JUMPI PUSH2 0x147F PUSH2 0x118A JUMP JUMPDEST JUMPDEST PUSH0 PUSH2 0x148D DUP5 DUP3 DUP6 ADD PUSH2 0x13A1 JUMP JUMPDEST SWAP2 POP POP SWAP3 SWAP2 POP POP JUMP JUMPDEST PUSH2 0x149F DUP2 PUSH2 0x1212 JUMP JUMPDEST DUP2 EQ PUSH2 0x14A9 JUMPI PUSH0 DUP1 REVERT JUMPDEST POP JUMP JUMPDEST PUSH0 DUP2 CALLDATALOAD SWAP1 POP PUSH2 0x14BA DUP2 PUSH2 0x1496 JUMP JUMPDEST SWAP3 SWAP2 POP POP JUMP JUMPDEST PUSH0 DUP1 PUSH1 0x40 DUP4 DUP6 SUB SLT ISZERO PUSH2 0x14D6 JUMPI PUSH2 0x14D5 PUSH2 0x118A JUMP JUMPDEST JUMPDEST PUSH0 PUSH2 0x14E3 DUP6 DUP3 DUP7 ADD PUSH2 0x13A1 JUMP JUMPDEST SWAP3 POP POP PUSH1 0x20 PUSH2 0x14F4 DUP6 DUP3 DUP7 ADD PUSH2 0x14AC JUMP JUMPDEST SWAP2 POP POP SWAP3 POP SWAP3 SWAP1 POP JUMP JUMPDEST PUSH0 DUP1 REVERT JUMPDEST PUSH0 DUP1 REVERT JUMPDEST PUSH32 0x4E487B7100000000000000000000000000000000000000000000000000000000 PUSH0 MSTORE PUSH1 0x41 PUSH1 0x4 MSTORE PUSH1 0x24 PUSH0 REVERT JUMPDEST PUSH2 0x153C DUP3 PUSH2 0x126D JUMP JUMPDEST DUP2 ADD DUP2 DUP2 LT PUSH8 0xFFFFFFFFFFFFFFFF DUP3 GT OR ISZERO PUSH2 0x155B JUMPI PUSH2 0x155A PUSH2 0x1506 JUMP JUMPDEST JUMPDEST DUP1 PUSH1 0x40 MSTORE POP POP POP JUMP JUMPDEST PUSH0 PUSH2 0x156D PUSH2 0x1181 JUMP JUMPDEST SWAP1 POP PUSH2 0x1579 DUP3 DUP3 PUSH2 0x1533 JUMP JUMPDEST SWAP2 SWAP1 POP JUMP JUMPDEST PUSH0 PUSH8 0xFFFFFFFFFFFFFFFF DUP3 GT ISZERO PUSH2 0x1598 JUMPI PUSH2 0x1597 PUSH2 0x1506 JUMP JUMPDEST JUMPDEST PUSH2 0x15A1 DUP3 PUSH2 0x126D JUMP JUMPDEST SWAP1 POP PUSH1 0x20 DUP2 ADD SWAP1 POP SWAP2 SWAP1 POP JUMP JUMPDEST DUP3 DUP2 DUP4 CALLDATACOPY PUSH0 DUP4 DUP4 ADD MSTORE POP POP POP JUMP JUMPDEST PUSH0 PUSH2 0x15CE PUSH2 0x15C9 DUP5 PUSH2 0x157E JUMP JUMPDEST PUSH2 0x1564 JUMP JUMPDEST SWAP1 POP DUP3 DUP2 MSTORE PUSH1 0x20 DUP2 ADD DUP5 DUP5 DUP5 ADD GT ISZERO PUSH2 0x15EA JUMPI PUSH2 0x15E9 PUSH2 0x1502 JUMP JUMPDEST JUMPDEST PUSH2 0x15F5 DUP5 DUP3 DUP6 PUSH2 0x15AE JUMP JUMPDEST POP SWAP4 SWAP3 POP POP POP JUMP JUMPDEST PUSH0 DUP3 PUSH1 0x1F DUP4 ADD SLT PUSH2 0x1611 JUMPI PUSH2 0x1610 PUSH2 0x14FE JUMP JUMPDEST JUMPDEST DUP2 CALLDATALOAD PUSH2 0x1621 DUP5 DUP3 PUSH1 0x20 DUP7 ADD PUSH2 0x15BC JUMP JUMPDEST SWAP2 POP POP SWAP3 SWAP2 POP POP JUMP JUMPDEST PUSH0 DUP1 PUSH0 DUP1 PUSH1 0x80 DUP6 DUP8 SUB SLT ISZERO PUSH2 0x1642 JUMPI PUSH2 0x1641 PUSH2 0x118A JUMP JUMPDEST JUMPDEST PUSH0 PUSH2 0x164F DUP8 DUP3 DUP9 ADD PUSH2 0x13A1 JUMP JUMPDEST SWAP5 POP POP PUSH1 0x20 PUSH2 0x1660 DUP8 DUP3 DUP9 ADD PUSH2 0x13A1 JUMP JUMPDEST SWAP4 POP POP PUSH1 0x40 PUSH2 0x1671 DUP8 DUP3 DUP9 ADD PUSH2 0x12F4 JUMP JUMPDEST SWAP3 POP POP PUSH1 0x60 DUP6 ADD CALLDATALOAD PUSH8 0xFFFFFFFFFFFFFFFF DUP2 GT ISZERO PUSH2 0x1692 JUMPI PUSH2 0x1691 PUSH2 0x118E JUMP JUMPDEST JUMPDEST PUSH2 0x169E DUP8 DUP3 DUP9 ADD PUSH2 0x15FD JUMP JUMPDEST SWAP2 POP POP SWAP3 SWAP6 SWAP2 SWAP5 POP SWAP3 POP JUMP JUMPDEST PUSH0 DUP1 PUSH1 0x40 DUP4 DUP6 SUB SLT ISZERO PUSH2 0x16C0 JUMPI PUSH2 0x16BF PUSH2 0x118A JUMP JUMPDEST JUMPDEST PUSH0 PUSH2 0x16CD DUP6 DUP3 DUP7 ADD PUSH2 0x13A1 JUMP JUMPDEST SWAP3 POP POP PUSH1 0x20 PUSH2 0x16DE DUP6 DUP3 DUP7 ADD PUSH2 0x13A1 JUMP JUMPDEST SWAP2 POP POP SWAP3 POP SWAP3 SWAP1 POP JUMP JUMPDEST PUSH32 0x4E487B7100000000000000000000000000000000000000000000000000000000 PUSH0 MSTORE PUSH1 0x22 PUSH1 0x4 MSTORE PUSH1 0x24 PUSH0 REVERT JUMPDEST PUSH0 PUSH1 0x2 DUP3 DIV SWAP1 POP PUSH1 0x1 DUP3 AND DUP1 PUSH2 0x172C JUMPI PUSH1 0x7F DUP3 AND SWAP2 POP JUMPDEST PUSH1 0x20 DUP3 LT DUP2 SUB PUSH2 0x173F JUMPI PUSH2 0x173E PUSH2 0x16E8 JUMP JUMPDEST JUMPDEST POP SWAP2 SWAP1 POP JUMP JUMPDEST PUSH0 DUP2 SWAP1 POP SWAP3 SWAP2 POP POP JUMP JUMPDEST PUSH0 PUSH2 0x1759 DUP3 PUSH2 0x1245 JUMP JUMPDEST PUSH2 0x1763 DUP2 DUP6 PUSH2 0x1745 JUMP JUMPDEST SWAP4 POP PUSH2 0x1773 DUP2 DUP6 PUSH1 0x20 DUP7 ADD PUSH2 0x125F JUMP JUMPDEST DUP1 DUP5 ADD SWAP2 POP POP SWAP3 SWAP2 POP POP JUMP JUMPDEST PUSH0 PUSH2 0x178A DUP3 DUP6 PUSH2 0x174F JUMP JUMPDEST SWAP2 POP PUSH2 0x1796 DUP3 DUP5 PUSH2 0x174F JUMP JUMPDEST SWAP2 POP DUP2 SWAP1 POP SWAP4 SWAP3 POP POP POP JUMP JUMPDEST PUSH32 0x4E487B7100000000000000000000000000000000000000000000000000000000 PUSH0 MSTORE PUSH1 0x11 PUSH1 0x4 MSTORE PUSH1 0x24 PUSH0 REVERT JUMPDEST PUSH0 PUSH2 0x17D9 DUP3 PUSH2 0x12D5 JUMP JUMPDEST SWAP2 POP PUSH2 0x17E4 DUP4 PUSH2 0x12D5 JUMP JUMPDEST SWAP3 POP DUP3 DUP3 MUL PUSH2 0x17F2 DUP2 PUSH2 0x12D5 JUMP JUMPDEST SWAP2 POP DUP3 DUP3 DIV DUP5 EQ DUP4 ISZERO OR PUSH2 0x1809 JUMPI PUSH2 0x1808 PUSH2 0x17A2 JUMP JUMPDEST JUMPDEST POP SWAP3 SWAP2 POP POP JUMP JUMPDEST PUSH0 PUSH2 0x181A DUP3 PUSH2 0x12D5 JUMP JUMPDEST SWAP2 POP PUSH0 DUP3 SUB PUSH2 0x182C JUMPI PUSH2 0x182B PUSH2 0x17A2 JUMP JUMPDEST JUMPDEST PUSH1 0x1 DUP3 SUB SWAP1 POP SWAP2 SWAP1 POP JUMP JUMPDEST PUSH0 DUP2 MLOAD SWAP1 POP SWAP2 SWAP1 POP JUMP JUMPDEST PUSH0 DUP3 DUP3 MSTORE PUSH1 0x20 DUP3 ADD SWAP1 POP SWAP3 SWAP2 POP POP JUMP JUMPDEST PUSH0 PUSH2 0x185B DUP3 PUSH2 0x1837 JUMP JUMPDEST PUSH2 0x1865 DUP2 DUP6 PUSH2 0x1841 JUMP JUMPDEST SWAP4 POP PUSH2 0x1875 DUP2 DUP6 PUSH1 0x20 DUP7 ADD PUSH2 0x125F JUMP JUMPDEST PUSH2 0x187E DUP2 PUSH2 0x126D JUMP JUMPDEST DUP5 ADD SWAP2 POP POP SWAP3 SWAP2 POP POP JUMP JUMPDEST PUSH0 PUSH1 0x80 DUP3 ADD SWAP1 POP PUSH2 0x189C PUSH0 DUP4 ADD DUP8 PUSH2 0x1363 JUMP JUMPDEST PUSH2 0x18A9 PUSH1 0x20 DUP4 ADD DUP7 PUSH2 0x1363 JUMP JUMPDEST PUSH2 0x18B6 PUSH1 0x40 DUP4 ADD DUP6 PUSH2 0x13F3 JUMP JUMPDEST DUP2 DUP2 SUB PUSH1 0x60 DUP4 ADD MSTORE PUSH2 0x18C8 DUP2 DUP5 PUSH2 0x1851 JUMP JUMPDEST SWAP1 POP SWAP6 SWAP5 POP POP POP POP POP JUMP JUMPDEST PUSH0 DUP2 MLOAD SWAP1 POP PUSH2 0x18E1 DUP2 PUSH2 0x11BD JUMP JUMPDEST SWAP3 SWAP2 POP POP JUMP JUMPDEST PUSH0 PUSH1 0x20 DUP3 DUP5 SUB SLT ISZERO PUSH2 0x18FC JUMPI PUSH2 0x18FB PUSH2 0x118A JUMP JUMPDEST JUMPDEST PUSH0 PUSH2 0x1909 DUP5 DUP3 DUP6 ADD PUSH2 0x18D3 JUMP JUMPDEST SWAP2 POP POP SWAP3 SWAP2 POP POP JUMP INVALID LOG2 PUSH5 0x6970667358 0x22 SLT KECCAK256 SHR CALL 0xC4 MSIZE STOP PUSH5 0x671E2BE5EF BALANCE MOD 0x23 0xCF ISZERO REVERT DUP15 SWAP1 0xD3 AND PUSH18 0xC0279E1FA4A89F38D1A564736F6C63430008 BYTE STOP CALLER "
				},
				"gasEstimates": {
					"creation": {
						"codeDepositCost": "1294400",
						"executionCost": "infinite",
						"totalCost": "infinite"
					},
					"external": {
						"approve(address,uint256)": "infinite",
						"balanceOf(address)": "2893",
						"getApproved(uint256)": "infinite",
						"isApprovedForAll(address,address)": "infinite",
						"maxMintPerWallet()": "421",
						"mintPrice(uint256)": "infinite",
						"name()": "infinite",
						"ownerOf(uint256)": "infinite",
						"safeTransferFrom(address,address,uint256)": "infinite",
						"safeTransferFrom(address,address,uint256,bytes)": "infinite",
						"setApprovalForAll(address,bool)": "infinite",
						"supportsInterface(bytes4)": "736",
						"symbol()": "infinite",
						"tokenURI(uint256)": "infinite",
						"totalSupply()": "4657",
						"transferFrom(address,address,uint256)": "infinite"
					},
					"internal": {
						"_afterTokenTransfers(address,address,uint256,uint256)": "17",
						"_approve(address,uint256)": "infinite",
						"_approve(address,uint256,bool)": "infinite",
						"_baseURI()": "infinite",
						"_batchBurn(address,uint256[] memory)": "infinite",
						"_batchTransferFrom(address,address,address,uint256[] memory)": "infinite",
						"_batchTransferFrom(address,address,uint256[] memory)": "infinite",
						"_beforeTokenTransfers(address,address,uint256,uint256)": "17",
						"_burn(uint256)": "infinite",
						"_burn(uint256,bool)": "infinite",
						"_checkContractOnERC721Received(address,address,uint256,bytes memory)": "infinite",
						"_exists(uint256)": "infinite",
						"_extraData(address,address,uint24)": "23",
						"_getApprovedSlotAndValue(uint256)": "2232",
						"_getAux(address)": "infinite",
						"_initializeOwnershipAt(uint256)": "infinite",
						"_isSenderApprovedOrOwner(uint256,uint256,uint256)": "49",
						"_mdataERC721A(uint256[] memory)": "infinite",
						"_mint(address,uint256)": "infinite",
						"_mintERC2309(address,uint256)": "infinite",
						"_mintSpot(address,uint256)": "infinite",
						"_mloadERC721A(uint256)": "infinite",
						"_msgSenderERC721A()": "21",
						"_nextExtraData(address,address,uint256)": "112",
						"_nextInitializedFlag(uint256)": "infinite",
						"_nextTokenId()": "infinite",
						"_numberBurned(address)": "infinite",
						"_numberMinted(address)": "infinite",
						"_orERC721A(bool,bool)": "infinite",
						"_ownershipAt(uint256)": "infinite",
						"_ownershipIsInitialized(uint256)": "infinite",
						"_ownershipOf(uint256)": "infinite",
						"_packOwnershipData(address,uint256)": "60",
						"_packedOwnershipExists(uint256)": "45",
						"_packedOwnershipOf(uint256)": "infinite",
						"_revert(bytes4)": "17",
						"_safeBatchTransferFrom(address,address,address,uint256[] memory,bytes memory)": "infinite",
						"_safeMint(address,uint256)": "infinite",
						"_safeMint(address,uint256,bytes memory)": "infinite",
						"_safeMintSpot(address,uint256)": "infinite",
						"_safeMintSpot(address,uint256,bytes memory)": "infinite",
						"_sequentialUpTo()": "22",
						"_setAux(address,uint64)": "infinite",
						"_setExtraDataAt(uint256,uint24)": "infinite",
						"_startTokenId()": "22",
						"_toString(uint256)": "infinite",
						"_totalBurned()": "infinite",
						"_totalMinted()": "infinite",
						"_totalSpotMinted()": "infinite",
						"_unpackedOwnership(uint256)": "infinite"
					}
				},
				"methodIdentifiers": {
					"approve(address,uint256)": "095ea7b3",
					"balanceOf(address)": "70a08231",
					"getApproved(uint256)": "081812fc",
					"isApprovedForAll(address,address)": "e985e9c5",
					"maxMintPerWallet()": "b228d925",
					"mintPrice(uint256)": "e6a72acf",
					"name()": "06fdde03",
					"ownerOf(uint256)": "6352211e",
					"safeTransferFrom(address,address,uint256)": "42842e0e",
					"safeTransferFrom(address,address,uint256,bytes)": "b88d4fde",
					"setApprovalForAll(address,bool)": "a22cb465",
					"supportsInterface(bytes4)": "01ffc9a7",
					"symbol()": "95d89b41",
					"tokenURI(uint256)": "c87b56dd",
					"totalSupply()": "18160ddd",
					"transferFrom(address,address,uint256)": "23b872dd"
				}
			},
			"storageLayout": {
				"storage": [
					{
						"astId": 91,
						"contract": "contracts/ERC721A.sol:ERC721A",
						"label": "_currentIndex",
						"offset": 0,
						"slot": "0",
						"type": "t_uint256"
					},
					{
						"astId": 93,
						"contract": "contracts/ERC721A.sol:ERC721A",
						"label": "_burnCounter",
						"offset": 0,
						"slot": "1",
						"type": "t_uint256"
					},
					{
						"astId": 95,
						"contract": "contracts/ERC721A.sol:ERC721A",
						"label": "_name",
						"offset": 0,
						"slot": "2",
						"type": "t_string_storage"
					},
					{
						"astId": 97,
						"contract": "contracts/ERC721A.sol:ERC721A",
						"label": "_symbol",
						"offset": 0,
						"slot": "3",
						"type": "t_string_storage"
					},
					{
						"astId": 101,
						"contract": "contracts/ERC721A.sol:ERC721A",
						"label": "_packedOwnerships",
						"offset": 0,
						"slot": "4",
						"type": "t_mapping(t_uint256,t_uint256)"
					},
					{
						"astId": 105,
						"contract": "contracts/ERC721A.sol:ERC721A",
						"label": "_packedAddressData",
						"offset": 0,
						"slot": "5",
						"type": "t_mapping(t_address,t_uint256)"
					},
					{
						"astId": 110,
						"contract": "contracts/ERC721A.sol:ERC721A",
						"label": "_tokenApprovals",
						"offset": 0,
						"slot": "6",
						"type": "t_mapping(t_uint256,t_struct(TokenApprovalRef)23_storage)"
					},
					{
						"astId": 116,
						"contract": "contracts/ERC721A.sol:ERC721A",
						"label": "_operatorApprovals",
						"offset": 0,
						"slot": "7",
						"type": "t_mapping(t_address,t_mapping(t_address,t_bool))"
					},
					{
						"astId": 118,
						"contract": "contracts/ERC721A.sol:ERC721A",
						"label": "_spotMinted",
						"offset": 0,
						"slot": "8",
						"type": "t_uint256"
					}
				],
				"types": {
					"t_address": {
						"encoding": "inplace",
						"label": "address",
						"numberOfBytes": "20"
					},
					"t_bool": {
						"encoding": "inplace",
						"label": "bool",
						"numberOfBytes": "1"
					},
					"t_mapping(t_address,t_bool)": {
						"encoding": "mapping",
						"key": "t_address",
						"label": "mapping(address => bool)",
						"numberOfBytes": "32",
						"value": "t_bool"
					},
					"t_mapping(t_address,t_mapping(t_address,t_bool))": {
						"encoding": "mapping",
						"key": "t_address",
						"label": "mapping(address => mapping(address => bool))",
						"numberOfBytes": "32",
						"value": "t_mapping(t_address,t_bool)"
					},
					"t_mapping(t_address,t_uint256)": {
						"encoding": "mapping",
						"key": "t_address",
						"label": "mapping(address => uint256)",
						"numberOfBytes": "32",
						"value": "t_uint256"
					},
					"t_mapping(t_uint256,t_struct(TokenApprovalRef)23_storage)": {
						"encoding": "mapping",
						"key": "t_uint256",
						"label": "mapping(uint256 => struct ERC721A.TokenApprovalRef)",
						"numberOfBytes": "32",
						"value": "t_struct(TokenApprovalRef)23_storage"
					},
					"t_mapping(t_uint256,t_uint256)": {
						"encoding": "mapping",
						"key": "t_uint256",
						"label": "mapping(uint256 => uint256)",
						"numberOfBytes": "32",
						"value": "t_uint256"
					},
					"t_string_storage": {
						"encoding": "bytes",
						"label": "string",
						"numberOfBytes": "32"
					},
					"t_struct(TokenApprovalRef)23_storage": {
						"encoding": "inplace",
						"label": "struct ERC721A.TokenApprovalRef",
						"members": [
							{
								"astId": 22,
								"contract": "contracts/ERC721A.sol:ERC721A",
								"label": "value",
								"offset": 0,
								"slot": "0",
								"type": "t_address"
							}
						],
						"numberOfBytes": "32"
					},
					"t_uint256": {
						"encoding": "inplace",
						"label": "uint256",
						"numberOfBytes": "32"
					}
				}
			},
			"userdoc": {
				"errors": {
					"ApprovalCallerNotOwnerNorApproved()": [
						{
							"notice": "The caller must own the token or be an approved operator."
						}
					],
					"ApprovalQueryForNonexistentToken()": [
						{
							"notice": "The token does not exist."
						}
					],
					"BalanceQueryForZeroAddress()": [
						{
							"notice": "Cannot query the balance for the zero address."
						}
					],
					"MintERC2309QuantityExceedsLimit()": [
						{
							"notice": "The `quantity` minted with ERC2309 exceeds the safety limit."
						}
					],
					"MintToZeroAddress()": [
						{
							"notice": "Cannot mint to the zero address."
						}
					],
					"MintZeroQuantity()": [
						{
							"notice": "The quantity of tokens minted must be more than zero."
						}
					],
					"NotCompatibleWithSpotMints()": [
						{
							"notice": "The feature is not compatible with spot mints."
						}
					],
					"OwnerQueryForNonexistentToken()": [
						{
							"notice": "The token does not exist."
						}
					],
					"OwnershipNotInitializedForExtraData()": [
						{
							"notice": "The `extraData` cannot be set on an unintialized ownership slot."
						}
					],
					"SequentialMintExceedsLimit()": [
						{
							"notice": "The `tokenId` of a sequential mint exceeds `_sequentialUpTo()`."
						}
					],
					"SequentialUpToTooSmall()": [
						{
							"notice": "`_sequentialUpTo()` must be greater than `_startTokenId()`."
						}
					],
					"SpotMintTokenIdTooSmall()": [
						{
							"notice": "Spot minting requires a `tokenId` greater than `_sequentialUpTo()`."
						}
					],
					"TokenAlreadyExists()": [
						{
							"notice": "Cannot mint over a token that already exists."
						}
					],
					"TokenIdsNotStrictlyAscending()": [
						{
							"notice": "The `tokenIds` must be strictly ascending."
						}
					],
					"TransferCallerNotOwnerNorApproved()": [
						{
							"notice": "The caller must own the token or be an approved operator."
						}
					],
					"TransferFromIncorrectOwner()": [
						{
							"notice": "The token must be owned by `from`."
						}
					],
					"TransferToNonERC721ReceiverImplementer()": [
						{
							"notice": "Cannot safely transfer to a contract that does not implement the ERC721Receiver interface."
						}
					],
					"TransferToZeroAddress()": [
						{
							"notice": "Cannot transfer to the zero address."
						}
					],
					"URIQueryForNonexistentToken()": [
						{
							"notice": "The token does not exist."
						}
					]
				},
				"kind": "user",
				"methods": {},
				"version": 1
			}
		}
	}
}