{
	"data": {
		"bytecode": {
			"linkReferences": {},
			"object": "608060405234801561000f575f80fd5b50604051611ecf380380611ecf83398181016040528101906100319190610228565b816002908161004091906104ab565b50806003908161005091906104ab565b5061005f6100a460201b60201c565b5f819055506100726100a460201b60201c565b6100806100ac60201b60201c565b101561009d5761009c63fed8210f60e01b6100d360201b60201c565b5b505061057a565b5f6001905090565b5f7fffffffffffffffffffffffffffffffffffffffffffffffffffffffffffffffff905090565b805f5260045ffd5b5f604051905090565b5f80fd5b5f80fd5b5f80fd5b5f80fd5b5f601f19601f8301169050919050565b7f4e487b71000000000000000000000000000000000000000000000000000000005f52604160045260245ffd5b61013a826100f4565b810181811067ffffffffffffffff8211171561015957610158610104565b5b80604052505050565b5f61016b6100db565b90506101778282610131565b919050565b5f67ffffffffffffffff82111561019657610195610104565b5b61019f826100f4565b9050602081019050919050565b8281835e5f83830152505050565b5f6101cc6101c78461017c565b610162565b9050828152602081018484840111156101e8576101e76100f0565b5b6101f38482856101ac565b509392505050565b5f82601f83011261020f5761020e6100ec565b5b815161021f8482602086016101ba565b91505092915050565b5f806040838503121561023e5761023d6100e4565b5b5f83015167ffffffffffffffff81111561025b5761025a6100e8565b5b610267858286016101fb565b925050602083015167ffffffffffffffff811115610288576102876100e8565b5b610294858286016101fb565b9150509250929050565b5f81519050919050565b7f4e487b71000000000000000000000000000000000000000000000000000000005f52602260045260245ffd5b5f60028204905060018216806102ec57607f821691505b6020821081036102ff576102fe6102a8565b5b50919050565b5f819050815f5260205f209050919050565b5f6020601f8301049050919050565b5f82821b905092915050565b5f600883026103617fffffffffffffffffffffffffffffffffffffffffffffffffffffffffffffffff82610326565b61036b8683610326565b95508019841693508086168417925050509392505050565b5f819050919050565b5f819050919050565b5f6103af6103aa6103a584610383565b61038c565b610383565b9050919050565b5f819050919050565b6103c883610395565b6103dc6103d4826103b6565b848454610332565b825550505050565b5f90565b6103f06103e4565b6103fb8184846103bf565b505050565b5b8181101561041e576104135f826103e8565b600181019050610401565b5050565b601f8211156104635761043481610305565b61043d84610317565b8101602085101561044c578190505b61046061045885610317565b830182610400565b50505b505050565b5f82821c905092915050565b5f6104835f1984600802610468565b1980831691505092915050565b5f61049b8383610474565b9150826002028217905092915050565b6104b48261029e565b67ffffffffffffffff8111156104cd576104cc610104565b5b6104d782546102d5565b6104e2828285610422565b5f60209050601f831160018114610513575f8415610501578287015190505b61050b8582610490565b865550610572565b601f19841661052186610305565b5f5b8281101561054857848901518255600182019150602085019450602081019050610523565b868310156105655784890151610561601f891682610474565b8355505b6001600288020188555050505b505050505050565b611948806105875f395ff3fe6080604052600436106100f2575f3560e01c806370a0823111610089578063b88d4fde11610058578063b88d4fde1461030a578063c87b56dd14610326578063e6a72acf14610362578063e985e9c51461039e576100f2565b806370a082311461025257806395d89b411461028e578063a22cb465146102b8578063b228d925146102e0576100f2565b806318160ddd116100c557806318160ddd146101b457806323b872dd146101de57806342842e0e146101fa5780636352211e14610216576100f2565b806301ffc9a7146100f657806306fdde0314610132578063081812fc1461015c578063095ea7b314610198575b5f80fd5b348015610101575f80fd5b5061011c600480360381019061011791906111e7565b6103da565b604051610129919061122c565b60405180910390f35b34801561013d575f80fd5b5061014661046b565b60405161015391906112b5565b60405180910390f35b348015610167575f80fd5b50610182600480360381019061017d9190611308565b6104fb565b60405161018f9190611372565b60405180910390f35b6101b260048036038101906101ad91906113b5565b610554565b005b3480156101bf575f80fd5b506101c8610564565b6040516101d59190611402565b60405180910390f35b6101f860048036038101906101f3919061141b565b6105af565b005b610214600480360381019061020f919061141b565b610830565b005b348015610221575f80fd5b5061023c60048036038101906102379190611308565b61084f565b6040516102499190611372565b60405180910390f35b34801561025d575f80fd5b506102786004803603810190610273919061146b565b610860565b6040516102859190611402565b60405180910390f35b348015610299575f80fd5b506102a26108f4565b6040516102af91906112b5565b60405180910390f35b3480156102c3575f80fd5b506102de60048036038101906102d991906114c0565b610984565b005b3480156102eb575f80fd5b506102f4610a8a565b6040516103019190611402565b60405180910390f35b610324600480360381019061031f919061162a565b610a92565b005b348015610331575f80fd5b5061034c60048036038101906103479190611308565b610ae3565b60405161035991906112b5565b60405180910390f35b34801561036d575f80fd5b5061038860048036038101906103839190611308565b610b5d565b6040516103959190611402565b60405180910390f35b3480156103a9575f80fd5b506103c460048036038101906103bf91906116aa565b610b71565b6040516103d1919061122c565b60405180910390f35b5f6301ffc9a760e01b827bffffffffffffffffffffffffffffffffffffffffffffffffffffffff1916148061043457506380ac58cd60e01b827bffffffffffffffffffffffffffffffffffffffffffffffffffffffff1916145b806104645750635b5e139f60e01b827bffffffffffffffffffffffffffffffffffffffffffffffffffffffff1916145b9050919050565b60606002805461047a90611715565b80601f01602080910402602001604051908101604052809291908181526020018280546104a690611715565b80156104f15780601f106104c8576101008083540402835291602001916104f1565b820191905f5260205f20905b8154815290600101906020018083116104d457829003601f168201915b5050505050905090565b5f61050582610bff565b61051a5761051963cf4700e460e01b610ca2565b5b60065f8381526020019081526020015f205f015f9054906101000a900473ffffffffffffffffffffffffffffffffffffffff169050919050565b61056082826001610caa565b5050565b5f61056d610dd4565b6001545f54030390507fffffffffffffffffffffffffffffffffffffffffffffffffffffffffffffffff61059f610ddc565b146105ac57600854810190505b90565b5f6105b982610e03565b90505f8473ffffffffffffffffffffffffffffffffffffffff169050808273ffffffffffffffffffffffffffffffffffffffff16146106035761060263a114810060e01b610ca2565b5b5f8061060e85610f12565b9150915061063a818461061f610f35565b73ffffffffffffffffffffffffffffffffffffffff16610f3c565b6106655761064f8761064a610f35565b610b71565b610664576106636359c896be60e01b610ca2565b5b5b6106728787876001610f4d565b801561067c575f82555b60055f8873ffffffffffffffffffffffffffffffffffffffff1673ffffffffffffffffffffffffffffffffffffffff1681526020019081526020015f205f8154600190039190508190555060055f8773ffffffffffffffffffffffffffffffffffffffff1673ffffffffffffffffffffffffffffffffffffffff1681526020019081526020015f205f81546001019190508190555061074486610720898988610f53565b7c020000000000000000000000000000000000000000000000000000000017610f7a565b60045f8781526020019081526020015f20819055505f7c02000000000000000000000000000000000000000000000000000000008516036107c0575f6001860190505f60045f8381526020019081526020015f2054036107be575f5481146107bd578460045f8381526020019081526020015f20819055505b5b505b5f8673ffffffffffffffffffffffffffffffffffffffff1690508581857fddf252ad1be2c89b69c2b068fc378daa952ba7f163c4a11628f55a4df523b3ef5f80a45f81036108195761081863ea553b3460e01b610ca2565b5b6108268888886001610fa4565b5050505050505050565b61084a83838360405180602001604052805f815250610a92565b505050565b5f61085982610e03565b9050919050565b5f8073ffffffffffffffffffffffffffffffffffffffff168273ffffffffffffffffffffffffffffffffffffffff16036108a5576108a4638f4eb60460e01b610ca2565b5b67ffffffffffffffff60055f8473ffffffffffffffffffffffffffffffffffffffff1673ffffffffffffffffffffffffffffffffffffffff1681526020019081526020015f2054169050919050565b60606003805461090390611715565b80601f016020809104026020016040519081016040528092919081815260200182805461092f90611715565b801561097a5780601f106109515761010080835404028352916020019161097a565b820191905f5260205f20905b81548152906001019060200180831161095d57829003601f168201915b5050505050905090565b8060075f610990610f35565b73ffffffffffffffffffffffffffffffffffffffff1673ffffffffffffffffffffffffffffffffffffffff1681526020019081526020015f205f8473ffffffffffffffffffffffffffffffffffffffff1673ffffffffffffffffffffffffffffffffffffffff1681526020019081526020015f205f6101000a81548160ff0219169083151502179055508173ffffffffffffffffffffffffffffffffffffffff16610a39610f35565b73ffffffffffffffffffffffffffffffffffffffff167f17307eab39ab6107e8899845ad3d59bd9653f200f220920489ca2b5937696c3183604051610a7e919061122c565b60405180910390a35050565b5f6001905090565b610a9d8484846105af565b5f8373ffffffffffffffffffffffffffffffffffffffff163b14610add57610ac784848484610faa565b610adc57610adb63d1a57ed660e01b610ca2565b5b5b50505050565b6060610aee82610bff565b610b0357610b0263a14c4b5060e01b610ca2565b5b5f610b0c6110d4565b90505f815103610b2a5760405180602001604052805f815250610b55565b80610b34846110ea565b604051602001610b4592919061177f565b6040516020818303038152906040525b915050919050565b5f8082610b6a91906117cf565b9050919050565b5f60075f8473ffffffffffffffffffffffffffffffffffffffff1673ffffffffffffffffffffffffffffffffffffffff1681526020019081526020015f205f8373ffffffffffffffffffffffffffffffffffffffff1673ffffffffffffffffffffffffffffffffffffffff1681526020019081526020015f205f9054906101000a900460ff16905092915050565b5f81610c09610dd4565b11610c9c57610c16610ddc565b821115610c3e57610c3760045f8481526020019081526020015f2054611139565b9050610c9d565b5f54821015610c9b575f5b5f60045f8581526020019081526020015f205491508103610c755782610c6e90611810565b9250610c49565b5f7c01000000000000000000000000000000000000000000000000000000008216149150505b5b5b919050565b805f5260045ffd5b5f610cb48361084f565b9050818015610cf657508073ffffffffffffffffffffffffffffffffffffffff16610cdd610f35565b73ffffffffffffffffffffffffffffffffffffffff1614155b15610d2257610d0c81610d07610f35565b610b71565b610d2157610d2063cfb3b94260e01b610ca2565b5b5b8360065f8581526020019081526020015f205f015f6101000a81548173ffffffffffffffffffffffffffffffffffffffff021916908373ffffffffffffffffffffffffffffffffffffffff160217905550828473ffffffffffffffffffffffffffffffffffffffff168273ffffffffffffffffffffffffffffffffffffffff167f8c5be1e5ebec7d5bd14f71427d1e84f3dd0314c0f7b2291e5b200ac8c7c3b92560405160405180910390a450505050565b5f6001905090565b5f7fffffffffffffffffffffffffffffffffffffffffffffffffffffffffffffffff905090565b5f81610e0d610dd4565b11610efc5760045f8381526020019081526020015f20549050610e2e610ddc565b821115610e5357610e3e81611139565b610f0d57610e5263df2d9b4260e01b610ca2565b5b5f8103610ed4575f548210610e7357610e7263df2d9b4260e01b610ca2565b5b5b60045f836001900393508381526020019081526020015f205490505f810315610ecf575f7c010000000000000000000000000000000000000000000000000000000082160315610f0d57610ece63df2d9b4260e01b610ca2565b5b610e74565b5f7c010000000000000000000000000000000000000000000000000000000082160315610f0d575b610f0c63df2d9b4260e01b610ca2565b5b919050565b5f805f60065f8581526020019081526020015f2090508092508254915050915091565b5f33905090565b5f8382148383141790509392505050565b50505050565b5f8060e883901c905060e8610f69868684611179565b62ffffff16901b9150509392505050565b5f73ffffffffffffffffffffffffffffffffffffffff83169250814260a01b178317905092915050565b50505050565b5f8373ffffffffffffffffffffffffffffffffffffffff1663150b7a02610fcf610f35565b8786866040518563ffffffff1660e01b8152600401610ff19493929190611889565b6020604051808303815f875af192505050801561102c57506040513d601f19601f8201168201806040525081019061102991906118e7565b60015b611081573d805f811461105a576040519150601f19603f3d011682016040523d82523d5f602084013e61105f565b606091505b505f8151036110795761107863d1a57ed660e01b610ca2565b5b805181602001fd5b63150b7a0260e01b7bffffffffffffffffffffffffffffffffffffffffffffffffffffffff1916817bffffffffffffffffffffffffffffffffffffffffffffffffffffffff191614915050949350505050565b606060405180602001604052805f815250905090565b606060a060405101806040526020810391505f825281835b60011561112457600184039350600a81066030018453600a8104905080611102575b50828103602084039350808452505050919050565b5f7c0100000000000000000000000000000000000000000000000000000000821673ffffffffffffffffffffffffffffffffffffffff8316119050919050565b5f9392505050565b5f604051905090565b5f80fd5b5f80fd5b5f7fffffffff0000000000000000000000000000000000000000000000000000000082169050919050565b6111c681611192565b81146111d0575f80fd5b50565b5f813590506111e1816111bd565b92915050565b5f602082840312156111fc576111fb61118a565b5b5f611209848285016111d3565b91505092915050565b5f8115159050919050565b61122681611212565b82525050565b5f60208201905061123f5f83018461121d565b92915050565b5f81519050919050565b5f82825260208201905092915050565b8281835e5f83830152505050565b5f601f19601f8301169050919050565b5f61128782611245565b611291818561124f565b93506112a181856020860161125f565b6112aa8161126d565b840191505092915050565b5f6020820190508181035f8301526112cd818461127d565b905092915050565b5f819050919050565b6112e7816112d5565b81146112f1575f80fd5b50565b5f81359050611302816112de565b92915050565b5f6020828403121561131d5761131c61118a565b5b5f61132a848285016112f4565b91505092915050565b5f73ffffffffffffffffffffffffffffffffffffffff82169050919050565b5f61135c82611333565b9050919050565b61136c81611352565b82525050565b5f6020820190506113855f830184611363565b92915050565b61139481611352565b811461139e575f80fd5b50565b5f813590506113af8161138b565b92915050565b5f80604083850312156113cb576113ca61118a565b5b5f6113d8858286016113a1565b92505060206113e9858286016112f4565b9150509250929050565b6113fc816112d5565b82525050565b5f6020820190506114155f8301846113f3565b92915050565b5f805f606084860312156114325761143161118a565b5b5f61143f868287016113a1565b9350506020611450868287016113a1565b9250506040611461868287016112f4565b9150509250925092565b5f602082840312156114805761147f61118a565b5b5f61148d848285016113a1565b91505092915050565b61149f81611212565b81146114a9575f80fd5b50565b5f813590506114ba81611496565b92915050565b5f80604083850312156114d6576114d561118a565b5b5f6114e3858286016113a1565b92505060206114f4858286016114ac565b9150509250929050565b5f80fd5b5f80fd5b7f4e487b71000000000000000000000000000000000000000000000000000000005f52604160045260245ffd5b61153c8261126d565b810181811067ffffffffffffffff8211171561155b5761155a611506565b5b80604052505050565b5f61156d611181565b90506115798282611533565b919050565b5f67ffffffffffffffff82111561159857611597611506565b5b6115a18261126d565b9050602081019050919050565b828183375f83830152505050565b5f6115ce6115c98461157e565b611564565b9050828152602081018484840111156115ea576115e9611502565b5b6115f58482856115ae565b509392505050565b5f82601f830112611611576116106114fe565b5b81356116218482602086016115bc565b91505092915050565b5f805f80608085870312156116425761164161118a565b5b5f61164f878288016113a1565b9450506020611660878288016113a1565b9350506040611671878288016112f4565b925050606085013567ffffffffffffffff8111156116925761169161118e565b5b61169e878288016115fd565b91505092959194509250565b5f80604083850312156116c0576116bf61118a565b5b5f6116cd858286016113a1565b92505060206116de858286016113a1565b9150509250929050565b7f4e487b71000000000000000000000000000000000000000000000000000000005f52602260045260245ffd5b5f600282049050600182168061172c57607f821691505b60208210810361173f5761173e6116e8565b5b50919050565b5f81905092915050565b5f61175982611245565b6117638185611745565b935061177381856020860161125f565b80840191505092915050565b5f61178a828561174f565b9150611796828461174f565b91508190509392505050565b7f4e487b71000000000000000000000000000000000000000000000000000000005f52601160045260245ffd5b5f6117d9826112d5565b91506117e4836112d5565b92508282026117f2816112d5565b91508282048414831517611809576118086117a2565b5b5092915050565b5f61181a826112d5565b91505f820361182c5761182b6117a2565b5b600182039050919050565b5f81519050919050565b5f82825260208201905092915050565b5f61185b82611837565b6118658185611841565b935061187581856020860161125f565b61187e8161126d565b840191505092915050565b5f60808201905061189c5f830187611363565b6118a96020830186611363565b6118b660408301856113f3565b81810360608301526118c88184611851565b905095945050505050565b5f815190506118e1816111bd565b92915050565b5f602082840312156118fc576118fb61118a565b5b5f611909848285016118d3565b9150509291505056fea26469706673582212201da36af263e9f681cfe37ae9859b32df3dc37522ebb2282230f626ff26ee9c1064736f6c634300081a0033",
			"opcodes": "PUSH1 0x80 PUSH1 0x40 MSTORE CALLVALUE DUP1 ISZERO PUSH2 0xF JUMPI PUSH0 DUP1 REVERT JUMPDEST POP PUSH1 0x40 MLOAD PUSH2 0x1ECF CODESIZE SUB DUP1 PUSH2 0x1ECF DUP4 CODECOPY DUP2 DUP2 ADD PUSH1 0x40 MSTORE DUP2 ADD SWAP1 PUSH2 0x31 SWAP2 SWAP1 PUSH2 0x228 JUMP JUMPDEST DUP2 PUSH1 0x2 SWAP1 DUP2 PUSH2 0x40 SWAP2 SWAP1 PUSH2 0x4AB JUMP JUMPDEST POP DUP1 PUSH1 0x3 SWAP1 DUP2 PUSH2 0x50 SWAP2 SWAP1 PUSH2 0x4AB JUMP JUMPDEST POP PUSH2 0x5F PUSH2 0xA4 PUSH1 0x20 SHL PUSH1 0x20 SHR JUMP JUMPDEST PUSH0 DUP2 SWAP1 SSTORE POP PUSH2 0x72 PUSH2 0xA4 PUSH1 0x20 SHL PUSH1 0x20 SHR JUMP JUMPDEST PUSH2 0x80 PUSH2 0xAC PUSH1 0x20 SHL PUSH1 0x20 SHR JUMP JUMPDEST LT ISZERO PUSH2 0x9D JUMPI PUSH2 0x9C PUSH4 0xFED8210F PUSH1 0xE0 SHL PUSH2 0xD3 PUSH1 0x20 SHL PUSH1 0x20 SHR JUMP JUMPDEST JUMPDEST POP POP PUSH2 0x57A JUMP JUMPDEST PUSH0 PUSH1 0x1 SWAP1 POP SWAP1 JUMP JUMPDEST PUSH0 PUSH32 0xFFFFFFFFFFFFFFFFFFFFFFFFFFFFFFFFFFFFFFFFFFFFFFFFFFFFFFFFFFFFFFFF SWAP1 POP SWAP1 JUMP JUMPDEST DUP1 PUSH0 MSTORE PUSH1 0x4 PUSH0 REVERT JUMPDEST PUSH0 PUSH1 0x40 MLOAD SWAP1 POP SWAP1 JUMP JUMPDEST PUSH0 DUP1 REVERT JUMPDEST PUSH0 DUP1 REVERT JUMPDEST PUSH0 DUP1 REVERT JUMPDEST PUSH0 DUP1 REVERT JUMPDEST PUSH0 PUSH1 0x1F NOT PUSH1 0x1F DUP4 ADD AND SWAP1 POP SWAP2 SWAP1 POP JUMP JUMPDEST PUSH32 0x4E487B7100000000000000000000000000000000000000000000000000000000 PUSH0 MSTORE PUSH1 0x41 PUSH1 0x4 MSTORE PUSH1 0x24 PUSH0 REVERT JUMPDEST PUSH2 0x13A DUP3 PUSH2 0xF4 JUMP JUMPDEST DUP2 ADD DUP2 DUP2 LT PUSH8 0xFFFFFFFFFFFFFFFF DUP3 GT OR ISZERO PUSH2 0x159 JUMPI PUSH2 0x158 PUSH2 0x104 JUMP JUMPDEST JUMPDEST DUP1 PUSH1 0x40 MSTORE POP POP POP JUMP JUMPDEST PUSH0 PUSH2 0x16B PUSH2 0xDB JUMP JUMPDEST SWAP1 POP PUSH2 0x177 DUP3 DUP3 PUSH2 0x131 JUMP JUMPDEST SWAP2 SWAP1 POP JUMP JUMPDEST PUSH0 PUSH8 0xFFFFFFFFFFFFFFFF DUP3 GT ISZERO PUSH2 0x196 JUMPI PUSH2 0x195 PUSH2 0x104 JUMP JUMPDEST JUMPDEST PUSH2 0x19F DUP3 PUSH2 0xF4 JUMP JUMPDEST SWAP1 POP PUSH1 0x20 DUP2 ADD SWAP1 POP SWAP2 SWAP1 POP JUMP JUMPDEST DUP3 DUP2 DUP4 MCOPY PUSH0 DUP4 DUP4 ADD MSTORE POP POP POP JUMP JUMPDEST PUSH0 PUSH2 0x1CC PUSH2 0x1C7 DUP5 PUSH2 0x17C JUMP JUMPDEST PUSH2 0x162 JUMP JUMPDEST SWAP1 POP DUP3 DUP2 MSTORE PUSH1 0x20 DUP2 ADD DUP5 DUP5 DUP5 ADD GT ISZERO PUSH2 0x1E8 JUMPI PUSH2 0x1E7 PUSH2 0xF0 JUMP JUMPDEST JUMPDEST PUSH2 0x1F3 DUP5 DUP3 DUP6 PUSH2 0x1AC JUMP JUMPDEST POP SWAP4 SWAP3 POP POP POP JUMP JUMPDEST PUSH0 DUP3 PUSH1 0x1F DUP4 ADD SLT PUSH2 0x20F JUMPI PUSH2 0x20E PUSH2 0xEC JUMP JUMPDEST JUMPDEST DUP2 MLOAD PUSH2 0x21F DUP5 DUP3 PUSH1 0x20 DUP7 ADD PUSH2 0x1BA JUMP JUMPDEST SWAP2 POP POP SWAP3 SWAP2 POP POP JUMP JUMPDEST PUSH0 DUP1 PUSH1 0x40 DUP4 DUP6 SUB SLT ISZERO PUSH2 0x23E JUMPI PUSH2 0x23D PUSH2 0xE4 JUMP JUMPDEST JUMPDEST PUSH0 DUP4 ADD MLOAD PUSH8 0xFFFFFFFFFFFFFFFF DUP2 GT ISZERO PUSH2 0x25B JUMPI PUSH2 0x25A PUSH2 0xE8 JUMP JUMPDEST JUMPDEST PUSH2 0x267 DUP6 DUP3 DUP7 ADD PUSH2 0x1FB JUMP JUMPDEST SWAP3 POP POP PUSH1 0x20 DUP4 ADD MLOAD PUSH8 0xFFFFFFFFFFFFFFFF DUP2 GT ISZERO PUSH2 0x288 JUMPI PUSH2 0x287 PUSH2 0xE8 JUMP JUMPDEST JUMPDEST PUSH2 0x294 DUP6 DUP3 DUP7 ADD PUSH2 0x1FB JUMP JUMPDEST SWAP2 POP POP SWAP3 POP SWAP3 SWAP1 POP JUMP JUMPDEST PUSH0 DUP2 MLOAD SWAP1 POP SWAP2 SWAP1 POP JUMP JUMPDEST PUSH32 0x4E487B7100000000000000000000000000000000000000000000000000000000 PUSH0 MSTORE PUSH1 0x22 PUSH1 0x4 MSTORE PUSH1 0x24 PUSH0 REVERT JUMPDEST PUSH0 PUSH1 0x2 DUP3 DIV SWAP1 POP PUSH1 0x1 DUP3 AND DUP1 PUSH2 0x2EC JUMPI PUSH1 0x7F DUP3 AND SWAP2 POP JUMPDEST PUSH1 0x20 DUP3 LT DUP2 SUB PUSH2 0x2FF JUMPI PUSH2 0x2FE PUSH2 0x2A8 JUMP JUMPDEST JUMPDEST POP SWAP2 SWAP1 POP JUMP JUMPDEST PUSH0 DUP2 SWAP1 POP DUP2 PUSH0 MSTORE PUSH1 0x20 PUSH0 KECCAK256 SWAP1 POP SWAP2 SWAP1 POP JUMP JUMPDEST PUSH0 PUSH1 0x20 PUSH1 0x1F DUP4 ADD DIV SWAP1 POP SWAP2 SWAP1 POP JUMP JUMPDEST PUSH0 DUP3 DUP3 SHL SWAP1 POP SWAP3 SWAP2 POP POP JUMP JUMPDEST PUSH0 PUSH1 0x8 DUP4 MUL PUSH2 0x361 PUSH32 0xFFFFFFFFFFFFFFFFFFFFFFFFFFFFFFFFFFFFFFFFFFFFFFFFFFFFFFFFFFFFFFFF DUP3 PUSH2 0x326 JUMP JUMPDEST PUSH2 0x36B DUP7 DUP4 PUSH2 0x326 JUMP JUMPDEST SWAP6 POP DUP1 NOT DUP5 AND SWAP4 POP DUP1 DUP7 AND DUP5 OR SWAP3 POP POP POP SWAP4 SWAP3 POP POP POP JUMP JUMPDEST PUSH0 DUP2 SWAP1 POP SWAP2 SWAP1 POP JUMP JUMPDEST PUSH0 DUP2 SWAP1 POP SWAP2 SWAP1 POP JUMP JUMPDEST PUSH0 PUSH2 0x3AF PUSH2 0x3AA PUSH2 0x3A5 DUP5 PUSH2 0x383 JUMP JUMPDEST PUSH2 0x38C JUMP JUMPDEST PUSH2 0x383 JUMP JUMPDEST SWAP1 POP SWAP2 SWAP1 POP JUMP JUMPDEST PUSH0 DUP2 SWAP1 POP SWAP2 SWAP1 POP JUMP JUMPDEST PUSH2 0x3C8 DUP4 PUSH2 0x395 JUMP JUMPDEST PUSH2 0x3DC PUSH2 0x3D4 DUP3 PUSH2 0x3B6 JUMP JUMPDEST DUP5 DUP5 SLOAD PUSH2 0x332 JUMP JUMPDEST DUP3 SSTORE POP POP POP POP JUMP JUMPDEST PUSH0 SWAP1 JUMP JUMPDEST PUSH2 0x3F0 PUSH2 0x3E4 JUMP JUMPDEST PUSH2 0x3FB DUP2 DUP5 DUP5 PUSH2 0x3BF JUMP JUMPDEST POP POP POP JUMP JUMPDEST JUMPDEST DUP2 DUP2 LT ISZERO PUSH2 0x41E JUMPI PUSH2 0x413 PUSH0 DUP3 PUSH2 0x3E8 JUMP JUMPDEST PUSH1 0x1 DUP2 ADD SWAP1 POP PUSH2 0x401 JUMP JUMPDEST POP POP JUMP JUMPDEST PUSH1 0x1F DUP3 GT ISZERO PUSH2 0x463 JUMPI PUSH2 0x434 DUP2 PUSH2 0x305 JUMP JUMPDEST PUSH2 0x43D DUP5 PUSH2 0x317 JUMP JUMPDEST DUP2 ADD PUSH1 0x20 DUP6 LT ISZERO PUSH2 0x44C JUMPI DUP2 SWAP1 POP JUMPDEST PUSH2 0x460 PUSH2 0x458 DUP6 PUSH2 0x317 JUMP JUMPDEST DUP4 ADD DUP3 PUSH2 0x400 JUMP JUMPDEST POP POP JUMPDEST POP POP POP JUMP JUMPDEST PUSH0 DUP3 DUP3 SHR SWAP1 POP SWAP3 SWAP2 POP POP JUMP JUMPDEST PUSH0 PUSH2 0x483 PUSH0 NOT DUP5 PUSH1 0x8 MUL PUSH2 0x468 JUMP JUMPDEST NOT DUP1 DUP4 AND SWAP2 POP POP SWAP3 SWAP2 POP POP JUMP JUMPDEST PUSH0 PUSH2 0x49B DUP4 DUP4 PUSH2 0x474 JUMP JUMPDEST SWAP2 POP DUP3 PUSH1 0x2 MUL DUP3 OR SWAP1 POP SWAP3 SWAP2 POP POP JUMP JUMPDEST PUSH2 0x4B4 DUP3 PUSH2 0x29E JUMP JUMPDEST PUSH8 0xFFFFFFFFFFFFFFFF DUP2 GT ISZERO PUSH2 0x4CD JUMPI PUSH2 0x4CC PUSH2 0x104 JUMP JUMPDEST JUMPDEST PUSH2 0x4D7 DUP3 SLOAD PUSH2 0x2D5 JUMP JUMPDEST PUSH2 0x4E2 DUP3 DUP3 DUP6 PUSH2 0x422 JUMP JUMPDEST PUSH0 PUSH1 0x20 SWAP1 POP PUSH1 0x1F DUP4 GT PUSH1 0x1 DUP2 EQ PUSH2 0x513 JUMPI PUSH0 DUP5 ISZERO PUSH2 0x501 JUMPI DUP3 DUP8 ADD MLOAD SWAP1 POP JUMPDEST PUSH2 0x50B DUP6 DUP3 PUSH2 0x490 JUMP JUMPDEST DUP7 SSTORE POP PUSH2 0x572 JUMP JUMPDEST PUSH1 0x1F NOT DUP5 AND PUSH2 0x521 DUP7 PUSH2 0x305 JUMP JUMPDEST PUSH0 JUMPDEST DUP3 DUP2 LT ISZERO PUSH2 0x548 JUMPI DUP5 DUP10 ADD MLOAD DUP3 SSTORE PUSH1 0x1 DUP3 ADD SWAP2 POP PUSH1 0x20 DUP6 ADD SWAP5 POP PUSH1 0x20 DUP2 ADD SWAP1 POP PUSH2 0x523 JUMP JUMPDEST DUP7 DUP4 LT ISZERO PUSH2 0x565 JUMPI DUP5 DUP10 ADD MLOAD PUSH2 0x561 PUSH1 0x1F DUP10 AND DUP3 PUSH2 0x474 JUMP JUMPDEST DUP4 SSTORE POP JUMPDEST PUSH1 0x1 PUSH1 0x2 DUP9 MUL ADD DUP9 SSTORE POP POP POP JUMPDEST POP POP POP POP POP POP JUMP JUMPDEST PUSH2 0x1948 DUP1 PUSH2 0x587 PUSH0 CODECOPY PUSH0 RETURN INVALID PUSH1 0x80 PUSH1 0x40 MSTORE PUSH1 0x4 CALLDATASIZE LT PUSH2 0xF2 JUMPI PUSH0 CALLDATALOAD PUSH1 0xE0 SHR DUP1 PUSH4 0x70A08231 GT PUSH2 0x89 JUMPI DUP1 PUSH4 0xB88D4FDE GT PUSH2 0x58 JUMPI DUP1 PUSH4 0xB88D4FDE EQ PUSH2 0x30A JUMPI DUP1 PUSH4 0xC87B56DD EQ PUSH2 0x326 JUMPI DUP1 PUSH4 0xE6A72ACF EQ PUSH2 0x362 JUMPI DUP1 PUSH4 0xE985E9C5 EQ PUSH2 0x39E JUMPI PUSH2 0xF2 JUMP JUMPDEST DUP1 PUSH4 0x70A08231 EQ PUSH2 0x252 JUMPI DUP1 PUSH4 0x95D89B41 EQ PUSH2 0x28E JUMPI DUP1 PUSH4 0xA22CB465 EQ PUSH2 0x2B8 JUMPI DUP1 PUSH4 0xB228D925 EQ PUSH2 0x2E0 JUMPI PUSH2 0xF2 JUMP JUMPDEST DUP1 PUSH4 0x18160DDD GT PUSH2 0xC5 JUMPI DUP1 PUSH4 0x18160DDD EQ PUSH2 0x1B4 JUMPI DUP1 PUSH4 0x23B872DD EQ PUSH2 0x1DE JUMPI DUP1 PUSH4 0x42842E0E EQ PUSH2 0x1FA JUMPI DUP1 PUSH4 0x6352211E EQ PUSH2 0x216 JUMPI PUSH2 0xF2 JUMP JUMPDEST DUP1 PUSH4 0x1FFC9A7 EQ PUSH2 0xF6 JUMPI DUP1 PUSH4 0x6FDDE03 EQ PUSH2 0x132 JUMPI DUP1 PUSH4 0x81812FC EQ PUSH2 0x15C JUMPI DUP1 PUSH4 0x95EA7B3 EQ PUSH2 0x198 JUMPI JUMPDEST PUSH0 DUP1 REVERT JUMPDEST CALLVALUE DUP1 ISZERO PUSH2 0x101 JUMPI PUSH0 DUP1 REVERT JUMPDEST POP PUSH2 0x11C PUSH1 0x4 DUP1 CALLDATASIZE SUB DUP2 ADD SWAP1 PUSH2 0x117 SWAP2 SWAP1 PUSH2 0x11E7 JUMP JUMPDEST PUSH2 0x3DA JUMP JUMPDEST PUSH1 0x40 MLOAD PUSH2 0x129 SWAP2 SWAP1 PUSH2 0x122C JUMP JUMPDEST PUSH1 0x40 MLOAD DUP1 SWAP2 SUB SWAP1 RETURN JUMPDEST CALLVALUE DUP1 ISZERO PUSH2 0x13D JUMPI PUSH0 DUP1 REVERT JUMPDEST POP PUSH2 0x146 PUSH2 0x46B JUMP JUMPDEST PUSH1 0x40 MLOAD PUSH2 0x153 SWAP2 SWAP1 PUSH2 0x12B5 JUMP JUMPDEST PUSH1 0x40 MLOAD DUP1 SWAP2 SUB SWAP1 RETURN JUMPDEST CALLVALUE DUP1 ISZERO PUSH2 0x167 JUMPI PUSH0 DUP1 REVERT JUMPDEST POP PUSH2 0x182 PUSH1 0x4 DUP1 CALLDATASIZE SUB DUP2 ADD SWAP1 PUSH2 0x17D SWAP2 SWAP1 PUSH2 0x1308 JUMP JUMPDEST PUSH2 0x4FB JUMP JUMPDEST PUSH1 0x40 MLOAD PUSH2 0x18F SWAP2 SWAP1 PUSH2 0x1372 JUMP JUMPDEST PUSH1 0x40 MLOAD DUP1 SWAP2 SUB SWAP1 RETURN JUMPDEST PUSH2 0x1B2 PUSH1 0x4 DUP1 CALLDATASIZE SUB DUP2 ADD SWAP1 PUSH2 0x1AD SWAP2 SWAP1 PUSH2 0x13B5 JUMP JUMPDEST PUSH2 0x554 JUMP JUMPDEST STOP JUMPDEST CALLVALUE DUP1 ISZERO PUSH2 0x1BF JUMPI PUSH0 DUP1 REVERT JUMPDEST POP PUSH2 0x1C8 PUSH2 0x564 JUMP JUMPDEST PUSH1 0x40 MLOAD PUSH2 0x1D5 SWAP2 SWAP1 PUSH2 0x1402 JUMP JUMPDEST PUSH1 0x40 MLOAD DUP1 SWAP2 SUB SWAP1 RETURN JUMPDEST PUSH2 0x1F8 PUSH1 0x4 DUP1 CALLDATASIZE SUB DUP2 ADD SWAP1 PUSH2 0x1F3 SWAP2 SWAP1 PUSH2 0x141B JUMP JUMPDEST PUSH2 0x5AF JUMP JUMPDEST STOP JUMPDEST PUSH2 0x214 PUSH1 0x4 DUP1 CALLDATASIZE SUB DUP2 ADD SWAP1 PUSH2 0x20F SWAP2 SWAP1 PUSH2 0x141B JUMP JUMPDEST PUSH2 0x830 JUMP JUMPDEST STOP JUMPDEST CALLVALUE DUP1 ISZERO PUSH2 0x221 JUMPI PUSH0 DUP1 REVERT JUMPDEST POP PUSH2 0x23C PUSH1 0x4 DUP1 CALLDATASIZE SUB DUP2 ADD SWAP1 PUSH2 0x237 SWAP2 SWAP1 PUSH2 0x1308 JUMP JUMPDEST PUSH2 0x84F JUMP JUMPDEST PUSH1 0x40 MLOAD PUSH2 0x249 SWAP2 SWAP1 PUSH2 0x1372 JUMP JUMPDEST PUSH1 0x40 MLOAD DUP1 SWAP2 SUB SWAP1 RETURN JUMPDEST CALLVALUE DUP1 ISZERO PUSH2 0x25D JUMPI PUSH0 DUP1 REVERT JUMPDEST POP PUSH2 0x278 PUSH1 0x4 DUP1 CALLDATASIZE SUB DUP2 ADD SWAP1 PUSH2 0x273 SWAP2 SWAP1 PUSH2 0x146B JUMP JUMPDEST PUSH2 0x860 JUMP JUMPDEST PUSH1 0x40 MLOAD PUSH2 0x285 SWAP2 SWAP1 PUSH2 0x1402 JUMP JUMPDEST PUSH1 0x40 MLOAD DUP1 SWAP2 SUB SWAP1 RETURN JUMPDEST CALLVALUE DUP1 ISZERO PUSH2 0x299 JUMPI PUSH0 DUP1 REVERT JUMPDEST POP PUSH2 0x2A2 PUSH2 0x8F4 JUMP JUMPDEST PUSH1 0x40 MLOAD PUSH2 0x2AF SWAP2 SWAP1 PUSH2 0x12B5 JUMP JUMPDEST PUSH1 0x40 MLOAD DUP1 SWAP2 SUB SWAP1 RETURN JUMPDEST CALLVALUE DUP1 ISZERO PUSH2 0x2C3 JUMPI PUSH0 DUP1 REVERT JUMPDEST POP PUSH2 0x2DE PUSH1 0x4 DUP1 CALLDATASIZE SUB DUP2 ADD SWAP1 PUSH2 0x2D9 SWAP2 SWAP1 PUSH2 0x14C0 JUMP JUMPDEST PUSH2 0x984 JUMP JUMPDEST STOP JUMPDEST CALLVALUE DUP1 ISZERO PUSH2 0x2EB JUMPI PUSH0 DUP1 REVERT JUMPDEST POP PUSH2 0x2F4 PUSH2 0xA8A JUMP JUMPDEST PUSH1 0x40 MLOAD PUSH2 0x301 SWAP2 SWAP1 PUSH2 0x1402 JUMP JUMPDEST PUSH1 0x40 MLOAD DUP1 SWAP2 SUB SWAP1 RETURN JUMPDEST PUSH2 0x324 PUSH1 0x4 DUP1 CALLDATASIZE SUB DUP2 ADD SWAP1 PUSH2 0x31F SWAP2 SWAP1 PUSH2 0x162A JUMP JUMPDEST PUSH2 0xA92 JUMP JUMPDEST STOP JUMPDEST CALLVALUE DUP1 ISZERO PUSH2 0x331 JUMPI PUSH0 DUP1 REVERT JUMPDEST POP PUSH2 0x34C PUSH1 0x4 DUP1 CALLDATASIZE SUB DUP2 ADD SWAP1 PUSH2 0x347 SWAP2 SWAP1 PUSH2 0x1308 JUMP JUMPDEST PUSH2 0xAE3 JUMP JUMPDEST PUSH1 0x40 MLOAD PUSH2 0x359 SWAP2 SWAP1 PUSH2 0x12B5 JUMP JUMPDEST PUSH1 0x40 MLOAD DUP1 SWAP2 SUB SWAP1 RETURN JUMPDEST CALLVALUE DUP1 ISZERO PUSH2 0x36D JUMPI PUSH0 DUP1 REVERT JUMPDEST POP PUSH2 0x388 PUSH1 0x4 DUP1 CALLDATASIZE SUB DUP2 ADD SWAP1 PUSH2 0x383 SWAP2 SWAP1 PUSH2 0x1308 JUMP JUMPDEST PUSH2 0xB5D JUMP JUMPDEST PUSH1 0x40 MLOAD PUSH2 0x395 SWAP2 SWAP1 PUSH2 0x1402 JUMP JUMPDEST PUSH1 0x40 MLOAD DUP1 SWAP2 SUB SWAP1 RETURN JUMPDEST CALLVALUE DUP1 ISZERO PUSH2 0x3A9 JUMPI PUSH0 DUP1 REVERT JUMPDEST POP PUSH2 0x3C4 PUSH1 0x4 DUP1 CALLDATASIZE SUB DUP2 ADD SWAP1 PUSH2 0x3BF SWAP2 SWAP1 PUSH2 0x16AA JUMP JUMPDEST PUSH2 0xB71 JUMP JUMPDEST PUSH1 0x40 MLOAD PUSH2 0x3D1 SWAP2 SWAP1 PUSH2 0x122C JUMP JUMPDEST PUSH1 0x40 MLOAD DUP1 SWAP2 SUB SWAP1 RETURN JUMPDEST PUSH0 PUSH4 0x1FFC9A7 PUSH1 0xE0 SHL DUP3 PUSH28 0xFFFFFFFFFFFFFFFFFFFFFFFFFFFFFFFFFFFFFFFFFFFFFFFFFFFFFFFF NOT AND EQ DUP1 PUSH2 0x434 JUMPI POP PUSH4 0x80AC58CD PUSH1 0xE0 SHL DUP3 PUSH28 0xFFFFFFFFFFFFFFFFFFFFFFFFFFFFFFFFFFFFFFFFFFFFFFFFFFFFFFFF NOT AND EQ JUMPDEST DUP1 PUSH2 0x464 JUMPI POP PUSH4 0x5B5E139F PUSH1 0xE0 SHL DUP3 PUSH28 0xFFFFFFFFFFFFFFFFFFFFFFFFFFFFFFFFFFFFFFFFFFFFFFFFFFFFFFFF NOT AND EQ JUMPDEST SWAP1 POP SWAP2 SWAP1 POP JUMP JUMPDEST PUSH1 0x60 PUSH1 0x2 DUP1 SLOAD PUSH2 0x47A SWAP1 PUSH2 0x1715 JUMP JUMPDEST DUP1 PUSH1 0x1F ADD PUSH1 0x20 DUP1 SWAP2 DIV MUL PUSH1 0x20 ADD PUSH1 0x40 MLOAD SWAP1 DUP2 ADD PUSH1 0x40 MSTORE DUP1 SWAP3 SWAP2 SWAP1 DUP2 DUP2 MSTORE PUSH1 0x20 ADD DUP3 DUP1 SLOAD PUSH2 0x4A6 SWAP1 PUSH2 0x1715 JUMP JUMPDEST DUP1 ISZERO PUSH2 0x4F1 JUMPI DUP1 PUSH1 0x1F LT PUSH2 0x4C8 JUMPI PUSH2 0x100 DUP1 DUP4 SLOAD DIV MUL DUP4 MSTORE SWAP2 PUSH1 0x20 ADD SWAP2 PUSH2 0x4F1 JUMP JUMPDEST DUP3 ADD SWAP2 SWAP1 PUSH0 MSTORE PUSH1 0x20 PUSH0 KECCAK256 SWAP1 JUMPDEST DUP2 SLOAD DUP2 MSTORE SWAP1 PUSH1 0x1 ADD SWAP1 PUSH1 0x20 ADD DUP1 DUP4 GT PUSH2 0x4D4 JUMPI DUP3 SWAP1 SUB PUSH1 0x1F AND DUP3 ADD SWAP2 JUMPDEST POP POP POP POP POP SWAP1 POP SWAP1 JUMP JUMPDEST PUSH0 PUSH2 0x505 DUP3 PUSH2 0xBFF JUMP JUMPDEST PUSH2 0x51A JUMPI PUSH2 0x519 PUSH4 0xCF4700E4 PUSH1 0xE0 SHL PUSH2 0xCA2 JUMP JUMPDEST JUMPDEST PUSH1 0x6 PUSH0 DUP4 DUP2 MSTORE PUSH1 0x20 ADD SWAP1 DUP2 MSTORE PUSH1 0x20 ADD PUSH0 KECCAK256 PUSH0 ADD PUSH0 SWAP1 SLOAD SWAP1 PUSH2 0x100 EXP SWAP1 DIV PUSH20 0xFFFFFFFFFFFFFFFFFFFFFFFFFFFFFFFFFFFFFFFF AND SWAP1 POP SWAP2 SWAP1 POP JUMP JUMPDEST PUSH2 0x560 DUP3 DUP3 PUSH1 0x1 PUSH2 0xCAA JUMP JUMPDEST POP POP JUMP JUMPDEST PUSH0 PUSH2 0x56D PUSH2 0xDD4 JUMP JUMPDEST PUSH1 0x1 SLOAD PUSH0 SLOAD SUB SUB SWAP1 POP PUSH32 0xFFFFFFFFFFFFFFFFFFFFFFFFFFFFFFFFFFFFFFFFFFFFFFFFFFFFFFFFFFFFFFFF PUSH2 0x59F PUSH2 0xDDC JUMP JUMPDEST EQ PUSH2 0x5AC JUMPI PUSH1 0x8 SLOAD DUP2 ADD SWAP1 POP JUMPDEST SWAP1 JUMP JUMPDEST PUSH0 PUSH2 0x5B9 DUP3 PUSH2 0xE03 JUMP JUMPDEST SWAP1 POP PUSH0 DUP5 PUSH20 0xFFFFFFFFFFFFFFFFFFFFFFFFFFFFFFFFFFFFFFFF AND SWAP1 POP DUP1 DUP3 PUSH20 0xFFFFFFFFFFFFFFFFFFFFFFFFFFFFFFFFFFFFFFFF AND EQ PUSH2 0x603 JUMPI PUSH2 0x602 PUSH4 0xA1148100 PUSH1 0xE0 SHL PUSH2 0xCA2 JUMP JUMPDEST JUMPDEST PUSH0 DUP1 PUSH2 0x60E DUP6 PUSH2 0xF12 JUMP JUMPDEST SWAP2 POP SWAP2 POP PUSH2 0x63A DUP2 DUP5 PUSH2 0x61F PUSH2 0xF35 JUMP JUMPDEST PUSH20 0xFFFFFFFFFFFFFFFFFFFFFFFFFFFFFFFFFFFFFFFF AND PUSH2 0xF3C JUMP JUMPDEST PUSH2 0x665 JUMPI PUSH2 0x64F DUP8 PUSH2 0x64A PUSH2 0xF35 JUMP JUMPDEST PUSH2 0xB71 JUMP JUMPDEST PUSH2 0x664 JUMPI PUSH2 0x663 PUSH4 0x59C896BE PUSH1 0xE0 SHL PUSH2 0xCA2 JUMP JUMPDEST JUMPDEST JUMPDEST PUSH2 0x672 DUP8 DUP8 DUP8 PUSH1 0x1 PUSH2 0xF4D JUMP JUMPDEST DUP1 ISZERO PUSH2 0x67C JUMPI PUSH0 DUP3 SSTORE JUMPDEST PUSH1 0x5 PUSH0 DUP9 PUSH20 0xFFFFFFFFFFFFFFFFFFFFFFFFFFFFFFFFFFFFFFFF AND PUSH20 0xFFFFFFFFFFFFFFFFFFFFFFFFFFFFFFFFFFFFFFFF AND DUP2 MSTORE PUSH1 0x20 ADD SWAP1 DUP2 MSTORE PUSH1 0x20 ADD PUSH0 KECCAK256 PUSH0 DUP2 SLOAD PUSH1 0x1 SWAP1 SUB SWAP2 SWAP1 POP DUP2 SWAP1 SSTORE POP PUSH1 0x5 PUSH0 DUP8 PUSH20 0xFFFFFFFFFFFFFFFFFFFFFFFFFFFFFFFFFFFFFFFF AND PUSH20 0xFFFFFFFFFFFFFFFFFFFFFFFFFFFFFFFFFFFFFFFF AND DUP2 MSTORE PUSH1 0x20 ADD SWAP1 DUP2 MSTORE PUSH1 0x20 ADD PUSH0 KECCAK256 PUSH0 DUP2 SLOAD PUSH1 0x1 ADD SWAP2 SWAP1 POP DUP2 SWAP1 SSTORE POP PUSH2 0x744 DUP7 PUSH2 0x720 DUP10 DUP10 DUP9 PUSH2 0xF53 JUMP JUMPDEST PUSH29 0x200000000000000000000000000000000000000000000000000000000 OR PUSH2 0xF7A JUMP JUMPDEST PUSH1 0x4 PUSH0 DUP8 DUP2 MSTORE PUSH1 0x20 ADD SWAP1 DUP2 MSTORE PUSH1 0x20 ADD PUSH0 KECCAK256 DUP2 SWAP1 SSTORE POP PUSH0 PUSH29 0x200000000000000000000000000000000000000000000000000000000 DUP6 AND SUB PUSH2 0x7C0 JUMPI PUSH0 PUSH1 0x1 DUP7 ADD SWAP1 POP PUSH0 PUSH1 0x4 PUSH0 DUP4 DUP2 MSTORE PUSH1 0x20 ADD SWAP1 DUP2 MSTORE PUSH1 0x20 ADD PUSH0 KECCAK256 SLOAD SUB PUSH2 0x7BE JUMPI PUSH0 SLOAD DUP2 EQ PUSH2 0x7BD JUMPI DUP5 PUSH1 0x4 PUSH0 DUP4 DUP2 MSTORE PUSH1 0x20 ADD SWAP1 DUP2 MSTORE PUSH1 0x20 ADD PUSH0 KECCAK256 DUP2 SWAP1 SSTORE POP JUMPDEST JUMPDEST POP JUMPDEST PUSH0 DUP7 PUSH20 0xFFFFFFFFFFFFFFFFFFFFFFFFFFFFFFFFFFFFFFFF AND SWAP1 POP DUP6 DUP2 DUP6 PUSH32 0xDDF252AD1BE2C89B69C2B068FC378DAA952BA7F163C4A11628F55A4DF523B3EF PUSH0 DUP1 LOG4 PUSH0 DUP2 SUB PUSH2 0x819 JUMPI PUSH2 0x818 PUSH4 0xEA553B34 PUSH1 0xE0 SHL PUSH2 0xCA2 JUMP JUMPDEST JUMPDEST PUSH2 0x826 DUP9 DUP9 DUP9 PUSH1 0x1 PUSH2 0xFA4 JUMP JUMPDEST POP POP POP POP POP POP POP POP JUMP JUMPDEST PUSH2 0x84A DUP4 DUP4 DUP4 PUSH1 0x40 MLOAD DUP1 PUSH1 0x20 ADD PUSH1 0x40 MSTORE DUP1 PUSH0 DUP2 MSTORE POP PUSH2 0xA92 JUMP JUMPDEST POP POP POP JUMP JUMPDEST PUSH0 PUSH2 0x859 DUP3 PUSH2 0xE03 JUMP JUMPDEST SWAP1 POP SWAP2 SWAP1 POP JUMP JUMPDEST PUSH0 DUP1 PUSH20 0xFFFFFFFFFFFFFFFFFFFFFFFFFFFFFFFFFFFFFFFF AND DUP3 PUSH20 0xFFFFFFFFFFFFFFFFFFFFFFFFFFFFFFFFFFFFFFFF AND SUB PUSH2 0x8A5 JUMPI PUSH2 0x8A4 PUSH4 0x8F4EB604 PUSH1 0xE0 SHL PUSH2 0xCA2 JUMP JUMPDEST JUMPDEST PUSH8 0xFFFFFFFFFFFFFFFF PUSH1 0x5 PUSH0 DUP5 PUSH20 0xFFFFFFFFFFFFFFFFFFFFFFFFFFFFFFFFFFFFFFFF AND PUSH20 0xFFFFFFFFFFFFFFFFFFFFFFFFFFFFFFFFFFFFFFFF AND DUP2 MSTORE PUSH1 0x20 ADD SWAP1 DUP2 MSTORE PUSH1 0x20 ADD PUSH0 KECCAK256 SLOAD AND SWAP1 POP SWAP2 SWAP1 POP JUMP JUMPDEST PUSH1 0x60 PUSH1 0x3 DUP1 SLOAD PUSH2 0x903 SWAP1 PUSH2 0x1715 JUMP JUMPDEST DUP1 PUSH1 0x1F ADD PUSH1 0x20 DUP1 SWAP2 DIV MUL PUSH1 0x20 ADD PUSH1 0x40 MLOAD SWAP1 DUP2 ADD PUSH1 0x40 MSTORE DUP1 SWAP3 SWAP2 SWAP1 DUP2 DUP2 MSTORE PUSH1 0x20 ADD DUP3 DUP1 SLOAD PUSH2 0x92F SWAP1 PUSH2 0x1715 JUMP JUMPDEST DUP1 ISZERO PUSH2 0x97A JUMPI DUP1 PUSH1 0x1F LT PUSH2 0x951 JUMPI PUSH2 0x100 DUP1 DUP4 SLOAD DIV MUL DUP4 MSTORE SWAP2 PUSH1 0x20 ADD SWAP2 PUSH2 0x97A JUMP JUMPDEST DUP3 ADD SWAP2 SWAP1 PUSH0 MSTORE PUSH1 0x20 PUSH0 KECCAK256 SWAP1 JUMPDEST DUP2 SLOAD DUP2 MSTORE SWAP1 PUSH1 0x1 ADD SWAP1 PUSH1 0x20 ADD DUP1 DUP4 GT PUSH2 0x95D JUMPI DUP3 SWAP1 SUB PUSH1 0x1F AND DUP3 ADD SWAP2 JUMPDEST POP POP POP POP POP SWAP1 POP SWAP1 JUMP JUMPDEST DUP1 PUSH1 0x7 PUSH0 PUSH2 0x990 PUSH2 0xF35 JUMP JUMPDEST PUSH20 0xFFFFFFFFFFFFFFFFFFFFFFFFFFFFFFFFFFFFFFFF AND PUSH20 0xFFFFFFFFFFFFFFFFFFFFFFFFFFFFFFFFFFFFFFFF AND DUP2 MSTORE PUSH1 0x20 ADD SWAP1 DUP2 MSTORE PUSH1 0x20 ADD PUSH0 KECCAK256 PUSH0 DUP5 PUSH20 0xFFFFFFFFFFFFFFFFFFFFFFFFFFFFFFFFFFFFFFFF AND PUSH20 0xFFFFFFFFFFFFFFFFFFFFFFFFFFFFFFFFFFFFFFFF AND DUP2 MSTORE PUSH1 0x20 ADD SWAP1 DUP2 MSTORE PUSH1 0x20 ADD PUSH0 KECCAK256 PUSH0 PUSH2 0x100 EXP DUP2 SLOAD DUP2 PUSH1 0xFF MUL NOT AND SWAP1 DUP4 ISZERO ISZERO MUL OR SWAP1 SSTORE POP DUP2 PUSH20 0xFFFFFFFFFFFFFFFFFFFFFFFFFFFFFFFFFFFFFFFF AND PUSH2 0xA39 PUSH2 0xF35 JUMP JUMPDEST PUSH20 0xFFFFFFFFFFFFFFFFFFFFFFFFFFFFFFFFFFFFFFFF AND PUSH32 0x17307EAB39AB6107E8899845AD3D59BD9653F200F220920489CA2B5937696C31 DUP4 PUSH1 0x40 MLOAD PUSH2 0xA7E SWAP2 SWAP1 PUSH2 0x122C JUMP JUMPDEST PUSH1 0x40 MLOAD DUP1 SWAP2 SUB SWAP1 LOG3 POP POP JUMP JUMPDEST PUSH0 PUSH1 0x1 SWAP1 POP SWAP1 JUMP JUMPDEST PUSH2 0xA9D DUP5 DUP5 DUP5 PUSH2 0x5AF JUMP JUMPDEST PUSH0 DUP4 PUSH20 0xFFFFFFFFFFFFFFFFFFFFFFFFFFFFFFFFFFFFFFFF AND EXTCODESIZE EQ PUSH2 0xADD JUMPI PUSH2 0xAC7 DUP5 DUP5 DUP5 DUP5 PUSH2 0xFAA JUMP JUMPDEST PUSH2 0xADC JUMPI PUSH2 0xADB PUSH4 0xD1A57ED6 PUSH1 0xE0 SHL PUSH2 0xCA2 JUMP JUMPDEST JUMPDEST JUMPDEST POP POP POP POP JUMP JUMPDEST PUSH1 0x60 PUSH2 0xAEE DUP3 PUSH2 0xBFF JUMP JUMPDEST PUSH2 0xB03 JUMPI PUSH2 0xB02 PUSH4 0xA14C4B50 PUSH1 0xE0 SHL PUSH2 0xCA2 JUMP JUMPDEST JUMPDEST PUSH0 PUSH2 0xB0C PUSH2 0x10D4 JUMP JUMPDEST SWAP1 POP PUSH0 DUP2 MLOAD SUB PUSH2 0xB2A JUMPI PUSH1 0x40 MLOAD DUP1 PUSH1 0x20 ADD PUSH1 0x40 MSTORE DUP1 PUSH0 DUP2 MSTORE POP PUSH2 0xB55 JUMP JUMPDEST DUP1 PUSH2 0xB34 DUP5 PUSH2 0x10EA JUMP JUMPDEST PUSH1 0x40 MLOAD PUSH1 0x20 ADD PUSH2 0xB45 SWAP3 SWAP2 SWAP1 PUSH2 0x177F JUMP JUMPDEST PUSH1 0x40 MLOAD PUSH1 0x20 DUP2 DUP4 SUB SUB DUP2 MSTORE SWAP1 PUSH1 0x40 MSTORE JUMPDEST SWAP2 POP POP SWAP2 SWAP1 POP JUMP JUMPDEST PUSH0 DUP1 DUP3 PUSH2 0xB6A SWAP2 SWAP1 PUSH2 0x17CF JUMP JUMPDEST SWAP1 POP SWAP2 SWAP1 POP JUMP JUMPDEST PUSH0 PUSH1 0x7 PUSH0 DUP5 PUSH20 0xFFFFFFFFFFFFFFFFFFFFFFFFFFFFFFFFFFFFFFFF AND PUSH20 0xFFFFFFFFFFFFFFFFFFFFFFFFFFFFFFFFFFFFFFFF AND DUP2 MSTORE PUSH1 0x20 ADD SWAP1 DUP2 MSTORE PUSH1 0x20 ADD PUSH0 KECCAK256 PUSH0 DUP4 PUSH20 0xFFFFFFFFFFFFFFFFFFFFFFFFFFFFFFFFFFFFFFFF AND PUSH20 0xFFFFFFFFFFFFFFFFFFFFFFFFFFFFFFFFFFFFFFFF AND DUP2 MSTORE PUSH1 0x20 ADD SWAP1 DUP2 MSTORE PUSH1 0x20 ADD PUSH0 KECCAK256 PUSH0 SWAP1 SLOAD SWAP1 PUSH2 0x100 EXP SWAP1 DIV PUSH1 0xFF AND SWAP1 POP SWAP3 SWAP2 POP POP JUMP JUMPDEST PUSH0 DUP2 PUSH2 0xC09 PUSH2 0xDD4 JUMP JUMPDEST GT PUSH2 0xC9C JUMPI PUSH2 0xC16 PUSH2 0xDDC JUMP JUMPDEST DUP3 GT ISZERO PUSH2 0xC3E JUMPI PUSH2 0xC37 PUSH1 0x4 PUSH0 DUP5 DUP2 MSTORE PUSH1 0x20 ADD SWAP1 DUP2 MSTORE PUSH1 0x20 ADD PUSH0 KECCAK256 SLOAD PUSH2 0x1139 JUMP JUMPDEST SWAP1 POP PUSH2 0xC9D JUMP JUMPDEST PUSH0 SLOAD DUP3 LT ISZERO PUSH2 0xC9B JUMPI PUSH0 JUMPDEST PUSH0 PUSH1 0x4 PUSH0 DUP6 DUP2 MSTORE PUSH1 0x20 ADD SWAP1 DUP2 MSTORE PUSH1 0x20 ADD PUSH0 KECCAK256 SLOAD SWAP2 POP DUP2 SUB PUSH2 0xC75 JUMPI DUP3 PUSH2 0xC6E SWAP1 PUSH2 0x1810 JUMP JUMPDEST SWAP3 POP PUSH2 0xC49 JUMP JUMPDEST PUSH0 PUSH29 0x100000000000000000000000000000000000000000000000000000000 DUP3 AND EQ SWAP2 POP POP JUMPDEST JUMPDEST JUMPDEST SWAP2 SWAP1 POP JUMP JUMPDEST DUP1 PUSH0 MSTORE PUSH1 0x4 PUSH0 REVERT JUMPDEST PUSH0 PUSH2 0xCB4 DUP4 PUSH2 0x84F JUMP JUMPDEST SWAP1 POP DUP2 DUP1 ISZERO PUSH2 0xCF6 JUMPI POP DUP1 PUSH20 0xFFFFFFFFFFFFFFFFFFFFFFFFFFFFFFFFFFFFFFFF AND PUSH2 0xCDD PUSH2 0xF35 JUMP JUMPDEST PUSH20 0xFFFFFFFFFFFFFFFFFFFFFFFFFFFFFFFFFFFFFFFF AND EQ ISZERO JUMPDEST ISZERO PUSH2 0xD22 JUMPI PUSH2 0xD0C DUP2 PUSH2 0xD07 PUSH2 0xF35 JUMP JUMPDEST PUSH2 0xB71 JUMP JUMPDEST PUSH2 0xD21 JUMPI PUSH2 0xD20 PUSH4 0xCFB3B942 PUSH1 0xE0 SHL PUSH2 0xCA2 JUMP JUMPDEST JUMPDEST JUMPDEST DUP4 PUSH1 0x6 PUSH0 DUP6 DUP2 MSTORE PUSH1 0x20 ADD SWAP1 DUP2 MSTORE PUSH1 0x20 ADD PUSH0 KECCAK256 PUSH0 ADD PUSH0 PUSH2 0x100 EXP DUP2 SLOAD DUP2 PUSH20 0xFFFFFFFFFFFFFFFFFFFFFFFFFFFFFFFFFFFFFFFF MUL NOT AND SWAP1 DUP4 PUSH20 0xFFFFFFFFFFFFFFFFFFFFFFFFFFFFFFFFFFFFFFFF AND MUL OR SWAP1 SSTORE POP DUP3 DUP5 PUSH20 0xFFFFFFFFFFFFFFFFFFFFFFFFFFFFFFFFFFFFFFFF AND DUP3 PUSH20 0xFFFFFFFFFFFFFFFFFFFFFFFFFFFFFFFFFFFFFFFF AND PUSH32 0x8C5BE1E5EBEC7D5BD14F71427D1E84F3DD0314C0F7B2291E5B200AC8C7C3B925 PUSH1 0x40 MLOAD PUSH1 0x40 MLOAD DUP1 SWAP2 SUB SWAP1 LOG4 POP POP POP POP JUMP JUMPDEST PUSH0 PUSH1 0x1 SWAP1 POP SWAP1 JUMP JUMPDEST PUSH0 PUSH32 0xFFFFFFFFFFFFFFFFFFFFFFFFFFFFFFFFFFFFFFFFFFFFFFFFFFFFFFFFFFFFFFFF SWAP1 POP SWAP1 JUMP JUMPDEST PUSH0 DUP2 PUSH2 0xE0D PUSH2 0xDD4 JUMP JUMPDEST GT PUSH2 0xEFC JUMPI PUSH1 0x4 PUSH0 DUP4 DUP2 MSTORE PUSH1 0x20 ADD SWAP1 DUP2 MSTORE PUSH1 0x20 ADD PUSH0 KECCAK256 SLOAD SWAP1 POP PUSH2 0xE2E PUSH2 0xDDC JUMP JUMPDEST DUP3 GT ISZERO PUSH2 0xE53 JUMPI PUSH2 0xE3E DUP2 PUSH2 0x1139 JUMP JUMPDEST PUSH2 0xF0D JUMPI PUSH2 0xE52 PUSH4 0xDF2D9B42 PUSH1 0xE0 SHL PUSH2 0xCA2 JUMP JUMPDEST JUMPDEST PUSH0 DUP2 SUB PUSH2 0xED4 JUMPI PUSH0 SLOAD DUP3 LT PUSH2 0xE73 JUMPI PUSH2 0xE72 PUSH4 0xDF2D9B42 PUSH1 0xE0 SHL PUSH2 0xCA2 JUMP JUMPDEST JUMPDEST JUMPDEST PUSH1 0x4 PUSH0 DUP4 PUSH1 0x1 SWAP1 SUB SWAP4 POP DUP4 DUP2 MSTORE PUSH1 0x20 ADD SWAP1 DUP2 MSTORE PUSH1 0x20 ADD PUSH0 KECCAK256 SLOAD SWAP1 POP PUSH0 DUP2 SUB ISZERO PUSH2 0xECF JUMPI PUSH0 PUSH29 0x100000000000000000000000000000000000000000000000000000000 DUP3 AND SUB ISZERO PUSH2 0xF0D JUMPI PUSH2 0xECE PUSH4 0xDF2D9B42 PUSH1 0xE0 SHL PUSH2 0xCA2 JUMP JUMPDEST JUMPDEST PUSH2 0xE74 JUMP JUMPDEST PUSH0 PUSH29 0x100000000000000000000000000000000000000000000000000000000 DUP3 AND SUB ISZERO PUSH2 0xF0D JUMPI JUMPDEST PUSH2 0xF0C PUSH4 0xDF2D9B42 PUSH1 0xE0 SHL PUSH2 0xCA2 JUMP JUMPDEST JUMPDEST SWAP2 SWAP1 POP JUMP JUMPDEST PUSH0 DUP1 PUSH0 PUSH1 0x6 PUSH0 DUP6 DUP2 MSTORE PUSH1 0x20 ADD SWAP1 DUP2 MSTORE PUSH1 0x20 ADD PUSH0 KECCAK256 SWAP1 POP DUP1 SWAP3 POP DUP3 SLOAD SWAP2 POP POP SWAP2 POP SWAP2 JUMP JUMPDEST PUSH0 CALLER SWAP1 POP SWAP1 JUMP JUMPDEST PUSH0 DUP4 DUP3 EQ DUP4 DUP4 EQ OR SWAP1 POP SWAP4 SWAP3 POP POP POP JUMP JUMPDEST POP POP POP POP JUMP JUMPDEST PUSH0 DUP1 PUSH1 0xE8 DUP4 SWAP1 SHR SWAP1 POP PUSH1 0xE8 PUSH2 0xF69 DUP7 DUP7 DUP5 PUSH2 0x1179 JUMP JUMPDEST PUSH3 0xFFFFFF AND SWAP1 SHL SWAP2 POP POP SWAP4 SWAP3 POP POP POP JUMP JUMPDEST PUSH0 PUSH20 0xFFFFFFFFFFFFFFFFFFFFFFFFFFFFFFFFFFFFFFFF DUP4 AND SWAP3 POP DUP2 TIMESTAMP PUSH1 0xA0 SHL OR DUP4 OR SWAP1 POP SWAP3 SWAP2 POP POP JUMP JUMPDEST POP POP POP POP JUMP JUMPDEST PUSH0 DUP4 PUSH20 0xFFFFFFFFFFFFFFFFFFFFFFFFFFFFFFFFFFFFFFFF AND PUSH4 0x150B7A02 PUSH2 0xFCF PUSH2 0xF35 JUMP JUMPDEST DUP8 DUP7 DUP7 PUSH1 0x40 MLOAD DUP6 PUSH4 0xFFFFFFFF AND PUSH1 0xE0 SHL DUP2 MSTORE PUSH1 0x4 ADD PUSH2 0xFF1 SWAP5 SWAP4 SWAP3 SWAP2 SWAP1 PUSH2 0x1889 JUMP JUMPDEST PUSH1 0x20 PUSH1 0x40 MLOAD DUP1 DUP4 SUB DUP2 PUSH0 DUP8 GAS CALL SWAP3 POP POP POP DUP1 ISZERO PUSH2 0x102C JUMPI POP PUSH1 0x40 MLOAD RETURNDATASIZE PUSH1 0x1F NOT PUSH1 0x1F DUP3 ADD AND DUP3 ADD DUP1 PUSH1 0x40 MSTORE POP DUP2 ADD SWAP1 PUSH2 0x1029 SWAP2 SWAP1 PUSH2 0x18E7 JUMP JUMPDEST PUSH1 0x1 JUMPDEST PUSH2 0x1081 JUMPI RETURNDATASIZE DUP1 PUSH0 DUP2 EQ PUSH2 0x105A JUMPI PUSH1 0x40 MLOAD SWAP2 POP PUSH1 0x1F NOT PUSH1 0x3F RETURNDATASIZE ADD AND DUP3 ADD PUSH1 0x40 MSTORE RETURNDATASIZE DUP3 MSTORE RETURNDATASIZE PUSH0 PUSH1 0x20 DUP5 ADD RETURNDATACOPY PUSH2 0x105F JUMP JUMPDEST PUSH1 0x60 SWAP2 POP JUMPDEST POP PUSH0 DUP2 MLOAD SUB PUSH2 0x1079 JUMPI PUSH2 0x1078 PUSH4 0xD1A57ED6 PUSH1 0xE0 SHL PUSH2 0xCA2 JUMP JUMPDEST JUMPDEST DUP1 MLOAD DUP2 PUSH1 0x20 ADD REVERT JUMPDEST PUSH4 0x150B7A02 PUSH1 0xE0 SHL PUSH28 0xFFFFFFFFFFFFFFFFFFFFFFFFFFFFFFFFFFFFFFFFFFFFFFFFFFFFFFFF NOT AND DUP2 PUSH28 0xFFFFFFFFFFFFFFFFFFFFFFFFFFFFFFFFFFFFFFFFFFFFFFFFFFFFFFFF NOT AND EQ SWAP2 POP POP SWAP5 SWAP4 POP POP POP POP JUMP JUMPDEST PUSH1 0x60 PUSH1 0x40 MLOAD DUP1 PUSH1 0x20 ADD PUSH1 0x40 MSTORE DUP1 PUSH0 DUP2 MSTORE POP SWAP1 POP SWAP1 JUMP JUMPDEST PUSH1 0x60 PUSH1 0xA0 PUSH1 0x40 MLOAD ADD DUP1 PUSH1 0x40 MSTORE PUSH1 0x20 DUP2 SUB SWAP2 POP PUSH0 DUP3 MSTORE DUP2 DUP4 JUMPDEST PUSH1 0x1 ISZERO PUSH2 0x1124 JUMPI PUSH1 0x1 DUP5 SUB SWAP4 POP PUSH1 0xA DUP2 MOD PUSH1 0x30 ADD DUP5 MSTORE8 PUSH1 0xA DUP2 DIV SWAP1 POP DUP1 PUSH2 0x1102 JUMPI JUMPDEST POP DUP3 DUP2 SUB PUSH1 0x20 DUP5 SUB SWAP4 POP DUP1 DUP5 MSTORE POP POP POP SWAP2 SWAP1 POP JUMP JUMPDEST PUSH0 PUSH29 0x100000000000000000000000000000000000000000000000000000000 DUP3 AND PUSH20 0xFFFFFFFFFFFFFFFFFFFFFFFFFFFFFFFFFFFFFFFF DUP4 AND GT SWAP1 POP SWAP2 SWAP1 POP JUMP JUMPDEST PUSH0 SWAP4 SWAP3 POP POP POP JUMP JUMPDEST PUSH0 PUSH1 0x40 MLOAD SWAP1 POP SWAP1 JUMP JUMPDEST PUSH0 DUP1 REVERT JUMPDEST PUSH0 DUP1 REVERT JUMPDEST PUSH0 PUSH32 0xFFFFFFFF00000000000000000000000000000000000000000000000000000000 DUP3 AND SWAP1 POP SWAP2 SWAP1 POP JUMP JUMPDEST PUSH2 0x11C6 DUP2 PUSH2 0x1192 JUMP JUMPDEST DUP2 EQ PUSH2 0x11D0 JUMPI PUSH0 DUP1 REVERT JUMPDEST POP JUMP JUMPDEST PUSH0 DUP2 CALLDATALOAD SWAP1 POP PUSH2 0x11E1 DUP2 PUSH2 0x11BD JUMP JUMPDEST SWAP3 SWAP2 POP POP JUMP JUMPDEST PUSH0 PUSH1 0x20 DUP3 DUP5 SUB SLT ISZERO PUSH2 0x11FC JUMPI PUSH2 0x11FB PUSH2 0x118A JUMP JUMPDEST JUMPDEST PUSH0 PUSH2 0x1209 DUP5 DUP3 DUP6 ADD PUSH2 0x11D3 JUMP JUMPDEST SWAP2 POP POP SWAP3 SWAP2 POP POP JUMP JUMPDEST PUSH0 DUP2 ISZERO ISZERO SWAP1 POP SWAP2 SWAP1 POP JUMP JUMPDEST PUSH2 0x1226 DUP2 PUSH2 0x1212 JUMP JUMPDEST DUP3 MSTORE POP POP JUMP JUMPDEST PUSH0 PUSH1 0x20 DUP3 ADD SWAP1 POP PUSH2 0x123F PUSH0 DUP4 ADD DUP5 PUSH2 0x121D JUMP JUMPDEST SWAP3 SWAP2 POP POP JUMP JUMPDEST PUSH0 DUP2 MLOAD SWAP1 POP SWAP2 SWAP1 POP JUMP JUMPDEST PUSH0 DUP3 DUP3 MSTORE PUSH1 0x20 DUP3 ADD SWAP1 POP SWAP3 SWAP2 POP POP JUMP JUMPDEST DUP3 DUP2 DUP4 MCOPY PUSH0 DUP4 DUP4 ADD MSTORE POP POP POP JUMP JUMPDEST PUSH0 PUSH1 0x1F NOT PUSH1 0x1F DUP4 ADD AND SWAP1 POP SWAP2 SWAP1 POP JUMP JUMPDEST PUSH0 PUSH2 0x1287 DUP3 PUSH2 0x1245 JUMP JUMPDEST PUSH2 0x1291 DUP2 DUP6 PUSH2 0x124F JUMP JUMPDEST SWAP4 POP PUSH2 0x12A1 DUP2 DUP6 PUSH1 0x20 DUP7 ADD PUSH2 0x125F JUMP JUMPDEST PUSH2 0x12AA DUP2 PUSH2 0x126D JUMP JUMPDEST DUP5 ADD SWAP2 POP POP SWAP3 SWAP2 POP POP JUMP JUMPDEST PUSH0 PUSH1 0x20 DUP3 ADD SWAP1 POP DUP2 DUP2 SUB PUSH0 DUP4 ADD MSTORE PUSH2 0x12CD DUP2 DUP5 PUSH2 0x127D JUMP JUMPDEST SWAP1 POP SWAP3 SWAP2 POP POP JUMP JUMPDEST PUSH0 DUP2 SWAP1 POP SWAP2 SWAP1 POP JUMP JUMPDEST PUSH2 0x12E7 DUP2 PUSH2 0x12D5 JUMP JUMPDEST DUP2 EQ PUSH2 0x12F1 JUMPI PUSH0 DUP1 REVERT JUMPDEST POP JUMP JUMPDEST PUSH0 DUP2 CALLDATALOAD SWAP1 POP PUSH2 0x1302 DUP2 PUSH2 0x12DE JUMP JUMPDEST SWAP3 SWAP2 POP POP JUMP JUMPDEST PUSH0 PUSH1 0x20 DUP3 DUP5 SUB SLT ISZERO PUSH2 0x131D JUMPI PUSH2 0x131C PUSH2 0x118A JUMP JUMPDEST JUMPDEST PUSH0 PUSH2 0x132A DUP5 DUP3 DUP6 ADD PUSH2 0x12F4 JUMP JUMPDEST SWAP2 POP POP SWAP3 SWAP2 POP POP JUMP JUMPDEST PUSH0 PUSH20 0xFFFFFFFFFFFFFFFFFFFFFFFFFFFFFFFFFFFFFFFF DUP3 AND SWAP1 POP SWAP2 SWAP1 POP JUMP JUMPDEST PUSH0 PUSH2 0x135C DUP3 PUSH2 0x1333 JUMP JUMPDEST SWAP1 POP SWAP2 SWAP1 POP JUMP JUMPDEST PUSH2 0x136C DUP2 PUSH2 0x1352 JUMP JUMPDEST DUP3 MSTORE POP POP JUMP JUMPDEST PUSH0 PUSH1 0x20 DUP3 ADD SWAP1 POP PUSH2 0x1385 PUSH0 DUP4 ADD DUP5 PUSH2 0x1363 JUMP JUMPDEST SWAP3 SWAP2 POP POP JUMP JUMPDEST PUSH2 0x1394 DUP2 PUSH2 0x1352 JUMP JUMPDEST DUP2 EQ PUSH2 0x139E JUMPI PUSH0 DUP1 REVERT JUMPDEST POP JUMP JUMPDEST PUSH0 DUP2 CALLDATALOAD SWAP1 POP PUSH2 0x13AF DUP2 PUSH2 0x138B JUMP JUMPDEST SWAP3 SWAP2 POP POP JUMP JUMPDEST PUSH0 DUP1 PUSH1 0x40 DUP4 DUP6 SUB SLT ISZERO PUSH2 0x13CB JUMPI PUSH2 0x13CA PUSH2 0x118A JUMP JUMPDEST JUMPDEST PUSH0 PUSH2 0x13D8 DUP6 DUP3 DUP7 ADD PUSH2 0x13A1 JUMP JUMPDEST SWAP3 POP POP PUSH1 0x20 PUSH2 0x13E9 DUP6 DUP3 DUP7 ADD PUSH2 0x12F4 JUMP JUMPDEST SWAP2 POP POP SWAP3 POP SWAP3 SWAP1 POP JUMP JUMPDEST PUSH2 0x13FC DUP2 PUSH2 0x12D5 JUMP JUMPDEST DUP3 MSTORE POP POP JUMP JUMPDEST PUSH0 PUSH1 0x20 DUP3 ADD SWAP1 POP PUSH2 0x1415 PUSH0 DUP4 ADD DUP5 PUSH2 0x13F3 JUMP JUMPDEST SWAP3 SWAP2 POP POP JUMP JUMPDEST PUSH0 DUP1 PUSH0 PUSH1 0x60 DUP5 DUP7 SUB SLT ISZERO PUSH2 0x1432 JUMPI PUSH2 0x1431 PUSH2 0x118A JUMP JUMPDEST JUMPDEST PUSH0 PUSH2 0x143F DUP7 DUP3 DUP8 ADD PUSH2 0x13A1 JUMP JUMPDEST SWAP4 POP POP PUSH1 0x20 PUSH2 0x1450 DUP7 DUP3 DUP8 ADD PUSH2 0x13A1 JUMP JUMPDEST SWAP3 POP POP PUSH1 0x40 PUSH2 0x1461 DUP7 DUP3 DUP8 ADD PUSH2 0x12F4 JUMP JUMPDEST SWAP2 POP POP SWAP3 POP SWAP3 POP SWAP3 JUMP JUMPDEST PUSH0 PUSH1 0x20 DUP3 DUP5 SUB SLT ISZERO PUSH2 0x1480 JUMPI PUSH2 0x147F PUSH2 0x118A JUMP JUMPDEST JUMPDEST PUSH0 PUSH2 0x148D DUP5 DUP3 DUP6 ADD PUSH2 0x13A1 JUMP JUMPDEST SWAP2 POP POP SWAP3 SWAP2 POP POP JUMP JUMPDEST PUSH2 0x149F DUP2 PUSH2 0x1212 JUMP JUMPDEST DUP2 EQ PUSH2 0x14A9 JUMPI PUSH0 DUP1 REVERT JUMPDEST POP JUMP JUMPDEST PUSH0 DUP2 CALLDATALOAD SWAP1 POP PUSH2 0x14BA DUP2 PUSH2 0x1496 JUMP JUMPDEST SWAP3 SWAP2 POP POP JUMP JUMPDEST PUSH0 DUP1 PUSH1 0x40 DUP4 DUP6 SUB SLT ISZERO PUSH2 0x14D6 JUMPI PUSH2 0x14D5 PUSH2 0x118A JUMP JUMPDEST JUMPDEST PUSH0 PUSH2 0x14E3 DUP6 DUP3 DUP7 ADD PUSH2 0x13A1 JUMP JUMPDEST SWAP3 POP POP PUSH1 0x20 PUSH2 0x14F4 DUP6 DUP3 DUP7 ADD PUSH2 0x14AC JUMP JUMPDEST SWAP2 POP POP SWAP3 POP SWAP3 SWAP1 POP JUMP JUMPDEST PUSH0 DUP1 REVERT JUMPDEST PUSH0 DUP1 REVERT JUMPDEST PUSH32 0x4E487B7100000000000000000000000000000000000000000000000000000000 PUSH0 MSTORE PUSH1 0x41 PUSH1 0x4 MSTORE PUSH1 0x24 PUSH0 REVERT JUMPDEST PUSH2 0x153C DUP3 PUSH2 0x126D JUMP JUMPDEST DUP2 ADD DUP2 DUP2 LT PUSH8 0xFFFFFFFFFFFFFFFF DUP3 GT OR ISZERO PUSH2 0x155B JUMPI PUSH2 0x155A PUSH2 0x1506 JUMP JUMPDEST JUMPDEST DUP1 PUSH1 0x40 MSTORE POP POP POP JUMP JUMPDEST PUSH0 PUSH2 0x156D PUSH2 0x1181 JUMP JUMPDEST SWAP1 POP PUSH2 0x1579 DUP3 DUP3 PUSH2 0x1533 JUMP JUMPDEST SWAP2 SWAP1 POP JUMP JUMPDEST PUSH0 PUSH8 0xFFFFFFFFFFFFFFFF DUP3 GT ISZERO PUSH2 0x1598 JUMPI PUSH2 0x1597 PUSH2 0x1506 JUMP JUMPDEST JUMPDEST PUSH2 0x15A1 DUP3 PUSH2 0x126D JUMP JUMPDEST SWAP1 POP PUSH1 0x20 DUP2 ADD SWAP1 POP SWAP2 SWAP1 POP JUMP JUMPDEST DUP3 DUP2 DUP4 CALLDATACOPY PUSH0 DUP4 DUP4 ADD MSTORE POP POP POP JUMP JUMPDEST PUSH0 PUSH2 0x15CE PUSH2 0x15C9 DUP5 PUSH2 0x157E JUMP JUMPDEST PUSH2 0x1564 JUMP JUMPDEST SWAP1 POP DUP3 DUP2 MSTORE PUSH1 0x20 DUP2 ADD DUP5 DUP5 DUP5 ADD GT ISZERO PUSH2 0x15EA JUMPI PUSH2 0x15E9 PUSH2 0x1502 JUMP JUMPDEST JUMPDEST PUSH2 0x15F5 DUP5 DUP3 DUP6 PUSH2 0x15AE JUMP JUMPDEST POP SWAP4 SWAP3 POP POP POP JUMP JUMPDEST PUSH0 DUP3 PUSH1 0x1F DUP4 ADD SLT PUSH2 0x1611 JUMPI PUSH2 0x1610 PUSH2 0x14FE JUMP JUMPDEST JUMPDEST DUP2 CALLDATALOAD PUSH2 0x1621 DUP5 DUP3 PUSH1 0x20 DUP7 ADD PUSH2 0x15BC JUMP JUMPDEST SWAP2 POP POP SWAP3 SWAP2 POP POP JUMP JUMPDEST PUSH0 DUP1 PUSH0 DUP1 PUSH1 0x80 DUP6 DUP8 SUB SLT ISZERO PUSH2 0x1642 JUMPI PUSH2 0x1641 PUSH2 0x118A JUMP JUMPDEST JUMPDEST PUSH0 PUSH2 0x164F DUP8 DUP3 DUP9 ADD PUSH2 0x13A1 JUMP JUMPDEST SWAP5 POP POP PUSH1 0x20 PUSH2 0x1660 DUP8 DUP3 DUP9 ADD PUSH2 0x13A1 JUMP JUMPDEST SWAP4 POP POP PUSH1 0x40 PUSH2 0x1671 DUP8 DUP3 DUP9 ADD PUSH2 0x12F4 JUMP JUMPDEST SWAP3 POP POP PUSH1 0x60 DUP6 ADD CALLDATALOAD PUSH8 0xFFFFFFFFFFFFFFFF DUP2 GT ISZERO PUSH2 0x1692 JUMPI PUSH2 0x1691 PUSH2 0x118E JUMP JUMPDEST JUMPDEST PUSH2 0x169E DUP8 DUP3 DUP9 ADD PUSH2 0x15FD JUMP JUMPDEST SWAP2 POP POP SWAP3 SWAP6 SWAP2 SWAP5 POP SWAP3 POP JUMP JUMPDEST PUSH0 DUP1 PUSH1 0x40 DUP4 DUP6 SUB SLT ISZERO PUSH2 0x16C0 JUMPI PUSH2 0x16BF PUSH2 0x118A JUMP JUMPDEST JUMPDEST PUSH0 PUSH2 0x16CD DUP6 DUP3 DUP7 ADD PUSH2 0x13A1 JUMP JUMPDEST SWAP3 POP POP PUSH1 0x20 PUSH2 0x16DE DUP6 DUP3 DUP7 ADD PUSH2 0x13A1 JUMP JUMPDEST SWAP2 POP POP SWAP3 POP SWAP3 SWAP1 POP JUMP JUMPDEST PUSH32 0x4E487B7100000000000000000000000000000000000000000000000000000000 PUSH0 MSTORE PUSH1 0x22 PUSH1 0x4 MSTORE PUSH1 0x24 PUSH0 REVERT JUMPDEST PUSH0 PUSH1 0x2 DUP3 DIV SWAP1 POP PUSH1 0x1 DUP3 AND DUP1 PUSH2 0x172C JUMPI PUSH1 0x7F DUP3 AND SWAP2 POP JUMPDEST PUSH1 0x20 DUP3 LT DUP2 SUB PUSH2 0x173F JUMPI PUSH2 0x173E PUSH2 0x16E8 JUMP JUMPDEST JUMPDEST POP SWAP2 SWAP1 POP JUMP JUMPDEST PUSH0 DUP2 SWAP1 POP SWAP3 SWAP2 POP POP JUMP JUMPDEST PUSH0 PUSH2 0x1759 DUP3 PUSH2 0x1245 JUMP JUMPDEST PUSH2 0x1763 DUP2 DUP6 PUSH2 0x1745 JUMP JUMPDEST SWAP4 POP PUSH2 0x1773 DUP2 DUP6 PUSH1 0x20 DUP7 ADD PUSH2 0x125F JUMP JUMPDEST DUP1 DUP5 ADD SWAP2 POP POP SWAP3 SWAP2 POP POP JUMP JUMPDEST PUSH0 PUSH2 0x178A DUP3 DUP6 PUSH2 0x174F JUMP JUMPDEST SWAP2 POP PUSH2 0x1796 DUP3 DUP5 PUSH2 0x174F JUMP JUMPDEST SWAP2 POP DUP2 SWAP1 POP SWAP4 SWAP3 POP POP POP JUMP JUMPDEST PUSH32 0x4E487B7100000000000000000000000000000000000000000000000000000000 PUSH0 MSTORE PUSH1 0x11 PUSH1 0x4 MSTORE PUSH1 0x24 PUSH0 REVERT JUMPDEST PUSH0 PUSH2 0x17D9 DUP3 PUSH2 0x12D5 JUMP JUMPDEST SWAP2 POP PUSH2 0x17E4 DUP4 PUSH2 0x12D5 JUMP JUMPDEST SWAP3 POP DUP3 DUP3 MUL PUSH2 0x17F2 DUP2 PUSH2 0x12D5 JUMP JUMPDEST SWAP2 POP DUP3 DUP3 DIV DUP5 EQ DUP4 ISZERO OR PUSH2 0x1809 JUMPI PUSH2 0x1808 PUSH2 0x17A2 JUMP JUMPDEST JUMPDEST POP SWAP3 SWAP2 POP POP JUMP JUMPDEST PUSH0 PUSH2 0x181A DUP3 PUSH2 0x12D5 JUMP JUMPDEST SWAP2 POP PUSH0 DUP3 SUB PUSH2 0x182C JUMPI PUSH2 0x182B PUSH2 0x17A2 JUMP JUMPDEST JUMPDEST PUSH1 0x1 DUP3 SUB SWAP1 POP SWAP2 SWAP1 POP JUMP JUMPDEST PUSH0 DUP2 MLOAD SWAP1 POP SWAP2 SWAP1 POP JUMP JUMPDEST PUSH0 DUP3 DUP3 MSTORE PUSH1 0x20 DUP3 ADD SWAP1 POP SWAP3 SWAP2 POP POP JUMP JUMPDEST PUSH0 PUSH2 0x185B DUP3 PUSH2 0x1837 JUMP JUMPDEST PUSH2 0x1865 DUP2 DUP6 PUSH2 0x1841 JUMP JUMPDEST SWAP4 POP PUSH2 0x1875 DUP2 DUP6 PUSH1 0x20 DUP7 ADD PUSH2 0x125F JUMP JUMPDEST PUSH2 0x187E DUP2 PUSH2 0x126D JUMP JUMPDEST DUP5 ADD SWAP2 POP POP SWAP3 SWAP2 POP POP JUMP JUMPDEST PUSH0 PUSH1 0x80 DUP3 ADD SWAP1 POP PUSH2 0x189C PUSH0 DUP4 ADD DUP8 PUSH2 0x1363 JUMP JUMPDEST PUSH2 0x18A9 PUSH1 0x20 DUP4 ADD DUP7 PUSH2 0x1363 JUMP JUMPDEST PUSH2 0x18B6 PUSH1 0x40 DUP4 ADD DUP6 PUSH2 0x13F3 JUMP JUMPDEST DUP2 DUP2 SUB PUSH1 0x60 DUP4 ADD MSTORE PUSH2 0x18C8 DUP2 DUP5 PUSH2 0x1851 JUMP JUMPDEST SWAP1 POP SWAP6 SWAP5 POP POP POP POP POP JUMP JUMPDEST PUSH0 DUP2 MLOAD SWAP1 POP PUSH2 0x18E1 DUP2 PUSH2 0x11BD JUMP JUMPDEST SWAP3 SWAP2 POP POP JUMP JUMPDEST PUSH0 PUSH1 0x20 DUP3 DUP5 SUB SLT ISZERO PUSH2 0x18FC JUMPI PUSH2 0x18FB PUSH2 0x118A JUMP JUMPDEST JUMPDEST PUSH0 PUSH2 0x1909 DUP5 DUP3 DUP6 ADD PUSH2 0x18D3 JUMP JUMPDEST SWAP2 POP POP SWAP3 SWAP2 POP POP JUMP INVALID LOG2 PUSH5 0x6970667358 0x22 SLT KECCAK256 SAR LOG3 PUSH11 0xF263E9F681CFE37AE9859B ORIGIN 0xDF RETURNDATASIZE 0xC3 PUSH22 0x22EBB2282230F626FF26EE9C1064736F6C634300081A STOP CALLER "
		},
		"gasEstimates": {
			"creation": {
				"codeDepositCost": "1294400",
				"executionCost": "infinite",
				"totalCost": "infinite"
			},
			"external": {
				"approve(address,uint256)": "infinite",
				"balanceOf(address)": "2893",
				"getApproved(uint256)": "infinite",
				"isApprovedForAll(address,address)": "infinite",
				"maxMintPerWallet()": "421",
				"mintPrice(uint256)": "infinite",
				"name()": "infinite",
				"ownerOf(uint256)": "infinite",
				"safeTransferFrom(address,address,uint256)": "infinite",
				"safeTransferFrom(address,address,uint256,bytes)": "infinite",
				"setApprovalForAll(address,bool)": "infinite",
				"supportsInterface(bytes4)": "736",
				"symbol()": "infinite",
				"tokenURI(uint256)": "infinite",
				"totalSupply()": "4657",
				"transferFrom(address,address,uint256)": "infinite"
			},
			"internal": {
				"_afterTokenTransfers(address,address,uint256,uint256)": "17",
				"_approve(address,uint256)": "infinite",
				"_approve(address,uint256,bool)": "infinite",
				"_baseURI()": "infinite",
				"_batchBurn(address,uint256[] memory)": "infinite",
				"_batchTransferFrom(address,address,address,uint256[] memory)": "infinite",
				"_batchTransferFrom(address,address,uint256[] memory)": "infinite",
				"_beforeTokenTransfers(address,address,uint256,uint256)": "17",
				"_burn(uint256,bool)": "infinite",
				"_checkContractOnERC721Received(address,address,uint256,bytes memory)": "infinite",
				"_exists(uint256)": "infinite",
				"_extraData(address,address,uint24)": "23",
				"_getApprovedSlotAndValue(uint256)": "2232",
				"_getAux(address)": "infinite",
				"_initializeOwnershipAt(uint256)": "infinite",
				"_isSenderApprovedOrOwner(uint256,uint256,uint256)": "49",
				"_mdataERC721A(uint256[] memory)": "infinite",
				"_mint(address,uint256)": "infinite",
				"_mloadERC721A(uint256)": "infinite",
				"_msgSenderERC721A()": "21",
				"_nextExtraData(address,address,uint256)": "112",
				"_nextInitializedFlag(uint256)": "infinite",
				"_nextTokenId()": "infinite",
				"_numberBurned(address)": "infinite",
				"_numberMinted(address)": "infinite",
				"_orERC721A(bool,bool)": "infinite",
				"_ownershipAt(uint256)": "infinite",
				"_ownershipIsInitialized(uint256)": "infinite",
				"_ownershipOf(uint256)": "infinite",
				"_packOwnershipData(address,uint256)": "60",
				"_packedOwnershipExists(uint256)": "45",
				"_packedOwnershipOf(uint256)": "infinite",
				"_revert(bytes4)": "17",
				"_safeBatchTransferFrom(address,address,address,uint256[] memory,bytes memory)": "infinite",
				"_sequentialUpTo()": "22",
				"_setAux(address,uint64)": "infinite",
				"_setExtraDataAt(uint256,uint24)": "infinite",
				"_startTokenId()": "22",
				"_toString(uint256)": "infinite",
				"_totalBurned()": "infinite",
				"_totalMinted()": "infinite",
				"_totalSpotMinted()": "infinite",
				"_unpackedOwnership(uint256)": "infinite"
			}
		},
		"methodIdentifiers": {
			"approve(address,uint256)": "095ea7b3",
			"balanceOf(address)": "70a08231",
			"getApproved(uint256)": "081812fc",
			"isApprovedForAll(address,address)": "e985e9c5",
			"maxMintPerWallet()": "b228d925",
			"mintPrice(uint256)": "e6a72acf",
			"name()": "06fdde03",
			"ownerOf(uint256)": "6352211e",
			"safeTransferFrom(address,address,uint256)": "42842e0e",
			"safeTransferFrom(address,address,uint256,bytes)": "b88d4fde",
			"setApprovalForAll(address,bool)": "a22cb465",
			"supportsInterface(bytes4)": "01ffc9a7",
			"symbol()": "95d89b41",
			"tokenURI(uint256)": "c87b56dd",
			"totalSupply()": "18160ddd",
			"transferFrom(address,address,uint256)": "23b872dd"
		}
	},
	"abi": [
		{
			"inputs": [
				{
					"internalType": "string",
					"name": "name_",
					"type": "string"
				},
				{
					"internalType": "string",
					"name": "symbol_",
					"type": "string"
				}
			],
			"stateMutability": "nonpayable",
			"type": "constructor"
		},
		{
			"inputs": [],
			"name": "ApprovalCallerNotOwnerNorApproved",
			"type": "error"
		},
		{
			"inputs": [],
			"name": "ApprovalQueryForNonexistentToken",
			"type": "error"
		},
		{
			"inputs": [],
			"name": "BalanceQueryForZeroAddress",
			"type": "error"
		},
		{
			"inputs": [],
			"name": "MintERC2309QuantityExceedsLimit",
			"type": "error"
		},
		{
			"inputs": [],
			"name": "MintToZeroAddress",
			"type": "error"
		},
		{
			"inputs": [],
			"name": "MintZeroQuantity",
			"type": "error"
		},
		{
			"inputs": [],
			"name": "NotCompatibleWithSpotMints",
			"type": "error"
		},
		{
			"inputs": [],
			"name": "OwnerQueryForNonexistentToken",
			"type": "error"
		},
		{
			"inputs": [],
			"name": "OwnershipNotInitializedForExtraData",
			"type": "error"
		},
		{
			"inputs": [],
			"name": "SequentialMintExceedsLimit",
			"type": "error"
		},
		{
			"inputs": [],
			"name": "SequentialUpToTooSmall",
			"type": "error"
		},
		{
			"inputs": [],
			"name": "SpotMintTokenIdTooSmall",
			"type": "error"
		},
		{
			"inputs": [],
			"name": "TokenAlreadyExists",
			"type": "error"
		},
		{
			"inputs": [],
			"name": "TokenIdsNotStrictlyAscending",
			"type": "error"
		},
		{
			"inputs": [],
			"name": "TransferCallerNotOwnerNorApproved",
			"type": "error"
		},
		{
			"inputs": [],
			"name": "TransferFromIncorrectOwner",
			"type": "error"
		},
		{
			"inputs": [],
			"name": "TransferToNonERC721ReceiverImplementer",
			"type": "error"
		},
		{
			"inputs": [],
			"name": "TransferToZeroAddress",
			"type": "error"
		},
		{
			"inputs": [],
			"name": "URIQueryForNonexistentToken",
			"type": "error"
		},
		{
			"anonymous": false,
			"inputs": [
				{
					"indexed": true,
					"internalType": "address",
					"name": "owner",
					"type": "address"
				},
				{
					"indexed": true,
					"internalType": "address",
					"name": "approved",
					"type": "address"
				},
				{
					"indexed": true,
					"internalType": "uint256",
					"name": "tokenId",
					"type": "uint256"
				}
			],
			"name": "Approval",
			"type": "event"
		},
		{
			"anonymous": false,
			"inputs": [
				{
					"indexed": true,
					"internalType": "address",
					"name": "owner",
					"type": "address"
				},
				{
					"indexed": true,
					"internalType": "address",
					"name": "operator",
					"type": "address"
				},
				{
					"indexed": false,
					"internalType": "bool",
					"name": "approved",
					"type": "bool"
				}
			],
			"name": "ApprovalForAll",
			"type": "event"
		},
		{
			"anonymous": false,
			"inputs": [
				{
					"indexed": true,
					"internalType": "uint256",
					"name": "fromTokenId",
					"type": "uint256"
				},
				{
					"indexed": false,
					"internalType": "uint256",
					"name": "toTokenId",
					"type": "uint256"
				},
				{
					"indexed": true,
					"internalType": "address",
					"name": "from",
					"type": "address"
				},
				{
					"indexed": true,
					"internalType": "address",
					"name": "to",
					"type": "address"
				}
			],
			"name": "ConsecutiveTransfer",
			"type": "event"
		},
		{
			"anonymous": false,
			"inputs": [
				{
					"indexed": true,
					"internalType": "address",
					"name": "from",
					"type": "address"
				},
				{
					"indexed": true,
					"internalType": "address",
					"name": "to",
					"type": "address"
				},
				{
					"indexed": true,
					"internalType": "uint256",
					"name": "tokenId",
					"type": "uint256"
				}
			],
			"name": "Transfer",
			"type": "event"
		},
		{
			"inputs": [
				{
					"internalType": "address",
					"name": "to",
					"type": "address"
				},
				{
					"internalType": "uint256",
					"name": "tokenId",
					"type": "uint256"
				}
			],
			"name": "approve",
			"outputs": [],
			"stateMutability": "payable",
			"type": "function"
		},
		{
			"inputs": [
				{
					"internalType": "address",
					"name": "owner",
					"type": "address"
				}
			],
			"name": "balanceOf",
			"outputs": [
				{
					"internalType": "uint256",
					"name": "",
					"type": "uint256"
				}
			],
			"stateMutability": "view",
			"type": "function"
		},
		{
			"inputs": [
				{
					"internalType": "uint256",
					"name": "tokenId",
					"type": "uint256"
				}
			],
			"name": "getApproved",
			"outputs": [
				{
					"internalType": "address",
					"name": "",
					"type": "address"
				}
			],
			"stateMutability": "view",
			"type": "function"
		},
		{
			"inputs": [
				{
					"internalType": "address",
					"name": "owner",
					"type": "address"
				},
				{
					"internalType": "address",
					"name": "operator",
					"type": "address"
				}
			],
			"name": "isApprovedForAll",
			"outputs": [
				{
					"internalType": "bool",
					"name": "",
					"type": "bool"
				}
			],
			"stateMutability": "view",
			"type": "function"
		},
		{
			"inputs": [],
			"name": "maxMintPerWallet",
			"outputs": [
				{
					"internalType": "uint256",
					"name": "",
					"type": "uint256"
				}
			],
			"stateMutability": "view",
			"type": "function"
		},
		{
			"inputs": [
				{
					"internalType": "uint256",
					"name": "quantity",
					"type": "uint256"
				}
			],
			"name": "mintPrice",
			"outputs": [
				{
					"internalType": "uint256",
					"name": "",
					"type": "uint256"
				}
			],
			"stateMutability": "view",
			"type": "function"
		},
		{
			"inputs": [],
			"name": "name",
			"outputs": [
				{
					"internalType": "string",
					"name": "",
					"type": "string"
				}
			],
			"stateMutability": "view",
			"type": "function"
		},
		{
			"inputs": [
				{
					"internalType": "uint256",
					"name": "tokenId",
					"type": "uint256"
				}
			],
			"name": "ownerOf",
			"outputs": [
				{
					"internalType": "address",
					"name": "",
					"type": "address"
				}
			],
			"stateMutability": "view",
			"type": "function"
		},
		{
			"inputs": [
				{
					"internalType": "address",
					"name": "from",
					"type": "address"
				},
				{
					"internalType": "address",
					"name": "to",
					"type": "address"
				},
				{
					"internalType": "uint256",
					"name": "tokenId",
					"type": "uint256"
				}
			],
			"name": "safeTransferFrom",
			"outputs": [],
			"stateMutability": "payable",
			"type": "function"
		},
		{
			"inputs": [
				{
					"internalType": "address",
					"name": "from",
					"type": "address"
				},
				{
					"internalType": "address",
					"name": "to",
					"type": "address"
				},
				{
					"internalType": "uint256",
					"name": "tokenId",
					"type": "uint256"
				},
				{
					"internalType": "bytes",
					"name": "_data",
					"type": "bytes"
				}
			],
			"name": "safeTransferFrom",
			"outputs": [],
			"stateMutability": "payable",
			"type": "function"
		},
		{
			"inputs": [
				{
					"internalType": "address",
					"name": "operator",
					"type": "address"
				},
				{
					"internalType": "bool",
					"name": "approved",
					"type": "bool"
				}
			],
			"name": "setApprovalForAll",
			"outputs": [],
			"stateMutability": "nonpayable",
			"type": "function"
		},
		{
			"inputs": [
				{
					"internalType": "bytes4",
					"name": "interfaceId",
					"type": "bytes4"
				}
			],
			"name": "supportsInterface",
			"outputs": [
				{
					"internalType": "bool",
					"name": "",
					"type": "bool"
				}
			],
			"stateMutability": "view",
			"type": "function"
		},
		{
			"inputs": [],
			"name": "symbol",
			"outputs": [
				{
					"internalType": "string",
					"name": "",
					"type": "string"
				}
			],
			"stateMutability": "view",
			"type": "function"
		},
		{
			"inputs": [
				{
					"internalType": "uint256",
					"name": "tokenId",
					"type": "uint256"
				}
			],
			"name": "tokenURI",
			"outputs": [
				{
					"internalType": "string",
					"name": "",
					"type": "string"
				}
			],
			"stateMutability": "view",
			"type": "function"
		},
		{
			"inputs": [],
			"name": "totalSupply",
			"outputs": [
				{
					"internalType": "uint256",
					"name": "result",
					"type": "uint256"
				}
			],
			"stateMutability": "view",
			"type": "function"
		},
		{
			"inputs": [
				{
					"internalType": "address",
					"name": "from",
					"type": "address"
				},
				{
					"internalType": "address",
					"name": "to",
					"type": "address"
				},
				{
					"internalType": "uint256",
					"name": "tokenId",
					"type": "uint256"
				}
			],
			"name": "transferFrom",
			"outputs": [],
			"stateMutability": "payable",
			"type": "function"
		}
	]
}