{
	"data": {
		"bytecode": {
			"linkReferences": {},
			"object": "6080604052610834600a556001600b556004600c556040518060a0016040528061010d61ffff1681526020016102b161ffff16815260200161056361ffff1681526020016106f361ffff1681526020016108ae61ffff16815250600d906005610069929190610398565b506040518060a001604052805f67ffffffffffffffff1681526020016705d423c655aa000067ffffffffffffffff1681526020016709935f581f05000067ffffffffffffffff168152602001670dbd2fc137a3000067ffffffffffffffff1681526020016711200c7644d5000067ffffffffffffffff16815250600e9060056100f39291906103e9565b5060405180602001604052805f815250600f90816101119190610695565b505f6010555f601155348015610125575f80fd5b50604051613687380380613687833981810160405281019061014791906107c2565b806040518060400160405280600a81526020017f46656c6c6f7741706573000000000000000000000000000000000000000000008152506040518060400160405280600281526020017f464100000000000000000000000000000000000000000000000000000000000081525081600290816101c39190610695565b5080600390816101d39190610695565b506101e26102a860201b60201c565b5f819055506101f56102a860201b60201c565b6102036102b060201b60201c565b10156102205761021f63fed8210f60e01b6102c460201b60201c565b5b50505f73ffffffffffffffffffffffffffffffffffffffff168173ffffffffffffffffffffffffffffffffffffffff1603610292575f6040517f1e4fbdf700000000000000000000000000000000000000000000000000000000815260040161028991906107fc565b60405180910390fd5b6102a1816102cc60201b60201c565b5050610815565b5f6001905090565b5f6102bf61038f60201b60201c565b905090565b805f5260045ffd5b5f60095f9054906101000a900473ffffffffffffffffffffffffffffffffffffffff1690508160095f6101000a81548173ffffffffffffffffffffffffffffffffffffffff021916908373ffffffffffffffffffffffffffffffffffffffff1602179055508173ffffffffffffffffffffffffffffffffffffffff168173ffffffffffffffffffffffffffffffffffffffff167f8be0079c531659141344cd1fd0a4f28419497f9722a3daafe3b4186f6b6457e060405160405180910390a35050565b5f6108ae905090565b828054828255905f5260205f209081019282156103d8579160200282015b828111156103d7578251829061ffff169055916020019190600101906103b6565b5b5090506103e59190610440565b5090565b828054828255905f5260205f2090810192821561042f579160200282015b8281111561042e578251829067ffffffffffffffff16905591602001919060010190610407565b5b50905061043c9190610440565b5090565b5b80821115610457575f815f905550600101610441565b5090565b5f81519050919050565b7f4e487b71000000000000000000000000000000000000000000000000000000005f52604160045260245ffd5b7f4e487b71000000000000000000000000000000000000000000000000000000005f52602260045260245ffd5b5f60028204905060018216806104d657607f821691505b6020821081036104e9576104e8610492565b5b50919050565b5f819050815f5260205f209050919050565b5f6020601f8301049050919050565b5f82821b905092915050565b5f6008830261054b7fffffffffffffffffffffffffffffffffffffffffffffffffffffffffffffffff82610510565b6105558683610510565b95508019841693508086168417925050509392505050565b5f819050919050565b5f819050919050565b5f61059961059461058f8461056d565b610576565b61056d565b9050919050565b5f819050919050565b6105b28361057f565b6105c66105be826105a0565b84845461051c565b825550505050565b5f90565b6105da6105ce565b6105e58184846105a9565b505050565b5b81811015610608576105fd5f826105d2565b6001810190506105eb565b5050565b601f82111561064d5761061e816104ef565b61062784610501565b81016020851015610636578190505b61064a61064285610501565b8301826105ea565b50505b505050565b5f82821c905092915050565b5f61066d5f1984600802610652565b1980831691505092915050565b5f610685838361065e565b9150826002028217905092915050565b61069e8261045b565b67ffffffffffffffff8111156106b7576106b6610465565b5b6106c182546104bf565b6106cc82828561060c565b5f60209050601f8311600181146106fd575f84156106eb578287015190505b6106f5858261067a565b86555061075c565b601f19841661070b866104ef565b5f5b828110156107325784890151825560018201915060208501945060208101905061070d565b8683101561074f578489015161074b601f89168261065e565b8355505b6001600288020188555050505b505050505050565b5f80fd5b5f73ffffffffffffffffffffffffffffffffffffffff82169050919050565b5f61079182610768565b9050919050565b6107a181610787565b81146107ab575f80fd5b50565b5f815190506107bc81610798565b92915050565b5f602082840312156107d7576107d6610764565b5b5f6107e4848285016107ae565b91505092915050565b6107f681610787565b82525050565b5f60208201905061080f5f8301846107ed565b92915050565b612e65806108225f395ff3fe60806040526004361061019b575f3560e01c8063715018a6116100eb578063b228d92511610089578063c87b56dd11610063578063c87b56dd1461054b578063e6a72acf14610587578063e985e9c5146105c3578063f2fde38b146105ff5761019b565b8063b228d925146104c9578063b88d4fde146104f3578063b9066c0a1461050f5761019b565b80639d5561e1116100c55780639d5561e114610445578063a0712d681461046f578063a22cb4651461048b578063ac446002146104b35761019b565b8063715018a6146103db5780638da5cb5b146103f157806395d89b411461041b5761019b565b8063375a069a1161015857806355f804b31161013257806355f804b3146103115780635bf5d54c146103395780636352211e1461036357806370a082311461039f5761019b565b8063375a069a146102a357806342842e0e146102cb57806345c0f533146102e75761019b565b806301ffc9a71461019f57806306fdde03146101db578063081812fc14610205578063095ea7b31461024157806318160ddd1461025d57806323b872dd14610287575b5f80fd5b3480156101aa575f80fd5b506101c560048036038101906101c091906120a4565b610627565b6040516101d291906120e9565b60405180910390f35b3480156101e6575f80fd5b506101ef6106b8565b6040516101fc9190612172565b60405180910390f35b348015610210575f80fd5b5061022b600480360381019061022691906121c5565b610748565b604051610238919061222f565b60405180910390f35b61025b60048036038101906102569190612272565b6107a1565b005b348015610268575f80fd5b506102716107b1565b60405161027e91906122bf565b60405180910390f35b6102a1600480360381019061029c91906122d8565b6107fc565b005b3480156102ae575f80fd5b506102c960048036038101906102c491906121c5565b610a7d565b005b6102e560048036038101906102e091906122d8565b610afd565b005b3480156102f2575f80fd5b506102fb610b1c565b60405161030891906122bf565b60405180910390f35b34801561031c575f80fd5b5061033760048036038101906103329190612389565b610b25565b005b348015610344575f80fd5b5061034d610b43565b60405161035a91906122bf565b60405180910390f35b34801561036e575f80fd5b50610389600480360381019061038491906121c5565b610b4c565b604051610396919061222f565b60405180910390f35b3480156103aa575f80fd5b506103c560048036038101906103c091906123d4565b610b5d565b6040516103d291906122bf565b60405180910390f35b3480156103e6575f80fd5b506103ef610bf1565b005b3480156103fc575f80fd5b50610405610c04565b604051610412919061222f565b60405180910390f35b348015610426575f80fd5b5061042f610c2c565b60405161043c9190612172565b60405180910390f35b348015610450575f80fd5b50610459610cbc565b60405161046691906122bf565b60405180910390f35b610489600480360381019061048491906121c5565b610d18565b005b348015610496575f80fd5b506104b160048036038101906104ac9190612429565b610efe565b005b3480156104be575f80fd5b506104c7611004565b005b3480156104d4575f80fd5b506104dd6110f9565b6040516104ea91906122bf565b60405180910390f35b61050d6004803603810190610508919061258f565b611102565b005b34801561051a575f80fd5b50610535600480360381019061053091906123d4565b611153565b60405161054291906122bf565b60405180910390f35b348015610556575f80fd5b50610571600480360381019061056c91906121c5565b61118d565b60405161057e9190612172565b60405180910390f35b348015610592575f80fd5b506105ad60048036038101906105a891906121c5565b611207565b6040516105ba91906122bf565b60405180910390f35b3480156105ce575f80fd5b506105e960048036038101906105e4919061260f565b6113dd565b6040516105f691906120e9565b60405180910390f35b34801561060a575f80fd5b50610625600480360381019061062091906123d4565b61146b565b005b5f6301ffc9a760e01b827bffffffffffffffffffffffffffffffffffffffffffffffffffffffff1916148061068157506380ac58cd60e01b827bffffffffffffffffffffffffffffffffffffffffffffffffffffffff1916145b806106b15750635b5e139f60e01b827bffffffffffffffffffffffffffffffffffffffffffffffffffffffff1916145b9050919050565b6060600280546106c79061267a565b80601f01602080910402602001604051908101604052809291908181526020018280546106f39061267a565b801561073e5780601f106107155761010080835404028352916020019161073e565b820191905f5260205f20905b81548152906001019060200180831161072157829003601f168201915b5050505050905090565b5f610752826114ef565b6107675761076663cf4700e460e01b611592565b5b60065f8381526020019081526020015f205f015f9054906101000a900473ffffffffffffffffffffffffffffffffffffffff169050919050565b6107ad8282600161159a565b5050565b5f6107ba6116c4565b6001545f54030390507fffffffffffffffffffffffffffffffffffffffffffffffffffffffffffffffff6107ec6116cc565b146107f957600854810190505b90565b5f610806826116da565b90505f8473ffffffffffffffffffffffffffffffffffffffff169050808273ffffffffffffffffffffffffffffffffffffffff16146108505761084f63a114810060e01b611592565b5b5f8061085b856117e9565b91509150610887818461086c61180c565b73ffffffffffffffffffffffffffffffffffffffff16611813565b6108b25761089c8761089761180c565b6113dd565b6108b1576108b06359c896be60e01b611592565b5b5b6108bf8787876001611824565b80156108c9575f82555b60055f8873ffffffffffffffffffffffffffffffffffffffff1673ffffffffffffffffffffffffffffffffffffffff1681526020019081526020015f205f8154600190039190508190555060055f8773ffffffffffffffffffffffffffffffffffffffff1673ffffffffffffffffffffffffffffffffffffffff1681526020019081526020015f205f8154600101919050819055506109918661096d89898861182a565b7c020000000000000000000000000000000000000000000000000000000017611851565b60045f8781526020019081526020015f20819055505f7c0200000000000000000000000000000000000000000000000000000000851603610a0d575f6001860190505f60045f8381526020019081526020015f205403610a0b575f548114610a0a578460045f8381526020019081526020015f20819055505b5b505b5f8673ffffffffffffffffffffffffffffffffffffffff1690508581857fddf252ad1be2c89b69c2b068fc378daa952ba7f163c4a11628f55a4df523b3ef5f80a45f8103610a6657610a6563ea553b3460e01b611592565b5b610a73888888600161187b565b5050505050505050565b610a85611881565b600a5481610a9233611908565b610a9c91906126d7565b10610adc576040517f08c379a0000000000000000000000000000000000000000000000000000000008152600401610ad390612754565b60405180910390fd5b610ae6338261195c565b80601054610af491906126d7565b60108190555050565b610b1783838360405180602001604052805f815250611102565b505050565b5f6108ae905090565b610b2d611881565b8181600f9182610b3e929190612919565b505050565b5f601154905090565b5f610b56826116da565b9050919050565b5f8073ffffffffffffffffffffffffffffffffffffffff168273ffffffffffffffffffffffffffffffffffffffff1603610ba257610ba1638f4eb60460e01b611592565b5b67ffffffffffffffff60055f8473ffffffffffffffffffffffffffffffffffffffff1673ffffffffffffffffffffffffffffffffffffffff1681526020019081526020015f2054169050919050565b610bf9611881565b610c025f611aba565b565b5f60095f9054906101000a900473ffffffffffffffffffffffffffffffffffffffff16905090565b606060038054610c3b9061267a565b80601f0160208091040260200160405190810160405280929190818152602001828054610c679061267a565b8015610cb25780601f10610c8957610100808354040283529160200191610cb2565b820191905f5260205f20905b815481529060010190602001808311610c9557829003601f168201915b5050505050905090565b5f8060115403610cf0575f610cd033611b7d565b67ffffffffffffffff1603610ce85760019050610d15565b5f9050610d15565b610cf8611bc7565b600c54600b54610d0891906126d7565b610d1291906129e6565b90505b90565b5f8114158015610d2f5750610d2b610cbc565b8111155b610d6e576040517f08c379a0000000000000000000000000000000000000000000000000000000008152600401610d6590612a63565b60405180910390fd5b6001811480610da85750600d60115481548110610d8e57610d8d612a81565b5b905f5260205f20015481601054610da591906126d7565b11155b610de7576040517f08c379a0000000000000000000000000000000000000000000000000000000008152600401610dde90612af8565b60405180910390fd5b5f610df182611207565b905080341015610e36576040517f08c379a0000000000000000000000000000000000000000000000000000000008152600401610e2d90612b60565b60405180910390fd5b610e40338361195c565b81601054610e4e91906126d7565b6010819055505f60115403610e6957610e68336001611c05565b5b5f6011819055505f600190505b6005811015610ef057600d600182610e8e91906129e6565b81548110610e9f57610e9e612a81565b5b905f5260205f200154601054118015610ed65750600d8181548110610ec757610ec6612a81565b5b905f5260205f20015460105411155b15610ee357806011819055505b8080600101915050610e76565b50610efa81611cb5565b5050565b8060075f610f0a61180c565b73ffffffffffffffffffffffffffffffffffffffff1673ffffffffffffffffffffffffffffffffffffffff1681526020019081526020015f205f8473ffffffffffffffffffffffffffffffffffffffff1673ffffffffffffffffffffffffffffffffffffffff1681526020019081526020015f205f6101000a81548160ff0219169083151502179055508173ffffffffffffffffffffffffffffffffffffffff16610fb361180c565b73ffffffffffffffffffffffffffffffffffffffff167f17307eab39ab6107e8899845ad3d59bd9653f200f220920489ca2b5937696c3183604051610ff891906120e9565b60405180910390a35050565b61100c611881565b5f471161104e576040517f08c379a000000000000000000000000000000000000000000000000000000000815260040161104590612bc8565b60405180910390fd5b5f3373ffffffffffffffffffffffffffffffffffffffff164760405161107390612c13565b5f6040518083038185875af1925050503d805f81146110ad576040519150601f19603f3d011682016040523d82523d5f602084013e6110b2565b606091505b50509050806110f6576040517f08c379a00000000000000000000000000000000000000000000000000000000081526004016110ed90612c71565b60405180910390fd5b50565b5f600c54905090565b61110d8484846107fc565b5f8373ffffffffffffffffffffffffffffffffffffffff163b1461114d5761113784848484611d10565b61114c5761114b63d1a57ed660e01b611592565b5b5b50505050565b5f8060115414801561117657505f61116a83611b7d565b67ffffffffffffffff16145b611180575f611183565b60015b60ff169050919050565b6060611198826114ef565b6111ad576111ac63a14c4b5060e01b611592565b5b5f6111b6611e3a565b90505f8151036111d45760405180602001604052805f8152506111ff565b806111de84611eca565b6040516020016111ef929190612cc9565b6040516020818303038152906040525b915050919050565b5f80820361121c5764019dc792ac90506113d8565b5f601154036112605760018214801561124657505f61123a33611b7d565b67ffffffffffffffff16145b15611253575f90506113d8565b64019dc792ac90506113d8565b5f600e6011548154811061127757611276612a81565b5b905f5260205f200154611288611f19565b8461129391906129e6565b61129d9190612cec565b90506011546112b8846010546112b391906126d7565b611f47565b146113d3575f600d601154815481106112d4576112d3612a81565b5b905f5260205f200154846010546112eb91906126d7565b6112f591906129e6565b90505f818561130491906129e6565b9050600e600160115461131791906126d7565b8154811061132857611327612a81565b5b905f5260205f2001548261133c9190612cec565b600e6011548154811061135257611351612a81565b5b905f5260205f200154826113669190612cec565b61137091906126d7565b92505f61137b611f19565b03611386575f6113c3565b600e5f8203611396576001611398565b5f5b60ff166011546113a891906126d7565b815481106113b9576113b8612a81565b5b905f5260205f2001545b836113ce91906129e6565b925050505b809150505b919050565b5f60075f8473ffffffffffffffffffffffffffffffffffffffff1673ffffffffffffffffffffffffffffffffffffffff1681526020019081526020015f205f8373ffffffffffffffffffffffffffffffffffffffff1673ffffffffffffffffffffffffffffffffffffffff1681526020019081526020015f205f9054906101000a900460ff16905092915050565b611473611881565b5f73ffffffffffffffffffffffffffffffffffffffff168173ffffffffffffffffffffffffffffffffffffffff16036114e3575f6040517f1e4fbdf70000000000000000000000000000000000000000000000000000000081526004016114da919061222f565b60405180910390fd5b6114ec81611aba565b50565b5f816114f96116c4565b1161158c576115066116cc565b82111561152e5761152760045f8481526020019081526020015f2054611fe0565b905061158d565b5f5482101561158b575f5b5f60045f8581526020019081526020015f205491508103611565578261155e90612d2d565b9250611539565b5f7c01000000000000000000000000000000000000000000000000000000008216149150505b5b5b919050565b805f5260045ffd5b5f6115a483610b4c565b90508180156115e657508073ffffffffffffffffffffffffffffffffffffffff166115cd61180c565b73ffffffffffffffffffffffffffffffffffffffff1614155b15611612576115fc816115f761180c565b6113dd565b6116115761161063cfb3b94260e01b611592565b5b5b8360065f8581526020019081526020015f205f015f6101000a81548173ffffffffffffffffffffffffffffffffffffffff021916908373ffffffffffffffffffffffffffffffffffffffff160217905550828473ffffffffffffffffffffffffffffffffffffffff168273ffffffffffffffffffffffffffffffffffffffff167f8c5be1e5ebec7d5bd14f71427d1e84f3dd0314c0f7b2291e5b200ac8c7c3b92560405160405180910390a450505050565b5f6001905090565b5f6116d5610b1c565b905090565b5f816116e46116c4565b116117d35760045f8381526020019081526020015f205490506117056116cc565b82111561172a5761171581611fe0565b6117e45761172963df2d9b4260e01b611592565b5b5f81036117ab575f54821061174a5761174963df2d9b4260e01b611592565b5b5b60045f836001900393508381526020019081526020015f205490505f8103156117a6575f7c0100000000000000000000000000000000000000000000000000000000821603156117e4576117a563df2d9b4260e01b611592565b5b61174b565b5f7c0100000000000000000000000000000000000000000000000000000000821603156117e4575b6117e363df2d9b4260e01b611592565b5b919050565b5f805f60065f8581526020019081526020015f2090508092508254915050915091565b5f33905090565b5f8382148383141790509392505050565b50505050565b5f8060e883901c905060e8611840868684612020565b62ffffff16901b9150509392505050565b5f73ffffffffffffffffffffffffffffffffffffffff83169250814260a01b178317905092915050565b50505050565b611889612028565b73ffffffffffffffffffffffffffffffffffffffff166118a7610c04565b73ffffffffffffffffffffffffffffffffffffffff1614611906576118ca612028565b6040517f118cdaa70000000000000000000000000000000000000000000000000000000081526004016118fd919061222f565b60405180910390fd5b565b5f67ffffffffffffffff604060055f8573ffffffffffffffffffffffffffffffffffffffff1673ffffffffffffffffffffffffffffffffffffffff1681526020019081526020015f2054901c169050919050565b5f805490505f82036119795761197863b562e8dd60e01b611592565b5b6119855f848385611824565b6119a3836119945f865f61182a565b61199d8561202f565b17611851565b60045f8381526020019081526020015f2081905550600160406001901b17820260055f8573ffffffffffffffffffffffffffffffffffffffff1673ffffffffffffffffffffffffffffffffffffffff1681526020019081526020015f205f82825401925050819055505f8373ffffffffffffffffffffffffffffffffffffffff1690505f8103611a3e57611a3d632e07630060e01b611592565b5b5f83830190505f839050611a506116cc565b600183031115611a6b57611a6a6381647e3a60e01b611592565b5b5b80835f7fddf252ad1be2c89b69c2b068fc378daa952ba7f163c4a11628f55a4df523b3ef5f80a4818160010191508103611a6c57815f81905550505050611ab55f84838561187b565b505050565b5f60095f9054906101000a900473ffffffffffffffffffffffffffffffffffffffff1690508160095f6101000a81548173ffffffffffffffffffffffffffffffffffffffff021916908373ffffffffffffffffffffffffffffffffffffffff1602179055508173ffffffffffffffffffffffffffffffffffffffff168173ffffffffffffffffffffffffffffffffffffffff167f8be0079c531659141344cd1fd0a4f28419497f9722a3daafe3b4186f6b6457e060405160405180910390a35050565b5f60c060055f8473ffffffffffffffffffffffffffffffffffffffff1673ffffffffffffffffffffffffffffffffffffffff1681526020019081526020015f2054901c9050919050565b5f80611bd233611b7d565b67ffffffffffffffff1614611be8576001611bea565b5f5b60ff16611bf633611908565b611c0091906129e6565b905090565b5f60055f8473ffffffffffffffffffffffffffffffffffffffff1673ffffffffffffffffffffffffffffffffffffffff1681526020019081526020015f205490505f82905060c081901b77ffffffffffffffffffffffffffffffffffffffffffffffff83161791508160055f8673ffffffffffffffffffffffffffffffffffffffff1673ffffffffffffffffffffffffffffffffffffffff1681526020019081526020015f208190555050505050565b80341115611d0d573373ffffffffffffffffffffffffffffffffffffffff166108fc8234611ce391906129e6565b90811502906040515f60405180830381858888f19350505050158015611d0b573d5f803e3d5ffd5b505b50565b5f8373ffffffffffffffffffffffffffffffffffffffff1663150b7a02611d3561180c565b8786866040518563ffffffff1660e01b8152600401611d579493929190612da6565b6020604051808303815f875af1925050508015611d9257506040513d601f19601f82011682018060405250810190611d8f9190612e04565b60015b611de7573d805f8114611dc0576040519150601f19603f3d011682016040523d82523d5f602084013e611dc5565b606091505b505f815103611ddf57611dde63d1a57ed660e01b611592565b5b805181602001fd5b63150b7a0260e01b7bffffffffffffffffffffffffffffffffffffffffffffffffffffffff1916817bffffffffffffffffffffffffffffffffffffffffffffffffffffffff191614915050949350505050565b6060600f8054611e499061267a565b80601f0160208091040260200160405190810160405280929190818152602001828054611e759061267a565b8015611ec05780601f10611e9757610100808354040283529160200191611ec0565b820191905f5260205f20905b815481529060010190602001808311611ea357829003601f168201915b5050505050905090565b606060a060405101806040526020810391505f825281835b600115611f0457600184039350600a81066030018453600a8104905080611ee2575b50828103602084039350808452505050919050565b5f8060115414158015611f3257505f611f30611bc7565b145b611f3c575f611f3f565b60015b60ff16905090565b5f805f90505f600190505b6005811015611fd6575f8103611f68575f611f92565b600d600182611f7791906129e6565b81548110611f8857611f87612a81565b5b905f5260205f2001545b84118015611fbc5750600d8181548110611faf57611fae612a81565b5b905f5260205f2001548411155b15611fc957809150611fd6565b8080600101915050611f52565b5080915050919050565b5f7c0100000000000000000000000000000000000000000000000000000000821673ffffffffffffffffffffffffffffffffffffffff8316119050919050565b5f9392505050565b5f33905090565b5f6001821460e11b9050919050565b5f604051905090565b5f80fd5b5f80fd5b5f7fffffffff0000000000000000000000000000000000000000000000000000000082169050919050565b6120838161204f565b811461208d575f80fd5b50565b5f8135905061209e8161207a565b92915050565b5f602082840312156120b9576120b8612047565b5b5f6120c684828501612090565b91505092915050565b5f8115159050919050565b6120e3816120cf565b82525050565b5f6020820190506120fc5f8301846120da565b92915050565b5f81519050919050565b5f82825260208201905092915050565b8281835e5f83830152505050565b5f601f19601f8301169050919050565b5f61214482612102565b61214e818561210c565b935061215e81856020860161211c565b6121678161212a565b840191505092915050565b5f6020820190508181035f83015261218a818461213a565b905092915050565b5f819050919050565b6121a481612192565b81146121ae575f80fd5b50565b5f813590506121bf8161219b565b92915050565b5f602082840312156121da576121d9612047565b5b5f6121e7848285016121b1565b91505092915050565b5f73ffffffffffffffffffffffffffffffffffffffff82169050919050565b5f612219826121f0565b9050919050565b6122298161220f565b82525050565b5f6020820190506122425f830184612220565b92915050565b6122518161220f565b811461225b575f80fd5b50565b5f8135905061226c81612248565b92915050565b5f806040838503121561228857612287612047565b5b5f6122958582860161225e565b92505060206122a6858286016121b1565b9150509250929050565b6122b981612192565b82525050565b5f6020820190506122d25f8301846122b0565b92915050565b5f805f606084860312156122ef576122ee612047565b5b5f6122fc8682870161225e565b935050602061230d8682870161225e565b925050604061231e868287016121b1565b9150509250925092565b5f80fd5b5f80fd5b5f80fd5b5f8083601f84011261234957612348612328565b5b8235905067ffffffffffffffff8111156123665761236561232c565b5b60208301915083600182028301111561238257612381612330565b5b9250929050565b5f806020838503121561239f5761239e612047565b5b5f83013567ffffffffffffffff8111156123bc576123bb61204b565b5b6123c885828601612334565b92509250509250929050565b5f602082840312156123e9576123e8612047565b5b5f6123f68482850161225e565b91505092915050565b612408816120cf565b8114612412575f80fd5b50565b5f81359050612423816123ff565b92915050565b5f806040838503121561243f5761243e612047565b5b5f61244c8582860161225e565b925050602061245d85828601612415565b9150509250929050565b5f80fd5b7f4e487b71000000000000000000000000000000000000000000000000000000005f52604160045260245ffd5b6124a18261212a565b810181811067ffffffffffffffff821117156124c0576124bf61246b565b5b80604052505050565b5f6124d261203e565b90506124de8282612498565b919050565b5f67ffffffffffffffff8211156124fd576124fc61246b565b5b6125068261212a565b9050602081019050919050565b828183375f83830152505050565b5f61253361252e846124e3565b6124c9565b90508281526020810184848401111561254f5761254e612467565b5b61255a848285612513565b509392505050565b5f82601f83011261257657612575612328565b5b8135612586848260208601612521565b91505092915050565b5f805f80608085870312156125a7576125a6612047565b5b5f6125b48782880161225e565b94505060206125c58782880161225e565b93505060406125d6878288016121b1565b925050606085013567ffffffffffffffff8111156125f7576125f661204b565b5b61260387828801612562565b91505092959194509250565b5f806040838503121561262557612624612047565b5b5f6126328582860161225e565b92505060206126438582860161225e565b9150509250929050565b7f4e487b71000000000000000000000000000000000000000000000000000000005f52602260045260245ffd5b5f600282049050600182168061269157607f821691505b6020821081036126a4576126a361264d565b5b50919050565b7f4e487b71000000000000000000000000000000000000000000000000000000005f52601160045260245ffd5b5f6126e182612192565b91506126ec83612192565b9250828201905080821115612704576127036126aa565b5b92915050565b7f444d4600000000000000000000000000000000000000000000000000000000005f82015250565b5f61273e60038361210c565b91506127498261270a565b602082019050919050565b5f6020820190508181035f83015261276b81612732565b9050919050565b5f82905092915050565b5f819050815f5260205f209050919050565b5f6020601f8301049050919050565b5f82821b905092915050565b5f600883026127d87fffffffffffffffffffffffffffffffffffffffffffffffffffffffffffffffff8261279d565b6127e2868361279d565b95508019841693508086168417925050509392505050565b5f819050919050565b5f61281d61281861281384612192565b6127fa565b612192565b9050919050565b5f819050919050565b61283683612803565b61284a61284282612824565b8484546127a9565b825550505050565b5f90565b61285e612852565b61286981848461282d565b505050565b5b8181101561288c576128815f82612856565b60018101905061286f565b5050565b601f8211156128d1576128a28161277c565b6128ab8461278e565b810160208510156128ba578190505b6128ce6128c68561278e565b83018261286e565b50505b505050565b5f82821c905092915050565b5f6128f15f19846008026128d6565b1980831691505092915050565b5f61290983836128e2565b9150826002028217905092915050565b6129238383612772565b67ffffffffffffffff81111561293c5761293b61246b565b5b612946825461267a565b612951828285612890565b5f601f83116001811461297e575f841561296c578287013590505b61297685826128fe565b8655506129dd565b601f19841661298c8661277c565b5f5b828110156129b35784890135825560018201915060208501945060208101905061298e565b868310156129d057848901356129cc601f8916826128e2565b8355505b6001600288020188555050505b50505050505050565b5f6129f082612192565b91506129fb83612192565b9250828203905081811115612a1357612a126126aa565b5b92915050565b7f51000000000000000000000000000000000000000000000000000000000000005f82015250565b5f612a4d60018361210c565b9150612a5882612a19565b602082019050919050565b5f6020820190508181035f830152612a7a81612a41565b9050919050565b7f4e487b71000000000000000000000000000000000000000000000000000000005f52603260045260245ffd5b7f53510000000000000000000000000000000000000000000000000000000000005f82015250565b5f612ae260028361210c565b9150612aed82612aae565b602082019050919050565b5f6020820190508181035f830152612b0f81612ad6565b9050919050565b7f50000000000000000000000000000000000000000000000000000000000000005f82015250565b5f612b4a60018361210c565b9150612b5582612b16565b602082019050919050565b5f6020820190508181035f830152612b7781612b3e565b9050919050565b7f57000000000000000000000000000000000000000000000000000000000000005f82015250565b5f612bb260018361210c565b9150612bbd82612b7e565b602082019050919050565b5f6020820190508181035f830152612bdf81612ba6565b9050919050565b5f81905092915050565b50565b5f612bfe5f83612be6565b9150612c0982612bf0565b5f82019050919050565b5f612c1d82612bf3565b9150819050919050565b7f57460000000000000000000000000000000000000000000000000000000000005f82015250565b5f612c5b60028361210c565b9150612c6682612c27565b602082019050919050565b5f6020820190508181035f830152612c8881612c4f565b9050919050565b5f81905092915050565b5f612ca382612102565b612cad8185612c8f565b9350612cbd81856020860161211c565b80840191505092915050565b5f612cd48285612c99565b9150612ce08284612c99565b91508190509392505050565b5f612cf682612192565b9150612d0183612192565b9250828202612d0f81612192565b91508282048414831517612d2657612d256126aa565b5b5092915050565b5f612d3782612192565b91505f8203612d4957612d486126aa565b5b600182039050919050565b5f81519050919050565b5f82825260208201905092915050565b5f612d7882612d54565b612d828185612d5e565b9350612d9281856020860161211c565b612d9b8161212a565b840191505092915050565b5f608082019050612db95f830187612220565b612dc66020830186612220565b612dd360408301856122b0565b8181036060830152612de58184612d6e565b905095945050505050565b5f81519050612dfe8161207a565b92915050565b5f60208284031215612e1957612e18612047565b5b5f612e2684828501612df0565b9150509291505056fea2646970667358221220fd448b729c3e507f90ef191aa2d504088e22ee7038492d75294174a9f0ad364664736f6c634300081a0033",
			"opcodes": "PUSH1 0x80 PUSH1 0x40 MSTORE PUSH2 0x834 PUSH1 0xA SSTORE PUSH1 0x1 PUSH1 0xB SSTORE PUSH1 0x4 PUSH1 0xC SSTORE PUSH1 0x40 MLOAD DUP1 PUSH1 0xA0 ADD PUSH1 0x40 MSTORE DUP1 PUSH2 0x10D PUSH2 0xFFFF AND DUP2 MSTORE PUSH1 0x20 ADD PUSH2 0x2B1 PUSH2 0xFFFF AND DUP2 MSTORE PUSH1 0x20 ADD PUSH2 0x563 PUSH2 0xFFFF AND DUP2 MSTORE PUSH1 0x20 ADD PUSH2 0x6F3 PUSH2 0xFFFF AND DUP2 MSTORE PUSH1 0x20 ADD PUSH2 0x8AE PUSH2 0xFFFF AND DUP2 MSTORE POP PUSH1 0xD SWAP1 PUSH1 0x5 PUSH2 0x69 SWAP3 SWAP2 SWAP1 PUSH2 0x398 JUMP JUMPDEST POP PUSH1 0x40 MLOAD DUP1 PUSH1 0xA0 ADD PUSH1 0x40 MSTORE DUP1 PUSH0 PUSH8 0xFFFFFFFFFFFFFFFF AND DUP2 MSTORE PUSH1 0x20 ADD PUSH8 0x5D423C655AA0000 PUSH8 0xFFFFFFFFFFFFFFFF AND DUP2 MSTORE PUSH1 0x20 ADD PUSH8 0x9935F581F050000 PUSH8 0xFFFFFFFFFFFFFFFF AND DUP2 MSTORE PUSH1 0x20 ADD PUSH8 0xDBD2FC137A30000 PUSH8 0xFFFFFFFFFFFFFFFF AND DUP2 MSTORE PUSH1 0x20 ADD PUSH8 0x11200C7644D50000 PUSH8 0xFFFFFFFFFFFFFFFF AND DUP2 MSTORE POP PUSH1 0xE SWAP1 PUSH1 0x5 PUSH2 0xF3 SWAP3 SWAP2 SWAP1 PUSH2 0x3E9 JUMP JUMPDEST POP PUSH1 0x40 MLOAD DUP1 PUSH1 0x20 ADD PUSH1 0x40 MSTORE DUP1 PUSH0 DUP2 MSTORE POP PUSH1 0xF SWAP1 DUP2 PUSH2 0x111 SWAP2 SWAP1 PUSH2 0x695 JUMP JUMPDEST POP PUSH0 PUSH1 0x10 SSTORE PUSH0 PUSH1 0x11 SSTORE CALLVALUE DUP1 ISZERO PUSH2 0x125 JUMPI PUSH0 DUP1 REVERT JUMPDEST POP PUSH1 0x40 MLOAD PUSH2 0x3687 CODESIZE SUB DUP1 PUSH2 0x3687 DUP4 CODECOPY DUP2 DUP2 ADD PUSH1 0x40 MSTORE DUP2 ADD SWAP1 PUSH2 0x147 SWAP2 SWAP1 PUSH2 0x7C2 JUMP JUMPDEST DUP1 PUSH1 0x40 MLOAD DUP1 PUSH1 0x40 ADD PUSH1 0x40 MSTORE DUP1 PUSH1 0xA DUP2 MSTORE PUSH1 0x20 ADD PUSH32 0x46656C6C6F774170657300000000000000000000000000000000000000000000 DUP2 MSTORE POP PUSH1 0x40 MLOAD DUP1 PUSH1 0x40 ADD PUSH1 0x40 MSTORE DUP1 PUSH1 0x2 DUP2 MSTORE PUSH1 0x20 ADD PUSH32 0x4641000000000000000000000000000000000000000000000000000000000000 DUP2 MSTORE POP DUP2 PUSH1 0x2 SWAP1 DUP2 PUSH2 0x1C3 SWAP2 SWAP1 PUSH2 0x695 JUMP JUMPDEST POP DUP1 PUSH1 0x3 SWAP1 DUP2 PUSH2 0x1D3 SWAP2 SWAP1 PUSH2 0x695 JUMP JUMPDEST POP PUSH2 0x1E2 PUSH2 0x2A8 PUSH1 0x20 SHL PUSH1 0x20 SHR JUMP JUMPDEST PUSH0 DUP2 SWAP1 SSTORE POP PUSH2 0x1F5 PUSH2 0x2A8 PUSH1 0x20 SHL PUSH1 0x20 SHR JUMP JUMPDEST PUSH2 0x203 PUSH2 0x2B0 PUSH1 0x20 SHL PUSH1 0x20 SHR JUMP JUMPDEST LT ISZERO PUSH2 0x220 JUMPI PUSH2 0x21F PUSH4 0xFED8210F PUSH1 0xE0 SHL PUSH2 0x2C4 PUSH1 0x20 SHL PUSH1 0x20 SHR JUMP JUMPDEST JUMPDEST POP POP PUSH0 PUSH20 0xFFFFFFFFFFFFFFFFFFFFFFFFFFFFFFFFFFFFFFFF AND DUP2 PUSH20 0xFFFFFFFFFFFFFFFFFFFFFFFFFFFFFFFFFFFFFFFF AND SUB PUSH2 0x292 JUMPI PUSH0 PUSH1 0x40 MLOAD PUSH32 0x1E4FBDF700000000000000000000000000000000000000000000000000000000 DUP2 MSTORE PUSH1 0x4 ADD PUSH2 0x289 SWAP2 SWAP1 PUSH2 0x7FC JUMP JUMPDEST PUSH1 0x40 MLOAD DUP1 SWAP2 SUB SWAP1 REVERT JUMPDEST PUSH2 0x2A1 DUP2 PUSH2 0x2CC PUSH1 0x20 SHL PUSH1 0x20 SHR JUMP JUMPDEST POP POP PUSH2 0x815 JUMP JUMPDEST PUSH0 PUSH1 0x1 SWAP1 POP SWAP1 JUMP JUMPDEST PUSH0 PUSH2 0x2BF PUSH2 0x38F PUSH1 0x20 SHL PUSH1 0x20 SHR JUMP JUMPDEST SWAP1 POP SWAP1 JUMP JUMPDEST DUP1 PUSH0 MSTORE PUSH1 0x4 PUSH0 REVERT JUMPDEST PUSH0 PUSH1 0x9 PUSH0 SWAP1 SLOAD SWAP1 PUSH2 0x100 EXP SWAP1 DIV PUSH20 0xFFFFFFFFFFFFFFFFFFFFFFFFFFFFFFFFFFFFFFFF AND SWAP1 POP DUP2 PUSH1 0x9 PUSH0 PUSH2 0x100 EXP DUP2 SLOAD DUP2 PUSH20 0xFFFFFFFFFFFFFFFFFFFFFFFFFFFFFFFFFFFFFFFF MUL NOT AND SWAP1 DUP4 PUSH20 0xFFFFFFFFFFFFFFFFFFFFFFFFFFFFFFFFFFFFFFFF AND MUL OR SWAP1 SSTORE POP DUP2 PUSH20 0xFFFFFFFFFFFFFFFFFFFFFFFFFFFFFFFFFFFFFFFF AND DUP2 PUSH20 0xFFFFFFFFFFFFFFFFFFFFFFFFFFFFFFFFFFFFFFFF AND PUSH32 0x8BE0079C531659141344CD1FD0A4F28419497F9722A3DAAFE3B4186F6B6457E0 PUSH1 0x40 MLOAD PUSH1 0x40 MLOAD DUP1 SWAP2 SUB SWAP1 LOG3 POP POP JUMP JUMPDEST PUSH0 PUSH2 0x8AE SWAP1 POP SWAP1 JUMP JUMPDEST DUP3 DUP1 SLOAD DUP3 DUP3 SSTORE SWAP1 PUSH0 MSTORE PUSH1 0x20 PUSH0 KECCAK256 SWAP1 DUP2 ADD SWAP3 DUP3 ISZERO PUSH2 0x3D8 JUMPI SWAP2 PUSH1 0x20 MUL DUP3 ADD JUMPDEST DUP3 DUP2 GT ISZERO PUSH2 0x3D7 JUMPI DUP3 MLOAD DUP3 SWAP1 PUSH2 0xFFFF AND SWAP1 SSTORE SWAP2 PUSH1 0x20 ADD SWAP2 SWAP1 PUSH1 0x1 ADD SWAP1 PUSH2 0x3B6 JUMP JUMPDEST JUMPDEST POP SWAP1 POP PUSH2 0x3E5 SWAP2 SWAP1 PUSH2 0x440 JUMP JUMPDEST POP SWAP1 JUMP JUMPDEST DUP3 DUP1 SLOAD DUP3 DUP3 SSTORE SWAP1 PUSH0 MSTORE PUSH1 0x20 PUSH0 KECCAK256 SWAP1 DUP2 ADD SWAP3 DUP3 ISZERO PUSH2 0x42F JUMPI SWAP2 PUSH1 0x20 MUL DUP3 ADD JUMPDEST DUP3 DUP2 GT ISZERO PUSH2 0x42E JUMPI DUP3 MLOAD DUP3 SWAP1 PUSH8 0xFFFFFFFFFFFFFFFF AND SWAP1 SSTORE SWAP2 PUSH1 0x20 ADD SWAP2 SWAP1 PUSH1 0x1 ADD SWAP1 PUSH2 0x407 JUMP JUMPDEST JUMPDEST POP SWAP1 POP PUSH2 0x43C SWAP2 SWAP1 PUSH2 0x440 JUMP JUMPDEST POP SWAP1 JUMP JUMPDEST JUMPDEST DUP1 DUP3 GT ISZERO PUSH2 0x457 JUMPI PUSH0 DUP2 PUSH0 SWAP1 SSTORE POP PUSH1 0x1 ADD PUSH2 0x441 JUMP JUMPDEST POP SWAP1 JUMP JUMPDEST PUSH0 DUP2 MLOAD SWAP1 POP SWAP2 SWAP1 POP JUMP JUMPDEST PUSH32 0x4E487B7100000000000000000000000000000000000000000000000000000000 PUSH0 MSTORE PUSH1 0x41 PUSH1 0x4 MSTORE PUSH1 0x24 PUSH0 REVERT JUMPDEST PUSH32 0x4E487B7100000000000000000000000000000000000000000000000000000000 PUSH0 MSTORE PUSH1 0x22 PUSH1 0x4 MSTORE PUSH1 0x24 PUSH0 REVERT JUMPDEST PUSH0 PUSH1 0x2 DUP3 DIV SWAP1 POP PUSH1 0x1 DUP3 AND DUP1 PUSH2 0x4D6 JUMPI PUSH1 0x7F DUP3 AND SWAP2 POP JUMPDEST PUSH1 0x20 DUP3 LT DUP2 SUB PUSH2 0x4E9 JUMPI PUSH2 0x4E8 PUSH2 0x492 JUMP JUMPDEST JUMPDEST POP SWAP2 SWAP1 POP JUMP JUMPDEST PUSH0 DUP2 SWAP1 POP DUP2 PUSH0 MSTORE PUSH1 0x20 PUSH0 KECCAK256 SWAP1 POP SWAP2 SWAP1 POP JUMP JUMPDEST PUSH0 PUSH1 0x20 PUSH1 0x1F DUP4 ADD DIV SWAP1 POP SWAP2 SWAP1 POP JUMP JUMPDEST PUSH0 DUP3 DUP3 SHL SWAP1 POP SWAP3 SWAP2 POP POP JUMP JUMPDEST PUSH0 PUSH1 0x8 DUP4 MUL PUSH2 0x54B PUSH32 0xFFFFFFFFFFFFFFFFFFFFFFFFFFFFFFFFFFFFFFFFFFFFFFFFFFFFFFFFFFFFFFFF DUP3 PUSH2 0x510 JUMP JUMPDEST PUSH2 0x555 DUP7 DUP4 PUSH2 0x510 JUMP JUMPDEST SWAP6 POP DUP1 NOT DUP5 AND SWAP4 POP DUP1 DUP7 AND DUP5 OR SWAP3 POP POP POP SWAP4 SWAP3 POP POP POP JUMP JUMPDEST PUSH0 DUP2 SWAP1 POP SWAP2 SWAP1 POP JUMP JUMPDEST PUSH0 DUP2 SWAP1 POP SWAP2 SWAP1 POP JUMP JUMPDEST PUSH0 PUSH2 0x599 PUSH2 0x594 PUSH2 0x58F DUP5 PUSH2 0x56D JUMP JUMPDEST PUSH2 0x576 JUMP JUMPDEST PUSH2 0x56D JUMP JUMPDEST SWAP1 POP SWAP2 SWAP1 POP JUMP JUMPDEST PUSH0 DUP2 SWAP1 POP SWAP2 SWAP1 POP JUMP JUMPDEST PUSH2 0x5B2 DUP4 PUSH2 0x57F JUMP JUMPDEST PUSH2 0x5C6 PUSH2 0x5BE DUP3 PUSH2 0x5A0 JUMP JUMPDEST DUP5 DUP5 SLOAD PUSH2 0x51C JUMP JUMPDEST DUP3 SSTORE POP POP POP POP JUMP JUMPDEST PUSH0 SWAP1 JUMP JUMPDEST PUSH2 0x5DA PUSH2 0x5CE JUMP JUMPDEST PUSH2 0x5E5 DUP2 DUP5 DUP5 PUSH2 0x5A9 JUMP JUMPDEST POP POP POP JUMP JUMPDEST JUMPDEST DUP2 DUP2 LT ISZERO PUSH2 0x608 JUMPI PUSH2 0x5FD PUSH0 DUP3 PUSH2 0x5D2 JUMP JUMPDEST PUSH1 0x1 DUP2 ADD SWAP1 POP PUSH2 0x5EB JUMP JUMPDEST POP POP JUMP JUMPDEST PUSH1 0x1F DUP3 GT ISZERO PUSH2 0x64D JUMPI PUSH2 0x61E DUP2 PUSH2 0x4EF JUMP JUMPDEST PUSH2 0x627 DUP5 PUSH2 0x501 JUMP JUMPDEST DUP2 ADD PUSH1 0x20 DUP6 LT ISZERO PUSH2 0x636 JUMPI DUP2 SWAP1 POP JUMPDEST PUSH2 0x64A PUSH2 0x642 DUP6 PUSH2 0x501 JUMP JUMPDEST DUP4 ADD DUP3 PUSH2 0x5EA JUMP JUMPDEST POP POP JUMPDEST POP POP POP JUMP JUMPDEST PUSH0 DUP3 DUP3 SHR SWAP1 POP SWAP3 SWAP2 POP POP JUMP JUMPDEST PUSH0 PUSH2 0x66D PUSH0 NOT DUP5 PUSH1 0x8 MUL PUSH2 0x652 JUMP JUMPDEST NOT DUP1 DUP4 AND SWAP2 POP POP SWAP3 SWAP2 POP POP JUMP JUMPDEST PUSH0 PUSH2 0x685 DUP4 DUP4 PUSH2 0x65E JUMP JUMPDEST SWAP2 POP DUP3 PUSH1 0x2 MUL DUP3 OR SWAP1 POP SWAP3 SWAP2 POP POP JUMP JUMPDEST PUSH2 0x69E DUP3 PUSH2 0x45B JUMP JUMPDEST PUSH8 0xFFFFFFFFFFFFFFFF DUP2 GT ISZERO PUSH2 0x6B7 JUMPI PUSH2 0x6B6 PUSH2 0x465 JUMP JUMPDEST JUMPDEST PUSH2 0x6C1 DUP3 SLOAD PUSH2 0x4BF JUMP JUMPDEST PUSH2 0x6CC DUP3 DUP3 DUP6 PUSH2 0x60C JUMP JUMPDEST PUSH0 PUSH1 0x20 SWAP1 POP PUSH1 0x1F DUP4 GT PUSH1 0x1 DUP2 EQ PUSH2 0x6FD JUMPI PUSH0 DUP5 ISZERO PUSH2 0x6EB JUMPI DUP3 DUP8 ADD MLOAD SWAP1 POP JUMPDEST PUSH2 0x6F5 DUP6 DUP3 PUSH2 0x67A JUMP JUMPDEST DUP7 SSTORE POP PUSH2 0x75C JUMP JUMPDEST PUSH1 0x1F NOT DUP5 AND PUSH2 0x70B DUP7 PUSH2 0x4EF JUMP JUMPDEST PUSH0 JUMPDEST DUP3 DUP2 LT ISZERO PUSH2 0x732 JUMPI DUP5 DUP10 ADD MLOAD DUP3 SSTORE PUSH1 0x1 DUP3 ADD SWAP2 POP PUSH1 0x20 DUP6 ADD SWAP5 POP PUSH1 0x20 DUP2 ADD SWAP1 POP PUSH2 0x70D JUMP JUMPDEST DUP7 DUP4 LT ISZERO PUSH2 0x74F JUMPI DUP5 DUP10 ADD MLOAD PUSH2 0x74B PUSH1 0x1F DUP10 AND DUP3 PUSH2 0x65E JUMP JUMPDEST DUP4 SSTORE POP JUMPDEST PUSH1 0x1 PUSH1 0x2 DUP9 MUL ADD DUP9 SSTORE POP POP POP JUMPDEST POP POP POP POP POP POP JUMP JUMPDEST PUSH0 DUP1 REVERT JUMPDEST PUSH0 PUSH20 0xFFFFFFFFFFFFFFFFFFFFFFFFFFFFFFFFFFFFFFFF DUP3 AND SWAP1 POP SWAP2 SWAP1 POP JUMP JUMPDEST PUSH0 PUSH2 0x791 DUP3 PUSH2 0x768 JUMP JUMPDEST SWAP1 POP SWAP2 SWAP1 POP JUMP JUMPDEST PUSH2 0x7A1 DUP2 PUSH2 0x787 JUMP JUMPDEST DUP2 EQ PUSH2 0x7AB JUMPI PUSH0 DUP1 REVERT JUMPDEST POP JUMP JUMPDEST PUSH0 DUP2 MLOAD SWAP1 POP PUSH2 0x7BC DUP2 PUSH2 0x798 JUMP JUMPDEST SWAP3 SWAP2 POP POP JUMP JUMPDEST PUSH0 PUSH1 0x20 DUP3 DUP5 SUB SLT ISZERO PUSH2 0x7D7 JUMPI PUSH2 0x7D6 PUSH2 0x764 JUMP JUMPDEST JUMPDEST PUSH0 PUSH2 0x7E4 DUP5 DUP3 DUP6 ADD PUSH2 0x7AE JUMP JUMPDEST SWAP2 POP POP SWAP3 SWAP2 POP POP JUMP JUMPDEST PUSH2 0x7F6 DUP2 PUSH2 0x787 JUMP JUMPDEST DUP3 MSTORE POP POP JUMP JUMPDEST PUSH0 PUSH1 0x20 DUP3 ADD SWAP1 POP PUSH2 0x80F PUSH0 DUP4 ADD DUP5 PUSH2 0x7ED JUMP JUMPDEST SWAP3 SWAP2 POP POP JUMP JUMPDEST PUSH2 0x2E65 DUP1 PUSH2 0x822 PUSH0 CODECOPY PUSH0 RETURN INVALID PUSH1 0x80 PUSH1 0x40 MSTORE PUSH1 0x4 CALLDATASIZE LT PUSH2 0x19B JUMPI PUSH0 CALLDATALOAD PUSH1 0xE0 SHR DUP1 PUSH4 0x715018A6 GT PUSH2 0xEB JUMPI DUP1 PUSH4 0xB228D925 GT PUSH2 0x89 JUMPI DUP1 PUSH4 0xC87B56DD GT PUSH2 0x63 JUMPI DUP1 PUSH4 0xC87B56DD EQ PUSH2 0x54B JUMPI DUP1 PUSH4 0xE6A72ACF EQ PUSH2 0x587 JUMPI DUP1 PUSH4 0xE985E9C5 EQ PUSH2 0x5C3 JUMPI DUP1 PUSH4 0xF2FDE38B EQ PUSH2 0x5FF JUMPI PUSH2 0x19B JUMP JUMPDEST DUP1 PUSH4 0xB228D925 EQ PUSH2 0x4C9 JUMPI DUP1 PUSH4 0xB88D4FDE EQ PUSH2 0x4F3 JUMPI DUP1 PUSH4 0xB9066C0A EQ PUSH2 0x50F JUMPI PUSH2 0x19B JUMP JUMPDEST DUP1 PUSH4 0x9D5561E1 GT PUSH2 0xC5 JUMPI DUP1 PUSH4 0x9D5561E1 EQ PUSH2 0x445 JUMPI DUP1 PUSH4 0xA0712D68 EQ PUSH2 0x46F JUMPI DUP1 PUSH4 0xA22CB465 EQ PUSH2 0x48B JUMPI DUP1 PUSH4 0xAC446002 EQ PUSH2 0x4B3 JUMPI PUSH2 0x19B JUMP JUMPDEST DUP1 PUSH4 0x715018A6 EQ PUSH2 0x3DB JUMPI DUP1 PUSH4 0x8DA5CB5B EQ PUSH2 0x3F1 JUMPI DUP1 PUSH4 0x95D89B41 EQ PUSH2 0x41B JUMPI PUSH2 0x19B JUMP JUMPDEST DUP1 PUSH4 0x375A069A GT PUSH2 0x158 JUMPI DUP1 PUSH4 0x55F804B3 GT PUSH2 0x132 JUMPI DUP1 PUSH4 0x55F804B3 EQ PUSH2 0x311 JUMPI DUP1 PUSH4 0x5BF5D54C EQ PUSH2 0x339 JUMPI DUP1 PUSH4 0x6352211E EQ PUSH2 0x363 JUMPI DUP1 PUSH4 0x70A08231 EQ PUSH2 0x39F JUMPI PUSH2 0x19B JUMP JUMPDEST DUP1 PUSH4 0x375A069A EQ PUSH2 0x2A3 JUMPI DUP1 PUSH4 0x42842E0E EQ PUSH2 0x2CB JUMPI DUP1 PUSH4 0x45C0F533 EQ PUSH2 0x2E7 JUMPI PUSH2 0x19B JUMP JUMPDEST DUP1 PUSH4 0x1FFC9A7 EQ PUSH2 0x19F JUMPI DUP1 PUSH4 0x6FDDE03 EQ PUSH2 0x1DB JUMPI DUP1 PUSH4 0x81812FC EQ PUSH2 0x205 JUMPI DUP1 PUSH4 0x95EA7B3 EQ PUSH2 0x241 JUMPI DUP1 PUSH4 0x18160DDD EQ PUSH2 0x25D JUMPI DUP1 PUSH4 0x23B872DD EQ PUSH2 0x287 JUMPI JUMPDEST PUSH0 DUP1 REVERT JUMPDEST CALLVALUE DUP1 ISZERO PUSH2 0x1AA JUMPI PUSH0 DUP1 REVERT JUMPDEST POP PUSH2 0x1C5 PUSH1 0x4 DUP1 CALLDATASIZE SUB DUP2 ADD SWAP1 PUSH2 0x1C0 SWAP2 SWAP1 PUSH2 0x20A4 JUMP JUMPDEST PUSH2 0x627 JUMP JUMPDEST PUSH1 0x40 MLOAD PUSH2 0x1D2 SWAP2 SWAP1 PUSH2 0x20E9 JUMP JUMPDEST PUSH1 0x40 MLOAD DUP1 SWAP2 SUB SWAP1 RETURN JUMPDEST CALLVALUE DUP1 ISZERO PUSH2 0x1E6 JUMPI PUSH0 DUP1 REVERT JUMPDEST POP PUSH2 0x1EF PUSH2 0x6B8 JUMP JUMPDEST PUSH1 0x40 MLOAD PUSH2 0x1FC SWAP2 SWAP1 PUSH2 0x2172 JUMP JUMPDEST PUSH1 0x40 MLOAD DUP1 SWAP2 SUB SWAP1 RETURN JUMPDEST CALLVALUE DUP1 ISZERO PUSH2 0x210 JUMPI PUSH0 DUP1 REVERT JUMPDEST POP PUSH2 0x22B PUSH1 0x4 DUP1 CALLDATASIZE SUB DUP2 ADD SWAP1 PUSH2 0x226 SWAP2 SWAP1 PUSH2 0x21C5 JUMP JUMPDEST PUSH2 0x748 JUMP JUMPDEST PUSH1 0x40 MLOAD PUSH2 0x238 SWAP2 SWAP1 PUSH2 0x222F JUMP JUMPDEST PUSH1 0x40 MLOAD DUP1 SWAP2 SUB SWAP1 RETURN JUMPDEST PUSH2 0x25B PUSH1 0x4 DUP1 CALLDATASIZE SUB DUP2 ADD SWAP1 PUSH2 0x256 SWAP2 SWAP1 PUSH2 0x2272 JUMP JUMPDEST PUSH2 0x7A1 JUMP JUMPDEST STOP JUMPDEST CALLVALUE DUP1 ISZERO PUSH2 0x268 JUMPI PUSH0 DUP1 REVERT JUMPDEST POP PUSH2 0x271 PUSH2 0x7B1 JUMP JUMPDEST PUSH1 0x40 MLOAD PUSH2 0x27E SWAP2 SWAP1 PUSH2 0x22BF JUMP JUMPDEST PUSH1 0x40 MLOAD DUP1 SWAP2 SUB SWAP1 RETURN JUMPDEST PUSH2 0x2A1 PUSH1 0x4 DUP1 CALLDATASIZE SUB DUP2 ADD SWAP1 PUSH2 0x29C SWAP2 SWAP1 PUSH2 0x22D8 JUMP JUMPDEST PUSH2 0x7FC JUMP JUMPDEST STOP JUMPDEST CALLVALUE DUP1 ISZERO PUSH2 0x2AE JUMPI PUSH0 DUP1 REVERT JUMPDEST POP PUSH2 0x2C9 PUSH1 0x4 DUP1 CALLDATASIZE SUB DUP2 ADD SWAP1 PUSH2 0x2C4 SWAP2 SWAP1 PUSH2 0x21C5 JUMP JUMPDEST PUSH2 0xA7D JUMP JUMPDEST STOP JUMPDEST PUSH2 0x2E5 PUSH1 0x4 DUP1 CALLDATASIZE SUB DUP2 ADD SWAP1 PUSH2 0x2E0 SWAP2 SWAP1 PUSH2 0x22D8 JUMP JUMPDEST PUSH2 0xAFD JUMP JUMPDEST STOP JUMPDEST CALLVALUE DUP1 ISZERO PUSH2 0x2F2 JUMPI PUSH0 DUP1 REVERT JUMPDEST POP PUSH2 0x2FB PUSH2 0xB1C JUMP JUMPDEST PUSH1 0x40 MLOAD PUSH2 0x308 SWAP2 SWAP1 PUSH2 0x22BF JUMP JUMPDEST PUSH1 0x40 MLOAD DUP1 SWAP2 SUB SWAP1 RETURN JUMPDEST CALLVALUE DUP1 ISZERO PUSH2 0x31C JUMPI PUSH0 DUP1 REVERT JUMPDEST POP PUSH2 0x337 PUSH1 0x4 DUP1 CALLDATASIZE SUB DUP2 ADD SWAP1 PUSH2 0x332 SWAP2 SWAP1 PUSH2 0x2389 JUMP JUMPDEST PUSH2 0xB25 JUMP JUMPDEST STOP JUMPDEST CALLVALUE DUP1 ISZERO PUSH2 0x344 JUMPI PUSH0 DUP1 REVERT JUMPDEST POP PUSH2 0x34D PUSH2 0xB43 JUMP JUMPDEST PUSH1 0x40 MLOAD PUSH2 0x35A SWAP2 SWAP1 PUSH2 0x22BF JUMP JUMPDEST PUSH1 0x40 MLOAD DUP1 SWAP2 SUB SWAP1 RETURN JUMPDEST CALLVALUE DUP1 ISZERO PUSH2 0x36E JUMPI PUSH0 DUP1 REVERT JUMPDEST POP PUSH2 0x389 PUSH1 0x4 DUP1 CALLDATASIZE SUB DUP2 ADD SWAP1 PUSH2 0x384 SWAP2 SWAP1 PUSH2 0x21C5 JUMP JUMPDEST PUSH2 0xB4C JUMP JUMPDEST PUSH1 0x40 MLOAD PUSH2 0x396 SWAP2 SWAP1 PUSH2 0x222F JUMP JUMPDEST PUSH1 0x40 MLOAD DUP1 SWAP2 SUB SWAP1 RETURN JUMPDEST CALLVALUE DUP1 ISZERO PUSH2 0x3AA JUMPI PUSH0 DUP1 REVERT JUMPDEST POP PUSH2 0x3C5 PUSH1 0x4 DUP1 CALLDATASIZE SUB DUP2 ADD SWAP1 PUSH2 0x3C0 SWAP2 SWAP1 PUSH2 0x23D4 JUMP JUMPDEST PUSH2 0xB5D JUMP JUMPDEST PUSH1 0x40 MLOAD PUSH2 0x3D2 SWAP2 SWAP1 PUSH2 0x22BF JUMP JUMPDEST PUSH1 0x40 MLOAD DUP1 SWAP2 SUB SWAP1 RETURN JUMPDEST CALLVALUE DUP1 ISZERO PUSH2 0x3E6 JUMPI PUSH0 DUP1 REVERT JUMPDEST POP PUSH2 0x3EF PUSH2 0xBF1 JUMP JUMPDEST STOP JUMPDEST CALLVALUE DUP1 ISZERO PUSH2 0x3FC JUMPI PUSH0 DUP1 REVERT JUMPDEST POP PUSH2 0x405 PUSH2 0xC04 JUMP JUMPDEST PUSH1 0x40 MLOAD PUSH2 0x412 SWAP2 SWAP1 PUSH2 0x222F JUMP JUMPDEST PUSH1 0x40 MLOAD DUP1 SWAP2 SUB SWAP1 RETURN JUMPDEST CALLVALUE DUP1 ISZERO PUSH2 0x426 JUMPI PUSH0 DUP1 REVERT JUMPDEST POP PUSH2 0x42F PUSH2 0xC2C JUMP JUMPDEST PUSH1 0x40 MLOAD PUSH2 0x43C SWAP2 SWAP1 PUSH2 0x2172 JUMP JUMPDEST PUSH1 0x40 MLOAD DUP1 SWAP2 SUB SWAP1 RETURN JUMPDEST CALLVALUE DUP1 ISZERO PUSH2 0x450 JUMPI PUSH0 DUP1 REVERT JUMPDEST POP PUSH2 0x459 PUSH2 0xCBC JUMP JUMPDEST PUSH1 0x40 MLOAD PUSH2 0x466 SWAP2 SWAP1 PUSH2 0x22BF JUMP JUMPDEST PUSH1 0x40 MLOAD DUP1 SWAP2 SUB SWAP1 RETURN JUMPDEST PUSH2 0x489 PUSH1 0x4 DUP1 CALLDATASIZE SUB DUP2 ADD SWAP1 PUSH2 0x484 SWAP2 SWAP1 PUSH2 0x21C5 JUMP JUMPDEST PUSH2 0xD18 JUMP JUMPDEST STOP JUMPDEST CALLVALUE DUP1 ISZERO PUSH2 0x496 JUMPI PUSH0 DUP1 REVERT JUMPDEST POP PUSH2 0x4B1 PUSH1 0x4 DUP1 CALLDATASIZE SUB DUP2 ADD SWAP1 PUSH2 0x4AC SWAP2 SWAP1 PUSH2 0x2429 JUMP JUMPDEST PUSH2 0xEFE JUMP JUMPDEST STOP JUMPDEST CALLVALUE DUP1 ISZERO PUSH2 0x4BE JUMPI PUSH0 DUP1 REVERT JUMPDEST POP PUSH2 0x4C7 PUSH2 0x1004 JUMP JUMPDEST STOP JUMPDEST CALLVALUE DUP1 ISZERO PUSH2 0x4D4 JUMPI PUSH0 DUP1 REVERT JUMPDEST POP PUSH2 0x4DD PUSH2 0x10F9 JUMP JUMPDEST PUSH1 0x40 MLOAD PUSH2 0x4EA SWAP2 SWAP1 PUSH2 0x22BF JUMP JUMPDEST PUSH1 0x40 MLOAD DUP1 SWAP2 SUB SWAP1 RETURN JUMPDEST PUSH2 0x50D PUSH1 0x4 DUP1 CALLDATASIZE SUB DUP2 ADD SWAP1 PUSH2 0x508 SWAP2 SWAP1 PUSH2 0x258F JUMP JUMPDEST PUSH2 0x1102 JUMP JUMPDEST STOP JUMPDEST CALLVALUE DUP1 ISZERO PUSH2 0x51A JUMPI PUSH0 DUP1 REVERT JUMPDEST POP PUSH2 0x535 PUSH1 0x4 DUP1 CALLDATASIZE SUB DUP2 ADD SWAP1 PUSH2 0x530 SWAP2 SWAP1 PUSH2 0x23D4 JUMP JUMPDEST PUSH2 0x1153 JUMP JUMPDEST PUSH1 0x40 MLOAD PUSH2 0x542 SWAP2 SWAP1 PUSH2 0x22BF JUMP JUMPDEST PUSH1 0x40 MLOAD DUP1 SWAP2 SUB SWAP1 RETURN JUMPDEST CALLVALUE DUP1 ISZERO PUSH2 0x556 JUMPI PUSH0 DUP1 REVERT JUMPDEST POP PUSH2 0x571 PUSH1 0x4 DUP1 CALLDATASIZE SUB DUP2 ADD SWAP1 PUSH2 0x56C SWAP2 SWAP1 PUSH2 0x21C5 JUMP JUMPDEST PUSH2 0x118D JUMP JUMPDEST PUSH1 0x40 MLOAD PUSH2 0x57E SWAP2 SWAP1 PUSH2 0x2172 JUMP JUMPDEST PUSH1 0x40 MLOAD DUP1 SWAP2 SUB SWAP1 RETURN JUMPDEST CALLVALUE DUP1 ISZERO PUSH2 0x592 JUMPI PUSH0 DUP1 REVERT JUMPDEST POP PUSH2 0x5AD PUSH1 0x4 DUP1 CALLDATASIZE SUB DUP2 ADD SWAP1 PUSH2 0x5A8 SWAP2 SWAP1 PUSH2 0x21C5 JUMP JUMPDEST PUSH2 0x1207 JUMP JUMPDEST PUSH1 0x40 MLOAD PUSH2 0x5BA SWAP2 SWAP1 PUSH2 0x22BF JUMP JUMPDEST PUSH1 0x40 MLOAD DUP1 SWAP2 SUB SWAP1 RETURN JUMPDEST CALLVALUE DUP1 ISZERO PUSH2 0x5CE JUMPI PUSH0 DUP1 REVERT JUMPDEST POP PUSH2 0x5E9 PUSH1 0x4 DUP1 CALLDATASIZE SUB DUP2 ADD SWAP1 PUSH2 0x5E4 SWAP2 SWAP1 PUSH2 0x260F JUMP JUMPDEST PUSH2 0x13DD JUMP JUMPDEST PUSH1 0x40 MLOAD PUSH2 0x5F6 SWAP2 SWAP1 PUSH2 0x20E9 JUMP JUMPDEST PUSH1 0x40 MLOAD DUP1 SWAP2 SUB SWAP1 RETURN JUMPDEST CALLVALUE DUP1 ISZERO PUSH2 0x60A JUMPI PUSH0 DUP1 REVERT JUMPDEST POP PUSH2 0x625 PUSH1 0x4 DUP1 CALLDATASIZE SUB DUP2 ADD SWAP1 PUSH2 0x620 SWAP2 SWAP1 PUSH2 0x23D4 JUMP JUMPDEST PUSH2 0x146B JUMP JUMPDEST STOP JUMPDEST PUSH0 PUSH4 0x1FFC9A7 PUSH1 0xE0 SHL DUP3 PUSH28 0xFFFFFFFFFFFFFFFFFFFFFFFFFFFFFFFFFFFFFFFFFFFFFFFFFFFFFFFF NOT AND EQ DUP1 PUSH2 0x681 JUMPI POP PUSH4 0x80AC58CD PUSH1 0xE0 SHL DUP3 PUSH28 0xFFFFFFFFFFFFFFFFFFFFFFFFFFFFFFFFFFFFFFFFFFFFFFFFFFFFFFFF NOT AND EQ JUMPDEST DUP1 PUSH2 0x6B1 JUMPI POP PUSH4 0x5B5E139F PUSH1 0xE0 SHL DUP3 PUSH28 0xFFFFFFFFFFFFFFFFFFFFFFFFFFFFFFFFFFFFFFFFFFFFFFFFFFFFFFFF NOT AND EQ JUMPDEST SWAP1 POP SWAP2 SWAP1 POP JUMP JUMPDEST PUSH1 0x60 PUSH1 0x2 DUP1 SLOAD PUSH2 0x6C7 SWAP1 PUSH2 0x267A JUMP JUMPDEST DUP1 PUSH1 0x1F ADD PUSH1 0x20 DUP1 SWAP2 DIV MUL PUSH1 0x20 ADD PUSH1 0x40 MLOAD SWAP1 DUP2 ADD PUSH1 0x40 MSTORE DUP1 SWAP3 SWAP2 SWAP1 DUP2 DUP2 MSTORE PUSH1 0x20 ADD DUP3 DUP1 SLOAD PUSH2 0x6F3 SWAP1 PUSH2 0x267A JUMP JUMPDEST DUP1 ISZERO PUSH2 0x73E JUMPI DUP1 PUSH1 0x1F LT PUSH2 0x715 JUMPI PUSH2 0x100 DUP1 DUP4 SLOAD DIV MUL DUP4 MSTORE SWAP2 PUSH1 0x20 ADD SWAP2 PUSH2 0x73E JUMP JUMPDEST DUP3 ADD SWAP2 SWAP1 PUSH0 MSTORE PUSH1 0x20 PUSH0 KECCAK256 SWAP1 JUMPDEST DUP2 SLOAD DUP2 MSTORE SWAP1 PUSH1 0x1 ADD SWAP1 PUSH1 0x20 ADD DUP1 DUP4 GT PUSH2 0x721 JUMPI DUP3 SWAP1 SUB PUSH1 0x1F AND DUP3 ADD SWAP2 JUMPDEST POP POP POP POP POP SWAP1 POP SWAP1 JUMP JUMPDEST PUSH0 PUSH2 0x752 DUP3 PUSH2 0x14EF JUMP JUMPDEST PUSH2 0x767 JUMPI PUSH2 0x766 PUSH4 0xCF4700E4 PUSH1 0xE0 SHL PUSH2 0x1592 JUMP JUMPDEST JUMPDEST PUSH1 0x6 PUSH0 DUP4 DUP2 MSTORE PUSH1 0x20 ADD SWAP1 DUP2 MSTORE PUSH1 0x20 ADD PUSH0 KECCAK256 PUSH0 ADD PUSH0 SWAP1 SLOAD SWAP1 PUSH2 0x100 EXP SWAP1 DIV PUSH20 0xFFFFFFFFFFFFFFFFFFFFFFFFFFFFFFFFFFFFFFFF AND SWAP1 POP SWAP2 SWAP1 POP JUMP JUMPDEST PUSH2 0x7AD DUP3 DUP3 PUSH1 0x1 PUSH2 0x159A JUMP JUMPDEST POP POP JUMP JUMPDEST PUSH0 PUSH2 0x7BA PUSH2 0x16C4 JUMP JUMPDEST PUSH1 0x1 SLOAD PUSH0 SLOAD SUB SUB SWAP1 POP PUSH32 0xFFFFFFFFFFFFFFFFFFFFFFFFFFFFFFFFFFFFFFFFFFFFFFFFFFFFFFFFFFFFFFFF PUSH2 0x7EC PUSH2 0x16CC JUMP JUMPDEST EQ PUSH2 0x7F9 JUMPI PUSH1 0x8 SLOAD DUP2 ADD SWAP1 POP JUMPDEST SWAP1 JUMP JUMPDEST PUSH0 PUSH2 0x806 DUP3 PUSH2 0x16DA JUMP JUMPDEST SWAP1 POP PUSH0 DUP5 PUSH20 0xFFFFFFFFFFFFFFFFFFFFFFFFFFFFFFFFFFFFFFFF AND SWAP1 POP DUP1 DUP3 PUSH20 0xFFFFFFFFFFFFFFFFFFFFFFFFFFFFFFFFFFFFFFFF AND EQ PUSH2 0x850 JUMPI PUSH2 0x84F PUSH4 0xA1148100 PUSH1 0xE0 SHL PUSH2 0x1592 JUMP JUMPDEST JUMPDEST PUSH0 DUP1 PUSH2 0x85B DUP6 PUSH2 0x17E9 JUMP JUMPDEST SWAP2 POP SWAP2 POP PUSH2 0x887 DUP2 DUP5 PUSH2 0x86C PUSH2 0x180C JUMP JUMPDEST PUSH20 0xFFFFFFFFFFFFFFFFFFFFFFFFFFFFFFFFFFFFFFFF AND PUSH2 0x1813 JUMP JUMPDEST PUSH2 0x8B2 JUMPI PUSH2 0x89C DUP8 PUSH2 0x897 PUSH2 0x180C JUMP JUMPDEST PUSH2 0x13DD JUMP JUMPDEST PUSH2 0x8B1 JUMPI PUSH2 0x8B0 PUSH4 0x59C896BE PUSH1 0xE0 SHL PUSH2 0x1592 JUMP JUMPDEST JUMPDEST JUMPDEST PUSH2 0x8BF DUP8 DUP8 DUP8 PUSH1 0x1 PUSH2 0x1824 JUMP JUMPDEST DUP1 ISZERO PUSH2 0x8C9 JUMPI PUSH0 DUP3 SSTORE JUMPDEST PUSH1 0x5 PUSH0 DUP9 PUSH20 0xFFFFFFFFFFFFFFFFFFFFFFFFFFFFFFFFFFFFFFFF AND PUSH20 0xFFFFFFFFFFFFFFFFFFFFFFFFFFFFFFFFFFFFFFFF AND DUP2 MSTORE PUSH1 0x20 ADD SWAP1 DUP2 MSTORE PUSH1 0x20 ADD PUSH0 KECCAK256 PUSH0 DUP2 SLOAD PUSH1 0x1 SWAP1 SUB SWAP2 SWAP1 POP DUP2 SWAP1 SSTORE POP PUSH1 0x5 PUSH0 DUP8 PUSH20 0xFFFFFFFFFFFFFFFFFFFFFFFFFFFFFFFFFFFFFFFF AND PUSH20 0xFFFFFFFFFFFFFFFFFFFFFFFFFFFFFFFFFFFFFFFF AND DUP2 MSTORE PUSH1 0x20 ADD SWAP1 DUP2 MSTORE PUSH1 0x20 ADD PUSH0 KECCAK256 PUSH0 DUP2 SLOAD PUSH1 0x1 ADD SWAP2 SWAP1 POP DUP2 SWAP1 SSTORE POP PUSH2 0x991 DUP7 PUSH2 0x96D DUP10 DUP10 DUP9 PUSH2 0x182A JUMP JUMPDEST PUSH29 0x200000000000000000000000000000000000000000000000000000000 OR PUSH2 0x1851 JUMP JUMPDEST PUSH1 0x4 PUSH0 DUP8 DUP2 MSTORE PUSH1 0x20 ADD SWAP1 DUP2 MSTORE PUSH1 0x20 ADD PUSH0 KECCAK256 DUP2 SWAP1 SSTORE POP PUSH0 PUSH29 0x200000000000000000000000000000000000000000000000000000000 DUP6 AND SUB PUSH2 0xA0D JUMPI PUSH0 PUSH1 0x1 DUP7 ADD SWAP1 POP PUSH0 PUSH1 0x4 PUSH0 DUP4 DUP2 MSTORE PUSH1 0x20 ADD SWAP1 DUP2 MSTORE PUSH1 0x20 ADD PUSH0 KECCAK256 SLOAD SUB PUSH2 0xA0B JUMPI PUSH0 SLOAD DUP2 EQ PUSH2 0xA0A JUMPI DUP5 PUSH1 0x4 PUSH0 DUP4 DUP2 MSTORE PUSH1 0x20 ADD SWAP1 DUP2 MSTORE PUSH1 0x20 ADD PUSH0 KECCAK256 DUP2 SWAP1 SSTORE POP JUMPDEST JUMPDEST POP JUMPDEST PUSH0 DUP7 PUSH20 0xFFFFFFFFFFFFFFFFFFFFFFFFFFFFFFFFFFFFFFFF AND SWAP1 POP DUP6 DUP2 DUP6 PUSH32 0xDDF252AD1BE2C89B69C2B068FC378DAA952BA7F163C4A11628F55A4DF523B3EF PUSH0 DUP1 LOG4 PUSH0 DUP2 SUB PUSH2 0xA66 JUMPI PUSH2 0xA65 PUSH4 0xEA553B34 PUSH1 0xE0 SHL PUSH2 0x1592 JUMP JUMPDEST JUMPDEST PUSH2 0xA73 DUP9 DUP9 DUP9 PUSH1 0x1 PUSH2 0x187B JUMP JUMPDEST POP POP POP POP POP POP POP POP JUMP JUMPDEST PUSH2 0xA85 PUSH2 0x1881 JUMP JUMPDEST PUSH1 0xA SLOAD DUP2 PUSH2 0xA92 CALLER PUSH2 0x1908 JUMP JUMPDEST PUSH2 0xA9C SWAP2 SWAP1 PUSH2 0x26D7 JUMP JUMPDEST LT PUSH2 0xADC JUMPI PUSH1 0x40 MLOAD PUSH32 0x8C379A000000000000000000000000000000000000000000000000000000000 DUP2 MSTORE PUSH1 0x4 ADD PUSH2 0xAD3 SWAP1 PUSH2 0x2754 JUMP JUMPDEST PUSH1 0x40 MLOAD DUP1 SWAP2 SUB SWAP1 REVERT JUMPDEST PUSH2 0xAE6 CALLER DUP3 PUSH2 0x195C JUMP JUMPDEST DUP1 PUSH1 0x10 SLOAD PUSH2 0xAF4 SWAP2 SWAP1 PUSH2 0x26D7 JUMP JUMPDEST PUSH1 0x10 DUP2 SWAP1 SSTORE POP POP JUMP JUMPDEST PUSH2 0xB17 DUP4 DUP4 DUP4 PUSH1 0x40 MLOAD DUP1 PUSH1 0x20 ADD PUSH1 0x40 MSTORE DUP1 PUSH0 DUP2 MSTORE POP PUSH2 0x1102 JUMP JUMPDEST POP POP POP JUMP JUMPDEST PUSH0 PUSH2 0x8AE SWAP1 POP SWAP1 JUMP JUMPDEST PUSH2 0xB2D PUSH2 0x1881 JUMP JUMPDEST DUP2 DUP2 PUSH1 0xF SWAP2 DUP3 PUSH2 0xB3E SWAP3 SWAP2 SWAP1 PUSH2 0x2919 JUMP JUMPDEST POP POP POP JUMP JUMPDEST PUSH0 PUSH1 0x11 SLOAD SWAP1 POP SWAP1 JUMP JUMPDEST PUSH0 PUSH2 0xB56 DUP3 PUSH2 0x16DA JUMP JUMPDEST SWAP1 POP SWAP2 SWAP1 POP JUMP JUMPDEST PUSH0 DUP1 PUSH20 0xFFFFFFFFFFFFFFFFFFFFFFFFFFFFFFFFFFFFFFFF AND DUP3 PUSH20 0xFFFFFFFFFFFFFFFFFFFFFFFFFFFFFFFFFFFFFFFF AND SUB PUSH2 0xBA2 JUMPI PUSH2 0xBA1 PUSH4 0x8F4EB604 PUSH1 0xE0 SHL PUSH2 0x1592 JUMP JUMPDEST JUMPDEST PUSH8 0xFFFFFFFFFFFFFFFF PUSH1 0x5 PUSH0 DUP5 PUSH20 0xFFFFFFFFFFFFFFFFFFFFFFFFFFFFFFFFFFFFFFFF AND PUSH20 0xFFFFFFFFFFFFFFFFFFFFFFFFFFFFFFFFFFFFFFFF AND DUP2 MSTORE PUSH1 0x20 ADD SWAP1 DUP2 MSTORE PUSH1 0x20 ADD PUSH0 KECCAK256 SLOAD AND SWAP1 POP SWAP2 SWAP1 POP JUMP JUMPDEST PUSH2 0xBF9 PUSH2 0x1881 JUMP JUMPDEST PUSH2 0xC02 PUSH0 PUSH2 0x1ABA JUMP JUMPDEST JUMP JUMPDEST PUSH0 PUSH1 0x9 PUSH0 SWAP1 SLOAD SWAP1 PUSH2 0x100 EXP SWAP1 DIV PUSH20 0xFFFFFFFFFFFFFFFFFFFFFFFFFFFFFFFFFFFFFFFF AND SWAP1 POP SWAP1 JUMP JUMPDEST PUSH1 0x60 PUSH1 0x3 DUP1 SLOAD PUSH2 0xC3B SWAP1 PUSH2 0x267A JUMP JUMPDEST DUP1 PUSH1 0x1F ADD PUSH1 0x20 DUP1 SWAP2 DIV MUL PUSH1 0x20 ADD PUSH1 0x40 MLOAD SWAP1 DUP2 ADD PUSH1 0x40 MSTORE DUP1 SWAP3 SWAP2 SWAP1 DUP2 DUP2 MSTORE PUSH1 0x20 ADD DUP3 DUP1 SLOAD PUSH2 0xC67 SWAP1 PUSH2 0x267A JUMP JUMPDEST DUP1 ISZERO PUSH2 0xCB2 JUMPI DUP1 PUSH1 0x1F LT PUSH2 0xC89 JUMPI PUSH2 0x100 DUP1 DUP4 SLOAD DIV MUL DUP4 MSTORE SWAP2 PUSH1 0x20 ADD SWAP2 PUSH2 0xCB2 JUMP JUMPDEST DUP3 ADD SWAP2 SWAP1 PUSH0 MSTORE PUSH1 0x20 PUSH0 KECCAK256 SWAP1 JUMPDEST DUP2 SLOAD DUP2 MSTORE SWAP1 PUSH1 0x1 ADD SWAP1 PUSH1 0x20 ADD DUP1 DUP4 GT PUSH2 0xC95 JUMPI DUP3 SWAP1 SUB PUSH1 0x1F AND DUP3 ADD SWAP2 JUMPDEST POP POP POP POP POP SWAP1 POP SWAP1 JUMP JUMPDEST PUSH0 DUP1 PUSH1 0x11 SLOAD SUB PUSH2 0xCF0 JUMPI PUSH0 PUSH2 0xCD0 CALLER PUSH2 0x1B7D JUMP JUMPDEST PUSH8 0xFFFFFFFFFFFFFFFF AND SUB PUSH2 0xCE8 JUMPI PUSH1 0x1 SWAP1 POP PUSH2 0xD15 JUMP JUMPDEST PUSH0 SWAP1 POP PUSH2 0xD15 JUMP JUMPDEST PUSH2 0xCF8 PUSH2 0x1BC7 JUMP JUMPDEST PUSH1 0xC SLOAD PUSH1 0xB SLOAD PUSH2 0xD08 SWAP2 SWAP1 PUSH2 0x26D7 JUMP JUMPDEST PUSH2 0xD12 SWAP2 SWAP1 PUSH2 0x29E6 JUMP JUMPDEST SWAP1 POP JUMPDEST SWAP1 JUMP JUMPDEST PUSH0 DUP2 EQ ISZERO DUP1 ISZERO PUSH2 0xD2F JUMPI POP PUSH2 0xD2B PUSH2 0xCBC JUMP JUMPDEST DUP2 GT ISZERO JUMPDEST PUSH2 0xD6E JUMPI PUSH1 0x40 MLOAD PUSH32 0x8C379A000000000000000000000000000000000000000000000000000000000 DUP2 MSTORE PUSH1 0x4 ADD PUSH2 0xD65 SWAP1 PUSH2 0x2A63 JUMP JUMPDEST PUSH1 0x40 MLOAD DUP1 SWAP2 SUB SWAP1 REVERT JUMPDEST PUSH1 0x1 DUP2 EQ DUP1 PUSH2 0xDA8 JUMPI POP PUSH1 0xD PUSH1 0x11 SLOAD DUP2 SLOAD DUP2 LT PUSH2 0xD8E JUMPI PUSH2 0xD8D PUSH2 0x2A81 JUMP JUMPDEST JUMPDEST SWAP1 PUSH0 MSTORE PUSH1 0x20 PUSH0 KECCAK256 ADD SLOAD DUP2 PUSH1 0x10 SLOAD PUSH2 0xDA5 SWAP2 SWAP1 PUSH2 0x26D7 JUMP JUMPDEST GT ISZERO JUMPDEST PUSH2 0xDE7 JUMPI PUSH1 0x40 MLOAD PUSH32 0x8C379A000000000000000000000000000000000000000000000000000000000 DUP2 MSTORE PUSH1 0x4 ADD PUSH2 0xDDE SWAP1 PUSH2 0x2AF8 JUMP JUMPDEST PUSH1 0x40 MLOAD DUP1 SWAP2 SUB SWAP1 REVERT JUMPDEST PUSH0 PUSH2 0xDF1 DUP3 PUSH2 0x1207 JUMP JUMPDEST SWAP1 POP DUP1 CALLVALUE LT ISZERO PUSH2 0xE36 JUMPI PUSH1 0x40 MLOAD PUSH32 0x8C379A000000000000000000000000000000000000000000000000000000000 DUP2 MSTORE PUSH1 0x4 ADD PUSH2 0xE2D SWAP1 PUSH2 0x2B60 JUMP JUMPDEST PUSH1 0x40 MLOAD DUP1 SWAP2 SUB SWAP1 REVERT JUMPDEST PUSH2 0xE40 CALLER DUP4 PUSH2 0x195C JUMP JUMPDEST DUP2 PUSH1 0x10 SLOAD PUSH2 0xE4E SWAP2 SWAP1 PUSH2 0x26D7 JUMP JUMPDEST PUSH1 0x10 DUP2 SWAP1 SSTORE POP PUSH0 PUSH1 0x11 SLOAD SUB PUSH2 0xE69 JUMPI PUSH2 0xE68 CALLER PUSH1 0x1 PUSH2 0x1C05 JUMP JUMPDEST JUMPDEST PUSH0 PUSH1 0x11 DUP2 SWAP1 SSTORE POP PUSH0 PUSH1 0x1 SWAP1 POP JUMPDEST PUSH1 0x5 DUP2 LT ISZERO PUSH2 0xEF0 JUMPI PUSH1 0xD PUSH1 0x1 DUP3 PUSH2 0xE8E SWAP2 SWAP1 PUSH2 0x29E6 JUMP JUMPDEST DUP2 SLOAD DUP2 LT PUSH2 0xE9F JUMPI PUSH2 0xE9E PUSH2 0x2A81 JUMP JUMPDEST JUMPDEST SWAP1 PUSH0 MSTORE PUSH1 0x20 PUSH0 KECCAK256 ADD SLOAD PUSH1 0x10 SLOAD GT DUP1 ISZERO PUSH2 0xED6 JUMPI POP PUSH1 0xD DUP2 DUP2 SLOAD DUP2 LT PUSH2 0xEC7 JUMPI PUSH2 0xEC6 PUSH2 0x2A81 JUMP JUMPDEST JUMPDEST SWAP1 PUSH0 MSTORE PUSH1 0x20 PUSH0 KECCAK256 ADD SLOAD PUSH1 0x10 SLOAD GT ISZERO JUMPDEST ISZERO PUSH2 0xEE3 JUMPI DUP1 PUSH1 0x11 DUP2 SWAP1 SSTORE POP JUMPDEST DUP1 DUP1 PUSH1 0x1 ADD SWAP2 POP POP PUSH2 0xE76 JUMP JUMPDEST POP PUSH2 0xEFA DUP2 PUSH2 0x1CB5 JUMP JUMPDEST POP POP JUMP JUMPDEST DUP1 PUSH1 0x7 PUSH0 PUSH2 0xF0A PUSH2 0x180C JUMP JUMPDEST PUSH20 0xFFFFFFFFFFFFFFFFFFFFFFFFFFFFFFFFFFFFFFFF AND PUSH20 0xFFFFFFFFFFFFFFFFFFFFFFFFFFFFFFFFFFFFFFFF AND DUP2 MSTORE PUSH1 0x20 ADD SWAP1 DUP2 MSTORE PUSH1 0x20 ADD PUSH0 KECCAK256 PUSH0 DUP5 PUSH20 0xFFFFFFFFFFFFFFFFFFFFFFFFFFFFFFFFFFFFFFFF AND PUSH20 0xFFFFFFFFFFFFFFFFFFFFFFFFFFFFFFFFFFFFFFFF AND DUP2 MSTORE PUSH1 0x20 ADD SWAP1 DUP2 MSTORE PUSH1 0x20 ADD PUSH0 KECCAK256 PUSH0 PUSH2 0x100 EXP DUP2 SLOAD DUP2 PUSH1 0xFF MUL NOT AND SWAP1 DUP4 ISZERO ISZERO MUL OR SWAP1 SSTORE POP DUP2 PUSH20 0xFFFFFFFFFFFFFFFFFFFFFFFFFFFFFFFFFFFFFFFF AND PUSH2 0xFB3 PUSH2 0x180C JUMP JUMPDEST PUSH20 0xFFFFFFFFFFFFFFFFFFFFFFFFFFFFFFFFFFFFFFFF AND PUSH32 0x17307EAB39AB6107E8899845AD3D59BD9653F200F220920489CA2B5937696C31 DUP4 PUSH1 0x40 MLOAD PUSH2 0xFF8 SWAP2 SWAP1 PUSH2 0x20E9 JUMP JUMPDEST PUSH1 0x40 MLOAD DUP1 SWAP2 SUB SWAP1 LOG3 POP POP JUMP JUMPDEST PUSH2 0x100C PUSH2 0x1881 JUMP JUMPDEST PUSH0 SELFBALANCE GT PUSH2 0x104E JUMPI PUSH1 0x40 MLOAD PUSH32 0x8C379A000000000000000000000000000000000000000000000000000000000 DUP2 MSTORE PUSH1 0x4 ADD PUSH2 0x1045 SWAP1 PUSH2 0x2BC8 JUMP JUMPDEST PUSH1 0x40 MLOAD DUP1 SWAP2 SUB SWAP1 REVERT JUMPDEST PUSH0 CALLER PUSH20 0xFFFFFFFFFFFFFFFFFFFFFFFFFFFFFFFFFFFFFFFF AND SELFBALANCE PUSH1 0x40 MLOAD PUSH2 0x1073 SWAP1 PUSH2 0x2C13 JUMP JUMPDEST PUSH0 PUSH1 0x40 MLOAD DUP1 DUP4 SUB DUP2 DUP6 DUP8 GAS CALL SWAP3 POP POP POP RETURNDATASIZE DUP1 PUSH0 DUP2 EQ PUSH2 0x10AD JUMPI PUSH1 0x40 MLOAD SWAP2 POP PUSH1 0x1F NOT PUSH1 0x3F RETURNDATASIZE ADD AND DUP3 ADD PUSH1 0x40 MSTORE RETURNDATASIZE DUP3 MSTORE RETURNDATASIZE PUSH0 PUSH1 0x20 DUP5 ADD RETURNDATACOPY PUSH2 0x10B2 JUMP JUMPDEST PUSH1 0x60 SWAP2 POP JUMPDEST POP POP SWAP1 POP DUP1 PUSH2 0x10F6 JUMPI PUSH1 0x40 MLOAD PUSH32 0x8C379A000000000000000000000000000000000000000000000000000000000 DUP2 MSTORE PUSH1 0x4 ADD PUSH2 0x10ED SWAP1 PUSH2 0x2C71 JUMP JUMPDEST PUSH1 0x40 MLOAD DUP1 SWAP2 SUB SWAP1 REVERT JUMPDEST POP JUMP JUMPDEST PUSH0 PUSH1 0xC SLOAD SWAP1 POP SWAP1 JUMP JUMPDEST PUSH2 0x110D DUP5 DUP5 DUP5 PUSH2 0x7FC JUMP JUMPDEST PUSH0 DUP4 PUSH20 0xFFFFFFFFFFFFFFFFFFFFFFFFFFFFFFFFFFFFFFFF AND EXTCODESIZE EQ PUSH2 0x114D JUMPI PUSH2 0x1137 DUP5 DUP5 DUP5 DUP5 PUSH2 0x1D10 JUMP JUMPDEST PUSH2 0x114C JUMPI PUSH2 0x114B PUSH4 0xD1A57ED6 PUSH1 0xE0 SHL PUSH2 0x1592 JUMP JUMPDEST JUMPDEST JUMPDEST POP POP POP POP JUMP JUMPDEST PUSH0 DUP1 PUSH1 0x11 SLOAD EQ DUP1 ISZERO PUSH2 0x1176 JUMPI POP PUSH0 PUSH2 0x116A DUP4 PUSH2 0x1B7D JUMP JUMPDEST PUSH8 0xFFFFFFFFFFFFFFFF AND EQ JUMPDEST PUSH2 0x1180 JUMPI PUSH0 PUSH2 0x1183 JUMP JUMPDEST PUSH1 0x1 JUMPDEST PUSH1 0xFF AND SWAP1 POP SWAP2 SWAP1 POP JUMP JUMPDEST PUSH1 0x60 PUSH2 0x1198 DUP3 PUSH2 0x14EF JUMP JUMPDEST PUSH2 0x11AD JUMPI PUSH2 0x11AC PUSH4 0xA14C4B50 PUSH1 0xE0 SHL PUSH2 0x1592 JUMP JUMPDEST JUMPDEST PUSH0 PUSH2 0x11B6 PUSH2 0x1E3A JUMP JUMPDEST SWAP1 POP PUSH0 DUP2 MLOAD SUB PUSH2 0x11D4 JUMPI PUSH1 0x40 MLOAD DUP1 PUSH1 0x20 ADD PUSH1 0x40 MSTORE DUP1 PUSH0 DUP2 MSTORE POP PUSH2 0x11FF JUMP JUMPDEST DUP1 PUSH2 0x11DE DUP5 PUSH2 0x1ECA JUMP JUMPDEST PUSH1 0x40 MLOAD PUSH1 0x20 ADD PUSH2 0x11EF SWAP3 SWAP2 SWAP1 PUSH2 0x2CC9 JUMP JUMPDEST PUSH1 0x40 MLOAD PUSH1 0x20 DUP2 DUP4 SUB SUB DUP2 MSTORE SWAP1 PUSH1 0x40 MSTORE JUMPDEST SWAP2 POP POP SWAP2 SWAP1 POP JUMP JUMPDEST PUSH0 DUP1 DUP3 SUB PUSH2 0x121C JUMPI PUSH5 0x19DC792AC SWAP1 POP PUSH2 0x13D8 JUMP JUMPDEST PUSH0 PUSH1 0x11 SLOAD SUB PUSH2 0x1260 JUMPI PUSH1 0x1 DUP3 EQ DUP1 ISZERO PUSH2 0x1246 JUMPI POP PUSH0 PUSH2 0x123A CALLER PUSH2 0x1B7D JUMP JUMPDEST PUSH8 0xFFFFFFFFFFFFFFFF AND EQ JUMPDEST ISZERO PUSH2 0x1253 JUMPI PUSH0 SWAP1 POP PUSH2 0x13D8 JUMP JUMPDEST PUSH5 0x19DC792AC SWAP1 POP PUSH2 0x13D8 JUMP JUMPDEST PUSH0 PUSH1 0xE PUSH1 0x11 SLOAD DUP2 SLOAD DUP2 LT PUSH2 0x1277 JUMPI PUSH2 0x1276 PUSH2 0x2A81 JUMP JUMPDEST JUMPDEST SWAP1 PUSH0 MSTORE PUSH1 0x20 PUSH0 KECCAK256 ADD SLOAD PUSH2 0x1288 PUSH2 0x1F19 JUMP JUMPDEST DUP5 PUSH2 0x1293 SWAP2 SWAP1 PUSH2 0x29E6 JUMP JUMPDEST PUSH2 0x129D SWAP2 SWAP1 PUSH2 0x2CEC JUMP JUMPDEST SWAP1 POP PUSH1 0x11 SLOAD PUSH2 0x12B8 DUP5 PUSH1 0x10 SLOAD PUSH2 0x12B3 SWAP2 SWAP1 PUSH2 0x26D7 JUMP JUMPDEST PUSH2 0x1F47 JUMP JUMPDEST EQ PUSH2 0x13D3 JUMPI PUSH0 PUSH1 0xD PUSH1 0x11 SLOAD DUP2 SLOAD DUP2 LT PUSH2 0x12D4 JUMPI PUSH2 0x12D3 PUSH2 0x2A81 JUMP JUMPDEST JUMPDEST SWAP1 PUSH0 MSTORE PUSH1 0x20 PUSH0 KECCAK256 ADD SLOAD DUP5 PUSH1 0x10 SLOAD PUSH2 0x12EB SWAP2 SWAP1 PUSH2 0x26D7 JUMP JUMPDEST PUSH2 0x12F5 SWAP2 SWAP1 PUSH2 0x29E6 JUMP JUMPDEST SWAP1 POP PUSH0 DUP2 DUP6 PUSH2 0x1304 SWAP2 SWAP1 PUSH2 0x29E6 JUMP JUMPDEST SWAP1 POP PUSH1 0xE PUSH1 0x1 PUSH1 0x11 SLOAD PUSH2 0x1317 SWAP2 SWAP1 PUSH2 0x26D7 JUMP JUMPDEST DUP2 SLOAD DUP2 LT PUSH2 0x1328 JUMPI PUSH2 0x1327 PUSH2 0x2A81 JUMP JUMPDEST JUMPDEST SWAP1 PUSH0 MSTORE PUSH1 0x20 PUSH0 KECCAK256 ADD SLOAD DUP3 PUSH2 0x133C SWAP2 SWAP1 PUSH2 0x2CEC JUMP JUMPDEST PUSH1 0xE PUSH1 0x11 SLOAD DUP2 SLOAD DUP2 LT PUSH2 0x1352 JUMPI PUSH2 0x1351 PUSH2 0x2A81 JUMP JUMPDEST JUMPDEST SWAP1 PUSH0 MSTORE PUSH1 0x20 PUSH0 KECCAK256 ADD SLOAD DUP3 PUSH2 0x1366 SWAP2 SWAP1 PUSH2 0x2CEC JUMP JUMPDEST PUSH2 0x1370 SWAP2 SWAP1 PUSH2 0x26D7 JUMP JUMPDEST SWAP3 POP PUSH0 PUSH2 0x137B PUSH2 0x1F19 JUMP JUMPDEST SUB PUSH2 0x1386 JUMPI PUSH0 PUSH2 0x13C3 JUMP JUMPDEST PUSH1 0xE PUSH0 DUP3 SUB PUSH2 0x1396 JUMPI PUSH1 0x1 PUSH2 0x1398 JUMP JUMPDEST PUSH0 JUMPDEST PUSH1 0xFF AND PUSH1 0x11 SLOAD PUSH2 0x13A8 SWAP2 SWAP1 PUSH2 0x26D7 JUMP JUMPDEST DUP2 SLOAD DUP2 LT PUSH2 0x13B9 JUMPI PUSH2 0x13B8 PUSH2 0x2A81 JUMP JUMPDEST JUMPDEST SWAP1 PUSH0 MSTORE PUSH1 0x20 PUSH0 KECCAK256 ADD SLOAD JUMPDEST DUP4 PUSH2 0x13CE SWAP2 SWAP1 PUSH2 0x29E6 JUMP JUMPDEST SWAP3 POP POP POP JUMPDEST DUP1 SWAP2 POP POP JUMPDEST SWAP2 SWAP1 POP JUMP JUMPDEST PUSH0 PUSH1 0x7 PUSH0 DUP5 PUSH20 0xFFFFFFFFFFFFFFFFFFFFFFFFFFFFFFFFFFFFFFFF AND PUSH20 0xFFFFFFFFFFFFFFFFFFFFFFFFFFFFFFFFFFFFFFFF AND DUP2 MSTORE PUSH1 0x20 ADD SWAP1 DUP2 MSTORE PUSH1 0x20 ADD PUSH0 KECCAK256 PUSH0 DUP4 PUSH20 0xFFFFFFFFFFFFFFFFFFFFFFFFFFFFFFFFFFFFFFFF AND PUSH20 0xFFFFFFFFFFFFFFFFFFFFFFFFFFFFFFFFFFFFFFFF AND DUP2 MSTORE PUSH1 0x20 ADD SWAP1 DUP2 MSTORE PUSH1 0x20 ADD PUSH0 KECCAK256 PUSH0 SWAP1 SLOAD SWAP1 PUSH2 0x100 EXP SWAP1 DIV PUSH1 0xFF AND SWAP1 POP SWAP3 SWAP2 POP POP JUMP JUMPDEST PUSH2 0x1473 PUSH2 0x1881 JUMP JUMPDEST PUSH0 PUSH20 0xFFFFFFFFFFFFFFFFFFFFFFFFFFFFFFFFFFFFFFFF AND DUP2 PUSH20 0xFFFFFFFFFFFFFFFFFFFFFFFFFFFFFFFFFFFFFFFF AND SUB PUSH2 0x14E3 JUMPI PUSH0 PUSH1 0x40 MLOAD PUSH32 0x1E4FBDF700000000000000000000000000000000000000000000000000000000 DUP2 MSTORE PUSH1 0x4 ADD PUSH2 0x14DA SWAP2 SWAP1 PUSH2 0x222F JUMP JUMPDEST PUSH1 0x40 MLOAD DUP1 SWAP2 SUB SWAP1 REVERT JUMPDEST PUSH2 0x14EC DUP2 PUSH2 0x1ABA JUMP JUMPDEST POP JUMP JUMPDEST PUSH0 DUP2 PUSH2 0x14F9 PUSH2 0x16C4 JUMP JUMPDEST GT PUSH2 0x158C JUMPI PUSH2 0x1506 PUSH2 0x16CC JUMP JUMPDEST DUP3 GT ISZERO PUSH2 0x152E JUMPI PUSH2 0x1527 PUSH1 0x4 PUSH0 DUP5 DUP2 MSTORE PUSH1 0x20 ADD SWAP1 DUP2 MSTORE PUSH1 0x20 ADD PUSH0 KECCAK256 SLOAD PUSH2 0x1FE0 JUMP JUMPDEST SWAP1 POP PUSH2 0x158D JUMP JUMPDEST PUSH0 SLOAD DUP3 LT ISZERO PUSH2 0x158B JUMPI PUSH0 JUMPDEST PUSH0 PUSH1 0x4 PUSH0 DUP6 DUP2 MSTORE PUSH1 0x20 ADD SWAP1 DUP2 MSTORE PUSH1 0x20 ADD PUSH0 KECCAK256 SLOAD SWAP2 POP DUP2 SUB PUSH2 0x1565 JUMPI DUP3 PUSH2 0x155E SWAP1 PUSH2 0x2D2D JUMP JUMPDEST SWAP3 POP PUSH2 0x1539 JUMP JUMPDEST PUSH0 PUSH29 0x100000000000000000000000000000000000000000000000000000000 DUP3 AND EQ SWAP2 POP POP JUMPDEST JUMPDEST JUMPDEST SWAP2 SWAP1 POP JUMP JUMPDEST DUP1 PUSH0 MSTORE PUSH1 0x4 PUSH0 REVERT JUMPDEST PUSH0 PUSH2 0x15A4 DUP4 PUSH2 0xB4C JUMP JUMPDEST SWAP1 POP DUP2 DUP1 ISZERO PUSH2 0x15E6 JUMPI POP DUP1 PUSH20 0xFFFFFFFFFFFFFFFFFFFFFFFFFFFFFFFFFFFFFFFF AND PUSH2 0x15CD PUSH2 0x180C JUMP JUMPDEST PUSH20 0xFFFFFFFFFFFFFFFFFFFFFFFFFFFFFFFFFFFFFFFF AND EQ ISZERO JUMPDEST ISZERO PUSH2 0x1612 JUMPI PUSH2 0x15FC DUP2 PUSH2 0x15F7 PUSH2 0x180C JUMP JUMPDEST PUSH2 0x13DD JUMP JUMPDEST PUSH2 0x1611 JUMPI PUSH2 0x1610 PUSH4 0xCFB3B942 PUSH1 0xE0 SHL PUSH2 0x1592 JUMP JUMPDEST JUMPDEST JUMPDEST DUP4 PUSH1 0x6 PUSH0 DUP6 DUP2 MSTORE PUSH1 0x20 ADD SWAP1 DUP2 MSTORE PUSH1 0x20 ADD PUSH0 KECCAK256 PUSH0 ADD PUSH0 PUSH2 0x100 EXP DUP2 SLOAD DUP2 PUSH20 0xFFFFFFFFFFFFFFFFFFFFFFFFFFFFFFFFFFFFFFFF MUL NOT AND SWAP1 DUP4 PUSH20 0xFFFFFFFFFFFFFFFFFFFFFFFFFFFFFFFFFFFFFFFF AND MUL OR SWAP1 SSTORE POP DUP3 DUP5 PUSH20 0xFFFFFFFFFFFFFFFFFFFFFFFFFFFFFFFFFFFFFFFF AND DUP3 PUSH20 0xFFFFFFFFFFFFFFFFFFFFFFFFFFFFFFFFFFFFFFFF AND PUSH32 0x8C5BE1E5EBEC7D5BD14F71427D1E84F3DD0314C0F7B2291E5B200AC8C7C3B925 PUSH1 0x40 MLOAD PUSH1 0x40 MLOAD DUP1 SWAP2 SUB SWAP1 LOG4 POP POP POP POP JUMP JUMPDEST PUSH0 PUSH1 0x1 SWAP1 POP SWAP1 JUMP JUMPDEST PUSH0 PUSH2 0x16D5 PUSH2 0xB1C JUMP JUMPDEST SWAP1 POP SWAP1 JUMP JUMPDEST PUSH0 DUP2 PUSH2 0x16E4 PUSH2 0x16C4 JUMP JUMPDEST GT PUSH2 0x17D3 JUMPI PUSH1 0x4 PUSH0 DUP4 DUP2 MSTORE PUSH1 0x20 ADD SWAP1 DUP2 MSTORE PUSH1 0x20 ADD PUSH0 KECCAK256 SLOAD SWAP1 POP PUSH2 0x1705 PUSH2 0x16CC JUMP JUMPDEST DUP3 GT ISZERO PUSH2 0x172A JUMPI PUSH2 0x1715 DUP2 PUSH2 0x1FE0 JUMP JUMPDEST PUSH2 0x17E4 JUMPI PUSH2 0x1729 PUSH4 0xDF2D9B42 PUSH1 0xE0 SHL PUSH2 0x1592 JUMP JUMPDEST JUMPDEST PUSH0 DUP2 SUB PUSH2 0x17AB JUMPI PUSH0 SLOAD DUP3 LT PUSH2 0x174A JUMPI PUSH2 0x1749 PUSH4 0xDF2D9B42 PUSH1 0xE0 SHL PUSH2 0x1592 JUMP JUMPDEST JUMPDEST JUMPDEST PUSH1 0x4 PUSH0 DUP4 PUSH1 0x1 SWAP1 SUB SWAP4 POP DUP4 DUP2 MSTORE PUSH1 0x20 ADD SWAP1 DUP2 MSTORE PUSH1 0x20 ADD PUSH0 KECCAK256 SLOAD SWAP1 POP PUSH0 DUP2 SUB ISZERO PUSH2 0x17A6 JUMPI PUSH0 PUSH29 0x100000000000000000000000000000000000000000000000000000000 DUP3 AND SUB ISZERO PUSH2 0x17E4 JUMPI PUSH2 0x17A5 PUSH4 0xDF2D9B42 PUSH1 0xE0 SHL PUSH2 0x1592 JUMP JUMPDEST JUMPDEST PUSH2 0x174B JUMP JUMPDEST PUSH0 PUSH29 0x100000000000000000000000000000000000000000000000000000000 DUP3 AND SUB ISZERO PUSH2 0x17E4 JUMPI JUMPDEST PUSH2 0x17E3 PUSH4 0xDF2D9B42 PUSH1 0xE0 SHL PUSH2 0x1592 JUMP JUMPDEST JUMPDEST SWAP2 SWAP1 POP JUMP JUMPDEST PUSH0 DUP1 PUSH0 PUSH1 0x6 PUSH0 DUP6 DUP2 MSTORE PUSH1 0x20 ADD SWAP1 DUP2 MSTORE PUSH1 0x20 ADD PUSH0 KECCAK256 SWAP1 POP DUP1 SWAP3 POP DUP3 SLOAD SWAP2 POP POP SWAP2 POP SWAP2 JUMP JUMPDEST PUSH0 CALLER SWAP1 POP SWAP1 JUMP JUMPDEST PUSH0 DUP4 DUP3 EQ DUP4 DUP4 EQ OR SWAP1 POP SWAP4 SWAP3 POP POP POP JUMP JUMPDEST POP POP POP POP JUMP JUMPDEST PUSH0 DUP1 PUSH1 0xE8 DUP4 SWAP1 SHR SWAP1 POP PUSH1 0xE8 PUSH2 0x1840 DUP7 DUP7 DUP5 PUSH2 0x2020 JUMP JUMPDEST PUSH3 0xFFFFFF AND SWAP1 SHL SWAP2 POP POP SWAP4 SWAP3 POP POP POP JUMP JUMPDEST PUSH0 PUSH20 0xFFFFFFFFFFFFFFFFFFFFFFFFFFFFFFFFFFFFFFFF DUP4 AND SWAP3 POP DUP2 TIMESTAMP PUSH1 0xA0 SHL OR DUP4 OR SWAP1 POP SWAP3 SWAP2 POP POP JUMP JUMPDEST POP POP POP POP JUMP JUMPDEST PUSH2 0x1889 PUSH2 0x2028 JUMP JUMPDEST PUSH20 0xFFFFFFFFFFFFFFFFFFFFFFFFFFFFFFFFFFFFFFFF AND PUSH2 0x18A7 PUSH2 0xC04 JUMP JUMPDEST PUSH20 0xFFFFFFFFFFFFFFFFFFFFFFFFFFFFFFFFFFFFFFFF AND EQ PUSH2 0x1906 JUMPI PUSH2 0x18CA PUSH2 0x2028 JUMP JUMPDEST PUSH1 0x40 MLOAD PUSH32 0x118CDAA700000000000000000000000000000000000000000000000000000000 DUP2 MSTORE PUSH1 0x4 ADD PUSH2 0x18FD SWAP2 SWAP1 PUSH2 0x222F JUMP JUMPDEST PUSH1 0x40 MLOAD DUP1 SWAP2 SUB SWAP1 REVERT JUMPDEST JUMP JUMPDEST PUSH0 PUSH8 0xFFFFFFFFFFFFFFFF PUSH1 0x40 PUSH1 0x5 PUSH0 DUP6 PUSH20 0xFFFFFFFFFFFFFFFFFFFFFFFFFFFFFFFFFFFFFFFF AND PUSH20 0xFFFFFFFFFFFFFFFFFFFFFFFFFFFFFFFFFFFFFFFF AND DUP2 MSTORE PUSH1 0x20 ADD SWAP1 DUP2 MSTORE PUSH1 0x20 ADD PUSH0 KECCAK256 SLOAD SWAP1 SHR AND SWAP1 POP SWAP2 SWAP1 POP JUMP JUMPDEST PUSH0 DUP1 SLOAD SWAP1 POP PUSH0 DUP3 SUB PUSH2 0x1979 JUMPI PUSH2 0x1978 PUSH4 0xB562E8DD PUSH1 0xE0 SHL PUSH2 0x1592 JUMP JUMPDEST JUMPDEST PUSH2 0x1985 PUSH0 DUP5 DUP4 DUP6 PUSH2 0x1824 JUMP JUMPDEST PUSH2 0x19A3 DUP4 PUSH2 0x1994 PUSH0 DUP7 PUSH0 PUSH2 0x182A JUMP JUMPDEST PUSH2 0x199D DUP6 PUSH2 0x202F JUMP JUMPDEST OR PUSH2 0x1851 JUMP JUMPDEST PUSH1 0x4 PUSH0 DUP4 DUP2 MSTORE PUSH1 0x20 ADD SWAP1 DUP2 MSTORE PUSH1 0x20 ADD PUSH0 KECCAK256 DUP2 SWAP1 SSTORE POP PUSH1 0x1 PUSH1 0x40 PUSH1 0x1 SWAP1 SHL OR DUP3 MUL PUSH1 0x5 PUSH0 DUP6 PUSH20 0xFFFFFFFFFFFFFFFFFFFFFFFFFFFFFFFFFFFFFFFF AND PUSH20 0xFFFFFFFFFFFFFFFFFFFFFFFFFFFFFFFFFFFFFFFF AND DUP2 MSTORE PUSH1 0x20 ADD SWAP1 DUP2 MSTORE PUSH1 0x20 ADD PUSH0 KECCAK256 PUSH0 DUP3 DUP3 SLOAD ADD SWAP3 POP POP DUP2 SWAP1 SSTORE POP PUSH0 DUP4 PUSH20 0xFFFFFFFFFFFFFFFFFFFFFFFFFFFFFFFFFFFFFFFF AND SWAP1 POP PUSH0 DUP2 SUB PUSH2 0x1A3E JUMPI PUSH2 0x1A3D PUSH4 0x2E076300 PUSH1 0xE0 SHL PUSH2 0x1592 JUMP JUMPDEST JUMPDEST PUSH0 DUP4 DUP4 ADD SWAP1 POP PUSH0 DUP4 SWAP1 POP PUSH2 0x1A50 PUSH2 0x16CC JUMP JUMPDEST PUSH1 0x1 DUP4 SUB GT ISZERO PUSH2 0x1A6B JUMPI PUSH2 0x1A6A PUSH4 0x81647E3A PUSH1 0xE0 SHL PUSH2 0x1592 JUMP JUMPDEST JUMPDEST JUMPDEST DUP1 DUP4 PUSH0 PUSH32 0xDDF252AD1BE2C89B69C2B068FC378DAA952BA7F163C4A11628F55A4DF523B3EF PUSH0 DUP1 LOG4 DUP2 DUP2 PUSH1 0x1 ADD SWAP2 POP DUP2 SUB PUSH2 0x1A6C JUMPI DUP2 PUSH0 DUP2 SWAP1 SSTORE POP POP POP POP PUSH2 0x1AB5 PUSH0 DUP5 DUP4 DUP6 PUSH2 0x187B JUMP JUMPDEST POP POP POP JUMP JUMPDEST PUSH0 PUSH1 0x9 PUSH0 SWAP1 SLOAD SWAP1 PUSH2 0x100 EXP SWAP1 DIV PUSH20 0xFFFFFFFFFFFFFFFFFFFFFFFFFFFFFFFFFFFFFFFF AND SWAP1 POP DUP2 PUSH1 0x9 PUSH0 PUSH2 0x100 EXP DUP2 SLOAD DUP2 PUSH20 0xFFFFFFFFFFFFFFFFFFFFFFFFFFFFFFFFFFFFFFFF MUL NOT AND SWAP1 DUP4 PUSH20 0xFFFFFFFFFFFFFFFFFFFFFFFFFFFFFFFFFFFFFFFF AND MUL OR SWAP1 SSTORE POP DUP2 PUSH20 0xFFFFFFFFFFFFFFFFFFFFFFFFFFFFFFFFFFFFFFFF AND DUP2 PUSH20 0xFFFFFFFFFFFFFFFFFFFFFFFFFFFFFFFFFFFFFFFF AND PUSH32 0x8BE0079C531659141344CD1FD0A4F28419497F9722A3DAAFE3B4186F6B6457E0 PUSH1 0x40 MLOAD PUSH1 0x40 MLOAD DUP1 SWAP2 SUB SWAP1 LOG3 POP POP JUMP JUMPDEST PUSH0 PUSH1 0xC0 PUSH1 0x5 PUSH0 DUP5 PUSH20 0xFFFFFFFFFFFFFFFFFFFFFFFFFFFFFFFFFFFFFFFF AND PUSH20 0xFFFFFFFFFFFFFFFFFFFFFFFFFFFFFFFFFFFFFFFF AND DUP2 MSTORE PUSH1 0x20 ADD SWAP1 DUP2 MSTORE PUSH1 0x20 ADD PUSH0 KECCAK256 SLOAD SWAP1 SHR SWAP1 POP SWAP2 SWAP1 POP JUMP JUMPDEST PUSH0 DUP1 PUSH2 0x1BD2 CALLER PUSH2 0x1B7D JUMP JUMPDEST PUSH8 0xFFFFFFFFFFFFFFFF AND EQ PUSH2 0x1BE8 JUMPI PUSH1 0x1 PUSH2 0x1BEA JUMP JUMPDEST PUSH0 JUMPDEST PUSH1 0xFF AND PUSH2 0x1BF6 CALLER PUSH2 0x1908 JUMP JUMPDEST PUSH2 0x1C00 SWAP2 SWAP1 PUSH2 0x29E6 JUMP JUMPDEST SWAP1 POP SWAP1 JUMP JUMPDEST PUSH0 PUSH1 0x5 PUSH0 DUP5 PUSH20 0xFFFFFFFFFFFFFFFFFFFFFFFFFFFFFFFFFFFFFFFF AND PUSH20 0xFFFFFFFFFFFFFFFFFFFFFFFFFFFFFFFFFFFFFFFF AND DUP2 MSTORE PUSH1 0x20 ADD SWAP1 DUP2 MSTORE PUSH1 0x20 ADD PUSH0 KECCAK256 SLOAD SWAP1 POP PUSH0 DUP3 SWAP1 POP PUSH1 0xC0 DUP2 SWAP1 SHL PUSH24 0xFFFFFFFFFFFFFFFFFFFFFFFFFFFFFFFFFFFFFFFFFFFFFFFF DUP4 AND OR SWAP2 POP DUP2 PUSH1 0x5 PUSH0 DUP7 PUSH20 0xFFFFFFFFFFFFFFFFFFFFFFFFFFFFFFFFFFFFFFFF AND PUSH20 0xFFFFFFFFFFFFFFFFFFFFFFFFFFFFFFFFFFFFFFFF AND DUP2 MSTORE PUSH1 0x20 ADD SWAP1 DUP2 MSTORE PUSH1 0x20 ADD PUSH0 KECCAK256 DUP2 SWAP1 SSTORE POP POP POP POP POP JUMP JUMPDEST DUP1 CALLVALUE GT ISZERO PUSH2 0x1D0D JUMPI CALLER PUSH20 0xFFFFFFFFFFFFFFFFFFFFFFFFFFFFFFFFFFFFFFFF AND PUSH2 0x8FC DUP3 CALLVALUE PUSH2 0x1CE3 SWAP2 SWAP1 PUSH2 0x29E6 JUMP JUMPDEST SWAP1 DUP2 ISZERO MUL SWAP1 PUSH1 0x40 MLOAD PUSH0 PUSH1 0x40 MLOAD DUP1 DUP4 SUB DUP2 DUP6 DUP9 DUP9 CALL SWAP4 POP POP POP POP ISZERO DUP1 ISZERO PUSH2 0x1D0B JUMPI RETURNDATASIZE PUSH0 DUP1 RETURNDATACOPY RETURNDATASIZE PUSH0 REVERT JUMPDEST POP JUMPDEST POP JUMP JUMPDEST PUSH0 DUP4 PUSH20 0xFFFFFFFFFFFFFFFFFFFFFFFFFFFFFFFFFFFFFFFF AND PUSH4 0x150B7A02 PUSH2 0x1D35 PUSH2 0x180C JUMP JUMPDEST DUP8 DUP7 DUP7 PUSH1 0x40 MLOAD DUP6 PUSH4 0xFFFFFFFF AND PUSH1 0xE0 SHL DUP2 MSTORE PUSH1 0x4 ADD PUSH2 0x1D57 SWAP5 SWAP4 SWAP3 SWAP2 SWAP1 PUSH2 0x2DA6 JUMP JUMPDEST PUSH1 0x20 PUSH1 0x40 MLOAD DUP1 DUP4 SUB DUP2 PUSH0 DUP8 GAS CALL SWAP3 POP POP POP DUP1 ISZERO PUSH2 0x1D92 JUMPI POP PUSH1 0x40 MLOAD RETURNDATASIZE PUSH1 0x1F NOT PUSH1 0x1F DUP3 ADD AND DUP3 ADD DUP1 PUSH1 0x40 MSTORE POP DUP2 ADD SWAP1 PUSH2 0x1D8F SWAP2 SWAP1 PUSH2 0x2E04 JUMP JUMPDEST PUSH1 0x1 JUMPDEST PUSH2 0x1DE7 JUMPI RETURNDATASIZE DUP1 PUSH0 DUP2 EQ PUSH2 0x1DC0 JUMPI PUSH1 0x40 MLOAD SWAP2 POP PUSH1 0x1F NOT PUSH1 0x3F RETURNDATASIZE ADD AND DUP3 ADD PUSH1 0x40 MSTORE RETURNDATASIZE DUP3 MSTORE RETURNDATASIZE PUSH0 PUSH1 0x20 DUP5 ADD RETURNDATACOPY PUSH2 0x1DC5 JUMP JUMPDEST PUSH1 0x60 SWAP2 POP JUMPDEST POP PUSH0 DUP2 MLOAD SUB PUSH2 0x1DDF JUMPI PUSH2 0x1DDE PUSH4 0xD1A57ED6 PUSH1 0xE0 SHL PUSH2 0x1592 JUMP JUMPDEST JUMPDEST DUP1 MLOAD DUP2 PUSH1 0x20 ADD REVERT JUMPDEST PUSH4 0x150B7A02 PUSH1 0xE0 SHL PUSH28 0xFFFFFFFFFFFFFFFFFFFFFFFFFFFFFFFFFFFFFFFFFFFFFFFFFFFFFFFF NOT AND DUP2 PUSH28 0xFFFFFFFFFFFFFFFFFFFFFFFFFFFFFFFFFFFFFFFFFFFFFFFFFFFFFFFF NOT AND EQ SWAP2 POP POP SWAP5 SWAP4 POP POP POP POP JUMP JUMPDEST PUSH1 0x60 PUSH1 0xF DUP1 SLOAD PUSH2 0x1E49 SWAP1 PUSH2 0x267A JUMP JUMPDEST DUP1 PUSH1 0x1F ADD PUSH1 0x20 DUP1 SWAP2 DIV MUL PUSH1 0x20 ADD PUSH1 0x40 MLOAD SWAP1 DUP2 ADD PUSH1 0x40 MSTORE DUP1 SWAP3 SWAP2 SWAP1 DUP2 DUP2 MSTORE PUSH1 0x20 ADD DUP3 DUP1 SLOAD PUSH2 0x1E75 SWAP1 PUSH2 0x267A JUMP JUMPDEST DUP1 ISZERO PUSH2 0x1EC0 JUMPI DUP1 PUSH1 0x1F LT PUSH2 0x1E97 JUMPI PUSH2 0x100 DUP1 DUP4 SLOAD DIV MUL DUP4 MSTORE SWAP2 PUSH1 0x20 ADD SWAP2 PUSH2 0x1EC0 JUMP JUMPDEST DUP3 ADD SWAP2 SWAP1 PUSH0 MSTORE PUSH1 0x20 PUSH0 KECCAK256 SWAP1 JUMPDEST DUP2 SLOAD DUP2 MSTORE SWAP1 PUSH1 0x1 ADD SWAP1 PUSH1 0x20 ADD DUP1 DUP4 GT PUSH2 0x1EA3 JUMPI DUP3 SWAP1 SUB PUSH1 0x1F AND DUP3 ADD SWAP2 JUMPDEST POP POP POP POP POP SWAP1 POP SWAP1 JUMP JUMPDEST PUSH1 0x60 PUSH1 0xA0 PUSH1 0x40 MLOAD ADD DUP1 PUSH1 0x40 MSTORE PUSH1 0x20 DUP2 SUB SWAP2 POP PUSH0 DUP3 MSTORE DUP2 DUP4 JUMPDEST PUSH1 0x1 ISZERO PUSH2 0x1F04 JUMPI PUSH1 0x1 DUP5 SUB SWAP4 POP PUSH1 0xA DUP2 MOD PUSH1 0x30 ADD DUP5 MSTORE8 PUSH1 0xA DUP2 DIV SWAP1 POP DUP1 PUSH2 0x1EE2 JUMPI JUMPDEST POP DUP3 DUP2 SUB PUSH1 0x20 DUP5 SUB SWAP4 POP DUP1 DUP5 MSTORE POP POP POP SWAP2 SWAP1 POP JUMP JUMPDEST PUSH0 DUP1 PUSH1 0x11 SLOAD EQ ISZERO DUP1 ISZERO PUSH2 0x1F32 JUMPI POP PUSH0 PUSH2 0x1F30 PUSH2 0x1BC7 JUMP JUMPDEST EQ JUMPDEST PUSH2 0x1F3C JUMPI PUSH0 PUSH2 0x1F3F JUMP JUMPDEST PUSH1 0x1 JUMPDEST PUSH1 0xFF AND SWAP1 POP SWAP1 JUMP JUMPDEST PUSH0 DUP1 PUSH0 SWAP1 POP PUSH0 PUSH1 0x1 SWAP1 POP JUMPDEST PUSH1 0x5 DUP2 LT ISZERO PUSH2 0x1FD6 JUMPI PUSH0 DUP2 SUB PUSH2 0x1F68 JUMPI PUSH0 PUSH2 0x1F92 JUMP JUMPDEST PUSH1 0xD PUSH1 0x1 DUP3 PUSH2 0x1F77 SWAP2 SWAP1 PUSH2 0x29E6 JUMP JUMPDEST DUP2 SLOAD DUP2 LT PUSH2 0x1F88 JUMPI PUSH2 0x1F87 PUSH2 0x2A81 JUMP JUMPDEST JUMPDEST SWAP1 PUSH0 MSTORE PUSH1 0x20 PUSH0 KECCAK256 ADD SLOAD JUMPDEST DUP5 GT DUP1 ISZERO PUSH2 0x1FBC JUMPI POP PUSH1 0xD DUP2 DUP2 SLOAD DUP2 LT PUSH2 0x1FAF JUMPI PUSH2 0x1FAE PUSH2 0x2A81 JUMP JUMPDEST JUMPDEST SWAP1 PUSH0 MSTORE PUSH1 0x20 PUSH0 KECCAK256 ADD SLOAD DUP5 GT ISZERO JUMPDEST ISZERO PUSH2 0x1FC9 JUMPI DUP1 SWAP2 POP PUSH2 0x1FD6 JUMP JUMPDEST DUP1 DUP1 PUSH1 0x1 ADD SWAP2 POP POP PUSH2 0x1F52 JUMP JUMPDEST POP DUP1 SWAP2 POP POP SWAP2 SWAP1 POP JUMP JUMPDEST PUSH0 PUSH29 0x100000000000000000000000000000000000000000000000000000000 DUP3 AND PUSH20 0xFFFFFFFFFFFFFFFFFFFFFFFFFFFFFFFFFFFFFFFF DUP4 AND GT SWAP1 POP SWAP2 SWAP1 POP JUMP JUMPDEST PUSH0 SWAP4 SWAP3 POP POP POP JUMP JUMPDEST PUSH0 CALLER SWAP1 POP SWAP1 JUMP JUMPDEST PUSH0 PUSH1 0x1 DUP3 EQ PUSH1 0xE1 SHL SWAP1 POP SWAP2 SWAP1 POP JUMP JUMPDEST PUSH0 PUSH1 0x40 MLOAD SWAP1 POP SWAP1 JUMP JUMPDEST PUSH0 DUP1 REVERT JUMPDEST PUSH0 DUP1 REVERT JUMPDEST PUSH0 PUSH32 0xFFFFFFFF00000000000000000000000000000000000000000000000000000000 DUP3 AND SWAP1 POP SWAP2 SWAP1 POP JUMP JUMPDEST PUSH2 0x2083 DUP2 PUSH2 0x204F JUMP JUMPDEST DUP2 EQ PUSH2 0x208D JUMPI PUSH0 DUP1 REVERT JUMPDEST POP JUMP JUMPDEST PUSH0 DUP2 CALLDATALOAD SWAP1 POP PUSH2 0x209E DUP2 PUSH2 0x207A JUMP JUMPDEST SWAP3 SWAP2 POP POP JUMP JUMPDEST PUSH0 PUSH1 0x20 DUP3 DUP5 SUB SLT ISZERO PUSH2 0x20B9 JUMPI PUSH2 0x20B8 PUSH2 0x2047 JUMP JUMPDEST JUMPDEST PUSH0 PUSH2 0x20C6 DUP5 DUP3 DUP6 ADD PUSH2 0x2090 JUMP JUMPDEST SWAP2 POP POP SWAP3 SWAP2 POP POP JUMP JUMPDEST PUSH0 DUP2 ISZERO ISZERO SWAP1 POP SWAP2 SWAP1 POP JUMP JUMPDEST PUSH2 0x20E3 DUP2 PUSH2 0x20CF JUMP JUMPDEST DUP3 MSTORE POP POP JUMP JUMPDEST PUSH0 PUSH1 0x20 DUP3 ADD SWAP1 POP PUSH2 0x20FC PUSH0 DUP4 ADD DUP5 PUSH2 0x20DA JUMP JUMPDEST SWAP3 SWAP2 POP POP JUMP JUMPDEST PUSH0 DUP2 MLOAD SWAP1 POP SWAP2 SWAP1 POP JUMP JUMPDEST PUSH0 DUP3 DUP3 MSTORE PUSH1 0x20 DUP3 ADD SWAP1 POP SWAP3 SWAP2 POP POP JUMP JUMPDEST DUP3 DUP2 DUP4 MCOPY PUSH0 DUP4 DUP4 ADD MSTORE POP POP POP JUMP JUMPDEST PUSH0 PUSH1 0x1F NOT PUSH1 0x1F DUP4 ADD AND SWAP1 POP SWAP2 SWAP1 POP JUMP JUMPDEST PUSH0 PUSH2 0x2144 DUP3 PUSH2 0x2102 JUMP JUMPDEST PUSH2 0x214E DUP2 DUP6 PUSH2 0x210C JUMP JUMPDEST SWAP4 POP PUSH2 0x215E DUP2 DUP6 PUSH1 0x20 DUP7 ADD PUSH2 0x211C JUMP JUMPDEST PUSH2 0x2167 DUP2 PUSH2 0x212A JUMP JUMPDEST DUP5 ADD SWAP2 POP POP SWAP3 SWAP2 POP POP JUMP JUMPDEST PUSH0 PUSH1 0x20 DUP3 ADD SWAP1 POP DUP2 DUP2 SUB PUSH0 DUP4 ADD MSTORE PUSH2 0x218A DUP2 DUP5 PUSH2 0x213A JUMP JUMPDEST SWAP1 POP SWAP3 SWAP2 POP POP JUMP JUMPDEST PUSH0 DUP2 SWAP1 POP SWAP2 SWAP1 POP JUMP JUMPDEST PUSH2 0x21A4 DUP2 PUSH2 0x2192 JUMP JUMPDEST DUP2 EQ PUSH2 0x21AE JUMPI PUSH0 DUP1 REVERT JUMPDEST POP JUMP JUMPDEST PUSH0 DUP2 CALLDATALOAD SWAP1 POP PUSH2 0x21BF DUP2 PUSH2 0x219B JUMP JUMPDEST SWAP3 SWAP2 POP POP JUMP JUMPDEST PUSH0 PUSH1 0x20 DUP3 DUP5 SUB SLT ISZERO PUSH2 0x21DA JUMPI PUSH2 0x21D9 PUSH2 0x2047 JUMP JUMPDEST JUMPDEST PUSH0 PUSH2 0x21E7 DUP5 DUP3 DUP6 ADD PUSH2 0x21B1 JUMP JUMPDEST SWAP2 POP POP SWAP3 SWAP2 POP POP JUMP JUMPDEST PUSH0 PUSH20 0xFFFFFFFFFFFFFFFFFFFFFFFFFFFFFFFFFFFFFFFF DUP3 AND SWAP1 POP SWAP2 SWAP1 POP JUMP JUMPDEST PUSH0 PUSH2 0x2219 DUP3 PUSH2 0x21F0 JUMP JUMPDEST SWAP1 POP SWAP2 SWAP1 POP JUMP JUMPDEST PUSH2 0x2229 DUP2 PUSH2 0x220F JUMP JUMPDEST DUP3 MSTORE POP POP JUMP JUMPDEST PUSH0 PUSH1 0x20 DUP3 ADD SWAP1 POP PUSH2 0x2242 PUSH0 DUP4 ADD DUP5 PUSH2 0x2220 JUMP JUMPDEST SWAP3 SWAP2 POP POP JUMP JUMPDEST PUSH2 0x2251 DUP2 PUSH2 0x220F JUMP JUMPDEST DUP2 EQ PUSH2 0x225B JUMPI PUSH0 DUP1 REVERT JUMPDEST POP JUMP JUMPDEST PUSH0 DUP2 CALLDATALOAD SWAP1 POP PUSH2 0x226C DUP2 PUSH2 0x2248 JUMP JUMPDEST SWAP3 SWAP2 POP POP JUMP JUMPDEST PUSH0 DUP1 PUSH1 0x40 DUP4 DUP6 SUB SLT ISZERO PUSH2 0x2288 JUMPI PUSH2 0x2287 PUSH2 0x2047 JUMP JUMPDEST JUMPDEST PUSH0 PUSH2 0x2295 DUP6 DUP3 DUP7 ADD PUSH2 0x225E JUMP JUMPDEST SWAP3 POP POP PUSH1 0x20 PUSH2 0x22A6 DUP6 DUP3 DUP7 ADD PUSH2 0x21B1 JUMP JUMPDEST SWAP2 POP POP SWAP3 POP SWAP3 SWAP1 POP JUMP JUMPDEST PUSH2 0x22B9 DUP2 PUSH2 0x2192 JUMP JUMPDEST DUP3 MSTORE POP POP JUMP JUMPDEST PUSH0 PUSH1 0x20 DUP3 ADD SWAP1 POP PUSH2 0x22D2 PUSH0 DUP4 ADD DUP5 PUSH2 0x22B0 JUMP JUMPDEST SWAP3 SWAP2 POP POP JUMP JUMPDEST PUSH0 DUP1 PUSH0 PUSH1 0x60 DUP5 DUP7 SUB SLT ISZERO PUSH2 0x22EF JUMPI PUSH2 0x22EE PUSH2 0x2047 JUMP JUMPDEST JUMPDEST PUSH0 PUSH2 0x22FC DUP7 DUP3 DUP8 ADD PUSH2 0x225E JUMP JUMPDEST SWAP4 POP POP PUSH1 0x20 PUSH2 0x230D DUP7 DUP3 DUP8 ADD PUSH2 0x225E JUMP JUMPDEST SWAP3 POP POP PUSH1 0x40 PUSH2 0x231E DUP7 DUP3 DUP8 ADD PUSH2 0x21B1 JUMP JUMPDEST SWAP2 POP POP SWAP3 POP SWAP3 POP SWAP3 JUMP JUMPDEST PUSH0 DUP1 REVERT JUMPDEST PUSH0 DUP1 REVERT JUMPDEST PUSH0 DUP1 REVERT JUMPDEST PUSH0 DUP1 DUP4 PUSH1 0x1F DUP5 ADD SLT PUSH2 0x2349 JUMPI PUSH2 0x2348 PUSH2 0x2328 JUMP JUMPDEST JUMPDEST DUP3 CALLDATALOAD SWAP1 POP PUSH8 0xFFFFFFFFFFFFFFFF DUP2 GT ISZERO PUSH2 0x2366 JUMPI PUSH2 0x2365 PUSH2 0x232C JUMP JUMPDEST JUMPDEST PUSH1 0x20 DUP4 ADD SWAP2 POP DUP4 PUSH1 0x1 DUP3 MUL DUP4 ADD GT ISZERO PUSH2 0x2382 JUMPI PUSH2 0x2381 PUSH2 0x2330 JUMP JUMPDEST JUMPDEST SWAP3 POP SWAP3 SWAP1 POP JUMP JUMPDEST PUSH0 DUP1 PUSH1 0x20 DUP4 DUP6 SUB SLT ISZERO PUSH2 0x239F JUMPI PUSH2 0x239E PUSH2 0x2047 JUMP JUMPDEST JUMPDEST PUSH0 DUP4 ADD CALLDATALOAD PUSH8 0xFFFFFFFFFFFFFFFF DUP2 GT ISZERO PUSH2 0x23BC JUMPI PUSH2 0x23BB PUSH2 0x204B JUMP JUMPDEST JUMPDEST PUSH2 0x23C8 DUP6 DUP3 DUP7 ADD PUSH2 0x2334 JUMP JUMPDEST SWAP3 POP SWAP3 POP POP SWAP3 POP SWAP3 SWAP1 POP JUMP JUMPDEST PUSH0 PUSH1 0x20 DUP3 DUP5 SUB SLT ISZERO PUSH2 0x23E9 JUMPI PUSH2 0x23E8 PUSH2 0x2047 JUMP JUMPDEST JUMPDEST PUSH0 PUSH2 0x23F6 DUP5 DUP3 DUP6 ADD PUSH2 0x225E JUMP JUMPDEST SWAP2 POP POP SWAP3 SWAP2 POP POP JUMP JUMPDEST PUSH2 0x2408 DUP2 PUSH2 0x20CF JUMP JUMPDEST DUP2 EQ PUSH2 0x2412 JUMPI PUSH0 DUP1 REVERT JUMPDEST POP JUMP JUMPDEST PUSH0 DUP2 CALLDATALOAD SWAP1 POP PUSH2 0x2423 DUP2 PUSH2 0x23FF JUMP JUMPDEST SWAP3 SWAP2 POP POP JUMP JUMPDEST PUSH0 DUP1 PUSH1 0x40 DUP4 DUP6 SUB SLT ISZERO PUSH2 0x243F JUMPI PUSH2 0x243E PUSH2 0x2047 JUMP JUMPDEST JUMPDEST PUSH0 PUSH2 0x244C DUP6 DUP3 DUP7 ADD PUSH2 0x225E JUMP JUMPDEST SWAP3 POP POP PUSH1 0x20 PUSH2 0x245D DUP6 DUP3 DUP7 ADD PUSH2 0x2415 JUMP JUMPDEST SWAP2 POP POP SWAP3 POP SWAP3 SWAP1 POP JUMP JUMPDEST PUSH0 DUP1 REVERT JUMPDEST PUSH32 0x4E487B7100000000000000000000000000000000000000000000000000000000 PUSH0 MSTORE PUSH1 0x41 PUSH1 0x4 MSTORE PUSH1 0x24 PUSH0 REVERT JUMPDEST PUSH2 0x24A1 DUP3 PUSH2 0x212A JUMP JUMPDEST DUP2 ADD DUP2 DUP2 LT PUSH8 0xFFFFFFFFFFFFFFFF DUP3 GT OR ISZERO PUSH2 0x24C0 JUMPI PUSH2 0x24BF PUSH2 0x246B JUMP JUMPDEST JUMPDEST DUP1 PUSH1 0x40 MSTORE POP POP POP JUMP JUMPDEST PUSH0 PUSH2 0x24D2 PUSH2 0x203E JUMP JUMPDEST SWAP1 POP PUSH2 0x24DE DUP3 DUP3 PUSH2 0x2498 JUMP JUMPDEST SWAP2 SWAP1 POP JUMP JUMPDEST PUSH0 PUSH8 0xFFFFFFFFFFFFFFFF DUP3 GT ISZERO PUSH2 0x24FD JUMPI PUSH2 0x24FC PUSH2 0x246B JUMP JUMPDEST JUMPDEST PUSH2 0x2506 DUP3 PUSH2 0x212A JUMP JUMPDEST SWAP1 POP PUSH1 0x20 DUP2 ADD SWAP1 POP SWAP2 SWAP1 POP JUMP JUMPDEST DUP3 DUP2 DUP4 CALLDATACOPY PUSH0 DUP4 DUP4 ADD MSTORE POP POP POP JUMP JUMPDEST PUSH0 PUSH2 0x2533 PUSH2 0x252E DUP5 PUSH2 0x24E3 JUMP JUMPDEST PUSH2 0x24C9 JUMP JUMPDEST SWAP1 POP DUP3 DUP2 MSTORE PUSH1 0x20 DUP2 ADD DUP5 DUP5 DUP5 ADD GT ISZERO PUSH2 0x254F JUMPI PUSH2 0x254E PUSH2 0x2467 JUMP JUMPDEST JUMPDEST PUSH2 0x255A DUP5 DUP3 DUP6 PUSH2 0x2513 JUMP JUMPDEST POP SWAP4 SWAP3 POP POP POP JUMP JUMPDEST PUSH0 DUP3 PUSH1 0x1F DUP4 ADD SLT PUSH2 0x2576 JUMPI PUSH2 0x2575 PUSH2 0x2328 JUMP JUMPDEST JUMPDEST DUP2 CALLDATALOAD PUSH2 0x2586 DUP5 DUP3 PUSH1 0x20 DUP7 ADD PUSH2 0x2521 JUMP JUMPDEST SWAP2 POP POP SWAP3 SWAP2 POP POP JUMP JUMPDEST PUSH0 DUP1 PUSH0 DUP1 PUSH1 0x80 DUP6 DUP8 SUB SLT ISZERO PUSH2 0x25A7 JUMPI PUSH2 0x25A6 PUSH2 0x2047 JUMP JUMPDEST JUMPDEST PUSH0 PUSH2 0x25B4 DUP8 DUP3 DUP9 ADD PUSH2 0x225E JUMP JUMPDEST SWAP5 POP POP PUSH1 0x20 PUSH2 0x25C5 DUP8 DUP3 DUP9 ADD PUSH2 0x225E JUMP JUMPDEST SWAP4 POP POP PUSH1 0x40 PUSH2 0x25D6 DUP8 DUP3 DUP9 ADD PUSH2 0x21B1 JUMP JUMPDEST SWAP3 POP POP PUSH1 0x60 DUP6 ADD CALLDATALOAD PUSH8 0xFFFFFFFFFFFFFFFF DUP2 GT ISZERO PUSH2 0x25F7 JUMPI PUSH2 0x25F6 PUSH2 0x204B JUMP JUMPDEST JUMPDEST PUSH2 0x2603 DUP8 DUP3 DUP9 ADD PUSH2 0x2562 JUMP JUMPDEST SWAP2 POP POP SWAP3 SWAP6 SWAP2 SWAP5 POP SWAP3 POP JUMP JUMPDEST PUSH0 DUP1 PUSH1 0x40 DUP4 DUP6 SUB SLT ISZERO PUSH2 0x2625 JUMPI PUSH2 0x2624 PUSH2 0x2047 JUMP JUMPDEST JUMPDEST PUSH0 PUSH2 0x2632 DUP6 DUP3 DUP7 ADD PUSH2 0x225E JUMP JUMPDEST SWAP3 POP POP PUSH1 0x20 PUSH2 0x2643 DUP6 DUP3 DUP7 ADD PUSH2 0x225E JUMP JUMPDEST SWAP2 POP POP SWAP3 POP SWAP3 SWAP1 POP JUMP JUMPDEST PUSH32 0x4E487B7100000000000000000000000000000000000000000000000000000000 PUSH0 MSTORE PUSH1 0x22 PUSH1 0x4 MSTORE PUSH1 0x24 PUSH0 REVERT JUMPDEST PUSH0 PUSH1 0x2 DUP3 DIV SWAP1 POP PUSH1 0x1 DUP3 AND DUP1 PUSH2 0x2691 JUMPI PUSH1 0x7F DUP3 AND SWAP2 POP JUMPDEST PUSH1 0x20 DUP3 LT DUP2 SUB PUSH2 0x26A4 JUMPI PUSH2 0x26A3 PUSH2 0x264D JUMP JUMPDEST JUMPDEST POP SWAP2 SWAP1 POP JUMP JUMPDEST PUSH32 0x4E487B7100000000000000000000000000000000000000000000000000000000 PUSH0 MSTORE PUSH1 0x11 PUSH1 0x4 MSTORE PUSH1 0x24 PUSH0 REVERT JUMPDEST PUSH0 PUSH2 0x26E1 DUP3 PUSH2 0x2192 JUMP JUMPDEST SWAP2 POP PUSH2 0x26EC DUP4 PUSH2 0x2192 JUMP JUMPDEST SWAP3 POP DUP3 DUP3 ADD SWAP1 POP DUP1 DUP3 GT ISZERO PUSH2 0x2704 JUMPI PUSH2 0x2703 PUSH2 0x26AA JUMP JUMPDEST JUMPDEST SWAP3 SWAP2 POP POP JUMP JUMPDEST PUSH32 0x444D460000000000000000000000000000000000000000000000000000000000 PUSH0 DUP3 ADD MSTORE POP JUMP JUMPDEST PUSH0 PUSH2 0x273E PUSH1 0x3 DUP4 PUSH2 0x210C JUMP JUMPDEST SWAP2 POP PUSH2 0x2749 DUP3 PUSH2 0x270A JUMP JUMPDEST PUSH1 0x20 DUP3 ADD SWAP1 POP SWAP2 SWAP1 POP JUMP JUMPDEST PUSH0 PUSH1 0x20 DUP3 ADD SWAP1 POP DUP2 DUP2 SUB PUSH0 DUP4 ADD MSTORE PUSH2 0x276B DUP2 PUSH2 0x2732 JUMP JUMPDEST SWAP1 POP SWAP2 SWAP1 POP JUMP JUMPDEST PUSH0 DUP3 SWAP1 POP SWAP3 SWAP2 POP POP JUMP JUMPDEST PUSH0 DUP2 SWAP1 POP DUP2 PUSH0 MSTORE PUSH1 0x20 PUSH0 KECCAK256 SWAP1 POP SWAP2 SWAP1 POP JUMP JUMPDEST PUSH0 PUSH1 0x20 PUSH1 0x1F DUP4 ADD DIV SWAP1 POP SWAP2 SWAP1 POP JUMP JUMPDEST PUSH0 DUP3 DUP3 SHL SWAP1 POP SWAP3 SWAP2 POP POP JUMP JUMPDEST PUSH0 PUSH1 0x8 DUP4 MUL PUSH2 0x27D8 PUSH32 0xFFFFFFFFFFFFFFFFFFFFFFFFFFFFFFFFFFFFFFFFFFFFFFFFFFFFFFFFFFFFFFFF DUP3 PUSH2 0x279D JUMP JUMPDEST PUSH2 0x27E2 DUP7 DUP4 PUSH2 0x279D JUMP JUMPDEST SWAP6 POP DUP1 NOT DUP5 AND SWAP4 POP DUP1 DUP7 AND DUP5 OR SWAP3 POP POP POP SWAP4 SWAP3 POP POP POP JUMP JUMPDEST PUSH0 DUP2 SWAP1 POP SWAP2 SWAP1 POP JUMP JUMPDEST PUSH0 PUSH2 0x281D PUSH2 0x2818 PUSH2 0x2813 DUP5 PUSH2 0x2192 JUMP JUMPDEST PUSH2 0x27FA JUMP JUMPDEST PUSH2 0x2192 JUMP JUMPDEST SWAP1 POP SWAP2 SWAP1 POP JUMP JUMPDEST PUSH0 DUP2 SWAP1 POP SWAP2 SWAP1 POP JUMP JUMPDEST PUSH2 0x2836 DUP4 PUSH2 0x2803 JUMP JUMPDEST PUSH2 0x284A PUSH2 0x2842 DUP3 PUSH2 0x2824 JUMP JUMPDEST DUP5 DUP5 SLOAD PUSH2 0x27A9 JUMP JUMPDEST DUP3 SSTORE POP POP POP POP JUMP JUMPDEST PUSH0 SWAP1 JUMP JUMPDEST PUSH2 0x285E PUSH2 0x2852 JUMP JUMPDEST PUSH2 0x2869 DUP2 DUP5 DUP5 PUSH2 0x282D JUMP JUMPDEST POP POP POP JUMP JUMPDEST JUMPDEST DUP2 DUP2 LT ISZERO PUSH2 0x288C JUMPI PUSH2 0x2881 PUSH0 DUP3 PUSH2 0x2856 JUMP JUMPDEST PUSH1 0x1 DUP2 ADD SWAP1 POP PUSH2 0x286F JUMP JUMPDEST POP POP JUMP JUMPDEST PUSH1 0x1F DUP3 GT ISZERO PUSH2 0x28D1 JUMPI PUSH2 0x28A2 DUP2 PUSH2 0x277C JUMP JUMPDEST PUSH2 0x28AB DUP5 PUSH2 0x278E JUMP JUMPDEST DUP2 ADD PUSH1 0x20 DUP6 LT ISZERO PUSH2 0x28BA JUMPI DUP2 SWAP1 POP JUMPDEST PUSH2 0x28CE PUSH2 0x28C6 DUP6 PUSH2 0x278E JUMP JUMPDEST DUP4 ADD DUP3 PUSH2 0x286E JUMP JUMPDEST POP POP JUMPDEST POP POP POP JUMP JUMPDEST PUSH0 DUP3 DUP3 SHR SWAP1 POP SWAP3 SWAP2 POP POP JUMP JUMPDEST PUSH0 PUSH2 0x28F1 PUSH0 NOT DUP5 PUSH1 0x8 MUL PUSH2 0x28D6 JUMP JUMPDEST NOT DUP1 DUP4 AND SWAP2 POP POP SWAP3 SWAP2 POP POP JUMP JUMPDEST PUSH0 PUSH2 0x2909 DUP4 DUP4 PUSH2 0x28E2 JUMP JUMPDEST SWAP2 POP DUP3 PUSH1 0x2 MUL DUP3 OR SWAP1 POP SWAP3 SWAP2 POP POP JUMP JUMPDEST PUSH2 0x2923 DUP4 DUP4 PUSH2 0x2772 JUMP JUMPDEST PUSH8 0xFFFFFFFFFFFFFFFF DUP2 GT ISZERO PUSH2 0x293C JUMPI PUSH2 0x293B PUSH2 0x246B JUMP JUMPDEST JUMPDEST PUSH2 0x2946 DUP3 SLOAD PUSH2 0x267A JUMP JUMPDEST PUSH2 0x2951 DUP3 DUP3 DUP6 PUSH2 0x2890 JUMP JUMPDEST PUSH0 PUSH1 0x1F DUP4 GT PUSH1 0x1 DUP2 EQ PUSH2 0x297E JUMPI PUSH0 DUP5 ISZERO PUSH2 0x296C JUMPI DUP3 DUP8 ADD CALLDATALOAD SWAP1 POP JUMPDEST PUSH2 0x2976 DUP6 DUP3 PUSH2 0x28FE JUMP JUMPDEST DUP7 SSTORE POP PUSH2 0x29DD JUMP JUMPDEST PUSH1 0x1F NOT DUP5 AND PUSH2 0x298C DUP7 PUSH2 0x277C JUMP JUMPDEST PUSH0 JUMPDEST DUP3 DUP2 LT ISZERO PUSH2 0x29B3 JUMPI DUP5 DUP10 ADD CALLDATALOAD DUP3 SSTORE PUSH1 0x1 DUP3 ADD SWAP2 POP PUSH1 0x20 DUP6 ADD SWAP5 POP PUSH1 0x20 DUP2 ADD SWAP1 POP PUSH2 0x298E JUMP JUMPDEST DUP7 DUP4 LT ISZERO PUSH2 0x29D0 JUMPI DUP5 DUP10 ADD CALLDATALOAD PUSH2 0x29CC PUSH1 0x1F DUP10 AND DUP3 PUSH2 0x28E2 JUMP JUMPDEST DUP4 SSTORE POP JUMPDEST PUSH1 0x1 PUSH1 0x2 DUP9 MUL ADD DUP9 SSTORE POP POP POP JUMPDEST POP POP POP POP POP POP POP JUMP JUMPDEST PUSH0 PUSH2 0x29F0 DUP3 PUSH2 0x2192 JUMP JUMPDEST SWAP2 POP PUSH2 0x29FB DUP4 PUSH2 0x2192 JUMP JUMPDEST SWAP3 POP DUP3 DUP3 SUB SWAP1 POP DUP2 DUP2 GT ISZERO PUSH2 0x2A13 JUMPI PUSH2 0x2A12 PUSH2 0x26AA JUMP JUMPDEST JUMPDEST SWAP3 SWAP2 POP POP JUMP JUMPDEST PUSH32 0x5100000000000000000000000000000000000000000000000000000000000000 PUSH0 DUP3 ADD MSTORE POP JUMP JUMPDEST PUSH0 PUSH2 0x2A4D PUSH1 0x1 DUP4 PUSH2 0x210C JUMP JUMPDEST SWAP2 POP PUSH2 0x2A58 DUP3 PUSH2 0x2A19 JUMP JUMPDEST PUSH1 0x20 DUP3 ADD SWAP1 POP SWAP2 SWAP1 POP JUMP JUMPDEST PUSH0 PUSH1 0x20 DUP3 ADD SWAP1 POP DUP2 DUP2 SUB PUSH0 DUP4 ADD MSTORE PUSH2 0x2A7A DUP2 PUSH2 0x2A41 JUMP JUMPDEST SWAP1 POP SWAP2 SWAP1 POP JUMP JUMPDEST PUSH32 0x4E487B7100000000000000000000000000000000000000000000000000000000 PUSH0 MSTORE PUSH1 0x32 PUSH1 0x4 MSTORE PUSH1 0x24 PUSH0 REVERT JUMPDEST PUSH32 0x5351000000000000000000000000000000000000000000000000000000000000 PUSH0 DUP3 ADD MSTORE POP JUMP JUMPDEST PUSH0 PUSH2 0x2AE2 PUSH1 0x2 DUP4 PUSH2 0x210C JUMP JUMPDEST SWAP2 POP PUSH2 0x2AED DUP3 PUSH2 0x2AAE JUMP JUMPDEST PUSH1 0x20 DUP3 ADD SWAP1 POP SWAP2 SWAP1 POP JUMP JUMPDEST PUSH0 PUSH1 0x20 DUP3 ADD SWAP1 POP DUP2 DUP2 SUB PUSH0 DUP4 ADD MSTORE PUSH2 0x2B0F DUP2 PUSH2 0x2AD6 JUMP JUMPDEST SWAP1 POP SWAP2 SWAP1 POP JUMP JUMPDEST PUSH32 0x5000000000000000000000000000000000000000000000000000000000000000 PUSH0 DUP3 ADD MSTORE POP JUMP JUMPDEST PUSH0 PUSH2 0x2B4A PUSH1 0x1 DUP4 PUSH2 0x210C JUMP JUMPDEST SWAP2 POP PUSH2 0x2B55 DUP3 PUSH2 0x2B16 JUMP JUMPDEST PUSH1 0x20 DUP3 ADD SWAP1 POP SWAP2 SWAP1 POP JUMP JUMPDEST PUSH0 PUSH1 0x20 DUP3 ADD SWAP1 POP DUP2 DUP2 SUB PUSH0 DUP4 ADD MSTORE PUSH2 0x2B77 DUP2 PUSH2 0x2B3E JUMP JUMPDEST SWAP1 POP SWAP2 SWAP1 POP JUMP JUMPDEST PUSH32 0x5700000000000000000000000000000000000000000000000000000000000000 PUSH0 DUP3 ADD MSTORE POP JUMP JUMPDEST PUSH0 PUSH2 0x2BB2 PUSH1 0x1 DUP4 PUSH2 0x210C JUMP JUMPDEST SWAP2 POP PUSH2 0x2BBD DUP3 PUSH2 0x2B7E JUMP JUMPDEST PUSH1 0x20 DUP3 ADD SWAP1 POP SWAP2 SWAP1 POP JUMP JUMPDEST PUSH0 PUSH1 0x20 DUP3 ADD SWAP1 POP DUP2 DUP2 SUB PUSH0 DUP4 ADD MSTORE PUSH2 0x2BDF DUP2 PUSH2 0x2BA6 JUMP JUMPDEST SWAP1 POP SWAP2 SWAP1 POP JUMP JUMPDEST PUSH0 DUP2 SWAP1 POP SWAP3 SWAP2 POP POP JUMP JUMPDEST POP JUMP JUMPDEST PUSH0 PUSH2 0x2BFE PUSH0 DUP4 PUSH2 0x2BE6 JUMP JUMPDEST SWAP2 POP PUSH2 0x2C09 DUP3 PUSH2 0x2BF0 JUMP JUMPDEST PUSH0 DUP3 ADD SWAP1 POP SWAP2 SWAP1 POP JUMP JUMPDEST PUSH0 PUSH2 0x2C1D DUP3 PUSH2 0x2BF3 JUMP JUMPDEST SWAP2 POP DUP2 SWAP1 POP SWAP2 SWAP1 POP JUMP JUMPDEST PUSH32 0x5746000000000000000000000000000000000000000000000000000000000000 PUSH0 DUP3 ADD MSTORE POP JUMP JUMPDEST PUSH0 PUSH2 0x2C5B PUSH1 0x2 DUP4 PUSH2 0x210C JUMP JUMPDEST SWAP2 POP PUSH2 0x2C66 DUP3 PUSH2 0x2C27 JUMP JUMPDEST PUSH1 0x20 DUP3 ADD SWAP1 POP SWAP2 SWAP1 POP JUMP JUMPDEST PUSH0 PUSH1 0x20 DUP3 ADD SWAP1 POP DUP2 DUP2 SUB PUSH0 DUP4 ADD MSTORE PUSH2 0x2C88 DUP2 PUSH2 0x2C4F JUMP JUMPDEST SWAP1 POP SWAP2 SWAP1 POP JUMP JUMPDEST PUSH0 DUP2 SWAP1 POP SWAP3 SWAP2 POP POP JUMP JUMPDEST PUSH0 PUSH2 0x2CA3 DUP3 PUSH2 0x2102 JUMP JUMPDEST PUSH2 0x2CAD DUP2 DUP6 PUSH2 0x2C8F JUMP JUMPDEST SWAP4 POP PUSH2 0x2CBD DUP2 DUP6 PUSH1 0x20 DUP7 ADD PUSH2 0x211C JUMP JUMPDEST DUP1 DUP5 ADD SWAP2 POP POP SWAP3 SWAP2 POP POP JUMP JUMPDEST PUSH0 PUSH2 0x2CD4 DUP3 DUP6 PUSH2 0x2C99 JUMP JUMPDEST SWAP2 POP PUSH2 0x2CE0 DUP3 DUP5 PUSH2 0x2C99 JUMP JUMPDEST SWAP2 POP DUP2 SWAP1 POP SWAP4 SWAP3 POP POP POP JUMP JUMPDEST PUSH0 PUSH2 0x2CF6 DUP3 PUSH2 0x2192 JUMP JUMPDEST SWAP2 POP PUSH2 0x2D01 DUP4 PUSH2 0x2192 JUMP JUMPDEST SWAP3 POP DUP3 DUP3 MUL PUSH2 0x2D0F DUP2 PUSH2 0x2192 JUMP JUMPDEST SWAP2 POP DUP3 DUP3 DIV DUP5 EQ DUP4 ISZERO OR PUSH2 0x2D26 JUMPI PUSH2 0x2D25 PUSH2 0x26AA JUMP JUMPDEST JUMPDEST POP SWAP3 SWAP2 POP POP JUMP JUMPDEST PUSH0 PUSH2 0x2D37 DUP3 PUSH2 0x2192 JUMP JUMPDEST SWAP2 POP PUSH0 DUP3 SUB PUSH2 0x2D49 JUMPI PUSH2 0x2D48 PUSH2 0x26AA JUMP JUMPDEST JUMPDEST PUSH1 0x1 DUP3 SUB SWAP1 POP SWAP2 SWAP1 POP JUMP JUMPDEST PUSH0 DUP2 MLOAD SWAP1 POP SWAP2 SWAP1 POP JUMP JUMPDEST PUSH0 DUP3 DUP3 MSTORE PUSH1 0x20 DUP3 ADD SWAP1 POP SWAP3 SWAP2 POP POP JUMP JUMPDEST PUSH0 PUSH2 0x2D78 DUP3 PUSH2 0x2D54 JUMP JUMPDEST PUSH2 0x2D82 DUP2 DUP6 PUSH2 0x2D5E JUMP JUMPDEST SWAP4 POP PUSH2 0x2D92 DUP2 DUP6 PUSH1 0x20 DUP7 ADD PUSH2 0x211C JUMP JUMPDEST PUSH2 0x2D9B DUP2 PUSH2 0x212A JUMP JUMPDEST DUP5 ADD SWAP2 POP POP SWAP3 SWAP2 POP POP JUMP JUMPDEST PUSH0 PUSH1 0x80 DUP3 ADD SWAP1 POP PUSH2 0x2DB9 PUSH0 DUP4 ADD DUP8 PUSH2 0x2220 JUMP JUMPDEST PUSH2 0x2DC6 PUSH1 0x20 DUP4 ADD DUP7 PUSH2 0x2220 JUMP JUMPDEST PUSH2 0x2DD3 PUSH1 0x40 DUP4 ADD DUP6 PUSH2 0x22B0 JUMP JUMPDEST DUP2 DUP2 SUB PUSH1 0x60 DUP4 ADD MSTORE PUSH2 0x2DE5 DUP2 DUP5 PUSH2 0x2D6E JUMP JUMPDEST SWAP1 POP SWAP6 SWAP5 POP POP POP POP POP JUMP JUMPDEST PUSH0 DUP2 MLOAD SWAP1 POP PUSH2 0x2DFE DUP2 PUSH2 0x207A JUMP JUMPDEST SWAP3 SWAP2 POP POP JUMP JUMPDEST PUSH0 PUSH1 0x20 DUP3 DUP5 SUB SLT ISZERO PUSH2 0x2E19 JUMPI PUSH2 0x2E18 PUSH2 0x2047 JUMP JUMPDEST JUMPDEST PUSH0 PUSH2 0x2E26 DUP5 DUP3 DUP6 ADD PUSH2 0x2DF0 JUMP JUMPDEST SWAP2 POP POP SWAP3 SWAP2 POP POP JUMP INVALID LOG2 PUSH5 0x6970667358 0x22 SLT KECCAK256 REVERT PREVRANDAO DUP12 PUSH19 0x9C3E507F90EF191AA2D504088E22EE7038492D PUSH22 0x294174A9F0AD364664736F6C634300081A0033000000 "
		},
		"gasEstimates": {
			"creation": {
				"codeDepositCost": "2375400",
				"executionCost": "infinite",
				"totalCost": "infinite"
			},
			"external": {
				"approve(address,uint256)": "infinite",
				"balanceOf(address)": "2981",
				"collectionSize()": "422",
				"currentStage()": "2499",
				"devMint(uint256)": "infinite",
				"getApproved(uint256)": "infinite",
				"isApprovedForAll(address,address)": "infinite",
				"maxMintPerWallet()": "2477",
				"mint(uint256)": "infinite",
				"mintPrice(uint256)": "infinite",
				"mintsLeft()": "infinite",
				"name()": "infinite",
				"owner()": "2583",
				"ownerOf(uint256)": "infinite",
				"renounceOwnership()": "infinite",
				"safeTransferFrom(address,address,uint256)": "infinite",
				"safeTransferFrom(address,address,uint256,bytes)": "infinite",
				"setApprovalForAll(address,bool)": "infinite",
				"setBaseURI(string)": "infinite",
				"stageZeroMintLeft(address)": "5144",
				"supportsInterface(bytes4)": "736",
				"symbol()": "infinite",
				"tokenURI(uint256)": "infinite",
				"totalSupply()": "6894",
				"transferFrom(address,address,uint256)": "infinite",
				"transferOwnership(address)": "infinite",
				"withdrawMoney()": "infinite"
			},
			"internal": {
				"_baseURI()": "infinite",
				"_freeMintsLeft()": "infinite",
				"_getCurrentStage(uint256)": "infinite",
				"_postFreeStageMinted()": "infinite",
				"_refundExtra(uint256)": "infinite",
				"_sequentialUpTo()": "56"
			}
		},
		"methodIdentifiers": {
			"approve(address,uint256)": "095ea7b3",
			"balanceOf(address)": "70a08231",
			"collectionSize()": "45c0f533",
			"currentStage()": "5bf5d54c",
			"devMint(uint256)": "375a069a",
			"getApproved(uint256)": "081812fc",
			"isApprovedForAll(address,address)": "e985e9c5",
			"maxMintPerWallet()": "b228d925",
			"mint(uint256)": "a0712d68",
			"mintPrice(uint256)": "e6a72acf",
			"mintsLeft()": "9d5561e1",
			"name()": "06fdde03",
			"owner()": "8da5cb5b",
			"ownerOf(uint256)": "6352211e",
			"renounceOwnership()": "715018a6",
			"safeTransferFrom(address,address,uint256)": "42842e0e",
			"safeTransferFrom(address,address,uint256,bytes)": "b88d4fde",
			"setApprovalForAll(address,bool)": "a22cb465",
			"setBaseURI(string)": "55f804b3",
			"stageZeroMintLeft(address)": "b9066c0a",
			"supportsInterface(bytes4)": "01ffc9a7",
			"symbol()": "95d89b41",
			"tokenURI(uint256)": "c87b56dd",
			"totalSupply()": "18160ddd",
			"transferFrom(address,address,uint256)": "23b872dd",
			"transferOwnership(address)": "f2fde38b",
			"withdrawMoney()": "ac446002"
		}
	},
	"abi": [
		{
			"inputs": [
				{
					"internalType": "address",
					"name": "initialOwner",
					"type": "address"
				}
			],
			"stateMutability": "nonpayable",
			"type": "constructor"
		},
		{
			"inputs": [],
			"name": "ApprovalCallerNotOwnerNorApproved",
			"type": "error"
		},
		{
			"inputs": [],
			"name": "ApprovalQueryForNonexistentToken",
			"type": "error"
		},
		{
			"inputs": [],
			"name": "BalanceQueryForZeroAddress",
			"type": "error"
		},
		{
			"inputs": [],
			"name": "MintERC2309QuantityExceedsLimit",
			"type": "error"
		},
		{
			"inputs": [],
			"name": "MintToZeroAddress",
			"type": "error"
		},
		{
			"inputs": [],
			"name": "MintZeroQuantity",
			"type": "error"
		},
		{
			"inputs": [],
			"name": "NotCompatibleWithSpotMints",
			"type": "error"
		},
		{
			"inputs": [
				{
					"internalType": "address",
					"name": "owner",
					"type": "address"
				}
			],
			"name": "OwnableInvalidOwner",
			"type": "error"
		},
		{
			"inputs": [
				{
					"internalType": "address",
					"name": "account",
					"type": "address"
				}
			],
			"name": "OwnableUnauthorizedAccount",
			"type": "error"
		},
		{
			"inputs": [],
			"name": "OwnerQueryForNonexistentToken",
			"type": "error"
		},
		{
			"inputs": [],
			"name": "OwnershipNotInitializedForExtraData",
			"type": "error"
		},
		{
			"inputs": [],
			"name": "SequentialMintExceedsLimit",
			"type": "error"
		},
		{
			"inputs": [],
			"name": "SequentialUpToTooSmall",
			"type": "error"
		},
		{
			"inputs": [],
			"name": "SpotMintTokenIdTooSmall",
			"type": "error"
		},
		{
			"inputs": [],
			"name": "TokenAlreadyExists",
			"type": "error"
		},
		{
			"inputs": [],
			"name": "TokenIdsNotStrictlyAscending",
			"type": "error"
		},
		{
			"inputs": [],
			"name": "TransferCallerNotOwnerNorApproved",
			"type": "error"
		},
		{
			"inputs": [],
			"name": "TransferFromIncorrectOwner",
			"type": "error"
		},
		{
			"inputs": [],
			"name": "TransferToNonERC721ReceiverImplementer",
			"type": "error"
		},
		{
			"inputs": [],
			"name": "TransferToZeroAddress",
			"type": "error"
		},
		{
			"inputs": [],
			"name": "URIQueryForNonexistentToken",
			"type": "error"
		},
		{
			"anonymous": false,
			"inputs": [
				{
					"indexed": true,
					"internalType": "address",
					"name": "owner",
					"type": "address"
				},
				{
					"indexed": true,
					"internalType": "address",
					"name": "approved",
					"type": "address"
				},
				{
					"indexed": true,
					"internalType": "uint256",
					"name": "tokenId",
					"type": "uint256"
				}
			],
			"name": "Approval",
			"type": "event"
		},
		{
			"anonymous": false,
			"inputs": [
				{
					"indexed": true,
					"internalType": "address",
					"name": "owner",
					"type": "address"
				},
				{
					"indexed": true,
					"internalType": "address",
					"name": "operator",
					"type": "address"
				},
				{
					"indexed": false,
					"internalType": "bool",
					"name": "approved",
					"type": "bool"
				}
			],
			"name": "ApprovalForAll",
			"type": "event"
		},
		{
			"anonymous": false,
			"inputs": [
				{
					"indexed": true,
					"internalType": "uint256",
					"name": "fromTokenId",
					"type": "uint256"
				},
				{
					"indexed": false,
					"internalType": "uint256",
					"name": "toTokenId",
					"type": "uint256"
				},
				{
					"indexed": true,
					"internalType": "address",
					"name": "from",
					"type": "address"
				},
				{
					"indexed": true,
					"internalType": "address",
					"name": "to",
					"type": "address"
				}
			],
			"name": "ConsecutiveTransfer",
			"type": "event"
		},
		{
			"anonymous": false,
			"inputs": [
				{
					"indexed": true,
					"internalType": "address",
					"name": "previousOwner",
					"type": "address"
				},
				{
					"indexed": true,
					"internalType": "address",
					"name": "newOwner",
					"type": "address"
				}
			],
			"name": "OwnershipTransferred",
			"type": "event"
		},
		{
			"anonymous": false,
			"inputs": [
				{
					"indexed": true,
					"internalType": "address",
					"name": "from",
					"type": "address"
				},
				{
					"indexed": true,
					"internalType": "address",
					"name": "to",
					"type": "address"
				},
				{
					"indexed": true,
					"internalType": "uint256",
					"name": "tokenId",
					"type": "uint256"
				}
			],
			"name": "Transfer",
			"type": "event"
		},
		{
			"inputs": [
				{
					"internalType": "address",
					"name": "to",
					"type": "address"
				},
				{
					"internalType": "uint256",
					"name": "tokenId",
					"type": "uint256"
				}
			],
			"name": "approve",
			"outputs": [],
			"stateMutability": "payable",
			"type": "function"
		},
		{
			"inputs": [
				{
					"internalType": "address",
					"name": "owner",
					"type": "address"
				}
			],
			"name": "balanceOf",
			"outputs": [
				{
					"internalType": "uint256",
					"name": "",
					"type": "uint256"
				}
			],
			"stateMutability": "view",
			"type": "function"
		},
		{
			"inputs": [],
			"name": "collectionSize",
			"outputs": [
				{
					"internalType": "uint256",
					"name": "",
					"type": "uint256"
				}
			],
			"stateMutability": "view",
			"type": "function"
		},
		{
			"inputs": [],
			"name": "currentStage",
			"outputs": [
				{
					"internalType": "uint256",
					"name": "",
					"type": "uint256"
				}
			],
			"stateMutability": "view",
			"type": "function"
		},
		{
			"inputs": [
				{
					"internalType": "uint256",
					"name": "quantity",
					"type": "uint256"
				}
			],
			"name": "devMint",
			"outputs": [],
			"stateMutability": "nonpayable",
			"type": "function"
		},
		{
			"inputs": [
				{
					"internalType": "uint256",
					"name": "tokenId",
					"type": "uint256"
				}
			],
			"name": "getApproved",
			"outputs": [
				{
					"internalType": "address",
					"name": "",
					"type": "address"
				}
			],
			"stateMutability": "view",
			"type": "function"
		},
		{
			"inputs": [
				{
					"internalType": "address",
					"name": "owner",
					"type": "address"
				},
				{
					"internalType": "address",
					"name": "operator",
					"type": "address"
				}
			],
			"name": "isApprovedForAll",
			"outputs": [
				{
					"internalType": "bool",
					"name": "",
					"type": "bool"
				}
			],
			"stateMutability": "view",
			"type": "function"
		},
		{
			"inputs": [],
			"name": "maxMintPerWallet",
			"outputs": [
				{
					"internalType": "uint256",
					"name": "",
					"type": "uint256"
				}
			],
			"stateMutability": "view",
			"type": "function"
		},
		{
			"inputs": [
				{
					"internalType": "uint256",
					"name": "quantity",
					"type": "uint256"
				}
			],
			"name": "mint",
			"outputs": [],
			"stateMutability": "payable",
			"type": "function"
		},
		{
			"inputs": [
				{
					"internalType": "uint256",
					"name": "quantity",
					"type": "uint256"
				}
			],
			"name": "mintPrice",
			"outputs": [
				{
					"internalType": "uint256",
					"name": "",
					"type": "uint256"
				}
			],
			"stateMutability": "view",
			"type": "function"
		},
		{
			"inputs": [],
			"name": "mintsLeft",
			"outputs": [
				{
					"internalType": "uint256",
					"name": "",
					"type": "uint256"
				}
			],
			"stateMutability": "view",
			"type": "function"
		},
		{
			"inputs": [],
			"name": "name",
			"outputs": [
				{
					"internalType": "string",
					"name": "",
					"type": "string"
				}
			],
			"stateMutability": "view",
			"type": "function"
		},
		{
			"inputs": [],
			"name": "owner",
			"outputs": [
				{
					"internalType": "address",
					"name": "",
					"type": "address"
				}
			],
			"stateMutability": "view",
			"type": "function"
		},
		{
			"inputs": [
				{
					"internalType": "uint256",
					"name": "tokenId",
					"type": "uint256"
				}
			],
			"name": "ownerOf",
			"outputs": [
				{
					"internalType": "address",
					"name": "",
					"type": "address"
				}
			],
			"stateMutability": "view",
			"type": "function"
		},
		{
			"inputs": [],
			"name": "renounceOwnership",
			"outputs": [],
			"stateMutability": "nonpayable",
			"type": "function"
		},
		{
			"inputs": [
				{
					"internalType": "address",
					"name": "from",
					"type": "address"
				},
				{
					"internalType": "address",
					"name": "to",
					"type": "address"
				},
				{
					"internalType": "uint256",
					"name": "tokenId",
					"type": "uint256"
				}
			],
			"name": "safeTransferFrom",
			"outputs": [],
			"stateMutability": "payable",
			"type": "function"
		},
		{
			"inputs": [
				{
					"internalType": "address",
					"name": "from",
					"type": "address"
				},
				{
					"internalType": "address",
					"name": "to",
					"type": "address"
				},
				{
					"internalType": "uint256",
					"name": "tokenId",
					"type": "uint256"
				},
				{
					"internalType": "bytes",
					"name": "_data",
					"type": "bytes"
				}
			],
			"name": "safeTransferFrom",
			"outputs": [],
			"stateMutability": "payable",
			"type": "function"
		},
		{
			"inputs": [
				{
					"internalType": "address",
					"name": "operator",
					"type": "address"
				},
				{
					"internalType": "bool",
					"name": "approved",
					"type": "bool"
				}
			],
			"name": "setApprovalForAll",
			"outputs": [],
			"stateMutability": "nonpayable",
			"type": "function"
		},
		{
			"inputs": [
				{
					"internalType": "string",
					"name": "newURI",
					"type": "string"
				}
			],
			"name": "setBaseURI",
			"outputs": [],
			"stateMutability": "nonpayable",
			"type": "function"
		},
		{
			"inputs": [
				{
					"internalType": "address",
					"name": "minter",
					"type": "address"
				}
			],
			"name": "stageZeroMintLeft",
			"outputs": [
				{
					"internalType": "uint256",
					"name": "",
					"type": "uint256"
				}
			],
			"stateMutability": "view",
			"type": "function"
		},
		{
			"inputs": [
				{
					"internalType": "bytes4",
					"name": "interfaceId",
					"type": "bytes4"
				}
			],
			"name": "supportsInterface",
			"outputs": [
				{
					"internalType": "bool",
					"name": "",
					"type": "bool"
				}
			],
			"stateMutability": "view",
			"type": "function"
		},
		{
			"inputs": [],
			"name": "symbol",
			"outputs": [
				{
					"internalType": "string",
					"name": "",
					"type": "string"
				}
			],
			"stateMutability": "view",
			"type": "function"
		},
		{
			"inputs": [
				{
					"internalType": "uint256",
					"name": "tokenId",
					"type": "uint256"
				}
			],
			"name": "tokenURI",
			"outputs": [
				{
					"internalType": "string",
					"name": "",
					"type": "string"
				}
			],
			"stateMutability": "view",
			"type": "function"
		},
		{
			"inputs": [],
			"name": "totalSupply",
			"outputs": [
				{
					"internalType": "uint256",
					"name": "result",
					"type": "uint256"
				}
			],
			"stateMutability": "view",
			"type": "function"
		},
		{
			"inputs": [
				{
					"internalType": "address",
					"name": "from",
					"type": "address"
				},
				{
					"internalType": "address",
					"name": "to",
					"type": "address"
				},
				{
					"internalType": "uint256",
					"name": "tokenId",
					"type": "uint256"
				}
			],
			"name": "transferFrom",
			"outputs": [],
			"stateMutability": "payable",
			"type": "function"
		},
		{
			"inputs": [
				{
					"internalType": "address",
					"name": "newOwner",
					"type": "address"
				}
			],
			"name": "transferOwnership",
			"outputs": [],
			"stateMutability": "nonpayable",
			"type": "function"
		},
		{
			"inputs": [],
			"name": "withdrawMoney",
			"outputs": [],
			"stateMutability": "nonpayable",
			"type": "function"
		}
	]
}