{
	"data": {
		"bytecode": {
			"linkReferences": {},
			"object": "608060405260405180602001604052805f815250600a908161002191906104de565b505f600b55348015610031575f80fd5b50604051612e7b380380612e7b8339818101604052810190610053919061060b565b806040518060400160405280600b81526020017f4e6577204f70656e7365610000000000000000000000000000000000000000008152506040518060400160405280600381526020017f4e4f53000000000000000000000000000000000000000000000000000000000081525081600290816100cf91906104de565b5080600390816100df91906104de565b506100ee6101b460201b60201c565b5f819055506101016101b460201b60201c565b61010f6101bc60201b60201c565b101561012c5761012b63fed8210f60e01b6101d060201b60201c565b5b50505f73ffffffffffffffffffffffffffffffffffffffff168173ffffffffffffffffffffffffffffffffffffffff160361019e575f6040517f1e4fbdf70000000000000000000000000000000000000000000000000000000081526004016101959190610645565b60405180910390fd5b6101ad816101d860201b60201c565b505061065e565b5f6001905090565b5f6101cb61029b60201b60201c565b905090565b805f5260045ffd5b5f60095f9054906101000a900473ffffffffffffffffffffffffffffffffffffffff1690508160095f6101000a81548173ffffffffffffffffffffffffffffffffffffffff021916908373ffffffffffffffffffffffffffffffffffffffff1602179055508173ffffffffffffffffffffffffffffffffffffffff168173ffffffffffffffffffffffffffffffffffffffff167f8be0079c531659141344cd1fd0a4f28419497f9722a3daafe3b4186f6b6457e060405160405180910390a35050565b5f617530905090565b5f81519050919050565b7f4e487b71000000000000000000000000000000000000000000000000000000005f52604160045260245ffd5b7f4e487b71000000000000000000000000000000000000000000000000000000005f52602260045260245ffd5b5f600282049050600182168061031f57607f821691505b602082108103610332576103316102db565b5b50919050565b5f819050815f5260205f209050919050565b5f6020601f8301049050919050565b5f82821b905092915050565b5f600883026103947fffffffffffffffffffffffffffffffffffffffffffffffffffffffffffffffff82610359565b61039e8683610359565b95508019841693508086168417925050509392505050565b5f819050919050565b5f819050919050565b5f6103e26103dd6103d8846103b6565b6103bf565b6103b6565b9050919050565b5f819050919050565b6103fb836103c8565b61040f610407826103e9565b848454610365565b825550505050565b5f90565b610423610417565b61042e8184846103f2565b505050565b5b81811015610451576104465f8261041b565b600181019050610434565b5050565b601f8211156104965761046781610338565b6104708461034a565b8101602085101561047f578190505b61049361048b8561034a565b830182610433565b50505b505050565b5f82821c905092915050565b5f6104b65f198460080261049b565b1980831691505092915050565b5f6104ce83836104a7565b9150826002028217905092915050565b6104e7826102a4565b67ffffffffffffffff811115610500576104ff6102ae565b5b61050a8254610308565b610515828285610455565b5f60209050601f831160018114610546575f8415610534578287015190505b61053e85826104c3565b8655506105a5565b601f19841661055486610338565b5f5b8281101561057b57848901518255600182019150602085019450602081019050610556565b868310156105985784890151610594601f8916826104a7565b8355505b6001600288020188555050505b505050505050565b5f80fd5b5f73ffffffffffffffffffffffffffffffffffffffff82169050919050565b5f6105da826105b1565b9050919050565b6105ea816105d0565b81146105f4575f80fd5b50565b5f81519050610605816105e1565b92915050565b5f602082840312156106205761061f6105ad565b5b5f61062d848285016105f7565b91505092915050565b61063f816105d0565b82525050565b5f6020820190506106585f830184610636565b92915050565b6128108061066b5f395ff3fe608060405260043610610165575f3560e01c8063715018a6116100d0578063ac44600211610089578063c87b56dd11610063578063c87b56dd146104af578063e6a72acf146104eb578063e985e9c514610527578063f2fde38b1461056357610165565b8063ac44600214610453578063b228d92514610469578063b88d4fde1461049357610165565b8063715018a61461037b5780638da5cb5b1461039157806395d89b41146103bb5780639d5561e1146103e5578063a0712d681461040f578063a22cb4651461042b57610165565b8063375a069a11610122578063375a069a1461026d57806342842e0e1461029557806345c0f533146102b157806355f804b3146102db5780636352211e1461030357806370a082311461033f57610165565b806301ffc9a71461016957806306fdde03146101a5578063081812fc146101cf578063095ea7b31461020b57806318160ddd1461022757806323b872dd14610251575b5f80fd5b348015610174575f80fd5b5061018f600480360381019061018a9190611a77565b61058b565b60405161019c9190611abc565b60405180910390f35b3480156101b0575f80fd5b506101b961061c565b6040516101c69190611b45565b60405180910390f35b3480156101da575f80fd5b506101f560048036038101906101f09190611b98565b6106ac565b6040516102029190611c02565b60405180910390f35b61022560048036038101906102209190611c45565b610705565b005b348015610232575f80fd5b5061023b610715565b6040516102489190611c92565b60405180910390f35b61026b60048036038101906102669190611cab565b610760565b005b348015610278575f80fd5b50610293600480360381019061028e9190611b98565b6109e1565b005b6102af60048036038101906102aa9190611cab565b610a41565b005b3480156102bc575f80fd5b506102c5610a60565b6040516102d29190611c92565b60405180910390f35b3480156102e6575f80fd5b5061030160048036038101906102fc9190611d5c565b610a69565b005b34801561030e575f80fd5b5061032960048036038101906103249190611b98565b610a8f565b6040516103369190611c02565b60405180910390f35b34801561034a575f80fd5b5061036560048036038101906103609190611da7565b610aa0565b6040516103729190611c92565b60405180910390f35b348015610386575f80fd5b5061038f610b34565b005b34801561039c575f80fd5b506103a5610b47565b6040516103b29190611c02565b60405180910390f35b3480156103c6575f80fd5b506103cf610b6f565b6040516103dc9190611b45565b60405180910390f35b3480156103f0575f80fd5b506103f9610bff565b6040516104069190611c92565b60405180910390f35b61042960048036038101906104249190611b98565b610c1a565b005b348015610436575f80fd5b50610451600480360381019061044c9190611dfc565b610ccc565b005b34801561045e575f80fd5b50610467610dd2565b005b348015610474575f80fd5b5061047d610ec7565b60405161048a9190611c92565b60405180910390f35b6104ad60048036038101906104a89190611f62565b610ecf565b005b3480156104ba575f80fd5b506104d560048036038101906104d09190611b98565b610f20565b6040516104e29190611b45565b60405180910390f35b3480156104f6575f80fd5b50610511600480360381019061050c9190611b98565b610fc4565b60405161051e9190611c92565b60405180910390f35b348015610532575f80fd5b5061054d60048036038101906105489190611fe2565b61100a565b60405161055a9190611abc565b60405180910390f35b34801561056e575f80fd5b5061058960048036038101906105849190611da7565b611098565b005b5f6301ffc9a760e01b827bffffffffffffffffffffffffffffffffffffffffffffffffffffffff191614806105e557506380ac58cd60e01b827bffffffffffffffffffffffffffffffffffffffffffffffffffffffff1916145b806106155750635b5e139f60e01b827bffffffffffffffffffffffffffffffffffffffffffffffffffffffff1916145b9050919050565b60606002805461062b9061204d565b80601f01602080910402602001604051908101604052809291908181526020018280546106579061204d565b80156106a25780601f10610679576101008083540402835291602001916106a2565b820191905f5260205f20905b81548152906001019060200180831161068557829003601f168201915b5050505050905090565b5f6106b68261111c565b6106cb576106ca63cf4700e460e01b6111bf565b5b60065f8381526020019081526020015f205f015f9054906101000a900473ffffffffffffffffffffffffffffffffffffffff169050919050565b610711828260016111c7565b5050565b5f61071e6112f1565b6001545f54030390507fffffffffffffffffffffffffffffffffffffffffffffffffffffffffffffffff6107506112f9565b1461075d57600854810190505b90565b5f61076a82611307565b90505f8473ffffffffffffffffffffffffffffffffffffffff169050808273ffffffffffffffffffffffffffffffffffffffff16146107b4576107b363a114810060e01b6111bf565b5b5f806107bf85611416565b915091506107eb81846107d0611439565b73ffffffffffffffffffffffffffffffffffffffff16611440565b61081657610800876107fb611439565b61100a565b610815576108146359c896be60e01b6111bf565b5b5b6108238787876001611451565b801561082d575f82555b60055f8873ffffffffffffffffffffffffffffffffffffffff1673ffffffffffffffffffffffffffffffffffffffff1681526020019081526020015f205f8154600190039190508190555060055f8773ffffffffffffffffffffffffffffffffffffffff1673ffffffffffffffffffffffffffffffffffffffff1681526020019081526020015f205f8154600101919050819055506108f5866108d1898988611457565b7c02000000000000000000000000000000000000000000000000000000001761147e565b60045f8781526020019081526020015f20819055505f7c0200000000000000000000000000000000000000000000000000000000851603610971575f6001860190505f60045f8381526020019081526020015f20540361096f575f54811461096e578460045f8381526020019081526020015f20819055505b5b505b5f8673ffffffffffffffffffffffffffffffffffffffff1690508581857fddf252ad1be2c89b69c2b068fc378daa952ba7f163c4a11628f55a4df523b3ef5f80a45f81036109ca576109c963ea553b3460e01b6111bf565b5b6109d788888860016114a8565b5050505050505050565b6109e96114ae565b60326109f433611535565b10610a34576040517f08c379a0000000000000000000000000000000000000000000000000000000008152600401610a2b906120c7565b60405180910390fd5b610a3e3382611589565b50565b610a5b83838360405180602001604052805f815250610ecf565b505050565b5f617530905090565b610a716114ae565b6001600b819055508181600a9182610a8a92919061228c565b505050565b5f610a9982611307565b9050919050565b5f8073ffffffffffffffffffffffffffffffffffffffff168273ffffffffffffffffffffffffffffffffffffffff1603610ae557610ae4638f4eb60460e01b6111bf565b5b67ffffffffffffffff60055f8473ffffffffffffffffffffffffffffffffffffffff1673ffffffffffffffffffffffffffffffffffffffff1681526020019081526020015f2054169050919050565b610b3c6114ae565b610b455f6116e7565b565b5f60095f9054906101000a900473ffffffffffffffffffffffffffffffffffffffff16905090565b606060038054610b7e9061204d565b80601f0160208091040260200160405190810160405280929190818152602001828054610baa9061204d565b8015610bf55780601f10610bcc57610100808354040283529160200191610bf5565b820191905f5260205f20905b815481529060010190602001808311610bd857829003601f168201915b5050505050905090565b5f610c0933611535565b600a610c159190612386565b905090565b5f81118015610c305750610c2c610bff565b8111155b610c6f576040517f08c379a0000000000000000000000000000000000000000000000000000000008152600401610c6690612403565b60405180910390fd5b5f610c7982610fc4565b905080341015610cbe576040517f08c379a0000000000000000000000000000000000000000000000000000000008152600401610cb59061246b565b60405180910390fd5b610cc83383611589565b5050565b8060075f610cd8611439565b73ffffffffffffffffffffffffffffffffffffffff1673ffffffffffffffffffffffffffffffffffffffff1681526020019081526020015f205f8473ffffffffffffffffffffffffffffffffffffffff1673ffffffffffffffffffffffffffffffffffffffff1681526020019081526020015f205f6101000a81548160ff0219169083151502179055508173ffffffffffffffffffffffffffffffffffffffff16610d81611439565b73ffffffffffffffffffffffffffffffffffffffff167f17307eab39ab6107e8899845ad3d59bd9653f200f220920489ca2b5937696c3183604051610dc69190611abc565b60405180910390a35050565b610dda6114ae565b5f4711610e1c576040517f08c379a0000000000000000000000000000000000000000000000000000000008152600401610e13906124d3565b60405180910390fd5b5f3373ffffffffffffffffffffffffffffffffffffffff1647604051610e419061251e565b5f6040518083038185875af1925050503d805f8114610e7b576040519150601f19603f3d011682016040523d82523d5f602084013e610e80565b606091505b5050905080610ec4576040517f08c379a0000000000000000000000000000000000000000000000000000000008152600401610ebb9061257c565b60405180910390fd5b50565b5f600a905090565b610eda848484610760565b5f8373ffffffffffffffffffffffffffffffffffffffff163b14610f1a57610f04848484846117aa565b610f1957610f1863d1a57ed660e01b6111bf565b5b5b50505050565b60605f600b5403610f4b576040518060a00160405280606d815260200161276e606d91399050610fbf565b610f548261111c565b610f6957610f6863a14c4b5060e01b6111bf565b5b5f610f726118d4565b90505f815103610f905760405180602001604052805f815250610fbb565b80610f9a84611964565b604051602001610fab9291906125d4565b6040516020818303038152906040525b9150505b919050565b5f600a82610fd133611535565b610fdb91906125f7565b1115610ff0576618c2e7081226c99050611005565b655af3107a400082611002919061262a565b90505b919050565b5f60075f8473ffffffffffffffffffffffffffffffffffffffff1673ffffffffffffffffffffffffffffffffffffffff1681526020019081526020015f205f8373ffffffffffffffffffffffffffffffffffffffff1673ffffffffffffffffffffffffffffffffffffffff1681526020019081526020015f205f9054906101000a900460ff16905092915050565b6110a06114ae565b5f73ffffffffffffffffffffffffffffffffffffffff168173ffffffffffffffffffffffffffffffffffffffff1603611110575f6040517f1e4fbdf70000000000000000000000000000000000000000000000000000000081526004016111079190611c02565b60405180910390fd5b611119816116e7565b50565b5f816111266112f1565b116111b9576111336112f9565b82111561115b5761115460045f8481526020019081526020015f20546119b3565b90506111ba565b5f548210156111b8575f5b5f60045f8581526020019081526020015f205491508103611192578261118b9061266b565b9250611166565b5f7c01000000000000000000000000000000000000000000000000000000008216149150505b5b5b919050565b805f5260045ffd5b5f6111d183610a8f565b905081801561121357508073ffffffffffffffffffffffffffffffffffffffff166111fa611439565b73ffffffffffffffffffffffffffffffffffffffff1614155b1561123f5761122981611224611439565b61100a565b61123e5761123d63cfb3b94260e01b6111bf565b5b5b8360065f8581526020019081526020015f205f015f6101000a81548173ffffffffffffffffffffffffffffffffffffffff021916908373ffffffffffffffffffffffffffffffffffffffff160217905550828473ffffffffffffffffffffffffffffffffffffffff168273ffffffffffffffffffffffffffffffffffffffff167f8c5be1e5ebec7d5bd14f71427d1e84f3dd0314c0f7b2291e5b200ac8c7c3b92560405160405180910390a450505050565b5f6001905090565b5f611302610a60565b905090565b5f816113116112f1565b116114005760045f8381526020019081526020015f205490506113326112f9565b82111561135757611342816119b3565b6114115761135663df2d9b4260e01b6111bf565b5b5f81036113d8575f5482106113775761137663df2d9b4260e01b6111bf565b5b5b60045f836001900393508381526020019081526020015f205490505f8103156113d3575f7c010000000000000000000000000000000000000000000000000000000082160315611411576113d263df2d9b4260e01b6111bf565b5b611378565b5f7c010000000000000000000000000000000000000000000000000000000082160315611411575b61141063df2d9b4260e01b6111bf565b5b919050565b5f805f60065f8581526020019081526020015f2090508092508254915050915091565b5f33905090565b5f8382148383141790509392505050565b50505050565b5f8060e883901c905060e861146d8686846119f3565b62ffffff16901b9150509392505050565b5f73ffffffffffffffffffffffffffffffffffffffff83169250814260a01b178317905092915050565b50505050565b6114b66119fb565b73ffffffffffffffffffffffffffffffffffffffff166114d4610b47565b73ffffffffffffffffffffffffffffffffffffffff1614611533576114f76119fb565b6040517f118cdaa700000000000000000000000000000000000000000000000000000000815260040161152a9190611c02565b60405180910390fd5b565b5f67ffffffffffffffff604060055f8573ffffffffffffffffffffffffffffffffffffffff1673ffffffffffffffffffffffffffffffffffffffff1681526020019081526020015f2054901c169050919050565b5f805490505f82036115a6576115a563b562e8dd60e01b6111bf565b5b6115b25f848385611451565b6115d0836115c15f865f611457565b6115ca85611a02565b1761147e565b60045f8381526020019081526020015f2081905550600160406001901b17820260055f8573ffffffffffffffffffffffffffffffffffffffff1673ffffffffffffffffffffffffffffffffffffffff1681526020019081526020015f205f82825401925050819055505f8373ffffffffffffffffffffffffffffffffffffffff1690505f810361166b5761166a632e07630060e01b6111bf565b5b5f83830190505f83905061167d6112f9565b600183031115611698576116976381647e3a60e01b6111bf565b5b5b80835f7fddf252ad1be2c89b69c2b068fc378daa952ba7f163c4a11628f55a4df523b3ef5f80a481816001019150810361169957815f819055505050506116e25f8483856114a8565b505050565b5f60095f9054906101000a900473ffffffffffffffffffffffffffffffffffffffff1690508160095f6101000a81548173ffffffffffffffffffffffffffffffffffffffff021916908373ffffffffffffffffffffffffffffffffffffffff1602179055508173ffffffffffffffffffffffffffffffffffffffff168173ffffffffffffffffffffffffffffffffffffffff167f8be0079c531659141344cd1fd0a4f28419497f9722a3daafe3b4186f6b6457e060405160405180910390a35050565b5f8373ffffffffffffffffffffffffffffffffffffffff1663150b7a026117cf611439565b8786866040518563ffffffff1660e01b81526004016117f194939291906126e4565b6020604051808303815f875af192505050801561182c57506040513d601f19601f820116820180604052508101906118299190612742565b60015b611881573d805f811461185a576040519150601f19603f3d011682016040523d82523d5f602084013e61185f565b606091505b505f8151036118795761187863d1a57ed660e01b6111bf565b5b805181602001fd5b63150b7a0260e01b7bffffffffffffffffffffffffffffffffffffffffffffffffffffffff1916817bffffffffffffffffffffffffffffffffffffffffffffffffffffffff191614915050949350505050565b6060600a80546118e39061204d565b80601f016020809104026020016040519081016040528092919081815260200182805461190f9061204d565b801561195a5780601f106119315761010080835404028352916020019161195a565b820191905f5260205f20905b81548152906001019060200180831161193d57829003601f168201915b5050505050905090565b606060a060405101806040526020810391505f825281835b60011561199e57600184039350600a81066030018453600a810490508061197c575b50828103602084039350808452505050919050565b5f7c0100000000000000000000000000000000000000000000000000000000821673ffffffffffffffffffffffffffffffffffffffff8316119050919050565b5f9392505050565b5f33905090565b5f6001821460e11b9050919050565b5f604051905090565b5f80fd5b5f80fd5b5f7fffffffff0000000000000000000000000000000000000000000000000000000082169050919050565b611a5681611a22565b8114611a60575f80fd5b50565b5f81359050611a7181611a4d565b92915050565b5f60208284031215611a8c57611a8b611a1a565b5b5f611a9984828501611a63565b91505092915050565b5f8115159050919050565b611ab681611aa2565b82525050565b5f602082019050611acf5f830184611aad565b92915050565b5f81519050919050565b5f82825260208201905092915050565b8281835e5f83830152505050565b5f601f19601f8301169050919050565b5f611b1782611ad5565b611b218185611adf565b9350611b31818560208601611aef565b611b3a81611afd565b840191505092915050565b5f6020820190508181035f830152611b5d8184611b0d565b905092915050565b5f819050919050565b611b7781611b65565b8114611b81575f80fd5b50565b5f81359050611b9281611b6e565b92915050565b5f60208284031215611bad57611bac611a1a565b5b5f611bba84828501611b84565b91505092915050565b5f73ffffffffffffffffffffffffffffffffffffffff82169050919050565b5f611bec82611bc3565b9050919050565b611bfc81611be2565b82525050565b5f602082019050611c155f830184611bf3565b92915050565b611c2481611be2565b8114611c2e575f80fd5b50565b5f81359050611c3f81611c1b565b92915050565b5f8060408385031215611c5b57611c5a611a1a565b5b5f611c6885828601611c31565b9250506020611c7985828601611b84565b9150509250929050565b611c8c81611b65565b82525050565b5f602082019050611ca55f830184611c83565b92915050565b5f805f60608486031215611cc257611cc1611a1a565b5b5f611ccf86828701611c31565b9350506020611ce086828701611c31565b9250506040611cf186828701611b84565b9150509250925092565b5f80fd5b5f80fd5b5f80fd5b5f8083601f840112611d1c57611d1b611cfb565b5b8235905067ffffffffffffffff811115611d3957611d38611cff565b5b602083019150836001820283011115611d5557611d54611d03565b5b9250929050565b5f8060208385031215611d7257611d71611a1a565b5b5f83013567ffffffffffffffff811115611d8f57611d8e611a1e565b5b611d9b85828601611d07565b92509250509250929050565b5f60208284031215611dbc57611dbb611a1a565b5b5f611dc984828501611c31565b91505092915050565b611ddb81611aa2565b8114611de5575f80fd5b50565b5f81359050611df681611dd2565b92915050565b5f8060408385031215611e1257611e11611a1a565b5b5f611e1f85828601611c31565b9250506020611e3085828601611de8565b9150509250929050565b5f80fd5b7f4e487b71000000000000000000000000000000000000000000000000000000005f52604160045260245ffd5b611e7482611afd565b810181811067ffffffffffffffff82111715611e9357611e92611e3e565b5b80604052505050565b5f611ea5611a11565b9050611eb18282611e6b565b919050565b5f67ffffffffffffffff821115611ed057611ecf611e3e565b5b611ed982611afd565b9050602081019050919050565b828183375f83830152505050565b5f611f06611f0184611eb6565b611e9c565b905082815260208101848484011115611f2257611f21611e3a565b5b611f2d848285611ee6565b509392505050565b5f82601f830112611f4957611f48611cfb565b5b8135611f59848260208601611ef4565b91505092915050565b5f805f8060808587031215611f7a57611f79611a1a565b5b5f611f8787828801611c31565b9450506020611f9887828801611c31565b9350506040611fa987828801611b84565b925050606085013567ffffffffffffffff811115611fca57611fc9611a1e565b5b611fd687828801611f35565b91505092959194509250565b5f8060408385031215611ff857611ff7611a1a565b5b5f61200585828601611c31565b925050602061201685828601611c31565b9150509250929050565b7f4e487b71000000000000000000000000000000000000000000000000000000005f52602260045260245ffd5b5f600282049050600182168061206457607f821691505b60208210810361207757612076612020565b5b50919050565b7f6e6f20646576206d696e74206c656674000000000000000000000000000000005f82015250565b5f6120b1601083611adf565b91506120bc8261207d565b602082019050919050565b5f6020820190508181035f8301526120de816120a5565b9050919050565b5f82905092915050565b5f819050815f5260205f209050919050565b5f6020601f8301049050919050565b5f82821b905092915050565b5f6008830261214b7fffffffffffffffffffffffffffffffffffffffffffffffffffffffffffffffff82612110565b6121558683612110565b95508019841693508086168417925050509392505050565b5f819050919050565b5f61219061218b61218684611b65565b61216d565b611b65565b9050919050565b5f819050919050565b6121a983612176565b6121bd6121b582612197565b84845461211c565b825550505050565b5f90565b6121d16121c5565b6121dc8184846121a0565b505050565b5b818110156121ff576121f45f826121c9565b6001810190506121e2565b5050565b601f82111561224457612215816120ef565b61221e84612101565b8101602085101561222d578190505b61224161223985612101565b8301826121e1565b50505b505050565b5f82821c905092915050565b5f6122645f1984600802612249565b1980831691505092915050565b5f61227c8383612255565b9150826002028217905092915050565b61229683836120e5565b67ffffffffffffffff8111156122af576122ae611e3e565b5b6122b9825461204d565b6122c4828285612203565b5f601f8311600181146122f1575f84156122df578287013590505b6122e98582612271565b865550612350565b601f1984166122ff866120ef565b5f5b8281101561232657848901358255600182019150602085019450602081019050612301565b86831015612343578489013561233f601f891682612255565b8355505b6001600288020188555050505b50505050505050565b7f4e487b71000000000000000000000000000000000000000000000000000000005f52601160045260245ffd5b5f61239082611b65565b915061239b83611b65565b92508282039050818111156123b3576123b2612359565b5b92915050565b7f746f6f206d616e790000000000000000000000000000000000000000000000005f82015250565b5f6123ed600883611adf565b91506123f8826123b9565b602082019050919050565b5f6020820190508181035f83015261241a816123e1565b9050919050565b7f62616c616e6365206973206c6f770000000000000000000000000000000000005f82015250565b5f612455600e83611adf565b915061246082612421565b602082019050919050565b5f6020820190508181035f83015261248281612449565b9050919050565b7f6e6f7468696e67206c65667420746f20776974686472617700000000000000005f82015250565b5f6124bd601883611adf565b91506124c882612489565b602082019050919050565b5f6020820190508181035f8301526124ea816124b1565b9050919050565b5f81905092915050565b50565b5f6125095f836124f1565b9150612514826124fb565b5f82019050919050565b5f612528826124fe565b9150819050919050565b7f5472616e73666572206661696c65642e000000000000000000000000000000005f82015250565b5f612566601083611adf565b915061257182612532565b602082019050919050565b5f6020820190508181035f8301526125938161255a565b9050919050565b5f81905092915050565b5f6125ae82611ad5565b6125b8818561259a565b93506125c8818560208601611aef565b80840191505092915050565b5f6125df82856125a4565b91506125eb82846125a4565b91508190509392505050565b5f61260182611b65565b915061260c83611b65565b925082820190508082111561262457612623612359565b5b92915050565b5f61263482611b65565b915061263f83611b65565b925082820261264d81611b65565b9150828204841483151761266457612663612359565b5b5092915050565b5f61267582611b65565b91505f820361268757612686612359565b5b600182039050919050565b5f81519050919050565b5f82825260208201905092915050565b5f6126b682612692565b6126c0818561269c565b93506126d0818560208601611aef565b6126d981611afd565b840191505092915050565b5f6080820190506126f75f830187611bf3565b6127046020830186611bf3565b6127116040830185611c83565b818103606083015261272381846126ac565b905095945050505050565b5f8151905061273c81611a4d565b92915050565b5f6020828403121561275757612756611a1a565b5b5f6127648482850161272e565b9150509291505056fe68747470733a2f2f7261772e67697468756275736572636f6e74656e742e636f6d2f6261736564636174732f6261736564677574746572636174732f633464313331643239633066626566353932353537333234373537383762303836343462383063612f4e4f532e6a736f6ea2646970667358221220f2e22d1db70bc336a4b0b03e9e1c31052951e2326e29f6e3863ca6538f173b8664736f6c634300081a0033",
			"opcodes": "PUSH1 0x80 PUSH1 0x40 MSTORE PUSH1 0x40 MLOAD DUP1 PUSH1 0x20 ADD PUSH1 0x40 MSTORE DUP1 PUSH0 DUP2 MSTORE POP PUSH1 0xA SWAP1 DUP2 PUSH2 0x21 SWAP2 SWAP1 PUSH2 0x4DE JUMP JUMPDEST POP PUSH0 PUSH1 0xB SSTORE CALLVALUE DUP1 ISZERO PUSH2 0x31 JUMPI PUSH0 DUP1 REVERT JUMPDEST POP PUSH1 0x40 MLOAD PUSH2 0x2E7B CODESIZE SUB DUP1 PUSH2 0x2E7B DUP4 CODECOPY DUP2 DUP2 ADD PUSH1 0x40 MSTORE DUP2 ADD SWAP1 PUSH2 0x53 SWAP2 SWAP1 PUSH2 0x60B JUMP JUMPDEST DUP1 PUSH1 0x40 MLOAD DUP1 PUSH1 0x40 ADD PUSH1 0x40 MSTORE DUP1 PUSH1 0xB DUP2 MSTORE PUSH1 0x20 ADD PUSH32 0x4E6577204F70656E736561000000000000000000000000000000000000000000 DUP2 MSTORE POP PUSH1 0x40 MLOAD DUP1 PUSH1 0x40 ADD PUSH1 0x40 MSTORE DUP1 PUSH1 0x3 DUP2 MSTORE PUSH1 0x20 ADD PUSH32 0x4E4F530000000000000000000000000000000000000000000000000000000000 DUP2 MSTORE POP DUP2 PUSH1 0x2 SWAP1 DUP2 PUSH2 0xCF SWAP2 SWAP1 PUSH2 0x4DE JUMP JUMPDEST POP DUP1 PUSH1 0x3 SWAP1 DUP2 PUSH2 0xDF SWAP2 SWAP1 PUSH2 0x4DE JUMP JUMPDEST POP PUSH2 0xEE PUSH2 0x1B4 PUSH1 0x20 SHL PUSH1 0x20 SHR JUMP JUMPDEST PUSH0 DUP2 SWAP1 SSTORE POP PUSH2 0x101 PUSH2 0x1B4 PUSH1 0x20 SHL PUSH1 0x20 SHR JUMP JUMPDEST PUSH2 0x10F PUSH2 0x1BC PUSH1 0x20 SHL PUSH1 0x20 SHR JUMP JUMPDEST LT ISZERO PUSH2 0x12C JUMPI PUSH2 0x12B PUSH4 0xFED8210F PUSH1 0xE0 SHL PUSH2 0x1D0 PUSH1 0x20 SHL PUSH1 0x20 SHR JUMP JUMPDEST JUMPDEST POP POP PUSH0 PUSH20 0xFFFFFFFFFFFFFFFFFFFFFFFFFFFFFFFFFFFFFFFF AND DUP2 PUSH20 0xFFFFFFFFFFFFFFFFFFFFFFFFFFFFFFFFFFFFFFFF AND SUB PUSH2 0x19E JUMPI PUSH0 PUSH1 0x40 MLOAD PUSH32 0x1E4FBDF700000000000000000000000000000000000000000000000000000000 DUP2 MSTORE PUSH1 0x4 ADD PUSH2 0x195 SWAP2 SWAP1 PUSH2 0x645 JUMP JUMPDEST PUSH1 0x40 MLOAD DUP1 SWAP2 SUB SWAP1 REVERT JUMPDEST PUSH2 0x1AD DUP2 PUSH2 0x1D8 PUSH1 0x20 SHL PUSH1 0x20 SHR JUMP JUMPDEST POP POP PUSH2 0x65E JUMP JUMPDEST PUSH0 PUSH1 0x1 SWAP1 POP SWAP1 JUMP JUMPDEST PUSH0 PUSH2 0x1CB PUSH2 0x29B PUSH1 0x20 SHL PUSH1 0x20 SHR JUMP JUMPDEST SWAP1 POP SWAP1 JUMP JUMPDEST DUP1 PUSH0 MSTORE PUSH1 0x4 PUSH0 REVERT JUMPDEST PUSH0 PUSH1 0x9 PUSH0 SWAP1 SLOAD SWAP1 PUSH2 0x100 EXP SWAP1 DIV PUSH20 0xFFFFFFFFFFFFFFFFFFFFFFFFFFFFFFFFFFFFFFFF AND SWAP1 POP DUP2 PUSH1 0x9 PUSH0 PUSH2 0x100 EXP DUP2 SLOAD DUP2 PUSH20 0xFFFFFFFFFFFFFFFFFFFFFFFFFFFFFFFFFFFFFFFF MUL NOT AND SWAP1 DUP4 PUSH20 0xFFFFFFFFFFFFFFFFFFFFFFFFFFFFFFFFFFFFFFFF AND MUL OR SWAP1 SSTORE POP DUP2 PUSH20 0xFFFFFFFFFFFFFFFFFFFFFFFFFFFFFFFFFFFFFFFF AND DUP2 PUSH20 0xFFFFFFFFFFFFFFFFFFFFFFFFFFFFFFFFFFFFFFFF AND PUSH32 0x8BE0079C531659141344CD1FD0A4F28419497F9722A3DAAFE3B4186F6B6457E0 PUSH1 0x40 MLOAD PUSH1 0x40 MLOAD DUP1 SWAP2 SUB SWAP1 LOG3 POP POP JUMP JUMPDEST PUSH0 PUSH2 0x7530 SWAP1 POP SWAP1 JUMP JUMPDEST PUSH0 DUP2 MLOAD SWAP1 POP SWAP2 SWAP1 POP JUMP JUMPDEST PUSH32 0x4E487B7100000000000000000000000000000000000000000000000000000000 PUSH0 MSTORE PUSH1 0x41 PUSH1 0x4 MSTORE PUSH1 0x24 PUSH0 REVERT JUMPDEST PUSH32 0x4E487B7100000000000000000000000000000000000000000000000000000000 PUSH0 MSTORE PUSH1 0x22 PUSH1 0x4 MSTORE PUSH1 0x24 PUSH0 REVERT JUMPDEST PUSH0 PUSH1 0x2 DUP3 DIV SWAP1 POP PUSH1 0x1 DUP3 AND DUP1 PUSH2 0x31F JUMPI PUSH1 0x7F DUP3 AND SWAP2 POP JUMPDEST PUSH1 0x20 DUP3 LT DUP2 SUB PUSH2 0x332 JUMPI PUSH2 0x331 PUSH2 0x2DB JUMP JUMPDEST JUMPDEST POP SWAP2 SWAP1 POP JUMP JUMPDEST PUSH0 DUP2 SWAP1 POP DUP2 PUSH0 MSTORE PUSH1 0x20 PUSH0 KECCAK256 SWAP1 POP SWAP2 SWAP1 POP JUMP JUMPDEST PUSH0 PUSH1 0x20 PUSH1 0x1F DUP4 ADD DIV SWAP1 POP SWAP2 SWAP1 POP JUMP JUMPDEST PUSH0 DUP3 DUP3 SHL SWAP1 POP SWAP3 SWAP2 POP POP JUMP JUMPDEST PUSH0 PUSH1 0x8 DUP4 MUL PUSH2 0x394 PUSH32 0xFFFFFFFFFFFFFFFFFFFFFFFFFFFFFFFFFFFFFFFFFFFFFFFFFFFFFFFFFFFFFFFF DUP3 PUSH2 0x359 JUMP JUMPDEST PUSH2 0x39E DUP7 DUP4 PUSH2 0x359 JUMP JUMPDEST SWAP6 POP DUP1 NOT DUP5 AND SWAP4 POP DUP1 DUP7 AND DUP5 OR SWAP3 POP POP POP SWAP4 SWAP3 POP POP POP JUMP JUMPDEST PUSH0 DUP2 SWAP1 POP SWAP2 SWAP1 POP JUMP JUMPDEST PUSH0 DUP2 SWAP1 POP SWAP2 SWAP1 POP JUMP JUMPDEST PUSH0 PUSH2 0x3E2 PUSH2 0x3DD PUSH2 0x3D8 DUP5 PUSH2 0x3B6 JUMP JUMPDEST PUSH2 0x3BF JUMP JUMPDEST PUSH2 0x3B6 JUMP JUMPDEST SWAP1 POP SWAP2 SWAP1 POP JUMP JUMPDEST PUSH0 DUP2 SWAP1 POP SWAP2 SWAP1 POP JUMP JUMPDEST PUSH2 0x3FB DUP4 PUSH2 0x3C8 JUMP JUMPDEST PUSH2 0x40F PUSH2 0x407 DUP3 PUSH2 0x3E9 JUMP JUMPDEST DUP5 DUP5 SLOAD PUSH2 0x365 JUMP JUMPDEST DUP3 SSTORE POP POP POP POP JUMP JUMPDEST PUSH0 SWAP1 JUMP JUMPDEST PUSH2 0x423 PUSH2 0x417 JUMP JUMPDEST PUSH2 0x42E DUP2 DUP5 DUP5 PUSH2 0x3F2 JUMP JUMPDEST POP POP POP JUMP JUMPDEST JUMPDEST DUP2 DUP2 LT ISZERO PUSH2 0x451 JUMPI PUSH2 0x446 PUSH0 DUP3 PUSH2 0x41B JUMP JUMPDEST PUSH1 0x1 DUP2 ADD SWAP1 POP PUSH2 0x434 JUMP JUMPDEST POP POP JUMP JUMPDEST PUSH1 0x1F DUP3 GT ISZERO PUSH2 0x496 JUMPI PUSH2 0x467 DUP2 PUSH2 0x338 JUMP JUMPDEST PUSH2 0x470 DUP5 PUSH2 0x34A JUMP JUMPDEST DUP2 ADD PUSH1 0x20 DUP6 LT ISZERO PUSH2 0x47F JUMPI DUP2 SWAP1 POP JUMPDEST PUSH2 0x493 PUSH2 0x48B DUP6 PUSH2 0x34A JUMP JUMPDEST DUP4 ADD DUP3 PUSH2 0x433 JUMP JUMPDEST POP POP JUMPDEST POP POP POP JUMP JUMPDEST PUSH0 DUP3 DUP3 SHR SWAP1 POP SWAP3 SWAP2 POP POP JUMP JUMPDEST PUSH0 PUSH2 0x4B6 PUSH0 NOT DUP5 PUSH1 0x8 MUL PUSH2 0x49B JUMP JUMPDEST NOT DUP1 DUP4 AND SWAP2 POP POP SWAP3 SWAP2 POP POP JUMP JUMPDEST PUSH0 PUSH2 0x4CE DUP4 DUP4 PUSH2 0x4A7 JUMP JUMPDEST SWAP2 POP DUP3 PUSH1 0x2 MUL DUP3 OR SWAP1 POP SWAP3 SWAP2 POP POP JUMP JUMPDEST PUSH2 0x4E7 DUP3 PUSH2 0x2A4 JUMP JUMPDEST PUSH8 0xFFFFFFFFFFFFFFFF DUP2 GT ISZERO PUSH2 0x500 JUMPI PUSH2 0x4FF PUSH2 0x2AE JUMP JUMPDEST JUMPDEST PUSH2 0x50A DUP3 SLOAD PUSH2 0x308 JUMP JUMPDEST PUSH2 0x515 DUP3 DUP3 DUP6 PUSH2 0x455 JUMP JUMPDEST PUSH0 PUSH1 0x20 SWAP1 POP PUSH1 0x1F DUP4 GT PUSH1 0x1 DUP2 EQ PUSH2 0x546 JUMPI PUSH0 DUP5 ISZERO PUSH2 0x534 JUMPI DUP3 DUP8 ADD MLOAD SWAP1 POP JUMPDEST PUSH2 0x53E DUP6 DUP3 PUSH2 0x4C3 JUMP JUMPDEST DUP7 SSTORE POP PUSH2 0x5A5 JUMP JUMPDEST PUSH1 0x1F NOT DUP5 AND PUSH2 0x554 DUP7 PUSH2 0x338 JUMP JUMPDEST PUSH0 JUMPDEST DUP3 DUP2 LT ISZERO PUSH2 0x57B JUMPI DUP5 DUP10 ADD MLOAD DUP3 SSTORE PUSH1 0x1 DUP3 ADD SWAP2 POP PUSH1 0x20 DUP6 ADD SWAP5 POP PUSH1 0x20 DUP2 ADD SWAP1 POP PUSH2 0x556 JUMP JUMPDEST DUP7 DUP4 LT ISZERO PUSH2 0x598 JUMPI DUP5 DUP10 ADD MLOAD PUSH2 0x594 PUSH1 0x1F DUP10 AND DUP3 PUSH2 0x4A7 JUMP JUMPDEST DUP4 SSTORE POP JUMPDEST PUSH1 0x1 PUSH1 0x2 DUP9 MUL ADD DUP9 SSTORE POP POP POP JUMPDEST POP POP POP POP POP POP JUMP JUMPDEST PUSH0 DUP1 REVERT JUMPDEST PUSH0 PUSH20 0xFFFFFFFFFFFFFFFFFFFFFFFFFFFFFFFFFFFFFFFF DUP3 AND SWAP1 POP SWAP2 SWAP1 POP JUMP JUMPDEST PUSH0 PUSH2 0x5DA DUP3 PUSH2 0x5B1 JUMP JUMPDEST SWAP1 POP SWAP2 SWAP1 POP JUMP JUMPDEST PUSH2 0x5EA DUP2 PUSH2 0x5D0 JUMP JUMPDEST DUP2 EQ PUSH2 0x5F4 JUMPI PUSH0 DUP1 REVERT JUMPDEST POP JUMP JUMPDEST PUSH0 DUP2 MLOAD SWAP1 POP PUSH2 0x605 DUP2 PUSH2 0x5E1 JUMP JUMPDEST SWAP3 SWAP2 POP POP JUMP JUMPDEST PUSH0 PUSH1 0x20 DUP3 DUP5 SUB SLT ISZERO PUSH2 0x620 JUMPI PUSH2 0x61F PUSH2 0x5AD JUMP JUMPDEST JUMPDEST PUSH0 PUSH2 0x62D DUP5 DUP3 DUP6 ADD PUSH2 0x5F7 JUMP JUMPDEST SWAP2 POP POP SWAP3 SWAP2 POP POP JUMP JUMPDEST PUSH2 0x63F DUP2 PUSH2 0x5D0 JUMP JUMPDEST DUP3 MSTORE POP POP JUMP JUMPDEST PUSH0 PUSH1 0x20 DUP3 ADD SWAP1 POP PUSH2 0x658 PUSH0 DUP4 ADD DUP5 PUSH2 0x636 JUMP JUMPDEST SWAP3 SWAP2 POP POP JUMP JUMPDEST PUSH2 0x2810 DUP1 PUSH2 0x66B PUSH0 CODECOPY PUSH0 RETURN INVALID PUSH1 0x80 PUSH1 0x40 MSTORE PUSH1 0x4 CALLDATASIZE LT PUSH2 0x165 JUMPI PUSH0 CALLDATALOAD PUSH1 0xE0 SHR DUP1 PUSH4 0x715018A6 GT PUSH2 0xD0 JUMPI DUP1 PUSH4 0xAC446002 GT PUSH2 0x89 JUMPI DUP1 PUSH4 0xC87B56DD GT PUSH2 0x63 JUMPI DUP1 PUSH4 0xC87B56DD EQ PUSH2 0x4AF JUMPI DUP1 PUSH4 0xE6A72ACF EQ PUSH2 0x4EB JUMPI DUP1 PUSH4 0xE985E9C5 EQ PUSH2 0x527 JUMPI DUP1 PUSH4 0xF2FDE38B EQ PUSH2 0x563 JUMPI PUSH2 0x165 JUMP JUMPDEST DUP1 PUSH4 0xAC446002 EQ PUSH2 0x453 JUMPI DUP1 PUSH4 0xB228D925 EQ PUSH2 0x469 JUMPI DUP1 PUSH4 0xB88D4FDE EQ PUSH2 0x493 JUMPI PUSH2 0x165 JUMP JUMPDEST DUP1 PUSH4 0x715018A6 EQ PUSH2 0x37B JUMPI DUP1 PUSH4 0x8DA5CB5B EQ PUSH2 0x391 JUMPI DUP1 PUSH4 0x95D89B41 EQ PUSH2 0x3BB JUMPI DUP1 PUSH4 0x9D5561E1 EQ PUSH2 0x3E5 JUMPI DUP1 PUSH4 0xA0712D68 EQ PUSH2 0x40F JUMPI DUP1 PUSH4 0xA22CB465 EQ PUSH2 0x42B JUMPI PUSH2 0x165 JUMP JUMPDEST DUP1 PUSH4 0x375A069A GT PUSH2 0x122 JUMPI DUP1 PUSH4 0x375A069A EQ PUSH2 0x26D JUMPI DUP1 PUSH4 0x42842E0E EQ PUSH2 0x295 JUMPI DUP1 PUSH4 0x45C0F533 EQ PUSH2 0x2B1 JUMPI DUP1 PUSH4 0x55F804B3 EQ PUSH2 0x2DB JUMPI DUP1 PUSH4 0x6352211E EQ PUSH2 0x303 JUMPI DUP1 PUSH4 0x70A08231 EQ PUSH2 0x33F JUMPI PUSH2 0x165 JUMP JUMPDEST DUP1 PUSH4 0x1FFC9A7 EQ PUSH2 0x169 JUMPI DUP1 PUSH4 0x6FDDE03 EQ PUSH2 0x1A5 JUMPI DUP1 PUSH4 0x81812FC EQ PUSH2 0x1CF JUMPI DUP1 PUSH4 0x95EA7B3 EQ PUSH2 0x20B JUMPI DUP1 PUSH4 0x18160DDD EQ PUSH2 0x227 JUMPI DUP1 PUSH4 0x23B872DD EQ PUSH2 0x251 JUMPI JUMPDEST PUSH0 DUP1 REVERT JUMPDEST CALLVALUE DUP1 ISZERO PUSH2 0x174 JUMPI PUSH0 DUP1 REVERT JUMPDEST POP PUSH2 0x18F PUSH1 0x4 DUP1 CALLDATASIZE SUB DUP2 ADD SWAP1 PUSH2 0x18A SWAP2 SWAP1 PUSH2 0x1A77 JUMP JUMPDEST PUSH2 0x58B JUMP JUMPDEST PUSH1 0x40 MLOAD PUSH2 0x19C SWAP2 SWAP1 PUSH2 0x1ABC JUMP JUMPDEST PUSH1 0x40 MLOAD DUP1 SWAP2 SUB SWAP1 RETURN JUMPDEST CALLVALUE DUP1 ISZERO PUSH2 0x1B0 JUMPI PUSH0 DUP1 REVERT JUMPDEST POP PUSH2 0x1B9 PUSH2 0x61C JUMP JUMPDEST PUSH1 0x40 MLOAD PUSH2 0x1C6 SWAP2 SWAP1 PUSH2 0x1B45 JUMP JUMPDEST PUSH1 0x40 MLOAD DUP1 SWAP2 SUB SWAP1 RETURN JUMPDEST CALLVALUE DUP1 ISZERO PUSH2 0x1DA JUMPI PUSH0 DUP1 REVERT JUMPDEST POP PUSH2 0x1F5 PUSH1 0x4 DUP1 CALLDATASIZE SUB DUP2 ADD SWAP1 PUSH2 0x1F0 SWAP2 SWAP1 PUSH2 0x1B98 JUMP JUMPDEST PUSH2 0x6AC JUMP JUMPDEST PUSH1 0x40 MLOAD PUSH2 0x202 SWAP2 SWAP1 PUSH2 0x1C02 JUMP JUMPDEST PUSH1 0x40 MLOAD DUP1 SWAP2 SUB SWAP1 RETURN JUMPDEST PUSH2 0x225 PUSH1 0x4 DUP1 CALLDATASIZE SUB DUP2 ADD SWAP1 PUSH2 0x220 SWAP2 SWAP1 PUSH2 0x1C45 JUMP JUMPDEST PUSH2 0x705 JUMP JUMPDEST STOP JUMPDEST CALLVALUE DUP1 ISZERO PUSH2 0x232 JUMPI PUSH0 DUP1 REVERT JUMPDEST POP PUSH2 0x23B PUSH2 0x715 JUMP JUMPDEST PUSH1 0x40 MLOAD PUSH2 0x248 SWAP2 SWAP1 PUSH2 0x1C92 JUMP JUMPDEST PUSH1 0x40 MLOAD DUP1 SWAP2 SUB SWAP1 RETURN JUMPDEST PUSH2 0x26B PUSH1 0x4 DUP1 CALLDATASIZE SUB DUP2 ADD SWAP1 PUSH2 0x266 SWAP2 SWAP1 PUSH2 0x1CAB JUMP JUMPDEST PUSH2 0x760 JUMP JUMPDEST STOP JUMPDEST CALLVALUE DUP1 ISZERO PUSH2 0x278 JUMPI PUSH0 DUP1 REVERT JUMPDEST POP PUSH2 0x293 PUSH1 0x4 DUP1 CALLDATASIZE SUB DUP2 ADD SWAP1 PUSH2 0x28E SWAP2 SWAP1 PUSH2 0x1B98 JUMP JUMPDEST PUSH2 0x9E1 JUMP JUMPDEST STOP JUMPDEST PUSH2 0x2AF PUSH1 0x4 DUP1 CALLDATASIZE SUB DUP2 ADD SWAP1 PUSH2 0x2AA SWAP2 SWAP1 PUSH2 0x1CAB JUMP JUMPDEST PUSH2 0xA41 JUMP JUMPDEST STOP JUMPDEST CALLVALUE DUP1 ISZERO PUSH2 0x2BC JUMPI PUSH0 DUP1 REVERT JUMPDEST POP PUSH2 0x2C5 PUSH2 0xA60 JUMP JUMPDEST PUSH1 0x40 MLOAD PUSH2 0x2D2 SWAP2 SWAP1 PUSH2 0x1C92 JUMP JUMPDEST PUSH1 0x40 MLOAD DUP1 SWAP2 SUB SWAP1 RETURN JUMPDEST CALLVALUE DUP1 ISZERO PUSH2 0x2E6 JUMPI PUSH0 DUP1 REVERT JUMPDEST POP PUSH2 0x301 PUSH1 0x4 DUP1 CALLDATASIZE SUB DUP2 ADD SWAP1 PUSH2 0x2FC SWAP2 SWAP1 PUSH2 0x1D5C JUMP JUMPDEST PUSH2 0xA69 JUMP JUMPDEST STOP JUMPDEST CALLVALUE DUP1 ISZERO PUSH2 0x30E JUMPI PUSH0 DUP1 REVERT JUMPDEST POP PUSH2 0x329 PUSH1 0x4 DUP1 CALLDATASIZE SUB DUP2 ADD SWAP1 PUSH2 0x324 SWAP2 SWAP1 PUSH2 0x1B98 JUMP JUMPDEST PUSH2 0xA8F JUMP JUMPDEST PUSH1 0x40 MLOAD PUSH2 0x336 SWAP2 SWAP1 PUSH2 0x1C02 JUMP JUMPDEST PUSH1 0x40 MLOAD DUP1 SWAP2 SUB SWAP1 RETURN JUMPDEST CALLVALUE DUP1 ISZERO PUSH2 0x34A JUMPI PUSH0 DUP1 REVERT JUMPDEST POP PUSH2 0x365 PUSH1 0x4 DUP1 CALLDATASIZE SUB DUP2 ADD SWAP1 PUSH2 0x360 SWAP2 SWAP1 PUSH2 0x1DA7 JUMP JUMPDEST PUSH2 0xAA0 JUMP JUMPDEST PUSH1 0x40 MLOAD PUSH2 0x372 SWAP2 SWAP1 PUSH2 0x1C92 JUMP JUMPDEST PUSH1 0x40 MLOAD DUP1 SWAP2 SUB SWAP1 RETURN JUMPDEST CALLVALUE DUP1 ISZERO PUSH2 0x386 JUMPI PUSH0 DUP1 REVERT JUMPDEST POP PUSH2 0x38F PUSH2 0xB34 JUMP JUMPDEST STOP JUMPDEST CALLVALUE DUP1 ISZERO PUSH2 0x39C JUMPI PUSH0 DUP1 REVERT JUMPDEST POP PUSH2 0x3A5 PUSH2 0xB47 JUMP JUMPDEST PUSH1 0x40 MLOAD PUSH2 0x3B2 SWAP2 SWAP1 PUSH2 0x1C02 JUMP JUMPDEST PUSH1 0x40 MLOAD DUP1 SWAP2 SUB SWAP1 RETURN JUMPDEST CALLVALUE DUP1 ISZERO PUSH2 0x3C6 JUMPI PUSH0 DUP1 REVERT JUMPDEST POP PUSH2 0x3CF PUSH2 0xB6F JUMP JUMPDEST PUSH1 0x40 MLOAD PUSH2 0x3DC SWAP2 SWAP1 PUSH2 0x1B45 JUMP JUMPDEST PUSH1 0x40 MLOAD DUP1 SWAP2 SUB SWAP1 RETURN JUMPDEST CALLVALUE DUP1 ISZERO PUSH2 0x3F0 JUMPI PUSH0 DUP1 REVERT JUMPDEST POP PUSH2 0x3F9 PUSH2 0xBFF JUMP JUMPDEST PUSH1 0x40 MLOAD PUSH2 0x406 SWAP2 SWAP1 PUSH2 0x1C92 JUMP JUMPDEST PUSH1 0x40 MLOAD DUP1 SWAP2 SUB SWAP1 RETURN JUMPDEST PUSH2 0x429 PUSH1 0x4 DUP1 CALLDATASIZE SUB DUP2 ADD SWAP1 PUSH2 0x424 SWAP2 SWAP1 PUSH2 0x1B98 JUMP JUMPDEST PUSH2 0xC1A JUMP JUMPDEST STOP JUMPDEST CALLVALUE DUP1 ISZERO PUSH2 0x436 JUMPI PUSH0 DUP1 REVERT JUMPDEST POP PUSH2 0x451 PUSH1 0x4 DUP1 CALLDATASIZE SUB DUP2 ADD SWAP1 PUSH2 0x44C SWAP2 SWAP1 PUSH2 0x1DFC JUMP JUMPDEST PUSH2 0xCCC JUMP JUMPDEST STOP JUMPDEST CALLVALUE DUP1 ISZERO PUSH2 0x45E JUMPI PUSH0 DUP1 REVERT JUMPDEST POP PUSH2 0x467 PUSH2 0xDD2 JUMP JUMPDEST STOP JUMPDEST CALLVALUE DUP1 ISZERO PUSH2 0x474 JUMPI PUSH0 DUP1 REVERT JUMPDEST POP PUSH2 0x47D PUSH2 0xEC7 JUMP JUMPDEST PUSH1 0x40 MLOAD PUSH2 0x48A SWAP2 SWAP1 PUSH2 0x1C92 JUMP JUMPDEST PUSH1 0x40 MLOAD DUP1 SWAP2 SUB SWAP1 RETURN JUMPDEST PUSH2 0x4AD PUSH1 0x4 DUP1 CALLDATASIZE SUB DUP2 ADD SWAP1 PUSH2 0x4A8 SWAP2 SWAP1 PUSH2 0x1F62 JUMP JUMPDEST PUSH2 0xECF JUMP JUMPDEST STOP JUMPDEST CALLVALUE DUP1 ISZERO PUSH2 0x4BA JUMPI PUSH0 DUP1 REVERT JUMPDEST POP PUSH2 0x4D5 PUSH1 0x4 DUP1 CALLDATASIZE SUB DUP2 ADD SWAP1 PUSH2 0x4D0 SWAP2 SWAP1 PUSH2 0x1B98 JUMP JUMPDEST PUSH2 0xF20 JUMP JUMPDEST PUSH1 0x40 MLOAD PUSH2 0x4E2 SWAP2 SWAP1 PUSH2 0x1B45 JUMP JUMPDEST PUSH1 0x40 MLOAD DUP1 SWAP2 SUB SWAP1 RETURN JUMPDEST CALLVALUE DUP1 ISZERO PUSH2 0x4F6 JUMPI PUSH0 DUP1 REVERT JUMPDEST POP PUSH2 0x511 PUSH1 0x4 DUP1 CALLDATASIZE SUB DUP2 ADD SWAP1 PUSH2 0x50C SWAP2 SWAP1 PUSH2 0x1B98 JUMP JUMPDEST PUSH2 0xFC4 JUMP JUMPDEST PUSH1 0x40 MLOAD PUSH2 0x51E SWAP2 SWAP1 PUSH2 0x1C92 JUMP JUMPDEST PUSH1 0x40 MLOAD DUP1 SWAP2 SUB SWAP1 RETURN JUMPDEST CALLVALUE DUP1 ISZERO PUSH2 0x532 JUMPI PUSH0 DUP1 REVERT JUMPDEST POP PUSH2 0x54D PUSH1 0x4 DUP1 CALLDATASIZE SUB DUP2 ADD SWAP1 PUSH2 0x548 SWAP2 SWAP1 PUSH2 0x1FE2 JUMP JUMPDEST PUSH2 0x100A JUMP JUMPDEST PUSH1 0x40 MLOAD PUSH2 0x55A SWAP2 SWAP1 PUSH2 0x1ABC JUMP JUMPDEST PUSH1 0x40 MLOAD DUP1 SWAP2 SUB SWAP1 RETURN JUMPDEST CALLVALUE DUP1 ISZERO PUSH2 0x56E JUMPI PUSH0 DUP1 REVERT JUMPDEST POP PUSH2 0x589 PUSH1 0x4 DUP1 CALLDATASIZE SUB DUP2 ADD SWAP1 PUSH2 0x584 SWAP2 SWAP1 PUSH2 0x1DA7 JUMP JUMPDEST PUSH2 0x1098 JUMP JUMPDEST STOP JUMPDEST PUSH0 PUSH4 0x1FFC9A7 PUSH1 0xE0 SHL DUP3 PUSH28 0xFFFFFFFFFFFFFFFFFFFFFFFFFFFFFFFFFFFFFFFFFFFFFFFFFFFFFFFF NOT AND EQ DUP1 PUSH2 0x5E5 JUMPI POP PUSH4 0x80AC58CD PUSH1 0xE0 SHL DUP3 PUSH28 0xFFFFFFFFFFFFFFFFFFFFFFFFFFFFFFFFFFFFFFFFFFFFFFFFFFFFFFFF NOT AND EQ JUMPDEST DUP1 PUSH2 0x615 JUMPI POP PUSH4 0x5B5E139F PUSH1 0xE0 SHL DUP3 PUSH28 0xFFFFFFFFFFFFFFFFFFFFFFFFFFFFFFFFFFFFFFFFFFFFFFFFFFFFFFFF NOT AND EQ JUMPDEST SWAP1 POP SWAP2 SWAP1 POP JUMP JUMPDEST PUSH1 0x60 PUSH1 0x2 DUP1 SLOAD PUSH2 0x62B SWAP1 PUSH2 0x204D JUMP JUMPDEST DUP1 PUSH1 0x1F ADD PUSH1 0x20 DUP1 SWAP2 DIV MUL PUSH1 0x20 ADD PUSH1 0x40 MLOAD SWAP1 DUP2 ADD PUSH1 0x40 MSTORE DUP1 SWAP3 SWAP2 SWAP1 DUP2 DUP2 MSTORE PUSH1 0x20 ADD DUP3 DUP1 SLOAD PUSH2 0x657 SWAP1 PUSH2 0x204D JUMP JUMPDEST DUP1 ISZERO PUSH2 0x6A2 JUMPI DUP1 PUSH1 0x1F LT PUSH2 0x679 JUMPI PUSH2 0x100 DUP1 DUP4 SLOAD DIV MUL DUP4 MSTORE SWAP2 PUSH1 0x20 ADD SWAP2 PUSH2 0x6A2 JUMP JUMPDEST DUP3 ADD SWAP2 SWAP1 PUSH0 MSTORE PUSH1 0x20 PUSH0 KECCAK256 SWAP1 JUMPDEST DUP2 SLOAD DUP2 MSTORE SWAP1 PUSH1 0x1 ADD SWAP1 PUSH1 0x20 ADD DUP1 DUP4 GT PUSH2 0x685 JUMPI DUP3 SWAP1 SUB PUSH1 0x1F AND DUP3 ADD SWAP2 JUMPDEST POP POP POP POP POP SWAP1 POP SWAP1 JUMP JUMPDEST PUSH0 PUSH2 0x6B6 DUP3 PUSH2 0x111C JUMP JUMPDEST PUSH2 0x6CB JUMPI PUSH2 0x6CA PUSH4 0xCF4700E4 PUSH1 0xE0 SHL PUSH2 0x11BF JUMP JUMPDEST JUMPDEST PUSH1 0x6 PUSH0 DUP4 DUP2 MSTORE PUSH1 0x20 ADD SWAP1 DUP2 MSTORE PUSH1 0x20 ADD PUSH0 KECCAK256 PUSH0 ADD PUSH0 SWAP1 SLOAD SWAP1 PUSH2 0x100 EXP SWAP1 DIV PUSH20 0xFFFFFFFFFFFFFFFFFFFFFFFFFFFFFFFFFFFFFFFF AND SWAP1 POP SWAP2 SWAP1 POP JUMP JUMPDEST PUSH2 0x711 DUP3 DUP3 PUSH1 0x1 PUSH2 0x11C7 JUMP JUMPDEST POP POP JUMP JUMPDEST PUSH0 PUSH2 0x71E PUSH2 0x12F1 JUMP JUMPDEST PUSH1 0x1 SLOAD PUSH0 SLOAD SUB SUB SWAP1 POP PUSH32 0xFFFFFFFFFFFFFFFFFFFFFFFFFFFFFFFFFFFFFFFFFFFFFFFFFFFFFFFFFFFFFFFF PUSH2 0x750 PUSH2 0x12F9 JUMP JUMPDEST EQ PUSH2 0x75D JUMPI PUSH1 0x8 SLOAD DUP2 ADD SWAP1 POP JUMPDEST SWAP1 JUMP JUMPDEST PUSH0 PUSH2 0x76A DUP3 PUSH2 0x1307 JUMP JUMPDEST SWAP1 POP PUSH0 DUP5 PUSH20 0xFFFFFFFFFFFFFFFFFFFFFFFFFFFFFFFFFFFFFFFF AND SWAP1 POP DUP1 DUP3 PUSH20 0xFFFFFFFFFFFFFFFFFFFFFFFFFFFFFFFFFFFFFFFF AND EQ PUSH2 0x7B4 JUMPI PUSH2 0x7B3 PUSH4 0xA1148100 PUSH1 0xE0 SHL PUSH2 0x11BF JUMP JUMPDEST JUMPDEST PUSH0 DUP1 PUSH2 0x7BF DUP6 PUSH2 0x1416 JUMP JUMPDEST SWAP2 POP SWAP2 POP PUSH2 0x7EB DUP2 DUP5 PUSH2 0x7D0 PUSH2 0x1439 JUMP JUMPDEST PUSH20 0xFFFFFFFFFFFFFFFFFFFFFFFFFFFFFFFFFFFFFFFF AND PUSH2 0x1440 JUMP JUMPDEST PUSH2 0x816 JUMPI PUSH2 0x800 DUP8 PUSH2 0x7FB PUSH2 0x1439 JUMP JUMPDEST PUSH2 0x100A JUMP JUMPDEST PUSH2 0x815 JUMPI PUSH2 0x814 PUSH4 0x59C896BE PUSH1 0xE0 SHL PUSH2 0x11BF JUMP JUMPDEST JUMPDEST JUMPDEST PUSH2 0x823 DUP8 DUP8 DUP8 PUSH1 0x1 PUSH2 0x1451 JUMP JUMPDEST DUP1 ISZERO PUSH2 0x82D JUMPI PUSH0 DUP3 SSTORE JUMPDEST PUSH1 0x5 PUSH0 DUP9 PUSH20 0xFFFFFFFFFFFFFFFFFFFFFFFFFFFFFFFFFFFFFFFF AND PUSH20 0xFFFFFFFFFFFFFFFFFFFFFFFFFFFFFFFFFFFFFFFF AND DUP2 MSTORE PUSH1 0x20 ADD SWAP1 DUP2 MSTORE PUSH1 0x20 ADD PUSH0 KECCAK256 PUSH0 DUP2 SLOAD PUSH1 0x1 SWAP1 SUB SWAP2 SWAP1 POP DUP2 SWAP1 SSTORE POP PUSH1 0x5 PUSH0 DUP8 PUSH20 0xFFFFFFFFFFFFFFFFFFFFFFFFFFFFFFFFFFFFFFFF AND PUSH20 0xFFFFFFFFFFFFFFFFFFFFFFFFFFFFFFFFFFFFFFFF AND DUP2 MSTORE PUSH1 0x20 ADD SWAP1 DUP2 MSTORE PUSH1 0x20 ADD PUSH0 KECCAK256 PUSH0 DUP2 SLOAD PUSH1 0x1 ADD SWAP2 SWAP1 POP DUP2 SWAP1 SSTORE POP PUSH2 0x8F5 DUP7 PUSH2 0x8D1 DUP10 DUP10 DUP9 PUSH2 0x1457 JUMP JUMPDEST PUSH29 0x200000000000000000000000000000000000000000000000000000000 OR PUSH2 0x147E JUMP JUMPDEST PUSH1 0x4 PUSH0 DUP8 DUP2 MSTORE PUSH1 0x20 ADD SWAP1 DUP2 MSTORE PUSH1 0x20 ADD PUSH0 KECCAK256 DUP2 SWAP1 SSTORE POP PUSH0 PUSH29 0x200000000000000000000000000000000000000000000000000000000 DUP6 AND SUB PUSH2 0x971 JUMPI PUSH0 PUSH1 0x1 DUP7 ADD SWAP1 POP PUSH0 PUSH1 0x4 PUSH0 DUP4 DUP2 MSTORE PUSH1 0x20 ADD SWAP1 DUP2 MSTORE PUSH1 0x20 ADD PUSH0 KECCAK256 SLOAD SUB PUSH2 0x96F JUMPI PUSH0 SLOAD DUP2 EQ PUSH2 0x96E JUMPI DUP5 PUSH1 0x4 PUSH0 DUP4 DUP2 MSTORE PUSH1 0x20 ADD SWAP1 DUP2 MSTORE PUSH1 0x20 ADD PUSH0 KECCAK256 DUP2 SWAP1 SSTORE POP JUMPDEST JUMPDEST POP JUMPDEST PUSH0 DUP7 PUSH20 0xFFFFFFFFFFFFFFFFFFFFFFFFFFFFFFFFFFFFFFFF AND SWAP1 POP DUP6 DUP2 DUP6 PUSH32 0xDDF252AD1BE2C89B69C2B068FC378DAA952BA7F163C4A11628F55A4DF523B3EF PUSH0 DUP1 LOG4 PUSH0 DUP2 SUB PUSH2 0x9CA JUMPI PUSH2 0x9C9 PUSH4 0xEA553B34 PUSH1 0xE0 SHL PUSH2 0x11BF JUMP JUMPDEST JUMPDEST PUSH2 0x9D7 DUP9 DUP9 DUP9 PUSH1 0x1 PUSH2 0x14A8 JUMP JUMPDEST POP POP POP POP POP POP POP POP JUMP JUMPDEST PUSH2 0x9E9 PUSH2 0x14AE JUMP JUMPDEST PUSH1 0x32 PUSH2 0x9F4 CALLER PUSH2 0x1535 JUMP JUMPDEST LT PUSH2 0xA34 JUMPI PUSH1 0x40 MLOAD PUSH32 0x8C379A000000000000000000000000000000000000000000000000000000000 DUP2 MSTORE PUSH1 0x4 ADD PUSH2 0xA2B SWAP1 PUSH2 0x20C7 JUMP JUMPDEST PUSH1 0x40 MLOAD DUP1 SWAP2 SUB SWAP1 REVERT JUMPDEST PUSH2 0xA3E CALLER DUP3 PUSH2 0x1589 JUMP JUMPDEST POP JUMP JUMPDEST PUSH2 0xA5B DUP4 DUP4 DUP4 PUSH1 0x40 MLOAD DUP1 PUSH1 0x20 ADD PUSH1 0x40 MSTORE DUP1 PUSH0 DUP2 MSTORE POP PUSH2 0xECF JUMP JUMPDEST POP POP POP JUMP JUMPDEST PUSH0 PUSH2 0x7530 SWAP1 POP SWAP1 JUMP JUMPDEST PUSH2 0xA71 PUSH2 0x14AE JUMP JUMPDEST PUSH1 0x1 PUSH1 0xB DUP2 SWAP1 SSTORE POP DUP2 DUP2 PUSH1 0xA SWAP2 DUP3 PUSH2 0xA8A SWAP3 SWAP2 SWAP1 PUSH2 0x228C JUMP JUMPDEST POP POP POP JUMP JUMPDEST PUSH0 PUSH2 0xA99 DUP3 PUSH2 0x1307 JUMP JUMPDEST SWAP1 POP SWAP2 SWAP1 POP JUMP JUMPDEST PUSH0 DUP1 PUSH20 0xFFFFFFFFFFFFFFFFFFFFFFFFFFFFFFFFFFFFFFFF AND DUP3 PUSH20 0xFFFFFFFFFFFFFFFFFFFFFFFFFFFFFFFFFFFFFFFF AND SUB PUSH2 0xAE5 JUMPI PUSH2 0xAE4 PUSH4 0x8F4EB604 PUSH1 0xE0 SHL PUSH2 0x11BF JUMP JUMPDEST JUMPDEST PUSH8 0xFFFFFFFFFFFFFFFF PUSH1 0x5 PUSH0 DUP5 PUSH20 0xFFFFFFFFFFFFFFFFFFFFFFFFFFFFFFFFFFFFFFFF AND PUSH20 0xFFFFFFFFFFFFFFFFFFFFFFFFFFFFFFFFFFFFFFFF AND DUP2 MSTORE PUSH1 0x20 ADD SWAP1 DUP2 MSTORE PUSH1 0x20 ADD PUSH0 KECCAK256 SLOAD AND SWAP1 POP SWAP2 SWAP1 POP JUMP JUMPDEST PUSH2 0xB3C PUSH2 0x14AE JUMP JUMPDEST PUSH2 0xB45 PUSH0 PUSH2 0x16E7 JUMP JUMPDEST JUMP JUMPDEST PUSH0 PUSH1 0x9 PUSH0 SWAP1 SLOAD SWAP1 PUSH2 0x100 EXP SWAP1 DIV PUSH20 0xFFFFFFFFFFFFFFFFFFFFFFFFFFFFFFFFFFFFFFFF AND SWAP1 POP SWAP1 JUMP JUMPDEST PUSH1 0x60 PUSH1 0x3 DUP1 SLOAD PUSH2 0xB7E SWAP1 PUSH2 0x204D JUMP JUMPDEST DUP1 PUSH1 0x1F ADD PUSH1 0x20 DUP1 SWAP2 DIV MUL PUSH1 0x20 ADD PUSH1 0x40 MLOAD SWAP1 DUP2 ADD PUSH1 0x40 MSTORE DUP1 SWAP3 SWAP2 SWAP1 DUP2 DUP2 MSTORE PUSH1 0x20 ADD DUP3 DUP1 SLOAD PUSH2 0xBAA SWAP1 PUSH2 0x204D JUMP JUMPDEST DUP1 ISZERO PUSH2 0xBF5 JUMPI DUP1 PUSH1 0x1F LT PUSH2 0xBCC JUMPI PUSH2 0x100 DUP1 DUP4 SLOAD DIV MUL DUP4 MSTORE SWAP2 PUSH1 0x20 ADD SWAP2 PUSH2 0xBF5 JUMP JUMPDEST DUP3 ADD SWAP2 SWAP1 PUSH0 MSTORE PUSH1 0x20 PUSH0 KECCAK256 SWAP1 JUMPDEST DUP2 SLOAD DUP2 MSTORE SWAP1 PUSH1 0x1 ADD SWAP1 PUSH1 0x20 ADD DUP1 DUP4 GT PUSH2 0xBD8 JUMPI DUP3 SWAP1 SUB PUSH1 0x1F AND DUP3 ADD SWAP2 JUMPDEST POP POP POP POP POP SWAP1 POP SWAP1 JUMP JUMPDEST PUSH0 PUSH2 0xC09 CALLER PUSH2 0x1535 JUMP JUMPDEST PUSH1 0xA PUSH2 0xC15 SWAP2 SWAP1 PUSH2 0x2386 JUMP JUMPDEST SWAP1 POP SWAP1 JUMP JUMPDEST PUSH0 DUP2 GT DUP1 ISZERO PUSH2 0xC30 JUMPI POP PUSH2 0xC2C PUSH2 0xBFF JUMP JUMPDEST DUP2 GT ISZERO JUMPDEST PUSH2 0xC6F JUMPI PUSH1 0x40 MLOAD PUSH32 0x8C379A000000000000000000000000000000000000000000000000000000000 DUP2 MSTORE PUSH1 0x4 ADD PUSH2 0xC66 SWAP1 PUSH2 0x2403 JUMP JUMPDEST PUSH1 0x40 MLOAD DUP1 SWAP2 SUB SWAP1 REVERT JUMPDEST PUSH0 PUSH2 0xC79 DUP3 PUSH2 0xFC4 JUMP JUMPDEST SWAP1 POP DUP1 CALLVALUE LT ISZERO PUSH2 0xCBE JUMPI PUSH1 0x40 MLOAD PUSH32 0x8C379A000000000000000000000000000000000000000000000000000000000 DUP2 MSTORE PUSH1 0x4 ADD PUSH2 0xCB5 SWAP1 PUSH2 0x246B JUMP JUMPDEST PUSH1 0x40 MLOAD DUP1 SWAP2 SUB SWAP1 REVERT JUMPDEST PUSH2 0xCC8 CALLER DUP4 PUSH2 0x1589 JUMP JUMPDEST POP POP JUMP JUMPDEST DUP1 PUSH1 0x7 PUSH0 PUSH2 0xCD8 PUSH2 0x1439 JUMP JUMPDEST PUSH20 0xFFFFFFFFFFFFFFFFFFFFFFFFFFFFFFFFFFFFFFFF AND PUSH20 0xFFFFFFFFFFFFFFFFFFFFFFFFFFFFFFFFFFFFFFFF AND DUP2 MSTORE PUSH1 0x20 ADD SWAP1 DUP2 MSTORE PUSH1 0x20 ADD PUSH0 KECCAK256 PUSH0 DUP5 PUSH20 0xFFFFFFFFFFFFFFFFFFFFFFFFFFFFFFFFFFFFFFFF AND PUSH20 0xFFFFFFFFFFFFFFFFFFFFFFFFFFFFFFFFFFFFFFFF AND DUP2 MSTORE PUSH1 0x20 ADD SWAP1 DUP2 MSTORE PUSH1 0x20 ADD PUSH0 KECCAK256 PUSH0 PUSH2 0x100 EXP DUP2 SLOAD DUP2 PUSH1 0xFF MUL NOT AND SWAP1 DUP4 ISZERO ISZERO MUL OR SWAP1 SSTORE POP DUP2 PUSH20 0xFFFFFFFFFFFFFFFFFFFFFFFFFFFFFFFFFFFFFFFF AND PUSH2 0xD81 PUSH2 0x1439 JUMP JUMPDEST PUSH20 0xFFFFFFFFFFFFFFFFFFFFFFFFFFFFFFFFFFFFFFFF AND PUSH32 0x17307EAB39AB6107E8899845AD3D59BD9653F200F220920489CA2B5937696C31 DUP4 PUSH1 0x40 MLOAD PUSH2 0xDC6 SWAP2 SWAP1 PUSH2 0x1ABC JUMP JUMPDEST PUSH1 0x40 MLOAD DUP1 SWAP2 SUB SWAP1 LOG3 POP POP JUMP JUMPDEST PUSH2 0xDDA PUSH2 0x14AE JUMP JUMPDEST PUSH0 SELFBALANCE GT PUSH2 0xE1C JUMPI PUSH1 0x40 MLOAD PUSH32 0x8C379A000000000000000000000000000000000000000000000000000000000 DUP2 MSTORE PUSH1 0x4 ADD PUSH2 0xE13 SWAP1 PUSH2 0x24D3 JUMP JUMPDEST PUSH1 0x40 MLOAD DUP1 SWAP2 SUB SWAP1 REVERT JUMPDEST PUSH0 CALLER PUSH20 0xFFFFFFFFFFFFFFFFFFFFFFFFFFFFFFFFFFFFFFFF AND SELFBALANCE PUSH1 0x40 MLOAD PUSH2 0xE41 SWAP1 PUSH2 0x251E JUMP JUMPDEST PUSH0 PUSH1 0x40 MLOAD DUP1 DUP4 SUB DUP2 DUP6 DUP8 GAS CALL SWAP3 POP POP POP RETURNDATASIZE DUP1 PUSH0 DUP2 EQ PUSH2 0xE7B JUMPI PUSH1 0x40 MLOAD SWAP2 POP PUSH1 0x1F NOT PUSH1 0x3F RETURNDATASIZE ADD AND DUP3 ADD PUSH1 0x40 MSTORE RETURNDATASIZE DUP3 MSTORE RETURNDATASIZE PUSH0 PUSH1 0x20 DUP5 ADD RETURNDATACOPY PUSH2 0xE80 JUMP JUMPDEST PUSH1 0x60 SWAP2 POP JUMPDEST POP POP SWAP1 POP DUP1 PUSH2 0xEC4 JUMPI PUSH1 0x40 MLOAD PUSH32 0x8C379A000000000000000000000000000000000000000000000000000000000 DUP2 MSTORE PUSH1 0x4 ADD PUSH2 0xEBB SWAP1 PUSH2 0x257C JUMP JUMPDEST PUSH1 0x40 MLOAD DUP1 SWAP2 SUB SWAP1 REVERT JUMPDEST POP JUMP JUMPDEST PUSH0 PUSH1 0xA SWAP1 POP SWAP1 JUMP JUMPDEST PUSH2 0xEDA DUP5 DUP5 DUP5 PUSH2 0x760 JUMP JUMPDEST PUSH0 DUP4 PUSH20 0xFFFFFFFFFFFFFFFFFFFFFFFFFFFFFFFFFFFFFFFF AND EXTCODESIZE EQ PUSH2 0xF1A JUMPI PUSH2 0xF04 DUP5 DUP5 DUP5 DUP5 PUSH2 0x17AA JUMP JUMPDEST PUSH2 0xF19 JUMPI PUSH2 0xF18 PUSH4 0xD1A57ED6 PUSH1 0xE0 SHL PUSH2 0x11BF JUMP JUMPDEST JUMPDEST JUMPDEST POP POP POP POP JUMP JUMPDEST PUSH1 0x60 PUSH0 PUSH1 0xB SLOAD SUB PUSH2 0xF4B JUMPI PUSH1 0x40 MLOAD DUP1 PUSH1 0xA0 ADD PUSH1 0x40 MSTORE DUP1 PUSH1 0x6D DUP2 MSTORE PUSH1 0x20 ADD PUSH2 0x276E PUSH1 0x6D SWAP2 CODECOPY SWAP1 POP PUSH2 0xFBF JUMP JUMPDEST PUSH2 0xF54 DUP3 PUSH2 0x111C JUMP JUMPDEST PUSH2 0xF69 JUMPI PUSH2 0xF68 PUSH4 0xA14C4B50 PUSH1 0xE0 SHL PUSH2 0x11BF JUMP JUMPDEST JUMPDEST PUSH0 PUSH2 0xF72 PUSH2 0x18D4 JUMP JUMPDEST SWAP1 POP PUSH0 DUP2 MLOAD SUB PUSH2 0xF90 JUMPI PUSH1 0x40 MLOAD DUP1 PUSH1 0x20 ADD PUSH1 0x40 MSTORE DUP1 PUSH0 DUP2 MSTORE POP PUSH2 0xFBB JUMP JUMPDEST DUP1 PUSH2 0xF9A DUP5 PUSH2 0x1964 JUMP JUMPDEST PUSH1 0x40 MLOAD PUSH1 0x20 ADD PUSH2 0xFAB SWAP3 SWAP2 SWAP1 PUSH2 0x25D4 JUMP JUMPDEST PUSH1 0x40 MLOAD PUSH1 0x20 DUP2 DUP4 SUB SUB DUP2 MSTORE SWAP1 PUSH1 0x40 MSTORE JUMPDEST SWAP2 POP POP JUMPDEST SWAP2 SWAP1 POP JUMP JUMPDEST PUSH0 PUSH1 0xA DUP3 PUSH2 0xFD1 CALLER PUSH2 0x1535 JUMP JUMPDEST PUSH2 0xFDB SWAP2 SWAP1 PUSH2 0x25F7 JUMP JUMPDEST GT ISZERO PUSH2 0xFF0 JUMPI PUSH7 0x18C2E7081226C9 SWAP1 POP PUSH2 0x1005 JUMP JUMPDEST PUSH6 0x5AF3107A4000 DUP3 PUSH2 0x1002 SWAP2 SWAP1 PUSH2 0x262A JUMP JUMPDEST SWAP1 POP JUMPDEST SWAP2 SWAP1 POP JUMP JUMPDEST PUSH0 PUSH1 0x7 PUSH0 DUP5 PUSH20 0xFFFFFFFFFFFFFFFFFFFFFFFFFFFFFFFFFFFFFFFF AND PUSH20 0xFFFFFFFFFFFFFFFFFFFFFFFFFFFFFFFFFFFFFFFF AND DUP2 MSTORE PUSH1 0x20 ADD SWAP1 DUP2 MSTORE PUSH1 0x20 ADD PUSH0 KECCAK256 PUSH0 DUP4 PUSH20 0xFFFFFFFFFFFFFFFFFFFFFFFFFFFFFFFFFFFFFFFF AND PUSH20 0xFFFFFFFFFFFFFFFFFFFFFFFFFFFFFFFFFFFFFFFF AND DUP2 MSTORE PUSH1 0x20 ADD SWAP1 DUP2 MSTORE PUSH1 0x20 ADD PUSH0 KECCAK256 PUSH0 SWAP1 SLOAD SWAP1 PUSH2 0x100 EXP SWAP1 DIV PUSH1 0xFF AND SWAP1 POP SWAP3 SWAP2 POP POP JUMP JUMPDEST PUSH2 0x10A0 PUSH2 0x14AE JUMP JUMPDEST PUSH0 PUSH20 0xFFFFFFFFFFFFFFFFFFFFFFFFFFFFFFFFFFFFFFFF AND DUP2 PUSH20 0xFFFFFFFFFFFFFFFFFFFFFFFFFFFFFFFFFFFFFFFF AND SUB PUSH2 0x1110 JUMPI PUSH0 PUSH1 0x40 MLOAD PUSH32 0x1E4FBDF700000000000000000000000000000000000000000000000000000000 DUP2 MSTORE PUSH1 0x4 ADD PUSH2 0x1107 SWAP2 SWAP1 PUSH2 0x1C02 JUMP JUMPDEST PUSH1 0x40 MLOAD DUP1 SWAP2 SUB SWAP1 REVERT JUMPDEST PUSH2 0x1119 DUP2 PUSH2 0x16E7 JUMP JUMPDEST POP JUMP JUMPDEST PUSH0 DUP2 PUSH2 0x1126 PUSH2 0x12F1 JUMP JUMPDEST GT PUSH2 0x11B9 JUMPI PUSH2 0x1133 PUSH2 0x12F9 JUMP JUMPDEST DUP3 GT ISZERO PUSH2 0x115B JUMPI PUSH2 0x1154 PUSH1 0x4 PUSH0 DUP5 DUP2 MSTORE PUSH1 0x20 ADD SWAP1 DUP2 MSTORE PUSH1 0x20 ADD PUSH0 KECCAK256 SLOAD PUSH2 0x19B3 JUMP JUMPDEST SWAP1 POP PUSH2 0x11BA JUMP JUMPDEST PUSH0 SLOAD DUP3 LT ISZERO PUSH2 0x11B8 JUMPI PUSH0 JUMPDEST PUSH0 PUSH1 0x4 PUSH0 DUP6 DUP2 MSTORE PUSH1 0x20 ADD SWAP1 DUP2 MSTORE PUSH1 0x20 ADD PUSH0 KECCAK256 SLOAD SWAP2 POP DUP2 SUB PUSH2 0x1192 JUMPI DUP3 PUSH2 0x118B SWAP1 PUSH2 0x266B JUMP JUMPDEST SWAP3 POP PUSH2 0x1166 JUMP JUMPDEST PUSH0 PUSH29 0x100000000000000000000000000000000000000000000000000000000 DUP3 AND EQ SWAP2 POP POP JUMPDEST JUMPDEST JUMPDEST SWAP2 SWAP1 POP JUMP JUMPDEST DUP1 PUSH0 MSTORE PUSH1 0x4 PUSH0 REVERT JUMPDEST PUSH0 PUSH2 0x11D1 DUP4 PUSH2 0xA8F JUMP JUMPDEST SWAP1 POP DUP2 DUP1 ISZERO PUSH2 0x1213 JUMPI POP DUP1 PUSH20 0xFFFFFFFFFFFFFFFFFFFFFFFFFFFFFFFFFFFFFFFF AND PUSH2 0x11FA PUSH2 0x1439 JUMP JUMPDEST PUSH20 0xFFFFFFFFFFFFFFFFFFFFFFFFFFFFFFFFFFFFFFFF AND EQ ISZERO JUMPDEST ISZERO PUSH2 0x123F JUMPI PUSH2 0x1229 DUP2 PUSH2 0x1224 PUSH2 0x1439 JUMP JUMPDEST PUSH2 0x100A JUMP JUMPDEST PUSH2 0x123E JUMPI PUSH2 0x123D PUSH4 0xCFB3B942 PUSH1 0xE0 SHL PUSH2 0x11BF JUMP JUMPDEST JUMPDEST JUMPDEST DUP4 PUSH1 0x6 PUSH0 DUP6 DUP2 MSTORE PUSH1 0x20 ADD SWAP1 DUP2 MSTORE PUSH1 0x20 ADD PUSH0 KECCAK256 PUSH0 ADD PUSH0 PUSH2 0x100 EXP DUP2 SLOAD DUP2 PUSH20 0xFFFFFFFFFFFFFFFFFFFFFFFFFFFFFFFFFFFFFFFF MUL NOT AND SWAP1 DUP4 PUSH20 0xFFFFFFFFFFFFFFFFFFFFFFFFFFFFFFFFFFFFFFFF AND MUL OR SWAP1 SSTORE POP DUP3 DUP5 PUSH20 0xFFFFFFFFFFFFFFFFFFFFFFFFFFFFFFFFFFFFFFFF AND DUP3 PUSH20 0xFFFFFFFFFFFFFFFFFFFFFFFFFFFFFFFFFFFFFFFF AND PUSH32 0x8C5BE1E5EBEC7D5BD14F71427D1E84F3DD0314C0F7B2291E5B200AC8C7C3B925 PUSH1 0x40 MLOAD PUSH1 0x40 MLOAD DUP1 SWAP2 SUB SWAP1 LOG4 POP POP POP POP JUMP JUMPDEST PUSH0 PUSH1 0x1 SWAP1 POP SWAP1 JUMP JUMPDEST PUSH0 PUSH2 0x1302 PUSH2 0xA60 JUMP JUMPDEST SWAP1 POP SWAP1 JUMP JUMPDEST PUSH0 DUP2 PUSH2 0x1311 PUSH2 0x12F1 JUMP JUMPDEST GT PUSH2 0x1400 JUMPI PUSH1 0x4 PUSH0 DUP4 DUP2 MSTORE PUSH1 0x20 ADD SWAP1 DUP2 MSTORE PUSH1 0x20 ADD PUSH0 KECCAK256 SLOAD SWAP1 POP PUSH2 0x1332 PUSH2 0x12F9 JUMP JUMPDEST DUP3 GT ISZERO PUSH2 0x1357 JUMPI PUSH2 0x1342 DUP2 PUSH2 0x19B3 JUMP JUMPDEST PUSH2 0x1411 JUMPI PUSH2 0x1356 PUSH4 0xDF2D9B42 PUSH1 0xE0 SHL PUSH2 0x11BF JUMP JUMPDEST JUMPDEST PUSH0 DUP2 SUB PUSH2 0x13D8 JUMPI PUSH0 SLOAD DUP3 LT PUSH2 0x1377 JUMPI PUSH2 0x1376 PUSH4 0xDF2D9B42 PUSH1 0xE0 SHL PUSH2 0x11BF JUMP JUMPDEST JUMPDEST JUMPDEST PUSH1 0x4 PUSH0 DUP4 PUSH1 0x1 SWAP1 SUB SWAP4 POP DUP4 DUP2 MSTORE PUSH1 0x20 ADD SWAP1 DUP2 MSTORE PUSH1 0x20 ADD PUSH0 KECCAK256 SLOAD SWAP1 POP PUSH0 DUP2 SUB ISZERO PUSH2 0x13D3 JUMPI PUSH0 PUSH29 0x100000000000000000000000000000000000000000000000000000000 DUP3 AND SUB ISZERO PUSH2 0x1411 JUMPI PUSH2 0x13D2 PUSH4 0xDF2D9B42 PUSH1 0xE0 SHL PUSH2 0x11BF JUMP JUMPDEST JUMPDEST PUSH2 0x1378 JUMP JUMPDEST PUSH0 PUSH29 0x100000000000000000000000000000000000000000000000000000000 DUP3 AND SUB ISZERO PUSH2 0x1411 JUMPI JUMPDEST PUSH2 0x1410 PUSH4 0xDF2D9B42 PUSH1 0xE0 SHL PUSH2 0x11BF JUMP JUMPDEST JUMPDEST SWAP2 SWAP1 POP JUMP JUMPDEST PUSH0 DUP1 PUSH0 PUSH1 0x6 PUSH0 DUP6 DUP2 MSTORE PUSH1 0x20 ADD SWAP1 DUP2 MSTORE PUSH1 0x20 ADD PUSH0 KECCAK256 SWAP1 POP DUP1 SWAP3 POP DUP3 SLOAD SWAP2 POP POP SWAP2 POP SWAP2 JUMP JUMPDEST PUSH0 CALLER SWAP1 POP SWAP1 JUMP JUMPDEST PUSH0 DUP4 DUP3 EQ DUP4 DUP4 EQ OR SWAP1 POP SWAP4 SWAP3 POP POP POP JUMP JUMPDEST POP POP POP POP JUMP JUMPDEST PUSH0 DUP1 PUSH1 0xE8 DUP4 SWAP1 SHR SWAP1 POP PUSH1 0xE8 PUSH2 0x146D DUP7 DUP7 DUP5 PUSH2 0x19F3 JUMP JUMPDEST PUSH3 0xFFFFFF AND SWAP1 SHL SWAP2 POP POP SWAP4 SWAP3 POP POP POP JUMP JUMPDEST PUSH0 PUSH20 0xFFFFFFFFFFFFFFFFFFFFFFFFFFFFFFFFFFFFFFFF DUP4 AND SWAP3 POP DUP2 TIMESTAMP PUSH1 0xA0 SHL OR DUP4 OR SWAP1 POP SWAP3 SWAP2 POP POP JUMP JUMPDEST POP POP POP POP JUMP JUMPDEST PUSH2 0x14B6 PUSH2 0x19FB JUMP JUMPDEST PUSH20 0xFFFFFFFFFFFFFFFFFFFFFFFFFFFFFFFFFFFFFFFF AND PUSH2 0x14D4 PUSH2 0xB47 JUMP JUMPDEST PUSH20 0xFFFFFFFFFFFFFFFFFFFFFFFFFFFFFFFFFFFFFFFF AND EQ PUSH2 0x1533 JUMPI PUSH2 0x14F7 PUSH2 0x19FB JUMP JUMPDEST PUSH1 0x40 MLOAD PUSH32 0x118CDAA700000000000000000000000000000000000000000000000000000000 DUP2 MSTORE PUSH1 0x4 ADD PUSH2 0x152A SWAP2 SWAP1 PUSH2 0x1C02 JUMP JUMPDEST PUSH1 0x40 MLOAD DUP1 SWAP2 SUB SWAP1 REVERT JUMPDEST JUMP JUMPDEST PUSH0 PUSH8 0xFFFFFFFFFFFFFFFF PUSH1 0x40 PUSH1 0x5 PUSH0 DUP6 PUSH20 0xFFFFFFFFFFFFFFFFFFFFFFFFFFFFFFFFFFFFFFFF AND PUSH20 0xFFFFFFFFFFFFFFFFFFFFFFFFFFFFFFFFFFFFFFFF AND DUP2 MSTORE PUSH1 0x20 ADD SWAP1 DUP2 MSTORE PUSH1 0x20 ADD PUSH0 KECCAK256 SLOAD SWAP1 SHR AND SWAP1 POP SWAP2 SWAP1 POP JUMP JUMPDEST PUSH0 DUP1 SLOAD SWAP1 POP PUSH0 DUP3 SUB PUSH2 0x15A6 JUMPI PUSH2 0x15A5 PUSH4 0xB562E8DD PUSH1 0xE0 SHL PUSH2 0x11BF JUMP JUMPDEST JUMPDEST PUSH2 0x15B2 PUSH0 DUP5 DUP4 DUP6 PUSH2 0x1451 JUMP JUMPDEST PUSH2 0x15D0 DUP4 PUSH2 0x15C1 PUSH0 DUP7 PUSH0 PUSH2 0x1457 JUMP JUMPDEST PUSH2 0x15CA DUP6 PUSH2 0x1A02 JUMP JUMPDEST OR PUSH2 0x147E JUMP JUMPDEST PUSH1 0x4 PUSH0 DUP4 DUP2 MSTORE PUSH1 0x20 ADD SWAP1 DUP2 MSTORE PUSH1 0x20 ADD PUSH0 KECCAK256 DUP2 SWAP1 SSTORE POP PUSH1 0x1 PUSH1 0x40 PUSH1 0x1 SWAP1 SHL OR DUP3 MUL PUSH1 0x5 PUSH0 DUP6 PUSH20 0xFFFFFFFFFFFFFFFFFFFFFFFFFFFFFFFFFFFFFFFF AND PUSH20 0xFFFFFFFFFFFFFFFFFFFFFFFFFFFFFFFFFFFFFFFF AND DUP2 MSTORE PUSH1 0x20 ADD SWAP1 DUP2 MSTORE PUSH1 0x20 ADD PUSH0 KECCAK256 PUSH0 DUP3 DUP3 SLOAD ADD SWAP3 POP POP DUP2 SWAP1 SSTORE POP PUSH0 DUP4 PUSH20 0xFFFFFFFFFFFFFFFFFFFFFFFFFFFFFFFFFFFFFFFF AND SWAP1 POP PUSH0 DUP2 SUB PUSH2 0x166B JUMPI PUSH2 0x166A PUSH4 0x2E076300 PUSH1 0xE0 SHL PUSH2 0x11BF JUMP JUMPDEST JUMPDEST PUSH0 DUP4 DUP4 ADD SWAP1 POP PUSH0 DUP4 SWAP1 POP PUSH2 0x167D PUSH2 0x12F9 JUMP JUMPDEST PUSH1 0x1 DUP4 SUB GT ISZERO PUSH2 0x1698 JUMPI PUSH2 0x1697 PUSH4 0x81647E3A PUSH1 0xE0 SHL PUSH2 0x11BF JUMP JUMPDEST JUMPDEST JUMPDEST DUP1 DUP4 PUSH0 PUSH32 0xDDF252AD1BE2C89B69C2B068FC378DAA952BA7F163C4A11628F55A4DF523B3EF PUSH0 DUP1 LOG4 DUP2 DUP2 PUSH1 0x1 ADD SWAP2 POP DUP2 SUB PUSH2 0x1699 JUMPI DUP2 PUSH0 DUP2 SWAP1 SSTORE POP POP POP POP PUSH2 0x16E2 PUSH0 DUP5 DUP4 DUP6 PUSH2 0x14A8 JUMP JUMPDEST POP POP POP JUMP JUMPDEST PUSH0 PUSH1 0x9 PUSH0 SWAP1 SLOAD SWAP1 PUSH2 0x100 EXP SWAP1 DIV PUSH20 0xFFFFFFFFFFFFFFFFFFFFFFFFFFFFFFFFFFFFFFFF AND SWAP1 POP DUP2 PUSH1 0x9 PUSH0 PUSH2 0x100 EXP DUP2 SLOAD DUP2 PUSH20 0xFFFFFFFFFFFFFFFFFFFFFFFFFFFFFFFFFFFFFFFF MUL NOT AND SWAP1 DUP4 PUSH20 0xFFFFFFFFFFFFFFFFFFFFFFFFFFFFFFFFFFFFFFFF AND MUL OR SWAP1 SSTORE POP DUP2 PUSH20 0xFFFFFFFFFFFFFFFFFFFFFFFFFFFFFFFFFFFFFFFF AND DUP2 PUSH20 0xFFFFFFFFFFFFFFFFFFFFFFFFFFFFFFFFFFFFFFFF AND PUSH32 0x8BE0079C531659141344CD1FD0A4F28419497F9722A3DAAFE3B4186F6B6457E0 PUSH1 0x40 MLOAD PUSH1 0x40 MLOAD DUP1 SWAP2 SUB SWAP1 LOG3 POP POP JUMP JUMPDEST PUSH0 DUP4 PUSH20 0xFFFFFFFFFFFFFFFFFFFFFFFFFFFFFFFFFFFFFFFF AND PUSH4 0x150B7A02 PUSH2 0x17CF PUSH2 0x1439 JUMP JUMPDEST DUP8 DUP7 DUP7 PUSH1 0x40 MLOAD DUP6 PUSH4 0xFFFFFFFF AND PUSH1 0xE0 SHL DUP2 MSTORE PUSH1 0x4 ADD PUSH2 0x17F1 SWAP5 SWAP4 SWAP3 SWAP2 SWAP1 PUSH2 0x26E4 JUMP JUMPDEST PUSH1 0x20 PUSH1 0x40 MLOAD DUP1 DUP4 SUB DUP2 PUSH0 DUP8 GAS CALL SWAP3 POP POP POP DUP1 ISZERO PUSH2 0x182C JUMPI POP PUSH1 0x40 MLOAD RETURNDATASIZE PUSH1 0x1F NOT PUSH1 0x1F DUP3 ADD AND DUP3 ADD DUP1 PUSH1 0x40 MSTORE POP DUP2 ADD SWAP1 PUSH2 0x1829 SWAP2 SWAP1 PUSH2 0x2742 JUMP JUMPDEST PUSH1 0x1 JUMPDEST PUSH2 0x1881 JUMPI RETURNDATASIZE DUP1 PUSH0 DUP2 EQ PUSH2 0x185A JUMPI PUSH1 0x40 MLOAD SWAP2 POP PUSH1 0x1F NOT PUSH1 0x3F RETURNDATASIZE ADD AND DUP3 ADD PUSH1 0x40 MSTORE RETURNDATASIZE DUP3 MSTORE RETURNDATASIZE PUSH0 PUSH1 0x20 DUP5 ADD RETURNDATACOPY PUSH2 0x185F JUMP JUMPDEST PUSH1 0x60 SWAP2 POP JUMPDEST POP PUSH0 DUP2 MLOAD SUB PUSH2 0x1879 JUMPI PUSH2 0x1878 PUSH4 0xD1A57ED6 PUSH1 0xE0 SHL PUSH2 0x11BF JUMP JUMPDEST JUMPDEST DUP1 MLOAD DUP2 PUSH1 0x20 ADD REVERT JUMPDEST PUSH4 0x150B7A02 PUSH1 0xE0 SHL PUSH28 0xFFFFFFFFFFFFFFFFFFFFFFFFFFFFFFFFFFFFFFFFFFFFFFFFFFFFFFFF NOT AND DUP2 PUSH28 0xFFFFFFFFFFFFFFFFFFFFFFFFFFFFFFFFFFFFFFFFFFFFFFFFFFFFFFFF NOT AND EQ SWAP2 POP POP SWAP5 SWAP4 POP POP POP POP JUMP JUMPDEST PUSH1 0x60 PUSH1 0xA DUP1 SLOAD PUSH2 0x18E3 SWAP1 PUSH2 0x204D JUMP JUMPDEST DUP1 PUSH1 0x1F ADD PUSH1 0x20 DUP1 SWAP2 DIV MUL PUSH1 0x20 ADD PUSH1 0x40 MLOAD SWAP1 DUP2 ADD PUSH1 0x40 MSTORE DUP1 SWAP3 SWAP2 SWAP1 DUP2 DUP2 MSTORE PUSH1 0x20 ADD DUP3 DUP1 SLOAD PUSH2 0x190F SWAP1 PUSH2 0x204D JUMP JUMPDEST DUP1 ISZERO PUSH2 0x195A JUMPI DUP1 PUSH1 0x1F LT PUSH2 0x1931 JUMPI PUSH2 0x100 DUP1 DUP4 SLOAD DIV MUL DUP4 MSTORE SWAP2 PUSH1 0x20 ADD SWAP2 PUSH2 0x195A JUMP JUMPDEST DUP3 ADD SWAP2 SWAP1 PUSH0 MSTORE PUSH1 0x20 PUSH0 KECCAK256 SWAP1 JUMPDEST DUP2 SLOAD DUP2 MSTORE SWAP1 PUSH1 0x1 ADD SWAP1 PUSH1 0x20 ADD DUP1 DUP4 GT PUSH2 0x193D JUMPI DUP3 SWAP1 SUB PUSH1 0x1F AND DUP3 ADD SWAP2 JUMPDEST POP POP POP POP POP SWAP1 POP SWAP1 JUMP JUMPDEST PUSH1 0x60 PUSH1 0xA0 PUSH1 0x40 MLOAD ADD DUP1 PUSH1 0x40 MSTORE PUSH1 0x20 DUP2 SUB SWAP2 POP PUSH0 DUP3 MSTORE DUP2 DUP4 JUMPDEST PUSH1 0x1 ISZERO PUSH2 0x199E JUMPI PUSH1 0x1 DUP5 SUB SWAP4 POP PUSH1 0xA DUP2 MOD PUSH1 0x30 ADD DUP5 MSTORE8 PUSH1 0xA DUP2 DIV SWAP1 POP DUP1 PUSH2 0x197C JUMPI JUMPDEST POP DUP3 DUP2 SUB PUSH1 0x20 DUP5 SUB SWAP4 POP DUP1 DUP5 MSTORE POP POP POP SWAP2 SWAP1 POP JUMP JUMPDEST PUSH0 PUSH29 0x100000000000000000000000000000000000000000000000000000000 DUP3 AND PUSH20 0xFFFFFFFFFFFFFFFFFFFFFFFFFFFFFFFFFFFFFFFF DUP4 AND GT SWAP1 POP SWAP2 SWAP1 POP JUMP JUMPDEST PUSH0 SWAP4 SWAP3 POP POP POP JUMP JUMPDEST PUSH0 CALLER SWAP1 POP SWAP1 JUMP JUMPDEST PUSH0 PUSH1 0x1 DUP3 EQ PUSH1 0xE1 SHL SWAP1 POP SWAP2 SWAP1 POP JUMP JUMPDEST PUSH0 PUSH1 0x40 MLOAD SWAP1 POP SWAP1 JUMP JUMPDEST PUSH0 DUP1 REVERT JUMPDEST PUSH0 DUP1 REVERT JUMPDEST PUSH0 PUSH32 0xFFFFFFFF00000000000000000000000000000000000000000000000000000000 DUP3 AND SWAP1 POP SWAP2 SWAP1 POP JUMP JUMPDEST PUSH2 0x1A56 DUP2 PUSH2 0x1A22 JUMP JUMPDEST DUP2 EQ PUSH2 0x1A60 JUMPI PUSH0 DUP1 REVERT JUMPDEST POP JUMP JUMPDEST PUSH0 DUP2 CALLDATALOAD SWAP1 POP PUSH2 0x1A71 DUP2 PUSH2 0x1A4D JUMP JUMPDEST SWAP3 SWAP2 POP POP JUMP JUMPDEST PUSH0 PUSH1 0x20 DUP3 DUP5 SUB SLT ISZERO PUSH2 0x1A8C JUMPI PUSH2 0x1A8B PUSH2 0x1A1A JUMP JUMPDEST JUMPDEST PUSH0 PUSH2 0x1A99 DUP5 DUP3 DUP6 ADD PUSH2 0x1A63 JUMP JUMPDEST SWAP2 POP POP SWAP3 SWAP2 POP POP JUMP JUMPDEST PUSH0 DUP2 ISZERO ISZERO SWAP1 POP SWAP2 SWAP1 POP JUMP JUMPDEST PUSH2 0x1AB6 DUP2 PUSH2 0x1AA2 JUMP JUMPDEST DUP3 MSTORE POP POP JUMP JUMPDEST PUSH0 PUSH1 0x20 DUP3 ADD SWAP1 POP PUSH2 0x1ACF PUSH0 DUP4 ADD DUP5 PUSH2 0x1AAD JUMP JUMPDEST SWAP3 SWAP2 POP POP JUMP JUMPDEST PUSH0 DUP2 MLOAD SWAP1 POP SWAP2 SWAP1 POP JUMP JUMPDEST PUSH0 DUP3 DUP3 MSTORE PUSH1 0x20 DUP3 ADD SWAP1 POP SWAP3 SWAP2 POP POP JUMP JUMPDEST DUP3 DUP2 DUP4 MCOPY PUSH0 DUP4 DUP4 ADD MSTORE POP POP POP JUMP JUMPDEST PUSH0 PUSH1 0x1F NOT PUSH1 0x1F DUP4 ADD AND SWAP1 POP SWAP2 SWAP1 POP JUMP JUMPDEST PUSH0 PUSH2 0x1B17 DUP3 PUSH2 0x1AD5 JUMP JUMPDEST PUSH2 0x1B21 DUP2 DUP6 PUSH2 0x1ADF JUMP JUMPDEST SWAP4 POP PUSH2 0x1B31 DUP2 DUP6 PUSH1 0x20 DUP7 ADD PUSH2 0x1AEF JUMP JUMPDEST PUSH2 0x1B3A DUP2 PUSH2 0x1AFD JUMP JUMPDEST DUP5 ADD SWAP2 POP POP SWAP3 SWAP2 POP POP JUMP JUMPDEST PUSH0 PUSH1 0x20 DUP3 ADD SWAP1 POP DUP2 DUP2 SUB PUSH0 DUP4 ADD MSTORE PUSH2 0x1B5D DUP2 DUP5 PUSH2 0x1B0D JUMP JUMPDEST SWAP1 POP SWAP3 SWAP2 POP POP JUMP JUMPDEST PUSH0 DUP2 SWAP1 POP SWAP2 SWAP1 POP JUMP JUMPDEST PUSH2 0x1B77 DUP2 PUSH2 0x1B65 JUMP JUMPDEST DUP2 EQ PUSH2 0x1B81 JUMPI PUSH0 DUP1 REVERT JUMPDEST POP JUMP JUMPDEST PUSH0 DUP2 CALLDATALOAD SWAP1 POP PUSH2 0x1B92 DUP2 PUSH2 0x1B6E JUMP JUMPDEST SWAP3 SWAP2 POP POP JUMP JUMPDEST PUSH0 PUSH1 0x20 DUP3 DUP5 SUB SLT ISZERO PUSH2 0x1BAD JUMPI PUSH2 0x1BAC PUSH2 0x1A1A JUMP JUMPDEST JUMPDEST PUSH0 PUSH2 0x1BBA DUP5 DUP3 DUP6 ADD PUSH2 0x1B84 JUMP JUMPDEST SWAP2 POP POP SWAP3 SWAP2 POP POP JUMP JUMPDEST PUSH0 PUSH20 0xFFFFFFFFFFFFFFFFFFFFFFFFFFFFFFFFFFFFFFFF DUP3 AND SWAP1 POP SWAP2 SWAP1 POP JUMP JUMPDEST PUSH0 PUSH2 0x1BEC DUP3 PUSH2 0x1BC3 JUMP JUMPDEST SWAP1 POP SWAP2 SWAP1 POP JUMP JUMPDEST PUSH2 0x1BFC DUP2 PUSH2 0x1BE2 JUMP JUMPDEST DUP3 MSTORE POP POP JUMP JUMPDEST PUSH0 PUSH1 0x20 DUP3 ADD SWAP1 POP PUSH2 0x1C15 PUSH0 DUP4 ADD DUP5 PUSH2 0x1BF3 JUMP JUMPDEST SWAP3 SWAP2 POP POP JUMP JUMPDEST PUSH2 0x1C24 DUP2 PUSH2 0x1BE2 JUMP JUMPDEST DUP2 EQ PUSH2 0x1C2E JUMPI PUSH0 DUP1 REVERT JUMPDEST POP JUMP JUMPDEST PUSH0 DUP2 CALLDATALOAD SWAP1 POP PUSH2 0x1C3F DUP2 PUSH2 0x1C1B JUMP JUMPDEST SWAP3 SWAP2 POP POP JUMP JUMPDEST PUSH0 DUP1 PUSH1 0x40 DUP4 DUP6 SUB SLT ISZERO PUSH2 0x1C5B JUMPI PUSH2 0x1C5A PUSH2 0x1A1A JUMP JUMPDEST JUMPDEST PUSH0 PUSH2 0x1C68 DUP6 DUP3 DUP7 ADD PUSH2 0x1C31 JUMP JUMPDEST SWAP3 POP POP PUSH1 0x20 PUSH2 0x1C79 DUP6 DUP3 DUP7 ADD PUSH2 0x1B84 JUMP JUMPDEST SWAP2 POP POP SWAP3 POP SWAP3 SWAP1 POP JUMP JUMPDEST PUSH2 0x1C8C DUP2 PUSH2 0x1B65 JUMP JUMPDEST DUP3 MSTORE POP POP JUMP JUMPDEST PUSH0 PUSH1 0x20 DUP3 ADD SWAP1 POP PUSH2 0x1CA5 PUSH0 DUP4 ADD DUP5 PUSH2 0x1C83 JUMP JUMPDEST SWAP3 SWAP2 POP POP JUMP JUMPDEST PUSH0 DUP1 PUSH0 PUSH1 0x60 DUP5 DUP7 SUB SLT ISZERO PUSH2 0x1CC2 JUMPI PUSH2 0x1CC1 PUSH2 0x1A1A JUMP JUMPDEST JUMPDEST PUSH0 PUSH2 0x1CCF DUP7 DUP3 DUP8 ADD PUSH2 0x1C31 JUMP JUMPDEST SWAP4 POP POP PUSH1 0x20 PUSH2 0x1CE0 DUP7 DUP3 DUP8 ADD PUSH2 0x1C31 JUMP JUMPDEST SWAP3 POP POP PUSH1 0x40 PUSH2 0x1CF1 DUP7 DUP3 DUP8 ADD PUSH2 0x1B84 JUMP JUMPDEST SWAP2 POP POP SWAP3 POP SWAP3 POP SWAP3 JUMP JUMPDEST PUSH0 DUP1 REVERT JUMPDEST PUSH0 DUP1 REVERT JUMPDEST PUSH0 DUP1 REVERT JUMPDEST PUSH0 DUP1 DUP4 PUSH1 0x1F DUP5 ADD SLT PUSH2 0x1D1C JUMPI PUSH2 0x1D1B PUSH2 0x1CFB JUMP JUMPDEST JUMPDEST DUP3 CALLDATALOAD SWAP1 POP PUSH8 0xFFFFFFFFFFFFFFFF DUP2 GT ISZERO PUSH2 0x1D39 JUMPI PUSH2 0x1D38 PUSH2 0x1CFF JUMP JUMPDEST JUMPDEST PUSH1 0x20 DUP4 ADD SWAP2 POP DUP4 PUSH1 0x1 DUP3 MUL DUP4 ADD GT ISZERO PUSH2 0x1D55 JUMPI PUSH2 0x1D54 PUSH2 0x1D03 JUMP JUMPDEST JUMPDEST SWAP3 POP SWAP3 SWAP1 POP JUMP JUMPDEST PUSH0 DUP1 PUSH1 0x20 DUP4 DUP6 SUB SLT ISZERO PUSH2 0x1D72 JUMPI PUSH2 0x1D71 PUSH2 0x1A1A JUMP JUMPDEST JUMPDEST PUSH0 DUP4 ADD CALLDATALOAD PUSH8 0xFFFFFFFFFFFFFFFF DUP2 GT ISZERO PUSH2 0x1D8F JUMPI PUSH2 0x1D8E PUSH2 0x1A1E JUMP JUMPDEST JUMPDEST PUSH2 0x1D9B DUP6 DUP3 DUP7 ADD PUSH2 0x1D07 JUMP JUMPDEST SWAP3 POP SWAP3 POP POP SWAP3 POP SWAP3 SWAP1 POP JUMP JUMPDEST PUSH0 PUSH1 0x20 DUP3 DUP5 SUB SLT ISZERO PUSH2 0x1DBC JUMPI PUSH2 0x1DBB PUSH2 0x1A1A JUMP JUMPDEST JUMPDEST PUSH0 PUSH2 0x1DC9 DUP5 DUP3 DUP6 ADD PUSH2 0x1C31 JUMP JUMPDEST SWAP2 POP POP SWAP3 SWAP2 POP POP JUMP JUMPDEST PUSH2 0x1DDB DUP2 PUSH2 0x1AA2 JUMP JUMPDEST DUP2 EQ PUSH2 0x1DE5 JUMPI PUSH0 DUP1 REVERT JUMPDEST POP JUMP JUMPDEST PUSH0 DUP2 CALLDATALOAD SWAP1 POP PUSH2 0x1DF6 DUP2 PUSH2 0x1DD2 JUMP JUMPDEST SWAP3 SWAP2 POP POP JUMP JUMPDEST PUSH0 DUP1 PUSH1 0x40 DUP4 DUP6 SUB SLT ISZERO PUSH2 0x1E12 JUMPI PUSH2 0x1E11 PUSH2 0x1A1A JUMP JUMPDEST JUMPDEST PUSH0 PUSH2 0x1E1F DUP6 DUP3 DUP7 ADD PUSH2 0x1C31 JUMP JUMPDEST SWAP3 POP POP PUSH1 0x20 PUSH2 0x1E30 DUP6 DUP3 DUP7 ADD PUSH2 0x1DE8 JUMP JUMPDEST SWAP2 POP POP SWAP3 POP SWAP3 SWAP1 POP JUMP JUMPDEST PUSH0 DUP1 REVERT JUMPDEST PUSH32 0x4E487B7100000000000000000000000000000000000000000000000000000000 PUSH0 MSTORE PUSH1 0x41 PUSH1 0x4 MSTORE PUSH1 0x24 PUSH0 REVERT JUMPDEST PUSH2 0x1E74 DUP3 PUSH2 0x1AFD JUMP JUMPDEST DUP2 ADD DUP2 DUP2 LT PUSH8 0xFFFFFFFFFFFFFFFF DUP3 GT OR ISZERO PUSH2 0x1E93 JUMPI PUSH2 0x1E92 PUSH2 0x1E3E JUMP JUMPDEST JUMPDEST DUP1 PUSH1 0x40 MSTORE POP POP POP JUMP JUMPDEST PUSH0 PUSH2 0x1EA5 PUSH2 0x1A11 JUMP JUMPDEST SWAP1 POP PUSH2 0x1EB1 DUP3 DUP3 PUSH2 0x1E6B JUMP JUMPDEST SWAP2 SWAP1 POP JUMP JUMPDEST PUSH0 PUSH8 0xFFFFFFFFFFFFFFFF DUP3 GT ISZERO PUSH2 0x1ED0 JUMPI PUSH2 0x1ECF PUSH2 0x1E3E JUMP JUMPDEST JUMPDEST PUSH2 0x1ED9 DUP3 PUSH2 0x1AFD JUMP JUMPDEST SWAP1 POP PUSH1 0x20 DUP2 ADD SWAP1 POP SWAP2 SWAP1 POP JUMP JUMPDEST DUP3 DUP2 DUP4 CALLDATACOPY PUSH0 DUP4 DUP4 ADD MSTORE POP POP POP JUMP JUMPDEST PUSH0 PUSH2 0x1F06 PUSH2 0x1F01 DUP5 PUSH2 0x1EB6 JUMP JUMPDEST PUSH2 0x1E9C JUMP JUMPDEST SWAP1 POP DUP3 DUP2 MSTORE PUSH1 0x20 DUP2 ADD DUP5 DUP5 DUP5 ADD GT ISZERO PUSH2 0x1F22 JUMPI PUSH2 0x1F21 PUSH2 0x1E3A JUMP JUMPDEST JUMPDEST PUSH2 0x1F2D DUP5 DUP3 DUP6 PUSH2 0x1EE6 JUMP JUMPDEST POP SWAP4 SWAP3 POP POP POP JUMP JUMPDEST PUSH0 DUP3 PUSH1 0x1F DUP4 ADD SLT PUSH2 0x1F49 JUMPI PUSH2 0x1F48 PUSH2 0x1CFB JUMP JUMPDEST JUMPDEST DUP2 CALLDATALOAD PUSH2 0x1F59 DUP5 DUP3 PUSH1 0x20 DUP7 ADD PUSH2 0x1EF4 JUMP JUMPDEST SWAP2 POP POP SWAP3 SWAP2 POP POP JUMP JUMPDEST PUSH0 DUP1 PUSH0 DUP1 PUSH1 0x80 DUP6 DUP8 SUB SLT ISZERO PUSH2 0x1F7A JUMPI PUSH2 0x1F79 PUSH2 0x1A1A JUMP JUMPDEST JUMPDEST PUSH0 PUSH2 0x1F87 DUP8 DUP3 DUP9 ADD PUSH2 0x1C31 JUMP JUMPDEST SWAP5 POP POP PUSH1 0x20 PUSH2 0x1F98 DUP8 DUP3 DUP9 ADD PUSH2 0x1C31 JUMP JUMPDEST SWAP4 POP POP PUSH1 0x40 PUSH2 0x1FA9 DUP8 DUP3 DUP9 ADD PUSH2 0x1B84 JUMP JUMPDEST SWAP3 POP POP PUSH1 0x60 DUP6 ADD CALLDATALOAD PUSH8 0xFFFFFFFFFFFFFFFF DUP2 GT ISZERO PUSH2 0x1FCA JUMPI PUSH2 0x1FC9 PUSH2 0x1A1E JUMP JUMPDEST JUMPDEST PUSH2 0x1FD6 DUP8 DUP3 DUP9 ADD PUSH2 0x1F35 JUMP JUMPDEST SWAP2 POP POP SWAP3 SWAP6 SWAP2 SWAP5 POP SWAP3 POP JUMP JUMPDEST PUSH0 DUP1 PUSH1 0x40 DUP4 DUP6 SUB SLT ISZERO PUSH2 0x1FF8 JUMPI PUSH2 0x1FF7 PUSH2 0x1A1A JUMP JUMPDEST JUMPDEST PUSH0 PUSH2 0x2005 DUP6 DUP3 DUP7 ADD PUSH2 0x1C31 JUMP JUMPDEST SWAP3 POP POP PUSH1 0x20 PUSH2 0x2016 DUP6 DUP3 DUP7 ADD PUSH2 0x1C31 JUMP JUMPDEST SWAP2 POP POP SWAP3 POP SWAP3 SWAP1 POP JUMP JUMPDEST PUSH32 0x4E487B7100000000000000000000000000000000000000000000000000000000 PUSH0 MSTORE PUSH1 0x22 PUSH1 0x4 MSTORE PUSH1 0x24 PUSH0 REVERT JUMPDEST PUSH0 PUSH1 0x2 DUP3 DIV SWAP1 POP PUSH1 0x1 DUP3 AND DUP1 PUSH2 0x2064 JUMPI PUSH1 0x7F DUP3 AND SWAP2 POP JUMPDEST PUSH1 0x20 DUP3 LT DUP2 SUB PUSH2 0x2077 JUMPI PUSH2 0x2076 PUSH2 0x2020 JUMP JUMPDEST JUMPDEST POP SWAP2 SWAP1 POP JUMP JUMPDEST PUSH32 0x6E6F20646576206D696E74206C65667400000000000000000000000000000000 PUSH0 DUP3 ADD MSTORE POP JUMP JUMPDEST PUSH0 PUSH2 0x20B1 PUSH1 0x10 DUP4 PUSH2 0x1ADF JUMP JUMPDEST SWAP2 POP PUSH2 0x20BC DUP3 PUSH2 0x207D JUMP JUMPDEST PUSH1 0x20 DUP3 ADD SWAP1 POP SWAP2 SWAP1 POP JUMP JUMPDEST PUSH0 PUSH1 0x20 DUP3 ADD SWAP1 POP DUP2 DUP2 SUB PUSH0 DUP4 ADD MSTORE PUSH2 0x20DE DUP2 PUSH2 0x20A5 JUMP JUMPDEST SWAP1 POP SWAP2 SWAP1 POP JUMP JUMPDEST PUSH0 DUP3 SWAP1 POP SWAP3 SWAP2 POP POP JUMP JUMPDEST PUSH0 DUP2 SWAP1 POP DUP2 PUSH0 MSTORE PUSH1 0x20 PUSH0 KECCAK256 SWAP1 POP SWAP2 SWAP1 POP JUMP JUMPDEST PUSH0 PUSH1 0x20 PUSH1 0x1F DUP4 ADD DIV SWAP1 POP SWAP2 SWAP1 POP JUMP JUMPDEST PUSH0 DUP3 DUP3 SHL SWAP1 POP SWAP3 SWAP2 POP POP JUMP JUMPDEST PUSH0 PUSH1 0x8 DUP4 MUL PUSH2 0x214B PUSH32 0xFFFFFFFFFFFFFFFFFFFFFFFFFFFFFFFFFFFFFFFFFFFFFFFFFFFFFFFFFFFFFFFF DUP3 PUSH2 0x2110 JUMP JUMPDEST PUSH2 0x2155 DUP7 DUP4 PUSH2 0x2110 JUMP JUMPDEST SWAP6 POP DUP1 NOT DUP5 AND SWAP4 POP DUP1 DUP7 AND DUP5 OR SWAP3 POP POP POP SWAP4 SWAP3 POP POP POP JUMP JUMPDEST PUSH0 DUP2 SWAP1 POP SWAP2 SWAP1 POP JUMP JUMPDEST PUSH0 PUSH2 0x2190 PUSH2 0x218B PUSH2 0x2186 DUP5 PUSH2 0x1B65 JUMP JUMPDEST PUSH2 0x216D JUMP JUMPDEST PUSH2 0x1B65 JUMP JUMPDEST SWAP1 POP SWAP2 SWAP1 POP JUMP JUMPDEST PUSH0 DUP2 SWAP1 POP SWAP2 SWAP1 POP JUMP JUMPDEST PUSH2 0x21A9 DUP4 PUSH2 0x2176 JUMP JUMPDEST PUSH2 0x21BD PUSH2 0x21B5 DUP3 PUSH2 0x2197 JUMP JUMPDEST DUP5 DUP5 SLOAD PUSH2 0x211C JUMP JUMPDEST DUP3 SSTORE POP POP POP POP JUMP JUMPDEST PUSH0 SWAP1 JUMP JUMPDEST PUSH2 0x21D1 PUSH2 0x21C5 JUMP JUMPDEST PUSH2 0x21DC DUP2 DUP5 DUP5 PUSH2 0x21A0 JUMP JUMPDEST POP POP POP JUMP JUMPDEST JUMPDEST DUP2 DUP2 LT ISZERO PUSH2 0x21FF JUMPI PUSH2 0x21F4 PUSH0 DUP3 PUSH2 0x21C9 JUMP JUMPDEST PUSH1 0x1 DUP2 ADD SWAP1 POP PUSH2 0x21E2 JUMP JUMPDEST POP POP JUMP JUMPDEST PUSH1 0x1F DUP3 GT ISZERO PUSH2 0x2244 JUMPI PUSH2 0x2215 DUP2 PUSH2 0x20EF JUMP JUMPDEST PUSH2 0x221E DUP5 PUSH2 0x2101 JUMP JUMPDEST DUP2 ADD PUSH1 0x20 DUP6 LT ISZERO PUSH2 0x222D JUMPI DUP2 SWAP1 POP JUMPDEST PUSH2 0x2241 PUSH2 0x2239 DUP6 PUSH2 0x2101 JUMP JUMPDEST DUP4 ADD DUP3 PUSH2 0x21E1 JUMP JUMPDEST POP POP JUMPDEST POP POP POP JUMP JUMPDEST PUSH0 DUP3 DUP3 SHR SWAP1 POP SWAP3 SWAP2 POP POP JUMP JUMPDEST PUSH0 PUSH2 0x2264 PUSH0 NOT DUP5 PUSH1 0x8 MUL PUSH2 0x2249 JUMP JUMPDEST NOT DUP1 DUP4 AND SWAP2 POP POP SWAP3 SWAP2 POP POP JUMP JUMPDEST PUSH0 PUSH2 0x227C DUP4 DUP4 PUSH2 0x2255 JUMP JUMPDEST SWAP2 POP DUP3 PUSH1 0x2 MUL DUP3 OR SWAP1 POP SWAP3 SWAP2 POP POP JUMP JUMPDEST PUSH2 0x2296 DUP4 DUP4 PUSH2 0x20E5 JUMP JUMPDEST PUSH8 0xFFFFFFFFFFFFFFFF DUP2 GT ISZERO PUSH2 0x22AF JUMPI PUSH2 0x22AE PUSH2 0x1E3E JUMP JUMPDEST JUMPDEST PUSH2 0x22B9 DUP3 SLOAD PUSH2 0x204D JUMP JUMPDEST PUSH2 0x22C4 DUP3 DUP3 DUP6 PUSH2 0x2203 JUMP JUMPDEST PUSH0 PUSH1 0x1F DUP4 GT PUSH1 0x1 DUP2 EQ PUSH2 0x22F1 JUMPI PUSH0 DUP5 ISZERO PUSH2 0x22DF JUMPI DUP3 DUP8 ADD CALLDATALOAD SWAP1 POP JUMPDEST PUSH2 0x22E9 DUP6 DUP3 PUSH2 0x2271 JUMP JUMPDEST DUP7 SSTORE POP PUSH2 0x2350 JUMP JUMPDEST PUSH1 0x1F NOT DUP5 AND PUSH2 0x22FF DUP7 PUSH2 0x20EF JUMP JUMPDEST PUSH0 JUMPDEST DUP3 DUP2 LT ISZERO PUSH2 0x2326 JUMPI DUP5 DUP10 ADD CALLDATALOAD DUP3 SSTORE PUSH1 0x1 DUP3 ADD SWAP2 POP PUSH1 0x20 DUP6 ADD SWAP5 POP PUSH1 0x20 DUP2 ADD SWAP1 POP PUSH2 0x2301 JUMP JUMPDEST DUP7 DUP4 LT ISZERO PUSH2 0x2343 JUMPI DUP5 DUP10 ADD CALLDATALOAD PUSH2 0x233F PUSH1 0x1F DUP10 AND DUP3 PUSH2 0x2255 JUMP JUMPDEST DUP4 SSTORE POP JUMPDEST PUSH1 0x1 PUSH1 0x2 DUP9 MUL ADD DUP9 SSTORE POP POP POP JUMPDEST POP POP POP POP POP POP POP JUMP JUMPDEST PUSH32 0x4E487B7100000000000000000000000000000000000000000000000000000000 PUSH0 MSTORE PUSH1 0x11 PUSH1 0x4 MSTORE PUSH1 0x24 PUSH0 REVERT JUMPDEST PUSH0 PUSH2 0x2390 DUP3 PUSH2 0x1B65 JUMP JUMPDEST SWAP2 POP PUSH2 0x239B DUP4 PUSH2 0x1B65 JUMP JUMPDEST SWAP3 POP DUP3 DUP3 SUB SWAP1 POP DUP2 DUP2 GT ISZERO PUSH2 0x23B3 JUMPI PUSH2 0x23B2 PUSH2 0x2359 JUMP JUMPDEST JUMPDEST SWAP3 SWAP2 POP POP JUMP JUMPDEST PUSH32 0x746F6F206D616E79000000000000000000000000000000000000000000000000 PUSH0 DUP3 ADD MSTORE POP JUMP JUMPDEST PUSH0 PUSH2 0x23ED PUSH1 0x8 DUP4 PUSH2 0x1ADF JUMP JUMPDEST SWAP2 POP PUSH2 0x23F8 DUP3 PUSH2 0x23B9 JUMP JUMPDEST PUSH1 0x20 DUP3 ADD SWAP1 POP SWAP2 SWAP1 POP JUMP JUMPDEST PUSH0 PUSH1 0x20 DUP3 ADD SWAP1 POP DUP2 DUP2 SUB PUSH0 DUP4 ADD MSTORE PUSH2 0x241A DUP2 PUSH2 0x23E1 JUMP JUMPDEST SWAP1 POP SWAP2 SWAP1 POP JUMP JUMPDEST PUSH32 0x62616C616E6365206973206C6F77000000000000000000000000000000000000 PUSH0 DUP3 ADD MSTORE POP JUMP JUMPDEST PUSH0 PUSH2 0x2455 PUSH1 0xE DUP4 PUSH2 0x1ADF JUMP JUMPDEST SWAP2 POP PUSH2 0x2460 DUP3 PUSH2 0x2421 JUMP JUMPDEST PUSH1 0x20 DUP3 ADD SWAP1 POP SWAP2 SWAP1 POP JUMP JUMPDEST PUSH0 PUSH1 0x20 DUP3 ADD SWAP1 POP DUP2 DUP2 SUB PUSH0 DUP4 ADD MSTORE PUSH2 0x2482 DUP2 PUSH2 0x2449 JUMP JUMPDEST SWAP1 POP SWAP2 SWAP1 POP JUMP JUMPDEST PUSH32 0x6E6F7468696E67206C65667420746F2077697468647261770000000000000000 PUSH0 DUP3 ADD MSTORE POP JUMP JUMPDEST PUSH0 PUSH2 0x24BD PUSH1 0x18 DUP4 PUSH2 0x1ADF JUMP JUMPDEST SWAP2 POP PUSH2 0x24C8 DUP3 PUSH2 0x2489 JUMP JUMPDEST PUSH1 0x20 DUP3 ADD SWAP1 POP SWAP2 SWAP1 POP JUMP JUMPDEST PUSH0 PUSH1 0x20 DUP3 ADD SWAP1 POP DUP2 DUP2 SUB PUSH0 DUP4 ADD MSTORE PUSH2 0x24EA DUP2 PUSH2 0x24B1 JUMP JUMPDEST SWAP1 POP SWAP2 SWAP1 POP JUMP JUMPDEST PUSH0 DUP2 SWAP1 POP SWAP3 SWAP2 POP POP JUMP JUMPDEST POP JUMP JUMPDEST PUSH0 PUSH2 0x2509 PUSH0 DUP4 PUSH2 0x24F1 JUMP JUMPDEST SWAP2 POP PUSH2 0x2514 DUP3 PUSH2 0x24FB JUMP JUMPDEST PUSH0 DUP3 ADD SWAP1 POP SWAP2 SWAP1 POP JUMP JUMPDEST PUSH0 PUSH2 0x2528 DUP3 PUSH2 0x24FE JUMP JUMPDEST SWAP2 POP DUP2 SWAP1 POP SWAP2 SWAP1 POP JUMP JUMPDEST PUSH32 0x5472616E73666572206661696C65642E00000000000000000000000000000000 PUSH0 DUP3 ADD MSTORE POP JUMP JUMPDEST PUSH0 PUSH2 0x2566 PUSH1 0x10 DUP4 PUSH2 0x1ADF JUMP JUMPDEST SWAP2 POP PUSH2 0x2571 DUP3 PUSH2 0x2532 JUMP JUMPDEST PUSH1 0x20 DUP3 ADD SWAP1 POP SWAP2 SWAP1 POP JUMP JUMPDEST PUSH0 PUSH1 0x20 DUP3 ADD SWAP1 POP DUP2 DUP2 SUB PUSH0 DUP4 ADD MSTORE PUSH2 0x2593 DUP2 PUSH2 0x255A JUMP JUMPDEST SWAP1 POP SWAP2 SWAP1 POP JUMP JUMPDEST PUSH0 DUP2 SWAP1 POP SWAP3 SWAP2 POP POP JUMP JUMPDEST PUSH0 PUSH2 0x25AE DUP3 PUSH2 0x1AD5 JUMP JUMPDEST PUSH2 0x25B8 DUP2 DUP6 PUSH2 0x259A JUMP JUMPDEST SWAP4 POP PUSH2 0x25C8 DUP2 DUP6 PUSH1 0x20 DUP7 ADD PUSH2 0x1AEF JUMP JUMPDEST DUP1 DUP5 ADD SWAP2 POP POP SWAP3 SWAP2 POP POP JUMP JUMPDEST PUSH0 PUSH2 0x25DF DUP3 DUP6 PUSH2 0x25A4 JUMP JUMPDEST SWAP2 POP PUSH2 0x25EB DUP3 DUP5 PUSH2 0x25A4 JUMP JUMPDEST SWAP2 POP DUP2 SWAP1 POP SWAP4 SWAP3 POP POP POP JUMP JUMPDEST PUSH0 PUSH2 0x2601 DUP3 PUSH2 0x1B65 JUMP JUMPDEST SWAP2 POP PUSH2 0x260C DUP4 PUSH2 0x1B65 JUMP JUMPDEST SWAP3 POP DUP3 DUP3 ADD SWAP1 POP DUP1 DUP3 GT ISZERO PUSH2 0x2624 JUMPI PUSH2 0x2623 PUSH2 0x2359 JUMP JUMPDEST JUMPDEST SWAP3 SWAP2 POP POP JUMP JUMPDEST PUSH0 PUSH2 0x2634 DUP3 PUSH2 0x1B65 JUMP JUMPDEST SWAP2 POP PUSH2 0x263F DUP4 PUSH2 0x1B65 JUMP JUMPDEST SWAP3 POP DUP3 DUP3 MUL PUSH2 0x264D DUP2 PUSH2 0x1B65 JUMP JUMPDEST SWAP2 POP DUP3 DUP3 DIV DUP5 EQ DUP4 ISZERO OR PUSH2 0x2664 JUMPI PUSH2 0x2663 PUSH2 0x2359 JUMP JUMPDEST JUMPDEST POP SWAP3 SWAP2 POP POP JUMP JUMPDEST PUSH0 PUSH2 0x2675 DUP3 PUSH2 0x1B65 JUMP JUMPDEST SWAP2 POP PUSH0 DUP3 SUB PUSH2 0x2687 JUMPI PUSH2 0x2686 PUSH2 0x2359 JUMP JUMPDEST JUMPDEST PUSH1 0x1 DUP3 SUB SWAP1 POP SWAP2 SWAP1 POP JUMP JUMPDEST PUSH0 DUP2 MLOAD SWAP1 POP SWAP2 SWAP1 POP JUMP JUMPDEST PUSH0 DUP3 DUP3 MSTORE PUSH1 0x20 DUP3 ADD SWAP1 POP SWAP3 SWAP2 POP POP JUMP JUMPDEST PUSH0 PUSH2 0x26B6 DUP3 PUSH2 0x2692 JUMP JUMPDEST PUSH2 0x26C0 DUP2 DUP6 PUSH2 0x269C JUMP JUMPDEST SWAP4 POP PUSH2 0x26D0 DUP2 DUP6 PUSH1 0x20 DUP7 ADD PUSH2 0x1AEF JUMP JUMPDEST PUSH2 0x26D9 DUP2 PUSH2 0x1AFD JUMP JUMPDEST DUP5 ADD SWAP2 POP POP SWAP3 SWAP2 POP POP JUMP JUMPDEST PUSH0 PUSH1 0x80 DUP3 ADD SWAP1 POP PUSH2 0x26F7 PUSH0 DUP4 ADD DUP8 PUSH2 0x1BF3 JUMP JUMPDEST PUSH2 0x2704 PUSH1 0x20 DUP4 ADD DUP7 PUSH2 0x1BF3 JUMP JUMPDEST PUSH2 0x2711 PUSH1 0x40 DUP4 ADD DUP6 PUSH2 0x1C83 JUMP JUMPDEST DUP2 DUP2 SUB PUSH1 0x60 DUP4 ADD MSTORE PUSH2 0x2723 DUP2 DUP5 PUSH2 0x26AC JUMP JUMPDEST SWAP1 POP SWAP6 SWAP5 POP POP POP POP POP JUMP JUMPDEST PUSH0 DUP2 MLOAD SWAP1 POP PUSH2 0x273C DUP2 PUSH2 0x1A4D JUMP JUMPDEST SWAP3 SWAP2 POP POP JUMP JUMPDEST PUSH0 PUSH1 0x20 DUP3 DUP5 SUB SLT ISZERO PUSH2 0x2757 JUMPI PUSH2 0x2756 PUSH2 0x1A1A JUMP JUMPDEST JUMPDEST PUSH0 PUSH2 0x2764 DUP5 DUP3 DUP6 ADD PUSH2 0x272E JUMP JUMPDEST SWAP2 POP POP SWAP3 SWAP2 POP POP JUMP INVALID PUSH9 0x747470733A2F2F7261 PUSH24 0x2E67697468756275736572636F6E74656E742E636F6D2F62 PUSH2 0x7365 PUSH5 0x636174732F PUSH3 0x617365 PUSH5 0x6775747465 PUSH19 0x636174732F6334643133316432396330666265 PUSH7 0x35393235353733 ORIGIN CALLVALUE CALLDATACOPY CALLDATALOAD CALLDATACOPY CODESIZE CALLDATACOPY PUSH3 0x303836 CALLVALUE CALLVALUE PUSH3 0x383063 PUSH2 0x2F4E 0x4F MSTORE8 0x2E PUSH11 0x736F6EA264697066735822 SLT KECCAK256 CALLCODE 0xE2 0x2D SAR 0xB7 SIGNEXTEND 0xC3 CALLDATASIZE LOG4 0xB0 0xB0 RETURNDATACOPY SWAP15 SHR BALANCE SDIV 0x29 MLOAD 0xE2 ORIGIN PUSH15 0x29F6E3863CA6538F173B8664736F6C PUSH4 0x4300081A STOP CALLER "
		},
		"gasEstimates": {
			"creation": {
				"codeDepositCost": "2051200",
				"executionCost": "infinite",
				"totalCost": "infinite"
			},
			"external": {
				"approve(address,uint256)": "infinite",
				"balanceOf(address)": "3003",
				"collectionSize()": "399",
				"devMint(uint256)": "infinite",
				"getApproved(uint256)": "infinite",
				"isApprovedForAll(address,address)": "infinite",
				"maxMintPerWallet()": "399",
				"mint(uint256)": "infinite",
				"mintPrice(uint256)": "infinite",
				"mintsLeft()": "infinite",
				"name()": "infinite",
				"owner()": "2560",
				"ownerOf(uint256)": "infinite",
				"renounceOwnership()": "infinite",
				"safeTransferFrom(address,address,uint256)": "infinite",
				"safeTransferFrom(address,address,uint256,bytes)": "infinite",
				"setApprovalForAll(address,bool)": "infinite",
				"setBaseURI(string)": "infinite",
				"supportsInterface(bytes4)": "736",
				"symbol()": "infinite",
				"tokenURI(uint256)": "infinite",
				"totalSupply()": "6894",
				"transferFrom(address,address,uint256)": "infinite",
				"transferOwnership(address)": "infinite",
				"withdrawMoney()": "infinite"
			},
			"internal": {
				"_baseURI()": "infinite",
				"_sequentialUpTo()": "56"
			}
		},
		"methodIdentifiers": {
			"approve(address,uint256)": "095ea7b3",
			"balanceOf(address)": "70a08231",
			"collectionSize()": "45c0f533",
			"devMint(uint256)": "375a069a",
			"getApproved(uint256)": "081812fc",
			"isApprovedForAll(address,address)": "e985e9c5",
			"maxMintPerWallet()": "b228d925",
			"mint(uint256)": "a0712d68",
			"mintPrice(uint256)": "e6a72acf",
			"mintsLeft()": "9d5561e1",
			"name()": "06fdde03",
			"owner()": "8da5cb5b",
			"ownerOf(uint256)": "6352211e",
			"renounceOwnership()": "715018a6",
			"safeTransferFrom(address,address,uint256)": "42842e0e",
			"safeTransferFrom(address,address,uint256,bytes)": "b88d4fde",
			"setApprovalForAll(address,bool)": "a22cb465",
			"setBaseURI(string)": "55f804b3",
			"supportsInterface(bytes4)": "01ffc9a7",
			"symbol()": "95d89b41",
			"tokenURI(uint256)": "c87b56dd",
			"totalSupply()": "18160ddd",
			"transferFrom(address,address,uint256)": "23b872dd",
			"transferOwnership(address)": "f2fde38b",
			"withdrawMoney()": "ac446002"
		}
	},
	"abi": [
		{
			"inputs": [
				{
					"internalType": "address",
					"name": "initialOwner",
					"type": "address"
				}
			],
			"stateMutability": "nonpayable",
			"type": "constructor"
		},
		{
			"inputs": [],
			"name": "ApprovalCallerNotOwnerNorApproved",
			"type": "error"
		},
		{
			"inputs": [],
			"name": "ApprovalQueryForNonexistentToken",
			"type": "error"
		},
		{
			"inputs": [],
			"name": "BalanceQueryForZeroAddress",
			"type": "error"
		},
		{
			"inputs": [],
			"name": "MintERC2309QuantityExceedsLimit",
			"type": "error"
		},
		{
			"inputs": [],
			"name": "MintToZeroAddress",
			"type": "error"
		},
		{
			"inputs": [],
			"name": "MintZeroQuantity",
			"type": "error"
		},
		{
			"inputs": [],
			"name": "NotCompatibleWithSpotMints",
			"type": "error"
		},
		{
			"inputs": [
				{
					"internalType": "address",
					"name": "owner",
					"type": "address"
				}
			],
			"name": "OwnableInvalidOwner",
			"type": "error"
		},
		{
			"inputs": [
				{
					"internalType": "address",
					"name": "account",
					"type": "address"
				}
			],
			"name": "OwnableUnauthorizedAccount",
			"type": "error"
		},
		{
			"inputs": [],
			"name": "OwnerQueryForNonexistentToken",
			"type": "error"
		},
		{
			"inputs": [],
			"name": "OwnershipNotInitializedForExtraData",
			"type": "error"
		},
		{
			"inputs": [],
			"name": "SequentialMintExceedsLimit",
			"type": "error"
		},
		{
			"inputs": [],
			"name": "SequentialUpToTooSmall",
			"type": "error"
		},
		{
			"inputs": [],
			"name": "SpotMintTokenIdTooSmall",
			"type": "error"
		},
		{
			"inputs": [],
			"name": "TokenAlreadyExists",
			"type": "error"
		},
		{
			"inputs": [],
			"name": "TokenIdsNotStrictlyAscending",
			"type": "error"
		},
		{
			"inputs": [],
			"name": "TransferCallerNotOwnerNorApproved",
			"type": "error"
		},
		{
			"inputs": [],
			"name": "TransferFromIncorrectOwner",
			"type": "error"
		},
		{
			"inputs": [],
			"name": "TransferToNonERC721ReceiverImplementer",
			"type": "error"
		},
		{
			"inputs": [],
			"name": "TransferToZeroAddress",
			"type": "error"
		},
		{
			"inputs": [],
			"name": "URIQueryForNonexistentToken",
			"type": "error"
		},
		{
			"anonymous": false,
			"inputs": [
				{
					"indexed": true,
					"internalType": "address",
					"name": "owner",
					"type": "address"
				},
				{
					"indexed": true,
					"internalType": "address",
					"name": "approved",
					"type": "address"
				},
				{
					"indexed": true,
					"internalType": "uint256",
					"name": "tokenId",
					"type": "uint256"
				}
			],
			"name": "Approval",
			"type": "event"
		},
		{
			"anonymous": false,
			"inputs": [
				{
					"indexed": true,
					"internalType": "address",
					"name": "owner",
					"type": "address"
				},
				{
					"indexed": true,
					"internalType": "address",
					"name": "operator",
					"type": "address"
				},
				{
					"indexed": false,
					"internalType": "bool",
					"name": "approved",
					"type": "bool"
				}
			],
			"name": "ApprovalForAll",
			"type": "event"
		},
		{
			"anonymous": false,
			"inputs": [
				{
					"indexed": true,
					"internalType": "uint256",
					"name": "fromTokenId",
					"type": "uint256"
				},
				{
					"indexed": false,
					"internalType": "uint256",
					"name": "toTokenId",
					"type": "uint256"
				},
				{
					"indexed": true,
					"internalType": "address",
					"name": "from",
					"type": "address"
				},
				{
					"indexed": true,
					"internalType": "address",
					"name": "to",
					"type": "address"
				}
			],
			"name": "ConsecutiveTransfer",
			"type": "event"
		},
		{
			"anonymous": false,
			"inputs": [
				{
					"indexed": true,
					"internalType": "address",
					"name": "previousOwner",
					"type": "address"
				},
				{
					"indexed": true,
					"internalType": "address",
					"name": "newOwner",
					"type": "address"
				}
			],
			"name": "OwnershipTransferred",
			"type": "event"
		},
		{
			"anonymous": false,
			"inputs": [
				{
					"indexed": true,
					"internalType": "address",
					"name": "from",
					"type": "address"
				},
				{
					"indexed": true,
					"internalType": "address",
					"name": "to",
					"type": "address"
				},
				{
					"indexed": true,
					"internalType": "uint256",
					"name": "tokenId",
					"type": "uint256"
				}
			],
			"name": "Transfer",
			"type": "event"
		},
		{
			"inputs": [
				{
					"internalType": "address",
					"name": "to",
					"type": "address"
				},
				{
					"internalType": "uint256",
					"name": "tokenId",
					"type": "uint256"
				}
			],
			"name": "approve",
			"outputs": [],
			"stateMutability": "payable",
			"type": "function"
		},
		{
			"inputs": [
				{
					"internalType": "address",
					"name": "owner",
					"type": "address"
				}
			],
			"name": "balanceOf",
			"outputs": [
				{
					"internalType": "uint256",
					"name": "",
					"type": "uint256"
				}
			],
			"stateMutability": "view",
			"type": "function"
		},
		{
			"inputs": [],
			"name": "collectionSize",
			"outputs": [
				{
					"internalType": "uint256",
					"name": "",
					"type": "uint256"
				}
			],
			"stateMutability": "view",
			"type": "function"
		},
		{
			"inputs": [
				{
					"internalType": "uint256",
					"name": "quantity",
					"type": "uint256"
				}
			],
			"name": "devMint",
			"outputs": [],
			"stateMutability": "nonpayable",
			"type": "function"
		},
		{
			"inputs": [
				{
					"internalType": "uint256",
					"name": "tokenId",
					"type": "uint256"
				}
			],
			"name": "getApproved",
			"outputs": [
				{
					"internalType": "address",
					"name": "",
					"type": "address"
				}
			],
			"stateMutability": "view",
			"type": "function"
		},
		{
			"inputs": [
				{
					"internalType": "address",
					"name": "owner",
					"type": "address"
				},
				{
					"internalType": "address",
					"name": "operator",
					"type": "address"
				}
			],
			"name": "isApprovedForAll",
			"outputs": [
				{
					"internalType": "bool",
					"name": "",
					"type": "bool"
				}
			],
			"stateMutability": "view",
			"type": "function"
		},
		{
			"inputs": [],
			"name": "maxMintPerWallet",
			"outputs": [
				{
					"internalType": "uint256",
					"name": "",
					"type": "uint256"
				}
			],
			"stateMutability": "view",
			"type": "function"
		},
		{
			"inputs": [
				{
					"internalType": "uint256",
					"name": "quantity",
					"type": "uint256"
				}
			],
			"name": "mint",
			"outputs": [],
			"stateMutability": "payable",
			"type": "function"
		},
		{
			"inputs": [
				{
					"internalType": "uint256",
					"name": "quantity",
					"type": "uint256"
				}
			],
			"name": "mintPrice",
			"outputs": [
				{
					"internalType": "uint256",
					"name": "",
					"type": "uint256"
				}
			],
			"stateMutability": "view",
			"type": "function"
		},
		{
			"inputs": [],
			"name": "mintsLeft",
			"outputs": [
				{
					"internalType": "uint256",
					"name": "",
					"type": "uint256"
				}
			],
			"stateMutability": "view",
			"type": "function"
		},
		{
			"inputs": [],
			"name": "name",
			"outputs": [
				{
					"internalType": "string",
					"name": "",
					"type": "string"
				}
			],
			"stateMutability": "view",
			"type": "function"
		},
		{
			"inputs": [],
			"name": "owner",
			"outputs": [
				{
					"internalType": "address",
					"name": "",
					"type": "address"
				}
			],
			"stateMutability": "view",
			"type": "function"
		},
		{
			"inputs": [
				{
					"internalType": "uint256",
					"name": "tokenId",
					"type": "uint256"
				}
			],
			"name": "ownerOf",
			"outputs": [
				{
					"internalType": "address",
					"name": "",
					"type": "address"
				}
			],
			"stateMutability": "view",
			"type": "function"
		},
		{
			"inputs": [],
			"name": "renounceOwnership",
			"outputs": [],
			"stateMutability": "nonpayable",
			"type": "function"
		},
		{
			"inputs": [
				{
					"internalType": "address",
					"name": "from",
					"type": "address"
				},
				{
					"internalType": "address",
					"name": "to",
					"type": "address"
				},
				{
					"internalType": "uint256",
					"name": "tokenId",
					"type": "uint256"
				}
			],
			"name": "safeTransferFrom",
			"outputs": [],
			"stateMutability": "payable",
			"type": "function"
		},
		{
			"inputs": [
				{
					"internalType": "address",
					"name": "from",
					"type": "address"
				},
				{
					"internalType": "address",
					"name": "to",
					"type": "address"
				},
				{
					"internalType": "uint256",
					"name": "tokenId",
					"type": "uint256"
				},
				{
					"internalType": "bytes",
					"name": "_data",
					"type": "bytes"
				}
			],
			"name": "safeTransferFrom",
			"outputs": [],
			"stateMutability": "payable",
			"type": "function"
		},
		{
			"inputs": [
				{
					"internalType": "address",
					"name": "operator",
					"type": "address"
				},
				{
					"internalType": "bool",
					"name": "approved",
					"type": "bool"
				}
			],
			"name": "setApprovalForAll",
			"outputs": [],
			"stateMutability": "nonpayable",
			"type": "function"
		},
		{
			"inputs": [
				{
					"internalType": "string",
					"name": "newURI",
					"type": "string"
				}
			],
			"name": "setBaseURI",
			"outputs": [],
			"stateMutability": "nonpayable",
			"type": "function"
		},
		{
			"inputs": [
				{
					"internalType": "bytes4",
					"name": "interfaceId",
					"type": "bytes4"
				}
			],
			"name": "supportsInterface",
			"outputs": [
				{
					"internalType": "bool",
					"name": "",
					"type": "bool"
				}
			],
			"stateMutability": "view",
			"type": "function"
		},
		{
			"inputs": [],
			"name": "symbol",
			"outputs": [
				{
					"internalType": "string",
					"name": "",
					"type": "string"
				}
			],
			"stateMutability": "view",
			"type": "function"
		},
		{
			"inputs": [
				{
					"internalType": "uint256",
					"name": "tokenId",
					"type": "uint256"
				}
			],
			"name": "tokenURI",
			"outputs": [
				{
					"internalType": "string",
					"name": "",
					"type": "string"
				}
			],
			"stateMutability": "view",
			"type": "function"
		},
		{
			"inputs": [],
			"name": "totalSupply",
			"outputs": [
				{
					"internalType": "uint256",
					"name": "result",
					"type": "uint256"
				}
			],
			"stateMutability": "view",
			"type": "function"
		},
		{
			"inputs": [
				{
					"internalType": "address",
					"name": "from",
					"type": "address"
				},
				{
					"internalType": "address",
					"name": "to",
					"type": "address"
				},
				{
					"internalType": "uint256",
					"name": "tokenId",
					"type": "uint256"
				}
			],
			"name": "transferFrom",
			"outputs": [],
			"stateMutability": "payable",
			"type": "function"
		},
		{
			"inputs": [
				{
					"internalType": "address",
					"name": "newOwner",
					"type": "address"
				}
			],
			"name": "transferOwnership",
			"outputs": [],
			"stateMutability": "nonpayable",
			"type": "function"
		},
		{
			"inputs": [],
			"name": "withdrawMoney",
			"outputs": [],
			"stateMutability": "nonpayable",
			"type": "function"
		}
	]
}