{
	"data": {
		"bytecode": {
			"linkReferences": {},
			"object": "608060405260405180602001604052805f815250600a908161002191906104da565b506005600b556001600c55652d79883d2000600d55348015610041575f80fd5b50604051612b6b380380612b6b83398181016040528101906100639190610607565b806040518060400160405280600b81526020017f56657279446f70654e46540000000000000000000000000000000000000000008152506040518060400160405280600381526020017f56444e000000000000000000000000000000000000000000000000000000000081525081600290816100df91906104da565b5080600390816100ef91906104da565b506100fe6101c460201b60201c565b5f819055506101116101c460201b60201c565b61011f6101cc60201b60201c565b101561013c5761013b63fed8210f60e01b6101d560201b60201c565b5b50505f73ffffffffffffffffffffffffffffffffffffffff168173ffffffffffffffffffffffffffffffffffffffff16036101ae575f6040517f1e4fbdf70000000000000000000000000000000000000000000000000000000081526004016101a59190610641565b60405180910390fd5b6101bd816101dd60201b60201c565b505061065a565b5f6001905090565b5f6103e7905090565b805f5260045ffd5b5f60095f9054906101000a900473ffffffffffffffffffffffffffffffffffffffff1690508160095f6101000a81548173ffffffffffffffffffffffffffffffffffffffff021916908373ffffffffffffffffffffffffffffffffffffffff1602179055508173ffffffffffffffffffffffffffffffffffffffff168173ffffffffffffffffffffffffffffffffffffffff167f8be0079c531659141344cd1fd0a4f28419497f9722a3daafe3b4186f6b6457e060405160405180910390a35050565b5f81519050919050565b7f4e487b71000000000000000000000000000000000000000000000000000000005f52604160045260245ffd5b7f4e487b71000000000000000000000000000000000000000000000000000000005f52602260045260245ffd5b5f600282049050600182168061031b57607f821691505b60208210810361032e5761032d6102d7565b5b50919050565b5f819050815f5260205f209050919050565b5f6020601f8301049050919050565b5f82821b905092915050565b5f600883026103907fffffffffffffffffffffffffffffffffffffffffffffffffffffffffffffffff82610355565b61039a8683610355565b95508019841693508086168417925050509392505050565b5f819050919050565b5f819050919050565b5f6103de6103d96103d4846103b2565b6103bb565b6103b2565b9050919050565b5f819050919050565b6103f7836103c4565b61040b610403826103e5565b848454610361565b825550505050565b5f90565b61041f610413565b61042a8184846103ee565b505050565b5b8181101561044d576104425f82610417565b600181019050610430565b5050565b601f8211156104925761046381610334565b61046c84610346565b8101602085101561047b578190505b61048f61048785610346565b83018261042f565b50505b505050565b5f82821c905092915050565b5f6104b25f1984600802610497565b1980831691505092915050565b5f6104ca83836104a3565b9150826002028217905092915050565b6104e3826102a0565b67ffffffffffffffff8111156104fc576104fb6102aa565b5b6105068254610304565b610511828285610451565b5f60209050601f831160018114610542575f8415610530578287015190505b61053a85826104bf565b8655506105a1565b601f19841661055086610334565b5f5b8281101561057757848901518255600182019150602085019450602081019050610552565b868310156105945784890151610590601f8916826104a3565b8355505b6001600288020188555050505b505050505050565b5f80fd5b5f73ffffffffffffffffffffffffffffffffffffffff82169050919050565b5f6105d6826105ad565b9050919050565b6105e6816105cc565b81146105f0575f80fd5b50565b5f81519050610601816105dd565b92915050565b5f6020828403121561061c5761061b6105a9565b5b5f610629848285016105f3565b91505092915050565b61063b816105cc565b82525050565b5f6020820190506106545f830184610632565b92915050565b612504806106675f395ff3fe608060405260043610610180575f3560e01c8063715018a6116100d0578063b228d92511610089578063e6a72acf11610063578063e6a72acf14610504578063e985e9c514610540578063f2fde38b1461057c578063f4a0a528146105a457610180565b8063b228d92514610482578063b88d4fde146104ac578063c87b56dd146104c857610180565b8063715018a6146103be5780638da5cb5b146103d457806395d89b41146103fe578063a0712d6814610428578063a22cb46514610444578063ac4460021461046c57610180565b806323b872dd1161013d57806342842e0e1161011757806342842e0e1461030257806355f804b31461031e5780636352211e1461034657806370a082311461038257610180565b806323b872dd14610296578063253ca934146102b25780633345d34a146102da57610180565b806301ffc9a71461018457806306fdde03146101c0578063081812fc146101ea578063095ea7b31461022657806313e4fad51461024257806318160ddd1461026c575b5f80fd5b34801561018f575f80fd5b506101aa60048036038101906101a591906119ab565b6105cc565b6040516101b791906119f0565b60405180910390f35b3480156101cb575f80fd5b506101d461065d565b6040516101e19190611a79565b60405180910390f35b3480156101f5575f80fd5b50610210600480360381019061020b9190611acc565b6106ed565b60405161021d9190611b36565b60405180910390f35b610240600480360381019061023b9190611b79565b610746565b005b34801561024d575f80fd5b50610256610756565b6040516102639190611bc6565b60405180910390f35b348015610277575f80fd5b5061028061078b565b60405161028d9190611bc6565b60405180910390f35b6102b060048036038101906102ab9190611bdf565b6107d6565b005b3480156102bd575f80fd5b506102d860048036038101906102d39190611acc565b610a57565b005b3480156102e5575f80fd5b5061030060048036038101906102fb9190611acc565b610a69565b005b61031c60048036038101906103179190611bdf565b610a7b565b005b348015610329575f80fd5b50610344600480360381019061033f9190611c90565b610a9a565b005b348015610351575f80fd5b5061036c60048036038101906103679190611acc565b610ab8565b6040516103799190611b36565b60405180910390f35b34801561038d575f80fd5b506103a860048036038101906103a39190611cdb565b610ac9565b6040516103b59190611bc6565b60405180910390f35b3480156103c9575f80fd5b506103d2610b5d565b005b3480156103df575f80fd5b506103e8610b70565b6040516103f59190611b36565b60405180910390f35b348015610409575f80fd5b50610412610b98565b60405161041f9190611a79565b60405180910390f35b610442600480360381019061043d9190611acc565b610c28565b005b34801561044f575f80fd5b5061046a60048036038101906104659190611d30565b610c35565b005b348015610477575f80fd5b50610480610d3b565b005b34801561048d575f80fd5b50610496610dee565b6040516104a39190611bc6565b60405180910390f35b6104c660048036038101906104c19190611e96565b610df7565b005b3480156104d3575f80fd5b506104ee60048036038101906104e99190611acc565b610e48565b6040516104fb9190611a79565b60405180910390f35b34801561050f575f80fd5b5061052a60048036038101906105259190611acc565b610ec2565b6040516105379190611bc6565b60405180910390f35b34801561054b575f80fd5b5061056660048036038101906105619190611f16565b610f01565b60405161057391906119f0565b60405180910390f35b348015610587575f80fd5b506105a2600480360381019061059d9190611cdb565b610f8f565b005b3480156105af575f80fd5b506105ca60048036038101906105c59190611acc565b611013565b005b5f6301ffc9a760e01b827bffffffffffffffffffffffffffffffffffffffffffffffffffffffff1916148061062657506380ac58cd60e01b827bffffffffffffffffffffffffffffffffffffffffffffffffffffffff1916145b806106565750635b5e139f60e01b827bffffffffffffffffffffffffffffffffffffffffffffffffffffffff1916145b9050919050565b60606002805461066c90611f81565b80601f016020809104026020016040519081016040528092919081815260200182805461069890611f81565b80156106e35780601f106106ba576101008083540402835291602001916106e3565b820191905f5260205f20905b8154815290600101906020018083116106c657829003601f168201915b5050505050905090565b5f6106f782611025565b61070c5761070b63cf4700e460e01b6110c8565b5b60065f8381526020019081526020015f205f015f9054906101000a900473ffffffffffffffffffffffffffffffffffffffff169050919050565b610752828260016110d0565b5050565b5f600c54610763336111fa565b101561078457610772336111fa565b600c5461077f9190611fde565b610786565b5f5b905090565b5f61079461124e565b6001545f54030390507fffffffffffffffffffffffffffffffffffffffffffffffffffffffffffffffff6107c6611256565b146107d357600854810190505b90565b5f6107e08261125f565b90505f8473ffffffffffffffffffffffffffffffffffffffff169050808273ffffffffffffffffffffffffffffffffffffffff161461082a5761082963a114810060e01b6110c8565b5b5f806108358561136e565b915091506108618184610846611391565b73ffffffffffffffffffffffffffffffffffffffff16611398565b61088c5761087687610871611391565b610f01565b61088b5761088a6359c896be60e01b6110c8565b5b5b61089987878760016113a9565b80156108a3575f82555b60055f8873ffffffffffffffffffffffffffffffffffffffff1673ffffffffffffffffffffffffffffffffffffffff1681526020019081526020015f205f8154600190039190508190555060055f8773ffffffffffffffffffffffffffffffffffffffff1673ffffffffffffffffffffffffffffffffffffffff1681526020019081526020015f205f81546001019190508190555061096b866109478989886113af565b7c0200000000000000000000000000000000000000000000000000000000176113d6565b60045f8781526020019081526020015f20819055505f7c02000000000000000000000000000000000000000000000000000000008516036109e7575f6001860190505f60045f8381526020019081526020015f2054036109e5575f5481146109e4578460045f8381526020019081526020015f20819055505b5b505b5f8673ffffffffffffffffffffffffffffffffffffffff1690508581857fddf252ad1be2c89b69c2b068fc378daa952ba7f163c4a11628f55a4df523b3ef5f80a45f8103610a4057610a3f63ea553b3460e01b6110c8565b5b610a4d8888886001611400565b5050505050505050565b610a5f611406565b80600c8190555050565b610a71611406565b80600b8190555050565b610a9583838360405180602001604052805f815250610df7565b505050565b610aa2611406565b8181600a9182610ab39291906121b8565b505050565b5f610ac28261125f565b9050919050565b5f8073ffffffffffffffffffffffffffffffffffffffff168273ffffffffffffffffffffffffffffffffffffffff1603610b0e57610b0d638f4eb60460e01b6110c8565b5b67ffffffffffffffff60055f8473ffffffffffffffffffffffffffffffffffffffff1673ffffffffffffffffffffffffffffffffffffffff1681526020019081526020015f2054169050919050565b610b65611406565b610b6e5f61148d565b565b5f60095f9054906101000a900473ffffffffffffffffffffffffffffffffffffffff16905090565b606060038054610ba790611f81565b80601f0160208091040260200160405190810160405280929190818152602001828054610bd390611f81565b8015610c1e5780601f10610bf557610100808354040283529160200191610c1e565b820191905f5260205f20905b815481529060010190602001808311610c0157829003601f168201915b5050505050905090565b610c323382611550565b50565b8060075f610c41611391565b73ffffffffffffffffffffffffffffffffffffffff1673ffffffffffffffffffffffffffffffffffffffff1681526020019081526020015f205f8473ffffffffffffffffffffffffffffffffffffffff1673ffffffffffffffffffffffffffffffffffffffff1681526020019081526020015f205f6101000a81548160ff0219169083151502179055508173ffffffffffffffffffffffffffffffffffffffff16610cea611391565b73ffffffffffffffffffffffffffffffffffffffff167f17307eab39ab6107e8899845ad3d59bd9653f200f220920489ca2b5937696c3183604051610d2f91906119f0565b60405180910390a35050565b610d43611406565b5f3373ffffffffffffffffffffffffffffffffffffffff1647604051610d68906122b2565b5f6040518083038185875af1925050503d805f8114610da2576040519150601f19603f3d011682016040523d82523d5f602084013e610da7565b606091505b5050905080610deb576040517f08c379a0000000000000000000000000000000000000000000000000000000008152600401610de290612310565b60405180910390fd5b50565b5f600b54905090565b610e028484846107d6565b5f8373ffffffffffffffffffffffffffffffffffffffff163b14610e4257610e2c848484846116de565b610e4157610e4063d1a57ed660e01b6110c8565b5b5b50505050565b6060610e5382611025565b610e6857610e6763a14c4b5060e01b6110c8565b5b5f610e71611808565b90505f815103610e8f5760405180602001604052805f815250610eba565b80610e9984611898565b604051602001610eaa929190612368565b6040516020818303038152906040525b915050919050565b5f81610ecc610756565b10610ed9575f9050610efc565b600d54610ee4610756565b83610eef9190611fde565b610ef9919061238b565b90505b919050565b5f60075f8473ffffffffffffffffffffffffffffffffffffffff1673ffffffffffffffffffffffffffffffffffffffff1681526020019081526020015f205f8373ffffffffffffffffffffffffffffffffffffffff1673ffffffffffffffffffffffffffffffffffffffff1681526020019081526020015f205f9054906101000a900460ff16905092915050565b610f97611406565b5f73ffffffffffffffffffffffffffffffffffffffff168173ffffffffffffffffffffffffffffffffffffffff1603611007575f6040517f1e4fbdf7000000000000000000000000000000000000000000000000000000008152600401610ffe9190611b36565b60405180910390fd5b6110108161148d565b50565b61101b611406565b80600d8190555050565b5f8161102f61124e565b116110c25761103c611256565b8211156110645761105d60045f8481526020019081526020015f20546118e7565b90506110c3565b5f548210156110c1575f5b5f60045f8581526020019081526020015f20549150810361109b5782611094906123cc565b925061106f565b5f7c01000000000000000000000000000000000000000000000000000000008216149150505b5b5b919050565b805f5260045ffd5b5f6110da83610ab8565b905081801561111c57508073ffffffffffffffffffffffffffffffffffffffff16611103611391565b73ffffffffffffffffffffffffffffffffffffffff1614155b15611148576111328161112d611391565b610f01565b6111475761114663cfb3b94260e01b6110c8565b5b5b8360065f8581526020019081526020015f205f015f6101000a81548173ffffffffffffffffffffffffffffffffffffffff021916908373ffffffffffffffffffffffffffffffffffffffff160217905550828473ffffffffffffffffffffffffffffffffffffffff168273ffffffffffffffffffffffffffffffffffffffff167f8c5be1e5ebec7d5bd14f71427d1e84f3dd0314c0f7b2291e5b200ac8c7c3b92560405160405180910390a450505050565b5f67ffffffffffffffff604060055f8573ffffffffffffffffffffffffffffffffffffffff1673ffffffffffffffffffffffffffffffffffffffff1681526020019081526020015f2054901c169050919050565b5f6001905090565b5f6103e7905090565b5f8161126961124e565b116113585760045f8381526020019081526020015f2054905061128a611256565b8211156112af5761129a816118e7565b611369576112ae63df2d9b4260e01b6110c8565b5b5f8103611330575f5482106112cf576112ce63df2d9b4260e01b6110c8565b5b5b60045f836001900393508381526020019081526020015f205490505f81031561132b575f7c0100000000000000000000000000000000000000000000000000000000821603156113695761132a63df2d9b4260e01b6110c8565b5b6112d0565b5f7c010000000000000000000000000000000000000000000000000000000082160315611369575b61136863df2d9b4260e01b6110c8565b5b919050565b5f805f60065f8581526020019081526020015f2090508092508254915050915091565b5f33905090565b5f8382148383141790509392505050565b50505050565b5f8060e883901c905060e86113c5868684611927565b62ffffff16901b9150509392505050565b5f73ffffffffffffffffffffffffffffffffffffffff83169250814260a01b178317905092915050565b50505050565b61140e61192f565b73ffffffffffffffffffffffffffffffffffffffff1661142c610b70565b73ffffffffffffffffffffffffffffffffffffffff161461148b5761144f61192f565b6040517f118cdaa70000000000000000000000000000000000000000000000000000000081526004016114829190611b36565b60405180910390fd5b565b5f60095f9054906101000a900473ffffffffffffffffffffffffffffffffffffffff1690508160095f6101000a81548173ffffffffffffffffffffffffffffffffffffffff021916908373ffffffffffffffffffffffffffffffffffffffff1602179055508173ffffffffffffffffffffffffffffffffffffffff168173ffffffffffffffffffffffffffffffffffffffff167f8be0079c531659141344cd1fd0a4f28419497f9722a3daafe3b4186f6b6457e060405160405180910390a35050565b5f805490505f820361156d5761156c63b562e8dd60e01b6110c8565b5b6115795f8483856113a9565b611597836115885f865f6113af565b61159185611936565b176113d6565b60045f8381526020019081526020015f20819055505f6115b683610ec2565b9050600160406001901b17830260055f8673ffffffffffffffffffffffffffffffffffffffff1673ffffffffffffffffffffffffffffffffffffffff1681526020019081526020015f205f82825401925050819055505f8473ffffffffffffffffffffffffffffffffffffffff1690505f810361163e5761163d632e07630060e01b6110c8565b5b5f84840190505f849050611650611256565b60018303118061166e5750611663610dee565b61166c886111fa565b115b8061167857508334105b1561168e5761168d6381647e3a60e01b6110c8565b5b5b80835f7fddf252ad1be2c89b69c2b068fc378daa952ba7f163c4a11628f55a4df523b3ef5f80a481816001019150810361168f57815f81905550505050506116d95f848385611400565b505050565b5f8373ffffffffffffffffffffffffffffffffffffffff1663150b7a02611703611391565b8786866040518563ffffffff1660e01b81526004016117259493929190612445565b6020604051808303815f875af192505050801561176057506040513d601f19601f8201168201806040525081019061175d91906124a3565b60015b6117b5573d805f811461178e576040519150601f19603f3d011682016040523d82523d5f602084013e611793565b606091505b505f8151036117ad576117ac63d1a57ed660e01b6110c8565b5b805181602001fd5b63150b7a0260e01b7bffffffffffffffffffffffffffffffffffffffffffffffffffffffff1916817bffffffffffffffffffffffffffffffffffffffffffffffffffffffff191614915050949350505050565b6060600a805461181790611f81565b80601f016020809104026020016040519081016040528092919081815260200182805461184390611f81565b801561188e5780601f106118655761010080835404028352916020019161188e565b820191905f5260205f20905b81548152906001019060200180831161187157829003601f168201915b5050505050905090565b606060a060405101806040526020810391505f825281835b6001156118d257600184039350600a81066030018453600a81049050806118b0575b50828103602084039350808452505050919050565b5f7c0100000000000000000000000000000000000000000000000000000000821673ffffffffffffffffffffffffffffffffffffffff8316119050919050565b5f9392505050565b5f33905090565b5f6001821460e11b9050919050565b5f604051905090565b5f80fd5b5f80fd5b5f7fffffffff0000000000000000000000000000000000000000000000000000000082169050919050565b61198a81611956565b8114611994575f80fd5b50565b5f813590506119a581611981565b92915050565b5f602082840312156119c0576119bf61194e565b5b5f6119cd84828501611997565b91505092915050565b5f8115159050919050565b6119ea816119d6565b82525050565b5f602082019050611a035f8301846119e1565b92915050565b5f81519050919050565b5f82825260208201905092915050565b8281835e5f83830152505050565b5f601f19601f8301169050919050565b5f611a4b82611a09565b611a558185611a13565b9350611a65818560208601611a23565b611a6e81611a31565b840191505092915050565b5f6020820190508181035f830152611a918184611a41565b905092915050565b5f819050919050565b611aab81611a99565b8114611ab5575f80fd5b50565b5f81359050611ac681611aa2565b92915050565b5f60208284031215611ae157611ae061194e565b5b5f611aee84828501611ab8565b91505092915050565b5f73ffffffffffffffffffffffffffffffffffffffff82169050919050565b5f611b2082611af7565b9050919050565b611b3081611b16565b82525050565b5f602082019050611b495f830184611b27565b92915050565b611b5881611b16565b8114611b62575f80fd5b50565b5f81359050611b7381611b4f565b92915050565b5f8060408385031215611b8f57611b8e61194e565b5b5f611b9c85828601611b65565b9250506020611bad85828601611ab8565b9150509250929050565b611bc081611a99565b82525050565b5f602082019050611bd95f830184611bb7565b92915050565b5f805f60608486031215611bf657611bf561194e565b5b5f611c0386828701611b65565b9350506020611c1486828701611b65565b9250506040611c2586828701611ab8565b9150509250925092565b5f80fd5b5f80fd5b5f80fd5b5f8083601f840112611c5057611c4f611c2f565b5b8235905067ffffffffffffffff811115611c6d57611c6c611c33565b5b602083019150836001820283011115611c8957611c88611c37565b5b9250929050565b5f8060208385031215611ca657611ca561194e565b5b5f83013567ffffffffffffffff811115611cc357611cc2611952565b5b611ccf85828601611c3b565b92509250509250929050565b5f60208284031215611cf057611cef61194e565b5b5f611cfd84828501611b65565b91505092915050565b611d0f816119d6565b8114611d19575f80fd5b50565b5f81359050611d2a81611d06565b92915050565b5f8060408385031215611d4657611d4561194e565b5b5f611d5385828601611b65565b9250506020611d6485828601611d1c565b9150509250929050565b5f80fd5b7f4e487b71000000000000000000000000000000000000000000000000000000005f52604160045260245ffd5b611da882611a31565b810181811067ffffffffffffffff82111715611dc757611dc6611d72565b5b80604052505050565b5f611dd9611945565b9050611de58282611d9f565b919050565b5f67ffffffffffffffff821115611e0457611e03611d72565b5b611e0d82611a31565b9050602081019050919050565b828183375f83830152505050565b5f611e3a611e3584611dea565b611dd0565b905082815260208101848484011115611e5657611e55611d6e565b5b611e61848285611e1a565b509392505050565b5f82601f830112611e7d57611e7c611c2f565b5b8135611e8d848260208601611e28565b91505092915050565b5f805f8060808587031215611eae57611ead61194e565b5b5f611ebb87828801611b65565b9450506020611ecc87828801611b65565b9350506040611edd87828801611ab8565b925050606085013567ffffffffffffffff811115611efe57611efd611952565b5b611f0a87828801611e69565b91505092959194509250565b5f8060408385031215611f2c57611f2b61194e565b5b5f611f3985828601611b65565b9250506020611f4a85828601611b65565b9150509250929050565b7f4e487b71000000000000000000000000000000000000000000000000000000005f52602260045260245ffd5b5f6002820490506001821680611f9857607f821691505b602082108103611fab57611faa611f54565b5b50919050565b7f4e487b71000000000000000000000000000000000000000000000000000000005f52601160045260245ffd5b5f611fe882611a99565b9150611ff383611a99565b925082820390508181111561200b5761200a611fb1565b5b92915050565b5f82905092915050565b5f819050815f5260205f209050919050565b5f6020601f8301049050919050565b5f82821b905092915050565b5f600883026120777fffffffffffffffffffffffffffffffffffffffffffffffffffffffffffffffff8261203c565b612081868361203c565b95508019841693508086168417925050509392505050565b5f819050919050565b5f6120bc6120b76120b284611a99565b612099565b611a99565b9050919050565b5f819050919050565b6120d5836120a2565b6120e96120e1826120c3565b848454612048565b825550505050565b5f90565b6120fd6120f1565b6121088184846120cc565b505050565b5b8181101561212b576121205f826120f5565b60018101905061210e565b5050565b601f821115612170576121418161201b565b61214a8461202d565b81016020851015612159578190505b61216d6121658561202d565b83018261210d565b50505b505050565b5f82821c905092915050565b5f6121905f1984600802612175565b1980831691505092915050565b5f6121a88383612181565b9150826002028217905092915050565b6121c28383612011565b67ffffffffffffffff8111156121db576121da611d72565b5b6121e58254611f81565b6121f082828561212f565b5f601f83116001811461221d575f841561220b578287013590505b612215858261219d565b86555061227c565b601f19841661222b8661201b565b5f5b828110156122525784890135825560018201915060208501945060208101905061222d565b8683101561226f578489013561226b601f891682612181565b8355505b6001600288020188555050505b50505050505050565b5f81905092915050565b50565b5f61229d5f83612285565b91506122a88261228f565b5f82019050919050565b5f6122bc82612292565b9150819050919050565b7f5472616e73666572206661696c65642e000000000000000000000000000000005f82015250565b5f6122fa601083611a13565b9150612305826122c6565b602082019050919050565b5f6020820190508181035f830152612327816122ee565b9050919050565b5f81905092915050565b5f61234282611a09565b61234c818561232e565b935061235c818560208601611a23565b80840191505092915050565b5f6123738285612338565b915061237f8284612338565b91508190509392505050565b5f61239582611a99565b91506123a083611a99565b92508282026123ae81611a99565b915082820484148315176123c5576123c4611fb1565b5b5092915050565b5f6123d682611a99565b91505f82036123e8576123e7611fb1565b5b600182039050919050565b5f81519050919050565b5f82825260208201905092915050565b5f612417826123f3565b61242181856123fd565b9350612431818560208601611a23565b61243a81611a31565b840191505092915050565b5f6080820190506124585f830187611b27565b6124656020830186611b27565b6124726040830185611bb7565b8181036060830152612484818461240d565b905095945050505050565b5f8151905061249d81611981565b92915050565b5f602082840312156124b8576124b761194e565b5b5f6124c58482850161248f565b9150509291505056fea26469706673582212206754915e5daf2d51daccb0ce4a2ca19c5d5ea93fc0eedb7a1806b0f99ff2433f64736f6c634300081a0033",
			"opcodes": "PUSH1 0x80 PUSH1 0x40 MSTORE PUSH1 0x40 MLOAD DUP1 PUSH1 0x20 ADD PUSH1 0x40 MSTORE DUP1 PUSH0 DUP2 MSTORE POP PUSH1 0xA SWAP1 DUP2 PUSH2 0x21 SWAP2 SWAP1 PUSH2 0x4DA JUMP JUMPDEST POP PUSH1 0x5 PUSH1 0xB SSTORE PUSH1 0x1 PUSH1 0xC SSTORE PUSH6 0x2D79883D2000 PUSH1 0xD SSTORE CALLVALUE DUP1 ISZERO PUSH2 0x41 JUMPI PUSH0 DUP1 REVERT JUMPDEST POP PUSH1 0x40 MLOAD PUSH2 0x2B6B CODESIZE SUB DUP1 PUSH2 0x2B6B DUP4 CODECOPY DUP2 DUP2 ADD PUSH1 0x40 MSTORE DUP2 ADD SWAP1 PUSH2 0x63 SWAP2 SWAP1 PUSH2 0x607 JUMP JUMPDEST DUP1 PUSH1 0x40 MLOAD DUP1 PUSH1 0x40 ADD PUSH1 0x40 MSTORE DUP1 PUSH1 0xB DUP2 MSTORE PUSH1 0x20 ADD PUSH32 0x56657279446F70654E4654000000000000000000000000000000000000000000 DUP2 MSTORE POP PUSH1 0x40 MLOAD DUP1 PUSH1 0x40 ADD PUSH1 0x40 MSTORE DUP1 PUSH1 0x3 DUP2 MSTORE PUSH1 0x20 ADD PUSH32 0x56444E0000000000000000000000000000000000000000000000000000000000 DUP2 MSTORE POP DUP2 PUSH1 0x2 SWAP1 DUP2 PUSH2 0xDF SWAP2 SWAP1 PUSH2 0x4DA JUMP JUMPDEST POP DUP1 PUSH1 0x3 SWAP1 DUP2 PUSH2 0xEF SWAP2 SWAP1 PUSH2 0x4DA JUMP JUMPDEST POP PUSH2 0xFE PUSH2 0x1C4 PUSH1 0x20 SHL PUSH1 0x20 SHR JUMP JUMPDEST PUSH0 DUP2 SWAP1 SSTORE POP PUSH2 0x111 PUSH2 0x1C4 PUSH1 0x20 SHL PUSH1 0x20 SHR JUMP JUMPDEST PUSH2 0x11F PUSH2 0x1CC PUSH1 0x20 SHL PUSH1 0x20 SHR JUMP JUMPDEST LT ISZERO PUSH2 0x13C JUMPI PUSH2 0x13B PUSH4 0xFED8210F PUSH1 0xE0 SHL PUSH2 0x1D5 PUSH1 0x20 SHL PUSH1 0x20 SHR JUMP JUMPDEST JUMPDEST POP POP PUSH0 PUSH20 0xFFFFFFFFFFFFFFFFFFFFFFFFFFFFFFFFFFFFFFFF AND DUP2 PUSH20 0xFFFFFFFFFFFFFFFFFFFFFFFFFFFFFFFFFFFFFFFF AND SUB PUSH2 0x1AE JUMPI PUSH0 PUSH1 0x40 MLOAD PUSH32 0x1E4FBDF700000000000000000000000000000000000000000000000000000000 DUP2 MSTORE PUSH1 0x4 ADD PUSH2 0x1A5 SWAP2 SWAP1 PUSH2 0x641 JUMP JUMPDEST PUSH1 0x40 MLOAD DUP1 SWAP2 SUB SWAP1 REVERT JUMPDEST PUSH2 0x1BD DUP2 PUSH2 0x1DD PUSH1 0x20 SHL PUSH1 0x20 SHR JUMP JUMPDEST POP POP PUSH2 0x65A JUMP JUMPDEST PUSH0 PUSH1 0x1 SWAP1 POP SWAP1 JUMP JUMPDEST PUSH0 PUSH2 0x3E7 SWAP1 POP SWAP1 JUMP JUMPDEST DUP1 PUSH0 MSTORE PUSH1 0x4 PUSH0 REVERT JUMPDEST PUSH0 PUSH1 0x9 PUSH0 SWAP1 SLOAD SWAP1 PUSH2 0x100 EXP SWAP1 DIV PUSH20 0xFFFFFFFFFFFFFFFFFFFFFFFFFFFFFFFFFFFFFFFF AND SWAP1 POP DUP2 PUSH1 0x9 PUSH0 PUSH2 0x100 EXP DUP2 SLOAD DUP2 PUSH20 0xFFFFFFFFFFFFFFFFFFFFFFFFFFFFFFFFFFFFFFFF MUL NOT AND SWAP1 DUP4 PUSH20 0xFFFFFFFFFFFFFFFFFFFFFFFFFFFFFFFFFFFFFFFF AND MUL OR SWAP1 SSTORE POP DUP2 PUSH20 0xFFFFFFFFFFFFFFFFFFFFFFFFFFFFFFFFFFFFFFFF AND DUP2 PUSH20 0xFFFFFFFFFFFFFFFFFFFFFFFFFFFFFFFFFFFFFFFF AND PUSH32 0x8BE0079C531659141344CD1FD0A4F28419497F9722A3DAAFE3B4186F6B6457E0 PUSH1 0x40 MLOAD PUSH1 0x40 MLOAD DUP1 SWAP2 SUB SWAP1 LOG3 POP POP JUMP JUMPDEST PUSH0 DUP2 MLOAD SWAP1 POP SWAP2 SWAP1 POP JUMP JUMPDEST PUSH32 0x4E487B7100000000000000000000000000000000000000000000000000000000 PUSH0 MSTORE PUSH1 0x41 PUSH1 0x4 MSTORE PUSH1 0x24 PUSH0 REVERT JUMPDEST PUSH32 0x4E487B7100000000000000000000000000000000000000000000000000000000 PUSH0 MSTORE PUSH1 0x22 PUSH1 0x4 MSTORE PUSH1 0x24 PUSH0 REVERT JUMPDEST PUSH0 PUSH1 0x2 DUP3 DIV SWAP1 POP PUSH1 0x1 DUP3 AND DUP1 PUSH2 0x31B JUMPI PUSH1 0x7F DUP3 AND SWAP2 POP JUMPDEST PUSH1 0x20 DUP3 LT DUP2 SUB PUSH2 0x32E JUMPI PUSH2 0x32D PUSH2 0x2D7 JUMP JUMPDEST JUMPDEST POP SWAP2 SWAP1 POP JUMP JUMPDEST PUSH0 DUP2 SWAP1 POP DUP2 PUSH0 MSTORE PUSH1 0x20 PUSH0 KECCAK256 SWAP1 POP SWAP2 SWAP1 POP JUMP JUMPDEST PUSH0 PUSH1 0x20 PUSH1 0x1F DUP4 ADD DIV SWAP1 POP SWAP2 SWAP1 POP JUMP JUMPDEST PUSH0 DUP3 DUP3 SHL SWAP1 POP SWAP3 SWAP2 POP POP JUMP JUMPDEST PUSH0 PUSH1 0x8 DUP4 MUL PUSH2 0x390 PUSH32 0xFFFFFFFFFFFFFFFFFFFFFFFFFFFFFFFFFFFFFFFFFFFFFFFFFFFFFFFFFFFFFFFF DUP3 PUSH2 0x355 JUMP JUMPDEST PUSH2 0x39A DUP7 DUP4 PUSH2 0x355 JUMP JUMPDEST SWAP6 POP DUP1 NOT DUP5 AND SWAP4 POP DUP1 DUP7 AND DUP5 OR SWAP3 POP POP POP SWAP4 SWAP3 POP POP POP JUMP JUMPDEST PUSH0 DUP2 SWAP1 POP SWAP2 SWAP1 POP JUMP JUMPDEST PUSH0 DUP2 SWAP1 POP SWAP2 SWAP1 POP JUMP JUMPDEST PUSH0 PUSH2 0x3DE PUSH2 0x3D9 PUSH2 0x3D4 DUP5 PUSH2 0x3B2 JUMP JUMPDEST PUSH2 0x3BB JUMP JUMPDEST PUSH2 0x3B2 JUMP JUMPDEST SWAP1 POP SWAP2 SWAP1 POP JUMP JUMPDEST PUSH0 DUP2 SWAP1 POP SWAP2 SWAP1 POP JUMP JUMPDEST PUSH2 0x3F7 DUP4 PUSH2 0x3C4 JUMP JUMPDEST PUSH2 0x40B PUSH2 0x403 DUP3 PUSH2 0x3E5 JUMP JUMPDEST DUP5 DUP5 SLOAD PUSH2 0x361 JUMP JUMPDEST DUP3 SSTORE POP POP POP POP JUMP JUMPDEST PUSH0 SWAP1 JUMP JUMPDEST PUSH2 0x41F PUSH2 0x413 JUMP JUMPDEST PUSH2 0x42A DUP2 DUP5 DUP5 PUSH2 0x3EE JUMP JUMPDEST POP POP POP JUMP JUMPDEST JUMPDEST DUP2 DUP2 LT ISZERO PUSH2 0x44D JUMPI PUSH2 0x442 PUSH0 DUP3 PUSH2 0x417 JUMP JUMPDEST PUSH1 0x1 DUP2 ADD SWAP1 POP PUSH2 0x430 JUMP JUMPDEST POP POP JUMP JUMPDEST PUSH1 0x1F DUP3 GT ISZERO PUSH2 0x492 JUMPI PUSH2 0x463 DUP2 PUSH2 0x334 JUMP JUMPDEST PUSH2 0x46C DUP5 PUSH2 0x346 JUMP JUMPDEST DUP2 ADD PUSH1 0x20 DUP6 LT ISZERO PUSH2 0x47B JUMPI DUP2 SWAP1 POP JUMPDEST PUSH2 0x48F PUSH2 0x487 DUP6 PUSH2 0x346 JUMP JUMPDEST DUP4 ADD DUP3 PUSH2 0x42F JUMP JUMPDEST POP POP JUMPDEST POP POP POP JUMP JUMPDEST PUSH0 DUP3 DUP3 SHR SWAP1 POP SWAP3 SWAP2 POP POP JUMP JUMPDEST PUSH0 PUSH2 0x4B2 PUSH0 NOT DUP5 PUSH1 0x8 MUL PUSH2 0x497 JUMP JUMPDEST NOT DUP1 DUP4 AND SWAP2 POP POP SWAP3 SWAP2 POP POP JUMP JUMPDEST PUSH0 PUSH2 0x4CA DUP4 DUP4 PUSH2 0x4A3 JUMP JUMPDEST SWAP2 POP DUP3 PUSH1 0x2 MUL DUP3 OR SWAP1 POP SWAP3 SWAP2 POP POP JUMP JUMPDEST PUSH2 0x4E3 DUP3 PUSH2 0x2A0 JUMP JUMPDEST PUSH8 0xFFFFFFFFFFFFFFFF DUP2 GT ISZERO PUSH2 0x4FC JUMPI PUSH2 0x4FB PUSH2 0x2AA JUMP JUMPDEST JUMPDEST PUSH2 0x506 DUP3 SLOAD PUSH2 0x304 JUMP JUMPDEST PUSH2 0x511 DUP3 DUP3 DUP6 PUSH2 0x451 JUMP JUMPDEST PUSH0 PUSH1 0x20 SWAP1 POP PUSH1 0x1F DUP4 GT PUSH1 0x1 DUP2 EQ PUSH2 0x542 JUMPI PUSH0 DUP5 ISZERO PUSH2 0x530 JUMPI DUP3 DUP8 ADD MLOAD SWAP1 POP JUMPDEST PUSH2 0x53A DUP6 DUP3 PUSH2 0x4BF JUMP JUMPDEST DUP7 SSTORE POP PUSH2 0x5A1 JUMP JUMPDEST PUSH1 0x1F NOT DUP5 AND PUSH2 0x550 DUP7 PUSH2 0x334 JUMP JUMPDEST PUSH0 JUMPDEST DUP3 DUP2 LT ISZERO PUSH2 0x577 JUMPI DUP5 DUP10 ADD MLOAD DUP3 SSTORE PUSH1 0x1 DUP3 ADD SWAP2 POP PUSH1 0x20 DUP6 ADD SWAP5 POP PUSH1 0x20 DUP2 ADD SWAP1 POP PUSH2 0x552 JUMP JUMPDEST DUP7 DUP4 LT ISZERO PUSH2 0x594 JUMPI DUP5 DUP10 ADD MLOAD PUSH2 0x590 PUSH1 0x1F DUP10 AND DUP3 PUSH2 0x4A3 JUMP JUMPDEST DUP4 SSTORE POP JUMPDEST PUSH1 0x1 PUSH1 0x2 DUP9 MUL ADD DUP9 SSTORE POP POP POP JUMPDEST POP POP POP POP POP POP JUMP JUMPDEST PUSH0 DUP1 REVERT JUMPDEST PUSH0 PUSH20 0xFFFFFFFFFFFFFFFFFFFFFFFFFFFFFFFFFFFFFFFF DUP3 AND SWAP1 POP SWAP2 SWAP1 POP JUMP JUMPDEST PUSH0 PUSH2 0x5D6 DUP3 PUSH2 0x5AD JUMP JUMPDEST SWAP1 POP SWAP2 SWAP1 POP JUMP JUMPDEST PUSH2 0x5E6 DUP2 PUSH2 0x5CC JUMP JUMPDEST DUP2 EQ PUSH2 0x5F0 JUMPI PUSH0 DUP1 REVERT JUMPDEST POP JUMP JUMPDEST PUSH0 DUP2 MLOAD SWAP1 POP PUSH2 0x601 DUP2 PUSH2 0x5DD JUMP JUMPDEST SWAP3 SWAP2 POP POP JUMP JUMPDEST PUSH0 PUSH1 0x20 DUP3 DUP5 SUB SLT ISZERO PUSH2 0x61C JUMPI PUSH2 0x61B PUSH2 0x5A9 JUMP JUMPDEST JUMPDEST PUSH0 PUSH2 0x629 DUP5 DUP3 DUP6 ADD PUSH2 0x5F3 JUMP JUMPDEST SWAP2 POP POP SWAP3 SWAP2 POP POP JUMP JUMPDEST PUSH2 0x63B DUP2 PUSH2 0x5CC JUMP JUMPDEST DUP3 MSTORE POP POP JUMP JUMPDEST PUSH0 PUSH1 0x20 DUP3 ADD SWAP1 POP PUSH2 0x654 PUSH0 DUP4 ADD DUP5 PUSH2 0x632 JUMP JUMPDEST SWAP3 SWAP2 POP POP JUMP JUMPDEST PUSH2 0x2504 DUP1 PUSH2 0x667 PUSH0 CODECOPY PUSH0 RETURN INVALID PUSH1 0x80 PUSH1 0x40 MSTORE PUSH1 0x4 CALLDATASIZE LT PUSH2 0x180 JUMPI PUSH0 CALLDATALOAD PUSH1 0xE0 SHR DUP1 PUSH4 0x715018A6 GT PUSH2 0xD0 JUMPI DUP1 PUSH4 0xB228D925 GT PUSH2 0x89 JUMPI DUP1 PUSH4 0xE6A72ACF GT PUSH2 0x63 JUMPI DUP1 PUSH4 0xE6A72ACF EQ PUSH2 0x504 JUMPI DUP1 PUSH4 0xE985E9C5 EQ PUSH2 0x540 JUMPI DUP1 PUSH4 0xF2FDE38B EQ PUSH2 0x57C JUMPI DUP1 PUSH4 0xF4A0A528 EQ PUSH2 0x5A4 JUMPI PUSH2 0x180 JUMP JUMPDEST DUP1 PUSH4 0xB228D925 EQ PUSH2 0x482 JUMPI DUP1 PUSH4 0xB88D4FDE EQ PUSH2 0x4AC JUMPI DUP1 PUSH4 0xC87B56DD EQ PUSH2 0x4C8 JUMPI PUSH2 0x180 JUMP JUMPDEST DUP1 PUSH4 0x715018A6 EQ PUSH2 0x3BE JUMPI DUP1 PUSH4 0x8DA5CB5B EQ PUSH2 0x3D4 JUMPI DUP1 PUSH4 0x95D89B41 EQ PUSH2 0x3FE JUMPI DUP1 PUSH4 0xA0712D68 EQ PUSH2 0x428 JUMPI DUP1 PUSH4 0xA22CB465 EQ PUSH2 0x444 JUMPI DUP1 PUSH4 0xAC446002 EQ PUSH2 0x46C JUMPI PUSH2 0x180 JUMP JUMPDEST DUP1 PUSH4 0x23B872DD GT PUSH2 0x13D JUMPI DUP1 PUSH4 0x42842E0E GT PUSH2 0x117 JUMPI DUP1 PUSH4 0x42842E0E EQ PUSH2 0x302 JUMPI DUP1 PUSH4 0x55F804B3 EQ PUSH2 0x31E JUMPI DUP1 PUSH4 0x6352211E EQ PUSH2 0x346 JUMPI DUP1 PUSH4 0x70A08231 EQ PUSH2 0x382 JUMPI PUSH2 0x180 JUMP JUMPDEST DUP1 PUSH4 0x23B872DD EQ PUSH2 0x296 JUMPI DUP1 PUSH4 0x253CA934 EQ PUSH2 0x2B2 JUMPI DUP1 PUSH4 0x3345D34A EQ PUSH2 0x2DA JUMPI PUSH2 0x180 JUMP JUMPDEST DUP1 PUSH4 0x1FFC9A7 EQ PUSH2 0x184 JUMPI DUP1 PUSH4 0x6FDDE03 EQ PUSH2 0x1C0 JUMPI DUP1 PUSH4 0x81812FC EQ PUSH2 0x1EA JUMPI DUP1 PUSH4 0x95EA7B3 EQ PUSH2 0x226 JUMPI DUP1 PUSH4 0x13E4FAD5 EQ PUSH2 0x242 JUMPI DUP1 PUSH4 0x18160DDD EQ PUSH2 0x26C JUMPI JUMPDEST PUSH0 DUP1 REVERT JUMPDEST CALLVALUE DUP1 ISZERO PUSH2 0x18F JUMPI PUSH0 DUP1 REVERT JUMPDEST POP PUSH2 0x1AA PUSH1 0x4 DUP1 CALLDATASIZE SUB DUP2 ADD SWAP1 PUSH2 0x1A5 SWAP2 SWAP1 PUSH2 0x19AB JUMP JUMPDEST PUSH2 0x5CC JUMP JUMPDEST PUSH1 0x40 MLOAD PUSH2 0x1B7 SWAP2 SWAP1 PUSH2 0x19F0 JUMP JUMPDEST PUSH1 0x40 MLOAD DUP1 SWAP2 SUB SWAP1 RETURN JUMPDEST CALLVALUE DUP1 ISZERO PUSH2 0x1CB JUMPI PUSH0 DUP1 REVERT JUMPDEST POP PUSH2 0x1D4 PUSH2 0x65D JUMP JUMPDEST PUSH1 0x40 MLOAD PUSH2 0x1E1 SWAP2 SWAP1 PUSH2 0x1A79 JUMP JUMPDEST PUSH1 0x40 MLOAD DUP1 SWAP2 SUB SWAP1 RETURN JUMPDEST CALLVALUE DUP1 ISZERO PUSH2 0x1F5 JUMPI PUSH0 DUP1 REVERT JUMPDEST POP PUSH2 0x210 PUSH1 0x4 DUP1 CALLDATASIZE SUB DUP2 ADD SWAP1 PUSH2 0x20B SWAP2 SWAP1 PUSH2 0x1ACC JUMP JUMPDEST PUSH2 0x6ED JUMP JUMPDEST PUSH1 0x40 MLOAD PUSH2 0x21D SWAP2 SWAP1 PUSH2 0x1B36 JUMP JUMPDEST PUSH1 0x40 MLOAD DUP1 SWAP2 SUB SWAP1 RETURN JUMPDEST PUSH2 0x240 PUSH1 0x4 DUP1 CALLDATASIZE SUB DUP2 ADD SWAP1 PUSH2 0x23B SWAP2 SWAP1 PUSH2 0x1B79 JUMP JUMPDEST PUSH2 0x746 JUMP JUMPDEST STOP JUMPDEST CALLVALUE DUP1 ISZERO PUSH2 0x24D JUMPI PUSH0 DUP1 REVERT JUMPDEST POP PUSH2 0x256 PUSH2 0x756 JUMP JUMPDEST PUSH1 0x40 MLOAD PUSH2 0x263 SWAP2 SWAP1 PUSH2 0x1BC6 JUMP JUMPDEST PUSH1 0x40 MLOAD DUP1 SWAP2 SUB SWAP1 RETURN JUMPDEST CALLVALUE DUP1 ISZERO PUSH2 0x277 JUMPI PUSH0 DUP1 REVERT JUMPDEST POP PUSH2 0x280 PUSH2 0x78B JUMP JUMPDEST PUSH1 0x40 MLOAD PUSH2 0x28D SWAP2 SWAP1 PUSH2 0x1BC6 JUMP JUMPDEST PUSH1 0x40 MLOAD DUP1 SWAP2 SUB SWAP1 RETURN JUMPDEST PUSH2 0x2B0 PUSH1 0x4 DUP1 CALLDATASIZE SUB DUP2 ADD SWAP1 PUSH2 0x2AB SWAP2 SWAP1 PUSH2 0x1BDF JUMP JUMPDEST PUSH2 0x7D6 JUMP JUMPDEST STOP JUMPDEST CALLVALUE DUP1 ISZERO PUSH2 0x2BD JUMPI PUSH0 DUP1 REVERT JUMPDEST POP PUSH2 0x2D8 PUSH1 0x4 DUP1 CALLDATASIZE SUB DUP2 ADD SWAP1 PUSH2 0x2D3 SWAP2 SWAP1 PUSH2 0x1ACC JUMP JUMPDEST PUSH2 0xA57 JUMP JUMPDEST STOP JUMPDEST CALLVALUE DUP1 ISZERO PUSH2 0x2E5 JUMPI PUSH0 DUP1 REVERT JUMPDEST POP PUSH2 0x300 PUSH1 0x4 DUP1 CALLDATASIZE SUB DUP2 ADD SWAP1 PUSH2 0x2FB SWAP2 SWAP1 PUSH2 0x1ACC JUMP JUMPDEST PUSH2 0xA69 JUMP JUMPDEST STOP JUMPDEST PUSH2 0x31C PUSH1 0x4 DUP1 CALLDATASIZE SUB DUP2 ADD SWAP1 PUSH2 0x317 SWAP2 SWAP1 PUSH2 0x1BDF JUMP JUMPDEST PUSH2 0xA7B JUMP JUMPDEST STOP JUMPDEST CALLVALUE DUP1 ISZERO PUSH2 0x329 JUMPI PUSH0 DUP1 REVERT JUMPDEST POP PUSH2 0x344 PUSH1 0x4 DUP1 CALLDATASIZE SUB DUP2 ADD SWAP1 PUSH2 0x33F SWAP2 SWAP1 PUSH2 0x1C90 JUMP JUMPDEST PUSH2 0xA9A JUMP JUMPDEST STOP JUMPDEST CALLVALUE DUP1 ISZERO PUSH2 0x351 JUMPI PUSH0 DUP1 REVERT JUMPDEST POP PUSH2 0x36C PUSH1 0x4 DUP1 CALLDATASIZE SUB DUP2 ADD SWAP1 PUSH2 0x367 SWAP2 SWAP1 PUSH2 0x1ACC JUMP JUMPDEST PUSH2 0xAB8 JUMP JUMPDEST PUSH1 0x40 MLOAD PUSH2 0x379 SWAP2 SWAP1 PUSH2 0x1B36 JUMP JUMPDEST PUSH1 0x40 MLOAD DUP1 SWAP2 SUB SWAP1 RETURN JUMPDEST CALLVALUE DUP1 ISZERO PUSH2 0x38D JUMPI PUSH0 DUP1 REVERT JUMPDEST POP PUSH2 0x3A8 PUSH1 0x4 DUP1 CALLDATASIZE SUB DUP2 ADD SWAP1 PUSH2 0x3A3 SWAP2 SWAP1 PUSH2 0x1CDB JUMP JUMPDEST PUSH2 0xAC9 JUMP JUMPDEST PUSH1 0x40 MLOAD PUSH2 0x3B5 SWAP2 SWAP1 PUSH2 0x1BC6 JUMP JUMPDEST PUSH1 0x40 MLOAD DUP1 SWAP2 SUB SWAP1 RETURN JUMPDEST CALLVALUE DUP1 ISZERO PUSH2 0x3C9 JUMPI PUSH0 DUP1 REVERT JUMPDEST POP PUSH2 0x3D2 PUSH2 0xB5D JUMP JUMPDEST STOP JUMPDEST CALLVALUE DUP1 ISZERO PUSH2 0x3DF JUMPI PUSH0 DUP1 REVERT JUMPDEST POP PUSH2 0x3E8 PUSH2 0xB70 JUMP JUMPDEST PUSH1 0x40 MLOAD PUSH2 0x3F5 SWAP2 SWAP1 PUSH2 0x1B36 JUMP JUMPDEST PUSH1 0x40 MLOAD DUP1 SWAP2 SUB SWAP1 RETURN JUMPDEST CALLVALUE DUP1 ISZERO PUSH2 0x409 JUMPI PUSH0 DUP1 REVERT JUMPDEST POP PUSH2 0x412 PUSH2 0xB98 JUMP JUMPDEST PUSH1 0x40 MLOAD PUSH2 0x41F SWAP2 SWAP1 PUSH2 0x1A79 JUMP JUMPDEST PUSH1 0x40 MLOAD DUP1 SWAP2 SUB SWAP1 RETURN JUMPDEST PUSH2 0x442 PUSH1 0x4 DUP1 CALLDATASIZE SUB DUP2 ADD SWAP1 PUSH2 0x43D SWAP2 SWAP1 PUSH2 0x1ACC JUMP JUMPDEST PUSH2 0xC28 JUMP JUMPDEST STOP JUMPDEST CALLVALUE DUP1 ISZERO PUSH2 0x44F JUMPI PUSH0 DUP1 REVERT JUMPDEST POP PUSH2 0x46A PUSH1 0x4 DUP1 CALLDATASIZE SUB DUP2 ADD SWAP1 PUSH2 0x465 SWAP2 SWAP1 PUSH2 0x1D30 JUMP JUMPDEST PUSH2 0xC35 JUMP JUMPDEST STOP JUMPDEST CALLVALUE DUP1 ISZERO PUSH2 0x477 JUMPI PUSH0 DUP1 REVERT JUMPDEST POP PUSH2 0x480 PUSH2 0xD3B JUMP JUMPDEST STOP JUMPDEST CALLVALUE DUP1 ISZERO PUSH2 0x48D JUMPI PUSH0 DUP1 REVERT JUMPDEST POP PUSH2 0x496 PUSH2 0xDEE JUMP JUMPDEST PUSH1 0x40 MLOAD PUSH2 0x4A3 SWAP2 SWAP1 PUSH2 0x1BC6 JUMP JUMPDEST PUSH1 0x40 MLOAD DUP1 SWAP2 SUB SWAP1 RETURN JUMPDEST PUSH2 0x4C6 PUSH1 0x4 DUP1 CALLDATASIZE SUB DUP2 ADD SWAP1 PUSH2 0x4C1 SWAP2 SWAP1 PUSH2 0x1E96 JUMP JUMPDEST PUSH2 0xDF7 JUMP JUMPDEST STOP JUMPDEST CALLVALUE DUP1 ISZERO PUSH2 0x4D3 JUMPI PUSH0 DUP1 REVERT JUMPDEST POP PUSH2 0x4EE PUSH1 0x4 DUP1 CALLDATASIZE SUB DUP2 ADD SWAP1 PUSH2 0x4E9 SWAP2 SWAP1 PUSH2 0x1ACC JUMP JUMPDEST PUSH2 0xE48 JUMP JUMPDEST PUSH1 0x40 MLOAD PUSH2 0x4FB SWAP2 SWAP1 PUSH2 0x1A79 JUMP JUMPDEST PUSH1 0x40 MLOAD DUP1 SWAP2 SUB SWAP1 RETURN JUMPDEST CALLVALUE DUP1 ISZERO PUSH2 0x50F JUMPI PUSH0 DUP1 REVERT JUMPDEST POP PUSH2 0x52A PUSH1 0x4 DUP1 CALLDATASIZE SUB DUP2 ADD SWAP1 PUSH2 0x525 SWAP2 SWAP1 PUSH2 0x1ACC JUMP JUMPDEST PUSH2 0xEC2 JUMP JUMPDEST PUSH1 0x40 MLOAD PUSH2 0x537 SWAP2 SWAP1 PUSH2 0x1BC6 JUMP JUMPDEST PUSH1 0x40 MLOAD DUP1 SWAP2 SUB SWAP1 RETURN JUMPDEST CALLVALUE DUP1 ISZERO PUSH2 0x54B JUMPI PUSH0 DUP1 REVERT JUMPDEST POP PUSH2 0x566 PUSH1 0x4 DUP1 CALLDATASIZE SUB DUP2 ADD SWAP1 PUSH2 0x561 SWAP2 SWAP1 PUSH2 0x1F16 JUMP JUMPDEST PUSH2 0xF01 JUMP JUMPDEST PUSH1 0x40 MLOAD PUSH2 0x573 SWAP2 SWAP1 PUSH2 0x19F0 JUMP JUMPDEST PUSH1 0x40 MLOAD DUP1 SWAP2 SUB SWAP1 RETURN JUMPDEST CALLVALUE DUP1 ISZERO PUSH2 0x587 JUMPI PUSH0 DUP1 REVERT JUMPDEST POP PUSH2 0x5A2 PUSH1 0x4 DUP1 CALLDATASIZE SUB DUP2 ADD SWAP1 PUSH2 0x59D SWAP2 SWAP1 PUSH2 0x1CDB JUMP JUMPDEST PUSH2 0xF8F JUMP JUMPDEST STOP JUMPDEST CALLVALUE DUP1 ISZERO PUSH2 0x5AF JUMPI PUSH0 DUP1 REVERT JUMPDEST POP PUSH2 0x5CA PUSH1 0x4 DUP1 CALLDATASIZE SUB DUP2 ADD SWAP1 PUSH2 0x5C5 SWAP2 SWAP1 PUSH2 0x1ACC JUMP JUMPDEST PUSH2 0x1013 JUMP JUMPDEST STOP JUMPDEST PUSH0 PUSH4 0x1FFC9A7 PUSH1 0xE0 SHL DUP3 PUSH28 0xFFFFFFFFFFFFFFFFFFFFFFFFFFFFFFFFFFFFFFFFFFFFFFFFFFFFFFFF NOT AND EQ DUP1 PUSH2 0x626 JUMPI POP PUSH4 0x80AC58CD PUSH1 0xE0 SHL DUP3 PUSH28 0xFFFFFFFFFFFFFFFFFFFFFFFFFFFFFFFFFFFFFFFFFFFFFFFFFFFFFFFF NOT AND EQ JUMPDEST DUP1 PUSH2 0x656 JUMPI POP PUSH4 0x5B5E139F PUSH1 0xE0 SHL DUP3 PUSH28 0xFFFFFFFFFFFFFFFFFFFFFFFFFFFFFFFFFFFFFFFFFFFFFFFFFFFFFFFF NOT AND EQ JUMPDEST SWAP1 POP SWAP2 SWAP1 POP JUMP JUMPDEST PUSH1 0x60 PUSH1 0x2 DUP1 SLOAD PUSH2 0x66C SWAP1 PUSH2 0x1F81 JUMP JUMPDEST DUP1 PUSH1 0x1F ADD PUSH1 0x20 DUP1 SWAP2 DIV MUL PUSH1 0x20 ADD PUSH1 0x40 MLOAD SWAP1 DUP2 ADD PUSH1 0x40 MSTORE DUP1 SWAP3 SWAP2 SWAP1 DUP2 DUP2 MSTORE PUSH1 0x20 ADD DUP3 DUP1 SLOAD PUSH2 0x698 SWAP1 PUSH2 0x1F81 JUMP JUMPDEST DUP1 ISZERO PUSH2 0x6E3 JUMPI DUP1 PUSH1 0x1F LT PUSH2 0x6BA JUMPI PUSH2 0x100 DUP1 DUP4 SLOAD DIV MUL DUP4 MSTORE SWAP2 PUSH1 0x20 ADD SWAP2 PUSH2 0x6E3 JUMP JUMPDEST DUP3 ADD SWAP2 SWAP1 PUSH0 MSTORE PUSH1 0x20 PUSH0 KECCAK256 SWAP1 JUMPDEST DUP2 SLOAD DUP2 MSTORE SWAP1 PUSH1 0x1 ADD SWAP1 PUSH1 0x20 ADD DUP1 DUP4 GT PUSH2 0x6C6 JUMPI DUP3 SWAP1 SUB PUSH1 0x1F AND DUP3 ADD SWAP2 JUMPDEST POP POP POP POP POP SWAP1 POP SWAP1 JUMP JUMPDEST PUSH0 PUSH2 0x6F7 DUP3 PUSH2 0x1025 JUMP JUMPDEST PUSH2 0x70C JUMPI PUSH2 0x70B PUSH4 0xCF4700E4 PUSH1 0xE0 SHL PUSH2 0x10C8 JUMP JUMPDEST JUMPDEST PUSH1 0x6 PUSH0 DUP4 DUP2 MSTORE PUSH1 0x20 ADD SWAP1 DUP2 MSTORE PUSH1 0x20 ADD PUSH0 KECCAK256 PUSH0 ADD PUSH0 SWAP1 SLOAD SWAP1 PUSH2 0x100 EXP SWAP1 DIV PUSH20 0xFFFFFFFFFFFFFFFFFFFFFFFFFFFFFFFFFFFFFFFF AND SWAP1 POP SWAP2 SWAP1 POP JUMP JUMPDEST PUSH2 0x752 DUP3 DUP3 PUSH1 0x1 PUSH2 0x10D0 JUMP JUMPDEST POP POP JUMP JUMPDEST PUSH0 PUSH1 0xC SLOAD PUSH2 0x763 CALLER PUSH2 0x11FA JUMP JUMPDEST LT ISZERO PUSH2 0x784 JUMPI PUSH2 0x772 CALLER PUSH2 0x11FA JUMP JUMPDEST PUSH1 0xC SLOAD PUSH2 0x77F SWAP2 SWAP1 PUSH2 0x1FDE JUMP JUMPDEST PUSH2 0x786 JUMP JUMPDEST PUSH0 JUMPDEST SWAP1 POP SWAP1 JUMP JUMPDEST PUSH0 PUSH2 0x794 PUSH2 0x124E JUMP JUMPDEST PUSH1 0x1 SLOAD PUSH0 SLOAD SUB SUB SWAP1 POP PUSH32 0xFFFFFFFFFFFFFFFFFFFFFFFFFFFFFFFFFFFFFFFFFFFFFFFFFFFFFFFFFFFFFFFF PUSH2 0x7C6 PUSH2 0x1256 JUMP JUMPDEST EQ PUSH2 0x7D3 JUMPI PUSH1 0x8 SLOAD DUP2 ADD SWAP1 POP JUMPDEST SWAP1 JUMP JUMPDEST PUSH0 PUSH2 0x7E0 DUP3 PUSH2 0x125F JUMP JUMPDEST SWAP1 POP PUSH0 DUP5 PUSH20 0xFFFFFFFFFFFFFFFFFFFFFFFFFFFFFFFFFFFFFFFF AND SWAP1 POP DUP1 DUP3 PUSH20 0xFFFFFFFFFFFFFFFFFFFFFFFFFFFFFFFFFFFFFFFF AND EQ PUSH2 0x82A JUMPI PUSH2 0x829 PUSH4 0xA1148100 PUSH1 0xE0 SHL PUSH2 0x10C8 JUMP JUMPDEST JUMPDEST PUSH0 DUP1 PUSH2 0x835 DUP6 PUSH2 0x136E JUMP JUMPDEST SWAP2 POP SWAP2 POP PUSH2 0x861 DUP2 DUP5 PUSH2 0x846 PUSH2 0x1391 JUMP JUMPDEST PUSH20 0xFFFFFFFFFFFFFFFFFFFFFFFFFFFFFFFFFFFFFFFF AND PUSH2 0x1398 JUMP JUMPDEST PUSH2 0x88C JUMPI PUSH2 0x876 DUP8 PUSH2 0x871 PUSH2 0x1391 JUMP JUMPDEST PUSH2 0xF01 JUMP JUMPDEST PUSH2 0x88B JUMPI PUSH2 0x88A PUSH4 0x59C896BE PUSH1 0xE0 SHL PUSH2 0x10C8 JUMP JUMPDEST JUMPDEST JUMPDEST PUSH2 0x899 DUP8 DUP8 DUP8 PUSH1 0x1 PUSH2 0x13A9 JUMP JUMPDEST DUP1 ISZERO PUSH2 0x8A3 JUMPI PUSH0 DUP3 SSTORE JUMPDEST PUSH1 0x5 PUSH0 DUP9 PUSH20 0xFFFFFFFFFFFFFFFFFFFFFFFFFFFFFFFFFFFFFFFF AND PUSH20 0xFFFFFFFFFFFFFFFFFFFFFFFFFFFFFFFFFFFFFFFF AND DUP2 MSTORE PUSH1 0x20 ADD SWAP1 DUP2 MSTORE PUSH1 0x20 ADD PUSH0 KECCAK256 PUSH0 DUP2 SLOAD PUSH1 0x1 SWAP1 SUB SWAP2 SWAP1 POP DUP2 SWAP1 SSTORE POP PUSH1 0x5 PUSH0 DUP8 PUSH20 0xFFFFFFFFFFFFFFFFFFFFFFFFFFFFFFFFFFFFFFFF AND PUSH20 0xFFFFFFFFFFFFFFFFFFFFFFFFFFFFFFFFFFFFFFFF AND DUP2 MSTORE PUSH1 0x20 ADD SWAP1 DUP2 MSTORE PUSH1 0x20 ADD PUSH0 KECCAK256 PUSH0 DUP2 SLOAD PUSH1 0x1 ADD SWAP2 SWAP1 POP DUP2 SWAP1 SSTORE POP PUSH2 0x96B DUP7 PUSH2 0x947 DUP10 DUP10 DUP9 PUSH2 0x13AF JUMP JUMPDEST PUSH29 0x200000000000000000000000000000000000000000000000000000000 OR PUSH2 0x13D6 JUMP JUMPDEST PUSH1 0x4 PUSH0 DUP8 DUP2 MSTORE PUSH1 0x20 ADD SWAP1 DUP2 MSTORE PUSH1 0x20 ADD PUSH0 KECCAK256 DUP2 SWAP1 SSTORE POP PUSH0 PUSH29 0x200000000000000000000000000000000000000000000000000000000 DUP6 AND SUB PUSH2 0x9E7 JUMPI PUSH0 PUSH1 0x1 DUP7 ADD SWAP1 POP PUSH0 PUSH1 0x4 PUSH0 DUP4 DUP2 MSTORE PUSH1 0x20 ADD SWAP1 DUP2 MSTORE PUSH1 0x20 ADD PUSH0 KECCAK256 SLOAD SUB PUSH2 0x9E5 JUMPI PUSH0 SLOAD DUP2 EQ PUSH2 0x9E4 JUMPI DUP5 PUSH1 0x4 PUSH0 DUP4 DUP2 MSTORE PUSH1 0x20 ADD SWAP1 DUP2 MSTORE PUSH1 0x20 ADD PUSH0 KECCAK256 DUP2 SWAP1 SSTORE POP JUMPDEST JUMPDEST POP JUMPDEST PUSH0 DUP7 PUSH20 0xFFFFFFFFFFFFFFFFFFFFFFFFFFFFFFFFFFFFFFFF AND SWAP1 POP DUP6 DUP2 DUP6 PUSH32 0xDDF252AD1BE2C89B69C2B068FC378DAA952BA7F163C4A11628F55A4DF523B3EF PUSH0 DUP1 LOG4 PUSH0 DUP2 SUB PUSH2 0xA40 JUMPI PUSH2 0xA3F PUSH4 0xEA553B34 PUSH1 0xE0 SHL PUSH2 0x10C8 JUMP JUMPDEST JUMPDEST PUSH2 0xA4D DUP9 DUP9 DUP9 PUSH1 0x1 PUSH2 0x1400 JUMP JUMPDEST POP POP POP POP POP POP POP POP JUMP JUMPDEST PUSH2 0xA5F PUSH2 0x1406 JUMP JUMPDEST DUP1 PUSH1 0xC DUP2 SWAP1 SSTORE POP POP JUMP JUMPDEST PUSH2 0xA71 PUSH2 0x1406 JUMP JUMPDEST DUP1 PUSH1 0xB DUP2 SWAP1 SSTORE POP POP JUMP JUMPDEST PUSH2 0xA95 DUP4 DUP4 DUP4 PUSH1 0x40 MLOAD DUP1 PUSH1 0x20 ADD PUSH1 0x40 MSTORE DUP1 PUSH0 DUP2 MSTORE POP PUSH2 0xDF7 JUMP JUMPDEST POP POP POP JUMP JUMPDEST PUSH2 0xAA2 PUSH2 0x1406 JUMP JUMPDEST DUP2 DUP2 PUSH1 0xA SWAP2 DUP3 PUSH2 0xAB3 SWAP3 SWAP2 SWAP1 PUSH2 0x21B8 JUMP JUMPDEST POP POP POP JUMP JUMPDEST PUSH0 PUSH2 0xAC2 DUP3 PUSH2 0x125F JUMP JUMPDEST SWAP1 POP SWAP2 SWAP1 POP JUMP JUMPDEST PUSH0 DUP1 PUSH20 0xFFFFFFFFFFFFFFFFFFFFFFFFFFFFFFFFFFFFFFFF AND DUP3 PUSH20 0xFFFFFFFFFFFFFFFFFFFFFFFFFFFFFFFFFFFFFFFF AND SUB PUSH2 0xB0E JUMPI PUSH2 0xB0D PUSH4 0x8F4EB604 PUSH1 0xE0 SHL PUSH2 0x10C8 JUMP JUMPDEST JUMPDEST PUSH8 0xFFFFFFFFFFFFFFFF PUSH1 0x5 PUSH0 DUP5 PUSH20 0xFFFFFFFFFFFFFFFFFFFFFFFFFFFFFFFFFFFFFFFF AND PUSH20 0xFFFFFFFFFFFFFFFFFFFFFFFFFFFFFFFFFFFFFFFF AND DUP2 MSTORE PUSH1 0x20 ADD SWAP1 DUP2 MSTORE PUSH1 0x20 ADD PUSH0 KECCAK256 SLOAD AND SWAP1 POP SWAP2 SWAP1 POP JUMP JUMPDEST PUSH2 0xB65 PUSH2 0x1406 JUMP JUMPDEST PUSH2 0xB6E PUSH0 PUSH2 0x148D JUMP JUMPDEST JUMP JUMPDEST PUSH0 PUSH1 0x9 PUSH0 SWAP1 SLOAD SWAP1 PUSH2 0x100 EXP SWAP1 DIV PUSH20 0xFFFFFFFFFFFFFFFFFFFFFFFFFFFFFFFFFFFFFFFF AND SWAP1 POP SWAP1 JUMP JUMPDEST PUSH1 0x60 PUSH1 0x3 DUP1 SLOAD PUSH2 0xBA7 SWAP1 PUSH2 0x1F81 JUMP JUMPDEST DUP1 PUSH1 0x1F ADD PUSH1 0x20 DUP1 SWAP2 DIV MUL PUSH1 0x20 ADD PUSH1 0x40 MLOAD SWAP1 DUP2 ADD PUSH1 0x40 MSTORE DUP1 SWAP3 SWAP2 SWAP1 DUP2 DUP2 MSTORE PUSH1 0x20 ADD DUP3 DUP1 SLOAD PUSH2 0xBD3 SWAP1 PUSH2 0x1F81 JUMP JUMPDEST DUP1 ISZERO PUSH2 0xC1E JUMPI DUP1 PUSH1 0x1F LT PUSH2 0xBF5 JUMPI PUSH2 0x100 DUP1 DUP4 SLOAD DIV MUL DUP4 MSTORE SWAP2 PUSH1 0x20 ADD SWAP2 PUSH2 0xC1E JUMP JUMPDEST DUP3 ADD SWAP2 SWAP1 PUSH0 MSTORE PUSH1 0x20 PUSH0 KECCAK256 SWAP1 JUMPDEST DUP2 SLOAD DUP2 MSTORE SWAP1 PUSH1 0x1 ADD SWAP1 PUSH1 0x20 ADD DUP1 DUP4 GT PUSH2 0xC01 JUMPI DUP3 SWAP1 SUB PUSH1 0x1F AND DUP3 ADD SWAP2 JUMPDEST POP POP POP POP POP SWAP1 POP SWAP1 JUMP JUMPDEST PUSH2 0xC32 CALLER DUP3 PUSH2 0x1550 JUMP JUMPDEST POP JUMP JUMPDEST DUP1 PUSH1 0x7 PUSH0 PUSH2 0xC41 PUSH2 0x1391 JUMP JUMPDEST PUSH20 0xFFFFFFFFFFFFFFFFFFFFFFFFFFFFFFFFFFFFFFFF AND PUSH20 0xFFFFFFFFFFFFFFFFFFFFFFFFFFFFFFFFFFFFFFFF AND DUP2 MSTORE PUSH1 0x20 ADD SWAP1 DUP2 MSTORE PUSH1 0x20 ADD PUSH0 KECCAK256 PUSH0 DUP5 PUSH20 0xFFFFFFFFFFFFFFFFFFFFFFFFFFFFFFFFFFFFFFFF AND PUSH20 0xFFFFFFFFFFFFFFFFFFFFFFFFFFFFFFFFFFFFFFFF AND DUP2 MSTORE PUSH1 0x20 ADD SWAP1 DUP2 MSTORE PUSH1 0x20 ADD PUSH0 KECCAK256 PUSH0 PUSH2 0x100 EXP DUP2 SLOAD DUP2 PUSH1 0xFF MUL NOT AND SWAP1 DUP4 ISZERO ISZERO MUL OR SWAP1 SSTORE POP DUP2 PUSH20 0xFFFFFFFFFFFFFFFFFFFFFFFFFFFFFFFFFFFFFFFF AND PUSH2 0xCEA PUSH2 0x1391 JUMP JUMPDEST PUSH20 0xFFFFFFFFFFFFFFFFFFFFFFFFFFFFFFFFFFFFFFFF AND PUSH32 0x17307EAB39AB6107E8899845AD3D59BD9653F200F220920489CA2B5937696C31 DUP4 PUSH1 0x40 MLOAD PUSH2 0xD2F SWAP2 SWAP1 PUSH2 0x19F0 JUMP JUMPDEST PUSH1 0x40 MLOAD DUP1 SWAP2 SUB SWAP1 LOG3 POP POP JUMP JUMPDEST PUSH2 0xD43 PUSH2 0x1406 JUMP JUMPDEST PUSH0 CALLER PUSH20 0xFFFFFFFFFFFFFFFFFFFFFFFFFFFFFFFFFFFFFFFF AND SELFBALANCE PUSH1 0x40 MLOAD PUSH2 0xD68 SWAP1 PUSH2 0x22B2 JUMP JUMPDEST PUSH0 PUSH1 0x40 MLOAD DUP1 DUP4 SUB DUP2 DUP6 DUP8 GAS CALL SWAP3 POP POP POP RETURNDATASIZE DUP1 PUSH0 DUP2 EQ PUSH2 0xDA2 JUMPI PUSH1 0x40 MLOAD SWAP2 POP PUSH1 0x1F NOT PUSH1 0x3F RETURNDATASIZE ADD AND DUP3 ADD PUSH1 0x40 MSTORE RETURNDATASIZE DUP3 MSTORE RETURNDATASIZE PUSH0 PUSH1 0x20 DUP5 ADD RETURNDATACOPY PUSH2 0xDA7 JUMP JUMPDEST PUSH1 0x60 SWAP2 POP JUMPDEST POP POP SWAP1 POP DUP1 PUSH2 0xDEB JUMPI PUSH1 0x40 MLOAD PUSH32 0x8C379A000000000000000000000000000000000000000000000000000000000 DUP2 MSTORE PUSH1 0x4 ADD PUSH2 0xDE2 SWAP1 PUSH2 0x2310 JUMP JUMPDEST PUSH1 0x40 MLOAD DUP1 SWAP2 SUB SWAP1 REVERT JUMPDEST POP JUMP JUMPDEST PUSH0 PUSH1 0xB SLOAD SWAP1 POP SWAP1 JUMP JUMPDEST PUSH2 0xE02 DUP5 DUP5 DUP5 PUSH2 0x7D6 JUMP JUMPDEST PUSH0 DUP4 PUSH20 0xFFFFFFFFFFFFFFFFFFFFFFFFFFFFFFFFFFFFFFFF AND EXTCODESIZE EQ PUSH2 0xE42 JUMPI PUSH2 0xE2C DUP5 DUP5 DUP5 DUP5 PUSH2 0x16DE JUMP JUMPDEST PUSH2 0xE41 JUMPI PUSH2 0xE40 PUSH4 0xD1A57ED6 PUSH1 0xE0 SHL PUSH2 0x10C8 JUMP JUMPDEST JUMPDEST JUMPDEST POP POP POP POP JUMP JUMPDEST PUSH1 0x60 PUSH2 0xE53 DUP3 PUSH2 0x1025 JUMP JUMPDEST PUSH2 0xE68 JUMPI PUSH2 0xE67 PUSH4 0xA14C4B50 PUSH1 0xE0 SHL PUSH2 0x10C8 JUMP JUMPDEST JUMPDEST PUSH0 PUSH2 0xE71 PUSH2 0x1808 JUMP JUMPDEST SWAP1 POP PUSH0 DUP2 MLOAD SUB PUSH2 0xE8F JUMPI PUSH1 0x40 MLOAD DUP1 PUSH1 0x20 ADD PUSH1 0x40 MSTORE DUP1 PUSH0 DUP2 MSTORE POP PUSH2 0xEBA JUMP JUMPDEST DUP1 PUSH2 0xE99 DUP5 PUSH2 0x1898 JUMP JUMPDEST PUSH1 0x40 MLOAD PUSH1 0x20 ADD PUSH2 0xEAA SWAP3 SWAP2 SWAP1 PUSH2 0x2368 JUMP JUMPDEST PUSH1 0x40 MLOAD PUSH1 0x20 DUP2 DUP4 SUB SUB DUP2 MSTORE SWAP1 PUSH1 0x40 MSTORE JUMPDEST SWAP2 POP POP SWAP2 SWAP1 POP JUMP JUMPDEST PUSH0 DUP2 PUSH2 0xECC PUSH2 0x756 JUMP JUMPDEST LT PUSH2 0xED9 JUMPI PUSH0 SWAP1 POP PUSH2 0xEFC JUMP JUMPDEST PUSH1 0xD SLOAD PUSH2 0xEE4 PUSH2 0x756 JUMP JUMPDEST DUP4 PUSH2 0xEEF SWAP2 SWAP1 PUSH2 0x1FDE JUMP JUMPDEST PUSH2 0xEF9 SWAP2 SWAP1 PUSH2 0x238B JUMP JUMPDEST SWAP1 POP JUMPDEST SWAP2 SWAP1 POP JUMP JUMPDEST PUSH0 PUSH1 0x7 PUSH0 DUP5 PUSH20 0xFFFFFFFFFFFFFFFFFFFFFFFFFFFFFFFFFFFFFFFF AND PUSH20 0xFFFFFFFFFFFFFFFFFFFFFFFFFFFFFFFFFFFFFFFF AND DUP2 MSTORE PUSH1 0x20 ADD SWAP1 DUP2 MSTORE PUSH1 0x20 ADD PUSH0 KECCAK256 PUSH0 DUP4 PUSH20 0xFFFFFFFFFFFFFFFFFFFFFFFFFFFFFFFFFFFFFFFF AND PUSH20 0xFFFFFFFFFFFFFFFFFFFFFFFFFFFFFFFFFFFFFFFF AND DUP2 MSTORE PUSH1 0x20 ADD SWAP1 DUP2 MSTORE PUSH1 0x20 ADD PUSH0 KECCAK256 PUSH0 SWAP1 SLOAD SWAP1 PUSH2 0x100 EXP SWAP1 DIV PUSH1 0xFF AND SWAP1 POP SWAP3 SWAP2 POP POP JUMP JUMPDEST PUSH2 0xF97 PUSH2 0x1406 JUMP JUMPDEST PUSH0 PUSH20 0xFFFFFFFFFFFFFFFFFFFFFFFFFFFFFFFFFFFFFFFF AND DUP2 PUSH20 0xFFFFFFFFFFFFFFFFFFFFFFFFFFFFFFFFFFFFFFFF AND SUB PUSH2 0x1007 JUMPI PUSH0 PUSH1 0x40 MLOAD PUSH32 0x1E4FBDF700000000000000000000000000000000000000000000000000000000 DUP2 MSTORE PUSH1 0x4 ADD PUSH2 0xFFE SWAP2 SWAP1 PUSH2 0x1B36 JUMP JUMPDEST PUSH1 0x40 MLOAD DUP1 SWAP2 SUB SWAP1 REVERT JUMPDEST PUSH2 0x1010 DUP2 PUSH2 0x148D JUMP JUMPDEST POP JUMP JUMPDEST PUSH2 0x101B PUSH2 0x1406 JUMP JUMPDEST DUP1 PUSH1 0xD DUP2 SWAP1 SSTORE POP POP JUMP JUMPDEST PUSH0 DUP2 PUSH2 0x102F PUSH2 0x124E JUMP JUMPDEST GT PUSH2 0x10C2 JUMPI PUSH2 0x103C PUSH2 0x1256 JUMP JUMPDEST DUP3 GT ISZERO PUSH2 0x1064 JUMPI PUSH2 0x105D PUSH1 0x4 PUSH0 DUP5 DUP2 MSTORE PUSH1 0x20 ADD SWAP1 DUP2 MSTORE PUSH1 0x20 ADD PUSH0 KECCAK256 SLOAD PUSH2 0x18E7 JUMP JUMPDEST SWAP1 POP PUSH2 0x10C3 JUMP JUMPDEST PUSH0 SLOAD DUP3 LT ISZERO PUSH2 0x10C1 JUMPI PUSH0 JUMPDEST PUSH0 PUSH1 0x4 PUSH0 DUP6 DUP2 MSTORE PUSH1 0x20 ADD SWAP1 DUP2 MSTORE PUSH1 0x20 ADD PUSH0 KECCAK256 SLOAD SWAP2 POP DUP2 SUB PUSH2 0x109B JUMPI DUP3 PUSH2 0x1094 SWAP1 PUSH2 0x23CC JUMP JUMPDEST SWAP3 POP PUSH2 0x106F JUMP JUMPDEST PUSH0 PUSH29 0x100000000000000000000000000000000000000000000000000000000 DUP3 AND EQ SWAP2 POP POP JUMPDEST JUMPDEST JUMPDEST SWAP2 SWAP1 POP JUMP JUMPDEST DUP1 PUSH0 MSTORE PUSH1 0x4 PUSH0 REVERT JUMPDEST PUSH0 PUSH2 0x10DA DUP4 PUSH2 0xAB8 JUMP JUMPDEST SWAP1 POP DUP2 DUP1 ISZERO PUSH2 0x111C JUMPI POP DUP1 PUSH20 0xFFFFFFFFFFFFFFFFFFFFFFFFFFFFFFFFFFFFFFFF AND PUSH2 0x1103 PUSH2 0x1391 JUMP JUMPDEST PUSH20 0xFFFFFFFFFFFFFFFFFFFFFFFFFFFFFFFFFFFFFFFF AND EQ ISZERO JUMPDEST ISZERO PUSH2 0x1148 JUMPI PUSH2 0x1132 DUP2 PUSH2 0x112D PUSH2 0x1391 JUMP JUMPDEST PUSH2 0xF01 JUMP JUMPDEST PUSH2 0x1147 JUMPI PUSH2 0x1146 PUSH4 0xCFB3B942 PUSH1 0xE0 SHL PUSH2 0x10C8 JUMP JUMPDEST JUMPDEST JUMPDEST DUP4 PUSH1 0x6 PUSH0 DUP6 DUP2 MSTORE PUSH1 0x20 ADD SWAP1 DUP2 MSTORE PUSH1 0x20 ADD PUSH0 KECCAK256 PUSH0 ADD PUSH0 PUSH2 0x100 EXP DUP2 SLOAD DUP2 PUSH20 0xFFFFFFFFFFFFFFFFFFFFFFFFFFFFFFFFFFFFFFFF MUL NOT AND SWAP1 DUP4 PUSH20 0xFFFFFFFFFFFFFFFFFFFFFFFFFFFFFFFFFFFFFFFF AND MUL OR SWAP1 SSTORE POP DUP3 DUP5 PUSH20 0xFFFFFFFFFFFFFFFFFFFFFFFFFFFFFFFFFFFFFFFF AND DUP3 PUSH20 0xFFFFFFFFFFFFFFFFFFFFFFFFFFFFFFFFFFFFFFFF AND PUSH32 0x8C5BE1E5EBEC7D5BD14F71427D1E84F3DD0314C0F7B2291E5B200AC8C7C3B925 PUSH1 0x40 MLOAD PUSH1 0x40 MLOAD DUP1 SWAP2 SUB SWAP1 LOG4 POP POP POP POP JUMP JUMPDEST PUSH0 PUSH8 0xFFFFFFFFFFFFFFFF PUSH1 0x40 PUSH1 0x5 PUSH0 DUP6 PUSH20 0xFFFFFFFFFFFFFFFFFFFFFFFFFFFFFFFFFFFFFFFF AND PUSH20 0xFFFFFFFFFFFFFFFFFFFFFFFFFFFFFFFFFFFFFFFF AND DUP2 MSTORE PUSH1 0x20 ADD SWAP1 DUP2 MSTORE PUSH1 0x20 ADD PUSH0 KECCAK256 SLOAD SWAP1 SHR AND SWAP1 POP SWAP2 SWAP1 POP JUMP JUMPDEST PUSH0 PUSH1 0x1 SWAP1 POP SWAP1 JUMP JUMPDEST PUSH0 PUSH2 0x3E7 SWAP1 POP SWAP1 JUMP JUMPDEST PUSH0 DUP2 PUSH2 0x1269 PUSH2 0x124E JUMP JUMPDEST GT PUSH2 0x1358 JUMPI PUSH1 0x4 PUSH0 DUP4 DUP2 MSTORE PUSH1 0x20 ADD SWAP1 DUP2 MSTORE PUSH1 0x20 ADD PUSH0 KECCAK256 SLOAD SWAP1 POP PUSH2 0x128A PUSH2 0x1256 JUMP JUMPDEST DUP3 GT ISZERO PUSH2 0x12AF JUMPI PUSH2 0x129A DUP2 PUSH2 0x18E7 JUMP JUMPDEST PUSH2 0x1369 JUMPI PUSH2 0x12AE PUSH4 0xDF2D9B42 PUSH1 0xE0 SHL PUSH2 0x10C8 JUMP JUMPDEST JUMPDEST PUSH0 DUP2 SUB PUSH2 0x1330 JUMPI PUSH0 SLOAD DUP3 LT PUSH2 0x12CF JUMPI PUSH2 0x12CE PUSH4 0xDF2D9B42 PUSH1 0xE0 SHL PUSH2 0x10C8 JUMP JUMPDEST JUMPDEST JUMPDEST PUSH1 0x4 PUSH0 DUP4 PUSH1 0x1 SWAP1 SUB SWAP4 POP DUP4 DUP2 MSTORE PUSH1 0x20 ADD SWAP1 DUP2 MSTORE PUSH1 0x20 ADD PUSH0 KECCAK256 SLOAD SWAP1 POP PUSH0 DUP2 SUB ISZERO PUSH2 0x132B JUMPI PUSH0 PUSH29 0x100000000000000000000000000000000000000000000000000000000 DUP3 AND SUB ISZERO PUSH2 0x1369 JUMPI PUSH2 0x132A PUSH4 0xDF2D9B42 PUSH1 0xE0 SHL PUSH2 0x10C8 JUMP JUMPDEST JUMPDEST PUSH2 0x12D0 JUMP JUMPDEST PUSH0 PUSH29 0x100000000000000000000000000000000000000000000000000000000 DUP3 AND SUB ISZERO PUSH2 0x1369 JUMPI JUMPDEST PUSH2 0x1368 PUSH4 0xDF2D9B42 PUSH1 0xE0 SHL PUSH2 0x10C8 JUMP JUMPDEST JUMPDEST SWAP2 SWAP1 POP JUMP JUMPDEST PUSH0 DUP1 PUSH0 PUSH1 0x6 PUSH0 DUP6 DUP2 MSTORE PUSH1 0x20 ADD SWAP1 DUP2 MSTORE PUSH1 0x20 ADD PUSH0 KECCAK256 SWAP1 POP DUP1 SWAP3 POP DUP3 SLOAD SWAP2 POP POP SWAP2 POP SWAP2 JUMP JUMPDEST PUSH0 CALLER SWAP1 POP SWAP1 JUMP JUMPDEST PUSH0 DUP4 DUP3 EQ DUP4 DUP4 EQ OR SWAP1 POP SWAP4 SWAP3 POP POP POP JUMP JUMPDEST POP POP POP POP JUMP JUMPDEST PUSH0 DUP1 PUSH1 0xE8 DUP4 SWAP1 SHR SWAP1 POP PUSH1 0xE8 PUSH2 0x13C5 DUP7 DUP7 DUP5 PUSH2 0x1927 JUMP JUMPDEST PUSH3 0xFFFFFF AND SWAP1 SHL SWAP2 POP POP SWAP4 SWAP3 POP POP POP JUMP JUMPDEST PUSH0 PUSH20 0xFFFFFFFFFFFFFFFFFFFFFFFFFFFFFFFFFFFFFFFF DUP4 AND SWAP3 POP DUP2 TIMESTAMP PUSH1 0xA0 SHL OR DUP4 OR SWAP1 POP SWAP3 SWAP2 POP POP JUMP JUMPDEST POP POP POP POP JUMP JUMPDEST PUSH2 0x140E PUSH2 0x192F JUMP JUMPDEST PUSH20 0xFFFFFFFFFFFFFFFFFFFFFFFFFFFFFFFFFFFFFFFF AND PUSH2 0x142C PUSH2 0xB70 JUMP JUMPDEST PUSH20 0xFFFFFFFFFFFFFFFFFFFFFFFFFFFFFFFFFFFFFFFF AND EQ PUSH2 0x148B JUMPI PUSH2 0x144F PUSH2 0x192F JUMP JUMPDEST PUSH1 0x40 MLOAD PUSH32 0x118CDAA700000000000000000000000000000000000000000000000000000000 DUP2 MSTORE PUSH1 0x4 ADD PUSH2 0x1482 SWAP2 SWAP1 PUSH2 0x1B36 JUMP JUMPDEST PUSH1 0x40 MLOAD DUP1 SWAP2 SUB SWAP1 REVERT JUMPDEST JUMP JUMPDEST PUSH0 PUSH1 0x9 PUSH0 SWAP1 SLOAD SWAP1 PUSH2 0x100 EXP SWAP1 DIV PUSH20 0xFFFFFFFFFFFFFFFFFFFFFFFFFFFFFFFFFFFFFFFF AND SWAP1 POP DUP2 PUSH1 0x9 PUSH0 PUSH2 0x100 EXP DUP2 SLOAD DUP2 PUSH20 0xFFFFFFFFFFFFFFFFFFFFFFFFFFFFFFFFFFFFFFFF MUL NOT AND SWAP1 DUP4 PUSH20 0xFFFFFFFFFFFFFFFFFFFFFFFFFFFFFFFFFFFFFFFF AND MUL OR SWAP1 SSTORE POP DUP2 PUSH20 0xFFFFFFFFFFFFFFFFFFFFFFFFFFFFFFFFFFFFFFFF AND DUP2 PUSH20 0xFFFFFFFFFFFFFFFFFFFFFFFFFFFFFFFFFFFFFFFF AND PUSH32 0x8BE0079C531659141344CD1FD0A4F28419497F9722A3DAAFE3B4186F6B6457E0 PUSH1 0x40 MLOAD PUSH1 0x40 MLOAD DUP1 SWAP2 SUB SWAP1 LOG3 POP POP JUMP JUMPDEST PUSH0 DUP1 SLOAD SWAP1 POP PUSH0 DUP3 SUB PUSH2 0x156D JUMPI PUSH2 0x156C PUSH4 0xB562E8DD PUSH1 0xE0 SHL PUSH2 0x10C8 JUMP JUMPDEST JUMPDEST PUSH2 0x1579 PUSH0 DUP5 DUP4 DUP6 PUSH2 0x13A9 JUMP JUMPDEST PUSH2 0x1597 DUP4 PUSH2 0x1588 PUSH0 DUP7 PUSH0 PUSH2 0x13AF JUMP JUMPDEST PUSH2 0x1591 DUP6 PUSH2 0x1936 JUMP JUMPDEST OR PUSH2 0x13D6 JUMP JUMPDEST PUSH1 0x4 PUSH0 DUP4 DUP2 MSTORE PUSH1 0x20 ADD SWAP1 DUP2 MSTORE PUSH1 0x20 ADD PUSH0 KECCAK256 DUP2 SWAP1 SSTORE POP PUSH0 PUSH2 0x15B6 DUP4 PUSH2 0xEC2 JUMP JUMPDEST SWAP1 POP PUSH1 0x1 PUSH1 0x40 PUSH1 0x1 SWAP1 SHL OR DUP4 MUL PUSH1 0x5 PUSH0 DUP7 PUSH20 0xFFFFFFFFFFFFFFFFFFFFFFFFFFFFFFFFFFFFFFFF AND PUSH20 0xFFFFFFFFFFFFFFFFFFFFFFFFFFFFFFFFFFFFFFFF AND DUP2 MSTORE PUSH1 0x20 ADD SWAP1 DUP2 MSTORE PUSH1 0x20 ADD PUSH0 KECCAK256 PUSH0 DUP3 DUP3 SLOAD ADD SWAP3 POP POP DUP2 SWAP1 SSTORE POP PUSH0 DUP5 PUSH20 0xFFFFFFFFFFFFFFFFFFFFFFFFFFFFFFFFFFFFFFFF AND SWAP1 POP PUSH0 DUP2 SUB PUSH2 0x163E JUMPI PUSH2 0x163D PUSH4 0x2E076300 PUSH1 0xE0 SHL PUSH2 0x10C8 JUMP JUMPDEST JUMPDEST PUSH0 DUP5 DUP5 ADD SWAP1 POP PUSH0 DUP5 SWAP1 POP PUSH2 0x1650 PUSH2 0x1256 JUMP JUMPDEST PUSH1 0x1 DUP4 SUB GT DUP1 PUSH2 0x166E JUMPI POP PUSH2 0x1663 PUSH2 0xDEE JUMP JUMPDEST PUSH2 0x166C DUP9 PUSH2 0x11FA JUMP JUMPDEST GT JUMPDEST DUP1 PUSH2 0x1678 JUMPI POP DUP4 CALLVALUE LT JUMPDEST ISZERO PUSH2 0x168E JUMPI PUSH2 0x168D PUSH4 0x81647E3A PUSH1 0xE0 SHL PUSH2 0x10C8 JUMP JUMPDEST JUMPDEST JUMPDEST DUP1 DUP4 PUSH0 PUSH32 0xDDF252AD1BE2C89B69C2B068FC378DAA952BA7F163C4A11628F55A4DF523B3EF PUSH0 DUP1 LOG4 DUP2 DUP2 PUSH1 0x1 ADD SWAP2 POP DUP2 SUB PUSH2 0x168F JUMPI DUP2 PUSH0 DUP2 SWAP1 SSTORE POP POP POP POP POP PUSH2 0x16D9 PUSH0 DUP5 DUP4 DUP6 PUSH2 0x1400 JUMP JUMPDEST POP POP POP JUMP JUMPDEST PUSH0 DUP4 PUSH20 0xFFFFFFFFFFFFFFFFFFFFFFFFFFFFFFFFFFFFFFFF AND PUSH4 0x150B7A02 PUSH2 0x1703 PUSH2 0x1391 JUMP JUMPDEST DUP8 DUP7 DUP7 PUSH1 0x40 MLOAD DUP6 PUSH4 0xFFFFFFFF AND PUSH1 0xE0 SHL DUP2 MSTORE PUSH1 0x4 ADD PUSH2 0x1725 SWAP5 SWAP4 SWAP3 SWAP2 SWAP1 PUSH2 0x2445 JUMP JUMPDEST PUSH1 0x20 PUSH1 0x40 MLOAD DUP1 DUP4 SUB DUP2 PUSH0 DUP8 GAS CALL SWAP3 POP POP POP DUP1 ISZERO PUSH2 0x1760 JUMPI POP PUSH1 0x40 MLOAD RETURNDATASIZE PUSH1 0x1F NOT PUSH1 0x1F DUP3 ADD AND DUP3 ADD DUP1 PUSH1 0x40 MSTORE POP DUP2 ADD SWAP1 PUSH2 0x175D SWAP2 SWAP1 PUSH2 0x24A3 JUMP JUMPDEST PUSH1 0x1 JUMPDEST PUSH2 0x17B5 JUMPI RETURNDATASIZE DUP1 PUSH0 DUP2 EQ PUSH2 0x178E JUMPI PUSH1 0x40 MLOAD SWAP2 POP PUSH1 0x1F NOT PUSH1 0x3F RETURNDATASIZE ADD AND DUP3 ADD PUSH1 0x40 MSTORE RETURNDATASIZE DUP3 MSTORE RETURNDATASIZE PUSH0 PUSH1 0x20 DUP5 ADD RETURNDATACOPY PUSH2 0x1793 JUMP JUMPDEST PUSH1 0x60 SWAP2 POP JUMPDEST POP PUSH0 DUP2 MLOAD SUB PUSH2 0x17AD JUMPI PUSH2 0x17AC PUSH4 0xD1A57ED6 PUSH1 0xE0 SHL PUSH2 0x10C8 JUMP JUMPDEST JUMPDEST DUP1 MLOAD DUP2 PUSH1 0x20 ADD REVERT JUMPDEST PUSH4 0x150B7A02 PUSH1 0xE0 SHL PUSH28 0xFFFFFFFFFFFFFFFFFFFFFFFFFFFFFFFFFFFFFFFFFFFFFFFFFFFFFFFF NOT AND DUP2 PUSH28 0xFFFFFFFFFFFFFFFFFFFFFFFFFFFFFFFFFFFFFFFFFFFFFFFFFFFFFFFF NOT AND EQ SWAP2 POP POP SWAP5 SWAP4 POP POP POP POP JUMP JUMPDEST PUSH1 0x60 PUSH1 0xA DUP1 SLOAD PUSH2 0x1817 SWAP1 PUSH2 0x1F81 JUMP JUMPDEST DUP1 PUSH1 0x1F ADD PUSH1 0x20 DUP1 SWAP2 DIV MUL PUSH1 0x20 ADD PUSH1 0x40 MLOAD SWAP1 DUP2 ADD PUSH1 0x40 MSTORE DUP1 SWAP3 SWAP2 SWAP1 DUP2 DUP2 MSTORE PUSH1 0x20 ADD DUP3 DUP1 SLOAD PUSH2 0x1843 SWAP1 PUSH2 0x1F81 JUMP JUMPDEST DUP1 ISZERO PUSH2 0x188E JUMPI DUP1 PUSH1 0x1F LT PUSH2 0x1865 JUMPI PUSH2 0x100 DUP1 DUP4 SLOAD DIV MUL DUP4 MSTORE SWAP2 PUSH1 0x20 ADD SWAP2 PUSH2 0x188E JUMP JUMPDEST DUP3 ADD SWAP2 SWAP1 PUSH0 MSTORE PUSH1 0x20 PUSH0 KECCAK256 SWAP1 JUMPDEST DUP2 SLOAD DUP2 MSTORE SWAP1 PUSH1 0x1 ADD SWAP1 PUSH1 0x20 ADD DUP1 DUP4 GT PUSH2 0x1871 JUMPI DUP3 SWAP1 SUB PUSH1 0x1F AND DUP3 ADD SWAP2 JUMPDEST POP POP POP POP POP SWAP1 POP SWAP1 JUMP JUMPDEST PUSH1 0x60 PUSH1 0xA0 PUSH1 0x40 MLOAD ADD DUP1 PUSH1 0x40 MSTORE PUSH1 0x20 DUP2 SUB SWAP2 POP PUSH0 DUP3 MSTORE DUP2 DUP4 JUMPDEST PUSH1 0x1 ISZERO PUSH2 0x18D2 JUMPI PUSH1 0x1 DUP5 SUB SWAP4 POP PUSH1 0xA DUP2 MOD PUSH1 0x30 ADD DUP5 MSTORE8 PUSH1 0xA DUP2 DIV SWAP1 POP DUP1 PUSH2 0x18B0 JUMPI JUMPDEST POP DUP3 DUP2 SUB PUSH1 0x20 DUP5 SUB SWAP4 POP DUP1 DUP5 MSTORE POP POP POP SWAP2 SWAP1 POP JUMP JUMPDEST PUSH0 PUSH29 0x100000000000000000000000000000000000000000000000000000000 DUP3 AND PUSH20 0xFFFFFFFFFFFFFFFFFFFFFFFFFFFFFFFFFFFFFFFF DUP4 AND GT SWAP1 POP SWAP2 SWAP1 POP JUMP JUMPDEST PUSH0 SWAP4 SWAP3 POP POP POP JUMP JUMPDEST PUSH0 CALLER SWAP1 POP SWAP1 JUMP JUMPDEST PUSH0 PUSH1 0x1 DUP3 EQ PUSH1 0xE1 SHL SWAP1 POP SWAP2 SWAP1 POP JUMP JUMPDEST PUSH0 PUSH1 0x40 MLOAD SWAP1 POP SWAP1 JUMP JUMPDEST PUSH0 DUP1 REVERT JUMPDEST PUSH0 DUP1 REVERT JUMPDEST PUSH0 PUSH32 0xFFFFFFFF00000000000000000000000000000000000000000000000000000000 DUP3 AND SWAP1 POP SWAP2 SWAP1 POP JUMP JUMPDEST PUSH2 0x198A DUP2 PUSH2 0x1956 JUMP JUMPDEST DUP2 EQ PUSH2 0x1994 JUMPI PUSH0 DUP1 REVERT JUMPDEST POP JUMP JUMPDEST PUSH0 DUP2 CALLDATALOAD SWAP1 POP PUSH2 0x19A5 DUP2 PUSH2 0x1981 JUMP JUMPDEST SWAP3 SWAP2 POP POP JUMP JUMPDEST PUSH0 PUSH1 0x20 DUP3 DUP5 SUB SLT ISZERO PUSH2 0x19C0 JUMPI PUSH2 0x19BF PUSH2 0x194E JUMP JUMPDEST JUMPDEST PUSH0 PUSH2 0x19CD DUP5 DUP3 DUP6 ADD PUSH2 0x1997 JUMP JUMPDEST SWAP2 POP POP SWAP3 SWAP2 POP POP JUMP JUMPDEST PUSH0 DUP2 ISZERO ISZERO SWAP1 POP SWAP2 SWAP1 POP JUMP JUMPDEST PUSH2 0x19EA DUP2 PUSH2 0x19D6 JUMP JUMPDEST DUP3 MSTORE POP POP JUMP JUMPDEST PUSH0 PUSH1 0x20 DUP3 ADD SWAP1 POP PUSH2 0x1A03 PUSH0 DUP4 ADD DUP5 PUSH2 0x19E1 JUMP JUMPDEST SWAP3 SWAP2 POP POP JUMP JUMPDEST PUSH0 DUP2 MLOAD SWAP1 POP SWAP2 SWAP1 POP JUMP JUMPDEST PUSH0 DUP3 DUP3 MSTORE PUSH1 0x20 DUP3 ADD SWAP1 POP SWAP3 SWAP2 POP POP JUMP JUMPDEST DUP3 DUP2 DUP4 MCOPY PUSH0 DUP4 DUP4 ADD MSTORE POP POP POP JUMP JUMPDEST PUSH0 PUSH1 0x1F NOT PUSH1 0x1F DUP4 ADD AND SWAP1 POP SWAP2 SWAP1 POP JUMP JUMPDEST PUSH0 PUSH2 0x1A4B DUP3 PUSH2 0x1A09 JUMP JUMPDEST PUSH2 0x1A55 DUP2 DUP6 PUSH2 0x1A13 JUMP JUMPDEST SWAP4 POP PUSH2 0x1A65 DUP2 DUP6 PUSH1 0x20 DUP7 ADD PUSH2 0x1A23 JUMP JUMPDEST PUSH2 0x1A6E DUP2 PUSH2 0x1A31 JUMP JUMPDEST DUP5 ADD SWAP2 POP POP SWAP3 SWAP2 POP POP JUMP JUMPDEST PUSH0 PUSH1 0x20 DUP3 ADD SWAP1 POP DUP2 DUP2 SUB PUSH0 DUP4 ADD MSTORE PUSH2 0x1A91 DUP2 DUP5 PUSH2 0x1A41 JUMP JUMPDEST SWAP1 POP SWAP3 SWAP2 POP POP JUMP JUMPDEST PUSH0 DUP2 SWAP1 POP SWAP2 SWAP1 POP JUMP JUMPDEST PUSH2 0x1AAB DUP2 PUSH2 0x1A99 JUMP JUMPDEST DUP2 EQ PUSH2 0x1AB5 JUMPI PUSH0 DUP1 REVERT JUMPDEST POP JUMP JUMPDEST PUSH0 DUP2 CALLDATALOAD SWAP1 POP PUSH2 0x1AC6 DUP2 PUSH2 0x1AA2 JUMP JUMPDEST SWAP3 SWAP2 POP POP JUMP JUMPDEST PUSH0 PUSH1 0x20 DUP3 DUP5 SUB SLT ISZERO PUSH2 0x1AE1 JUMPI PUSH2 0x1AE0 PUSH2 0x194E JUMP JUMPDEST JUMPDEST PUSH0 PUSH2 0x1AEE DUP5 DUP3 DUP6 ADD PUSH2 0x1AB8 JUMP JUMPDEST SWAP2 POP POP SWAP3 SWAP2 POP POP JUMP JUMPDEST PUSH0 PUSH20 0xFFFFFFFFFFFFFFFFFFFFFFFFFFFFFFFFFFFFFFFF DUP3 AND SWAP1 POP SWAP2 SWAP1 POP JUMP JUMPDEST PUSH0 PUSH2 0x1B20 DUP3 PUSH2 0x1AF7 JUMP JUMPDEST SWAP1 POP SWAP2 SWAP1 POP JUMP JUMPDEST PUSH2 0x1B30 DUP2 PUSH2 0x1B16 JUMP JUMPDEST DUP3 MSTORE POP POP JUMP JUMPDEST PUSH0 PUSH1 0x20 DUP3 ADD SWAP1 POP PUSH2 0x1B49 PUSH0 DUP4 ADD DUP5 PUSH2 0x1B27 JUMP JUMPDEST SWAP3 SWAP2 POP POP JUMP JUMPDEST PUSH2 0x1B58 DUP2 PUSH2 0x1B16 JUMP JUMPDEST DUP2 EQ PUSH2 0x1B62 JUMPI PUSH0 DUP1 REVERT JUMPDEST POP JUMP JUMPDEST PUSH0 DUP2 CALLDATALOAD SWAP1 POP PUSH2 0x1B73 DUP2 PUSH2 0x1B4F JUMP JUMPDEST SWAP3 SWAP2 POP POP JUMP JUMPDEST PUSH0 DUP1 PUSH1 0x40 DUP4 DUP6 SUB SLT ISZERO PUSH2 0x1B8F JUMPI PUSH2 0x1B8E PUSH2 0x194E JUMP JUMPDEST JUMPDEST PUSH0 PUSH2 0x1B9C DUP6 DUP3 DUP7 ADD PUSH2 0x1B65 JUMP JUMPDEST SWAP3 POP POP PUSH1 0x20 PUSH2 0x1BAD DUP6 DUP3 DUP7 ADD PUSH2 0x1AB8 JUMP JUMPDEST SWAP2 POP POP SWAP3 POP SWAP3 SWAP1 POP JUMP JUMPDEST PUSH2 0x1BC0 DUP2 PUSH2 0x1A99 JUMP JUMPDEST DUP3 MSTORE POP POP JUMP JUMPDEST PUSH0 PUSH1 0x20 DUP3 ADD SWAP1 POP PUSH2 0x1BD9 PUSH0 DUP4 ADD DUP5 PUSH2 0x1BB7 JUMP JUMPDEST SWAP3 SWAP2 POP POP JUMP JUMPDEST PUSH0 DUP1 PUSH0 PUSH1 0x60 DUP5 DUP7 SUB SLT ISZERO PUSH2 0x1BF6 JUMPI PUSH2 0x1BF5 PUSH2 0x194E JUMP JUMPDEST JUMPDEST PUSH0 PUSH2 0x1C03 DUP7 DUP3 DUP8 ADD PUSH2 0x1B65 JUMP JUMPDEST SWAP4 POP POP PUSH1 0x20 PUSH2 0x1C14 DUP7 DUP3 DUP8 ADD PUSH2 0x1B65 JUMP JUMPDEST SWAP3 POP POP PUSH1 0x40 PUSH2 0x1C25 DUP7 DUP3 DUP8 ADD PUSH2 0x1AB8 JUMP JUMPDEST SWAP2 POP POP SWAP3 POP SWAP3 POP SWAP3 JUMP JUMPDEST PUSH0 DUP1 REVERT JUMPDEST PUSH0 DUP1 REVERT JUMPDEST PUSH0 DUP1 REVERT JUMPDEST PUSH0 DUP1 DUP4 PUSH1 0x1F DUP5 ADD SLT PUSH2 0x1C50 JUMPI PUSH2 0x1C4F PUSH2 0x1C2F JUMP JUMPDEST JUMPDEST DUP3 CALLDATALOAD SWAP1 POP PUSH8 0xFFFFFFFFFFFFFFFF DUP2 GT ISZERO PUSH2 0x1C6D JUMPI PUSH2 0x1C6C PUSH2 0x1C33 JUMP JUMPDEST JUMPDEST PUSH1 0x20 DUP4 ADD SWAP2 POP DUP4 PUSH1 0x1 DUP3 MUL DUP4 ADD GT ISZERO PUSH2 0x1C89 JUMPI PUSH2 0x1C88 PUSH2 0x1C37 JUMP JUMPDEST JUMPDEST SWAP3 POP SWAP3 SWAP1 POP JUMP JUMPDEST PUSH0 DUP1 PUSH1 0x20 DUP4 DUP6 SUB SLT ISZERO PUSH2 0x1CA6 JUMPI PUSH2 0x1CA5 PUSH2 0x194E JUMP JUMPDEST JUMPDEST PUSH0 DUP4 ADD CALLDATALOAD PUSH8 0xFFFFFFFFFFFFFFFF DUP2 GT ISZERO PUSH2 0x1CC3 JUMPI PUSH2 0x1CC2 PUSH2 0x1952 JUMP JUMPDEST JUMPDEST PUSH2 0x1CCF DUP6 DUP3 DUP7 ADD PUSH2 0x1C3B JUMP JUMPDEST SWAP3 POP SWAP3 POP POP SWAP3 POP SWAP3 SWAP1 POP JUMP JUMPDEST PUSH0 PUSH1 0x20 DUP3 DUP5 SUB SLT ISZERO PUSH2 0x1CF0 JUMPI PUSH2 0x1CEF PUSH2 0x194E JUMP JUMPDEST JUMPDEST PUSH0 PUSH2 0x1CFD DUP5 DUP3 DUP6 ADD PUSH2 0x1B65 JUMP JUMPDEST SWAP2 POP POP SWAP3 SWAP2 POP POP JUMP JUMPDEST PUSH2 0x1D0F DUP2 PUSH2 0x19D6 JUMP JUMPDEST DUP2 EQ PUSH2 0x1D19 JUMPI PUSH0 DUP1 REVERT JUMPDEST POP JUMP JUMPDEST PUSH0 DUP2 CALLDATALOAD SWAP1 POP PUSH2 0x1D2A DUP2 PUSH2 0x1D06 JUMP JUMPDEST SWAP3 SWAP2 POP POP JUMP JUMPDEST PUSH0 DUP1 PUSH1 0x40 DUP4 DUP6 SUB SLT ISZERO PUSH2 0x1D46 JUMPI PUSH2 0x1D45 PUSH2 0x194E JUMP JUMPDEST JUMPDEST PUSH0 PUSH2 0x1D53 DUP6 DUP3 DUP7 ADD PUSH2 0x1B65 JUMP JUMPDEST SWAP3 POP POP PUSH1 0x20 PUSH2 0x1D64 DUP6 DUP3 DUP7 ADD PUSH2 0x1D1C JUMP JUMPDEST SWAP2 POP POP SWAP3 POP SWAP3 SWAP1 POP JUMP JUMPDEST PUSH0 DUP1 REVERT JUMPDEST PUSH32 0x4E487B7100000000000000000000000000000000000000000000000000000000 PUSH0 MSTORE PUSH1 0x41 PUSH1 0x4 MSTORE PUSH1 0x24 PUSH0 REVERT JUMPDEST PUSH2 0x1DA8 DUP3 PUSH2 0x1A31 JUMP JUMPDEST DUP2 ADD DUP2 DUP2 LT PUSH8 0xFFFFFFFFFFFFFFFF DUP3 GT OR ISZERO PUSH2 0x1DC7 JUMPI PUSH2 0x1DC6 PUSH2 0x1D72 JUMP JUMPDEST JUMPDEST DUP1 PUSH1 0x40 MSTORE POP POP POP JUMP JUMPDEST PUSH0 PUSH2 0x1DD9 PUSH2 0x1945 JUMP JUMPDEST SWAP1 POP PUSH2 0x1DE5 DUP3 DUP3 PUSH2 0x1D9F JUMP JUMPDEST SWAP2 SWAP1 POP JUMP JUMPDEST PUSH0 PUSH8 0xFFFFFFFFFFFFFFFF DUP3 GT ISZERO PUSH2 0x1E04 JUMPI PUSH2 0x1E03 PUSH2 0x1D72 JUMP JUMPDEST JUMPDEST PUSH2 0x1E0D DUP3 PUSH2 0x1A31 JUMP JUMPDEST SWAP1 POP PUSH1 0x20 DUP2 ADD SWAP1 POP SWAP2 SWAP1 POP JUMP JUMPDEST DUP3 DUP2 DUP4 CALLDATACOPY PUSH0 DUP4 DUP4 ADD MSTORE POP POP POP JUMP JUMPDEST PUSH0 PUSH2 0x1E3A PUSH2 0x1E35 DUP5 PUSH2 0x1DEA JUMP JUMPDEST PUSH2 0x1DD0 JUMP JUMPDEST SWAP1 POP DUP3 DUP2 MSTORE PUSH1 0x20 DUP2 ADD DUP5 DUP5 DUP5 ADD GT ISZERO PUSH2 0x1E56 JUMPI PUSH2 0x1E55 PUSH2 0x1D6E JUMP JUMPDEST JUMPDEST PUSH2 0x1E61 DUP5 DUP3 DUP6 PUSH2 0x1E1A JUMP JUMPDEST POP SWAP4 SWAP3 POP POP POP JUMP JUMPDEST PUSH0 DUP3 PUSH1 0x1F DUP4 ADD SLT PUSH2 0x1E7D JUMPI PUSH2 0x1E7C PUSH2 0x1C2F JUMP JUMPDEST JUMPDEST DUP2 CALLDATALOAD PUSH2 0x1E8D DUP5 DUP3 PUSH1 0x20 DUP7 ADD PUSH2 0x1E28 JUMP JUMPDEST SWAP2 POP POP SWAP3 SWAP2 POP POP JUMP JUMPDEST PUSH0 DUP1 PUSH0 DUP1 PUSH1 0x80 DUP6 DUP8 SUB SLT ISZERO PUSH2 0x1EAE JUMPI PUSH2 0x1EAD PUSH2 0x194E JUMP JUMPDEST JUMPDEST PUSH0 PUSH2 0x1EBB DUP8 DUP3 DUP9 ADD PUSH2 0x1B65 JUMP JUMPDEST SWAP5 POP POP PUSH1 0x20 PUSH2 0x1ECC DUP8 DUP3 DUP9 ADD PUSH2 0x1B65 JUMP JUMPDEST SWAP4 POP POP PUSH1 0x40 PUSH2 0x1EDD DUP8 DUP3 DUP9 ADD PUSH2 0x1AB8 JUMP JUMPDEST SWAP3 POP POP PUSH1 0x60 DUP6 ADD CALLDATALOAD PUSH8 0xFFFFFFFFFFFFFFFF DUP2 GT ISZERO PUSH2 0x1EFE JUMPI PUSH2 0x1EFD PUSH2 0x1952 JUMP JUMPDEST JUMPDEST PUSH2 0x1F0A DUP8 DUP3 DUP9 ADD PUSH2 0x1E69 JUMP JUMPDEST SWAP2 POP POP SWAP3 SWAP6 SWAP2 SWAP5 POP SWAP3 POP JUMP JUMPDEST PUSH0 DUP1 PUSH1 0x40 DUP4 DUP6 SUB SLT ISZERO PUSH2 0x1F2C JUMPI PUSH2 0x1F2B PUSH2 0x194E JUMP JUMPDEST JUMPDEST PUSH0 PUSH2 0x1F39 DUP6 DUP3 DUP7 ADD PUSH2 0x1B65 JUMP JUMPDEST SWAP3 POP POP PUSH1 0x20 PUSH2 0x1F4A DUP6 DUP3 DUP7 ADD PUSH2 0x1B65 JUMP JUMPDEST SWAP2 POP POP SWAP3 POP SWAP3 SWAP1 POP JUMP JUMPDEST PUSH32 0x4E487B7100000000000000000000000000000000000000000000000000000000 PUSH0 MSTORE PUSH1 0x22 PUSH1 0x4 MSTORE PUSH1 0x24 PUSH0 REVERT JUMPDEST PUSH0 PUSH1 0x2 DUP3 DIV SWAP1 POP PUSH1 0x1 DUP3 AND DUP1 PUSH2 0x1F98 JUMPI PUSH1 0x7F DUP3 AND SWAP2 POP JUMPDEST PUSH1 0x20 DUP3 LT DUP2 SUB PUSH2 0x1FAB JUMPI PUSH2 0x1FAA PUSH2 0x1F54 JUMP JUMPDEST JUMPDEST POP SWAP2 SWAP1 POP JUMP JUMPDEST PUSH32 0x4E487B7100000000000000000000000000000000000000000000000000000000 PUSH0 MSTORE PUSH1 0x11 PUSH1 0x4 MSTORE PUSH1 0x24 PUSH0 REVERT JUMPDEST PUSH0 PUSH2 0x1FE8 DUP3 PUSH2 0x1A99 JUMP JUMPDEST SWAP2 POP PUSH2 0x1FF3 DUP4 PUSH2 0x1A99 JUMP JUMPDEST SWAP3 POP DUP3 DUP3 SUB SWAP1 POP DUP2 DUP2 GT ISZERO PUSH2 0x200B JUMPI PUSH2 0x200A PUSH2 0x1FB1 JUMP JUMPDEST JUMPDEST SWAP3 SWAP2 POP POP JUMP JUMPDEST PUSH0 DUP3 SWAP1 POP SWAP3 SWAP2 POP POP JUMP JUMPDEST PUSH0 DUP2 SWAP1 POP DUP2 PUSH0 MSTORE PUSH1 0x20 PUSH0 KECCAK256 SWAP1 POP SWAP2 SWAP1 POP JUMP JUMPDEST PUSH0 PUSH1 0x20 PUSH1 0x1F DUP4 ADD DIV SWAP1 POP SWAP2 SWAP1 POP JUMP JUMPDEST PUSH0 DUP3 DUP3 SHL SWAP1 POP SWAP3 SWAP2 POP POP JUMP JUMPDEST PUSH0 PUSH1 0x8 DUP4 MUL PUSH2 0x2077 PUSH32 0xFFFFFFFFFFFFFFFFFFFFFFFFFFFFFFFFFFFFFFFFFFFFFFFFFFFFFFFFFFFFFFFF DUP3 PUSH2 0x203C JUMP JUMPDEST PUSH2 0x2081 DUP7 DUP4 PUSH2 0x203C JUMP JUMPDEST SWAP6 POP DUP1 NOT DUP5 AND SWAP4 POP DUP1 DUP7 AND DUP5 OR SWAP3 POP POP POP SWAP4 SWAP3 POP POP POP JUMP JUMPDEST PUSH0 DUP2 SWAP1 POP SWAP2 SWAP1 POP JUMP JUMPDEST PUSH0 PUSH2 0x20BC PUSH2 0x20B7 PUSH2 0x20B2 DUP5 PUSH2 0x1A99 JUMP JUMPDEST PUSH2 0x2099 JUMP JUMPDEST PUSH2 0x1A99 JUMP JUMPDEST SWAP1 POP SWAP2 SWAP1 POP JUMP JUMPDEST PUSH0 DUP2 SWAP1 POP SWAP2 SWAP1 POP JUMP JUMPDEST PUSH2 0x20D5 DUP4 PUSH2 0x20A2 JUMP JUMPDEST PUSH2 0x20E9 PUSH2 0x20E1 DUP3 PUSH2 0x20C3 JUMP JUMPDEST DUP5 DUP5 SLOAD PUSH2 0x2048 JUMP JUMPDEST DUP3 SSTORE POP POP POP POP JUMP JUMPDEST PUSH0 SWAP1 JUMP JUMPDEST PUSH2 0x20FD PUSH2 0x20F1 JUMP JUMPDEST PUSH2 0x2108 DUP2 DUP5 DUP5 PUSH2 0x20CC JUMP JUMPDEST POP POP POP JUMP JUMPDEST JUMPDEST DUP2 DUP2 LT ISZERO PUSH2 0x212B JUMPI PUSH2 0x2120 PUSH0 DUP3 PUSH2 0x20F5 JUMP JUMPDEST PUSH1 0x1 DUP2 ADD SWAP1 POP PUSH2 0x210E JUMP JUMPDEST POP POP JUMP JUMPDEST PUSH1 0x1F DUP3 GT ISZERO PUSH2 0x2170 JUMPI PUSH2 0x2141 DUP2 PUSH2 0x201B JUMP JUMPDEST PUSH2 0x214A DUP5 PUSH2 0x202D JUMP JUMPDEST DUP2 ADD PUSH1 0x20 DUP6 LT ISZERO PUSH2 0x2159 JUMPI DUP2 SWAP1 POP JUMPDEST PUSH2 0x216D PUSH2 0x2165 DUP6 PUSH2 0x202D JUMP JUMPDEST DUP4 ADD DUP3 PUSH2 0x210D JUMP JUMPDEST POP POP JUMPDEST POP POP POP JUMP JUMPDEST PUSH0 DUP3 DUP3 SHR SWAP1 POP SWAP3 SWAP2 POP POP JUMP JUMPDEST PUSH0 PUSH2 0x2190 PUSH0 NOT DUP5 PUSH1 0x8 MUL PUSH2 0x2175 JUMP JUMPDEST NOT DUP1 DUP4 AND SWAP2 POP POP SWAP3 SWAP2 POP POP JUMP JUMPDEST PUSH0 PUSH2 0x21A8 DUP4 DUP4 PUSH2 0x2181 JUMP JUMPDEST SWAP2 POP DUP3 PUSH1 0x2 MUL DUP3 OR SWAP1 POP SWAP3 SWAP2 POP POP JUMP JUMPDEST PUSH2 0x21C2 DUP4 DUP4 PUSH2 0x2011 JUMP JUMPDEST PUSH8 0xFFFFFFFFFFFFFFFF DUP2 GT ISZERO PUSH2 0x21DB JUMPI PUSH2 0x21DA PUSH2 0x1D72 JUMP JUMPDEST JUMPDEST PUSH2 0x21E5 DUP3 SLOAD PUSH2 0x1F81 JUMP JUMPDEST PUSH2 0x21F0 DUP3 DUP3 DUP6 PUSH2 0x212F JUMP JUMPDEST PUSH0 PUSH1 0x1F DUP4 GT PUSH1 0x1 DUP2 EQ PUSH2 0x221D JUMPI PUSH0 DUP5 ISZERO PUSH2 0x220B JUMPI DUP3 DUP8 ADD CALLDATALOAD SWAP1 POP JUMPDEST PUSH2 0x2215 DUP6 DUP3 PUSH2 0x219D JUMP JUMPDEST DUP7 SSTORE POP PUSH2 0x227C JUMP JUMPDEST PUSH1 0x1F NOT DUP5 AND PUSH2 0x222B DUP7 PUSH2 0x201B JUMP JUMPDEST PUSH0 JUMPDEST DUP3 DUP2 LT ISZERO PUSH2 0x2252 JUMPI DUP5 DUP10 ADD CALLDATALOAD DUP3 SSTORE PUSH1 0x1 DUP3 ADD SWAP2 POP PUSH1 0x20 DUP6 ADD SWAP5 POP PUSH1 0x20 DUP2 ADD SWAP1 POP PUSH2 0x222D JUMP JUMPDEST DUP7 DUP4 LT ISZERO PUSH2 0x226F JUMPI DUP5 DUP10 ADD CALLDATALOAD PUSH2 0x226B PUSH1 0x1F DUP10 AND DUP3 PUSH2 0x2181 JUMP JUMPDEST DUP4 SSTORE POP JUMPDEST PUSH1 0x1 PUSH1 0x2 DUP9 MUL ADD DUP9 SSTORE POP POP POP JUMPDEST POP POP POP POP POP POP POP JUMP JUMPDEST PUSH0 DUP2 SWAP1 POP SWAP3 SWAP2 POP POP JUMP JUMPDEST POP JUMP JUMPDEST PUSH0 PUSH2 0x229D PUSH0 DUP4 PUSH2 0x2285 JUMP JUMPDEST SWAP2 POP PUSH2 0x22A8 DUP3 PUSH2 0x228F JUMP JUMPDEST PUSH0 DUP3 ADD SWAP1 POP SWAP2 SWAP1 POP JUMP JUMPDEST PUSH0 PUSH2 0x22BC DUP3 PUSH2 0x2292 JUMP JUMPDEST SWAP2 POP DUP2 SWAP1 POP SWAP2 SWAP1 POP JUMP JUMPDEST PUSH32 0x5472616E73666572206661696C65642E00000000000000000000000000000000 PUSH0 DUP3 ADD MSTORE POP JUMP JUMPDEST PUSH0 PUSH2 0x22FA PUSH1 0x10 DUP4 PUSH2 0x1A13 JUMP JUMPDEST SWAP2 POP PUSH2 0x2305 DUP3 PUSH2 0x22C6 JUMP JUMPDEST PUSH1 0x20 DUP3 ADD SWAP1 POP SWAP2 SWAP1 POP JUMP JUMPDEST PUSH0 PUSH1 0x20 DUP3 ADD SWAP1 POP DUP2 DUP2 SUB PUSH0 DUP4 ADD MSTORE PUSH2 0x2327 DUP2 PUSH2 0x22EE JUMP JUMPDEST SWAP1 POP SWAP2 SWAP1 POP JUMP JUMPDEST PUSH0 DUP2 SWAP1 POP SWAP3 SWAP2 POP POP JUMP JUMPDEST PUSH0 PUSH2 0x2342 DUP3 PUSH2 0x1A09 JUMP JUMPDEST PUSH2 0x234C DUP2 DUP6 PUSH2 0x232E JUMP JUMPDEST SWAP4 POP PUSH2 0x235C DUP2 DUP6 PUSH1 0x20 DUP7 ADD PUSH2 0x1A23 JUMP JUMPDEST DUP1 DUP5 ADD SWAP2 POP POP SWAP3 SWAP2 POP POP JUMP JUMPDEST PUSH0 PUSH2 0x2373 DUP3 DUP6 PUSH2 0x2338 JUMP JUMPDEST SWAP2 POP PUSH2 0x237F DUP3 DUP5 PUSH2 0x2338 JUMP JUMPDEST SWAP2 POP DUP2 SWAP1 POP SWAP4 SWAP3 POP POP POP JUMP JUMPDEST PUSH0 PUSH2 0x2395 DUP3 PUSH2 0x1A99 JUMP JUMPDEST SWAP2 POP PUSH2 0x23A0 DUP4 PUSH2 0x1A99 JUMP JUMPDEST SWAP3 POP DUP3 DUP3 MUL PUSH2 0x23AE DUP2 PUSH2 0x1A99 JUMP JUMPDEST SWAP2 POP DUP3 DUP3 DIV DUP5 EQ DUP4 ISZERO OR PUSH2 0x23C5 JUMPI PUSH2 0x23C4 PUSH2 0x1FB1 JUMP JUMPDEST JUMPDEST POP SWAP3 SWAP2 POP POP JUMP JUMPDEST PUSH0 PUSH2 0x23D6 DUP3 PUSH2 0x1A99 JUMP JUMPDEST SWAP2 POP PUSH0 DUP3 SUB PUSH2 0x23E8 JUMPI PUSH2 0x23E7 PUSH2 0x1FB1 JUMP JUMPDEST JUMPDEST PUSH1 0x1 DUP3 SUB SWAP1 POP SWAP2 SWAP1 POP JUMP JUMPDEST PUSH0 DUP2 MLOAD SWAP1 POP SWAP2 SWAP1 POP JUMP JUMPDEST PUSH0 DUP3 DUP3 MSTORE PUSH1 0x20 DUP3 ADD SWAP1 POP SWAP3 SWAP2 POP POP JUMP JUMPDEST PUSH0 PUSH2 0x2417 DUP3 PUSH2 0x23F3 JUMP JUMPDEST PUSH2 0x2421 DUP2 DUP6 PUSH2 0x23FD JUMP JUMPDEST SWAP4 POP PUSH2 0x2431 DUP2 DUP6 PUSH1 0x20 DUP7 ADD PUSH2 0x1A23 JUMP JUMPDEST PUSH2 0x243A DUP2 PUSH2 0x1A31 JUMP JUMPDEST DUP5 ADD SWAP2 POP POP SWAP3 SWAP2 POP POP JUMP JUMPDEST PUSH0 PUSH1 0x80 DUP3 ADD SWAP1 POP PUSH2 0x2458 PUSH0 DUP4 ADD DUP8 PUSH2 0x1B27 JUMP JUMPDEST PUSH2 0x2465 PUSH1 0x20 DUP4 ADD DUP7 PUSH2 0x1B27 JUMP JUMPDEST PUSH2 0x2472 PUSH1 0x40 DUP4 ADD DUP6 PUSH2 0x1BB7 JUMP JUMPDEST DUP2 DUP2 SUB PUSH1 0x60 DUP4 ADD MSTORE PUSH2 0x2484 DUP2 DUP5 PUSH2 0x240D JUMP JUMPDEST SWAP1 POP SWAP6 SWAP5 POP POP POP POP POP JUMP JUMPDEST PUSH0 DUP2 MLOAD SWAP1 POP PUSH2 0x249D DUP2 PUSH2 0x1981 JUMP JUMPDEST SWAP3 SWAP2 POP POP JUMP JUMPDEST PUSH0 PUSH1 0x20 DUP3 DUP5 SUB SLT ISZERO PUSH2 0x24B8 JUMPI PUSH2 0x24B7 PUSH2 0x194E JUMP JUMPDEST JUMPDEST PUSH0 PUSH2 0x24C5 DUP5 DUP3 DUP6 ADD PUSH2 0x248F JUMP JUMPDEST SWAP2 POP POP SWAP3 SWAP2 POP POP JUMP INVALID LOG2 PUSH5 0x6970667358 0x22 SLT KECCAK256 PUSH8 0x54915E5DAF2D51DA 0xCC 0xB0 0xCE BLOBBASEFEE 0x2C LOG1 SWAP13 TSTORE MCOPY 0xA9 EXTCODEHASH 0xC0 0xEE 0xDB PUSH27 0x1806B0F99FF2433F64736F6C634300081A00330000000000000000 "
		},
		"gasEstimates": {
			"creation": {
				"codeDepositCost": "1895200",
				"executionCost": "infinite",
				"totalCost": "infinite"
			},
			"external": {
				"approve(address,uint256)": "infinite",
				"balanceOf(address)": "2981",
				"freeMintsLeft()": "infinite",
				"getApproved(uint256)": "infinite",
				"isApprovedForAll(address,address)": "infinite",
				"maxMintPerWallet()": "2477",
				"mint(uint256)": "infinite",
				"mintPrice(uint256)": "infinite",
				"name()": "infinite",
				"owner()": "2560",
				"ownerOf(uint256)": "infinite",
				"renounceOwnership()": "infinite",
				"safeTransferFrom(address,address,uint256)": "infinite",
				"safeTransferFrom(address,address,uint256,bytes)": "infinite",
				"setApprovalForAll(address,bool)": "infinite",
				"setBaseURI(string)": "infinite",
				"setFreeMintCount(uint256)": "infinite",
				"setMintCount(uint256)": "infinite",
				"setMintPrice(uint256)": "infinite",
				"supportsInterface(bytes4)": "736",
				"symbol()": "infinite",
				"tokenURI(uint256)": "infinite",
				"totalSupply()": "6882",
				"transferFrom(address,address,uint256)": "infinite",
				"transferOwnership(address)": "infinite",
				"withdrawMoney()": "infinite"
			},
			"internal": {
				"_baseURI()": "infinite",
				"_sequentialUpTo()": "22"
			}
		},
		"methodIdentifiers": {
			"approve(address,uint256)": "095ea7b3",
			"balanceOf(address)": "70a08231",
			"freeMintsLeft()": "13e4fad5",
			"getApproved(uint256)": "081812fc",
			"isApprovedForAll(address,address)": "e985e9c5",
			"maxMintPerWallet()": "b228d925",
			"mint(uint256)": "a0712d68",
			"mintPrice(uint256)": "e6a72acf",
			"name()": "06fdde03",
			"owner()": "8da5cb5b",
			"ownerOf(uint256)": "6352211e",
			"renounceOwnership()": "715018a6",
			"safeTransferFrom(address,address,uint256)": "42842e0e",
			"safeTransferFrom(address,address,uint256,bytes)": "b88d4fde",
			"setApprovalForAll(address,bool)": "a22cb465",
			"setBaseURI(string)": "55f804b3",
			"setFreeMintCount(uint256)": "253ca934",
			"setMintCount(uint256)": "3345d34a",
			"setMintPrice(uint256)": "f4a0a528",
			"supportsInterface(bytes4)": "01ffc9a7",
			"symbol()": "95d89b41",
			"tokenURI(uint256)": "c87b56dd",
			"totalSupply()": "18160ddd",
			"transferFrom(address,address,uint256)": "23b872dd",
			"transferOwnership(address)": "f2fde38b",
			"withdrawMoney()": "ac446002"
		}
	},
	"abi": [
		{
			"inputs": [
				{
					"internalType": "address",
					"name": "initialOwner",
					"type": "address"
				}
			],
			"stateMutability": "nonpayable",
			"type": "constructor"
		},
		{
			"inputs": [],
			"name": "ApprovalCallerNotOwnerNorApproved",
			"type": "error"
		},
		{
			"inputs": [],
			"name": "ApprovalQueryForNonexistentToken",
			"type": "error"
		},
		{
			"inputs": [],
			"name": "BalanceQueryForZeroAddress",
			"type": "error"
		},
		{
			"inputs": [],
			"name": "MintERC2309QuantityExceedsLimit",
			"type": "error"
		},
		{
			"inputs": [],
			"name": "MintToZeroAddress",
			"type": "error"
		},
		{
			"inputs": [],
			"name": "MintZeroQuantity",
			"type": "error"
		},
		{
			"inputs": [],
			"name": "NotCompatibleWithSpotMints",
			"type": "error"
		},
		{
			"inputs": [
				{
					"internalType": "address",
					"name": "owner",
					"type": "address"
				}
			],
			"name": "OwnableInvalidOwner",
			"type": "error"
		},
		{
			"inputs": [
				{
					"internalType": "address",
					"name": "account",
					"type": "address"
				}
			],
			"name": "OwnableUnauthorizedAccount",
			"type": "error"
		},
		{
			"inputs": [],
			"name": "OwnerQueryForNonexistentToken",
			"type": "error"
		},
		{
			"inputs": [],
			"name": "OwnershipNotInitializedForExtraData",
			"type": "error"
		},
		{
			"inputs": [],
			"name": "SequentialMintExceedsLimit",
			"type": "error"
		},
		{
			"inputs": [],
			"name": "SequentialUpToTooSmall",
			"type": "error"
		},
		{
			"inputs": [],
			"name": "SpotMintTokenIdTooSmall",
			"type": "error"
		},
		{
			"inputs": [],
			"name": "TokenAlreadyExists",
			"type": "error"
		},
		{
			"inputs": [],
			"name": "TokenIdsNotStrictlyAscending",
			"type": "error"
		},
		{
			"inputs": [],
			"name": "TransferCallerNotOwnerNorApproved",
			"type": "error"
		},
		{
			"inputs": [],
			"name": "TransferFromIncorrectOwner",
			"type": "error"
		},
		{
			"inputs": [],
			"name": "TransferToNonERC721ReceiverImplementer",
			"type": "error"
		},
		{
			"inputs": [],
			"name": "TransferToZeroAddress",
			"type": "error"
		},
		{
			"inputs": [],
			"name": "URIQueryForNonexistentToken",
			"type": "error"
		},
		{
			"anonymous": false,
			"inputs": [
				{
					"indexed": true,
					"internalType": "address",
					"name": "owner",
					"type": "address"
				},
				{
					"indexed": true,
					"internalType": "address",
					"name": "approved",
					"type": "address"
				},
				{
					"indexed": true,
					"internalType": "uint256",
					"name": "tokenId",
					"type": "uint256"
				}
			],
			"name": "Approval",
			"type": "event"
		},
		{
			"anonymous": false,
			"inputs": [
				{
					"indexed": true,
					"internalType": "address",
					"name": "owner",
					"type": "address"
				},
				{
					"indexed": true,
					"internalType": "address",
					"name": "operator",
					"type": "address"
				},
				{
					"indexed": false,
					"internalType": "bool",
					"name": "approved",
					"type": "bool"
				}
			],
			"name": "ApprovalForAll",
			"type": "event"
		},
		{
			"anonymous": false,
			"inputs": [
				{
					"indexed": true,
					"internalType": "uint256",
					"name": "fromTokenId",
					"type": "uint256"
				},
				{
					"indexed": false,
					"internalType": "uint256",
					"name": "toTokenId",
					"type": "uint256"
				},
				{
					"indexed": true,
					"internalType": "address",
					"name": "from",
					"type": "address"
				},
				{
					"indexed": true,
					"internalType": "address",
					"name": "to",
					"type": "address"
				}
			],
			"name": "ConsecutiveTransfer",
			"type": "event"
		},
		{
			"anonymous": false,
			"inputs": [
				{
					"indexed": true,
					"internalType": "address",
					"name": "previousOwner",
					"type": "address"
				},
				{
					"indexed": true,
					"internalType": "address",
					"name": "newOwner",
					"type": "address"
				}
			],
			"name": "OwnershipTransferred",
			"type": "event"
		},
		{
			"anonymous": false,
			"inputs": [
				{
					"indexed": true,
					"internalType": "address",
					"name": "from",
					"type": "address"
				},
				{
					"indexed": true,
					"internalType": "address",
					"name": "to",
					"type": "address"
				},
				{
					"indexed": true,
					"internalType": "uint256",
					"name": "tokenId",
					"type": "uint256"
				}
			],
			"name": "Transfer",
			"type": "event"
		},
		{
			"inputs": [
				{
					"internalType": "address",
					"name": "to",
					"type": "address"
				},
				{
					"internalType": "uint256",
					"name": "tokenId",
					"type": "uint256"
				}
			],
			"name": "approve",
			"outputs": [],
			"stateMutability": "payable",
			"type": "function"
		},
		{
			"inputs": [
				{
					"internalType": "address",
					"name": "owner",
					"type": "address"
				}
			],
			"name": "balanceOf",
			"outputs": [
				{
					"internalType": "uint256",
					"name": "",
					"type": "uint256"
				}
			],
			"stateMutability": "view",
			"type": "function"
		},
		{
			"inputs": [],
			"name": "freeMintsLeft",
			"outputs": [
				{
					"internalType": "uint256",
					"name": "",
					"type": "uint256"
				}
			],
			"stateMutability": "view",
			"type": "function"
		},
		{
			"inputs": [
				{
					"internalType": "uint256",
					"name": "tokenId",
					"type": "uint256"
				}
			],
			"name": "getApproved",
			"outputs": [
				{
					"internalType": "address",
					"name": "",
					"type": "address"
				}
			],
			"stateMutability": "view",
			"type": "function"
		},
		{
			"inputs": [
				{
					"internalType": "address",
					"name": "owner",
					"type": "address"
				},
				{
					"internalType": "address",
					"name": "operator",
					"type": "address"
				}
			],
			"name": "isApprovedForAll",
			"outputs": [
				{
					"internalType": "bool",
					"name": "",
					"type": "bool"
				}
			],
			"stateMutability": "view",
			"type": "function"
		},
		{
			"inputs": [],
			"name": "maxMintPerWallet",
			"outputs": [
				{
					"internalType": "uint256",
					"name": "",
					"type": "uint256"
				}
			],
			"stateMutability": "view",
			"type": "function"
		},
		{
			"inputs": [
				{
					"internalType": "uint256",
					"name": "quantity",
					"type": "uint256"
				}
			],
			"name": "mint",
			"outputs": [],
			"stateMutability": "payable",
			"type": "function"
		},
		{
			"inputs": [
				{
					"internalType": "uint256",
					"name": "quantity",
					"type": "uint256"
				}
			],
			"name": "mintPrice",
			"outputs": [
				{
					"internalType": "uint256",
					"name": "",
					"type": "uint256"
				}
			],
			"stateMutability": "view",
			"type": "function"
		},
		{
			"inputs": [],
			"name": "name",
			"outputs": [
				{
					"internalType": "string",
					"name": "",
					"type": "string"
				}
			],
			"stateMutability": "view",
			"type": "function"
		},
		{
			"inputs": [],
			"name": "owner",
			"outputs": [
				{
					"internalType": "address",
					"name": "",
					"type": "address"
				}
			],
			"stateMutability": "view",
			"type": "function"
		},
		{
			"inputs": [
				{
					"internalType": "uint256",
					"name": "tokenId",
					"type": "uint256"
				}
			],
			"name": "ownerOf",
			"outputs": [
				{
					"internalType": "address",
					"name": "",
					"type": "address"
				}
			],
			"stateMutability": "view",
			"type": "function"
		},
		{
			"inputs": [],
			"name": "renounceOwnership",
			"outputs": [],
			"stateMutability": "nonpayable",
			"type": "function"
		},
		{
			"inputs": [
				{
					"internalType": "address",
					"name": "from",
					"type": "address"
				},
				{
					"internalType": "address",
					"name": "to",
					"type": "address"
				},
				{
					"internalType": "uint256",
					"name": "tokenId",
					"type": "uint256"
				}
			],
			"name": "safeTransferFrom",
			"outputs": [],
			"stateMutability": "payable",
			"type": "function"
		},
		{
			"inputs": [
				{
					"internalType": "address",
					"name": "from",
					"type": "address"
				},
				{
					"internalType": "address",
					"name": "to",
					"type": "address"
				},
				{
					"internalType": "uint256",
					"name": "tokenId",
					"type": "uint256"
				},
				{
					"internalType": "bytes",
					"name": "_data",
					"type": "bytes"
				}
			],
			"name": "safeTransferFrom",
			"outputs": [],
			"stateMutability": "payable",
			"type": "function"
		},
		{
			"inputs": [
				{
					"internalType": "address",
					"name": "operator",
					"type": "address"
				},
				{
					"internalType": "bool",
					"name": "approved",
					"type": "bool"
				}
			],
			"name": "setApprovalForAll",
			"outputs": [],
			"stateMutability": "nonpayable",
			"type": "function"
		},
		{
			"inputs": [
				{
					"internalType": "string",
					"name": "baseURI",
					"type": "string"
				}
			],
			"name": "setBaseURI",
			"outputs": [],
			"stateMutability": "nonpayable",
			"type": "function"
		},
		{
			"inputs": [
				{
					"internalType": "uint256",
					"name": "newCount",
					"type": "uint256"
				}
			],
			"name": "setFreeMintCount",
			"outputs": [],
			"stateMutability": "nonpayable",
			"type": "function"
		},
		{
			"inputs": [
				{
					"internalType": "uint256",
					"name": "newCount",
					"type": "uint256"
				}
			],
			"name": "setMintCount",
			"outputs": [],
			"stateMutability": "nonpayable",
			"type": "function"
		},
		{
			"inputs": [
				{
					"internalType": "uint256",
					"name": "newPrice",
					"type": "uint256"
				}
			],
			"name": "setMintPrice",
			"outputs": [],
			"stateMutability": "nonpayable",
			"type": "function"
		},
		{
			"inputs": [
				{
					"internalType": "bytes4",
					"name": "interfaceId",
					"type": "bytes4"
				}
			],
			"name": "supportsInterface",
			"outputs": [
				{
					"internalType": "bool",
					"name": "",
					"type": "bool"
				}
			],
			"stateMutability": "view",
			"type": "function"
		},
		{
			"inputs": [],
			"name": "symbol",
			"outputs": [
				{
					"internalType": "string",
					"name": "",
					"type": "string"
				}
			],
			"stateMutability": "view",
			"type": "function"
		},
		{
			"inputs": [
				{
					"internalType": "uint256",
					"name": "tokenId",
					"type": "uint256"
				}
			],
			"name": "tokenURI",
			"outputs": [
				{
					"internalType": "string",
					"name": "",
					"type": "string"
				}
			],
			"stateMutability": "view",
			"type": "function"
		},
		{
			"inputs": [],
			"name": "totalSupply",
			"outputs": [
				{
					"internalType": "uint256",
					"name": "result",
					"type": "uint256"
				}
			],
			"stateMutability": "view",
			"type": "function"
		},
		{
			"inputs": [
				{
					"internalType": "address",
					"name": "from",
					"type": "address"
				},
				{
					"internalType": "address",
					"name": "to",
					"type": "address"
				},
				{
					"internalType": "uint256",
					"name": "tokenId",
					"type": "uint256"
				}
			],
			"name": "transferFrom",
			"outputs": [],
			"stateMutability": "payable",
			"type": "function"
		},
		{
			"inputs": [
				{
					"internalType": "address",
					"name": "newOwner",
					"type": "address"
				}
			],
			"name": "transferOwnership",
			"outputs": [],
			"stateMutability": "nonpayable",
			"type": "function"
		},
		{
			"inputs": [],
			"name": "withdrawMoney",
			"outputs": [],
			"stateMutability": "nonpayable",
			"type": "function"
		}
	]
}